:020000040800F2
:1000000000A00020517C010809170108914E010849
:100010000717010805170108031701080000000071
:1000200000000000000000000000000001170108AF
:10003000FF16010800000000FD160108ADE30008EE
:10004000B97C0108B97C0108B97C0108B97C0108B8
:10005000B97C0108B97C01087D3401087B340108B2
:10006000B97C0108B97C0108B97C0108B97C010898
:1000700035E1000825E100082B020108B97C0108E0
:1000800015E1000805E10008B97C0108B97C010808
:10009000E9170108B97C0108B97C01087934010825
:1000A000B97C0108F1140108C51401080115010803
:1000B000E5140108D5140108B97C0108B97C0108D0
:1000C000B97C0108B97C0108B97C0108B97C010838
:1000D000B97C0108B1160108A51601089916010896
:1000E000BDE30008B97C01087D660108B97C010800
:1000F000B97C0108B97C0108B97C0108B97C010808
:10010000000000000000000000000000B97C0108B1
:10011000B97C0108B97C0108B97C0108B97C0108E7
:10012000B97C0108B97C0108B97C0108B97C0108D7
:10013000B97C0108B97C0108000000000000000043
:10014000B97C0108B97C0108B97C010800000000F5
:10015000000000000000000000000000000000009F
:100160000000000000000000B97C0108B97C010813
:10017000B97C010800000000000000000000000041
:0801800000000000B97C010839
:100188002DE9F04F2DED068B904D914B2B60B1B0C2
:1001980000236B6011F0E2FE18B912F0BBF814F0FE
:1001A800EBFB11F0FFFE8B4B8B4C1A7842F00102EF
:1001B8001A708A4A4FF47001C2F8881000220B9214
:1001C8000C92226842F4803222600693236803F47A
:1001D80000330C930B9B01330B930C9B1BB90B9BAC
:1001E800B3F5A04FF2D1236813F4003318BF0123ED
:1001F8000C930C9B012B00F0B280794BDFF8DC816B
:10020800DB7B784FDFF818A2003318BF01232B726D
:10021800754BC8F80C30636AEB60636A43F080730F
:100228006362636943F4FC03636103238DF87230EE
:1002380030AB0393039A41F6FF7322F8503D4FF019
:1002480090401146039209F03DF84FF6FF73384687
:100258000399ADF8703009F035F86448039909F04E
:1002680031F86348039909F02DF86248039909F0B9
:1002780029F86148039909F025F80DF1C00904230C
:100288008DF85630402329F86C3D4FF0020C384663
:1002980049468DF857C0CDF810C009F013F84FF44F
:1002A800806349463846ADF8543009F00BF8039896
:1002B80009F070FE1C9B514AB3FBF2F3504A1360DD
:1002C800504B514A4FF0000BC3F800B0C3F804B0CC
:1002D8004E4B5A60F02288F823200722C3F808B052
:1002E8001A603F4B039E9B68CAF80030484B0FCBFF
:1002F80086E80F0063691C98394E43F480236361D4
:10030800636943F4802363614FF020081023BB61C5
:100318001DA9C7F8188008F0D5FF1E981FA908F076
:10032800D1FF0122ADF870208DF872206269DDF8E6
:1003380010C08DF873C042F4003262614FF09040F3
:10034800039908F0BFFF334A3349116058460EF04D
:100358003DF8DAF8002012F0080F29D168E02F4B99
:1003680012221A606368636063686360636843F4B9
:1003780080636360636823F47C136360636843F499
:10038800E8136360236843F0807323602268124B8C
:100398009201FBD55A6822F003025A605A6842F06B
:1003A80002025A60636803F00C03082BFAD124E7B1
:1003B80096F89821012A3BD8044996F89A21C968E9
:1003C80011F0805B00F0F78632E000BF20050020C6
:1003D800134101084C2A00200010024000ED00E003
:1003E8007C2B0020000400480005FA05000800489E
:1003F800000C0048001000480014004840420F005C
:10040800501B0020A41B00203F19010010E000E051
:1004180098920108EC340020A3DE00080020024076
:10042800D4330020B84B002283F89A2114F03EFB05
:1004380064200DF0AAFEA022B448002117F061FD47
:10044800E369B34A43F00303E361A36943F48123F7
:10045800A361636943F4C023636102F1600E937B77
:100468005768D07B03F00701DB0807EB830389009B
:100478001F6A4FF00F0C88400CFA01F127EA0101BE
:100488001962196A1032084372451862E7D1A14F00
:10049800DFF8F8B24FF00008FF23AB75EB752B7649
:1004A8006B7638464146102285F8108085F8118011
:1004B80085F8128085F8138085F8148085F81580F2
:1004C80017F01FFD944B3B607B60BB60FB60934B58
:1004D800934F1F60934B04221A70414630225846AE
:1004E80017F00FFD14238BF8003002238BF824300B
:1004F8008D4B72791A708D48A7F20223EB61A7F52C
:10050800A17303608A4B03EBC20301215B782B6262
:10051800DAF800308BF818109F0644BF854B196233
:100528000023854940F2DC5021F813000133082BE1
:10053800F7D1012A02D0192A40F030817F4B804A36
:100548001B6880491268804FDFF8448292ED077A71
:10055800DFED7E9ADFF83CA203F1460093F84E30B7
:10056800086003EB83037A497A4808605B003B80A4
:10057800138AB2F90E10A8F80030774B06EE901ADD
:100588001A60B6F84411B6F84631744A5B1A7449D1
:100598009BB20B801BB207EE903AF8EEE77AF8EEC2
:1005A800E66AC7EE877A6F4B4FF4C87BF2EE048A8F
:1005B800C6EEA86AC3ED007A27EE297ADFED6A7ADB
:1005C800CAED006A27EE277AB7EE008AFCEEC77AF2
:1005D800B0EE480A17EE903AA6EEA60A138018F075
:1005E8006BF99AED009A30EE080A4FF0000A80EE97
:1005F800090A17F095FE5D4A5D493F885D48F3EEAC
:10060800047A20EE270A9FED5C7AFDEEC07AB0EE00
:1006180068AA17EE903A1380B8F8002013B207EED4
:10062800903AF8EEE77AD04667EE877AF0EE69AA54
:10063800FDEEE77AF0EE488A17EE903A0B804F4BC2
:100648001A80C7F5617207F5617792B2BFB20FFAE7
:100658008BF107EE901AB8EEE78A0790C8EE0A7A8F
:10066800059204919FED468A27EE888AB0EE480AE3
:1006780014F020F9F0EE409AB0EE480A14F0B8F8F9
:10068800F0EE407AD9EE697A059A04990798C9EE8E
:10069800899A0FFA82FE714567EEAA7A30EE690AE6
:1006A80088EE800A27EE800AFDEEC07A17EE903AAF
:1006B80040F8043F09DB0FFA87FE714505DC9845D1
:1006C800A8BF98469A45B8BF9A460BF10A0B1FFA7D
:1006D8008BF3B3F5AF6F1FFA83FBB8D1294BC8F181
:1006E8000008D045D4BFC3F80080C3F800A01A4B57
:1006F8001B689A7C244B022A04D0032A4CD0012A76
:100708004AD14AE0032248E07C2B00201C1C002030
:10071800D8B70108401B0020A1DE00089C33002048
:10072800922D002022100020300C0020381D0020BF
:100738007CD2010820050020C80F0020C816002020
:10074800640B0020C01B0020BC1B002000007A4462
:10075800C41B0020D20F0020340C0020340E0020CF
:10076800CE1B00201C0E00203333B33ECC1B0020D0
:10077800C81B0020480C00209999993ECA1B0020EC
:1007880035FA8E3C480C002000000020A0330020E1
:10079800180E0020F034002002221A70484600216A
:1007A8001C2217F0AEFBBB4BDFF80C831F6817F455
:1007B800007B1CBF039B1B93737914BFCDF810807B
:1007C800CDF810B00E2B03D003F0EF03082B02D1A5
:1007D80001238DF8663002200DF06FFB18B14088B8
:1007E800003018BF0120C7F340038DF85A30C7F313
:1007F80080138DF85C30C7F340338DF85430C7F35D
:10080800C03300F001008DF8573017F400638DF8FD
:10081800590004D096F88C31581E434243418DF854
:100828005830C7F300438DF85D302B6AB6F848217D
:10083800ADF86A201BF1000B18BF4FF0010B003315
:1008480018BF01238DF85F30C7F300538DF860306F
:10085800B6F84A31ADF86430F904B6F8563148BFF5
:100868008D4AADF86230C7F380438DF85B30B6F837
:10087800543144BFB2F85021ADF86A20B3F5FA7F7D
:10088800ADF8683084BF0023ADF86A3007F0010A7C
:1008980096F8DE31814885F82430C7F3C009002175
:1008A80038228DF855A08DF856908DF85EB017F067
:1008B80028FB9DF86630002B0CBF00230223BAF1F9
:1008C800000F02D1B9F1000F00D0013308EB830803
:1008D8004FF00009D8F828309A1E0A33059207937A
:1008E800059A32F8023F05924FF6FF72934200F0E4
:1008F800B881D9B21A0A9DF859307BB1684B694E54
:1009080003EB01135868B04208D11B89B3F5806F17
:1009180000F0A281B3F5006F00F09E819DF85D3074
:100928007BB10B015E48C618C0585F4B984200F077
:10093800938173685B48834203D1B37B082B00F033
:100948008B819DF85A3053B1554B03EB011358680E
:10095800B0F1904F03D11B89202B00F07D819DF8C9
:10096800573053B14E4B03EB01135868B0F1904F19
:1009780003D11B89402B00F06F819DF8583053B18B
:10098800474B484E03EB01135868B04203D11B890B
:10099800042B00F061811B9E7EB1414F336807EB49
:1009A80001177868984208D13B89B088984200F0CE
:1009B8005381F088984200F04F81022A02D19DF8B5
:1009C800543003E0012A04D19DF85530002B00F083
:1009D8004381334E9DF85F304FEA011846442BB1EE
:1009E8009DF8663013B9012900F01281012AD3B2AB
:1009F80064D12E4FFF2387F86C3087F86D30284B71
:100A0800FE6703EB08024FF0000A517B50688DF82F
:100A1800721002F1080B1289ADF870201CA902228D
:100A280087F870A008938DF8732087F828A0C7F876
:100A38002CA0C7F830A0C7F834A0C7F868A087F87A
:100A48006EA087F86FA008F03DFC089B9BF8021089
:100A580053F80800524608F07FFB304614F064FE55
:100A6800134BC7F88030134BC7F8843007F1800167
:100A780007F18402C7F888A0304610F0AFFD074B95
:100A88009A7803EBC202202151721A7901321A7145
:100A9800DEE000BFD43300207C2B0020881000202B
:100AA800D8B7010800040048004401402005002090
:100AB800F18E0008D18F000880920108022B51D1D5
:100AC8005FFA89F21C2101FB02FCB74ACDF824C069
:100AD80002EB0C07012287F87020B44A87F871905E
:100AE80002EB08014FF0000A91F80DE0486887F81A
:100AF80072A001F1080B0989ADF8701087F87AA087
:100B08001CA9FE678DF872E08DF87330089208F022
:100B1800D9FB089A9BF8021052F80800524608F0D0
:100B28001BFB304614F000FE9F4BDDF824C0A04AA2
:100B3800C7F880209C440CF180019E4AC7F88420A5
:100B4800C7F888A00A1D304610F048FD9A4B9A78DD
:100B580003EBC20240215172DA780132DA7009F1EE
:100B6800010975E0032B51D19DF85B30924F93B189
:100B78000023304608214FF6FF7297F8018008F0ED
:100B8800CAFB8E4B43F828008D4BC360BB7807EB3C
:100B9800C30719232DE0BDF8682097F80180B2F546
:100BA800FA7F13D9874BB3FBF2F23046BDF86A30AF
:100BB800082192B208F0AFFB804B43F82800824B23
:100BC800C360BB7807EBC3070D2312E07F4BB3FB71
:100BD800F2F23046BDF86A30012192B208F09BFB70
:100BE800764B43F82800764BC360BB7807EBC30706
:100BF8000923714A7B7293785178013302F83310D4
:100C080002EBC30301315E60517021E0042B23D154
:100C1800694FBDF862206D4B93FBF2F2012192B24D
:100C2800BDF8643097F80080304608F074FBBA7855
:100C38005D4B013207EBC20103EB88080A234B70B6
:100C48003B7807F832300133C8F850014E603B70EA
:100C5800594A937801339370059B079A93427FF41E
:100C68003FAE554B504E197886F870115849594A7D
:100C780091F800E0AEF11701002702291770994694
:100C880094461AD8F3693B44D3ED007AF5EE407ADE
:100C9800F1EE10FA02D1336A63BB26E04E4A07EB45
:100CA80002080FCB88E80F009CF80030103701339A
:100CB800C02F8CF80030E5D1EDE7484B13F83EA083
:100CC80082F800A003EBCE03D3F804B0BBF1000F09
:100CD800E1D05745DFDA404A3B0103EB02085B44A9
:100CE8000FCB013788E80F00F3E73D4F3B68DA0484
:100CF80026D41FE03B4B3C4A13F83E00107003EB30
:100D0800CE035F68002FF0D000238342EDDAC3EBF7
:100D1800C3017A18DFF8DCA0D2F800B041F80AB0B5
:100D280001EB0A089188A8F80410927988F806203F
:100D38000133EAE70EF0EF03082B2C4B20D122E019
:100D48009CF80020012AF5D9294B03EB0212103236
:100D580010339342EED053ED047AB6EE007A67EE84
:100D6800877A43ED047A53ED057A67EE877A43ED87
:100D7800057A53ED037A67EE877A43ED037AE7E75E
:100D8800BEF10E0F09D11A7842F010021A70BEF1A6
:100D9800180F31D10DF05AFD2EE01A7822F010020A
:100DA8001A70BEF1190FF4E720050020D8B7010822
:100DB8005D920008C98E000888100020E81B0020FA
:100DC800E18F000800127A00F18F000840420F00FE
:100DD800300C0020181C0020680B00207CD2010871
:100DE800D4330020849D0108C41C0020281A002048
:100DF800700B0020C51C00200DF00CFD8E4B99F8DF
:100E080003209A8099F80420DA803B688B4F5B03B3
:100E18005EBF8B4B01221A70069B069A1B7843F023
:100E280004031370E36943F48043E361236943F4E3
:100E380080432361636943F4802363617B6A23F4FD
:100E480070037B627B6A43F4A0037B627B6A23F0B6
:100E580070637B627B6A43F0A0637B627B6A23F0EA
:100E680070437B627B6A43F0A0437B627B6A23F416
:100E780070237B627B6A4FF0030943F4A0234FF091
:100E8800020B4FF000087B6238464FF460438DF840
:100E980074B08DF8759003991C934FF0010A8DF882
:100EA80076808DF8778009F0E3F94FF4805338465F
:100EB80003991C9305938DF874A08DF875908DF89F
:100EC80076808DF8778009F0D3F92269059B42F482
:100ED80080422261226922F480422261594A918823
:100EE80021F480510904090C9180918889B241F458
:100EF80080519180118801F4415141F4457141EAD2
:100F080009011180918821F470610904090C41F4E8
:100F1800E0619180918B21F400610904090C9183AF
:100F280007211182118889B241F040011180BB610B
:100F38006269454BC5F8743142F40032039362612B
:100F4800E26942F48002E261226B22F0200222630D
:100F5800226B42F0805242F0200222634FF090440C
:100F680030AF626A22F0F0026262626A42F04002C6
:100F78006262626A22F470626262626A42F4806249
:100F880062624FF4004221924FF4007247F8802DBC
:100F9800204639468DF84780CDF87080CDF87480AA
:100FA800CDF87880CDF87C80CDF88080CDF8888029
:100FB8008DF844B08DF845908DF846A009F058F9A1
:100FC8004FF4806220463946109209F051F9039B8C
:100FD8002A7ACDF87480CDF87880CDF87C80CDF869
:100FE8008080CDF88880CDF884801C460AB1174BE4
:100FF80000E0174B14481C931CA908F035FF236820
:10100800144A43F0010323601368134C03F00205EC
:10101800C3F3C03AC3F3C0286379012B914601D0CA
:10102800192B1CD194F80232012B17D0022B08BFC0
:101038004FF0010813E000BF1A1000200004004818
:101048007C0F00200038004000580040300E50004F
:101058007A25E000D43300207C2B00209A46DFF864
:101068000CB300211022584616F04BFF4FF6FF73C1
:1010780010930222002303218DF845208DF8463075
:101088008DF847308DF84410A5B1202110914FF00C
:10109800904039460593039209F0EAF8059B039AB4
:1010A8008BF80130012507238BF800208BF80330DB
:1010B8008BF80250BAF1000F13D040234FF0904044
:1010C8003946109309F0D4F803238BF8043007232A
:1010D8008BF8073001238BF805501D448BF8063038
:1010E800EDB2B8F1000F12D0042396481093394698
:1010F80009F0BEF80C238BF80C3007238BF80F305F
:1011080001238BF80D501D448BF80E30EDB28E4B39
:101118008E48DA6A8D4F22F4F872DA62DA6A42F49B
:10112800D872DA625A6942F0805242F002025A6179
:1011380008F021FE1CA808F0F3FD854B1C93854B95
:101148001D93012D4FF0000394BF1A46802221926F
:101158004FF4807222924FF4806223922022384604
:1011680024921CA94FF400521E9320932592269393
:10117800ADF87C5008F0E1FD3B6843F001033B60AB
:10118800754FBB6823F04053BB60BB6843F0805386
:10119800BB600A200CF0F9FFBB6823F08043BB60FA
:1011A800BB68BB60BB6843F00043BB60BA686A4B6E
:1011B800002A36DAFAE7013A092A3FF639A9674BD5
:1011C800A7F82880D86B039B186019464FF0904009
:1011D80008F078F84FF09042082191613C200CF01B
:1011E800D4FFC7F818805F4696F89A319F42BFF639
:1011F80019A9544B4FF0904810224FF0080B9A61F0
:10120800782005920493A8F828B00CF0B3FF049B4B
:10121800059A1A857820C8F818B00CF0ABFF01378A
:10122800E2E79A684E4922F040529A609A6842F082
:1012380000529A6088684B4A024042F468328A60D9
:10124800D968494A0A4042F40052DA601A6B013DF3
:1012580022F00F0215431D63002001230BEB00024F
:101268009178002900F09A805D1C042B1BF800106F
:10127800D778DFF8E4E0EDB20FD803EB43035A0068
:10128800DEF830801F23934028EA030C01FA02F3AA
:101298004CEA0303CEF8303039E0092B12D84FF06E
:1012A800060C053B0CFB03F3DEF834204FF01F0C53
:1012B8000CFA03FC22EA0C0201FA03F31343CEF8FA
:1012C800343024E00E2B4FF0060C10D80A3B0CFBF0
:1012D80003F3DEF838204FF01F0C0CFA03FC22EA67
:1012E8000C0201FA03F31343CEF838300FE00F3B3A
:1012F8000CFB03F3DEF83C204FF01F0C0CFA03FC48
:1013080022EA0C0201FA03F31343CEF83C30092910
:10131800DFF844E02CD9DEF81830A1F10A0303EB1A
:101328004303DEF8181007229A4021EA0202CEF899
:101338001820DEF8182007FA03F31343CEF8183004
:101348002BE000BF000400480010024008040240DF
:1013580040010050841500200001005098920108B7
:1013680000030050E010FCFF07C0FFFD74150020CB
:10137800DEF814304B1E03EB4302DEF8141038235A
:10138800934021EA0303CEF81430DEF81410033238
:1013980007FA02F30B43CEF814302B46043010281A
:1013A8007FF45CAF9C4B9A6842F001029A601A463F
:1013B8001168994BCF07FBD5DA6822F00202DA6090
:1013C800DA6842F00202DA60DA6842F00102DA60B2
:1013D8009A6842F004029A60B4F85C318F4A002B94
:1013E80041F09980B2F95E11002941F09480B2F978
:1013F8006021002A41F08F80D9F800309D031FD565
:10140800C8200CF0C2FEAE2008F083F908B108F03D
:1014180084F9834D86F87801C8200CF0B6FE814B1C
:10142800C6F87C3100211422284616F06AFD0223F2
:10143800EB7012F04CF90CF081FE7B4B0344AB606F
:101448007A4B7B481B6894F86891B3F85AB0A38923
:1014580003930021637C05930C2294F8638194F82C
:10146800715194F8727194F810A0724C16F049FDFD
:1014780000211422704816F044FD4FF0000C86F845
:1014880080C1614684F881C10C2204F5C270CDF890
:1014980018C016F036FD694AC6F8902123200CF0D2
:1014A80074FE7520012110AA0FF058FEC0B1644ADD
:1014B800C4F88821DDF818C0624AC4F88C21432298
:1014C80084F8842160461CAA01210FF047FE9DF88C
:1014D800702002F07E028DF87020002845D14DE082
:1014E800594A138823F040031B041B0C13801388EC
:1014F80023F038031B041B0C43F0300313801388BC
:101508009BB243F0400313806B2080210FF010FE44
:10151800062496200CF039FE1CAA752001210FF034
:10152800D9FD9DF87020682A04D0631E13F0FF04CB
:10153800EFD136E00C2001211CAA0FF0CBFD9DF85D
:101548007030142B2DD3182B02D9543B062B28D8D6
:10155800032386F88031432386F884313B4BC6F851
:1015680088313B4BC6F88C311BE0682A06D1012232
:1015780084F880211D2284F8842112E09DF84030EF
:1015880003F07E03682B8DF8403005D1022386F8DE
:1015980080310FF053FF04E0702B04BF042386F85A
:1015A800803196F880112B4A00230329137013D138
:1015B800214B294818602948586011702848294942
:1015C800D86029481861294B086806221A7040F02B
:1015D80001020A609E4603E001200CF053FF62E11D
:1015E80042460A2A28BF00220123934040F20234CF
:1015F8001C40002C42D113F0FD0F3FD00C4B1C4A6D
:101608001A601C4A5A601C4B03221A7010430723A5
:101618008EF80130086038E0000100507C2B002073
:10162800801600200C2D0020404B4C00781600201E
:10163800641F00202005002098340020B89201087B
:10164800651101085911010800380040DD10010832
:1016580039110108580A0020F51201084D10010837
:1016680039100108601F002090C1793D98010020C1
:1016780095320108951001081D350020012A4FF008
:101688000008ADD8AF4B83F80080042F70D8012430
:1016980004FA07F313F0160871D113F0090F65D097
:1016A8000A200CF072FD7720A021224610AB07F02B
:1016B8001FFF002863D077201E21224607F094FFE1
:1016C8004FF42F600CF056FDA8F160010027C9B255
:1016D80002221CAB77208DF870708DF8717007F0BE
:1016E80007FF9DF870209DF87130974943EA02235F
:1016F80001F5CA7228F8023008F10208B8F1100F93
:10170800E2D1B1F8A22102F00F0E02F47F42A1F853
:10171800A22101203B463946DFF82CC221F00107FF
:101728006744B7F89471002F18BF0020CC0703D581
:10173800FFB27B40082702E083EA1723FAE71C047C
:1017480048BF83F4C053013F4FEA4303F7D1013147
:101758001029E1D17C4942EA0E02A1F8A22170B910
:10176800C3F303339E4500F0BA8608E0012F06D084
:10177800764B774A9F70136843F004031360744FE5
:101788003B689A0702D5734B1B689847DFF8B88106
:10179800714ABAF1000F0ED00599B9F1000F01F1A5
:1017A800FF34E4B20CBF7D234FF47A7386F8A4416A
:1017B80004FB033302E0039B88F8A4A11360674B82
:1017C80048461B689847664C0023022D237004D0B6
:1017D800032D19D0002D40F0948630AB002203F879
:1017E800502DC8F8A8211E200A21012207F080FEEA
:1017F80050B19DF87030482B06D15A4B5A4A1A609E
:101808005A4A5A60022319E030AB002603F8506D9B
:101818000C203146012207F06BFE60B19DF8703054
:10182800482B40F0E7864F4B514A1A60514A5A609C
:101838000323237002E0064600F0DCBE434AD3705F
:101848003B6843F008033B604B4B93F858210AB1BF
:101858004A490A7093F859210AB13A490A7093F82B
:101868005A3103B123703B68454913F0080F00F063
:101878004E860FFA8BF0642290FBF2F302FB130200
:1018880012B207EE902AB8EEE77A07EE903ADFED4B
:101898003D6AF8EEE77AE7EE267AB2EE047A67EE6A
:1018A800877AC1ED007A384A137843F0020313703F
:1018B800364B20221A8510229A610A24334DAB8AAE
:1018C8009BB283F02003AB82AB8A9BB283F01003F8
:1018D800AB8219200CF059FC01200CF077FD19207F
:1018E8000CF053FC013C00200CF070FD14F0FF04D8
:1018F800E4D11023AB612023AB61174B1E68244B46
:101908001A6892F90C201D4672B9114C23681B07FE
:1019180044D51E4D134B20261B682E8598471D4B1A
:10192800AE6101221A7039E02B681B4893ED020A58
:1019380020443146243412F018FCB4F5907FF3D1DA
:10194800E3E700BF1D350020200500209801002096
:10195800601F0020641F00206419002098340020B4
:1019680019350020D4260020E9300108992F0108F4
:1019780079300108052F01087C2B0020580A002027
:10198800F01A00208988883C4C2A0020000400486E
:10199800640B0020F42600205C0E0020BB4B9FED5A
:1019A800BC8A1B68BB4D1B7B00EE103AB8EEC00A20
:1019B80020EE080A12F07EFFB74B9FEDB87A83ED50
:1019C800000AB74BD3ED047AB64B67EE887AC3EDBD
:1019D800007AB54B1B8807EE903AF8EEE77AB34BDE
:1019E800C7EE277A9FEDB27AC7EE877AC3ED007A01
:1019F8000BF0C4FE2846FF211D2216F082FA266845
:101A0800AC4B012216F0020F18BF6A701A701FBF84
:101A180003221A700222AA70770748BF1A784FF07B
:101A28000001297041BF511C19700321A9541A786B
:101A38002846511CC9B21B2716F00A0F1970954D7C
:101A480087540CD004266E54911CC9B205266E54D6
:101A5800161D98490332D2B20E700621A954964D2C
:101A680029688E0641BF1A78561C1E70072648BF83
:101A780086540A0608D51A7809268654961C013217
:101A8800D2B21E700A2686548C4E777907F0EF0280
:101A9800082A01D00E2F08D11A7802F1010E83F816
:101AA80000E04FF00B0E00F802E01A7811F4803FC6
:101AB8004FF00C0C00F802C002F1010E1CBFDFF859
:101AC800F4C102325FFA8EFE83F800E01FBF8CF883
:101AD8000020704A4FF00E0C02F80EC04A0741BFB2
:101AE8001A7802F1010E83F800E04FF0100E48BF9B
:101AF80000F802E01A7802F1010E5FFA8EFE4FF04C
:101B0800120C11F4806F83F800E000F802C00ED0C8
:101B180096F838C2BCF1000F09D0DFF898C102323C
:101B28008CF800205B4A4FF0130C02F80EC08A05AF
:101B380041BF1A7802F1010E83F800E04FF0150E4C
:101B480048BF00F802E0182F13D11A784FF0160E8C
:101B580000F802E002F1010E5FFA8EFE4FF0170C5A
:101B680000F80EC002F1030E0232D2B283F800E090
:101B780087540F0341BF1A78571C1F70192748BF95
:101B88008754CA0548BF1A784D4F41BF511C197078
:101B98001A2181541A78511C19701C23835400216E
:101BA8009822484816F0ADF913F051FF464B4749C3
:101BB8001960474BB6F852214648396046491A80A1
:101BC8000023464AD0F800E00B70B6F8A011138045
:101BD80093701FFA81F90EF17D028046404FDFF8BD
:101BE80004C13868DFF800A12CF8139000F596704E
:101BF8004AF823000133122B6046EFD1D5F800C014
:101C08001CF4805F08BFB6F8A691A0F806900EF104
:101C1800CD0E1378F3B992F80290D378994519D27A
:101C2800B9F1000F08D009F1FF3909EB890909EB6F
:101C3800890909F5617306E0013303EB830303EBBC
:101C4800830303F5617392F8019009F104099BB2CB
:101C580020F8193004327245DBD11CF0080F00F06F
:101C68003F8196F898E1BEF1080F00F23381DFE872
:101C78001EF009003D0044006F008900AA00AA0078
:101C8800E800010145F2F05232E000BF901A00204E
:101C980035FA8E3C291F0020F41A00200AE81C415E
:101CA80098340020E01A0020C8000020A826002050
:101CB80000401C46281F0020D43300207C2B002025
:101CC800E81E0020E42A0020981100200C2D002096
:101CD8009C11002078160020EA100020F41E002035
:101CE8008C140020982A00203411002042F6F82293
:101CF800AE4B1A8013F05DFFEBE0AC4B42F6F822D6
:101D08001A8009010A2391FBF3F10023A1F5B061C0
:101D1800A74A42F823100133122BF9D1A54AA64944
:101D28001160A64A402013700CF0FEF8002800F05D
:101D3800D18096F8993190F90000002B14BF072341
:101D4800062301228DE80C0040219D4A9D4B8EE020
:101D5800964B42F6F8221A80964B9B4A1A60974B8C
:101D6800102240201A700CF0DFF8002800F0B28032
:101D780001234FF0000A90F90000944A8DE8080406
:101D8800402172E0894B42F6F8221A80894B904A2A
:101D98001A608A4B082240201A700CF0C5F80028F7
:101DA80000F0988001234FF0000990F90000894A5B
:101DB8008DE8080240214FF4E1330CF0F0F9864B2E
:101DC800C3F8AC0182E0794B8448854942F6F82291
:101DD8001A807A4B834A4FF00C0C83F800C0BEF18E
:101DE800060F4FF0000303700B7013700BD07E4B7F
:101DF8001B221A707D4B83F800C07D4B05221A7098
:101E08004FF4E1390AE0784BDFF8249221221A7066
:101E1800764B83F800C0764B83F800E0654B754A33
:101E28001A6040200CF080F8002853D001234FF0AE
:101E3800000C90F90000704A8DE8081040214B46CC
:101E480015E05C4B6D4A1A605C4B0A2240201A7000
:101E58000CF06AF800283DD001234FF0000E90F9ED
:101E68000000674A8DE8084040214FF4E1330CF048
:101E780096F92BE04D4B41F27C521A804D4B614A4A
:101E88001A604E4B10221A705F4B4FF0000983F80E
:101E980000905E4B282240201A700CF045F84E4BFB
:101EA800C3F8B001B0B1032390F90000584A8DE897
:101EB80008024021574BDFF87C910CF070F90121A2
:101EC800C9F800000CF02EFBD9F80000003018BF4C
:101ED800012028B9082012F015FD364B4E4A1A6029
:101EE8002A68510441BF354B12211970314B44BF48
:101EF8004A49196042F20103134002F0010102F459
:101F0800005093B1294B44F6206EA3F800E028B1A5
:101F18002A4B08201870274B4148186029B1274BD5
:101F28000C211970234B3F491960130640F1AF800B
:101F38002948DFF80491DFF804B1C0F8B4B14FF0D4
:101F4800000A5146152200F5DC7089F801A0C9F88D
:101F580004A0C9F808A015F0D4FF334A0392ABF1E6
:101F680005035046136009F0A9FF3B68C9F80C3017
:101F780002200BF0D9FF039A964618B9802012F078
:101F8800C1FC7CE099F8011090F805C0274B0C22A1
:101F980002FB01325278624552D00131C9B204299C
:101FA800F4D9002289F801204CE000BF3C0B002046
:101FB800D01D002014010020C5E90008943300203A
:101FC80045EC0008A0860100B1E9000899EB00087B
:101FD80099E900084DEB0008200500205E1D00204F
:101FE8005D1E00205C1E00205E1E00205D1D00207E
:101FF8005F1E00205D9A00082DEA00084D9A00082F
:10200800759A000841990008981400209914002036
:102018005999000848E8010029EA0008F9E9000888
:1020280019EA000809EA000818270020B0B40108D6
:1020380090D003006C130020F8260020922D002079
:1020480089F80110DEF8002090F900001278002AC3
:1020580099F801204FF00C0E0EFB023314BF032138
:10206800012100225B780091019202210CF097F87F
:10207800CB4B1860002881D0012009F01FFFD8F849
:102088000000C84B00F5C7721A6011F065F92B689B
:10209800980570D5DFF87083049BC8F80030C24BF0
:1020A8005A6942F480225A619A6942F001029A619F
:1020B800049B1B88ADF8383002238DF83B30049B15
:1020C8004FF0010958688DF83A900EA907F0FAF810
:1020D800D8F800304FF0000A1A89D868ADF83820CF
:1020E8000EA98DF83AA007F0EDF8D8F80030484668
:1020F800197D07F0FDFED8F80030186907F004FED6
:10210800D8F800301B691C931CA810238DF8753073
:102118008DF874A08DF8769013F032FBD8F8003063
:102128005B7D8DF8403010A803238DF841308DF881
:1021380042A08DF8439013F0D9FA3B689B4A3C3B88
:102148001360236843F010032360994B4FF4C8725F
:10215800A3F8CE21974AC8211180E122A3F8D02103
:10216800954B964A1A60964B40F271121A80954B1D
:102178004FF0FF321A60944A944B1360944A954F7B
:10218800803313602B680024D9033C7040F1AF8082
:1021980011F0A8FEDFF874C2DFF80C92CDF810C079
:1021A80040F22A3B4FF00108604621465A4687F81C
:1021B800008015F0A6FE884B884A5A60D9F814307A
:1021C8008748884F43F48023C9F81430436A23F0C2
:1021D8000F034362436A43EA08034362022203236C
:1021E8004FF4807A0EA98DF83C2003928DF83D308B
:1021F8008DF83E40CDF838A08DF83F8008F038F8CB
:10220800D9F81830039A43F40033C9F818303B88DA
:1022180023F440731B041B0C3B801D23FB6210A995
:102228003A8560233C863846C7F814801093ADF889
:1022380046401294ADF84C40ADF84E40ADF85040D1
:10224800ADF85240ADF8448007F067FEBB6943F033
:102258000803BB617B6C43F400437B64D9F81430FA
:1022680043EA0803C9F81430A9F57D69484607F020
:1022780082FD1CA807F054FD5B4B1C9310231E9392
:102288008023DDF810C0219348464FF400531CA961
:102298002593CDF874C0ADF87CB02094CDF888A013
:1022A80023942494269407F048FDFB6843F40073B4
:1022B800FB60D9F8003043F00203C9F800300DA8DC
:1022C8000D238DF834308DF835808DF836408DF833
:1022D800378013F00BFA454B1A68454B43F8242016
:1022E8000134202CF7D111F0C6F811F0C4F82B688E
:1022F8005A0540F1A280DFF8B8903E4BD9F8FCA40B
:10230800C3F800A004200BF00FFE0421C9F8000553
:102318000BF0E6FD384B89F804050820C3F800A047
:102328000BF002FE354B364C186008210BF0D8FD37
:10233800002189F805052C22204615F0E2FD8E23A0
:1023480063704FF07C08E0237D27E37084F80080F9
:1023580084F82B702B4C2C220021204615F0D1FD3F
:102368008A2363702020A023E37084F8008084F817
:102378002B70C9F808A50BF0D7FD2021C9F80C056A
:102388000BF0AEFD89F810051020C9F814A50BF064
:10239800CBFD1021C9F818050BF0A2FD38E000BFED
:1023A8007C160020F011002000100240CC260020EE
:1023B800200500209C260020942600205E836C3F88
:1023C800A426002098260020741F0020C42D002079
:1023D800701F0020B8150020401B0020052B0108A5
:1023E800000400480044014034440140D0920108F0
:1023F800BA150020A0120020EC120020381300208B
:10240800BC120020F0120020D0260020F206002086
:102418007C4B89F81C053B221A7001225A703A221B
:102428001A719F229A711E221A72A4225A720022CD
:102438009A72DA721A7313F065FE2968724B11F4F6
:10244800002218BF01221A707379052B02BF6F4B47
:102458004FF4C8721A806E4B4FF47A721A806D4B23
:10246800C8221A806C4A137843F0080313706B4A29
:10247800137823F00203137040F602030B40A3B154
:10248800674B684A1A60684B684803221A70684BA1
:1024980001221A70674A00231380674AB7EE000AC0
:1024A8004CF25031138011F060FE2B689B0341BF42
:1024B800624B04221A71DA7844BF42F00102DA70E2
:1024C800B3682B605E4B01221A705E4A137863F082
:1024D8007F03137031B0BDEC068BBDE8F08F5A4A0C
:1024E80042F2107313805380584B5360584B9360DB
:1024F800584BD360584B1361584B53610327FFF770
:1025080037B9012D7FF6A0A91D46FFF75CB9002356
:102518000B60FFF7C8B91BB208EE103AB4F95E3188
:10252800DFED4F7A4F4A09EE103AB4F96031B8EE50
:10253800C88A08EE903A28EE278AB8EEC99AF8EECB
:10254800E88A0021B0EE480A29EE279A68EEA78AA1
:10255800117012F0AFF9F0EE409AB0EE480A12F09E
:1025680047F9B0EE408AB0EE490A12F0A3F9B0EE8E
:1025780040AAB0EE490A12F03BF9F0EE40AAB0EEDC
:10258800680A12F097F9B0EE409AB0EE680A12F0B5
:102598002FF960EE296A68EE097AF0EE665AE7EEDE
:1025A800AA5A314B29EE296A28EE007AC3ED035A5C
:1025B800F0EE465A2AEE400AE7EE6A5AE6EEAA7AA2
:1025C800A6EE6A7A29EE0A9A83ED010A28EE4A8A6B
:1025D8002AEE290A83ED009AC3ED02AAC3ED045A34
:1025E80083ED058A83ED067AC3ED077A83ED080A41
:1025F800FEF702BF012D7FF627A900252670FFF7F9
:10260800ECB800BFBC2A002023100020AA1100202B
:102618000835002010350020281A00201835002021
:102628006C150020FE2C00205C1F00209015002057
:102638009C010020642A0020662A002080160020C1
:102648007C0F00204C2A00207C250020FB2E01084E
:1026580069300108F12E0108593001084D2B010895
:1026680035FA8E3CAA000020481500202DE9F04FCD
:10267800B84EB94C3378B94D0E2B98BFB84A2DEDEA
:10268800048B9CBF342101FB032395B098BF9F6A3C
:10269800237C88BF002793B933780E2B13D90023E6
:1026A80016E098470028F7D10BF048FDAD4B1B68A2
:1026B800FB1A1844AC4B1B6864339842ECD2EB68A5
:1026C800002BEED1F0E7A64A342101FB03239B6AD5
:1026D800A64EDFEDA70AA74F9BB207EE903AB8EED9
:1026E800670A338060EE200AA34B38460121C3ED08
:1026F800000A11F095FDBCEEC00A33888DED050A7D
:10270800BDF814209D49BA810B809B1A4B8007F1B4
:102718000E006B68984728B9994B1B689F0700F112
:10272800F680FAE00023934D964E05F10E0232F939
:10273800132046F823200133032BF4D130463146C9
:102748002A7E6B6107F0D0FD95ED078AB5EE408AC9
:10275800F1EE10FA13D18C4BDFF844921A889846A0
:10276800002A00F0B380D7F890301B78A9F1480709
:1027780008EE103AA9F13C054FF0000A67E095F819
:102788002030BBB96B617D69DFF8E881022D0EDC72
:1027980008F12403242000FB0530734BB0EE480AEF
:1027A8001968013511F0E1FCC8F81450EBE7012372
:1027B80088F8203097F82030002BCCD06D4B0022C1
:1027C8005A617D69DFF8AC81022DC4DC56F82520FA
:1027D80007EE902A08F12403242000FB0530B8EE08
:1027E800E70A11F099FC15F07FFE46F8250001353F
:1027F800C8F81450E5E7D5ED006A07EE103A37EE51
:10280800E66AB8EEC77A86EE077A36EE877AD5EDAD
:10281800026A85ED017A77EEC77A85ED007AE6EEF1
:10282800276AF0EE667AC5ED036AC5ED026A0023F1
:10283800012A46F80B3049F80B3027D00AF1010A73
:10284800BAF1030F07F1040705F114054AD0B8F8E7
:10285800002056F82A10B2F57A7F02BF00233B60A9
:102868002B613B680B443B602B6907EE901A0133E0
:10287800012B4FEA8A0BF8EEE77A2B61BBD10023D4
:10288800C5ED017AC5ED007AAB60D0E72B69012B65
:10289800C3BF03F1FF3300EE103AD5ED037A9FED85
:1028A8003B0AC4BFB8EEC00A87EE800A16F004F8E7
:1028B80018EE103A63B1F8EEC87AB4EEE70AF1EE12
:1028C80010FA05DD4FF47A73A8F80030002313E0FE
:1028D8003B684FF47A7203F5FA7393FBF2F349F805
:1028E8000B30ABE7B8F80000012801D10BF08CFDE4
:1028F800B8F80030013BE7E756F8232059F82310D1
:10290800521A46F823200133032BF5D104E7204B54
:102918001B7813B10AF092FF04E01E4B00221A60E4
:102928005A609A601C4A1D491768B1F906307A89BD
:10293800934237DBB3F5FA6FF879BDBF9B1A43436F
:10294800A2F5FA60C0F16400BCBF93FBF0F06430FC
:1029580029E000BFAC0400207C2B00209834002024
:10296800A00100207C260020641900200E350020DC
:10297800BD378635400A0020AC3400201A100020EC
:10298800601F0020401900200835002000000000CA
:10299800E4340020941A00205C160020982A0020B5
:1029A8001C0B00206420B1F90430B4F8A0C140F237
:1029B800DC529342DABFC3F5BB630433A3F2DC53A2
:1029C800B3F5FC7FD7BF6FF00402002393FBF2F34B
:1029D80064330693A84BD3F8008094F962319BB214
:1029E800079345460022A54B33F912A0CCEB0A0306
:1029F80003F2F31440F2E6318C424FEA420903D85D
:102A0800002BB8BF5B4201E04FF4FA73022A05932A
:102A18004FF064012DD098F815412CB1059BA342C5
:102A2800CCBF1B1B00230593059B954C93FBF1F62C
:102A38006FF0630B34F816E00BFB063B0136914B45
:102A480034F916400FFA8EF6A41B04FB0BF494FB22
:102A5800F1F4744423F80940BC18059B24796343B6
:102A6800894C93FBF4F364339BB2434393FBF1F13A
:102A78002FE098F816412CB1059BA342CCBF1B1B35
:102A880000230593059B814C93FBF1F16FF0630ED6
:102A98000EFB013B04EB410604EB4101B6F9E8608B
:102AA800B1F9EA10BDF81C30891B01FB0BFB9BFB3D
:102AB800FEFBC6EB0B0616FB03F6724B9E80059BCE
:102AC800B979002BB8BF5B424B436F4993FBF1F1D7
:102AD80064316B786E4C64264B4393FBF6F3A35436
:102AE8006C4CEB7A4B4393FBF6F3A3546B7D654C2C
:102AF8005943694B91FBF6F1022A99546749684B8F
:102B080006D18E70E2459DF81810997004DB0EE02E
:102B1800E24588549E5404DA34F809305B4224F8BC
:102B280009300132032A05F101057FF45CAF534AED
:102B38005C48B2F90610B0F8A23105929942814674
:102B480005DBB1F5FA6FA8BF4FF4FA6100E019464A
:102B5800C91A4FF47A72DFF888E14A4D51436FF091
:102B68006302C3F5FA63B1FBF3F1642391FBF3F05D
:102B780002FB00163EF8107001303AB23EF9101010
:102B88008A1A724392FBF3F33B44E380464B1B885B
:102B98005E0639D5454BDFED467AB3F904300A2293
:102BA80093FBF2F3434A12889B1A1BB208EE103AC1
:102BB800B8EEC88A28EE278AB0EE480A11F07AFEE5
:102BC800F0EE408AB0EE480A11F012FEB5F9023074
:102BD80006EE903AB5F90030F8EEE66A07EE903A5C
:102BE80020EE667AF8EEE77AA7EEA87A67EE807AA2
:102BF800BDEEC77AE6EEA87A17EE103AFDEEE77A50
:102C08002B8017EE903A6B802B4B1A78550703D51B
:102C18002A4B10221A8574E029490968C8075CBF45
:102C280042F001021A70274A1278110758BF1A7821
:102C380025495CBF22F001021A70244A126812F07A
:102C4800040F02D02248008870B92248008808B1D1
:102C5800920709D4204A1288003218BF01221AB9F3
:102C68001E48008863283DD902220A701A7822F08B
:102C780001021A703CE000BF78160020982A002054
:102C8800321B0020301900200CFEFFFF400A0020F4
:102C9800401A0020360B0020581A00205219002034
:102CA800153500207C2B0020201F0020381900201B
:102CB80035FA8E3CEA11002018350020000400483F
:102CC800241F0020281A0020181F0020601F002041
:102CD80010350020AA110020083500205A1F0020B6
:102CE8001A1B00201B78DF0756BF02230A700B70DF
:102CF8000BF024FA854B1B68C01A002801DB0CF086
:102D080027F8834B9B680BB18248984799F89E3106
:102D1800814F002B51D0BB89B7F8FC10B1FBF3F100
:102D28007E4B481C1B7880B2A7F8FE001BB3B7F88F
:102D380000B10023784D34F813C005F5857E05F5FC
:102D480081783EF8136038F813202EF813C0C6EBCC
:102D58000C0612FB0BF20FFA80FA92FBFAF21644F9
:102D680028F813600133042BE4D16C4BA5F800114B
:102D780000221A7004E0B7F80031013BA7F80031CF
:102D8800654AB2F8000103B2002B4FF0000312DDD0
:102D9800B2F9FE50624931F81320083112FB00F2F3
:102DA80031F8131092FBF5F28A1A24F81320013334
:102DB800042BEFD101E0A2F800315A4B5A4DDFF84D
:102DC8009CB101221A702A6812F0080F3BD0A18822
:102DD800564801F10E039BB21C2B554BB3F9043036
:102DE8002DD8544E3688760729D500880A2693FBB5
:102DF800F6F31B1A9BB29EB230B2B330BCBF03F5D8
:102E0800B4739EB233B2B32BC4BFA6F5B4739EB2EB
:102E1800494B99F862011B781B0714D540B2404210
:102E280016FB00F3DBF80000407A9BB213FB00F3BB
:102E38006FF01D0093FBF0F31944A18003E00A2111
:102E480093FBF1F3038012F0140F334E00F0A180CE
:102E5800384B1B8803F40273002B00F09A80364B22
:102E68001B7803F0100303F0FF004BB1334B99F9C3
:102E78001022B3F90010638801FB0233638088E0F5
:102E8800D6F81431DFF8D0E0D9782D4A9B7831B3E1
:102E9800B2F90020BEF906E0C2EB0E0C8CEAEC7128
:102EA800A1EBEC7199420DDD2649964508604FF07B
:102EB800010186F81811C8BF5B42E1889BB20B4438
:102EC800E38066E096F818312BB11F4B86F818019D
:102ED80019681E4B1960194B1B6813444EE0B2F970
:102EE8000000BEF90620121A82EAE27EAEEBE27E0C
:102EF8009E4535DD022392FBF3F2154B1A60154A05
:102F08000123137086F8183135E000BF1C1F00201C
:102F1800983400203A0B0020400A0020801200203C
:102F2800420B002081120020601F0020E8110020C1
:102F380038190020201F0020281A0020C42600204D
:102F480082120020C02600205C130020B826002032
:102F5800F4340020C8260020982A00207816002083
:102F680096F818313BB1AC4B86F818111A68AB4B80
:102F78001A60AB4B1970AB4B1B680344D6F81C1195
:102F88000A884988934203DB8B42A8BF0B461A463E
:102F9800E280A54B1B78ABB1A44BB3F90620B9F876
:102FA800A2319A420EDCA24B5B79012B01D0192B7E
:102FB80002D199F8F6212AB90E2B03D0082B1CBF91
:102FC8000023A380DBF8003093F81C81B8F1000FD0
:102FD80032D0984B1B889B072ED0974BDFED977A02
:102FE80093ED080AB4EEE70AF1EE10FA20D911F0D1
:102FF8005AFBD7ED487A20EE270A15F075FAB0F596
:10300800617FA8BF4FF4617007EE900AB8EEE70A37
:10301800DFED8B7A80EE270A11F0EAFB07EE908A43
:10302800F8EEE77A27EE800A15F05EFA80B200E043
:103038000020E3881844E0802B68980640F1A980B6
:103048007C4B1B8803F03003002B00F0A2807D4BE3
:103058001B78D90740F19D807B4BDFED7C7AB3F973
:1030680004300A2293FBF2F308EE103AB8EEC88A4D
:1030780028EE278AB0EE480A11F0BAFBF0EE408A33
:10308800B0EE480A11F016FC714B72491B68724A7F
:1030980093F803C0B0EE409AB2EE048ABCF1000F78
:1030A80055D0DFF8D4A1B1F90200BAF8025008925D
:1030B8002BB2C01ACDF81CC0069110F0F1F8DDF85B
:1030C8001CC00699089ACCF10003984203DB6045BE
:1030D800A8BF604600E0184600EB0508BAF80050A3
:1030E800B1F90000089229B21FFA88F8401A07932C
:1030F800CDF818C0AAF8028010F0D2F8079B089AF9
:10310800984205DBDDF818C060450346A8BF634652
:103118001D44ADB2AAF800502DB207EE105A0FFAAE
:1031280088F8B8EEC70A07EE908A28EEC07AF8EE5B
:10313800E77A20EE090AA7EE897AA7EEA80A87EEB1
:10314800087ABDEEC77A17EE103A13801AE0B1F983
:10315800023007EE103AB1F9003000EE103AB8EE3E
:10316800C00AB8EEC77A68EEC07A20EE090AE7EE20
:10317800097AA7EE280AC7EE887AFDEEE77A17EEF5
:10318800903A138080EE080AFDEEC07A17EE903A66
:103198005380324BDBF80000B9F874210093304BB0
:1031A8001D68304B196800F15C03A8472E4B2F4A65
:1031B800DB7807932E4B1D78032D1AD9D6F82431C6
:1031C800B3F804E0BEF5FA7F13D2B4F90400B2F9FB
:1031D80004C080EAE078A8EBE078CEF10001C8EB03
:1031E80001039C4504DB0EEB08036345A8BF634657
:1031F8009380204B1B6813F0006141D1B4F806900E
:10320800B2F802A0B2F800B0D6F82431B2F904201E
:10321800DFF868800C4699E15C130020B82600208E
:10322800C8260020C42600200E000020982A00206E
:103238007C2B0020201F0020681A00208FC2753CBC
:10324800EFB6B044281A00203819002035FA8E3C11
:10325800F01100207C1200200A3500200C2D0020DF
:10326800CC0000205C160020F41E00208C190020E1
:10327800181C0020241F002078120020700B00204A
:103288000021A748B2F802C0B2F80080D6F824910D
:10329800B2F904A00E460A46AE423BD299F9023072
:1032A80090ED016A5B420AFB03F307EE903A0FFACE
:1032B8008CF306EE903A0FFA88F3B8EEE77A07EE49
:1032C800903AF8EEE77AF8EEE66A67EE867A90EDDD
:1032D800026AE6EE867A0DF1340E0FFA82FBD0ED23
:1032E800036AE7EE267AFDEEE77ACDED067ABDF8B9
:1032F80018302EF816300FFA83FEDE4504DC0FFA7C
:1033080081FBDE4502DB13461A460B4601361030B8
:103318001946C1E7834BDFF82C92521A196811F449
:10332800805F92B29B4637D07F4B1B7813F0040F17
:103338007E4B02BFD3F8EC11098AA3F8E811D3F841
:10334800EC317B49188A7B4BCE881C687749E38827
:1033580035B2C3EB000E754504DCD9F8003025887A
:103368001C8806E003449D4206DBD9F800306488D7
:103378005D88A1F8E86114E0B1F9E8317345D9BF77
:103388002588D9F80030D9F800306488D5BF1C8862
:103398005D882E46264604E0D9F80030E6885D8828
:1033A8001C8865496548ABB21FFA84FACAEB030862
:1033B80012B20FFA88F842453CDD07EE902AB8EEC3
:1033C800E78A07EE908AF8EEE77A012387EE888A83
:1033D800037000230A78934214D20DAA099132F996
:1033E80013100892069300EE101AB8EEC00A20EEE9
:1033F800080A15F079F8069B089A099922F813002B
:103408000133E7E7494B9FED4E7AD3F824315B78D7
:1034180007EE903AF8EEE77AC7EE877AB4EEE78AD5
:10342800F1EE10FA10DD022498FBF4F45444A4B22F
:10343800254609E000240225047092FBF5F20AEB08
:1034480002049D1AA4B2ADB20B780693DBF80030E3
:10345800D9F80090DFF8F0A003F480530893334BB9
:10346800B3F9E8B1D3F8EC21324B19684FF00008F2
:10347800069B984580F032810DAB5FFA88F033F8EF
:1034880018C00B910A92CDF824C00BF09DF833B206
:1034980007EE103A224BDDF824C00A9A0B9907EE82
:1034A800900A03EB0813D3ED006AB8EEC77AF8EE7A
:1034B800E77A23B2E7EE267AFDEEE77A17EE900A6E
:1034C800984203DB2BB28342A8BF034663440798A4
:1034D8009BB22AF8023F1BB210B1B9F8040011E000
:1034E800089868B1108AB1F806E0CEEB0000834571
:1034F80004DCB9F80000B1F800E005E0488801E014
:10350800B9F80000B9F802E0834203DB7345A8BFAD
:1035180073461846AAF8000008F10108A8E700BF9A
:10352800680B0020D433002018350020400A002002
:10353800982A0020BC1C0020181C0020291A0020F2
:103548000000C842C01C0020CE1B0020AC4208F17D
:1035580010083FD293F9021008930FFA8BF307EE85
:10356800103A0FFA89F306EE903A0FFA8AF308EE4A
:10357800103A18ED046A0692B8EEC88AF8EEE66AC0
:1035880028EE068A18ED066AA6EE868A4942514355
:10359800B8EEC77A58ED056A07EE901AA7EE268AA4
:1035A800E0B2F8EEE77A18ED037AA7EE878A0BF017
:1035B8000BF807EE900AF8EEE77AB948089B069AE6
:1035C80038EE278AFDEEC87A17EE901A20F8141004
:1035D8000134BBE7B24A138801211446A9421AB242
:1035E80007D234F911309A42B8BF1A4693B2013162
:1035F800F4E7AC49D6F824810968D6F8ECC14888C4
:103608008242C6BF181A83B20023A74A0693A74B63
:10361800B2F90640A64A1B681668A14A03F4805B03
:1036280003F01003089302EB450E724556D0138839
:1036380006981B1A9BB222F8023BBBF1000F25D05B
:1036480098F800504DB9BCF81090F588C5EB090AF8
:10365800544502DD4D44AC4213DBBCF81050AC427B
:10366800CBBF75888D88B1F80290B6F800901BB270
:10367800AB4203DB4B45A8BF4B461D4622F8025C14
:10368800D3E74C45CCBF7388338824E007984D882E
:1036980048B132F9029C8B8899451CDBA9454B46F9
:1036A800A8BF2B4617E0B1F800901BB24B4503DBCF
:1036B800AB42A8BF2B46994622F8029CBCF81230B0
:1036C8009C42B2DA089B0BB18B8804E098F8003072
:1036D800002BAAD10B8822F8023CA6E775490A7884
:1036E80002F0040202F0FF038B464AB1724C94F8D0
:1036F800F0114A1ED2B2182AA14600F299860BE0B0
:103708006E4A12789342F1D26D4931F81300644938
:1037180021F813000133F5E701209040694A02407F
:10372800002A00F08586012902D0192940F0578522
:10373800654A664E9588664A96ED008AB2F9002079
:1037480007964FF0020A92FBFAFA624A5A4CB2F80C
:1037580044111FFA8AFA514409B207EE901A9046AA
:10376800F8EEE78A5C4AB4EEE88A1268F1EE10FADD
:103778004CBF9789D789D9F8F421927C4CBF643F14
:10378800C7F16407BFB2DAB1544A1178544A02EB60
:10379800810204F5FC705178524A32F8112093B234
:1037A80000EE103A504AB8EE400AD2ED000A46211F
:1037B80010F036FDFCEEC07A17EE902AA4F8042229
:1037C8009BF80010494E11F0040F00F0BE8038EE4F
:1037D800688A2AB2BDEEC88A454C464B8DED058AEB
:1037E800B2F57A7FA8BF4FF47A722568BDF9144004
:1037F80030689A42B8BF1A4667434FF69C745743DD
:103808001AFB04F497FBF4F4224414B2B4F57A7F5B
:10381800A8BF4FF47A749C42D9F80822B8BF1C4656
:1038280062434FF47A7492FBF4F7D9F80C42A7423A
:1038380032DB214AD2F8982397425DDA4FF0630CC5
:103848004FF0000E0EF1010294450DDD0EEB0C0257
:10385800022492FBF4F209EB8204D4F80C42BC4235
:10386800D4BF96469446EDE74FEA8E0409EB04026E
:10387800A644D2F80C22BC1A0A277C4309EB8C0711
:103888004FEA4E0ED7F80C720EF5C87EBA1A94FBA2
:10389800F2F2724492B231E04FF4C8722EE000BFE7
:1038A800D01B0020C01C0020982A0020D433002000
:1038B800BC1C002018350020400A0020181C0020DD
:1038C80060160020992098018C190020F80000202B
:1038D800CE1B00207C2B00205C160020000000205E
:1038E8007415002084150020AC340020C41B00206F
:1038F800C01B002018FCFFFF4FF4AF62B5F904703D
:10390800B2F5617F3C460ED2C24FB5F90050B7F907
:10391800007024B2D21B641B6243C7F5617792FB27
:10392800F7F22A440DE00ED0B5F902503CB22C1B38
:10393800A2F561726243B74CB4F9004092FBF4F20D
:103948003A4492B200E0BAB20280B34AB34D176863
:1039580033682C68059517F080570693DFF8F0A2B6
:10396800AF4D0FD1AF4A1288D20440F16F8321F0D6
:1039780002014FF480508BF8001010F0A3FF89F873
:103988009C7363E34FF4805010F0ACFF99F89C13DC
:10399800A548C9B99BF80020530757BFA34980F829
:1039A800A01342F002020A705FBF022280F89C2333
:1039B800B4F9043007EE903A53BFF8EEE77A0122E3
:1039C80080F89C23C0EDEF7A99F89C23964F012A42
:1039D80003D0022A00F04F8138E39548B8F8521115
:1039E8000AF043FB97F8A02300F1FF3EDEF1000048
:1039F80040EB0E00052A00F22983DFE812F00600EA
:103A080025005300B000FF002B01002800F01E83A2
:103A18009BF80020570740F1198308200AF0F4FCAE
:103A28004FF47A72C9F8A423824A11681268C9F857
:103A3800AC23012289F8A0230022C9F8A813C9F8E9
:103A4800B023A9F8B42301E340B39BF8002054073E
:103A580024D5784FD9F8A8033968734C091A41F26C
:103A68008732914209D907200AF0CEFC022284F855
:103A7800A0233A68C4F8A823E8E23A68D4F8A41363
:103A8800121A8A42C0F0E28208200AF0BDFCD4F87B
:103A9800A42302F57A72C4F8A423D7E2002289F895
:103AA800A023D3E2634C002800F0A480002013F088
:103AB80025F8002800F09E80012013F01FF8002848
:103AC80000F09880022013F019F8002800F0928086
:103AD800594AD2ED027A594AF8EEE77A92ED047A19
:103AE80067EE877AB0EE0C7AF0EEE77AF4EEC77AF2
:103AF800F1EE10FA7ED82268D9F8A8034A49121ABA
:103B0800F92A40F2A3822268D1F8AC03121A132AC8
:103B180040F29C8222682888C1F8AC23D1F8B023EF
:103B28000244C1F8B023B1F8B423013292B2D006EE
:103B3800A1F8B42302D101200AF08CFCB9F8B4230F
:103B4800394FB2F5FA7FC0F081820E200AF05CFC92
:103B5800032287F8A0232268C7F8A82376E29BF8F7
:103B68000020344C12F0040F49D1D9EDEC7AB9F8A1
:103B7800B4332D4FF8EE677AB2EE049A87EE897A5D
:103B880007EE903AF8EEE77AC7EE277A9FED2C7A9F
:103B9800F4EEC77AF1EE10FA29DD9FED2A7AF4EEF9
:103BA800C77AF1EE10FA22D59FED278A77EEC87A08
:103BB8009FED268A27EE888AB0EE480A10F07AFE32
:103BC800F0EE408AB0EE480A10F012FE68EE898ADC
:103BD800D7F8F41188EE800AFDEEC07A17EE902A25
:103BE800CA8110F063FF042287F8A02302E00522AF
:103BF80089F8A0232268C9F8A82327E20D4C226877
:103C0800D9F8A813521AB2F5FA6FC0F01F820E2025
:103C18002AE000BFBC1B0020241F0020C01B00207E
:103C2800F4000020201F0020400A00201835002042
:103C38000C2D00208C1400204019002098340020FE
:103C48000000B5420000F0420000B44235FA8E3C54
:103C5800AC340020D74CD9F8A8132268521AB2F510
:103C6800FA6FC0F0F3810D200AF0CEFBD24A21682A
:103C7800C2F8A813EAE1012012F040FF8046A8B17B
:103C8800CE4AB2F90020643210DAB4F90030C7F82D
:103C9800C04307EE903AF8EEE77A0120C7EDEF7AD5
:103CA8000AF0D8FB012287F8B82333E0002012F08D
:103CB80025FF90B1C14AB2F90220642A40F3A986CF
:103CC8002246022032F9043FC9F8C02307EE903A91
:103CD800F8EEE77AC9EDEF7A13E0B8F1000F19D0E2
:103CE800B64AB2F90020642A11DD2246032032F9CF
:103CF800023FC9F8C02307EE903AF8EEE77AC9ED1B
:103D0800EF7A0AF0A7FB012289F8B82302E000281D
:103D180040F0838699F8B823A74F012A02D0022AD7
:103D280030D08BE1022012F0E9FE002840F08681B5
:103D3800A24ADAED006AB2F90430D7EDEF7A07EE5D
:103D4800103AB8EEC77AE7EE667A9FED9D7AF4EE00
:103D5800C77AF1EE10FA09D49FED9A7AF4EE477A11
:103D6800F1EE10FAC8BFF0EE477A01E0F0EE477ABC
:103D7800C9EDEF7AFDEEE77AD9F8C01317EE902A6D
:103D88000A805BE197F8C4231AB997F8C623002A7A
:103D980071D199F8C603884A80B9012182F8C613FF
:103DA80082F8C703B4F90030D2F8F41107EE903A5C
:103DB800F8EEE77A1431C2EDEF7A2EE0022806D148
:103DC800002182F8B81382F8C7130E2036E00128C4
:103DD80046D192F8C713012922D011D302293FD125
:103DE80082F8C613002182F8C713B4F9003082F8AC
:103DF800C50307EE903AF8EEE77AC2EDEF7A2FE0C6
:103E080082F8C703B4F90430D2F8F41107EE903AF7
:103E1800F8EEE77A1631C2EDEF7AC2F8CC131FE05C
:103E2800D2F8F411888ACF8AC01B6330C6280AD812
:103E3800002182F8B81382F8C7130D200AF0E4FABB
:103E480010F034FE0CE0022082F8C703B4F9023007
:103E580007EE903AF8EEE77A1831C2EDEF7ADCE730
:103E6800544A1268C9F8C8230022C9F8D023A9F80F
:103E7800D42389F8C42399F8C6734F4A012F02D076
:103E8800022F27D0DAE04B49D2F8C8430868001B54
:103E9800B0F5FA7FC0F0D2800968091BB1F5167F2A
:103EA8000BD3D2F8CC03B2F8D443D2F8D013B1FB79
:103EB800F4F1018082F8C473C0E0D2F8D013B2F8EC
:103EC80004020144C2F8D013B2F8D4130131A2F8A5
:103ED800D413B3E092F8C70310B1022878D0ADE04C
:103EE800D2F8F4C1B2F804E2BCF8141009317145F3
:103EF800C0F2A48092F8C513DFF8B8E0002947D1D2
:103F0800D2F8D013DEF800000844D2F8C813411ADA
:103F1800B2F8D403C2F8D013013080B20528A2F851
:103F2800D4032DD9284FB7F9003007EE903AB1FBEA
:103F3800F0F3F8EEE77AB2EE047A77EEA77A87EE36
:103F4800877A07EE903AF8EEE77AC7EE277A9FED80
:103F58001F7A67EE877AFDEEE77ACDED087ABDF82D
:103F68002010ACF81010A2F8D813012182F8C4135D
:103F7800B4F9043007EE903AF8EEE77AC2EDEF7A3A
:103F88000C4A1268C9F8C823012289F8C52355E0EC
:103F9800DEF80010D2F8C833C91AC7294ED9DEF89E
:103FA8000010C2F8C81382F8C77382F8C503B4F9C1
:103FB80002303DE08C140020400A00203019002017
:103FC8000000614400400345BC1B002000007A4407
:103FD800D2F8F411B2F80402098B093981422DDCB8
:103FE800854F92F8C513386899B9D2F8D0130144AF
:103FF800D2F8C803091AC2F8D013B2F8D4130131A1
:10400800A2F8D4133968C2F8C813012182F8C5137D
:1040180014E0D2F8C813411AC7290FD93968C2F871
:10402800C813002182F8C71382F8C513B4F9003009
:1040380007EE903AF8EEE77AC2EDEF7AD9EDEF7A2B
:10404800069BFDEEE77A17EE902A1A80D9F8F4411C
:104058006A4AA17C59BB059BB2F8D88332681868B4
:1040680011889AED008A2F880FFA88F80AF08AFAE0
:1040780007EE908AF8EEE77A3B1A28EE278AF2EEE6
:10408800047A28EE278A83EAE371BCEEC88AA1EB9A
:10409800E3718DED058ABDF81420914204DB874257
:1040A80034BFD219BA1A90B2554A108021E0059B44
:1040B800B2F804121A68B4F91670127AB94202EB0F
:1040C80082024FEA4202B4BFA08A208BB942B4BF31
:1040D800C2F5617202F5617292B212B2C91BA2F501
:1040E800617200B24A43C71B92FBF7F202F5617294
:1040F8002A80444AD9EDF77AB2F90030DAED000A9D
:10410800414D06EE903A20EEA77AF8EEE66AD5ED34
:10411800017A37EEE66AB5EEC06AF1EE10FAD8BF5A
:10412800B1EE466AB4EEC76AF1EE10FA02D5C5EDF3
:10413800016A0AE0F4EEE67AF1EE10FA4CBF77EE87
:10414800877A77EEC77AC5ED017A2C4F95ED010A8B
:1041580007F57870142110F063F8D5ED027A079B03
:1041680085ED020A70EE677A83ED000AF5EEC07AF3
:10417800F1EE10FA99F8EC2302DD4AB9012205E0C4
:1041880032B11D4A1268C7F8F023002287F8EC23E1
:1041980099F8EC231949002A40F04A81164BD1F8C6
:1041A800F0031B68B1F8F4131B1A8B4221BF174B9D
:1041B8009A60174B002228BF9A60638B154A07EE56
:1041C800103AB8EEC77A67EE877AB2EE047AC7EE8D
:1041D800877AFDEEE77A17EE903A938028E10E4B46
:1041E8001B88D9051CD50D4B1A88ADF834205A8880
:1041F800ADF836209B882AE08C140020400A002065
:10420800F4000020D01B00200000002058190020D6
:104218008C3400204C190020201F00203019002069
:10422800B84B1A88ADF834205A88ADF83620B64A0B
:104238009B881268ADF83830D2040AD5B34AB2F96F
:104248000610D4F8EC21128A914202DA5B42ADF8EA
:104258003830AF48B0F902304FF47A7203F5E163B1
:1042680053434FF4616193FBF1F3A3F5FA73ADF88F
:104278004C30B0F9003003F5E1635A43A54B92FB8B
:10428800F1F21B88A2F5FA72A3F2DC53ADF84E20C6
:10429800ADF83A30059AD7F8EC3112881B8AD21A51
:1042A800ADF83C20059A5288D21AADF83E20059AFE
:1042B8009288D21AADF84020059AD288D21AADF861
:1042C8004220059A1289D21AADF84420059A5289DB
:1042D800D21AADF84620059A9289D21AADF848202C
:1042E800059AD289D31AADF84A3000238A4A0021A8
:1042F80022F813100133082BF8D1884A884B12682A
:104308000592884A1B78126887490692874D0722CA
:1043180002FB031A514572D00B7833B103F1150231
:1043280001239340059A134065D011F806EC069BCB
:1043380011F8059C11F8034C11F801CCCEEBCE070F
:1043480003EB47076420B7F90020B7F902309B1A3E
:104358009BB211F9022C4FEA53085A434FEA490617
:1043680092FBF0F214A8C8EB020292B2064414B908
:1043780036F81C0C0CE0B5F9000036F91C6CB0429C
:1043880008DA0444844203DBA6423046A8BF20462C
:10439800288008E007DD041BB44203DB8442A8BF81
:1043A800044626462E80D7F80A4011F9046C0120ED
:1043B80000FA09F02042288812B216FB00F014BF58
:1043C8004FF0FF340124642690FBF6F090420ADB9C
:1043D8004FFA8CF25A4392FBF6F2C8EB020212B281
:1043E8008242A8BF02464C4B33F81E8002FB04846D
:1043F80023F81E4000E02B80023507318AE7494B3D
:104408004B4E1F6800250E2202FB057236F8023F4C
:1044180092F90640E8B214FB03F3642493FBF4F426
:1044280034800AF03BFA01352044082D3080EAD167
:10443800354F394D3B683B4E13F0200F32D00020EA
:104448000AF02CFA2880044601200AF027FA334B98
:1044580068801B681B0625D5364B2D4AD3F81834BF
:104468001B78012B22D13168138891F914E0B2F935
:1044780002201EFB03F34FF0320C93FBFCF31FFAF0
:1044880083FE91F906305B4253436FF0310193FB91
:10449800F1F10EEB0102A11893FBFCF373442980A0
:1044A80018446880D6F800E0002318E0D6F800E049
:1044B80053889EF9061011FB03F1322391FBF3F1A7
:1044C8002144298011889EF9142012FB01F292FBE5
:1044D800F3F21044E5E70133082B2A532CD00E21C0
:1044E80001FB03E135F91300B1F90020B1F902101D
:1044F80090424FEA4304EEDB0AB28242A8BF02466A
:10450800E9E700BF8C190020D4330020982A002046
:1045180038190020D01B0020C80F0020241F0020BD
:10452800C41C0020C8160020CB1C0020360E00201A
:10453800C60F0020400A0020A64CD4F8243193F975
:104548000C30A3B994F8F08108F1FF33182B7BD80D
:10455800DFE803F0397A7A587A7A7A517A7A7A7A6D
:104568007A627A7A7A7A7A586E7A7A623900DFF8D9
:1045780088924FF0000839F9023F00EE103A964B46
:10458800242000FB0830B8EEC00A0FF0C5FD13F078
:10459800ABFF33680E2280B202FB0832A9F8000094
:1045A800B2F90030B2F9022000B2984203DB13B22C
:1045B8008342A8BF034608F10108B8F1080FA9F81B
:1045C8000030D8D1BEE7D4F8F4319B791BB9834BBE
:1045D8001B88D90402D50020698908E09BF80030BF
:1045E80003F0040303F0FF00002BF4D1014604F0AC
:1045F8005DFE012629E00020E98804F057FE01202D
:10460800298905E00020298904F050FE69890120E4
:1046180004F04CFE022618E00226B01E35F81610EB
:10462800C0B2013604F042FE082EF6D106260CE090
:104638000326F01E35F81610C0B2013604F036FE17
:10464800072EF6D1042600E000263B689A0602D41D
:10465800B8F1050F0AD13046298804F027FE701CEE
:10466800C0B2698804F022FE0236F6B23B68DB026B
:1046780005D494F83C357BB10AF058F80CE0DFF823
:104688007C8100257019C0B238F8021F04F00EFEB4
:104698000D2DEED00135F5E7514B1878002840F084
:1046A800C9813B681D0340F1C5814E4D2B78033B02
:1046B800052B18D84C4B93F8103823B9D4F840057B
:1046C80003689B689847D4F8443594F84825134400
:1046D800B3F5807FA8BF4FF480738342D4BFC4F87A
:1046E8004435C4F844052B78023B092B00F2A2811B
:1046F800DFE813F00A0015004C0086009C00B500A6
:10470800C7003F015C0167010023C4F84435C4F8C1
:104718004C35364B1B68C4F85035032334E0334B13
:104728001A68D4F8503564339A4240F283814020A5
:104738000EF0C8F8002840F07D814FF040082C4B5F
:10474800D4F84C25234F985C1E4678B108F034F80D
:10475800D7F84435013BC7F84435D7F84C35B8F19C
:10476800010803F10103C7F84C35E8D1D4F84C250A
:10477800184BB25C002A40F05D81C3F84C254FF01D
:10478800FF32C3F8502504232B7053E126230093EE
:10479800184B019303F10C0202924920A3F10A027B
:1047A8005021023308F0D2FB002840F043813B68D7
:1047B8004FF0FF3213F080030FBFC4F84C35C4F834
:1047C8004C05C4F85025052304BFC4F85025072319
:1047D800DAE700BF400A00205C0E0020201F0020FE
:1047E80014350020231000207C2B00208C1400207E
:1047F8000C93010876930108C60F00209E2A00201A
:104808008F4A02230021009301910291482002F16E
:10481800080308F09BFB002840F00C814FF0FF33A1
:10482800C4F85035C4F84C050623ADE7854B019311
:1048380003F10C02072602920096A3F10802472012
:104848000021043308F082FB002840F0F3804FF089
:10485800FF33C4F84C05C4F850352E70EAE07A4AA4
:1048680005230021009301910291532002F10803CE
:1048780008F06CFB002840F0DD80C4F84C050823E4
:1048880082E740200EF01EF8002840F0D380D4F8CC
:104898004C350D2B00F2B480DFE803F0070B0E1245
:1048A80019202B3035393D4B565A68480EF0ECF834
:1048B80059E06748674919E067486849684A50E01D
:1048C800684B694893F80E1893F80F2849E0674B2E
:1048D800674893E8060008331B6832E0614B654877
:1048E80093F8DC2703EB021393F8DE170EF0CCF8ED
:1048F80039E05C4B6048B3F84411F7E7594B5F481F
:10490800B3F84611F2E75E4B5E481969EEE75E4B75
:104918005E481988EAE7D4F85435D80404D5514BD1
:104928005B4893F88211E1E75A4B0C22C3F84C25F7
:1049380019E04C4B584893F8861193F8872193F85F
:1049480085310EF0A1F80EE05448B4F85815CDE7BB
:104958003B68190507D5434B5148B3F88A11B3F999
:1049680088210EF091F8D4F84C350133C4F84C3551
:1049780060E04C4B1B689A0115D5B4F85C35454E80
:104988008BB9D6F860350D93474B0E201B680E93F4
:104998000DA907F0D9FF4FF48053A6F85A350A231A
:1049A8002B7008F029F807F0B1FF43E094F864355C
:1049B800002BF6D03B4B1B689B01F2D409232B70CC
:1049C800F1E73A4B1A68D4F85035C8339A4204D9FB
:1049D800244B93F810688EB904E00DF091FF00287D
:1049E800F6D127E0D4F840050BF055FB94F865356F
:1049F800C4F84065022B01D111F029F80123C3E660
:104A08000DF07EFFB0B14FF48053A4F85A350A2355
:104A1800BAE6B8F1000F7FF463A9254AB2F902207B
:104A28006432BFBF022289F8B823002289F8C6235E
:104A3800FFF770B915B0BDEC048BBDE8F08F00BF6F
:104A4800349501084C9501089895010838B8010873
:104A580052B8010867B801086FB8010883B801089F
:104A68008FB801087C2B002098B80108ACF7FF1F0D
:104A7800A9B80108BDB80108C7B80108D6B8010827
:104A880098340020E5B80108C8000020F5B80108EE
:104A9800FFB80108400A00200CB9010825B901082F
:104AA80030B90108241F00207C2600208C14002027
:104AB800301900202DE9F04F2DED028BA34E97B051
:104AC80034780096002C00F0EA80A14B1868002882
:104AD80002F09D8009F0F8FA9E4C206809F02EFD3E
:104AE800002802F0948020689B4C09F024FD0928D6
:104AF80001D03F284BD14FF000092768974E4D460B
:104B08002FB1974831683A4613F048FA10B9B146C0
:104B180005B93546934B10369E42F1D3D5B12E6870
:104B2800D9F80080236816F803E018F803007045E8
:104B380010D15A1C8A4948B92D2B07D8864E4FF0F8
:104B4800200E01F803E03260885403E001F803E026
:104B58002260E7E723680BB14D450FD082480AF081
:104B68002DFB4D4507D855F8100B0AF027FB0920F7
:104B78000AF04DFAF5E70BF075FA002723689F4213
:104B8800AAD2774BD85D0AF042FA0137F6E72368D4
:104B9800002B41F0C187042842F01280704806F0CB
:104BA80029FB02F034B8DFF8E8A1DAF8000009F0D0
:104BB800C5FC00285DD0DAF8000009F0BCFCDBF881
:104BC800003093F848100646002940F084802428D5
:104BD80040F0E280012283F84820DBF8003093F8A7
:104BE8004820062ADFD193F84900522801F027808F
:104BF80000F2A781342800F0848500F2528124282D
:104C080000F0C48600F21F81032800F0CA8240F237
:104C1800F980052840F00B811A200AF0E3F94FF0DB
:104C28000009524B13F8090009F101090AF091F93A
:104C3800B9F10B0FF5D14FF000094D4B13F80900EE
:104C480009F101090AF085F9B9F1080FF5D14FF01A
:104C58000009484B13F8090009F101090AF079F92C
:104C6800B9F1070FF5D10AF085F92B68002283F80E
:104C78004820D8F8000009F027FA3F4B93F87C3019
:104C88004BB138590BF0FCF909F0A0FD0FF04AFEC2
:104C98003A4B3B4ADA604C34982C01F0B887394FCC
:104CA800E359E219002BF6D0DFF8E490364DC9F845
:104CB8000030069300238DF81D30DFF8D8802A6075
:104CC8001423324A8DF81C306B440592C8F8003022
:104CD800AB46019267E7012904D14D2814BF002291
:104CE800022278E7022904D13C2814BF00220322BB
:104CF80071E703290CD140284FF0000102D983F84D
:104D080048106AE758711971D9719871042262E7DD
:104D1800042907D1997983F8490080EA01029A7138
:104D2800052258E705297FF458AF58791979884240
:104D3800987906D970409871481C18710B441E72F6
:104D48004BE7B0420CBF0622002244E7143500208E
:104D5800541F002058160020C4160020409A01084D
:104D680094160020009C01084DBA010883B8010878
:104D78008FB8010867B80108A80F002000ED00E00F
:104D88000400FA05E42A0020481F002051E5000825
:104D9800501F00204C1F0020CF490B7803F004035C
:104DA80003F0FF0E002B7FF418AF232EDAF8000073
:104DB8001BD1009A029101231370C84B019A186005
:104DC800C74B1860986010201873C6485A6083F85B
:104DD8000DE004330360C4480AF0F0F90BF042F91F
:104DE80002990B7843F002030B70C04B1B681B78C9
:104DF800B34201BFBE4BBF4A1A60BF4B04BFBF4A94
:104E0800DA60EAE6012800F0C081022840F08A87CB
:104E180004200AF0E7F843200AF09BF84C200AF037
:104E280098F846200AF095F84C2000F060BFC0F0D2
:104E3800C281222840F0768750200AF0D3F84FF03C
:104E4800000A00F03DBC2C2800F0CE8518D8282890
:104E580000F0B1852A2800F0C185262840F0628735
:104E6800A74E06200AF0BEF8B6F85C010AF0BDF8B5
:104E7800B6F85E010AF0B9F8B6F8600100F0F6BEBF
:104E8800302800F08D86322800F001862E2840F068
:104E980049879B4E40200AF0A5F806F1400A00F029
:104EA8004DBE422800F00C8620D83A2800F0C78270
:104EB8000BD8362800F02586382840F033870420A0
:104EC8000AF090F88E4E00F067BD3D2800F013837D
:104ED800402800F0E3853B2840F0248701200AF0B1
:104EE80081F8884B1B68187800F001BF4B2800F048
:104EF8009A850FD8462800F07986492800F006835D
:104F0800452840F00F8713200AF06CF84FF000098D
:104F180000F09ABE4F2800F08586502800F0708671
:104F28004D2840F0FF86DFF8F891774E99F8000099
:104F380000EB4000C0B20AF055F84FF0000B00F04B
:104F48008DBD732800F08B8400F296806A2800F0EB
:104F580056823DD8662800F07B812ED8642800F060
:104F68003C81652840F0DE860B200AF03BF8674B51
:104F780018880AF03AF804F060FC0AF036F8644B36
:104F88001B68C3F3C000C3F38002800040EA4200FC
:104F9800C3F340021043C3F3401240EAC20003F0D7
:104FA800100318430AF021F809F0F8FE0AF026F871
:104FB800534B93F8DC0700F09ABE682800F0E881AC
:104FC80000F2F68110200AF00DF84FF000096EE1AA
:104FD8006E2800F063820DD86C2800F0008240F241
:104FE8004E84062009F0FEFF4A4B18680AF006F8BE
:104FF800494B21E2702800F0BD82C0F08D827228F2
:1050080040F090863E4E162009F0ECFFB6F8A0015D
:1050180009F0EBFFB6F8440109F0E7FFB6F84601DE
:1050280009F0E3FFB6F8480109F0DFFFB6F8E2013E
:1050380009F0DBFF96F8110209F08BFF002009F058
:1050480088FF96F8120209F084FF96F88D0109F09E
:1050580080FF96F89B0109F07CFF002009F079FF9A
:10506800284B1B680A20B3F95A3093FBF0F080B242
:1050780009F0BBFF00F090BC7D2800F0FB8551D8FB
:10508800762800F00D840AD8742800F06383752808
:1050980040F048862F2009F0A5FF204E08E3782825
:1050A80000F01081C0F0B5837C2840F03B86144E98
:1050B800082009F097FFB6F84C0109F096FFB6F8FA
:1050C8004E0109F092FFB6F8500109F08EFFB6F8CC
:1050D800520100F0CBBD00BF183500205816002043
:1050E800A80F0020541F00207DBA01089C3300201F
:1050F800FC9F0020EFBEADDE00ED00E00400FA05E5
:105108007C2B002078160020262D00200E3500204C
:10511800601F00205C13002090120020BF9501083A
:1051280094330020A42800F0E48317D8962864D08C
:10513800A02800F01D847E2840F0F485C24E03208C
:1051480009F050FF96F8580109F003FF96F8590145
:1051580009F0FFFE96F85A0100F0C9BDF12800F0E9
:10516800F180FE2800F0F383F02840F0DB85B74E8D
:10517800042009F037FF3368B3F85E0009F035FF03
:105188003368B3F85C0000F071BD032009F02AFF12
:10519800002009F0DEFE012009F0DBFE102000F0FF
:1051A800A6BD09F01FFF012009F0D3FE0C2009F06D
:1051B800D0FE00F047BD062009F014FF522009F088
:1051C800C8FE432009F0C5FE452009F0C2FE0020B4
:1051D80009F0BFFE002000F049BD072009F002FFDA
:1051E800E72009F0B6FE984B587909F0B2FE002086
:1051F80009F0AFFE042000F035BD0E2009F0F2FEE4
:10520800934B188809F0F1FE04F017FB09F0EDFE46
:10521800904B1B68C3F3C000C3F38002800040EAD0
:105228004200C3F340021043C3F3401240EAC200F5
:1052380003F01003184309F0D8FE09F0AFFD09F098
:10524800DDFE814B93F8DC0709F083FE824BF3E027
:10525800122009F0C7FE814B1B88B3F5806F8CBF05
:105268004FF0080A4FF0010A4FF000097C4B33F960
:10527800190090FBFAF009F1010980B209F0B5FEB6
:10528800B9F1030FF2D1774E308809F0AEFEB0883D
:1052980009F0ABFE3089744E09F0A7FE308809F09A
:1052A800A4FEB08809F0A1FE308900F0DFBC6F4B86
:1052B80013F8090009F1010909F04BFEB9F1100FC3
:1052C800F5D1D0E4702009F08DFE4FF0000B5F4E51
:1052D8004FF00E09336809FB0BF94B440BF1010B36
:1052E800B3F81D0109F081FE33684B44B3F81F0180
:1052F80009F07BFE33684B44B3F8210109F075FED1
:1053080033684B4493F8230109F023FE33684B4478
:1053180093F8240109F01DFE33684B4493F82501E6
:1053280009F017FE33684B4493F8260109F011FE83
:1053380033689944D9F8270109F060FEBBF1080FDA
:10534800C5D190E47020404E09F04CFE06F1700A79
:1053580096F8D40009F0FDFD96F8D50009F0F9FD9E
:1053680096F8D60009F0F5FD96F8D70009F0F1FD9A
:1053780096F8D80009F0EDFD96F8D90009F0E9FD96
:10538800073696F8D30009F0E4FD5645E0D16AE403
:10539800102009F027FE4FF00009354B33F81900AB
:1053A80009F1010909F021FEB9F1080FF5D15AE414
:1053B800304E3078400000F0FE0009F013FE4FF048
:1053C8000009B2469AF800309945BFF44CAC2A4B14
:1053D80033F8190009F009FE09F10109F2E7274E2F
:1053E800062009F0FFFD308809F0FFFD708809F0FC
:1053F800FCFDB6F904300A2093FBF0F076E01020AB
:1054080009F0F0FD1E4B1F4E187800F0020009F05D
:10541800A0FD1D4B187809F09CFD306809F0EEFDE1
:10542800706809F0EBFD194B188809F0DEFD184B80
:10543800188809F0DAFD174B188800F017BC04200B
:1054480009F0D0FD144B9FE27C2B00207816002039
:105458000E350020601F00205A1F0020C8000020C1
:10546800C41A002040190020CC1A0020C80F0020C0
:10547800D01B002094330020982A002038190020DF
:10548800281A0020AC120020D81A0020A8120020E8
:10549800DA1A0020DC1A002098260020072009F0DC
:1054A800A1FDCB4B1888FF28A8BFFF20C0B209F088
:1054B80050FDC84B18684FF6FF794845A8BF4846C5
:1054C80020EAE07080B209F090FDC34B188809F01B
:1054D8008CFDC24B93F88D21C14B186842B10A2349
:1054E80058434845A8BF484620EAE07080B2BDE36B
:1054F80000F30F00FAE7B94E022009F073FD96F8A1
:10550800EC0109F026FD96F8EB01F0E3022009F022
:1055180069FDB24B9889A9E3B24E0B2009F062FDF0
:105528003368187809F015FD3368587809F011FDCB
:105538004FF0000BB246DAF80030AA4E5B440BF18C
:10554800010B187909F005FDBBF1030FF3D133689E
:10555800D87909F0FEFC3368987809F0FAFC3368CA
:10556800D87809F0F6FC3368588909F03EFD3368AD
:10557800187ABCE31E2009F035FD9B4B1A68127897
:10558800022A4FF0000A994679D1D9F8003003EB86
:105598008A0393ED080AB2EE048A20EE080A12F094
:1055A800A3FF80F30800C0B209F0D3FCD9F800309B
:1055B800DFED8E7A03EB8A0393ED0B0A20EE270AC0
:1055C80012F092FF80F30800C0B209F0C2FCD9F8CB
:1055D8000030DFED877A03EB8A0393ED0E0A20EEA5
:1055E800270A12F081FF80F30800C0B20AF1010A0D
:1055F80009F0AFFCBAF1030FC7D1BAF1070FD9F818
:10560800003025D193ED110A20EE080A12F06CFF44
:1056180080F30800C0B209F09CFCD9F8003093ED83
:10562800120A20EE080A12F05FFF80F30800C0B2E9
:1056380009F08FFCD9F8003093F84C3000EE103A9E
:10564800B8EE400A12F050FF80F30800C0B20DE037
:105658005344587809F07DFCD9F800305344D87A7F
:1056680009F077FCD9F800305344587D0AF1010A53
:1056780009F06FFCBAF10A0FBFD1FFF7F4BAD9F8F5
:1056880000305344587809F064FCD9F8003053448A
:10569800D87A09F05EFCD9F8003053440AF1010ABF
:1056A800587D09F056FCBAF10A0FE8D1FFF7DBBACA
:1056B80016F8010F00283FF4D6AA09F04AFCF7E7CC
:1056C800494B1B6803EB8A094A4B99F87D200C214A
:1056D80001FB02330AF1010A93F8380009F039FC9A
:1056E80099F87E0009F035FC99F87F0009F031FC43
:1056F80099F8800009F02DFCBAF1140FE0D1FFF7FA
:10570800B2BA482009F06EFC4FF0000A364B1A680E
:10571800062303FB0A290AF1010A99F8D20009F0C5
:1057280018FC99F8CD0009F014FC99F8CE0009F09E
:1057380010FC99F8CF0009F00CFC99F8D00009F09A
:1057480008FC99F8D10009F004FCBAF10C0FDDD17E
:10575800FFF789BA4FF0000A01264FF00009264BDF
:105768001B7899454CDA254B19F803E04FF0000BEC
:10577800204801900C2300F1300C03FB0BF313F8C5
:105788000CC0F44507D10344586B12F0FEFB844665
:105798003EB9334607E00BF1010BBBF11E0FE7D111
:1057A80013E0824411E063450FDA019ACDF80CC08A
:1057B8000C2000FB0B200293406BC05C09F0C9FB76
:1057C800029BDDF80CC00133EDE709F10109C6E7DA
:1057D800B415002070150020601300207C2B0020D9
:1057E800A41200205C160020781600200000C84291
:1057F80000007A44C0950108281F0020291F0020B6
:10580800002E3FF430AA5FFA8AF009F0EBFB00267D
:10581800A3E7D34E307809F0E5FB4FF00009B24614
:105828009AF800309945BFF41EAACE4B19F803E048
:105838000021CD480C2200F1300C02FB01F313F8D3
:105848000C20724505D1034493F8380009F081FB18
:1058580002E001311E29ECD109F10109E0E7082035
:1058680009F0C0FB4FF001095FFA89F009F101095D
:1058780009F06FFBB9F1090FF6D1FFF7F4B905206C
:1058880009F0B0FBB94B188809F0AFFBB84B188882
:1058980009F0ABFBB74B93F8300000F0010026E2AB
:1058A80009F038FB8346122009F09CFBBBF1000F7E
:1058B80001D1B14B03E0BBF1100F04D1AF4BD3F8CA
:1058C80000A05E6801E00026B246584609F041FB98
:1058D800504609F093FB304609F090FBA84B186836
:1058E80009F08CFB002009F080FB002009F07DFB0B
:1058F800A8E1A04E96F8310080000130C0B209F04E
:1059080071FB96F8310009F024FB4FF00009B3460B
:105918009BF831309945BFF4A6A99A4E16F80900AC
:1059280009F017FB06F1100306F1300A13F8090015
:1059380009F00FFB06F1200313F8090009F009FB31
:105948001AF8090009F005FB09F10109E0E7082048
:1059580009F048FB4FF000098B4B33F8190009F1A7
:10596800010909F042FBB9F1040FF5D1FFF77BB942
:105978000C2009F037FB854B186809F03FFB844B76
:10598800186809F03BFB834B18686BE1042009F0A9
:1059980029FB814B986865E196F8820109F0D9FAEC
:1059A80096F8860109F0D5FA96F8850109F0D1FA3A
:1059B80096F887019BE1784E072009F013FBB6F8AB
:1059C800880109F012FBB6F88A0109F00EFB96F877
:1059D8008C0109F0BEFAB6F88E0147E1012009F002
:1059E80001FB6D4B587982E16B4E0C2009F0FAFAF5
:1059F80096F8980109F0ADFAB6F8A40109F0F5FA9D
:105A0800B6F8A00109F0F1FAB6F8A20109F0EDFA2A
:105A180096F89A0109F09DFAB6F8A60109F0E5FA98
:105A2800B6F8A80122E15C4E082009F0DBFA96F8E6
:105A3800E00109F08EFA96F8E10109F08AFAB6F861
:105A4800E20109F0D2FA96F8E40109F082FAB6F810
:105A5800E60109F0CAFA96F8E80148E199F8003039
:105A68009B4506F10206BFF4FEA816F8020C09F0E1
:105A780070FA16F8010C00EB800000EB800000F2D1
:105A8800EE2080B209F0B1FA0BF1010BE6E7012034
:105A980009F0A8FA404B93F89B0128E1082009F087
:105AA800A1FA4FF000093C4B4B4409F1010993F866
:105AB800900109F04EFAB9F1080FF4D1FFF7D3B805
:105AC800354E102009F08EFA707909F042FAB06864
