:020000040800F2
:100000000050002009550108B5550108DD3E0108E2
:10001000B5550108B5550108B555010800000000A7
:10002000000000000000000000000000B5550108BD
:10003000B555010800000000B5550108B53E01089E
:10004000B5550108B5550108B5550108B555010864
:10005000B5550108B5550108253E0108213E0108A6
:10006000B5550108B5550108B5550108B555010844
:10007000B5550108B5550108E13D0108B555010820
:10008000293E0108B5550108B5550108B5550108C7
:10009000B5550108B5550108B55501081D3E0108C3
:1000A000B55501089D3D0108B5550108AD3D010854
:1000B0008D3D01087D3D01086D3D0108653E01084B
:1000C0005D3E0108613E0108593E0108B555010831
:1000D000B5550108D53D0108C93D0108BD3D0108E0
:1000E000C53E0108B5550108B555010800000000DE
:1000F0000000000000000000000000000000000000
:0C01000000000000000000005FF808F1A3
:100110002DE9F04F754B764FA1B03B6000237B601B
:100120000EF0FEFB18B913F0A1F80EF01BFC10F056
:1001300081FA704B704C1A78704E42F001021A70BE
:100140000023089309930A934FF4E0130B93236859
:10015000317B43F480332360A36943F01003A36130
:10016000236803F400330993089B01330893099B28
:100170001BB9089BB3F5A06FF2D122685E4B12F455
:10018000003201D0022315E0186840F00100186029
:100190000892236803F002030993089B0133089334
:1001A000099B1BB9089BB3F5A06FF2D123689D078B
:1001B00039D501230A93524B52481A6842F0100273
:1001C0001A601A6822F003021A601A6842F00202EA
:1001D0001A606368636063686360636843F48063A4
:1001E0006360494B1A68043B22F070425A60474AE8
:1001F0001060606820F47C106060586840F0004037
:100200005860D86820F40040D8609B68180449BF43
:100210003F4B4FF4E01313604FF480130B930A9B92
:10022000012B01D117E0FEE7022B18D169B10B9B1E
:10023000B3F5801F02D14FF4A01305E00B9BB3F57B
:10024000E01F02D14FF400130B9361680B9B0B432B
:1002500043F4803302E0636843F46013636023680F
:1002600043F0807323602168234B8901FBD55968D3
:1002700021F003015960596841F002015960636837
:100280001D4903F00C03082BF9D14868214B00F0FD
:100290000C00042803D0082804D01A4900E0116893
:1002A000196011E048684D68C0F38340ED0300F128
:1002B000020001D4184905E0496811F4003F1168B3
:1002C00018BF49084843186060681449C0F3031018
:1002D000084490F81880186820FA08F8C3F80080DD
:1002E0001368084A93421BD101221DE0A167000850
:1002F00068140020D833002000100240980200202B
:100300000020024000127A00041001400C0000207E
:10031000001BB7005000002000093D0094A2010816
:10032000A04A934202D102229F4B1A70DFF8DCA24E
:100330009E4B20ADCAF80C30A369DFF898B243F0A9
:100340000103A361636A4FF00009BB60636A9848C8
:1003500043F080736362A36943F01C03A3614FF60B
:10036000FF7325F82C3D29468DF856900DF095FF2A
:10037000584629460DF091FF29468E480DF08DFF15
:100380008D4B28465A6842F000725A6007F090FA86
:100390008A4A159B4946B3FBF2F389480C22FB605D
:1003A00017F03CFA4FF47A72864BB8FBF2F808F17A
:1003B000FF325A60F0228AF823200722C3F80890FF
:1003C0001A60B368DFF81482DFF844A2C8F800307E
:1003D0007D4B0FCB85E80F00A369159843F0080308
:1003E000A361A36916A943F00803A3610823CBF80E
:1003F00010301023CBF810300DF04FFF179818A9CC
:100400000DF04BFFD8F80030180744D59AF890311A
:10041000012B40D86D4B9AF891219B6813F0805ABC
:1004200000F0C2854B46B3B3694ADFF8A8B1106843
:10043000DFF87C914FF01008CBF814802946159016
:1004400048460DF02AFF0822C9F810203C2006F08B
:100450005CF8CBF810804FF0000896F89121904599
:1004600015DA5C4A4FF0080BC2F810B07820C9F8D2
:1004700014B0039206F03EF8039A7820C2F814B044
:10048000C9F810B006F036F808F10108E5E7BAF14E
:10049000000F00F09285642006F037F8A0224E4845
:1004A000002117F0BBF9E369002243F00703E36181
:1004B000A36943F4006343F00C03A361434B4FF083
:1004C000000A03F1100102F801A001320E2AF5D151
:1004D000FF229A77DA7783F8202083F821203F4A99
:1004E0003F4B14683F4A51461A603F483C2217F080
:1004F00095F904F04009052351460C203B4A484336
:1005000011F802E0384A00F802E0B9F1000F0AD110
:10051000AEF11E0EBEF1010F05D84FF0FF0E013BEC
:1005200000F802E0DBB201310529E6D1304A96F845
:1005300005A013702F4A304B7A62C032BA622F4A3C
:1005400083F800A002EBCA02204B5278A10648BFF4
:100550000122DA6200232A4A40F2DC519952023326
:10056000102BF8D10EA800211C2217F057F914F413
:10057000007804F4006B4DD0A3040ED4BBF1000F3F
:1005800008D0204A96F88401A2F10C01012818BF76
:100590000A4603E01C4B059301E01A4A05921495A4
:1005A0003AE000BF001BB700043400200005FA0544
:1005B00000080140001001400000014040420F00CF
:1005C000CC33002010E000E0BCA201086814002039
:1005D000CCA20108000C01402C320020D4000020E5
:1005E000301D00208A040020C81D00207FC00108A3
:1005F000C51D0020A8020020B00E002064C1010823
:10060000CA0E0020A0A2010894A2010800ED00E09B
:1006100098020020CDF81480BAF10E0F04D00AF031
:10062000EF0ABAF1080F02D101228DF84A20012009
:1006300005F050FE18B14088003018BF0120C4F307
:10064000400219F100098DF83E20C4F3403200F059
:10065000010018BF4FF001098DF83820C4F3C032F3
:100660008DF83D008DF840908DF83B20BBF1000FD8
:1006700007D096F884B1BBF1010EDEF1000B5BEB05
:100680000E0B18F1000318BF01238DF84230FB6AEE
:10069000B6F84401003318BF01238DF84330C4F38A
:1006A00000538DF84430B6F84631C4F30042ADF83B
:1006B0004830B6F852318DF84120ADF84630C4F3D9
:1006C00080438DF83F30B6F8503104F00101C4F397
:1006D000C002ADF84E00E0048DF83CB08DF8391042
:1006E0008DF83A20ADF84C3004D5AF48B0F84C0145
:1006F000ADF84E00B3F5FA7F84BF0023ADF84E305D
:1007000096F8D431A94887F83030002387F8313083
:1007100043709DF84A30002B14BF0223002301B917
:1007200002B10133A24A4FF0000802EB8303DB6BF6
:10073000CDF810800693069B33F808204FF6FF7320
:100740009A4200F08881D3B29A4F9DF83D101E0165
:10075000BC1919B1991E012940F277819DF840100A
:1007600021B1B9599448814200F06F819DF841E070
:10077000BEF1000F04D0B9598F48814200F0658165
:100780009DF83E1039B161688C48814203D12189BE
:10079000102900F05A819DF83B1039B161688748F3
:1007A000814203D12189022900F04F819DF83C103C
:1007B00039B161688248814203D12189022900F060
:1007C0004481DDF850C0BCF1000F0FD06068DCF848
:1007D000001088420AD12189BCF80400884200F048
:1007E0003481BCF80600884200F02F814FEA1229BC
:1007F000B9F1020F02D19DF8382004E0B9F1010FE0
:1008000004D19DF83920002A00F01F819DF8432073
:1008100062B19DF84A204AB9A3F10802012A05D81D
:10082000B959684A914208BF4FF004099DF8442025
:1008300062B19DF84A204AB9BEF1000F02D00C3BCC
:10084000012B01E0043B032B40F2E780B9F1010FDB
:1008500042D15D4BFF2283F8782083F879202189EB
:10086000627B4FF0000A83F87CA0C3F88840606880
:10087000ADF854108DF856202946022283F834A092
:10088000C3F838A0C3F83CA0C3F840A0C3F874A0D4
:1008900083F87AA083F87BA08DF8572003930DF09E
:1008A000FCFCB859A17A524606F0B8FF20465146E2
:1008B0004A460DF0BFFD039B444AC3F894A0C3F819
:1008C0008C20434A2046C3F8902003F18C0103F1A9
:1008D000900208F0E1FAB8E0B9F1020F3ED1049AB3
:1008E0003C49D3B21C225A43049B01EB020A4FF04D
:1008F000000B8AF8013001238AF802B08AF80AB0A6
:100900008B542189627B6068CAF80C40ADF85410A2
:1009100015A903938DF856208DF857900DF0BDFC66
:10092000B859A17A5A4606F079FF039B20461A4629
:1009300059460DF07FFD284B0AF11402CAF8103019
:10094000264BCAF818B0CAF8143020460AF1100134
:1009500008F0A2FA049A0132049276E0B9F1030F8A
:1009600058D19DF83F30184E3BB196F83270204672
:1009700008214FF6FF7200233EE0BDF84C3096F898
:100980003270B3F5FA7F2FD9154A2046B2FBF3F245
:100990000821BDF84E3092B20DF076FD06EB8707C8
:1009A000C7F85C010F4B2EE098020020991400203C
:1009B00094A2010884C0010800040040000801401E
:1009C000000C0140002C0140681400206BD5000889
:1009D0006DD60008E41400205978000845D60008B8
:1009E00000127A008DD60008B94A2046B2FBF3F215
:1009F000BDF84E30012192B20DF046FD06EB87079F
:100A0000B44BC7F85C01C36096F83230013386F806
:100A100032301AE0B9F1040F17D1BDF84630AC4AB4
:100A2000AD4E92FBF3F22046BDF84830012192B260
:100A300096F831700DF028FD96F8313006EB8707F7
:100A40000133C7F88C0186F8313008F10208B8F19B
:100A50001C0F7FF470AEA04CA04F94F831304FF0D3
:100A6000000E84F8AC319E4B87F800E01E78A6F1AA
:100A70001703022B1CD8F146636A002153F80900C2
:100A800003EB090A13F0F0FE10B1E36A7BBB29E027
:100A9000944B09EB030E9AE80F008EE80F003B78A9
:100AA00009F110090133B9F1C00F3B70E4D1ECE753
:100AB0008D4B13F8369003EBC603D3F804A087F8E8
:100AC0000090BAF1000FE0D0CE45DEDA854A4FEA59
:100AD0000E1303EB020C53440FCB0EF1010E8CE806
:100AE0000F00F1E7814A1368D90429D422E0804A33
:100AF00002EBC60393F84C007E4AD3F850E0107026
:100B0000BEF1000FEED000238342EBDAC3EBC3014A
:100B10000EEB0102D2F800A0DFF80C92013341F88D
:100B200009A001EB090C9188ACF8041092798CF8BB
:100B30000620E9E706F0EF03082B6F4B27D128E0EA
:100B400097F800A0BAF1010FF4D96C4F4FF00009EB
:100B5000D14507F11007EDDA57F8100C4FF07C5132
:100B600013F0EEFC4FF07C5147F8100C57F8140CC2
:100B700013F0E6FC4FF07C5147F8140C57F80C0CBE
:100B800013F0DEFC09F1010947F80C0CE0E70E2E2A
:100B900008D11A78182E42F010021A7008D106F007
:100BA00015F805E01A78192E22F010021A70F5E7F0
:100BB00009F04AF84D4A13685A0302D4504B0122F7
:100BC0001A70504B504E1A78504F42F004021A706F
:100BD00033784FF48052012B8CBF102314238DF8EF
:100BE00056304FF002038DF85730BB69ADF85420F2
:100BF00043F00403BB618CBF4FF001094FF00009C3
:100C0000434829460DF049FB424BB9F1000F01D092
:100C1000414A00E0414A00201A6005F0A9FC404B1F
:100C2000DFF8089193E80300BB6985E8030043F00F
:100C3000080316A9BB6115980DF02FFB0CF0D0FB33
:100C40009F238DF83430322000234FF4805A8DF8E2
:100C500035308DF836308DF8373005F056FC0422EB
:100C6000C9F814A028460DA908F064FEC9F810A020
:100C70009DF856209DF85530120242EA03429DF835
:100C800057301A43274B9A4214D0322005F03DFCCE
:100C9000C9F814A0F52008F0CFFDFF2008F0CCFD26
:100CA0007028C9F810A005D13378022B02D1164B59
:100CB00003221A703378032B0CBF1F20022005F08B
:100CC000C1FA3378032B33D001200BF0F3FB39E06A
:100CD00040420F007DD6000868140020980D0020C7
:100CE000B00E0020A80D002064C10108D40000202F
:100CF00094A20108E00E002092020020B00D002016
:100D0000B8130020D8330020043400200010024023
:100D100000080140E8330020896100089D61000857
:100D2000B0A3010815202000E10E0020000C0140B6
:100D3000022005F0CFFA18B14088003018BF01201A
:100D4000C307C1D5AE4B96F800A01D68AD4E4FF05D
:100D5000100B05F400635A4630460021049316F048
:100D60005DFD4FF6FF73ADF8343002234FF00008FD
:100D700015EA030205F400498DF836308DF8378006
:100D800035460ED0A0480DA9ADF834B006F0E2FD0E
:100D90000422327086F8018007230126AE70EB70C2
:100DA00000E01646BAF1010F0FD9202396480DA98D
:100DB000ADF8343006F0CEFD052301222B72AA7265
:100DC000731C07226E72EA72DEB2B9F1000F0ED008
:100DD00002238D480DA9ADF8343006F0BBFD012388
:100DE000F2182B71AB7107236E71EB71D6B2049BB5
:100DF0007BB1022385480DA9ADF8343006F0AAFD79
:100E0000092301222B73AA73731C07226E73EA73E2
:100E1000DEB27B687E4843F440437B607B69DFF849
:100E2000F08143F001037B61BB6943F40073BB6154
:100E300006F087FE774B00271593774B022E16930B
:100E400034BF3B4680231A934FF480731B934FF4B7
:100E500080631C93202315A91D9340464FF4005333
:100E600018961E93179719971F9706F04CFED8F8FF
:100E70000030012E43F00103C8F80030674B98BFE3
:100E800000215A6888BF012122F4702222F4807266
:100E900042EA01225A609968614A013E0A4042F4DE
:100EA000602242F002029A60DA6AF6B222F470021C
:100EB00042EA0656DE623846012329188A78002A5B
:100EC0005AD02A5C5E1C092A91F803E0F6B2534915
:100ED00011D9A2F10A0707EB47074FF0070C0CFAEC
:100EE00007FC0EFA07FED1F80C8028EA0C0C4CEA3D
:100EF0000E07CF600EE002EB42074FF0070C0CFA32
:100F000007FC0EFA07FED1F8108028EA0C0C4CEA18
:100F10000E070F61062B41490ED8013B03EB8303FB
:100F20004FF01F0E0EFA03FE9A404F6B27EA0E0792
:100F300047EA02034B6320E00C2B0ED8073B03EB80
:100F400083034FF01F0E0EFA03FE9A400F6B27EA41
:100F50000E0747EA02030B630FE00D3B03EB83032D
:100F60004FF01F0E0EFA03FE9A40CF6A27EA0E07D3
:100F700047EA0203CB6200E01E460430102801D08D
:100F800033469AE7254B9A6842F480729A609A68D1
:100F900042F001029A609A6842F008029A609968E9
:100FA0001E4A0F0710D5FAE702F1FF39B9F1090F10
:100FB0008CBF00230123FFF736BA1A4B83F891A1A7
:100FC0000FF0F0FCFFF767BA936843F004039360F7
:100FD000124A936813F00403FAD1916841F4A00116
:100FE0009160104AB2F85801F8B9B2F95A31DBB938
:100FF000B2F95C31D3F1010338BF002315E000BF23
:10100000D4000020001C002000080140000C01401A
:10101000080002404C240140101C00200024014024
:10102000FDF7F1FF98020020034613F0010340F0A2
:101030008A80BB4A00B2137113F02EFAB94913F03B
:101040007FFAB94F0646B7F95A0113F025FAB549A8
:1010500013F076FA0546B7F95C0113F01DFAB149B1
:1010600013F06EFA814630460CF0A4FE0746304677
:101070000CF02EFE804628460CF09CFE06462846C4
:101080000CF026FE054648460CF094FE8246484683
:101090000CF01EFE39468146504613F051FA39468F
:1010A0008346484613F04CFA51460490404613F0EC
:1010B00047FA49460690404613F042FA31460790F7
:1010C000504613F03DFA4946C4F8B00106F100401D
:1010D00013F036FA2946C4F8B401C4F8B85106989A
:1010E00013F02EFA0146049813F022F92946C4F8A9
:1010F000BC01079813F024FA0146584613F016F97C
:101100003146C4F8C00108F1004013F019FA29462D
:10111000C4F8C401584613F013FA0146079813F0B7
:1011200005F92946C4F8C801049813F009FA0146E4
:10113000069813F0FDF83946C4F8CC01304613F098
:10114000FFF9C4F8D001794D2B689E0320D5C82043
:1011500005F0DBF9AE2010F0B6FB08B110F0B7FBDC
:1011600084F8D401C82005F0D0F9714B00210C227D
:101170007048C4F8D83116F051FB022384F8DF31EF
:1011800011F0B2F805F077F96B4B0344C4F8E43181
:101190006A4F654E3B6896F85F0196F8691196F8BC
:1011A0006A21B3F9563009F049FB10B9012008F063
:1011B00035F9634B4FF00A081A7842F002021A70B0
:1011C000604B10225A6108221A615E4F1920FB6899
:1011D00008F1FF3883F01003FB60FB6883F008031D
:1011E000FB6005F092F9012005F0C2F9192005F025
:1011F0008CF9002005F0BCF918F0FF08E5D10823B0
:101200003B614FF01008504BC7F810801B6818075F
:1012100009D54E4BC7F814801B6898474C4B0122E8
:10122000C7F810801A70D4F8E8714FF00008387BC6
:1012300013F032F93B4913F083F90CF0BBFD454B39
:10124000C4F8EC01188813F027F901464FF07E50DE
:1012500013F02AFA404BC4F8F0013249186913F030
:101260006FF9C4F8F401387813F016F901464FF01D
:101270007E5013F019FA0146C4F8F8014FF07E5081
:1012800013F054F84FF07E53C4F8FC014046C4F804
:101290000832C4F81432C4F80082C4F80482C4F8D6
:1012A0000C82C4F810820CF085FD074640460CF015
:1012B0000FFD39468046384613F042F941468246D2
:1012C000404613F03DF939468146504613F038F94F
:1012D00041468346484613F033F90146584613F019
:1012E00027F83946C4F81802404613F029F9394660
:1012F000039013F025F9039B83464146184613F0EB
:101300001FF9034619465846039313F00FF8039B41
:10131000C4F81C021946584613F00AF81EE000BF34
:101320000C00002035FA8E3C98020020D4000020EA
:101330002004002044160020404B4C00340C0020B8
:10134000D8330020000C0140380200208402002025
:101350008C0A0020060000201C0C00204146C4F826
:101360002002504613F0ECF839468046484613F008
:10137000E7F80146404612F0D9FF0027C4F82402DE
:1013800084F82872B44CFF211B22204616F046FA3E
:101390002770B24FB24B3A68012112F0020F197058
:1013A000204604D06170032119700221A1705107F9
:1013B00004D519784C1C1C700324445412F00A0FF5
:1013C0000CD01A7804218154511CC9B2052444540C
:1013D000D11C02321970D2B2062181542A689406B7
:1013E00004D519784C1C1C7007244454110608D5E8
:1013F0001978092444548C1C01311C70C9B20A2488
:1014000044547179082901D00E2908D11C7804F1BF
:10141000010E83F800E04FF00B0E00F804E01C789A
:101420004FF00C0C04F1010E5FFA8EFE12F4803FB7
:1014300083F800E000F804C009D004F1020C884CE5
:1014400084F800C0844C4FF00E0C04F80EC0540712
:1014500008D51C7804F1010E83F800E04FF0100E5F
:1014600000F804E01C784FF0120C04F1010E5FFA52
:101470008EFE12F4806F83F800E000F804C00ED0F6
:1014800096F81CC2BCF1000F09D004F1020C744C98
:1014900084F800C0704C4FF0130C04F80EC01C7898
:1014A0004FF0140C04F1010E5FFA8EFE12F4007F6F
:1014B00083F800E000F804C009D004F1020C684C85
:1014C00084F800C0644C4FF0150C04F80EC01829C5
:1014D00013D11C784FF0160E00F804E004F1010E51
:1014E0005FFA8EFE4FF0170C00F80EC004F1030EE9
:1014F0000234E4B283F800E00155110304D51978F1
:101500004C1C1C7019244454D40504D51A78511C61
:1015100019701A23835400219822524816F07EF93C
:10152000514C10F027FBB6F84E315049A4F8303238
:1015300000234F4A0B808B70B6F896014D49C4F8D2
:101540002C220A6081B24C4A99520233242BFAD1E0
:101550002B68D9045CBFB6F89C1111801B0740F1C1
:10156000EE8096F89031062B00F2E380DFE803F07E
:1015700004070E3955A0A00045F2F05201E042F6F2
:10158000F8223E4B1A8010F07FFBD1E03B4B42F635
:10159000F8221A8012F080FF394912F0D1FF394940
:1015A00012F0C4FE13F0B8F90023374A9850043300
:1015B000482BFAD1354A364B40209A60354B1222DF
:1015C0001A7004F0C1FE002800F0B38001234FF030
:1015D000070990F9000040218DE808022E4A2F4BA0
:1015E000A1E0264B42F6F8221A802D4A284B4020D3
:1015F0009A60284B10221A7004F0A6FE002800F012
:10160000988001234FF0000890F9000040218DE8F8
:101610000801244A4FF4E13385E0184B42F6F822E2
:101620001A80214A1A4B40209A601A4B08221A70DD
:1016300004F08AFE00287CD001234FF0000C90F9C2
:10164000000040218DE80810184A4FF4E1330BF0F8
:101650007DFEC4F8340268E0631D002038020020DB
:10166000621D0020941C002068140020800E0020C1
:1016700020040020D80000204E020020CE0C0020C4
:10168000CDCCCC3F0000B0442C0100201D720008DE
:101690000C0000207E1D002085740008A08601003B
:1016A0000D720008D5730008F971000889730008ED
:1016B0004A4A42F6F821118049490C22062B494832
:1016C0000A7010D00023037084F8383284F839325D
:1016D0001B2384F83A32052384F83B2284F83C32F9
:1016E0004FF4E1380EE00021017084F8381284F8DC
:1016F0003912DFF81881212184F83A1284F83B224C
:1017000084F83C32384A394B40209A6004F01CFE81
:1017100078B101234FF0000E354A90F900004021C6
:101720008DE8084043460BF011FE003018BF012041
:1017300028B908200CF08CFB2E4A2C4B9A602B68A1
:10174000274A13F4804F04D0082111702A482749F2
:10175000886042F20101194089B1204944F62060B5
:101760000880980404D50821117024481F49886016
:10177000D90704D50C21117021481C4988601178C3
:101780001B06A1F1040151707ED5DFF884804FF073
:101790000009DFF880A0494615221A48DFF878B022
:1017A000C4F840A288F80190C8F80490C8F80890DE
:1017B00016F034F8AAF105034846CBF800300BF0D8
:1017C00029FA114B02201B68C8F80C3004F0BCFD4C
:1017D000434618BB80200CF03BFB4DE0CE0C0020B4
:1017E0007E1D002010020020B97100080C000020AE
:1017F000717200086D720008497200085572000885
:1018000061720008AC160020C833002090D003009D
:10181000F40B00208A040020140C002090F805E04E
:101820005A78C9494FF00C0C0CFB021C9CF801C003
:10183000F44504D00132D2B2042AF2D900225A70FF
:10184000DBF800205B7812784FF00C0E0EFB0311D2
:10185000002A0CBF0122032290F90000009200220E
:101860004B78019202210BF071FDB84B18600028F3
:10187000B0D001200BF0CEF9B54B1868B54B00F590
:10188000C5721A600CF0CCFB2B68980559D5DFF8AF
:101890001883059AB04BC8F800209A694FF01009D8
:1018A00042F001029A61059AAC4813880CA9ADF880
:1018B000303002238DF832908DF833300CF0EDFC8F
:1018C000D8F80030A5485B880CA9ADF83030042367
:1018D0008DF832300CF0E1FCD8F800300120197A94
:1018E0000CF0C6FCD8F800309D4A5B684FF0000A47
:1018F000536115A88DF859904FF0010915938DF893
:1019000058A08DF85A9006F0B7F8D8F800300DA816
:101910005B7A8DF836A08DF8343003238DF835309E
:101920008DF8379007F080FC8E4B1A688E4B3C3A4E
:101930001A603B684FF0FF3243F010033B608B4B63
:101940001A608B4B8B4FC4F85C328033C4F8603222
:101950002B684FF00008D90387F8008040F1BA8067
:101960000CF006FBDFF844C2DFF8EC9140F22A3BB2
:101970004FF0010A60465A46414687F800A0CDF86C
:101980000CC015F04BFFD9F818307B4843F0040326
:10199000C9F818304023ADF8303018238DF83330B3
:1019A0000CA903238DF8323005F0D4FFD9F81C3090
:1019B000724F43F00203C9F81C30714BA9F69479B9
:1019C0001A68704BB2FBF3F23B88013A23F45C7364
:1019D0001B041B0C3B8092B21D23BB853A85A7F8E4
:1019E00014A03B8C23F001031B041B0C3B843B8C99
:1019F000B9883A8B23F0020322F0730212041B040D
:101A0000120C1B0C89B242F0600243EA0A03B9804F
:101A10003A83A7F834803B843B8B23F008031B04F4
:101A20001B0C43F008033B83B7F844306FEA434391
:101A30006FEA53439BB2A7F84430D9F8A83F43EA72
:101A40000A03C9F8A83F484606F07BF84E4B8022AF
:101A5000DDF80CC01A924FF4807215931B9210237C
:101A60004FF40052484615A917931E920393CDF8E0
:101A70006480CDF87080CDF87480CDF87C80CDF88E
:101A800058C0CDF860B006F03EF8BA89039B92B218
:101A900042F40072BA81D9F800200DA842F0020287
:101AA000C9F800208DF834308DF835A08DF83680D7
:101AB0008DF837A007F0B8FB344B1A68344B48F860
:101AC000032008F10408B8F1800FF5D111F036FABF
:101AD00011F034FA2B685A0540F18C80D4F89085C7
:101AE0002C4B0420C3F8008004F02EFC0421C4F821
:101AF000940504F003FC284B84F898050820C3F8EB
:101B0000008004F021FC254B0821186004F0F6FB4E
:101B1000234F84F89905002138462C2215F07EFECB
:101B20008E237B704FF07C0AE0234FF07D09FB7021
:101B300087F800A087F82B901A4F2C2200213846F6
:101B400015F06CFE34E000BFA8910108F00B0020F6
:101B5000340C0020880D002000100240000C0140D1
:101B600000040140C8330020E80B0020B80B00201F
:101B7000C4040020D51300200008014000040040E8
:101B80005000002000366E0134040040E09501084A
:101B9000D61300201C1E0020701E0020BC1E00203A
:101BA000401E0020751E0020EC0B0020CC160020EB
:101BB0008A237B701020A023FB7087F800A087F891
:101BC0002B90C4F89C8504F0BFFB1021C4F8A0053D
:101BD00004F094FB84F8A4052020C4F8A88504F040
:101BE000B3FB2021C4F8AC0504F088FB84F8B005F1
:101BF00010F04EFA744B754F1B78022B68D1744B62
:101C00004FF000081A88322022F040021204120C11
:101C10001A801A884FF4805922F038021204120CEC
:101C20001A801A8892B242F040021A809F238DF8DF
:101C300034308DF835808DF836808DF8378004F09B
:101C400064FC8DF85580DFF8D8810422C8F8149020
:101C500015A80DA907F06EFEC8F810909DF8563033
:101C60009DF855201B0243EA02439DF85720134379
:101C7000584A934219D00AD8A2F51A42033A93421D
:101C80000CD002F51A420232934209D01BE0524AAC
:101C9000934205D00132934207D014E0202300E0A4
:101CA00080233B804FF4807302E04FF480733B80CD
:101CB0007B80BB883A881B02BB605343FB600123D7
:101CC00084F8B13504E000233B807B80BB60FB607F
:101CD000FB6823B34FEAD328C1464FF0000AC24540
:101CE0000BDA0AEB08077F100DF1540BF802594686
:101CF000102207F02FFF0F2806DC09F08BFE4FEAB9
:101D0000C923C4F8B4350AE000235BF8032001328C
:101D100055D10433102BF8D1B846B946DFE72B680C
:101D200013F400222D4B18BF01221A7004F0A3FBFC
:101D30002B4B18607379052B03D12A4B4FF4C872D3
:101D40001A80294B4FF47A721A80284BC8221A80C5
:101D5000274B28491A7842F008021A70264B1A7845
:101D600022F002021A700A6840F6020313406BB1B7
:101D70002248234B1860234B03201870224B01206C
:101D8000187022480023038021480380930308D55C
:101D9000042384F8E03194F8DF3143F0010384F840
:101DA000DF311C4B01229B680B601B4B1A701B4BD5
:101DB0001A7862F07F021A7021B0BDE8F08F07F147
:101DC000010A4F46A9E700BF043400201800002094
:101DD0000038004018BA20001740EF00B913002067
:101DE000980C0020541C0020FA330020F833002007
:101DF00092020020D40000200334002012040020AE
:101E0000141E0020741E002054000020F21B00202D
:101E1000F41B002098020020B8130020D8330020C3
:101E2000000C01409A4A2DE9F04F1468994904F5D5
:101E30009C4320330B60984B89B01968984611F485
:101E4000804F964E05D107F0ABFE10B933780133C1
:101E500033707778914BBFB15A68944240F2EF806B
:101E6000013F5F70EBE0D9F80030072C98BF195D97
:101E70008B4B88BF21461B688A489847032C0BD997
:101E800006EB440420810137864BFCB21D78DFF855
:101E90003C92A542E7D81FE0D9F8003004F10E02C9
:101EA00003EB82029388D2880028E9D0C01A4FF44D
:101EB0007A714843D31A90FBF3F0084440F6C90303
:101EC000984205DC40F2EE239842B8BF184601E084
:101ED00040F6CA0080B2D3E70F2386F82C30724B4D
:101EE00036781B784FF0030BB6FBFBFB02930BEB32
:101EF0004B0B6E4BCBEB060B1B785FFA8BFB4FEA61
:101F00004B0B69004FF0000AD9F80090684FCDF8EC
:101F100010B003930591D346059A92455BD065486E
:101F2000029A3AF8004042B907F03AFE20B1039B0A
:101F3000002B08BF002400E0029CB9F81400A04266
:101F400008D8B9F816C0A44534BF4FF0000C4FF0C4
:101F5000010C01E04FF0000C63463BB95FFA8BF0D7
:101F6000CDF800C007F028FE009B04465FFA8BF016
:101F700003280BD853B94FF0010C0CFA0BFC47485F
:101F800090F82CE02EEA0C0E80F82CE007F008FE0A
:101F9000C0B94248049990F876307C5223B9022E99
:101FA00010D9012480F8764078883C880444B888A9
:101FB00004444148A4B22AF8004024B2032094FB10
:101FC000F0F4A4B23D480BF1010B2AF800400637AB
:101FD0000AF1020AA0E7314B394993F82C20B2F1FB
:101FE0000F077A427A4183F89020364B6AB1364A1D
:101FF0001268560109D40A68D9689A60521AC82A28
:102000001DD9012283F8212019E027480022096800
:1020100002709868D9605B68091A994288BF294B99
:102020004FF0000488BF83F82120AC4207DAE0B209
:1020300007F0C2FD214B23F814000134F5E7D8F86E
:102040000030DD0405D5204B1B68DC0701D40FF000
:10205000E5FD0F4B1C681D4B19688B7A002B39D09E
:10206000164A013B32F813000B7B1BB1C0F53B60F5
:10207000083080B200B2A0F57A70B0F57A7FA8BFC0
:102080004FF47A7020EAE07012F006FA104957E037
:10209000DC3300202C020020D4000020201A002075
:1020A000140000207E1D0020C8000020D000002069
:1020B0004E1A0020281A0020981A00204E020020F4
:1020C000C8330020800E00203C020020D8000020F1
:1020D00000007A44D8F8002010043AD58A4AD2F891
:1020E0009400201A002834DB04F59C402030C2F80C
:1020F00094008648C97A4579854830F8150080B241
:1021000090FBF1F092F89810013101F00F0182F884
:1021100098100A4482F8990018467E4A9A5C013366
:102120001044102B80B2F8D100B290FBF3F000B253
:102130006428A8BF642020EAE07012F0ADF9764967
:1021400012F0B2FA754912F0FBF912F0E5FB744B8C
:102150001880D8F80030734E13F4807F00F0FD80B3
:10216000714B9C42714C03D9A3780BB90123A37026
:10217000A378002B00F0F1806C4B377893F8215056
:102180006B4B691E4D424D411A68002DC7F3800705
:10219000C2F380699A460CBF4FF0030B4FF0000B5F
:1021A00094F82030052B00F2D280DFE803F0034DD5
:1021B0005274819A002F3AD05E4B18685E4B198892
:1021C00007F024FD012809D15C4B64211A684E4BAD
:1021D000D3F8AC30DB8801FB03232361B9F1000F96
:1021E0000DD0494BD3F8AC301B7943B10AF0DCFC7D
:1021F000032384F820304FF47A73E361D0E7002D95
:1022000040F0A5804D4B22691968484B91420AD98C
:1022100000930AF0C9FC009B032283F8202040F6BB
:10222000B832DA61BCE7012283F82020B8E74FF426
:102230008060B9F1000F02D004F0F8F901E004F079
:1022400005FA0023236182E0002D42D10AF0ACFCA4
:10225000A6E725B1052384F82030012100E02946B6
:102260006FB1344B4FF0020B1B68DA89344B1A8084
:102270005A809A80244AD2F8AC205288DA802F4BB8
:102280001A6863699A4201D8002F5DD147F2305332
:10229000E36103231EE0337843F0020333700FF051
:1022A000BDFC264B1A68E3691344A361042311E0C3
:1022B000224B1A688DB1A3699A4248D9214B1B78E9
:1022C0001BB9DAF80030DA0741D4337823F002037F
:1022D0003370052384F8203062E7E3691344A36177
:1022E00035E0164B64211A68074B4FF48060D3F831
:1022F000AC30DB8801FB03232361002384F820300A
:10230000E37004F0A3F94BE7201A0020001C002022
:10231000101C0020B91A00200000C84200C07F44F1
:10232000801D002003340020404B4C00800E002014
:102330003C0200209416002098160020C83300208C
:102340004E0200200500002000297FF429AFBBF1D8
:10235000000F02D0584604F02FF9984F07F5C470CB
:10236000B7F84E1107F052FC814678B904F00EFD23
:10237000934B0022C3F8B090C3F8B490C3F8B89060
:10238000C3F8BC20C3F8C020C3F8C42033785B076F
:1023900041D5D8F80030DD063DD58A4B1B78DC06E8
:1023A00039D4894B864C1D788DB197F8E031B9F15D
:1023B000000F16D173B1854B1A68D4F8C8309B1A38
:1023C000002B07DA0FF02AFC84F8CC9023E0B9F157
:1023D000000F19D1102004F0EFF8012384F8CC305D
:1023E00019E03BB1794A4FF47A71126801FB03237B
:1023F000C4F8C83094F8CC306BB104F0C1F8704B1D
:10240000002283F8CC2006E094F8CC301BB104F015
:10241000B7F884F8CC50002297F8DEA197F8DF11C6
:10242000B7F89851B7F89AE11346694C9B08105FCA
:102430000232A842C4BF63F07F03DBB27045B8BF6D
:1024400043F04003082AF0D15D4C94F8CD209A4225
:1024500005D194F8CE20F92A04D8013200E00022F8
:1024600084F8CE2084F8CD30574B5A4D1A789B46CD
:10247000DAB92B68D80708D5B9F1000F15D1337830
:10248000D90712D50FF04AFC0FE033785A070CD564
:10249000514B1B784BB1514BDB7833B911B10FF075
:1024A000BDFB02E0B9F1000FF9D094F8CE20444B07
:1024B000142ADFF83C9140F0AD809BF800201AF11F
:1024C000000A18BF4FF0010A6AB393F8CD205F2AC3
:1024D00011D1327802F0040202F0FF0112B10FF0C4
:1024E0009DFB08E00B200191009304F065F8019931
:1024F000009B83F8CE10BAF1000F14D094F8CD30C1
:102500007D2B10D1337803F0040303F0FF0213B1E5
:102510000FF084FB07E00B20019204F04DF8284BEC
:10252000019A83F8CE20337803F0040303F0FF0010
:10253000002B6FD194F8CD30214A572B16D1284B60
:102540004FF47A721A80D8F800301B0601D50BF0D0
:1025500059FC244B1B68580702D5234A0A211180D5
:1025600013F0080356D1214A138053E0D8F8001025
:10257000490717D55A2B15D192F8CF302BB101232B
:1025800082F8CF0082F8D03044E092F8D13083F066
:10259000010382F8D1300BB10C2000E00D2004F0D3
:1025A0000BF837E05D2B00F03A855B2B00F03985A6
:1025B0005E2B1FD1032000F035BD00BF9802002024
:1025C000201A00209202002005000020C8330020BD
:1025D0004E0200203C020020C8000020800E002097
:1025E000FA33002038020020F8330020720D00205A
:1025F000340C0020562B01D10EF0D4F99BF800309A
:10260000002B00F0248594F8CD306F2B40F0198515
:102610000FF084FBD8F80030580736D594F8D13045
:10262000B34A93B1337859070FD5B24BB3F90610BB
:10263000B7F89831994208DD2B6813F0010304D1F3
:102640003221A2F8D21082F8D1302B6813F4803FE7
:10265000A74B0CD094F8D4202AB993F8CF2012B904
:102660003222A3F8D220012384F8D4300DE094F86C
:10267000CF2052B1327802F0040202F0FF0122B9F9
:10268000012283F8CF1083F8D020D9F800A00023CE
:102690000AF1790B2B600AF17B0499460BF10203D6
:1026A00003EB090113F809204B7814F8010C9A4246
:1026B0000AD2214610F01EFC30B114F8023C01226F
:1026C0009A402B6813432B6009F10409B9F1500FAC
:1026D00004F10404E2D1884B1D784DB1874DDFF839
:1026E00038922B68864C13F0020F40F033832AE3B4
:1026F0000AF1C9090AF1CA0409F1010359195A5D1D
:102700004B7814F8010C9A4229D2214610F0F2FBC2
:1027100028B394F802E020797A4B0EF1FF3E4FF097
:102720000C0C0EEB4E0E0CFB00FC9E44704B94F810
:1027300003B003F1D80A0AEB0C02516871450ED0C0
:1027400000210AF80CB0C2F804E09160012202FAFC
:1027500000F093F8082122EA000083F8080106350A
:10276000482D04F10604C7D1674BDFF8B0B11D68EE
:10277000664B4FF0000A1B680293654B1B7803936E
:10278000DBF80030002B00F0D58293F80090B9F10F
:10279000000F00F0CF82DBF804200298821A002A92
:1027A0000DDB012101FA0AF100F5FA72CBF80420E1
:1027B0004F4A92F8080120EA010182F80811039AB1
:1027C000002A00F0B7821BF8041C58780431C9B203
:1027D000474A002840F06D82464830F91110B7F89A
:1027E000960100F1C804A14201DD9C7814E0C838CC
:1027F000814202DA9C7864420EE0012303FA0AF374
:1028000092F8081121EA030382F80831029A02F5CE
:10281000FA73CBF804308DE292F8083143FA0AF3E8
:10282000DB0700F18782002CCCBF0220012003F0DF
:10283000E5FE09F1FF33132B00F27382DFE813F09A
:10284000140021002E003E0070007700DB003F01E5
:10285000A301D801080271023E004D007700DB00A1
:102860003F01AD00110175012B7828461C44FA2C5C
:10287000A8BFFA2424EAE4742C7003F0AFFD012011
:102880001AE06B7828461C44642CA8BF642424EA10
:10289000E4746C7003F0A2FD02200DE0EB78284692
:1028A0001C44642CA8BF64241A4B24EAE474EC7022
:1028B000196803F04FFD03202146C6E169790D2018
:1028C00021446429A8BF642121EAE171697109F0FA
:1028D00023FAB9F10D0F00F0248229790E2021444A
:1028E0006429A8BF642121EAE1712971ADE100BF2B
:1028F000201A00204E020020023400203C0200205A
:1029000040020020A8A90108940D0020C83300202F
:10291000C8000020341D002038020020FC1A0020CE
:10292000A9790520214481F30801A9718DE1A74B04
:102930001B681A78022A21D12046009311F0ACFDC1
:10294000A34911F0B1FE009B596A11F0F1FC00217E
:10295000019011F093FF019A009B40B910469C49E9
:1029600011F0AAFF019A009B10B1994A00E00022E1
:102970005A620F20114609F0E3F90AE099780F2016
:102980002144C829A8BFC82121EAE171997009F042
:10299000C3F9B9F10F0F00F0C4818C4BD3F800904C
:1029A00099F80030022B1AD1204611F075FD8849A4
:1029B00011F07AFED9F8201011F0BAFC002104467B
:1029C00011F05CFF30B92046814911F075FF10B15C
:1029D0007F4C00E00024C9F82040122059E199F80A
:1029E000011012202144C829A8BFC82121EAE171A1
:1029F00089F8011029E1754B1B681A78022A21D148
:102A00002046009311F048FD714911F04DFE009BE6
:102A1000196B11F08DFC0021019011F02FFF019A2C
:102A2000009B40B910466A4911F046FF019A009B8D
:102A300010B1674A00E000221A631020114609F025
:102A40007FF90AE0197B10202144C829A8BFC821BA
:102A500021EAE171197309F05FF9B9F1100F00F083
:102A600060815A4BD3F8009099F80030022B1AD1AC
:102A7000204611F011FD564911F016FED9F82C1020
:102A800011F056FC0021044611F0F8FE30B9204642
:102A90004F4911F011FF10B14D4C00E00024C9F86E
:102AA0002C401320F5E099F80B1013202144C8297D
:102AB000A8BFC82121EAE17189F80B10C5E0434B9A
:102AC0001B681A78022A21D12046009311F0E4FCF9
:102AD000404911F0E9FD009BD96B11F029FC002160
:102AE000019011F0CBFE019A009B40B91046384985
:102AF00011F0E2FE019A009B10B1354A00E000227D
:102B0000DA631120114609F01BF90AE0997D1120C2
:102B10002144C829A8BFC82121EAE171997509F0AB
:102B2000FBF8B9F1110F00F0FC80284BD3F80090AE
:102B300099F80030022B1AD1204611F0ADFC25493E
:102B400011F0B2FDD9F8381011F0F2FB0021044663
:102B500011F094FE30B920461D4911F0ADFE10B1C0
:102B60001B4C00E00024C9F83840142091E099F88B
:102B7000151014202144C829A8BFC82121EAE171F9
:102B800089F8151061E0114BD3F8009099F80030E6
:102B9000022B21D1204611F07FFC0D4911F084FD5C
:102BA000D9F8281011F0C4FB0021044611F066FE8C
:102BB00030B92046064911F07FFE10B1044C00E008
:102BC0000024C9F82840092063E000BF381D002018
:102BD0000000C84200007A4499F8031009202144FB
:102BE000C829A8BFC82121EAE17189F803102CE0A7
:102BF000AE4BD3F8009099F80030022B1AD1204642
:102C000011F04AFCAA4911F04FFDD9F8341011F027
:102C10008FFB0021044611F031FE30B92046A44953
:102C200011F04AFE10B1A24C00E00024C9F8344073
:102C30000A202EE099F80D100A202144C829A8BFC7
:102C4000C82121EAE17189F80D1009F065F868E002
:102C5000964BD3F8009099F80030022B1DD12046F6
:102C600011F01AFC934911F01FFDD9F8401011F032
:102C70005FFB0021044611F001FE30B920468C496B
:102C800011F01AFE10B18A4C00E00024C9F840404F
:102C90000B20214609F054F843E099F817100B2057
:102CA0002144C829A8BFC82121EAE17189F8171079
:102CB000CBE7012835D198787F4B33F91110B1F566
:102CC000617F05DB40F633039942B8BF0B4601E054
:102CD0004FF46173B9F10C0F23D14FF49664A3F54F
:102CE000617394FBF0F493FBF4F492F80931E4B2CD
:102CF000A34216D0032C94BF2346022382F8093145
:102D00000E2202FB03736D4A03F2B673136003F0E5
:102D10007FFB4846214608F0FFFF601CC0B203F06D
:102D20006DFC012202FA0AF2654B93F808110A437E
:102D300083F808210AF1010ABAF1040F0BF10C0B18
:102D40007FF41EADCAE4D8F80030D80510D55D4B2D
:102D5000DB786BB1D9F80030990709D5238813F0D7
:102D6000010A0AD104F012F8012003F05FFC04E02C
:102D7000012003F06BFC012300E000232A685207C6
:102D80000CD55BB1012003F061FC23889B0708D4BC
:102D900003F0FCFF022003F049FC02E0022003F0F4
:102DA00055FC2388484A13F0030F4FF0100114BF5D
:102DB00051611161D9F8002012F00A0F23D02A685E
:102DC000D00609D559070AD4042003F02FFC3F4B45
:102DD0001A883F4B1A8002E0042003F037FC2B686E
:102DE0009A0606D523885B0606D4402003F01EFC15
:102DF00002E0402003F02AFC2B68580603D5334B31
:102E00001A88344B1A80D9F80030990608D42B68F8
:102E10001A0540F1D7804FF4807003F007FCD5E02D
:102E20002D4B1B789B0740F193802C4B1B78042B78
:102E300040F28E802B6813F4007A0ED02388DC06D3
:102E400079D4102003F0F2FB202003F0FFFB24488C
:102E5000011D08F0F5F8022268E0B4F8009009F0CE
:102E600010091FFA89F343B1102003F0EFFB1D4B4B
:102E70004FF0010983F800A000E099462B6858053F
:102E80004DD5194B1B685A89184BB3F9001000290E
:102E9000B8BF494291422BDAB3F90230002BB8BFD8
:102EA0005B429342ACBF0023012322E0381D002087
:102EB0000000C84200007A444E020020940D002019
:102EC000201A0020800E0020000C0140720D00200E
:102ED000740D0020E81B002092020020180C002036
:102EE000401D0020501D0020880D00206A0D00208C
:102EF0000023A3B1238899061FD4202003F096FB5A
:102F00007D4B7E481A685B68011D4360026008F0D3
:102F100097F87B4B4FF0010983F800900DE0238870
:102F20009A060AD5202003F091FB0022744B4FF043
:102F300001091A7001E04FF00009724C94F80A314F
:102F4000B3B90E2003F038FB012384F80A310FE0F7
:102F5000238803F03003002B3FF459AF102003F017
:102F600075FB202003F072FB654B00221A7003E012
:102F7000B9F1000F3FF44BAF00231A46624900201D
:102F800050526249624C5052624904EB030E505257
:102F9000002119510232CEF80400CEF8081004F1D5
:102FA000280E503443F80E1019519E441C44042A34
:102FB000CEF80400CEF808106060A16003F114039D
:102FC000DCD124E74FF4807003F040FB7B79082BC1
:102FD00001D00E2B02D1402003F038FBD8F800308E
:102FE0005B0540F1868097F81C321BB9337813F0EB
:102FF000040F02E02B6813F4002F0BD0414B00228A
:1030000083F884213C2004F0C7FA002871D003F033
:1030100041F9F7E70FF03CF80EF0ACFD69E0012054
:1030200000E002205FFA80FA0AF1FF3387F8B43734
:103030000BF098FC0DF0FEFA504603F0DFFAFFF7B4
:10304000E9BABAF1000F02D07E2B3FF4E1AA94F85E
:10305000CD30972B05D1304B4FF4C8721A80FFF753
:10306000D9BAA72B06D12D4B1A7842F004021A7058
:10307000FFF7D0BA0022BB2B079201D1022303E055
:10308000B72B04D14FF6FE73ADF81E3009E0BE2B0E
:1030900001D1022303E0BD2B1AD14FF6FE73ADF828
:1030A0001C30D9F80030BDF81C10B3F858200A4481
:1030B000A3F85820BDF81E10B3F85A200A44A3F80C
:1030C0005A200DF06FFC002384F8CE30FFF7A2BA2F
:1030D000792B04D1124BDA7822F0010206E07A2B28
:1030E0007FF498AA0E4BDA7842F00102DA70FFF70B
:1030F00091BA09B0BDE8F08F301E0020481D0020B5
:10310000501D0020201A0020FC3300208C0D0020D0
:103110002C1B0020900D0020541C00209202002047
:1031200044160020834B2DE9F04FB3F90610824B73
:1031300089B018684389994211DBB1F5FA6F90F8AC
:1031400007E009DACA1A02FB0EFEA3F5FA639EFB3A
:10315000F3FE0EF1640E04E0CEF1640E01E04FF0D8
:10316000640E8389994219DBB1F5FA6F047A10DA9B
:10317000632CC3EB010205D9643CA4B25443C3F5EC
:10318000FA6302E05443A3F5FA6394FBF3F4643466
:1031900005E0632C03D8C4F1640400E06424674BA9
:1031A000B3F8962193F95E310492654A9BB2D2F846
:1031B00000C00593674600225E4B049D33F9123030
:1031C0004FEA420803935B1B03F2F31640F2E63525
:1031D000AE4203D8002BB8BF5B4201E04FF4FA7354
:1031E000022A4FF06406574D2ED09CF81191B9F188
:1031F000000F04D04B45CCBFC9EB0303002393FB66
:10320000F6F96FF0630B35F819A00BFB093B09F1D8
:10321000010935F919900FFA8AF5C5EB090505FB87
:103220000BF595FBF6F5AA44474D28F805A085183F
:103230002D796B43454D93FBF5F364339BB20EFB45
:1032400003F393FBF6F62FE09CF81291B9F1000F0F
:1032500004D04B45CCBFC9EB0303002393FBF6F628
:103260006FF0630A05EB46090AFB063B05EB4606D1
:10327000B9F90E90B6F91050059EC9EB050505FB8E
:103280000BFB9BFBFAFBC9EB0B0909FB06F92E4E66
:10329000A6F80490857983EAE376A6EBE3766E439D
:1032A0002A4D96FBF5F664360CEB020595F801A065
:1032B000244B06FB0AFA642503F11C099AFBF5FA74
:1032C00009F802A097F80BA003F11F0906FB0AFA00
:1032D0009AFBF5FA09F802A097F815A0022A06FB56
:1032E0000AF603F1220996FBF5F61D4616BF2533B3
:1032F00083F8274003F802E009F80260039B049E6C
:10330000B342114E04DA36F808305B4226F8083032
:103310000132032A07F101077FF44EAF074CB4F8DE
:103320009831994214DBB1F5FA6FA8BF4FF4FA61F6
:103330000FE000BF4E020020940D002098020020F4
:10334000340C0020A81B00206A0D00200CFEFFFF9B
:103350001946C91A4FF47A725143C3F5FA63B1FBA7
:10336000F3F34FF0640E93FBFEF205EB4201088D80
:103370006FF0630101FB023305EB4202B2F92A1040
:1033800002B28A1A534393FBFEFEB54B70441B886E
:10339000B44F5906F0803ED5B34B1888B34BB3F801
:1033A0004030C01A00B211F077F8B14911F0C8F8F6
:1033B00080460AF0FFFC814640460AF089FC8046C0
:1033C000B7F9020011F068F88246B7F9000011F071
:1033D00063F84946834611F0B3F841460346504628
:1033E000019311F0ADF8019B0146184610F09EFFC5
:1033F00011F06CFA49463880504611F0A1F8414668
:103400008146584611F09CF80146484610F090FF5E
:1034100011F05CFA7880974B1A689A4612F0020F06
:1034200074D0954B6A6C1B6845F207219A1A8A4240
:103430008E4F6BDD7B6405F0D9FE904BDFF86C821C
:103440001A789946032AB8F8003022D10A2B2CD9D1
:103450000023282089F8003003F057F805F0C6FE55
:10346000B7F8480004F09AFC854B86491B68DA7867
:1034700090FBF2F0421C082A28BF08220A705979F2
:103480001B7992B251435A43A7F84A10A7F84C202F
:103490000BE00A2B09D803237A4A89F8003000236D
:1034A0001370A7F84A30A7F84C3099F80020734BF6
:1034B000012A0DD002D3022A1ED027E0B5F84A20F7
:1034C000B8F800309A4221DD012389F8003011E07C
:1034D000B8F80020B5F84C10914202DD02221A70B3
:1034E00011E06249B1F84A1001318A4202DD00223E
:1034F0001A700BE0082007E0B5F84C30B8F800204F
:1035000001339A42E0DC072003F056F8DAF8007045
:103510003A057BD5584B296D1A68544BC1EB020B09
:1035200045F207218B4571DD5548B6F90690D0F874
:1035300000801A6598F80A004FF47A7201289BFB04
:10354000F2FBB4F84E11A9F57A794F4E03D046D369
:10355000022823D045E093F86510586D03EB410134
:10356000B1F868E0082190FBF1FC1FFA8EFECCEB6D
:103570000000704490FBF1F1586589B240F6E440D8
:103580004143A3F870E0B8F80830C3EB11314A4367
:10359000B8F9063092FBF3F2326022E03B4BB8F808
:1035A00008A01B78C6F800A05B071AD5384806F0BB
:1035B0002DFB20B917F0100F18BF4FF0000909FBC1
:1035C00009F2322392FBF3F39944B8F906304FF431
:1035D0007A7203FB09F393FBF2F3534400E00023F8
:1035E00033603368D5E91E0103FB0BFB4FF47A739C
:1035F0009BFBF3FB10EB0B0041EBEB710023C5E9E8
:103600001E01244A11F0A8F9234B1860234B1A68B5
:10361000984612F4805F4ED03F0649D5204B1B7868
:103620009E0745D51F4B1978042941D900231E4E0A
:1036300005229A55981C1E440A27122BC2B2777095
:1036400004D0B1EB520F0346F1D800E014222A4413
:10365000322382F87F30FF2382F880300F2028E069
:10366000400200206A0D0020720D0020A81B0020DF
:1036700035FA8E3CD4000020DC330020741E00207C
:10368000141E002054000020201E002003340020BF
:1036900020040020407E0500241E00203C02002063
:1036A00092020020180C0020281C0020181E002068
:1036B0000A2002F081FFD5F89820AE4E002A4ED0A5
:1036C000AD4BD6F89C1018689946814247D896F8B9
:1036D000A010B6F8A2305268C9B9012786F8A070C8
:1036E000D35C03B3384602F043FF86F8A47002F0BF
:1036F000DDFEB6F8A230B3B9D6F898301B78053B9A
:10370000BB4210D802F0B7FEC6F8A8000BE00027B5
:1037100086F8A070D35C33B1384602F029FF86F8F2
:10372000A47002F0C3FED5F89820B5F8A210526834
:10373000904B525CFE2A03D10022A3F8A2200EE097
:10374000FF2A02D102F01CFF09E0D9F800000A2686
:1037500006FB02020131C3F89C20A3F8A210874E99
:103760003278500703D5864B08225A613FE0D8F8DB
:103770000030D9075CBF42F001023270814A1278F2
:10378000120703D4327822F001023270DB0203D533
:10379000337823F0010333707B4B1B685F0702D53E
:1037A0007A4A128862B9B5F8AC200AB1980705D4F4
:1037B000774B1B88003318BF012300E001233BB186
:1037C000022385F8A430337823F00103337005E039
:1037D0003278D10758BF022385F8A43002F04BFE9F
:1037E000D5F8B030C01A002801DB02F05FFE0EF001
:1037F0004FFC684B1A78002A78D0D5F8B430002BEB
:1038000000F00E87D5F8B4005A4C02F04EFF0028A5
:1038100000F00687D4F8B40002F042FF092801D076
:103820003F2855D14FF00008D5F8B8605A4F4446AC
:103830002EB15A483968324614F038F810B9B846F3
:1038400004B93C46564B10379F42F1D304B3D4F829
:1038500000E0D8F800C0D5F8B83046481EF803702C
:103860001CF80310B94213D15A1C59B92D2B09D891
:10387000C0F8B82003442027024483F8BC7082F8C3
:10388000BC1005E02B4483F8BC70C5F8B820E2E713
:10389000D5F8B8300BB1444510D0424802F06EFF65
:1038A000444507D854F8100B02F068FF092002F0D5
:1038B0005EFFF5E73C4802F061FF0026D5F8B8301E
:1038C0009E429FD2354B985D02F051FF0136F5E7DD
:1038D000D4F8B830002B40F0C986042840F0378770
:1038E00004F1BC000BF01AF900F09ABE2F4F97F8C4
:1038F0004A30012B40F08F86DFF8B8802C4B3A68B5
:10390000C8F800701A60C2469B46DBF80000DFF87A
:10391000A09002F0CAFE002800F06B86D9F80000E3
:1039200002F0BEFEDAF80030024693F8481019B9EA
:10393000242860D101225BE0012904D14D280CBF6D
:103940000222002254E0022904D13C280CBF0322A9
:1039500000224DE003292FD140284FF0000102D969
:1039600083F8481071E058711971D9719871042267
:103970003EE000BFA81B0020C83300200334002015
:10398000000C01409202002038020020F833002091
:10399000FA33002002340020E4A90108641C00204E
:1039A000C4AB010834C2010839C20108941C0020CC
:1039B000D01E0020CC1E0020042907D1997983F85D
:1039C000490080EA01029A71052211E005293CD1E3
:1039D000587919798842987906D950409871481CCD
:1039E00018710B441A7230E090420CBF062200227C
:1039F00083F8482029E03178D44B490725D4232A7D
:103A0000D9F8001016D1D2484FF0010E80F800E02E
:103A1000D048C5F8B410C5F884110292019302F0A1
:103A2000ADFECD4802F0AAFE019B197841F00201DB
:103A30001970029AD5F888311B78934205D1C74A8C
:103A4000C74B1A60C74AC84BDA60DAF80030DFF8B3
:103A5000409393F84820062A7FF457AF93F8490023
:103A600000F0C0FE8246002840F0BC85D9F8002056
:103A700092F849304C2B00F076845DD8332B00F05F
:103A8000AD8421D8292B00F03A8409D8252B00F0E9
:103A90001184272B00F01584232B40F0E485C4E02B
:103AA0002D2B00F03D8407D82B2B40F0DC8502F055
:103AB00084FB607100F093BD2F2B00F0FC84312B50
:103AC00000F00E8500F0CFBD3E2B00F0D9801DD850
:103AD000372B00F0B78404D8352B00F01D8200F09E
:103AE000C2BD392B00F0FA833C2B40F0BC85DFF8D7
:103AF0009092D9F800A002F060FB8AF80000D9F893
:103B00000030187803F00CF900F069BD432B00F089
:103B1000768407D8412B08BF4FF0000900F063847A
:103B200000F0A1BD442B00F01F85482B40F09B8581
:103B30000BF07CFD00F053BDD12B00F07E8320D82C
:103B4000CC2B00F013820FD8C82B64D004D84E2B96
:103B500000F0168400F087BDC92B00F04683CA2B05
:103B600000F0988000F07FBDCE2B00F03083C0F0D5
:103B70002583CF2B00F04A82D02B00F0078300F082
:103B800072BDD82B00F03B810DD8D32B3DD029D36B
:103B9000D42B00F08082D62B08BF4FF0000900F034
:103BA0006F8200F060BDF22B00F0C58212D8EF2BBF
:103BB00040F05985DFF8C891D9F800A002F008FB61
:103BC000AAF85A00D9F8009002F002FBA9F85800B0
:103BD00000F005BDF32B00F0CB84FA2B00F001833D
:103BE00000F041BD337803F0040303F0FF09002B1C
:103BF00040F0F58402F0E1FA022884F8B40740F2BC
:103C0000CB825A4B83F8B497C6E202F0E1FA584BE4
:103C1000188000F0E4BC92F805A04FEA5A0ABAF105
:103C2000120F1CD84FF000091DE002F0C6FA13284D
:103C300015D8DFF84CA100F11E0BDAF8003003EBC9
:103C40008B0B02F0BAFA4B4B0BF1010903F5A8728A
:103C5000197A814200F041810C339342F8D103F08C
:103C600097FC00F0BCBCD14507D202F0B1FA424B40
:103C700023F8190009F10109F5E701223F4BAEE2F3
:103C800002F09BFA84F8E00102F097FA84F8DF0171
:103C900000F0A5BC3A4B4FF000091A689A4612781A
:103CA000022A40F09180DAF8003009F1080B019304
:103CB00002F083FA10F0ECFB324910F0F5FC019BA6
:103CC00043F82B00DAF800B002F077FA09F10A03A2
:103CD0000BEB830B10F0DCFB2B4910F0E5FCDAF862
:103CE0000030CBF80400019302F067FA10F0D0FB2B
:103CF000264910F0D9FC09F10E0B019B09F10109CD
:103D0000B9F1030F43F82B00CDD1B9F1070FDAF861
:103D100000B03FD102F051FA10F0BAFB194910F08F
:103D2000C3FCCBF84400DAF800B002F046FA10F019
:103D3000AFFB144910F0B8FCCBF84800DAF800B03B
:103D400002F03BFA8BF84C0037E000BF0334002050
:103D50000234002069C2010839C20108EFBEADDE9D
:103D6000F04F00200400FA0500ED00E0980200206A
:103D7000740D0020C4AB01084E0200201102002087
:103D8000340C0020000020410000C84200007A44AA
:103D9000CC1E002002F011FA0BEB09035870DAF880
:103DA00000B002F00AFA0BEB0903D872DAF800B09F
:103DB00002F003FA0BEB0903587509F10109B9F197
:103DC0000A0FA2D100F00BBCDAF800B002F0F5F94E
:103DD0000BEB09035870DAF800B002F0EEF90BEBC8
:103DE0000903D872DAF800B002F0E7F90BEB090327
:103DF00009F10109B9F10A0F5875E5D1EFE38146E0
:103E0000DFF8ACA309F1080BDAF80030019302F0F7
:103E1000DFF910F03DFBE34910F046FC019B43F84D
:103E20002B00DAF800B002F0D3F909F10A030BEB2A
:103E3000830B10F02DFBDB4910F036FCDAF8003074
:103E4000CBF80400019302F0C3F910F021FBD5492F
:103E500010F02AFC09F10E0B019B09F10109B9F1DF
:103E6000030F43F82B00CBD1B9F1070FDAF800B0FC
:103E70001AD102F0ADF910F00BFBCA4910F014FC96
:103E8000CBF84400DAF800B002F0A2F910F000FB21
:103E9000C44910F009FCCBF84800DAF800B002F091
:103EA00097F98BF84C0012E002F092F90BEB090342
:103EB0005870DAF800B002F08BF90BEB0903D872F6
:103EC000DAF800B002F084F90BEB0903587509F138
:103ED0000109B9F10A0FC7D181E31B788BF80130D2
:103EE00002F06BF989F8010002F067F989F8020025
:103EF00002F063F989F80300DAF80000AA4BC5F86C
:103F0000900100217930C5F88C3102F0A3FAA74B5B
:103F100080F00100187062E302F04FF90B283FF6C1
:103F20009EAE4FF0060A0AFB00F0A14BC8301B689A
:103F300003EB000A02F041F903283FF690AE8AF83D
:103F4000060002F03AF98AF8010002F036F98AF820
:103F5000020002F032F98AF8030002F02EF98AF822
:103F6000040002F02AF98AF8050038E35379092B96
:103F70007FF675AEDFF840A2DAF800B002F01DF966
:103F80008BF80000DAF800B002F017F98BF80100A6
:103F900002F013F9DAF800306428A8BF6420187121
:103FA00002F00BF9DAF800306428A8BF64205871D9
:103FB00002F003F9DAF80030FF28A8BFFF2098715B
:103FC00002F0FBF8DAF800B0642828BF64208BF810
:103FD000070002F0F2F88BF80200DAF800B002F005
:103FE000ECF88BF80300DAF800B002F0F1F8D9F839
:103FF0000030ABF80A005B790A2B40F2F082DAF865
:10400000009002F0DAF889F80900E8E202F0E0F83E
:104010006FF4AF6E00EB0E039BB2C62B98BFA4F8F3
:10402000960102F0D5F8A4F8400102F0D1F8A4F806
:10403000420102F0CDF8A4F8440102F0C9F8A4F856
:10404000D80102F0BAF884F8ED0102F0B6F802F0F7
:10405000B4F884F8EE0102F0B0F884F8850102F0BB
:10406000ACF884F8920102F0A8F8514BD3F8009014
:1040700002F0AEF800EB80004000A9F856002DE1F8
:1040800002F0A6F84B4B23F8090009F10209B9F137
:10409000100FF5D1A3E253790F2B7FF4E0AD02F0BE
:1040A0008CF8072881463FF6DAADDFF804A1DAF88C
:1040B00000B002F08DF80E2303FB09F90BEB0903A6
:1040C000A3F81901DAF800B002F082F80BEB09034B
:1040D000A3F81B01DAF800B002F07AF80BEB090341
:1040E000A3F81D01DAF800B002F067F80BEB090342
:1040F00083F81F01DAF800B002F05FF80BEB090358
:1041000083F82001DAF800B002F057F80BEB09034E
:1041100083F82101DAF800B002F04FF80BEB090345
:1041200083F82201DAF800A002F05CF80AEB090338
:10413000C3F8230153E202F040F80F2881463FF60E
:104140008EAD02F03AF8C9EBC90904EB090383F814
:10415000D00003F1D00902F030F889F8010002F034
:104160002CF889F8020002F028F889F8030002F020
:1041700024F889F8040002F020F889F8050002F01C
:104180001CF889F8060002F021FD28E23378580770
:1041900000F125820FF06AF80AF0E4FB0CF04AFA0D
:1041A0001DE200BF00007A44D80300200500002073
:1041B000340C0020B20E0020940D002033785907F3
:1041C00000F10D824FF4C873A5F8AC3007E23378E4
:1041D0005A0700F10482DC4B1A7842F004021A708C
:1041E000FDE133785B07D7D53DE201F0E6FFD64B22
:1041F0001A7810B142F0020201E022F002021A70B5
:1042000001F0DBFFD14BDFF85893187001F0EAFFA3
:10421000C9F8000001F0E6FFC9F8040001F0D8FF7A
:10422000CB4B188001F0D4FFCA4B188095F894311D
:1042300043F0020385F89431D1E101F0BEFF019013
:1042400001F0D0FF834601F0CDFF824601F0CAFFA6
:10425000814601F0BDFF01F0BBFF01F0AEFF019B05
:104260009BB91020C5F898B1C5F89CA102F0EEF9F1
:10427000B54B1A7842F001021A70B9F1000F00F044
:10428000AE81B54BC3F80090A9E1102B40F0A78197
:10429000C5F8A0B1C5F8A4A1B9F1000F02D0AE4B8A
:1042A000C3F80090AD480223011D85F8A83106F03F
:1042B000C7FE94E1A06001F095FFA3681843A060D9
:1042C0008DE101F085FFA4F8580101F081FFA4F809
:1042D0005A0101F07DFFA4F85C0180E101F06DFF5F
:1042E00084F87A0101F069FF84F87E0101F065FF2E
:1042F00084F87D0101F061FF84F87F016FE101F036
:1043000067FFA4F8800101F063FFA4F8820101F0C7
:1043100054FF84F8840101F05BFFA4F886015EE19C
:1043200001F04BFF84F8900101F052FFA4F89A01CC
:1043300001F04EFFA4F8960101F04AFFA4F898019D
:1043400001F03BFFD9F8003084F891015B79082B2C
:1043500040F2458101F03CFFA4F89C0101F038FFD8
:10436000A4F89E013BE101F028FF84F8D60101F09A
:1043700024FF84F8D70101F02BFFA4F8D8012EE127
:1043800092F805B00323BBFBF3FBBBF1120F3FF622
:1043900066ACDFF8D0914FF0000ADA4580F01F815B
:1043A00001F00BFF89F8A00101F012FF40F2ED23AC
:1043B000984205DD40F6CA039842A8BF184601E0BE
:1043C00040F2EE20A0F2EE20192390FBF3F089F8E2
:1043D000A1010AF1010A09F10209DEE701F0EDFE8F
:1043E00084F89201FBE001F0E8FE04EB090309F117
:1043F0000109B9F1080F83F88801F4D1EFE001F069
:10440000DCFEC4F808A0607101F0ECFEA36818435C
:10441000A06001F0D2FE84F8900101F0D9FEA4F86A
:10442000580101F0D5FEA4F85A0101F0D1FEA4F81C
:104430005C0101F0CDFEA4F8800101F0C9FEA4F8F2
:104440008201CCE053794FF0070AB3FBFAF2C2EBDA
:10445000C2029A1A12F0FF0F7FF401ACB3FBFAFA12
:10446000BAF1000F00F0BB8001F0A7FE5FFA80FBFD
:104470004FFA8BF001F02EFF0AF1FF3A5FFA8AFA49
:10448000814600283FF4EBAB80F800B001F0A0FEBD
:10449000A9F8020001F091FE89F8040001F08DFEF8
:1044A00089F8050001F089FE89F8070001F085FE12
:1044B00089F80600D4E7DFF8AC9009F1400A01F072
:1044C00087FEA9F8AC0201F078FE89F8AE0201F08F
:1044D00074FE09F1040989F8AB02D145EFD17EE001
:1044E00001F06BFE1F283FF6BAABD8F800305B79BD
:1044F000082B7FF4B4AB00F18A0A01F069FE04EBEB
:104500008A0A00F03F00AAF8060001F061FEBAF83E
:104510000620800100F4FE531343AAF8063001F090
:104520004CFE00018AF8040001F047FE9AF80430BE
:1045300000F00F0018438AF8040001F03EFE8AF8EC
:10454000050009F015FD4AE092020020180C002039
:104550002A1E0020281E002044020020481D0020A2
:10456000301E002098020020012385F8A93136E092
:1045700001F023FEFF2881461CD100238DF81F3057
:104580009DF81F30052B2AD89DF81F20804B9DF8E1
:104590001F10012003EBC101496800FA01F153F833
:1045A000320089B2482201F03FFE9DF81F300133EE
:1045B000DBB2E3E705283FF652AB002002F0C2F879
:1045C00002F09CF8DBF8000002F055F818B9322030
:1045D00001F09BFFF6E74FFA89F008F039F9002067
:1045E00002F0B0F802F08AF8D8F80030002283F820
:1045F000482095F8A93173B1386802F03CF818B931
:10460000322001F082FFF7E705F03AFB01F087FF67
:10461000604A614BDA60614A4C3797427FF467A980
:104620005F4B1B68980616D55E4BD5F8AC211B680E
:104630009A1A002A0FDB5C4A1278042A0BD95B4ACB
:1046400003F5123303F5F873C2F8AC31584BDA684E
:1046500082F01002DA60574B9B68002B00F09480C8
:104660005548984790E002F093FFBBE70C2803D130
:10467000524802F083F85AE00A2801D00D2858D198
:104680004A4C4F4804F1BC0602F078F8304623212A
:1046900013F0F7F810B1801BC4F8B800D5F8B830A3
:1046A000002B38D0591E705C404A202801D10B469F
:1046B000F6E7C2F8B8301344002283F8BC20414B1F
:1046C000414CD3F800A0D4F80090DFF8E0804846D1
:1046D00013F0E4F808F1BC0706464946384632466E
:1046E00013F0E4F8394B38B908EB060292F8BC2015
:1046F00052445278520703D010349C42E3D306E070
:104700009C4204D2701CE3683844984702E0304869
:1047100002F034F800232F4800213022C5F8B830C9
:1047200013F07CF82C480378002B3FF479AF2B482A
:1047300009E07F2811D1013BC4F8B830002223449E
:10474000274883F8BC2002F019F8FFF75BB80C2863
:104750008ED07F2804D1FFF755B82F2B3FF652A8F3
:10476000A0F12002D2B25E2A3FF64CA813B920284D
:104770003FF448A85A1C2B44C5F8B82083F8BC0065
:1047800001F0F5FFFFF73EB809B0BDE8F08F00BFBC
:10479000B8C701080400FA0500ED00E02C1D002058
:1047A00038020020DC330020180C0020A81B002059
:1047B000000C01401C0C0020581D00203EC20108C6
:1047C000FED101085C000020E4A90108C4AB010887
:1047D00049C20108641C00200234002039C20108CB
:1047E00065C201082DE9F04F4D28ABB0044600F03A
:1047F000608600F2BD80302800F0E48651D822287F
:1048000000F0BD8423D8032800F0238214D80128A7
:1048100000F01382022840F04187042001F092FF4B
:10482000432001F05AFF4C2001F057FF462001F0D1
:1048300054FF4C2000F061BE042800F013820528CC
:1048400040F02C871A2001F07DFF00241DE228286B
:1048500000F0FD8515D8242800F0E485262840F0D6
:104860001D87D14C062001F06DFFB4F8580101F00E
:104870006CFFB4F85A0101F068FFB4F85C0100F075
:104880004DBE2C2800F0F6852E2800F064862A28DC
:1048900040F00487012001F055FFC34B587900F028
:1048A0002CBE3D2800F01B831ED8362800F0398628
:1048B0000BD8322800F01B86342840F0EF864820C1
:1048C00001F040FF002500F07ABC3A2800F0DC82BD
:1048D0003B2800F04D84382840F0E086042001F0A9
:1048E00031FFB14C00F0A4BD452800F0C48627D8A4
:1048F000402800F00586422840F0D086AA4C1020BF
:1049000001F020FF607901F0E8FEA06801F026FFC9
:1049100094F8900101F0E1FEB4F8580101F015FFA0
:10492000B4F85A0101F011FFB4F85C0101F00DFF79
:10493000B4F8800101F009FFB4F8820100F0EEBD87
:10494000472800F07586C0F062864B2840F0A686A6
:10495000954C042001F0F6FE94F8D60101F0BDFE5E
:1049600094F8D70101F0B9FEB4F8D80100F0D6BD33
:10497000702800F0198300F2F980692800F0648241
:1049800000F2CB80662800F0BE8100F2BB80642874
:1049900000F09481652840F081860B2001F0D2FE62
:1049A000824B834C188801F0D0FE208880B201F041
:1049B000CCFE804B1B68C3F3C000C3F380028000B1
:1049C00040EA4200C3F340021043C3F3401240EAFE
:1049D000C20003F01003184301F0B7FE764BA47831
:1049E0001A8812F0010F0CBF0020022012F0020FF3
:1049F0000CBF0021042112F0040F0CBF0023102370
:104A000003936E4B02F0080A1B6812F0400F03F08C
:104A1000C00B03F480794BEA0A0A0CBF002620265B
:104A200003F4805812F0100F4AEA090A019003F4C7
:104A3000005C0CBF00204FF400704AEA080A12F034
:104A4000200F029103F4804E0CBF00214FF48061CF
:104A50004AEA0C0A12F4807F049605900CBF0026E7
:104A60004FF4006603F4003003F400474AEA0E0AEC
:104A70000796089003F480364AEA070A06914AEA44
:104A8000060A03F48021089E09914AEA060A099E53
:104A900003F400254AEA060A03F480104AEA0505F1
:104AA000284303F000730343454812F4007F06785F
:104AB0000198C6F3800643EA0603029E43EA000318
:104AC000039843EA0603049E43EA0003059843EA79
:104AD0000603069E43EA0003079843EA060343EAF7
:104AE00000030CBF00214FF4001112F4806F43EA61
:104AF00001014FF000000CBF00234FF08063194309
:104B00000346EBE0672800F02681682840F0C68560
:104B1000102001F017FE00248DE16C2800F0A78121
:104B200016D86A2800F002846B2840F0B78505206B
:104B300001F008FE234B188801F007FE224B18886D
:104B400001F003FE214B187800F0010000F0D5BC05
:104B50006E2800F09E8100F2FD81062001F0F2FD3A
:104B60001B4B186801F0FAFD1A4B8BE1782800F016
:104B7000FF8033D8742800F03E830AD8722800F0F2
:104B80009583732840F08A85082001F0DBFD01241D
:104B9000C5E3762800F0E98300F26D832F2001F051
:104BA000D1FD0D4CDCE200BF980200209C0C0020DF
:104BB000601D002038020020400200203C0200203E
:104BC00003340020A21E0020A41E00203C1D002053
:104BD00048020020D80B00202FAE0108A42800F0C6
:104BE000EA8313D87B2800F06182A02840F0568524
:104BF0000C2001F0A7FDBF4B186801F0AFFDBE4BC4
:104C0000186801F0ABFDBD4B00F00ABCF12800F0C4
:104C1000EB80FE2800F0F683F02840F03F85B84C8A
:104C2000042001F08FFD2368B3F85A0001F08DFDD8
:104C30002368B3F8580000F071BC032001F082FD36
:104C4000002001F04AFD204601F047FD0D2000F054
:104C500054BC01F077FD012001F03FFD0A2001F076
:104C60003CFDA6E3062001F06DFD412001F035FD7D
:104C7000462001F032FD4E2001F02FFD412001F0D1
:104C80002CFDA04B187800F049BC9F4B185D0134F7
:104C900001F023FD0B2CF8D100249C4B185D01344E
:104CA00001F01BFD082CF8D10024994B185D01344C
:104CB00001F013FD072CF8D100F0EEBC072001F045
:104CC00041FDE72001F009FD924B587901F005FD07
:104CD000002001F002FD042000F0DCBCA3420CD255
:104CE0008D4A9D5C012202FA05F50D4218BF9A40DB
:104CF00003F1010318BF1043F0E701F02FFD854BCE
:104D000093F8B407F9E3122001F01CFD834B002453
:104D10001B88B3F5806F94BF01250825804BE05EAA
:104D2000023490FBF5F080B201F00FFD062CF5D1B6
:104D30007C4C208801F009FD608801F006FDA08808
:104D4000794C01F002FD208801F0FFFC608801F041
:104D5000FCFCA088E2E3102001F0F4FC0024734B7B
:104D6000185D013401F0B9FC102CF8D100F094BCAE
:104D7000702001F0E7FC00260E247443604D0136DC
:104D80002B682344B3F8190101F0DFFC2B6823449E
:104D9000B3F81B0101F0D9FC2B682344B3F81D01C3
:104DA00001F0D3FC2B68234493F81F0101F095FC1C
:104DB0002B68234493F8200101F08FFC2B682344D7
:104DC00093F8210101F089FC2B68234493F8220118
:104DD00001F083FC2B681C44D4F8230101F0BEFCD5
:104DE000082EC9D100F058BC702001F0ABFC494C32
:104DF00004F1700594F8D00001F06FFC94F8D10034
:104E000001F06BFC94F8D20001F067FC94F8D30039
:104E100001F063FC94F8D40001F05FFC94F8D50035
:104E200001F05BFC073494F8CF0001F056FCAC4273
:104E3000E0D100F031BC3E4B185D013401F04DFC77
:104E4000102CF8D100F028BC3A4D0024A87F400077
:104E500000F0FE0001F076FCAB7F9C4280F01C84E9
:104E6000354B33F8140001F070FC0134F4E7334C97
:104E7000062001F067FC208801F067FC608801F0E3
:104E800064FC2F4B188849E3042001F05BFC2D4B98
:104E9000C6E2072001F056FC2B4B1888FF28A8BF5C
:104EA000FF20C0B201F019FC284B186880F31000F5
:104EB00080B201F04AFC1F4B188C01F046FC154BE8
:104EC00093F88521224B2AB11B680A20584380F3AE
:104ED000100002E0186800F30F0080B21EE30D4CD2
:104EE000022001F02FFC94F8E00101F0F6FB94F8A9
:104EF000DF0102E3E8F7FF1FECF7FF1FF0F7FF1FEA
:104F0000340C00200434002010B501081CB5010841
:104F1000F1B4010898020020631D00200600002063
:104F20000E1E0020380C00208C020020CA0E00202B
:104F3000680E0020601D00204E020020B40B0020EF
:104F4000720D0020B80B0020181E0020241E002027
:104F5000201E0020B74C0B2001F0F4FB2368002535
:104F6000187801F0BAFB23682646587801F0B5FBA3
:104F70003368B04C2B441879013501F0AEFB032D9A
:104F8000F6D12368D87901F0A8FB2368987801F05E
:104F9000A4FB2368D87801F0A0FB2368588901F0AE
:104FA000D4FB2368587AA8E2A34D1E2001F0CAFB67
:104FB0002B6800241B78022B65D12B6804F10802B2
:104FC00053F822009D490FF0BBFA12F037FE80F330
:104FD0000800C0B201F081FB2B68994903EB840300
:104FE000D86A0FF0ADFA12F029FE80F30800C0B2C3
:104FF00001F073FB2B6804F10E0253F82200914973
:105000000FF09EFA12F01AFE80F30800C0B20134CD
:1050100001F063FB032CD0D1072C2B6821D1586CF5
:1050200086490FF08DFA12F009FE80F30800C0B235
:1050300001F053FB2B688149986C0FF081FA12F054
:10504000FDFD80F30800C0B201F047FB2B6893F828
:105050004C000FF01DFA12F0F1FD80F30800C0B211
:105060000BE02344587801F038FB2B682344D87AAE
:1050700001F033FB2B682344587D013401F02DFBF4
:105080000A2CC9D108E32B682344587801F025FB8A
:105090002B682344D87A01F020FB2B682344587DE9
:1050A000013401F01AFB0A2CEDD1F5E23C2001F0AD
:1050B00049FB0024604D04F108022B68614953F854
:1050C00022000FF03DFA12F0B9FD80B201F03DFB75
:1050D0002B685C4903EB8403D86A0FF031FA12F0B5
:1050E000ADFD80B201F031FB2B6804F10E0253F8E4
:1050F000220054490FF024FA12F0A0FD013480B2CE
:1051000001F023FB032CD5D1072C2B6816D1586C4A
:105110004C490FF015FA12F091FD80B201F015FB29
:105120002B684849986C0FF00BFA12F087FD80B29B
:1051300001F00BFB2B6893F84C000BE023445878EC
:1051400001F003FB2B682344D87A01F0FEFA2B68A8
:105150002344587D013401F0F8FA0A2CD4D19BE2A3
:1051600014F8010F002800F0978201F0B6FAF7E773
:10517000012001F0E7FA304B1B681878BDE15020A0
:1051800001F0E0FA00242C4B04F11E021B680C21F4
:1051900003EB82035D1C2C4A5B78013401FB032383
:1051A000187A01F09AFA687801F097FAA87801F075
:1051B00094FAE87801F091FA142CE4D16CE2062616
:1051C0006E431D4BC8361B6801351E44B07901F093
:1051D00084FA707801F081FAB07801F07EFAF07804
:1051E00001F07BFA307901F078FA707901F075FA04
:1051F0000C2DE4D150E2002701240025134B9A78AE
:10520000954230DA0333E95C00230F4A03EB0208CE
:105210009A5C8A4204D00C33B3F5A87FF5D120E024
:10522000D8F8040012F03AFB81460CB926460FE08C
:10523000074416E0940D0020340C002000002041AB
:105240000000C84200007A44C4AB0108601D002081
:105250004E4506DAD8F80430985D01F03EFA013682
:10526000F6E70135CAE7002C00F01682F8B201F02B
:1052700069FA0024C1E7C34D0024A87801F062FA5E
:10528000AB789C4280F00882BF4BE05C0023BF4AB1
:1052900099189A5C824204D00C33B3F5A87FF6D1FA
:1052A00002E0087A01F019FA0134E9E7B84C162057
:1052B00001F048FAB4F8960101F047FAB4F8400159
:1052C00001F043FAB4F8420101F03FFAB4F84401A6
:1052D00001F03BFAB4F8D80101F037FA94F8ED0187
:1052E00001F0FBF9002001F0F8F994F8EE0101F06B
:1052F000F4F994F8850101F0F0F994F8920101F0C5
:10530000ECF9002001F0E9F9A24B1B68B3F9560053
:105310000A2390FBF3F080B201F017FA88E0E0B2C4
:10532000013401F0DAF9092CF9D1B5E1102001F0CE
:1053300009FA994B994C187800F0020001F0CDF968
:10534000974B187801F0C9F9206801F007FA6068F6
:1053500001F004FA934B188801F0F7F9924B188882
:1053600001F0F3F9874B588CD8E000F026FF064691
:10537000122001F0E7F90EB98C4B02E0102E03D198
:105380008B4B1D685C6801E000242546304601F027
:10539000A4F9284601F0E2F9204601F0DFF9854B37
:1053A000186801F0DBF9002001F0CFF9002001F0CE
:1053B000CCF90020A1E0734D002495F824002E467E
:1053C00080000130C0B201F0BDF995F8240001F071
:1053D00084F996F824309C4280F05E81764D285DF9
:1053E00001F07BF905F11003185D01F076F905F184
:1053F0002003185D303501F070F9285D01F06DF97A
:105400000134E6E7082001F09DF9002001F09DF944
:10541000002001F09AF9002001F097F900207DE0CA
:10542000186837E1042001F08DF9594B986831E193
:1054300094F87A0101F051F994F87E0101F04DF9E8
:1054400094F87D0101F049F994F87F0155E0504C42
:10545000072001F077F9B4F8800101F076F9B4F88B
:10546000820101F072F994F8840101F036F9B4F880
:10547000860153E0464C0C2001F064F994F8900149
:1054800001F02BF9B4F89A0101F05FF9B4F8960134
:1054900001F05BF9B4F8980101F057F994F8910123
:1054A00001F01BF9B4F89C0101F04FF9B4F89E012A
:1054B00034E0344E414CB07F002500EB4000C0B2D8
:1054C00001F040F9B37F02349D4280F0E58014F88A
:1054D000020C01F002F914F8010C013500EB800018
:1054E00000EB800000F2EE2001F02FF9EAE7012046
:1054F00001F028F9264B93F8920101F0EEF8CBE089
:10550000082001F01FF90024214B234493F888015F
:10551000013401F0E2F8082CF6D1BDE001F015F9F4
:10552000BAE0184B1A4C93F8650004F12805C0EB5B
:10553000C000C0B201F006F994F8F4010023204A3B
:10554000D25C904200F0AC800C333C2BF7D1083495
:10555000AC42F1D1A0E0402001F0F4F80C4C04F191
:105560004005B4F8AC0201F0F0F894F8AE0201F096
:10557000B4F8043494F8AB0201F0AFF8AC42F0D1C7
:105580008AE000BF601D0020631D0020C4AB01083D
:1055900098020020340C002092020020301E0020CF
:1055A000180C00202A1E0020281E0020401D00206C
:1055B000481D002044020020851D002038040020E2
:1055C000C81D0020E02001F0BDF8424C04F1800528
:1055D000B4F82E02043400F03F0001F0B6F8B4F83D
:1055E0002A02C0F3861001F0B0F894F828020009EE
:1055F00001F073F894F8280200F00F0001F06DF844
:1056000094F8290201F069F8AC42E1D144E0324C4F
:105610000D2001F097F804F068FA01F05EF8208898
:1056200001F09CF8E06801F099F808F077FD31E0AE
:1056300000F0D8FD0446842001F084F8204601F0F3
:105640008DF8254BDD6804F18003AB428CBFC4EBC1
:105650000505802506F0DEF920462A460AA904F051
:1056600079FA00240546AC4216DA0AA9085D01F071
:1056700034F80134F7E7132001F064F80024174BE5
:10568000185D013401F029F80B2CF8D1002001F04D
:1056900065F8002001F062F8012018E0002016E013
:1056A00001F01BF8B4F8F60101F04FF894F8F80196
:1056B00001F013F894F8F90101F00FF894F8FB01E8
:1056C00001F00BF894F8FA0101F007F83FE72BB06E
:1056D000BDE8F08F980200201800002010B50108E6
:1056E0002DE9FF47B84C80462378B84F002B00F0D7
:1056F000E7813B6862689A1A7C2A40F2E181636024
:10570000237A00250133237205F12400AE4EC0B286
:1057100001F09EF806F10A0333F915000EF0BCFE05
:10572000AB4B814618880EF0B7FE014648460EF096
:10573000BBFFA8490EF004FF0FF0C8F8013500B216
:1057400001F0B2F8032DDFD1302001F081F8A24B37
:10575000B3F9000001F0A8F801F088F8337A99074E
:105760002ED1726841F288339A4219D99B4E10208B
:1057700001F06EF83068642590FBF5F000B201F09E
:1057800093F8212001F064F8336893FBF5F005FBF2
:10579000103585EAE570A0EBE57000B201F084F801
:1057A000142001F055F88E4BB3F9000001F07CF89D
:1057B0001C2001F04DF8002001F076F801F056F8B9
:1057C000237A5A0740F05981022001F041F8854BB5
:1057D0004FF0050918686423323090FBF3F000B2F3
:1057E00001F062F8804B0320B3F9065001F030F865
:1057F0007E4B95FBF9F51B78ADB213F0040F7C4E90
:105800000BD07C48414604F001FA20B9336813F00C
:10581000100F18BF002528B205E06B4B1B699B8950
:10582000B3FBF9F000B201F03FF833689B076BD58A
:10583000DFF8DC81A38A98F80020642505FB0323A8
:10584000B4F8169052004FEA0919B3FBF2F31FFAAD
:1058500089F949EA03291FFA89F9C3F3032349EABD
:105860000309062000F0F4FF0FFA89F001F01CF89C
:10587000E28A98F80030013292B292FBF3F103FB16
:105880001123E382A369504E9B7B012B05D1392064
:1058900000F0DEFFB6F914001AE0B38A6E265E430C
:1058A000152396FBF3F6B6B23A2000F0D1FFB6FB13
:1058B000F5F80FFA88F000F0F7FF3B2000F0C8FF82
:1058C00005FB186080B205300A2390FBF3F000B2AC
:1058D00000F0EAFF282000F0BBFFE3690A2293FBF7
:1058E000F2F000B200F0E0FF042000F0B1FF236905
:1058F0009B8913B107F09CF903E0334B186A80F3DE
:10590000100000B200F0D0FF3B4B1B689E0640F138
:10591000A9803A4E33789D071BD5112000F098FFDF
:10592000A08C4FF4F3656843354B90FBF3F000B265
:1059300000F0BAFF192000F08BFFA38C5D436423B5
:1059400095FBF3F595FBF3F203FB125000B200F068
:10595000ABFF3378E58C13F0020F08BF0025012060
:1059600000F076FF28B200F09FFF092000F070FFE2
:10597000002000F099FF234B1D78234B1B88B3F5C3
:10598000967F09D9227A02F00F02072A04D842F240
:105990000F75AB42B8BF1D46052000F059FFA36943
:1059A0005B7B0BB928B23DE0A5F120000EF074FD41
:1059B00016490EF079FE002105460EF05FFF48B350
:1059C0004FF03F4128E000BF041E0020C8330020F4
:1059D0000600002000007A44D80B0020B00B002005
:1059E000720D0020B40A00206A0D0020033400204C
:1059F000D400002020040020380200209202002061
:105A0000A0860100180C0020560000206666E63FC4
:105A1000540000204FF07C5128460EF089FC0EF017
:105A200055FF00B200F040FF3378980703D494F894
:105A30002830012B04D1012384F82830BC4818E019
:105A4000BC4BBD499D6968680EF07AFD0EF03EFFC3
:105A5000B9490290A8680EF073FD0EF037FF03906D
:105A600002A806E0B54A02AB92E8030083E803000F
:105A7000184600F024FF00F0F9FE237A282B1FD1EE
:105A8000AC4B00223D681A724FF47A73B5FBF3F801
:105A900017203C2500F0DCFEB8FBF5F6B6FBF5F070
:105AA00005FB1060000200B200F0FEFE182000F0BE
:105AB000CFFE05FB168000B200F0F6FE00F0D6FE29
:105AC00094F834309B4D002B00F05B8100F0D3FC48
:105AD000AB6B9B4AC31A9342064640F2BC8000233C
