:020000040800F2
:100000000050002015300108C1300108E91901082D
:10001000C1300108C1300108C130010800000000F2
:10002000000000000000000000000000C1300108D6
:10003000C130010800000000C1300108B9190108F1
:10004000C1300108C1300108C1300108C1300108C8
:10005000C1300108C1300108CDC60008C9C600087A
:10006000C1300108C1300108C1300108C1300108A8
:10007000C1300108C130010889C60008C13001083B
:10008000D1C60008C1300108C1300108C1300108E3
:10009000C1300108C1300108C1300108C5C60008DF
:1000A000C130010845C60008C130010855C6000826
:1000B00035C6000825C6000815C600080DC700088B
:1000C00005C7000809C7000801C70008C1300108BA
:1000D000C13001087DC6000871C6000865C6000869
:1000E000C9190108C1300108C13001080000000031
:1000F0000000000000000000000000000000000000
:0C01000000000000000000005FF808F1A3
:100110002DE9F04F754B764EA3B03360002373602A
:1001200008F01CFC18B90EF07DFB08F03BFC11F048
:1001300005FA704B704C1A78704D42F001021A703B
:1001400000230A930B930C934FF4E0130D93236851
:10015000297B43F480332360A36943F01003A36138
:10016000236803F400330B930A9B01330A930B9B20
:100170001BB90A9BB3F5A06FF2D122685E4B12F453
:10018000003201D0022315E0186840F00100186029
:100190000A92236803F002030B930A9B01330A932C
:1001A0000B9B1BB90A9BB3F5A06FF2D123689F0785
:1001B00039D501230C93524B52481A6842F0100271
:1001C0001A601A6822F003021A601A6842F00202EA
:1001D0001A606368636063686360636843F48063A4
:1001E0006360494B1A68043B22F070425A60474AE8
:1001F0001060606820F47C106060586840F0004037
:100200005860D86820F40040D8609B68180449BF43
:100210003F4B4FF4E01313604FF480130D930C9B8E
:10022000012B01D117E0FEE7022B18D169B10D9B1C
:10023000B3F5801F02D14FF4A01305E00D9BB3F579
:10024000E01F02D14FF400130D9361680D9B0B4327
:1002500043F4803302E0636843F46013636023680F
:1002600043F0807323602168234B8901FBD55968D3
:1002700021F003015960596841F002015960636837
:100280001D4903F00C03082BF9D14868214B00F0FD
:100290000C00042803D0082804D01A4900E0116893
:1002A000196011E048684F68C0F38340FF0300F114
:1002B000020001D4184905E0496811F4003F1168B3
:1002C00018BF49084843186061681448C1F3031116
:1002D000014491F81890196821FA09F9C3F80090BF
:1002E0001368084A93421BD101221DE08190000847
:1002F000C80000202031002000100240F407002038
:100300000020024000127A0004100140000000208A
:10031000001BB7004800002000093D006C78010870
:10032000644A934202D10222634B1A70DFF8B8B1DB
:10033000624B22AFCBF80C30A369DFF8A88143F001
:100340000103A361636ADFF898A1B360636A4FF0A9
:10035000000043F080736362A36943F01C03A36150
:100360004FF6FF7327F82C3D39468DF85E00404666
:1003700006970FF0CCFA504606990FF0C8FA50488D
:1003800006990FF0C4FA02234FF0100C22A98DF841
:1003900043304FF4007321F8483D8DF842C0404689
:1003A000C8F81030CDF808C00FF0B1FA454B0698E8
:1003B0005A6842F000725A6006F0C6FB424A179B28
:1003C0000021B3FBF2F341481822F36014F036FF2A
:1003D0004FF47A723E4BB9FBF2F909F1FF325A60E1
:1003E000F0228BF823200020072298601A60AB6867
:1003F000DFF8F890DDF808C0C9F80030354BDFF8B9
:10040000F0B00FCB87E80F00A369179843F00803FB
:10041000A361A36918A943F00803A3610823CAF8DC
:100420001030CAF810C00FF072FA19981AA90FF01C
:100430006EFAD9F800301F0760D59BF89031012B78
:100440005CD8254B9BF891219B6813F0805800F0F5
:100450008C860027002F51D0204B214F18684FF079
:10046000100AC7F814A0069917901E480FF04FFA0B
:100470001C4908230B613C2008F017FDC7F810A0A9
:100480004FF0000A95F891319A4533DA154ADFF8B2
:1004900050B00827CBF810707820576108F0FAFCAC
:1004A000104BCBF8147078201F6108F0F3FC0AF1B0
:1004B000010AE7E7001BB700483100200005FA05F4
:1004C000001001400000014040420F0008310020B0
:1004D00010E000E094780108C8000020A47801082A
:1004E000000C01400008014000ED00E02C06002057
:1004F000F4070020B8F1000F00F03E86642008F0F9
:10050000D4FCA0229648002114F098FEE369002252
:1005100043F00703E361A36943F4006343F00C0372
:10052000A361904B002403F11001545401320E2AB0
:10053000F7D1FF229A77DA7783F8202083F82120F9
:10054000894B8A4AD9F800701A60214688483C22B3
:1005500014F074FE07F04008052321460C20854A5C
:1005600048438C5C824A8454B8F1000F06D11E3C8B
:10057000012C03D8FF24013B8454DBB2013105294F
:10058000ECD17D497D4A7162C0311370B1626A79E4
:100590007B497C4B01EBC20149781A70B806714B5C
:1005A00048BF0121D9620023774940F2DC505852FC
:1005B0000233102BF8D1012A40F0AE80734B0A3180
:1005C0001F68734BB7F90C001A68724B46321A60F9
:1005D000714BDFF8FC81196011F0F6FE6F4911F0E4
:1005E000FBFF7B89DFF8EC91A8F80030FB8901461E
:1005F000A9F800306A4B30631F60044611F038FFE1
:100600004FF07E5111F02CFE15F0CEFB4FF07E51D5
:1006100011F026FE214611F0DFFF15F01FF86149A9
:1006200011F026FF12F0EAF85F4BB9F8007018805D
:1006300038B211F0C9FE5D4911F01AFF12F0DEF870
:100640005B4BB8F800C018805A4B4FF4C8781F8035
:10065000CCF561739BB207930CF5617C0027564B78
:100660001FFA8CFCB9460FFA88FB58460393CDF865
:1006700008C011F0A9FE494911F0AEFF4F4911F031
:10068000F7FE824615F000F901465046059115F037
:1006900073F902465046049208F01AF90599824609
:1006A00004F1004011F0E4FE049A114611F0D6FD69
:1006B000434911F0DDFE514611F0DAFE12F09EF8CA
:1006C0000799039B0AB280B2934523F8020FDDF825
:1006D00008C010DB0FFA8CF293450CDC00B20FFA65
:1006E00089F93FB24845B8BF8146B842A8BF07461E
:1006F0001FFA89F9BFB208F10A081FFA88F8B8F59D
:10070000AF6FB0D10FFA89F9C9F100093FB22D4B93
:10071000B945B8BF4F461F8010A800211C2214F015
:100720008DFD294B294F1C6814F4007904F40068EE
:1007300052D0A3040DD4B8F1000F08D095F884214D
:1007400007F10C03012A18BF3B46079304E0079703
:1007500002E007F10C02079217AB16933EE000BFD0
:1007600044250020C8000020881C0020E809002043
:10077000F41C0020A899010804080020F21C0020A5
:10078000909A0108E211002014130020D8110020D3
:1007900024130020E4110020E81100200000204173
:1007A000A81400200000A041EE1100209999993E64
:1007B000EC110020F0110020BA13002035FA8E3C15
:1007C00000007A44BA1300202C0600206C7801083F
:1007D000F2110020AC140020CDF81C906B790E2B88
:1007E00003D003F0EF03082B02D101238DF8523020
:1007F000012008F03FFA18B14088003018BF0120EE
:10080000C4F340038DF84630C4F380138DF84930AB
:10081000C4F3403300F001008DF84030C4F3C0331E
:100820008DF845008DF84330B8F1000F07D095F8EA
:100830008481B8F1010EDEF1000858EB0E08C4F314
:1008400000438DF84A30F36A19F1000918BF4FF0E0
:100850000109003318BF01238DF84C30C4F3005355
:100860008DF84D30B5F84631B5F844E1ADF850306B
:10087000B5F8523104F00101ADF84E30C4F38043B5
:100880008DF8473095F85431C4F3C002181C18BFD6
:1008900001208DF84800B5F85001E4048DF844803B
:1008A0008DF841108DF842208DF84B90ADF8540032
:1008B000ADF856E004D5B64CB4F84C41ADF856400E
:1008C000B0F5FA7F02D90BB9ADF8563095F8D431AE
:1008D000B04886F83430002386F8353043709DF8F0
:1008E0005230002B14BF0223002301B902B101339F
:1008F00007EB8303DB6B4FF0000B0993CDF820B0BF
:10090000099B33F80B204FF6FF739A4200F0958154
:10091000D3B2A14E9DF845101D01741919B1991E4D
:10092000012940F284819DF8491021B171599B48F9
:10093000814200F07C819DF84AE0BEF1000F04D0B6
:1009400071599648814200F072819DF8461039B184
:1009500061689348814203D12189102900F06781A1
:100960009DF8431039B161688D48814203D12189D6
:10097000022900F05C819DF8441039B16168894812
:10098000814203D12189022900F05181DDF858C04C
:10099000BCF1000F0FD06068DCF8001088420AD16B
:1009A0002189BCF80400884200F04181BCF80600AF
:1009B000884200F03C814FEA1228B8F1020F02D1C0
:1009C0009DF8402004E0B8F1010F04D19DF84120CA
:1009D000002A00F02C819DF84C2062B19DF8522035
:1009E0004AB9A3F10802012A05D871596E4A914209
:1009F00008BF4FF004089DF84D2062B19DF85220C9
:100A00004AB9BEF1000F02D00C3B012B01E0043BC0
:100A1000032B40F2F480B8F1010F42D1634BFF2267
:100A200083F87C2083F87D202189627B4FF00009C8
:100A300083F88090C3F88C406068ADF85C108DF846
:100A40005E2017A9022283F83890C3F83C90C3F8BF
:100A50004090C3F84490C3F8789083F87E9083F870
:100A60007F908DF85F2003930EF051FF7059A17AAB
:100A70004A4606F0DFF920464946424607F008FD9F
:100A8000039B4B4AC3F89890C3F89020494A2046EC
:100A9000C3F8942003F1900103F194020AF01CFFC3
:100AA000C5E0B8F1020F42D10899434ACBB21C21EC
:100AB0004B43089802EB03094FF0000A4FF0010C7A
:100AC00089F8010089F802A089F80AA002F803C099
:100AD000637B22896068C9F80C4017A98DF85E30E5
:100AE000CDF808C0ADF85C208DF85F800EF00FFFE8
:100AF0007059A17A524606F09DF9DDF808C02046EB
:100B00006246514607F0C4FC2C4B09F11001C9F8AC
:100B100010302B4BC9F818A0C9F81430204609F141
:100B200014020AF0D9FE0899013108917FE0B8F16A
:100B3000030F61D19DF847301C4D8BB19DF84830B3
:100B400095F836603BB1BDF854301E4A2046B2FBE2
:100B5000F3F208213FE0204608214FF6FF723DE006
:100B6000BDF8543095F83660B3F5FA7F2ED9154AA2
:100B70002046B2FBF3F20821BDF8563092B207F0DE
:100B800059FD05EB8606C6F860010F4B2DE000BF4E
:100B9000F4070020FD000020B09901080004004087
:100BA00000080140000C0140002C0140C80000205A
:100BB000F9EF0008FDF0000848010020716E000800
:100BC000D5F0000800127A001DF10008B24A204654
:100BD000B2FBF3F20121BDF8563092B207F02AFDC4
:100BE00005EB8606AD4BC6F86001C36095F836305C
:100BF000013385F836301AE0B8F1040F17D1BDF88B
:100C00004E30A54AA64D92FBF3F22046BDF8503077
:100C1000012192B295F8356007F00CFD95F835305A
:100C200005EB86060133C6F8900185F835300BF1E7
:100C3000020BBBF11C0F7FF463AE994C994B94F8F7
:100C40003520002684F8B021974A1E701578994601
:100C5000A5F11702022A1AD8636A0021985903EBFA
:100C6000060811F099FD10B1E36A7BBB27E08F4BBA
:100C700006EB030E98E80F008EE80F0099F800309D
:100C800010360133C02E89F80030E5D1ECE7884BEF
:100C900013F835C003EBC503D3F8048089F800C00E
:100CA000B8F1000FE0D06645DEDA804A330103EB8D
:100CB000020E43440FCB01368EE80F00F3E77D4B65
:100CC0001A68984612F4805F23D11CE007EBC50731
:100CD00097F84C00784B3E6D1870002EEFD0002333
:100CE0008342ECDAC3EBC3017218D2F800C0DFF81C
:100CF00000E2013341F80EC001EB0E079188B98084
:100D00009279BA71ECE705F0EF03082B6B4B25D114
:100D100026E099F80090B9F1010FF4D9684E002748
:100D20004F4506F11006EEDA56F8100C4FF07C51E4
:100D300011F09EFB4FF07C5146F8100C56F8140C45
:100D400011F096FB4FF07C5146F8140C56F80C0C41
:100D500011F08EFB013746F80C0CE1E70E2D08D19F
:100D60001A78182D42F010021A7008D108F0D4FA3F
:100D700005E01A78192D22F010021A70F5E709F033
:100D8000CFF8D8F800305D0302D44E4B01221A7020
:100D90004D4B4E4D1A784E4F42F004021A702B788C
:100DA0004FF48052012B8CBF102314238DF85E303A
:100DB0004FF002038DF85F30BB69ADF85C2043F063
:100DC0000403BB618CBF01260026424817A90EF020
:100DD0009EFD414B0EB1414A00E0414A00201A609D
:100DE00008F096F8069A3F4B3F4E93E80300BB6924
:100DF00082E8030043F0080318A9BB6117980EF0BE
:100E000086FD0FF06FFC9F238DF83C3032200023CD
:100E10004FF480598DF83D308DF83E308DF83F30DD
:100E200008F043F80422C6F8149006980FA909F0B8
:100E300009FAC6F810909DF85E209DF85D30120208
:100E400042EA03429DF85F301A43284B9A4214D07D
:100E5000322008F02AF8C6F81490F52009F0F2F8CC
:100E6000FF2009F0EFF87028C6F8109005D12B7814
:100E7000022B02D1154B03221A702B78032B0CBFC7
:100E80001F20022007F0ADFE2B78032B32D001206B
:100E900006F0E4F938E000BF40420F000DF1000811
:100EA000C800002088110020E2110020F411002069
:100EB000909A01082C06002028130020EE0700203D
:100EC000FC110020F81800202031002048310020BB
:100ED000001002400008014024310020598B000816
:100EE0006D8B000888790108000C01401520200056
:100EF00029130020022007F0BDFE18B14088003001
:100F000018BF0120C007C2D5D8F8006095F800A02E
:100F1000AA4D4FF0100B06F40063284600215A46F4
:100F2000069314F08BF94FF6FF73ADF83C300223B3
:100F300006F400494FF000081E408DF83E308DF851
:100F40003F800DD022A921F84CBD9D4806F01EF827
:100F50000126042207232A7085F80180AE70EB7009
:100F6000B9F1000F0ED0022322A921F84C3D94487C
:100F700006F00CF80123F2182B71AB7107236E7188
:100F8000EB71D6B2BAF1010F0FD9202322A921F8B3
:100F90004C3D8B4805F0FAFF052301222B72AA7203
:100FA000731C07226E72EA72DEB2069B7BB10223CB
:100FB00022A921F84C3D834805F0E8FF09230122CE
:100FC0002B73AA73731C07226E73EA73DEB27B68FD
:100FD0007D4843F440437B607B69DFF8EC8143F05C
:100FE00001037B61BB6943F40073BB6105F035FD10
:100FF00017A805F007FD754B00271793744B022EB9
:10100000189334BF3B4680231C934FF480731D9389
:101010004FF480631E93202317A91F9340464FF47B
:1010200000531A96209319971B97219705F0F7FC08
:10103000D8F80030012E43F00103C8F80030654BAA
:1010400098BF00215A6888BF012122F4702222F43F
:10105000807242EA01225A6099685F4A013E0A4062
:1010600042F4602242F002029A60DA6AF6B222F496
:10107000700242EA0656DE623846012329188A7851
:10108000002A5AD02A5C5E1C092A91F803E0F6B2C5
:10109000504911D9A2F10A0707EB47074FF0070C97
:1010A0000CFA07FC0EFA07FED1F80C8028EA0C0CAB
:1010B0004CEA0E07CF600EE002EB42074FF0070C40
:1010C0000CFA07FC0EFA07FED1F8108028EA0C0C87
:1010D0004CEA0E070F61062B3E490ED8013B03EB8D
:1010E00083034FF01F0E0EFA03FE9A404F6B27EA60
:1010F0000E0747EA02034B6320E00C2B0ED8073B98
:1011000003EB83034FF01F0E0EFA03FE9A400F6BA2
:1011100027EA0E0747EA02030B630FE00D3B03EBE0
:1011200083034FF01F0E0EFA03FE9A40CF6A27EAA0
:101130000E0747EA0203CB6200E01E460430102887
:1011400001D033469AE7234B9A6842F480729A6042
:101150009A6842F001029A609A6842F008029A6026
:1011600099681C4A09070ED5FAE7571E092F8CBF4C
:1011700000270127FFF76EB9184B83F8918104F01F
:10118000DBFAFFF7BBB9936843F004039360114A9D
:10119000936813F00403FAD1916841F4A0019160BF
:1011A0000E4AB2F85801E0B9B2F95A31C3B9B2F9EE
:1011B0005C31D3F1010338BF002312E0741B00201F
:1011C00000080140000C0140080002404C2401408E
:1011D000841B002000240140FDF7F1FFF4070020EC
:1011E000034613F0010340F09380B34A00B2137139
:1011F00011F0EAF8B14911F03BF9B14F0646B7F9E1
:101200005A0111F0E1F8AD4911F032F90546B7F98C
:101210005C0111F0D9F8A94911F02AF9A9498146D0
:10122000304611F01DF808F0F6FA0746304608F08F
:10123000F2FAA4498046284611F012F808F0EBFAB9
:101240000646284608F0E7FA9E490546484611F04A
:1012500007F808F0E0FA8246484608F0DCFA39461A
:101260008146504611F004F939468346484611F04C
:10127000FFF851460690404611F0FAF849460890AA
:10128000404611F0F5F831460990504611F0F0F85B
:101290004946C4F8B40106F1004011F0E9F82946C6
:1012A000C4F8B801C4F8BC51089811F0E1F801463F
:1012B000069810F0D5FF2946C4F8C001099811F02E
:1012C000D7F80146584610F0C9FF3146C4F8C401AA
:1012D00008F1004011F0CCF82946C4F8C80158467E
:1012E00011F0C6F80146099810F0B8FF2946C4F875
:1012F000CC01069811F0BCF80146089810F0B0FF38
:101300003946C4F8D001304611F0B2F8C4F8D4011F
:101310006D4E33689A031FD5C82007F0C6FDAE2076
:1013200006F0E2F808B10FF040FD684D84F8D801EE
:10133000C82007F0BAFD664B00210C222846C4F8ED
:10134000DC3113F07BFF0223EB700EF0FFFB07F0A4
:1013500062FD604B0344AB605F4F594D3B6895F8AD
:101360005F0195F8691195F86A21B3F95E300BF0C9
:10137000CDFDB84610B901200FF00AFA574B0A27E5
:101380001A7842F002021A70554B10225A61082254
:101390001A61DFF84C911920D9F80C30013F83F025
:1013A0001003C9F80C30D9F80C3083F00803C9F8E1
:1013B0000C3007F07AFD012007F0AAFD192007F094
:1013C00074FD002007F0A4FD17F0FF07E1D108230A
:1013D0004FF0100A434FC9F81030C9F810A03B680D
:1013E0001B0709D5404BC9F814A01B6898473F4B11
:1013F0000122C9F810A01A70D4F8E031187B10F05F
:10140000E3FF2E4911F034F82E4910F029FF08F0BF
:1014100002FA374BC4F8E4012849186911F028F89A
:10142000344BC4F8E801188810F0CEFF014632486A
:1014300011F0D2F8314911F0CFF8314C314B18602E
:1014400007F0AAFFFF211C22204613F0F7FE00221E
:1014500022703A682C4B012112F0020F19702046BD
:1014600004D06170032119700221A170540704D5C2
:1014700019784C1C1C700324445412F00A0F0CD031
:101480001A7804218154511CC9B205244454D11C3A
:1014900002321970D2B2062181543268910604D505
:1014A00019784C1C1C7007244454697908292DD0E4
:1014B0000E2934D12AE000BF0000002035FA8E3C0E
:1014C000F4070020DB0FC93F2C060020B81A0020CB
:1014D0007C090020404B4C00681100202031002086
:1014E000000C014094070020E0070020E40F0020DA
:1014F00050110020180000200AE81C4100401C4642
:10150000C31C00202C110020C21C00201C7804F1F8
:10151000010E83F800E04FF00B0E00F804E01C7899
:101520004FF00C0C04F1010E5FFA8EFE12F4803FB6
:1015300083F800E000F804C009D004F1020CAA4CC2
:1015400084F800C0A94C4FF00E0C04F80EC05407EC
:1015500008D51C7804F1010E83F800E04FF0100E5E
:1015600000F804E01C784FF0120C04F1010E5FFA51
:101570008EFE12F4806F83F800E000F804C00ED0F5
:1015800095F820C2BCF1000F09D004F1020C964C72
:1015900084F800C0954C4FF0130C04F80EC094056D
:1015A00008D51C7804F1010E83F800E04FF0150E09
:1015B00000F804E0182913D11C784FF0160E00F83B
:1015C00004E004F1010E5FFA8EFE4FF0170C00F8F4
:1015D0000EC004F1030E0234E4B283F800E00155BA
:1015E000110304D519784C1C1C7019244454D405DB
:1015F00004D51A78511C19701A2181541A781421B3
:101600008154911C01321970D2B21B2383540021E2
:101610009822774813F012FE0FF036FC754A764B8D
:10162000B5F84E111A60754BB5F8960119807449DA
:1016300000230B808B70D8F8001001F1810E7149E6
:101640000A60714A137082B27049714CD1F80080FF
:10165000DFF8F4C108F596784CF813801A5302337A
:10166000242BA4468846EFD13468E10454BFB5F872
:101670009C311346ACF8063000231EF80320B2B9A3
:101680000EEB0302917892F8039049450FD209B10D
:10169000013901E009F1010101EB8101527801EB0F
:1016A000810101F5617189B204322CF81210043302
:1016B000502BE2D1230740F1F48095F89021062ABF
:1016C00000F2E980DFE802F004070E355172720083
:1016D00045F2F05201E042F6F8224E4B1A800FF02C
:1016E00011FCD7E04B4B42F6F8221A8000010A2386
:1016F00090FBF3F0A0F5B0600023474A9850043304
:10170000482BFAD1454A464B40201A60454B1222DD
:101710001A7007F0E9FA002800F0BD8001234FF0AD
:10172000070A90F9000040218DE808043E4A3F4B2B
:10173000ABE0384B42F6F8221A803D4A384B402045
:101740001A60384B10221A7007F0CEFA002800F009
:10175000A28001234FF0000990F9000040218DE89C
:101760000802344A4FF4E1338FE02A4B42F6F82264
:101770001A80314A2A4B40201A602A4B08221A70DC
:1017800007F0B2FA002800F0868001234FF0000C29
:1017900090F9000040218DE80810284A4FF4E13309
:1017A0000EF057FF264BC3F8EC0170E0194B42F6E0
:1017B000F8211C481980062A4FF00C01204B214CBF
:1017C000017043D00022227083F8F02183F8F121C8
:1017D0001B2283F8F221052283F8F31183F8F42108
:1017E0004FF4E13440E000BFC21C0020C31C0020C5
:1017F000EC1B00207C0900209C1A0020A01A00206D
:10180000CC12002034060020D5190020043100201D
:10181000AA070020421B0020880600200966000855
:101820001C000020E61C002061680008A086010062
:10183000F9650008B1670008E565000865670008FC
:10184000C80000206C070020201A00200020207013
:1018500083F8F00183F8F101BB4C212083F8F201F9
:1018600083F8F31183F8F421B84AB94B40201A6089
:1018700007F03AFA78B101234FF0000EB54A90F91B
:10188000000040218DE8084023460EF0E2FE0030C3
:1018900018BF012028B9082008F02EF8AE4AAC4B3A
:1018A0001A603368AD4A13F4804F04D012211170CE
:1018B000AB48A749086042F20101194089B1A94922
:1018C00044F620609D04088004D508211170A648C4
:1018D0009F490860DC0704D50C211170A3489C497E
:1018E000086011789805A1F10401517051D5A04C00
:1018F000079AA04B22609A69079842F001029A6108
:1019000003881025ADF838309B4802230EA98DF8C6
:101910003A508DF83B300DF0FAFF236896485B880B
:101920000EA9ADF8383004238DF83A300DF0EFFFF2
:1019300023680120197A0DF0D5FF23688F4A5B6870
:101940004FF00009536117A88DF8615001251793D6
:101950008DF860908DF8625005F0EAFA23680FA8C0
:101960005B7A8DF83E908DF83C3003238DF83D3046
:101970008DF83F500AF004F8D8F80020804B3C3A2C
:101980001A603B684FF0FF3243F010033B607D4B21
:101990001A607D4D7D4B7E4CC5F8F8318033C5F81B
:1019A000FC3133680027D903277040F1B180DFF89C
:1019B000C48105F5007B40F22A3A0DF065FE4FF038
:1019C000010952465846394684F8009013F036FC17
:1019D000D8F818306F4843F00403C8F81830402393
:1019E000ADF8383018238DF83B300EA903238DF85D
:1019F0003A3005F0CBFAD8F81C30674C43F00203BC
:101A0000C8F81C30654BA8F694781A68644BB2FB92
:101A1000F3F22388013A23F45C731B041B0C23802C
:101A200092B21D23A3852285A4F81490238C23F061
:101A300001031B041B0C2384238CA188228B23F01D
:101A4000020322F0730212041B04120C1B0C89B255
:101A500042F0600243EA0903A1802283A78623841F
:101A6000238B23F008031B041B0C43F00803238380
:101A7000B4F844306FEA43436FEA53439BB2A4F88F
:101A80004430D8F8A83F43EA0903C8F8A83F4046C5
:101A900004F0E3FF17A804F0B5FF424BCDF860B0A7
:101AA000179380231C934FF480734FF0100B1D93FA
:101AB00040464FF4005317A92093CDF864B0CDF8F9
:101AC00068A01B971E971F97219704F0A8FFA38972
:101AD0000FA89BB243F40073A381D8F8003043F001
:101AE0000203C8F800308DF83CB08DF83D908DF8B9
:101AF0003E708DF83F9009F043FF2B4B1A682B4B3B
:101B0000FA500437802FF8D109F00FFE09F00DFECE
:101B100033685A057DD5D5F82C65254B04201E6009
:101B200007F0E2F80421C5F8300507F0B7F8214BBB
:101B300085F8340508201E6007F0D6F81E4B0821F2
:101B4000186007F0ABF839E090D00300A5650008F5
:101B50001C0000204D660008558B0008E61C002084
:101B600035660008421B002041660008498B0008CA
:101B70004C11002000100240000C01400004014004
:101B80004811002014110020C8000020240A002061
:101B900021190020000801400004004048000020F6
:101BA00000366E0134040040208201082219002012
:101BB000F82600203C27002058270020864C2C22A5
:101BC000002185F83505204613F038FB7C2323706F
:101BD0008E236370E023E37010207D2384F82B3084
:101BE000C5F8386507F080F81021C5F83C0507F006
:101BF00055F885F840052020C5F8446507F074F8CD
:101C00002021C5F8480507F049F885F84C050FF084
:101C100079FB724B724C1B78022B64D1714B0026FE
:101C20001A88322022F040021204120C1A801A88FC
:101C30004FF4805722F038021204120C1A801A88CE
:101C400092B242F040021A809F238DF83C308DF80A
:101C50003D608DF83E608DF83F6007F026F98DF805
:101C60005D60614E0422776117A80FA908F0EAFAB7
:101C700037619DF85E309DF85D201B0243EA024308
:101C80009DF85F201343594A934219D00AD8A2F510
:101C90001A42033A93420CD002F51A42023293429E
:101CA00009D01BE0524A934205D00132934207D03B
:101CB00014E0202300E0802323804FF4807302E0AF
:101CC0004FF4807323806380A38822881B02A36063
:101CD0005343E360012385F84D3504E0002323805E
:101CE0006380A360E360E66816B3F60A37464FF0F8
:101CF0000008B0450BDA08EB060464100DF15C092E
:101D0000E0024946102208F01BFB0F2805DCFF0209
:101D100008F0DCFFC5F850750AE0002359F80320ED
:101D2000013254D10433102BF8D126462746E0E780
:101D3000304C314A236813F4002318BF0123137079
:101D400007F069F82D4B18602D4B5A791946052A72
:101D500003D12C4B4FF4C8721A802B4B4FF47A727C
:101D60001A802A4BC8221A80294B1A7842F008029E
:101D70001A70284B1A7822F002021A70226840F674
:101D8000020313406BB12448244B1860244B0320FA
:101D90001870244B01201870234800230380234827
:101DA0000380930306D5224B03221A71DA7842F09E
:101DB0000102DA708B68012223601E4B1A701E4BE1
:101DC0001A7862F07F021A7023B0BDE8F08F04F138
:101DD00001083C46AAE700BF0C270020483100203C
:101DE0002000002000380040000C014018BA2000FC
:101DF0001740EF002C060020F91800207011002079
:101E0000F4070020AC1B00204231002040310020AC
:101E1000EE070020473100206E090020F026002048
:101E20004027002050000020661B0020681B002077
:101E3000B81A0020F818002020310020A5492DE90B
:101E4000F04F0A68A44802F59C4320330360A34B7B
:101E500089B01E78C6B118465B689A4240F210817C
:101E6000013E06700CE12B68072C98BF195D9C4B56
:101E700088BF21461B689B489847032C0CD997497B
:101E8000013601EB44042081964BF4B21A78964D4A
:101E9000A2421A46E7D81EE02B6804F10E0203EBBB
:101EA00082029388D2880028E9D0C01A4FF47A7150
:101EB0004843D31A90FBF3F0084440F6C903984214
:101EC00005DC40F2EE239842B8BF184601E040F628
:101ED000CA0080B2D3E7854B42F201091B6803EACE
:101EE0000909D9F10109824B38BF4FF00009D3F835
:101EF00000A0804BB9F1000F06D17F490978197015
:101F00007E4908787E4908701E781EB17C4B1E7889
:101F100086F001067148032190F82D700F23B7FB5E
:101F2000F1F101EB4101791A80F82C3092F8008030
:101F3000C9B200F12E0303EB41010024D5F800B033
:101F40004FEA480C0491254664455ED016B16D4BAE
:101F5000E05A00E03046BBF81430834206D8BBF8A4
:101F60001630834234BF0023012300E00023664A79
:101F70000BBBA2F1780352F82520924502D2634BA5
:101F8000E05A1CE0EAB2104602920193CDF80CC070
:101F900005F078FD029A019B032ADDF80CC00ED8EB
:101FA0004FF0010E0EFA05FE93F82C2022EA0E02E5
:101FB00083F82C2003E00AF5967342F81430B9F147
:101FC000000F1DD10499454B04EB4402885293F84D
:101FD000C01021B9022F13D9012083F8C0004C4B47
:101FE000981832F803E0428894337244B0F804E061
:101FF000724492B2E25210B2032390FBF3F080B22B
:10200000424B0135E05202349EE7344B384A93F894
:102010002C101D46B1F10F077942794183F8DA108F
:102020003C4B69B13C4909684E0109D41268D96832
:102030009A60521AC82A1ED9012283F821201AE078
:102040002E48012101702E48126801709968DA60EB
:102050005B68521A9A4203D92E4B002283F8212042
:102060000024444507DAE0B205F00CFD274B23F8C5
:1020700014000134F5E795F82D30013385F82D3043
:102080001A4E3368DD0405D5234B1B68DC0701D4E9
:102090000FF036FC144B0F4A196814688B7A002B2A
:1020A0003ED01A4A013B32F813000B7B1BB1C0F53E
:1020B0003B60083080B200B2A0F57A70B0F57A7F4C
:1020C000A8BF4FF47A7020EAE07010F07DF9134950
:1020D0005BE000BF2831002088070020A8190020FD
:1020E0001C000020E61C0020340600202C060020E6
:1020F00004310020200600202806002009000020CE
:1021000008000020B0190020201A0020AA07002093
:10211000D6190020CC1200209807002000007A4435
:10212000326810043AD59E4AD2F8DC00201A002802
:1021300034DB04F59C402030C2F8DC009948C97AB1
:102140004579994830F8150080B290FBF1F092F88B
:10215000E010013101F00F0182F8E0100A4482F82A
:10216000E1001846914A9A5C01331044102B80B26A
:10217000F8D100B290FBF3F000B26428A8BF64204D
:1021800020EAE07010F020F9894910F025FA894919
:1021900010F06EF910F058FB874B18803368874DAC
:1021A00013F4807F00F0E180854B864F9C4203D979
:1021B000BB780BB90123BB70BB78002B00F0D58036
:1021C000804B95F8008093F821407F4B611E4C4274
:1021D0004C411A68002C9A460CBF03230023C8F315
:1021E0008008C2F38069049397F82030052B00F231
:1021F000B780DFE803F0034E5379869FB8F1000FF4
:102200003AD0DFF89CB1DBF8F400BBF8F81005F029
:1022100063FC012808D16D4A64201168DBF8FC20BA
:10222000D28800FB02123A61B9F1000F0CD0DBF842
:10223000FC301B7943B105F07DFC032387F8203087
:102240004FF47A73FB61CFE7002C40F089805F4B3D
:102250003A691968DFF86CB1914209D905F06AFC56
:1022600003228BF8202040F6B832CBF81C20BBE7C5
:1022700001228BF82020B7E74FF48060B9F1000FFE
:1022800002D005F047FC01E005F072FC00233B6141
:1022900066E0002C46D105F04DFCA5E724B10523EE
:1022A00087F82030012100E02146B8F1000F0ED060
:1022B0003B4A3B48D2F8F430DA89454B1A805A80C1
:1022C0009A80D0F8FC205288DA80022204923F4B98
:1022D0001A687B699A4202D8B8F1000F3DD147F2E3
:1022E0003053FB6103231EE02B7843F002032B7075
:1022F0000FF006FB354B1A68FB691344BB610423DE
:1023000011E0324B1A688CB1BB699A4228D9314B23
:102310001B781BB9DAF80030DA0721D42B7823F0C8
:1023200002032B70052387F820305DE7FB69134417
:10233000BB6115E0254B1A481A68D0F8FC306421BF
:10234000DB884FF4806001FB03233B61002387F8A7
:102350002030FB7005F00CFC46E700297FF444AF09
:10236000049A12B1104607F08BFD1B4C04F5C470A3
:10237000B4F84E1105F0B0FBA346804670BB07F0E1
:10238000B1F894F8E231012B06D9104B044A1B68CE
:10239000D2F800219A422CD207F094F829E000BF2D
:1023A000A8190020741B0020841B0020891A00201B
:1023B0000000C84200C07F44E81C002047310020D4
:1023C000404B4C00CC120020980700200431002024
:1023D000AA07002010000020F4070020994B94F871
:1023E000E2211B684FF47A7101FB0232964BC3F86D
:1023F00000212B785B0740D53368DF063DD5934B32
:102400001B78DC0639D4924B8F4C1F788FB19BF828
:10241000E031B8F1000F16D173B18A4B1A68D4F8C5
:1024200004319B1A002B07DA0FF06AFA84F808814E
:1024300023E0B8F1000F19D1102007F021FD01238E
:1024400084F8083119E03BB17E4A4FF47A71126882
:1024500001FB0323C4F8043194F808316BB106F092
:102460005FFD794B002283F8082106E094F80831DB
:102470001BB106F055FD84F8087100229BF8DEA11F
:102480009BF8DF11BBF89871BBF89AE11346714CC9
:102490009B08105F0232B842C4BF63F07F03DBB217
:1024A0007045B8BF43F04003082AF0D1664C94F859
:1024B00009219A4205D194F80A21F92A04D8013257
:1024C00000E0002284F80A2184F80931604B5E4A5A
:1024D0001878614F994638BB3B68D80708D5B8F1E2
:1024E000000F21D12B78DA071ED50EF055FD1BE029
:1024F0002B785B0715D5594B1B7893B1584BDB787C
:102500007BB992F80B310133DBB2032B82F80B312C
:102510000AD911B10FF0F4F906E0B8F1000F03D1B8
:10252000F8E7002384F80B3194F80A21464B142A6B
:10253000DFF8408140F0A78099F800201AF1000AE6
:1025400018BF4FF0010A6AB393F809215F2A11D12D
:102550002A7802F0040202F0FF0112B10FF0D0F964
:1025600008E00B200391019307F08AFC0399019B7B
:1025700083F80A11BAF1000F14D094F809317D2BB9
:1025800010D12B7803F0040303F0FF0213B10FF016
:10259000B7F907E00B20029207F072FC2A4B029A6F
:1025A00083F80A212B7803F0040303F0FF00002BCB
:1025B00069D194F80931244A572B0AD1294B4FF499
:1025C0007A721A80284B1B6858075CD50A22274B61
:1025D00035E03168490717D55A2B15D192F80C31DF
:1025E0002BB1012382F80C0182F80D314BE092F8F7
:1025F0000E3183F0010382F80E310BB10C2000E0A4
:102600000D2007F03DFC3EE05D2B00F074845B2B59
:1026100000F073845E2B02D1032000F06FBC562BB8
:1026200001D103F089F899F800302BBB94F80931F7
:10263000054A972B40F07A840D4B4FF4C8721A80EC
:1026400021E000BF04310020A8190020EE0700207F
:1026500010000020AA070020980700202006002074
:10266000CC1200204231002094070020403100208D
:10267000AC1B00206811002094F809316F2B40F04A
:102680004C840EF089FC3368580736D594F80E3127
:10269000B44A93B12B7859070FD5B34BB3F9061051
:1026A000BBF89831994208DD3B6813F0010304D16F
:1026B0003221A2F81C1182F80E313B6813F4803FDE
:1026C000A84B0CD094F81E212AB993F80C2112B90A
:1026D0003222A3F81C21012384F81E310DE094F866
:1026E0000C2152B12A7802F0040202F0FF0122B953
:1026F000012283F80C1183F80D21D8F800900023F3
:1027000009F1810A3B6009F1830498460AF102034A
:1027100003EB080113F808204B7814F8010C9A42D7
:102720000AD2214607F058FE30B114F8023C0122CB
:102730009A403B6813433B6008F10408B8F1500F1E
:1027400004F10404E2D1894B1F784FB1884CDFF8C3
:1027500040822368874F13F0020F40F036832EE348
:1027600009F1D10809F1D20408F10103D919DA5DA0
:102770004B7814F8010C9A4229D2214607F02CFE1E
:1027800028B394F802E020797B4B0EF1FF3E4FF026
:102790000C0C0EEB4E0E0CFB00FC9E44714B94F89F
:1027A00003A003F5907909EB0C02516871450ED036
:1027B000002109F80CA0C2F804E09160012202FA9D
:1027C00000F093F8502122EA000083F85001063708
:1027D000482F04F10604C7D1684BDFF8B8A11F6881
:1027E000674B4FF000091B680493664B1B780593F9
:1027F000DAF80030002B00F0D98293F80080B8F1AD
:10280000000F00F0D382DAF804200498821A002A1C
:102810000DDB012101FA09F100F5FA72CAF8042072
:10282000504A92F8500120EA010182F85011059AAD
:10283000002A00F0BB821AF8041C58780431C9B28F
:10284000484A002840F07182474830F911104E483C
:10285000B0F8960100F1C804A14201DD9C7815E0B2
:10286000C838814202DA9C7864420FE0012303FAFF
:1028700009F33C4890F8502122EA0303049A80F8B7
:10288000503102F5FA73CAF804308FE292F85031F1
:1028900043FA09F3DB0700F18982002CCCBF022048
:1028A000012007F025FB08F1FF33132B00F275829E
:1028B000DFE813F0140021002E003E0072007900C2
:1028C000DD004101A501DA010A0273023E004D005C
:1028D0007900DD004101AF00130177013B783846F4
:1028E0001C44FA2CA8BFFA2424EAE4743C7006F0D5
:1028F00045FA01201AE07B7838461C44642CA8BFB6
:10290000642424EAE4747C7006F038FA02200DE0B6
:10291000FB7838461C44642CA8BF64241B4B24EA73
:10292000E474FC70196806F0E5F903202146C8E15B
:1029300079790D2021446429A8BF642121EAE1713D
:10294000797108F09DF8B8F10D0F00F02682397901
:102950000E2021446429A8BF642121EAE171397164
:10296000AFE100BFA8190020AA07002045310020D0
:10297000980700209C070020748E0108D4110020C5
:102980000431002020060020F4070020B01C0020A5
:1029900094070020CC1A0020B9790520214481F346
:1029A0000801B9718DE1A74B1B681A78022A21D161
:1029B000204601930FF008FDA3490FF00DFE019B87
:1029C000596A0FF04DFC002102900FF0EFFE029AC1
:1029D000019B40B910469C490FF006FF029A019BEB
:1029E00010B1994A00E000225A620F20114608F007
:1029F0005BF80AE099780F202144C829A8BFC821B4
:102A000021EAE171997008F03BF8B8F10F0F00F07E
:102A1000C4818C4BD3F8008098F80030022B1AD177
:102A200020460FF0D1FC88490FF0D6FDD8F82010D1
:102A30000FF016FC002104460FF0B8FE30B9204616
:102A400081490FF0D1FE10B17F4C00E00024C8F89E
:102A50002040122059E198F8011012202144C82981
:102A6000A8BFC82121EAE17188F8011029E1754B5E
:102A70001B681A78022A21D1204601930FF0A4FC8A
:102A800071490FF0A9FD019B196B0FF0E9FB0021C3
:102A900002900FF08BFE029A019B40B910466A49E2
:102AA0000FF0A2FE029A019B10B1674A00E00022DB
:102AB0001A631020114607F0F7FF0AE0197B102077
:102AC0002144C829A8BFC82121EAE171197307F080
:102AD000D7FFB8F1100F00F060815A4BD3F8008097
:102AE00098F80030022B1AD120460FF06DFC5649A1
:102AF0000FF072FDD8F82C100FF0B2FB0021044645
:102B00000FF054FE30B920464F490FF06DFE10B162
:102B10004D4C00E00024C8F82C401320F5E098F854
:102B20000B1013202144C829A8BFC82121EAE17154
:102B300088F80B10C5E0434B1B681A78022A21D194
:102B4000204601930FF040FC40490FF045FD019BEA
:102B5000D96B0FF085FB002102900FF027FE029A3F
:102B6000019B40B9104638490FF03EFE029A019B86
:102B700010B1354A00E00022DA631120114607F057
:102B800093FF0AE0997D11202144C829A8BFC821DC
:102B900021EAE171997507F073FFB8F1110F00F0A8
:102BA000FC80284BD3F8008098F80030022B1AD113
:102BB00020460FF009FC25490FF00EFDD8F838101B
:102BC0000FF04EFB002104460FF0F0FD30B9204617
:102BD0001D490FF009FE10B11B4C00E00024C8F89D
:102BE0003840142091E098F8151014202144C82989
:102BF000A8BFC82121EAE17188F8151061E0114BE6
:102C0000D3F8008098F80030022B21D120460FF035
:102C1000DBFB0D490FF0E0FCD8F828100FF020FB8B
:102C2000002104460FF0C2FD30B9204606490FF0DE
:102C3000DBFD10B1044C00E00024C8F82840092056
:102C400063E000BFB41C00200000C84200007A44CA
:102C500098F8031009202144C829A8BFC82121EAF7
:102C6000E17188F803102CE0B54BD3F8008098F898
:102C70000030022B1AD120460FF0A6FBB1490FF00D
:102C8000ABFCD8F834100FF0EBFA002104460FF03B
:102C90008DFD30B92046AB490FF0A6FD10B1A94C0F
:102CA00000E00024C8F834400A202EE098F80D1007
:102CB0000A202144C829A8BFC82121EAE17188F867
:102CC0000D1007F0DDFE68E09D4BD3F8008098F80A
:102CD0000030022B1DD120460FF076FB9A490FF0F1
:102CE0007BFCD8F840100FF0BBFA002104460FF02F
:102CF0005DFD30B9204693490FF076FD10B1914C3F
:102D000000E00024C8F840400B20214607F0CCFE2C
:102D100043E098F817100B202144C829A8BFC82108
:102D200021EAE17188F81710CBE7012835D19878AE
:102D3000864B33F91110B1F5617F05DB40F63303A3
:102D40009942B8BF0B4601E04FF46173B8F10C0F24
:102D500023D14FF49664A3F5617394FBF0F493FBD5
:102D6000F4F492F85131E4B2A34216D0032C94BF8C
:102D70002346022382F851310E2202FB03B3744A28
:102D800003F2AE73136006F013F84046214607F0D5
:102D900077FE601CC0B207F0ABF8012202FA09F21C
:102DA0006C4B93F850110A4383F8502109F1010943
:102DB000B9F1040F0AF10C0A7FF41AADC6E43368C6
:102DC000D80510D5644BDB786BB1D8F80030990783
:102DD00009D53B8813F001090AD106F083FB0120D5
:102DE00004F098FE04E0012004F0C2FE012300E09C
:102DF0000023226852070CD55BB1012004F0B8FE15
:102E00003B88980708D406F06DFB022004F082FE90
:102E100002E0022004F0ACFE3B88504A13F0030F9E
:102E20004FF0100114BF51611161D8F8002012F069
:102E30000A0F2BD02268D1060DD55A070ED40420D4
:102E400004F068FE464BB3F904200A2392FBF3F228
:102E5000444B1A8002E0042004F08AFE23689B069B
:102E600006D53B88580606D4402004F053FE02E005
:102E7000402004F07DFE2368590607D5384BB3F98E
:102E800004200A2392FBF3F2374B1A8023684FF495
:102E900080701A0502D504F03DFE01E004F068FEE2
:102EA000324A53791746082B01D00E2B02D140200D
:102EB00004F05EFE33685B0540F19C8097F8203299
:102EC0001BB92B7813F0040F02E0236813F4002FD2
:102ED0000CD0204B002283F852213C2003F062FDED
:102EE000002800F0878005F0A5FEF6E70EF00AFA4C
:102EF0000DF0CAFF7EE0012000E002205FFA80F9B9
:102F000009F1FF338BF8AC3705F04CFD0EF016FBE2
:102F1000484606F0EDFFFFF7B6BBBAF1000F3FF4ED
:102F200085AB7E2B7FF482ABFFF7ABBBA72B21D108
:102F30000F4B1A7842F004021A70FFF7A4BB00BFCF
:102F4000B41C00200000C84200007A44AA070020F8
:102F5000D4110020A8190020CC120020000C014040
:102F60000C1100207C110020401B0020F4070020E1
:102F7000EE0700200021BB2B079101D1022303E0C3
:102F8000B72B04D14FF6FE73ADF81E3009E0BE2B0F
:102F900001D1022303E0BD2B1AD14FF6FE73ADF829
:102FA0001C30D8F80030BDF81C10B3F860200A447B
:102FB000A3F86020BDF81E10B3F862200A44A3F8FD
:102FC000622002F0B9FB002384F80A31FFF75BBBF3
:102FD000792B04D192F8133123F0010306E07A2B08
:102FE0007FF451AB92F8133143F0010382F81331AF
:102FF000FFF749BB09B0BDE8F08F00BF834B2DE957
:10300000F04FB3F90610824B91B01868438999428A
:1030100011DBB1F5FA6F90F807E009DACA1A02FB82
:103020000EFEA3F5FA639EFBF3FE0EF1640E04E0C0
:10303000CEF1640E01E04FF0640E8389994219DBF2
:10304000B1F5FA6F047A10DA632CC3EB010205D9EB
:10305000643CA4B25443C3F5FA6302E05443A3F5BD
:10306000FA6394FBF3F4643405E0632C03D8C4F1F1
:10307000640400E06424674BB3F8962193F95E3151
:103080000492654A9BB2D2F800C0059366460022BE
:103090005E4B049D33F912304FEA420803935B1BE9
:1030A00003F2F31740F2E635AF4203D8002BB8BF66
:1030B0005B4201E04FF4FA73022A4FF06407574D68
:1030C0002ED09CF81991B9F1000F04D04B45CCBF1C
:1030D000C9EB0303002393FBF7F96FF0630B35F89B
:1030E00019A00BFB093B09F1010935F919900FFAF9
:1030F0008AF5C5EB090505FB0BF595FBF7F5AA4429
:10310000474D28F805A085182D796B43454D93FB55
:10311000F5F364339BB20EFB03F393FBF7F72FE059
:103120009CF81A91B9F1000F04D04B45CCBFC9EB04
:103130000303002393FBF7F76FF0630A05EB4709DE
:103140000AFB073B05EB4707B9F90E90B7F910509A
:10315000059FC9EB050505FB0BFB9BFBFAFBC9EBC8
:103160000B0909FB07F92E4FA7F80490857983EA2C
:10317000E377A7EBE3776F432A4D97FBF5F76437C7
:103180000CEB020595F801A0244B07FB0AFA642515
:1031900003F11C099AFBF5FA09F802A096F80BA0B6
:1031A00003F11F0907FB0AFA9AFBF5FA09F802A0D6
:1031B00096F815A0022A07FB0AF703F1220997FBEC
:1031C000F5F71D4616BF253383F8274003F802E0C4
:1031D00009F80270039B049FBB42114F04DA37F8D1
:1031E00008305B4227F808300132032A06F1010655
:1031F0007FF44EAF074CB4F89831994214DBB1F527
:10320000FA6FA8BF4FF4FA610FE000BFAA070020D1
:10321000D4110020F407002068110020001B0020BA
:10322000741100200CFEFFFF1946C91A4FF47A7280
:103230005143C3F5FA63B1FBF3F34FF0640E93FB14
:10324000FEF205EB4201088D6FF0630101FB0233D2
:1032500005EB4202B2F92A1002B28A1A534393FBD9
:10326000FEFEB54B70441B88B44E5B06F88045D516
:10327000B34BB3F904000A2390FBF3F0B14BB3F85E
:103280004030C01A00B20FF09FF8AF490FF0F0F8CD
:10329000AE4980460EF0E4FF06F0BDFA8146404696
:1032A00006F0B9FA8046B6F902000FF08DF88246B2
:1032B000B6F900000FF088F8494683460FF0D8F8B9
:1032C00041460346504601930FF0D2F8019B014658
:1032D00018460EF0C3FF0FF091FA49463080504671
:1032E0000FF0C6F84146814658460FF0C1F8014636
:1032F00048460EF0B5FF0FF081FA7080944B914E66
:1033000018880FF05DF8934B06F144010122B5F8DF
:10331000428006F0F1F80FF097FA8F4B80B2B8FBBD
:10332000F0F000F1010C1B781FFA8CFCA5F84CC0E2
:103330000BB3B6F94EA00023824AFE5A02F1500E9A
:1033400033F90E8002F158010AFB08F833F80190B6
:103350000FFA8CFBC9EB060998FBFBF8C84423F86D
:103360000E805E520233082BE6D17B4B0021197090
:10337000A2F84E0004E0B6F84E30013BA6F84E30FD
:10338000B5F94E106F4A00294FF000030FDDB2F976
:103390004C60724AA2F10800185E9A5A484390FBAA
:1033A000F6F0121AFA520233082BF2D101E0A2F819
:1033B0004E306B4B1A689A4612F0020F74D0694B6C
:1033C0002A6E1B6845F207219A1A8A425D4E6BDD10
:1033D00033660CF071FF644BDFF8A0811A789946D0
:1033E000032AB8F8003022D10A2B2CD90023282038
:1033F00089F8003005F059FD0CF05EFFB6F8640066
:1034000003F0C8FE594B5A491B68DA7890FBF2F07A
:10341000421C082A28BF08220A7059791B7992B2E7
:1034200051435A43A6F86610A6F868200BE00A2B11
:1034300009D803234E4A89F8003000231370A6F8F8
:103440006630A6F8683099F80020474B012A0DD065
:1034500002D3022A1ED027E0B5F86620B8F8003063
:103460009A4221DD012389F8003011E0B8F80020EC
:10347000B5F86810914202DD02221A7011E031495C
:10348000B1F8661001318A4202DD00221A700BE0A9
:10349000082007E0B5F86830B8F8002001339A42F8
:1034A000E0DC072006F0ECFCDAF80020314E12F4E4
:1034B000006F00F09E802B4BE86E1968214BC0EB2B
:1034C000010A45F20720824540F393802748B7F967
:1034D0000690D0F80080D96698F80A00B4F84E112A
:1034E0000128A9F57A79244F03D06BD3022847D05D
:1034F0006AE093F88120196F03EB4202B2F884006E
:10350000082291FBF2FE80B2CEEB0101014491FB57
:10351000F2F2A3F88C0092B2196740F6E4435343E9
:10352000B8F808004FF47A72C0EB13335343B8F97C
:10353000062093FBF2F346E09C0700207411002064
:103540000C110020001B002035FA8E3CDB0FC93F18
:103550006C1100206F12833A91070020581B002045
:103560002C0600202831002040270020F0260020D3
:103570005000002047310020FC260020F4260020C7
:103580003378B8F808B05807C7F800B01CD5AC4875
:10359000029204F0A1FA029A20B912F0100F18BF9B
:1035A0004FF0000909FB09F2322392FBF3F399442F
:1035B000B8F906304FF47A7203FB09F393FBF2F388
:1035C0005B4400E000233B603B68D5E9240103FB3A
:1035D0000AFA4FF47A739AFBF3FA10EB0A0041EB04
:1035E000EA710023C5E92401964A0FF04DF9964B84
:1035F0001860964B1A68994612F4805F02D00A2030
:1036000006F03EFCD5F89830914F002B58D0914AE7
:10361000D7F89C1010689246814251D897F8A000C4
:10362000B7F8A220596810BB012087F8A0008A5C77
:1036300052B31A78D4F8DC37013A00FA02F21A428F
:1036400001D105F065FC012385F8A43005F0FEFBEF
:10365000B5F8A2307E4FBBB9D7F898301B78053B40
:10366000012B11D805F0D7FBC7F8A8000CE04FF0EC
:10367000000887F8A0808B5C33B1404605F048FC19
:1036800087F8A48005F0E2FBD5F89820B5F8A210E1
:1036900052686F4B525CFE2A03D10022A3F8A2208D
:1036A0000EE0FF2A02D105F03BFC09E0DAF8000049
:1036B0000A2707FB02020131C3F89C20A3F8A210DD
:1036C0003378590703D5644B08225A613AE0D9F898
:1036D0000020D20703D4614A43F001031370604B0A
:1036E0001B781B0703D4337823F0010333705D4B41
:1036F0001B685F0702D55C4A128862B9B5F8AC2036
:103700000AB1980705D4594B1B88003318BF012311
:1037100000E001233BB1022385F8A430337823F085
:103720000103337005E03278D10758BF022385F8D2
:10373000A43005F070FBD5F8B030C01A002801DBCA
:1037400005F084FB0DF0DEFD494B1A78002A00F0ED
:103750009B80D5F8B430002B00F0F186D5F8B4008A
:103760003B4C05F013FC002800F0E986D4F8B400C7
:1037700005F007FC092801D03F2852D14FF000087E
:10378000D5F8B8603B4F44462EB13B4839683246C5
:1037900011F09CFD10B9B84604B93C46374B1037C0
:1037A0009F42F1D3ECB1D5F8B83022682848D75CF5
:1037B000D8F80020D15CB94213D15A1C59B92D2B2D
:1037C00009D8C0F8B82003442027024483F8BC700D
:1037D00082F8BC1005E02B4483F8BC70C5F8B82013
:1037E000E1E7D5F8B8300BB1444510D0244805F0D6
:1037F00035FC444507D854F8100B05F02FFC092080
:1038000005F025FCF5E71F4805F028FC0026D5F853
:10381000B8309E42A2D2184B985D05F018FC0136D4
:10382000F5E7D4F8B830002B40F09486042840F037
:10383000018704F1BC0004F00FFE00F080BE00BF61
:103840007C090020407E050000270020980700200A
:10385000001B002004310020000C014047310020F3
:10386000EE07002094070020403100204231002064
:1038700045310020B08E0108BC1B0020809001085B
:10388000D8A50108DDA50108D44F97F84A30012BCF
:1038900040F05086DFF86C83DFF86C933B68C8F823
:1038A0000070C9F80030C346DFF85CA352461068C8
:1038B00005F06CFB002800F03086DAF8000005F017
:1038C00060FBDBF80030024693F8481019B9242851
:1038D0003DD1012238E0012904D14D280CBF02223C
:1038E000002231E0022904D13C280CBF032200222F
:1038F0002AE003290CD140284FF0000102D983F8B7
:1039000048104EE058711971D971987104221BE06A
:10391000042907D1997983F8490080EA01029A7154
:10392000052211E005293CD1587919798842987906
:1039300006D950409871481C18710B441A7230E037
:1039400090420CBF0622002283F8482029E03178FB
:10395000A34B490725D4232ADAF8001016D1A14831
:103960004FF0010E80F800E09F48C5F8B410C5F88C
:1039700084110292019305F071FB9C4805F06EFBE7
:10398000019B197841F002011970029AD5F888312B
:103990001B78934205D1964A964B1A60964A974BEC
:1039A000DA60DBF80030DFF85CA293F84820062AE2
:1039B0007FF47AAF93F8490000F082FE002840F0CF
:1039C000A585DAF8002092F849B0BBF14A0F00F063
:1039D0009A8562D8BBF1330F00F08A8429D8BBF1F5
:1039E000290F00F023840CD8BBF1250F00F0FA83D7
:1039F000BBF1270F00F0FC83BBF1230F40F0A7853C
:103A000031E1BBF12D0F00F0228408D8BBF12B0F60
:103A100040F09D8505F0B9F8607100F074BDBBF110
:103A20002F0F00F0DD84BBF1310F00F0EE8400F0C9
:103A30008EBDBBF13E0F00F0578114D8BBF1370F9C
:103A400000F0958405D8BBF1350F00F0A98200F095
:103A50007EBDBBF1390F00F0D883BBF13C0F00F005
:103A60004D8100F074BDBBF1430F00F05D8408D8B8
:103A7000BBF1410F08BF4FF0000900F03E8400F099
:103A800066BDBBF1440F00F0F484BBF1480F40F079
:103A90005E8506F063FF00F036BDBBF1D00F00F08D
:103AA0007F8367D8BBF1CA0F00F0418119D8BBF101
:103AB0004E0F00F0EF83BBF1C80F00F0CA80BBF1DE
:103AC0004C0F40F0448505F060F884F8D60105F00D
:103AD0005CF884F8D70105F063F8A4F8D80100F089
:103AE00012BDBBF1CD0F00F0668305D8BBF1CC0F42
:103AF00000F0808200F02BBDBBF1CE0F00F064839C
:103B0000BBF1CF0F40F0238505F04AF86FF4AF6E9C
:103B100000EB0E039BB2C62B98BFA4F8960105F0EC
:103B20003FF8A4F8400105F03BF8A4F8420105F085
:103B300037F8A4F8440105F033F8A4F8D80105F0EB
:103B400024F805F022F805F020F805F01EF884F8B6
:103B5000850105F01AF884F8920105F016F8284B53
:103B6000D3F8009005F01CF800EB80004000A9F8A5
:103B70005E004AE3BBF1D80F00F0668115D8BBF1B7
:103B8000D30F60D004D8BBF1D20F49D000F0DFBC16
:103B9000BBF1D40F00F08982BBF1D60F08BF4FF004
:103BA000000900F0778200F0D2BCBBF1F20F00F008
:103BB000CC822BD8BBF1EF0F40F0C984DFF84090E6
:103BC000D9F800A004F0ECFFAAF86200D9F8009040
:103BD00004F0E6FFA9F8600000F095BCEC1B0020A3
:103BE00047310020453100200DA60108DDA5010860
:103BF000EFBEADDEF04F00200400FA0500ED00E05E
:103C000068110020682700206C270020BBF1F30F0B
:103C100000F03384BBF1FA0F00F0E08200F097BCB3
:103C2000337803F0040303F0FF09002B40F06B84AA
:103C300004F0ABFF022884F8AC0740F2B782C94B0E
:103C400083F8AC97B2E204F0ABFFC74B188000F0EA
:103C50005ABC92F805904FEA5909B9F1120F1CD8D5
:103C60004FF0000A1DE004F090FF132815D8DFF88C
:103C700014A300F1200BDAF8003003EB8B0B04F0F7
:103C800084FFBA4B0BF1010903F5AE72197A814238
:103C900000F048810C339342F8D102F07FFE00F02F
:103CA00032BCCA4507D204F07BFF07AB23F81A00E9
:103CB0000AF1010AF5E700234B45AD4A06DA07A9E8
:103CC00031F8131022F813100133F5E709F1FF3929
:103CD00002EB49032232934203D0002123F8021F52
:103CE000F9E70122A34B77E204F04FFF84F8E001EB
:103CF00004F04BFF84F8DF0100F005BCDFF884928C
:103D0000D9F800A004F041FF18B10228A8BF022092
:103D100000E001208AF80000D9F800301B78022B5F
:103D200018BF954A954B08BF954A1A60EBE3954A30
:103D3000814611689246097802296AD1DAF8003082
:103D400009F1080B019304F020FF0EF039FB8E49B6
:103D50000EF042FC019B43F82B00DAF800B004F0AF
:103D600014FF09F10A030BEB830B0EF029FB8749C3
:103D70000EF032FCDAF80030CBF80400019304F0C6
:103D800004FF0EF01DFB82490EF026FC09F10E0B1C
:103D9000019B09F10109B9F1030F43F82B00CDD1C3
:103DA000B9F1070FDAF800B01AD104F0EEFE0EF008
:103DB00007FB75490EF010FCCBF84400DAF800B0B0
:103DC00004F0E3FE0EF0FCFA6F490EF005FCCBF8B0
:103DD0004800DAF800B004F0D8FE8BF84C0012E08E
:103DE00004F0D3FE0BEB09035870DAF800B004F0CE
:103DF000CCFE0BEB0903D872DAF800B004F0C5FE74
:103E00000BEB0903587509F10109B9F10A0FC7D184
:103E100079E3DAF800B004F0B8FE0BEB0903587050
:103E2000DAF800B004F0B1FE0BEB0903D872DAF84F
:103E300000B004F0AAFE0BEB090309F10109B9F186
:103E40000A0F5875E5D15EE38146DFF838A109F124
:103E5000080BDAF80030019304F0A2FE0EF0B0FA7D
:103E60004B490EF0B9FB019B43F82B00DAF800B088
:103E700004F096FE09F10A030BEB830B0EF0A0FA97
:103E800043490EF0A9FBDAF80030CBF804000193A7
:103E900004F086FE0EF094FA3D490EF09DFB09F108
:103EA0000E0B019B09F10109B9F1030F43F82B0037
:103EB000CBD1B9F1070FDAF800B01AD104F070FED7
:103EC0000EF07EFA32490EF087FBCBF84400DAF8A8
:103ED00000B004F065FE0EF073FA2D490EF07CFB85
:103EE000CBF84800DAF800B004F05AFE8BF84C002A
:103EF00012E004F055FE0BEB09035870DAF800B03D
:103F000004F04EFE0BEB0903D872DAF800B004F0AF
:103F100047FE0BEB0903587509F10109B9F10A0FC6
:103F2000C7D1F0E21B788BF8013004F02EFE89F83F
:103F3000010004F02AFE89F8020004F026FE89F848
:103F40000300144BDAF80000134AC3F8B40100214F
:103F50008130C3F8B02104F04DFF104B80F0010018
:103F60001870D0E2F40700207C1100208090010836
:103F70008C1C00206D0700202DDC00084C00002068
:103F8000A1D8000868110020000020410000C842AC
:103F900000007A44001B002034090020100000209B
:103FA00004F0F3FD0B283FF678AE4FF0060A0AFB4B
:103FB00000F0D84BD0301B6803EB000A04F0E5FD9D
:103FC00003283FF66AAE8AF8060004F0DEFD8AF8A0
:103FD000010004F0DAFD8AF8020004F0D6FD8AF848
:103FE000030004F0D2FD8AF8040004F0CEFD8AF844
:103FF000050088E25379092B7FF64FAEDFF8209356
:10400000D9F800A004F0C1FD8AF80000D9F800A09A
:1040100004F0BBFD8AF8010004F0B7FDD9F80030C8
:104020006428A8BF6420187104F0AFFDD9F80030EF
:104030006428A8BF6420587104F0A7FDD9F80030A7
:10404000FF28A8BFFF20987104F09FFDD9F800A0B9
:10405000642828BF64208AF8070004F096FD8AF8D7
:104060000200D9F800A004F090FD8AF80300D9F806
:1040700000A004F095FDD8F80030AAF80A005B799A
:104080000A2B40F24082D9F8009004F07EFD89F8B6
:10409000090038E204F084FD9F4B23F8090009F180
:1040A0000209B9F1100FF5D12DE253790F2B7FF4EE
:1040B000F4AD04F06AFD072881463FF6EEADDFF867
:1040C00054A2DAF800B004F06BFD0E2303FB09F9EB
:1040D0000BEB0903A3F82101DAF800B004F060FD4E
:1040E0000BEB0903A3F82301DAF800B004F058FD44
:1040F0000BEB0903A3F82501DAF800B004F045FD45
:104100000BEB090383F82701DAF800B004F03DFD5A
:104110000BEB090383F82801DAF800B004F035FD51
:104120000BEB090383F82901DAF800B004F02DFD48
:104130000BEB090383F82A01DAF800A004F03AFD3A
:104140000AEB0903C3F82B01DDE104F01EFD0F2883
:1041500081463FF6A2AD04F018FDC9EBC90904EB96
:10416000090383F8D00003F1D00904F00EFD89F8AB
:10417000010004F00AFD89F8020004F006FD89F848
:10418000030004F002FD89F8040004F0FEFC89F845
:10419000050004F0FAFC89F8060005F0BDF8B2E16C
:1041A0003378590700F1AF810AF03CFB04F0FAFBC9
:1041B0000DF0C4F9A7E133785A0700F1A4814FF458
:1041C000C873A5F8AC309EE133785B0700F19B81A2
:1041D000524B1A7842F004021A7094E1337858076F
:1041E000E4D5B4E1A06004F0E5FC05F08DFB8AE1C4
:1041F00004F0D6FCA4F8580104F0D2FCA4F85A014B
:1042000004F0CEFCA4F85C017DE104F0BEFC84F86F
:104210007A0104F0BAFC84F87E0104F0B6FC84F85C
:104220007D0104F0B2FC84F87F016CE104F0B8FC7D
:10423000A4F8800104F0B4FCA4F8820104F0A5FC09
:1042400084F8840104F0ACFCA4F886015BE104F07E
:104250009CFC84F8900104F0A3FCA4F89A0104F0FB
:104260009FFCA4F8960104F09BFCA4F8980104F0CC
:104270008CFCDAF8003084F891015B79082B40F26D
:10428000428104F08DFCA4F89C0104F089FCA4F8A0
:104290009E0138E192F805B00323BBFBF3FBBBF1B1
:1042A000120F3FF6FAACDFF87C904FF0000ADA45C7
:1042B00080F0298104F069FC89F8A00104F070FC09
:1042C00040F2ED23984205DD40F6CA039842A8BFAC
:1042D000184601E040F2EE20A0F2EE20192390FBF8
:1042E000F3F089F8A1010AF1010A09F10209DEE7F8
:1042F00004F04BFC84F8920105E104F046FC04EB69
:10430000090309F10109B9F1080F83F88801F4D113
:10431000F9E000BF68110020FC120020EE07002029
:10432000D4110020F4070020019004F02EFC6071ED
:10433000019BA36004F03EFC05F0E6FA04F025FCC6
:1043400084F8900104F02CFCA4F8580104F028FC37
:10435000A4F85A0104F024FCA4F85C0104F020FC49
:10436000A4F8800104F01CFCA4F88201CBE053798E
:104370004FF0070AB3FBFAF2C2EBC2029A1A12F02C
:10438000FF0F7FF48AACB3FBFAFABAF1000F00F02A
:10439000BA8004F0FAFB5FFA80FB4FFA8BF004F06E
:1043A00069FC0AF1FF3A5FFA8AFA814600283FF475
:1043B00074AC80F800B004F0F3FBA9F8020004F03C
:1043C000E4FB89F8040004F0E0FB89F8050004F040
:1043D000DCFB89F8070004F0D8FB89F80600D4E775
:1043E000DFF8D89209F1400A04F0DAFBA9F8B0022C
:1043F00004F0CBFB89F8B20204F0C7FB09F1040911
:1044000089F8AF02D145EFD17DE004F0BEFB1F2853
:104410003FF643ACD8F800305B79082B7FF43DAC15
:1044200000F18C0A04F0BCFB04EB8A0900F03F00A9
:10443000A9F8020004F0B4FBB9F80220800100F4EE
:10444000FE531343A9F8023004F09FFB000104F867
:104450002A0004F09AFB14F82A3000F00F001843E9
:1044600004F82A0004F091FB89F801000BF00CF924
:1044700049E0012385F8B83145E004F086FBFF28C8
:10448000824623D100238DF81B309DF81B30052B6D
:1044900015D89DF81B20774B9DF81B10012003EBCE
:1044A000C101496800FA01F153F8320089B248228B
:1044B00004F089FB9DF81B300133DBB2E3E76E4863
:1044C0004FF48051042204F07EFB1CE005283FF6E7
:1044D000E4AB002004F0A6FD04F080FDD8F8003025
:1044E000186804F043FDD9F8000004F0A3FB50461F
:1044F00005F0DCFD0A2004F0D8FC0CF0C5FCD8F86F
:10450000003083F849B0002004F08CFD04F066FD13
:10451000D8F80030002283F8482095F8B8314BB124
:10452000386804F023FD05F067FD04F0C8FC534A29
:10453000534BDA60534B4C379F427FF4A6A9524B42
:104540009B68002B00F09380504898478FE002F062
:1045500025FADBE70C2803D14D4804F07FFD59E034
:104560000A2801D00D2857D14A4C4B4804F1BC060B
:1045700004F074FD3046232110F093FE10B1801B2F
:10458000C4F8B800D5F8B830002B38D0591E705C8C
:10459000404A202801D10B46F6E7C2F8B830134450
:1045A000002283F8BC203D4B3D4CD3F800A0D4F84A
:1045B0000090DFF8E080484610F080FE08F1BC076C
:1045C000064649463846324610F080FE354B38B92B
:1045D00008EB060292F8BC2052445278520703D0EE
:1045E00010349C42E3D306E09C4204D2701CE36882
:1045F0003844984702E02C4804F030FD00232B4853
:1046000000213022C5F8B83010F018FE2848037891
:10461000002B94D0274809E07F2811D1013BC4F832
:10462000B83000222344244883F8BC2004F016FD4F
:10463000FFF794B80C288FD07F2804D1FFF78EB8ED
:104640002F2B3FF68BA8A0F12002D2B25E2A3FF6B4
:1046500085A813B920283FF481A85A1C2B44C5F81B
:10466000B82083F8BC0004F0F2FCFFF777B811B073
:10467000BDE8F08FA8A50108000801400400FA0574
:1046800000ED00E0841C002050110020BA1C002026
:10469000E2A50108001B00203BB4010858000020DF
:1046A000B08E010880900108EDA50108BC1B002018
:1046B00045310020DDA5010809A60108F407002006
:1046C0002DE9F04F4728ABB0044600F0858600F294
:1046D000CE802E2800F0348667D8222800F0E984A6
:1046E00023D8032800F0628214D8012800F05382F6
:1046F000022840F0C186042004F094FC422004F01B
:104700005CFC542004F059FC462004F056FC4C207C
:1047100000F0E8BD042800F05382052840F0AC8684
:104720001A2004F07FFC00245CE2282800F0A18518
:1047300015D8242800F08885262840F09D86D34C83
:10474000062004F06FFCB4F8580104F06EFCB4F8D5
:104750005A0104F06AFCB4F85C0100F0D4BD2A28C8
:1047600000F09A852C2840F08786C84C0C2004F075
:1047700059FC94F8900104F020FCB4F89A0104F07C
:1047800054FCB4F8960104F050FCB4F8980104F01D
:104790004CFC94F8910104F010FCB4F89C0104F076
:1047A00044FCB4F89E0100F0AEBD3A2800F013833B
:1047B0001DD8342800F0B6840DD8302800F0D685F6
:1047C000322840F05986012004F02CFCAF4B93F8BE
:1047D000920100F087BD362800F09885382840F017
:1047E0004B86042004F01EFCA84C00F033BD40288A
:1047F00000F07B8511D83B2800F054843D2840F020
:104800003B86A24C022004F00DFC94F8E00104F079
:10481000D4FB94F8DF0100F065BD452800F0FF856A
:1048200000F2C985422840F02786984C102004F0F9
:10483000F9FB607904F0C1FBA06804F0FFFB94F879
:10484000900104F0BAFBB4F8580104F0EEFBB4F8A0
:104850005A0104F0EAFBB4F85C0104F0E6FBB4F89A
:10486000800104F0E2FBB4F8820100F04CBD6F2837
:1048700000F00E8300F21A81662800F0F18100F248
:10488000DD804D2800F00E8515D8492800F0FA8209
:104890004B2840F0F1857D4C042004F0C3FB94F8D4
:1048A000D60104F08AFB94F8D70104F086FBB4F833
:1048B000D80100F028BD642800F0AD81652840F0E3
:1048C000DB850B2004F0AEFB714B724C188804F0B2
:1048D000ACFB208880B204F0A8FB6F4B1B68C3F3CD
:1048E000C000C3F38002800040EA4200C3F34002EC
:1048F0001043C3F3401240EAC20003F01003184310
:1049000004F093FB654BA4781A8812F0010F0CBFDA
:104910000020022012F0020F0CBF0021042112F02F
:10492000040F0CBF0023102303935D4B02F0080A11
:104930001B6812F0400F03F0C00B03F480794BEAC0
:104940000A0A0CBF0026202603F4805812F0100F2C
:104950004AEA090A019003F4005C0CBF00204FF4FE
:1049600000704AEA080A12F0200F029103F4804E08
:104970000CBF00214FF480614AEA0C0A12F4807FD8
:10498000049605900CBF00264FF4006603F4003037
:1049900003F400474AEA0E0A0796089003F48036AB
:1049A0004AEA070A06914AEA060A03F48021089EA9
:1049B00009914AEA060A099E03F400254AEA060A12
:1049C00003F480104AEA0505284303F0007303430B
:1049D000344812F4007F06780198C6F3800643EA53
:1049E0000603029E43EA0003039843EA0603049E7B
:1049F00043EA0003059843EA0603069E43EA0003E0
:104A0000079843EA060343EA00030CBF00214FF472
:104A1000001112F4806F43EA01010CBF00234FF034
:104A2000806312F01B0F41EA03014FF000000CBF3E
:104A300000234FF0006319430346FCE0692800F0AF
:104A4000AC810AD8672800F03381682840F01485CB
:104A5000102004F0E7FA002497E16D2800F0B281FD
:104A600000F2E2816C2840F007850F4C062004F02C
:104A7000D9FA208804F0D9FA608804F0D6FAB4F99B
:104A800004000A2390FBF3F0FAE100BFF4070020D2
:104A90006C110020C01C0020940700209C070020FF
:104AA00098070020473100200C110020772800F0E3
:104AB0008B834BD8732800F0A2833CD8702800F079
:104AC0001182722840F0D884C54C162004F0AAFA4E
:104AD000B4F8960104F0A9FAB4F8400104F0A5FA7C
:104AE000B4F8420104F0A1FAB4F8440104F09DFACC
:104AF000B4F8D80104F099FA002004F05EFA00201E
:104B000004F05BFA002004F058FA94F8850104F0F0
:104B100054FA94F8920104F050FA002004F04DFA8F
:104B2000B04B1B68B3F95E000A2390FBF3F080B230
:104B300004F07BFA8EE3742800F01483752840F0AB
:104B40009B842F2004F06EFAA74CA3E2A02800F06B
:104B50006D830AD8782800F0B7807B2840F08C84D9
:104B60003C2004F05FFA00243EE2F12800F0E780E8
:104B7000FE2800F04F83F02840F07E84994C0420FA
:104B800004F050FA2368B3F8620004F04EFA236888
:104B9000B3F86000B7E3032004F044FA002004F007
:104BA0000CFA204604F009FA0D209BE304F03AFACF
:104BB000022004F002FA012004F0FFF9022091E340
:104BC000062004F02FFA412004F0F7F9462004F003
:104BD000F4F94E2004F0F1F9412004F0EEF9834B92
:104BE000187890E3824B185D013404F0E6F90B2C41
:104BF000F8D100247F4B185D013404F0DEF9082C55
:104C0000F8D100247C4B185D013404F0D6F9072C50
:104C1000F8D100F015BC072004F004FAE72004F0F6
:104C2000CCF96F4B587904F0C8F9002004F0C5F9AD
:104C3000042000F003BCA3420CD2704A9D5C012208
:104C400002FA05F50D4218BF9A4003F1010318BF9F
:104C50001043F0E704F0F2F9614B93F8AC0741E33D
:104C6000122004F0DFF9664B00241B88B3F5806F37
:104C700094BF01250825634BE05E023490FBF5F0FC
:104C800080B204F0D2F9062CF5D15F4C208C04F0F0
:104C9000CCF9608C04F0C9F9A08C5C4C04F0C5F927
:104CA000208804F0C2F9608804F0BFF9A0882AE3E4
:104CB000102004F0B7F90024554B185D013404F0BE
:104CC0007CF9102CF8D1BBE3702004F0ABF900267E
:104CD0000E247443434D01362B682344B3F821015D
:104CE00004F0A3F92B682344B3F8230104F09DF9E1
:104CF0002B682344B3F8250104F097F92B6823446B
:104D000093F8270104F059F92B68234493F82801FC
:104D100004F053F92B68234493F8290104F04DF96A
:104D20002B68234493F82A0104F047F92B681C44AC
:104D3000D4F82B0104F082F9082EC9D180E3702049
:104D400004F070F9264C04F1700594F8D00004F0DA
:104D500034F994F8D10004F030F994F8D20004F05A
:104D60002CF994F8D30004F028F994F8D40004F056
:104D700024F994F8D50004F020F9073494F8CF0012
:104D800004F01BF9AC42E0D15AE3224B185D013428
:104D900004F013F9102CF8D152E31B4D002495F8C0
:104DA0002600400000F0FE0004F03CF995F82630A3
:104DB0009C4280F04583184B33F8140004F035F919
:104DC0000134F3E7062004F02DF9144B186804F0C1
:104DD00035F9134B5AE0042004F024F9114B31E269
:104DE000F407002068110020DB9101084831002001
:104DF000AF9B0108BB9B0108939B0108C31C0020CB
:104E000018000020EA260020C01C0020E80700202F
:104E100014130020B4120020AA070020A4070020C9
:104E20003811002014110020072004F0FBF8B14BCA
:104E30004FF6FF741888FF28A8BFFF20C0B204F007
:104E4000BCF8AD4B1868A042A8BF204620EAE0702D
:104E500080B204F0EAF8A94B188D04F0E6F8A84BEC
:104E600093F88521A74B42B11B680A205843A04202
:104E7000A8BF204620EAE07002E0186800F30F00A7
:104E800080B240E2022004F0CDF89F4B18883AE24D
:104E90009E4C0B2004F0C6F823680025187804F017
:104EA0008CF823682646587804F087F83368974CC6
:104EB0002B441879013504F080F8032DF6D12368CE
:104EC000D87904F07AF82368987804F076F82368A3
:104ED000D87804F072F82368588904F0A6F823689B
:104EE000587AFFE18A4D1E2004F09CF82B680024BC
:104EF0001B78022B65D12B6804F1080253F82200BD
:104F000084490DF0B5FA10F0F9FC80F30800C0B246
:104F100004F053F82B68804903EB8403D86A0DF042
:104F2000A7FA10F0EBFC80F30800C0B204F045F8DB
:104F30002B6804F10E0253F8220078490DF098FA1C
:104F400010F0DCFC80F30800C0B2013404F035F846
:104F5000032CD0D1072C2B6821D1586C6D490DF052
:104F600087FA10F0CBFC80F30800C0B204F025F8FB
:104F70002B686849986C0DF07BFA10F0BFFC80F349
:104F80000800C0B204F019F82B6893F84C000DF03B
:104F900017FA10F0B3FC80F30800C0B20BE0234412
:104FA000587804F00AF82B682344D87A04F005F8FE
:104FB0002B682344587D013403F0FFFF0A2CC9D12C
:104FC0003EE22B682344587803F0F7FF2B68234414
:104FD000D87A03F0F2FF2B682344587D013403F0A4
:104FE000ECFF0A2CEDD12BE2494D04F108022B68AD
:104FF0004A4953F822000DF03BFA10F07FFC80B2D2
:1050000004F013F82B68454903EB8403D86A0DF0CC
:105010002FFA10F073FC80B204F007F82B6804F14B
:105020000E0253F822003D490DF022FA10F066FC02
:10503000013480B203F0F9FF032CD5D1072C2B6883
:1050400016D1586C35490DF013FA10F057FC80B2A8
:1050500003F0EBFF2B683149986C0DF009FA10F062
:105060004DFC80B203F0E1FF2B6893F84C000BE09D
:105070002344587803F0D9FF2B682344D87A03F0EF
:10508000D4FF2B682344587D013403F0CEFF0A2C53
:10509000D4D1D5E114F8010F002800F0D18103F03C
:1050A0008CFFF7E7012003F0BDFF194B1B68187850
:1050B00018E1502003F0B6FF0024154B04F1200244
:1050C0001B680C2103EB82035D1C154A5B780134DD
:1050D00001FB0323187A03F070FF687803F06DFF7B
:1050E000A87803F06AFFE87803F067FF142CE4D196
:1050F000A6E100BFF426002000270020C01C0020ED
:10510000F4070020FC26002064110020D4110020A8
:1051100068110020000020410000C84200007A44CD
:1051200080900108482003F07DFF002506266E438D
:10513000C44BD0361B6801351E44B07903F03DFFE7
:10514000707803F03AFFB07803F037FFF07803F09F
:1051500034FF307903F031FF707903F02EFF0C2D0E
:10516000E4D16DE1002701240025B74B9A789542E0
:1051700022DA0333E95C0023B44A03EB02089A5CA9
:105180008A4204D00C33B3F5AE7FF5D112E0D8F8E3
:10519000040010F093F881460CB9264601E007445C
:1051A00008E04E4506DAD8F80430985D03F005FFB4
:1051B0000136F6E70135D8E7002C00F04181F8B25E
:1051C00003F030FF0024CFE79F4D0024A87803F0C0
:1051D00029FFAB789C4280F033819D4BE05C00233B
:1051E0009A4A99189A5C824204D00C33B3F5AE7F88
:1051F000F6D102E0087A03F0E0FE0134E9E7082086
:1052000003F010FF0124E0B2013403F0D6FE092CB4
:10521000F9D115E1082003F005FF00248D4B185B40
:10522000023403F002FF082CF8D109E10C2003F04E
:10523000F9FE894B186803F001FF884B186803F0EA
:10524000FDFE874B1868F9E0042003F0EBFE854B68
:105250009868F3E094F87A0103F0AFFE94F87E01C9
:1052600003F0ABFE94F87D0103F0A7FE94F87F01F4
:1052700038E07C4C072003F0D5FEB4F8800103F041
:10528000D4FEB4F8820103F0D0FE94F8840103F058
:1052900094FEB4F8860136E0012003F0C3FE714BA2
:1052A00058791FE0684E704C96F82600002500EBF8
:1052B0004000C0B203F0B6FE96F8263002349D429C
:1052C00080F0BE8014F8020C03F077FE14F8010C95
:1052D000013500EB800000EB800000F2EE2003F0CF
:1052E000A4FEE9E703F069FEAAE0082003F09AFEB5
:1052F00000245C4B234493F88801013403F05DFEE5
:10530000082CF6D19CE003F090FE99E04E4B554CF2
:1053100093F8320004F12805C0EBC000C0B203F0DE
:1053200081FE94F8F6010023504AD25C904200F0CE
:10533000A5800C333C2BF7D10834AC42F1D17FE08F
:10534000402003F06FFE474C04F14005B4F8B00272
:1053500003F06BFE94F8B20203F02FFE043494F8CD
:10536000AF0203F02AFEAC42F0D169E0E02003F086
:1053700059FE3C4C04F18005B4F83202043400F0CC
:105380003F0003F052FEB4F82E02C0F3861003F083
:105390004CFE94F82C02000903F00FFE94F82C0246
:1053A00000F00F0003F009FE94F82D0203F005FE53
:1053B000AC42E1D144E02E4C0D2003F033FE04F06A
:1053C0008BFF03F0FAFD208803F038FEE06803F05D
:1053D00035FE0AF0CDF931E003F0ECFB0446842001
:1053E00003F020FE204603F029FE214BDD6804F186
:1053F0008003AB428CBFC4EB0505802505F066FC3D
:1054000020462A460AA904F09BFF00240546AC4228
:1054100016DA0AA9085D03F0D0FD0134F7E713207E
:1054200003F000FE0024134B185D013403F0C5FDAA
:105430000B2CF8D1002003F001FE002003F0FEFD4C
:10544000012032E068110020C01C0020809001087B
:10545000C31C0020EA1C0020E8F7FF1FECF7FF1F29
:10546000F0F7FF1FF407002094090020F41C00202F
:1054700020000020AF9B0108002016E003F09DFDF6
:10548000B4F8F80103F0D1FD94F8FA0103F095FDAA
:1054900094F8FB0103F091FD94F8FD0103F08DFDFC
:1054A00094F8FC0103F089FD46E72BB0BDE8F08FCE
:1054B00008B503783BB90B4B0B4893F8AC17BDE824
:1054C000084006F057BB0FF04EFF022808D8054BE6
:1054D00083F8AC0703F066FA0CF030F80348E8E70D
:1054E00008BD00BFF4070020F0B401080CA60108B5
:1054F0002DE9F04F87B00193002306468B460292B8
:105500001C46029A934204DA5BF8232001331444C8
:10551000F7E7019B0394002B51D104F0DDFE002836
:105520004DD1019874E002223B4D8DF814201A0CE5
:105530004FF480578DF8152006201A0A8DF8162092
:105540008DF8173004F0ECFE6F61062004F07AFD50
:10555000324B01222F6100201A7005A96F610422CD
:10556000002504F06FFED8464F462B46029A934220
:1055700018DAC44658F8042B002A44D0BA424FF037
:105580000000715932D33A46CDF800C004F05AFEFB
:105590007359DDF800C03B447351DCF80030DF1B69
:1055A000CCF800701C4B4FF480521A61DAF80030CE
:1055B000C9EB04044B44CAF80030019B33B32CB34D
:1055C000DFF860A0DAF800305FFA83F904EB090233
:1055D000B2F5807F124A88BFC9F58079D26898BF3A
:1055E000A14693429FD30AF0E3F80FE0009304F042
:1055F00029FE58F8042C7159BF1A0A447251009BB5
:10560000002248F8042C01330435AFE7039B181B34
:1056100007B0BDE8F08F00BF000C01401506002068
:10562000200000201806002030B50E4D0E4C2A78C0
:10563000237885B09A4211D0684602A90AF07CF816
:10564000002302A902226846FFF752FF03F068FA1E
:1056500028782378C31A5842584100E0012005B049
:1056600030BD00BF2C2500209C24002010B50F4B1E
:10567000014693F8DA37012B11D10D4B0D4C1878F8
:10568000421CD2B21A70120644BF00221A70215472
:105690000AF07EF83F2808D9BDE81040C4E7064B61
:1056A000BDE81040186803F083BC10BDF40700206B
:1056B0009C2400209D240020FC18002010B50446E6
:1056C0007F2C06D964F07F00C0B2FFF7CFFFE4095A
:1056D000F6E7E0B2BDE81040C8E7430083EAE070B7
:1056E000ECE70FB437B506AC54F8045B4820FFF77D
:1056F000BDFF2020FFF7BAFF2A4623460B490020B2
:10570000019406F05DF904460A20FFF7AFFF084B4D
:10571000C4F1FF241A6804F57F04FD3422441A60A2
:1057200003B0BDE8304004B0704700BF35570008F3
:1057300000190020084699E708B503F033F90BF08B
:10574000FDFEBDE80840012004F0D2BB2DE9F04F7A
:1057500011F0FD0F8FB005460391BA4C06D0BA4E3A
:1057600033689F0700F1F38000F0A1BEB74BB84843
:105770005B689847DFF8D8820028F0D0227840464E
:10578000414601F051FCB34B0AAA03F1080C17463D
:1057900018685968164603C6083363453246F7D180
:1057A00018689B883060B380AB4ABDF934C0AB4900
:1057B00002F1060900231846CE18768837F903B09F
:1057C000CE52023336B20C2B0BFB0600F4D15388B9
:1057D0004FF480768B811BB20CFB030090FBF6F03C
:1057E00022F8020F4A4501F10E01E3D19C4B1B88C0
:1057F000002B00F0A080E36A00271B78DFF880A26E
:1058000004933E46964A1288B2F57A7F0592954AED
:1058100003D10021D151CAF81010D15938F906002E
:105820000144D1510CF0D0FDDAF81020834601324A
:10583000012ACAF8102007D10022CAF80400CAF8C9
:105840000000CAF808202DE0DAF800C00192614695
:10585000CDF808C00CF002FD019A814610460CF00C
:10586000B3FD014648460CF0B7FEDDF808C001461E
:1058700060460CF0F5FC02461146CAF80400584692
:1058800001920CF0EBFC014648460CF0F1FDDAF811
:1058900008100CF0E5FC019ACAF80C00CAF80020C8
:1058A000CAF80800DFF8C0B1002228F8062026F860
:1058B0000B20059ADFF8A891012A29D1DAF8100007
:1058C000012808DD01380CF07FFD0146DAF80C00F4
:1058D0000CF082FE00E0002010F066FA049B024605
:1058E00063B1184601920CF06FFD019A0146104613
:1058F0000CF07AFF10B14FF47A731AE0594A4FF462
:105900007A71BA5802F5FA7292FBF1F22BF806207E
:105910000236062E07F104070AF1140A7FF472AF6B
:10592000B9F80000012801D104F0AAFAB9F8003052
:10593000013BA9F8003000234B4A38F803109A5A6B
:105940008A1A28F803200233062BF5D107E7039BB8
:10595000002B00F0AC85DFF8EC90D4F8843009F12E
:105960008C00984709F18C07002800F005813F4B17
:1059700038461A78394601F057FB3D4B1A8898464D
:10598000002A42D00022D9F894001346B8F800103B
:10599000DFF8F0C0B1F5C87F04BF00214CF8031058
:1059A00037F902905CF80310DFF898E049444CF8AE
:1059B0000310043300210C2BB952815202F1020270
:1059C000E4D1B8F80030012B1AD1DEF898304FF44A
:1059D000C872C83393FBF2F30380DEF89C30C833FF
:1059E00093FBF2F34380DEF8A030C83393FBF2F26E
:1059F000204B1B88D21A828029806980FFF79CFE89
:105A0000B8F80030013BA8F800301B4B1B68580762
:105A100040F19E80194A13889046322B34D1D4F835
:105A200094301A88A4F8A4205A889B88A4F8A62049
:105A3000A4F8A8302B88A4F8AA306B88A4F8AC305E
:105A400024E000BF301D00209407002050110020EA
:105A5000E01C00200C920108DE1C0020321D0020FA
:105A6000423100209C1D0020A81D0020493100204B
:105A7000AC1B0020180000202C060020C41A0020B7
:105A8000601D0020C81D0020002B41D00022D4F84A
:105A900094C01046B8F80030DFF85CE1322B04BF48
:105AA00000234EF800305EF8001037F902904A4BA0
:105AB00049444EF80010043000210C28B9528E469B
:105AC0002CF8021002F10202E4D1B8F80020012AF9
:105AD00019D1424981F800E041490A70009304F06D
