:020000040800F2
:1000000000500020252A0108D12A0108F91301080F
:10001000D12A0108D12A0108D12A010800000000D4
:10002000000000000000000000000000D12A0108CC
:10003000D12A010800000000D12A0108C9130108D3
:10004000D12A0108D12A0108D12A0108D12A0108A0
:10005000D12A0108D12A01085DE1000859E1000810
:10006000D12A0108D12A0108D12A0108D12A010880
:10007000D12A0108D12A010819E10008D12A010872
:1000800061E10008D12A0108D12A0108D12A01081A
:10009000D12A0108D12A0108D12A010855E1000816
:1000A000D12A0108D5E00008D12A0108E5E00008BE
:1000B000C5E00008B5E00008A5E000089DE10008E3
:1000C00095E1000899E1000891E10008D12A0108B2
:1000D000D12A01080DE1000801E10008F5E000085F
:1000E000D9130108D12A0108D12A01080000000013
:1000F0000000000000000000000000000000000000
:0C01000000000000000000005FF808F1A3
:100110002DE9F04F754B764EA3B03360002373602A
:100120000BF070FF18B909F0E9FB0BF08FFF09F035
:100130009FFF704B704C1A78704D42F001021A709C
:1001400000230A930B930C934FF4E0130D93236851
:10015000297B43F480332360A36943F01003A36138
:10016000236803F400330B930A9B01330A930B9B20
:100170001BB90A9BB3F5A06FF2D122685E4B12F453
:10018000003201D0022315E0186840F00100186029
:100190000A92236803F002030B930A9B01330A932C
:1001A0000B9B1BB90A9BB3F5A06FF2D123689F0785
:1001B00039D501230C93524B52481A6842F0100271
:1001C0001A601A6822F003021A601A6842F00202EA
:1001D0001A606368636063686360636843F48063A4
:1001E0006360494B1A68043B22F070425A60474AE8
:1001F0001060606820F47C106060586840F0004037
:100200005860D86820F40040D8609B68180449BF43
:100210003F4B4FF4E01313604FF480130D930C9B8E
:10022000012B01D117E0FEE7022B18D169B10D9B1C
:10023000B3F5801F02D14FF4A01305E00D9BB3F579
:10024000E01F02D14FF400130D9361680D9B0B4327
:1002500043F4803302E0636843F46013636023680F
:1002600043F0807323602168234B8901FBD55968D3
:1002700021F003015960596841F002015960636837
:100280001D4903F00C03082BF9D14868214B00F0FD
:100290000C00042803D0082804D01A4900E0116893
:1002A000196011E048684F68C0F38340FF0300F114
:1002B000020001D4184905E0496811F4003F1168B3
:1002C00018BF49084843186061681448C1F3031116
:1002D000014491F81890196821FA09F9C3F80090BF
:1002E0001368084A93421BD101221DE0B351000854
:1002F00048140020DC300020001002409C02002046
:100300000020024000127A00041001401400002076
:10031000001BB7004C00002000093D00D8830108F5
:10032000644A934202D10222634B1A70DFF8B8B1DB
:10033000624B22AFCBF80C30A369DFF8A88143F001
:100340000103A361636ADFF898A1B360636A4FF0A9
:10035000000043F080736362A36943F01C03A36150
:100360004FF6FF7327F82C3D39468DF85E00404666
:10037000069705F056FC5046069905F052FC504889
:10038000069905F04EFC02234FF0100C22A98DF8BF
:1003900043304FF4007321F8483D8DF842C0404689
:1003A000C8F81030CDF808C005F03BFC454B069866
:1003B0005A6842F000725A6008F036FB424A179BB6
:1003C0000021B3FBF2F341481822F36014F05EFD04
:1003D0004FF47A723E4BB9FBF2F909F1FF325A60E1
:1003E000F0228BF823200020072298601A60AB6867
:1003F000DFF8F890DDF808C0C9F80030354BDFF8B9
:10040000F0B00FCB87E80F00A369179843F00803FB
:10041000A361A36918A943F00803A3610823CAF8DC
:100420001030CAF810C005F0FCFB19981AA905F0A5
:10043000F8FBD9F800301F0760D59BF89031012BED
:100440005CD8254B9BF891219B6813F0805800F0F5
:1004500088860027002F51D0204B214F18684FF07D
:10046000100AC7F814A0069917901E4805F0D9FB8A
:100470001C4908230B613C2004F02FFEC7F810A094
:100480004FF0000A95F891319A4533DA154ADFF8B2
:1004900050B00827CBF810707820576104F012FE96
:1004A000104BCBF8147078201F6104F00BFE0AF19A
:1004B000010AE7E7001BB700043100200005FA0538
:1004C000001001400000014040420F00C4300020F5
:1004D00010E000E0008401084814002010840108A6
:1004E000000C01400008014000ED00E0D4000020B5
:1004F0009C020020B8F1000F00F03A86642004F05E
:10050000ECFDA0229548002114F0C0FCE369002214
:1005100043F00703E361A36943F4006343F00C0372
:10052000A3618F4B002403F11001545401320E2AB1
:10053000F7D1FF229A77DA7783F8202083F82120F9
:10054000884B894AD9F800701A60214687483C22B6
:1005500014F09CFC07F04008052321460C20844A37
:1005600048438C5C814A8454B8F1000F06D11E3C8C
:10057000012C03D8FF24013B8454DBB2013105294F
:10058000ECD17C497C4A7162C0311370B1626A79E6
:100590007A497B4B01EBC20149781A70B806704B5F
:1005A00048BF0121D9620023764940F2DC505852FD
:1005B0000233102BF8D1012A40F0AC80724B0A3183
:1005C0001F68724BB7F90C001A68714B46321A60FB
:1005D000704BDFF8F481196011F0FEFB6E4911F0E9
:1005E00003FD7B89DFF8E491A8F80030FB89014620
:1005F000A9F800303063044611F042FC4FF07E5100
:1006000011F036FB15F0F8F94FF07E5111F030FB88
:10061000214611F0E9FC14F049FE604911F030FC6C
:1006200011F0F4FD5E4BB9F80070188038B211F08B
:10063000D3FB5C4911F024FC11F0E8FD5A4BB8F8EB
:1006400000C01880594B4FF4C8781F80CCF56173F7
:100650009BB207930CF5617C0027554B1FFA8CFC6D
:10066000B9460FFA88FB58460393CDF808C011F03D
:10067000B3FB494911F0B8FC4E4911F001FC824628
:1006800014F02AFF01465046059114F09DFF0246E2
:10069000504604920BF070FC0599824604F100402C
:1006A00011F0EEFB049A114611F0E0FA424911F004
:1006B000E7FB514611F0E4FB11F0A8FD0799039BFD
:1006C0000AB280B2934523F8020FDDF808C010DBB0
:1006D0000FFA8CF293450CDC00B20FFA89F93FB2A5
:1006E0004845B8BF8146B842A8BF07461FFA89F9F6
:1006F000BFB208F10A081FFA88F8B8F5AF6FB0D199
:100700000FFA89F9C9F100093FB22C4BB945B8BFBE
:100710004F461F8010A800211C2214F0B7FB284B65
:10072000284F1C6814F4007904F4006850D0A30426
:100730000DD4B8F1000F08D095F8842107F10C030F
:10074000012A18BF3B46079304E0079702E007F130
:100750000C02079217AB16933CE000BF3026002036
:1007600048140020701C002090040020F01C002081
:1007700037A00108AC020020EC1C00201CA10108DD
:100780008A0C0020BC0D0020800C0020CC0D002025
:100790008C0C0020900C0020000020410000A041A3
:1007A000960C00209999993E940C0020980C0020FA
:1007B000620E002035FA8E3C00007A44620E002062
:1007C000D4000020D88301089A0C00202C0F0020B0
:1007D000CDF81C906B790E2B03D003F0EF03082BA0
:1007E00002D101238DF85230012004F07FFB18B1B3
:1007F0004088003018BF0120C4F340038DF8463014
:10080000C4F380138DF84930C4F3403300F0010085
:100810008DF84030C4F3C0338DF845008DF8433077
:10082000B8F1000F07D095F88481B8F1010EDEF120
:10083000000858EB0E08C4F300438DF84A30F36A01
:1008400019F1000918BF4FF00109003318BF012347
:100850008DF84C30C4F300538DF84D30B5F8463167
:10086000B5F844E1ADF85030B5F8523104F001016B
:10087000ADF84E30C4F380438DF8473095F85431CD
:10088000C4F3C002181C18BF01208DF84800B5F849
:100890005001E4048DF844808DF841108DF8422019
:1008A0008DF84B90ADF85400ADF856E004D5B64C39
:1008B000B4F84C41ADF85640B0F5FA7F02D90BB907
:1008C000ADF8563095F8D431B04886F8343000236E
:1008D00086F8353043709DF85230002B14BF022348
:1008E000002301B902B1013307EB8303DB6B4FF047
:1008F000000B0993CDF820B0099B33F80B204FF67D
:10090000FF739A4200F09581D3B2A14E9DF8451035
:100910001D01741919B1991E012940F284819DF8B5
:10092000491021B171599B48814200F07C819DF8AA
:100930004AE0BEF1000F04D071599648814200F0A0
:1009400072819DF8461039B161689348814203D1A4
:100950002189102900F067819DF8431039B1616841
:100960008D48814203D12189022900F05C819DF8E4
:10097000441039B161688948814203D12189022933
:1009800000F05181DDF858C0BCF1000F0FD0606855
:10099000DCF8001088420AD12189BCF804008842A2
:1009A00000F04181BCF80600884200F03C814FEA2B
:1009B0001228B8F1020F02D19DF8402004E0B8F1EE
:1009C000010F04D19DF84120002A00F02C819DF8F0
:1009D0004C2062B19DF852204AB9A3F10802012AC5
:1009E00005D871596E4A914208BF4FF004089DF82E
:1009F0004D2062B19DF852204AB9BEF1000F02D0DD
:100A00000C3B012B01E0043B032B40F2F480B8F1D6
:100A1000010F42D1634BFF2283F87C2083F87D20B5
:100A20002189627B4FF0000983F88090C3F88C40E5
:100A30006068ADF85C108DF85E2017A9022283F87B
:100A40003890C3F83C90C3F84090C3F84490C3F882
:100A5000789083F87E9083F87F908DF85F200393E1
:100A600005F0DFF87059A17A4A460CF037FE2046AF
:100A7000494642460BF060F8039B4B4AC3F89890F6
:100A8000C3F89020494A2046C3F8942003F190010E
:100A900003F194020FF010FBC5E0B8F1020F42D150
:100AA0000899434ACBB21C214B43089802EB030937
:100AB0004FF0000A4FF0010C89F8010089F802A0FC
:100AC00089F80AA002F803C0637B22896068C9F82C
:100AD0000C4017A98DF85E30CDF808C0ADF85C2049
:100AE0008DF85F8005F09DF87059A17A52460CF0A0
:100AF000F5FDDDF808C02046624651460BF01CF8B3
:100B00002C4B09F11001C9F810302B4BC9F818A073
:100B1000C9F81430204609F114020FF0CDFA0899F3
:100B2000013108917FE0B8F1030F61D19DF84730A2
:100B30001C4D8BB19DF8483095F836603BB1BDF83F
:100B400054301E4A2046B2FBF3F208213FE0204613
:100B500008214FF6FF723DE0BDF8543095F836603D
:100B6000B3F5FA7F2ED9154A2046B2FBF3F20821DD
:100B7000BDF8563092B20BF0B1F805EB8606C6F818
:100B800060010F4B2DE000BF9C0200207D1400206F
:100B90003CA001080004004000080140000C014096
:100BA000002C0140481400200F480008114900089B
:100BB000C814002019D70008E948000800127A007C
:100BC00031490008B24A2046B2FBF3F20121BDF8D8
:100BD000563092B20BF082F805EB8606AD4BC6F8A4
:100BE0006001C36095F83630013385F836301AE07D
:100BF000B8F1040F17D1BDF84E30A54AA64D92FBAF
:100C0000F3F22046BDF85030012192B295F83560DC
:100C10000BF064F895F8353005EB86060133C6F81D
:100C2000900185F835300BF1020BBBF11C0F7FF4FE
:100C300063AE994C994B94F83520002684F8B02186
:100C4000974A1E7015789946A5F11702022A1AD8FC
:100C5000636A0021985903EB060811F0A5FA10B158
:100C6000E36A7BBB27E08F4B06EB030E98E80F008F
:100C70008EE80F0099F8003010360133C02E89F845
:100C80000030E5D1ECE7884B13F835C003EBC50322
:100C9000D3F8048089F800C0B8F1000FE0D06645B1
:100CA000DEDA804A330103EB020E43440FCB0136F8
:100CB0008EE80F00F3E77D4B1A68984612F4805FC8
:100CC00023D11CE007EBC50797F84C00784B3E6D2D
:100CD0001870002EEFD000238342ECDAC3EBC3017F
:100CE0007218D2F800C0DFF800E2013341F80EC0FC
:100CF00001EB0E079188B9809279BA71ECE705F0A3
:100D0000EF03082B6B4B25D126E099F80090B9F141
:100D1000010FF4D9684E00274F4506F11006EEDAB0
:100D200056F8100C4FF07C5111F0AAF84FF07C519E
:100D300046F8100C56F8140C11F0A2F84FF07C5144
:100D400046F8140C56F80C0C11F09AF8013746F8D6
:100D50000C0CE1E70E2D08D11A78182D42F0100284
:100D60001A7008D104F0D2FA05E01A78192D22F091
:100D700010021A70F5E70EF0E3FED8F800305D03BC
:100D800002D44E4B01221A704D4B4E4D1A784E4FE5
:100D900042F004021A702B784FF48052012B8CBF62
:100DA000102314238DF85E304FF002038DF85F306E
:100DB000BB69ADF85C2043F00403BB618CBF012626
:100DC0000026424817A904F02CFF414B0EB1414ABE
:100DD00000E0414A00201A6004F0B2F9069A3F4B45
:100DE0003F4E93E80300BB6982E8030043F0080329
:100DF00018A9BB61179804F014FF0FF0BFFE9F23E2
:100E00008DF83C30322000234FF480598DF83D306E
:100E10008DF83E308DF83F3004F05FF90422C6F8BB
:100E2000149006980FA907F0C5F8C6F810909DF821
:100E30005E209DF85D30120242EA03429DF85F3069
:100E40001A43284B9A4214D0322004F046F9C6F8CF
:100E50001490F52007F07AF8FF2007F077F8702853
:100E6000C6F8109005D12B78022B02D1154B032226
:100E70001A702B78032B0CBF1F20022004F00EF8F1
:100E80002B78032B32D001200BF0D2F938E000BFD1
:100E900040420F002149000848140020300C002077
:100EA0008A0C00209C0C00201CA10108D40000200A
:100EB000D00D002096020020A40C00207813002002
:100EC000DC30002004310020001002400008014006
:100ED000EC300020B5460008C9460008F48401083B
:100EE000000C014015202000D10D0020022003F04D
:100EF000FDFF18B14088003018BF0120C007C2D5DF
:100F0000D8F8006095F800A0AA4D4FF0100B06F439
:100F10000063284600215A46069313F0B7FF4FF6A8
:100F2000FF73ADF83C30022306F400494FF000088F
:100F30001E408DF83E308DF83F800DD022A921F85B
:100F40004CBD9D4807F0C2FD0126042207232A70EC
:100F500085F80180AE70EB70B9F1000F0ED002235E
:100F600022A921F84C3D944807F0B0FD0123F21866
:100F70002B71AB7107236E71EB71D6B2BAF1010F11
:100F80000FD9202322A921F84C3D8B4807F09EFD64
:100F9000052301222B72AA72731C07226E72EA7259
:100FA000DEB2069B7BB1022322A921F84C3D834887
:100FB00007F08CFD092301222B73AA73731C0722EF
:100FC0006E73EA73DEB27B687D4843F440437B6016
:100FD0007B69DFF8EC8143F001037B61BB6943F47B
:100FE0000073BB6107F05DFE17A807F02FFE754B7D
:100FF00000271793744B022E189334BF3B4680236F
:101000001C934FF480731D934FF480631E93202331
:1010100017A91F9340464FF400531A96209319972F
:101020001B97219707F01FFED8F80030012E43F0E0
:101030000103C8F80030654B98BF00215A6888BF8B
:10104000012122F4702222F4807242EA01225A60C5
:1010500099685F4A013E0A4042F4602242F002026F
:101060009A60DA6AF6B222F4700242EA0656DE624A
:101070003846012329188A78002A5AD02A5C5E1C37
:10108000092A91F803E0F6B2504911D9A2F10A07F2
:1010900007EB47074FF0070C0CFA07FC0EFA07FEA8
:1010A000D1F80C8028EA0C0C4CEA0E07CF600EE059
:1010B00002EB42074FF0070C0CFA07FC0EFA07FE92
:1010C000D1F8108028EA0C0C4CEA0E070F61062BB1
:1010D0003E490ED8013B03EB83034FF01F0E0EFA7F
:1010E00003FE9A404F6B27EA0E0747EA02034B6361
:1010F00020E00C2B0ED8073B03EB83034FF01F0EB1
:101100000EFA03FE9A400F6B27EA0E0747EA020326
:101110000B630FE00D3B03EB83034FF01F0E0EFA42
:1011200003FE9A40CF6A27EA0E0747EA0203CB6222
:1011300000E01E460430102801D033469AE7234BC6
:101140009A6842F480729A609A6842F001029A604A
:101150009A6842F008029A6099681C4A09070ED5FD
:10116000FAE7571E092F8CBF00270127FFF772B936
:10117000184B83F8918105F0DFFDFFF7BFB9936845
:1011800043F004039360114A936813F00403FAD107
:10119000916841F4A00191600E4AB2F85801E0B99B
:1011A000B2F95A31C3B9B2F95C31D3F1010338BF96
:1011B000002312E05C1B002000080140000C0140ED
:1011C000080002404C2401406C1B00200024014018
:1011D000FDF7F1FF9C020020034613F0010340F0ED
:1011E0009380B34A00B2137110F0F6FDB14910F0CC
:1011F00047FEB14F0646B7F95A0110F0EDFDAD4973
:1012000010F03EFE0546B7F95C0110F0E5FDA94976
:1012100010F036FEA9498146304610F029FD04F051
:10122000C8FA0746304604F0C4FAA4498046284666
:1012300010F01EFD04F0BDFA0646284604F0B9FA87
:101240009E490546484610F013FD04F0B2FA824666
:10125000484604F0AEFA39468146504610F010FE7A
:1012600039468346484610F00BFE514606904046EC
:1012700010F006FE49460890404610F001FE314647
:101280000990504610F0FCFD4946C4F8B40106F13F
:10129000004010F0F5FD2946C4F8B801C4F8BC516F
:1012A000089810F0EDFD0146069810F0E1FC294683
:1012B000C4F8C001099810F0E3FD0146584610F04B
:1012C000D5FC3146C4F8C40108F1004010F0D8FD47
:1012D0002946C4F8C801584610F0D2FD01460998C5
:1012E00010F0C4FC2946C4F8CC01069810F0C8FDE3
:1012F0000146089810F0BCFC3946C4F8D0013046CD
:1013000010F0BEFDC4F8D4016D4E33689A031FD5AA
:10131000C82003F0E2FEAE200BF0CEF808B10EF0CC
:1013200044FD684D84F8D801C82003F0D6FE664B12
:1013300000210C222846C4F8DC3113F0A7FD02235B
:10134000EB7009F090F803F0A2FE604B0344AB6031
:101350005F4F594D3B6895F85F0195F8691195F815
:101360006A21B3F95E300CF031FAB84610B90120A9
:101370000BF08CFB574B0A271A7842F002021A70C6
:10138000554B10225A6108221A61DFF84C9119203E
:10139000D9F80C30013F83F01003C9F80C30D9F8AC
:1013A0000C3083F00803C9F80C3003F096FE0120DE
:1013B00003F0C6FE192003F090FE002003F0C0FEEB
:1013C00017F0FF07E1D108234FF0100A434FC9F887
:1013D0001030C9F810A03B681B0709D5404BC9F86D
:1013E00014A01B6898473F4B0122C9F810A01A703F
:1013F000D4F8E031187B10F0EFFC2E4910F040FDDE
:101400002E4910F035FC04F0D4F9374BC4F8E40150
:101410002849186910F034FD344BC4F8E8011888E5
:1014200010F0DAFC0146324810F0DEFD314910F0D0
:10143000DBFD314C314B186003F0A8FFFF211B226C
:10144000204613F023FD002222703A682C4B012124
:1014500012F0020F1970204604D061700321197038
:101460000221A170540704D519784C1C1C70032468
:10147000445412F00A0F0CD01A7804218154511CE4
:10148000C9B205244454D11C02321970D2B20621CB
:1014900081543268910604D519784C1C1C700724BD
:1014A0004454697908292DD00E2934D12AE000BF8F
:1014B0001400002035FA8E3C9C020020DB0FC93F4F
:1014C000D4000020A01A002024040020404B4C002F
:1014D000100C0020DC300020000C01403C020020F9
:1014E000880200208C0A0020F80B00201000002049
:1014F0000AE81C4100401C46C71C0020D40B0020F9
:10150000C61C00201C7804F1010E83F800E04FF0A7
:101510000B0E00F804E01C784FF00C0C04F1010EE7
:101520005FFA8EFE12F4803F83F800E000F804C0FA
:1015300009D004F1020CA84C84F800C0A74C4FF06D
:101540000E0C04F80EC0540708D51C7804F1010EE7
:1015500083F800E04FF0100E00F804E01C784FF024
:10156000120C04F1010E5FFA8EFE12F4806F83F804
:1015700000E000F804C00ED095F820C2BCF1000FC6
:1015800009D004F1020C944C84F800C0934C4FF045
:10159000130C04F80EC0940508D51C7804F1010E54
:1015A00083F800E04FF0150E00F804E0182913D17D
:1015B0001C784FF0160E00F804E004F1010E5FFAFB
:1015C0008EFE4FF0170C00F80EC004F1030E02342B
:1015D000E4B283F800E00155110304D519784C1CDE
:1015E0001C7019244454D40504D51A78511C197060
:1015F0001A2181541A78511C197014238354002124
:101600009822774813F042FC0FF00EFB754A764B98
:10161000B5F84E111A60754BB5F8960119807449EA
:1016200000230B808B70D8F8001001F1810E7149F6
:101630000A60714A137082B27049714CD1F800800F
:10164000DFF8F4C108F596784CF813801A5302338A
:10165000242BA4468846EFD13468E10454BFB5F882
:101660009C311346ACF8063000231EF80320B2B9B3
:101670000EEB0302917892F8039049450FD209B11D
:10168000013901E009F1010101EB8101527801EB1F
:10169000810101F5617189B204322CF81210043312
:1016A000502BE2D1230740F1F48095F89021062ACF
:1016B00000F2E980DFE802F004070E355172720093
:1016C00045F2F05201E042F6F8224E4B1A800FF03C
:1016D000E9FAD7E04B4B42F6F8221A8000010A23C0
:1016E00090FBF3F0A0F5B0600023474A9850043314
:1016F000482BFAD1454A464B40201A60454B1222EE
:101700001A7003F02DFC002800F0BD8001234FF07B
:10171000070A90F9000040218DE808043E4A3F4B3B
:10172000ABE0384B42F6F8221A803D4A384B402055
:101730001A60384B10221A7003F012FC002800F0D7
:10174000A28001234FF0000990F9000040218DE8AC
:101750000802344A4FF4E1338FE02A4B42F6F82274
:101760001A80314A2A4B40201A602A4B08221A70EC
:1017700003F0F6FB002800F0868001234FF0000CF8
:1017800090F9000040218DE80810284A4FF4E13319
:101790000FF0ABF9264BC3F8EC0170E0194B42F6A1
:1017A000F8211C481980062A4FF00C01204B214CCF
:1017B000017043D00022227083F8F02183F8F121D8
:1017C0001B2283F8F221052283F8F31183F8F42118
:1017D0004FF4E13440E000BFC61C0020C71C0020CD
:1017E000D41B002024040020841A0020881A002022
:1017F000740D0020DC000020BD190020C030002046
:10180000520200202A1B0020300100204D850008D4
:101810001C000020E81C0020B5870008A0860100FD
:101820003D8500080587000829850008B98600085D
:101830004814002014020020081A00200020207004
:1018400083F8F00183F8F101B64C212083F8F2010E
:1018500083F8F31183F8F421B34AB44B40201A60A3
:1018600003F07EFB78B101234FF0000EB04A90F9EF
:10187000000040218DE8084023460FF036F9003083
:1018800018BF012028B9082004F004F8A94AA74B82
:101890001A603368A84A13F4804F04D012211170E3
:1018A000A648A249086042F20101194089B1A44941
:1018B00044F620609D04088004D508211170A148D9
:1018C0009A490860DC0704D50C2111709E4897499D
:1018D000086011789805A1F10401517051D59B4C15
:1018E000079A9B4B22609A69079842F001029A611D
:1018F00003881025ADF83830964802230EA98DF8DC
:101900003A508DF83B3004F08CF9236891485B889D
:101910000EA9ADF8383004238DF83A3004F081F97F
:1019200023680120197A04F067F923688A4A5B6802
:101930004FF00009536117A88DF8615001251793E6
:101940008DF860908DF8625007F052F923680FA867
:101950005B7A8DF83E908DF83C3003238DF83D3056
:101960008DF83F500EF0FCFBD8F800207B4B3C3A42
:101970001A603B684FF0FF3243F010033B60784B36
:101980001A60784B784A794C1360794A8033136037
:1019900033680025D903257040F1AA80DFF8FCA147
:1019A0006B4F40F22A3903F0F9FF4FF001084A4625
:1019B0005046294684F8008013F068FABB696D48E8
:1019C00043F00403BB614023ADF8383018238DF891
:1019D0003B300EA903238DF83A3007F077F8FB6906
:1019E000654C43F00203FB61644BA7F694771A68D9
:1019F000634BB2FBF3F22388013A23F45C731B04BC
:101A00001B0C238092B21D23A3852285A4F8148089
:101A1000238C23F001031B041B0C2384238CA2883A
:101A2000218B23F0020321F0730109041B04090C2C
:101A30001B0C92B241F0600143EA0803A2802183AB
:101A4000A5862384238B23F008031B041B0C43F07F
:101A500008032383B4F844306FEA43436FEA5343E7
:101A60009BB2A4F84430D7F8A83F43EA0803C7F86C
:101A7000A83F384607F015F917A807F0E7F8414BDB
:101A8000CDF860A0179380231C934FF480734FF020
:101A9000100A1D9338464FF4005317A92093CDF830
:101AA00064A0CDF868901B951E951F95219507F0B1
:101AB000DAF8A3890FA89BB243F40073A3813B68B3
:101AC00043F002033B608DF83CA08DF83D808DF81B
:101AD0003E508DF83F800EF043FB2B4B1A682B4B8A
:101AE000EA500435802DF8D107F031FE07F02FFEC3
:101AF00033685A0540F18480254C264BD4F8206584
:101B000004201E6003F02CFA0421C4F8240503F01D
:101B100001FA214B84F8280508201E6003F020FA02
:101B20003EE000BF90D00300E98400081C000020C4
:101B3000A18500089D850008E81C00207985000823
:101B40002A1B00208585000891850008F40B0020E1
:101B500000100240000C014000040140F00B002086
:101B6000BC0B0020CC04002030140020A113002066
:101B70003414002000080140000400404C00002004
:101B800000366E013404004084770108A21300205F
:101B900048140020E4270020282800203D160020BB
:101BA000884B0821186003F0B5F9874D2C220021DD
:101BB00084F82905284613F069F97C232B708E23BD
:101BC0006B70E023EB7010207D2385F82B30C4F878
:101BD0002C6503F0C5F91021C4F8300503F09AF91B
:101BE00084F834052020C4F8386503F0B9F92021C1
:101BF000C4F83C0503F08EF984F840050FF052FA62
:101C0000724B734C1B78022B65D1724B00251A88DE
:101C1000322022F040021204120C1A801A884FF46B
:101C2000805622F038021204120C1A801A8892B2DE
:101C300042F040021A809F238DF83C308DF83D50D1
:101C40008DF83E508DF83F5003F047FA8DF85D5007
:101C5000614D04226E6117A80FA906F0ABF92E6141
:101C60009DF85E309DF85D201B0243EA02439DF81B
:101C70005F201343594A934219D00AD8A2F51A4259
:101C8000033A93420CD002F51A420232934209D031
:101C90001CE0534A934205D00132934207D015E02D
:101CA000202300E0802323804FF4807302E04FF470
:101CB000807323806380A38822881B02A360534320
:101CC000E360484B012283F8412504E00023238090
:101CD0006380A360E360E5680DB3ED0A2E4600273C
:101CE000AF420ADA7C1964100DF15C08E00241464B
:101CF000102206F0DDF90F2806DC09F0C9FB394B8C
:101D0000F602C3F844650AE0002358F803200132C4
:101D100054D10433102BF8D125462646E0E7324C47
:101D2000324A236813F4002318BF0123137003F011
:101D3000AEF92F4B18602F4B5A791946052A03D15B
:101D40002D4B4FF4C8721A802C4B4FF47A721A80C4
:101D50002B4BC8221A802B4B1A7842F008021A70BB
:101D6000294B1A7822F002021A70226840F6020308
:101D700013406BB12548264B1860264B0320187082
:101D8000254B012018702548002303802448038038
:101D9000930306D5234B03221A71DA7842F001022D
:101DA000DA708B68012223601F4B1A701F4B1A7860
:101DB00062F07F021A7023B0BDE8F08F671C3446D2
:101DC000ABE700BF44280020F827002004310020A2
:101DD0002000002000380040000C014018BA20000C
:101DE0001740EF0048140020D40000207913002091
:101DF000180C00209C020020941B0020FE300020C4
:101E0000FC30002096020020033100201604002040
:101E1000DC2700203B140020540000204E1B002033
:101E2000501B0020A01A002078130020DC30002076
:101E3000A5492DE9F04F0A68A44802F59C432033D8
:101E40000360A34B89B01E78C6B118465B689A42FE
:101E500040F21081013E06700CE12B68072C98BF00
:101E6000195D9C4B88BF21461B689B489847032CF3
:101E70000CD99749013601EB44042081964BF4B20A
:101E80001A78964DA2421A46E7D81EE02B6804F154
:101E90000E0203EB82029388D2880028E9D0C01A90
:101EA0004FF47A714843D31A90FBF3F0084440F69C
:101EB000C903984205DC40F2EE239842B8BF1846A9
:101EC00001E040F6CA0080B2D3E7854B42F2010937
:101ED0001B6803EA0909D9F10109824B38BF4FF0A9
:101EE0000009D3F800A0804BB9F1000F06D17F495B
:101EF000097819707E4908787E4908701E781EB1ED
:101F00007C4B1E7886F001067148032190F82D70F5
:101F10000F23B7FBF1F101EB4101791A80F82C3066
:101F200092F80080C9B200F12E0303EB41010024B6
:101F3000D5F800B04FEA480C0491254664455ED0C0
:101F400016B16D4BE05A00E03046BBF814308342C6
:101F500006D8BBF81630834234BF0023012300E0CB
:101F60000023664A0BBBA2F1780352F82520924564
:101F700002D2634BE05A1CE0EAB21046029201938F
:101F8000CDF80CC00DF0B6FC029A019B032ADDF8D7
:101F90000CC00ED84FF0010E0EFA05FE93F82C205F
:101FA00022EA0E0283F82C2003E00AF5967342F829
:101FB0001430B9F1000F1DD10499454B04EB4402D4
:101FC000885293F8C01021B9022F13D9012083F849
:101FD000C0004C4B981832F803E0428894337244A6
:101FE000B0F804E0724492B2E25210B2032390FBC4
:101FF000F3F080B2424B0135E05202349EE7344B9D
:10200000384A93F82C101D46B1F10F0779427941F7
:1020100083F8DA103C4B69B13C4909684E0109D498
:102020001268D9689A60521AC82A1ED9012283F808
:1020300021201AE02E48012101702E4812680170FB
:102040009968DA605B68521A9A4203D92E4B0022D3
:1020500083F821200024444507DAE0B20DF04AFC61
:10206000274B23F814000134F5E795F82D300133A0
:1020700085F82D301A4E3368DD0405D5234B1B68D7
:10208000DC0701D40FF044F9144B0F4A19681468A7
:102090008B7A002B3ED01A4A013B32F813000B7B9F
:1020A0001BB1C0F53B60083080B200B2A0F57A7079
:1020B000B0F57A7FA8BF4FF47A7020EAE0700FF095
:1020C0008BFE13495BE000BFE030002030020020AF
:1020D000901900201C000020E81C0020DC000020DB
:1020E000D4000020C0300020C8000020D000002014
:1020F000010000200000002098190020081A00208C
:1021000052020020BE190020740D00204002002061
:1021100000007A44326810043AD59E4AD2F8DC00B6
:10212000201A002834DB04F59C402030C2F8DC0083
:102130009948C97A4579994830F8150080B290FBE2
:10214000F1F092F8E010013101F00F0182F8E01097
:102150000A4482F8E1001846914A9A5C013310441F
:10216000102B80B2F8D100B290FBF3F000B26428DB
:10217000A8BF642020EAE0700FF02EFE89490FF01E
:1021800033FF89490FF07CFE10F066F8874B18800A
:102190003368874D13F4807F00F0E180854B864FD4
:1021A0009C4203D9BB780BB90123BB70BB78002BD1
:1021B00000F0D580804B95F8008093F821407F4B4C
:1021C000611E4C424C411A68002C9A460CBF0323F6
:1021D0000023C8F38008C2F38069049397F8203085
:1021E000052B00F2B780DFE803F0034E5379869F9A
:1021F000B8F1000F3AD0DFF89CB1DBF8F400BBF87F
:10220000F8100DF0A1FB012808D16D4A6420116877
:10221000DBF8FC20D28800FB02123A61B9F1000F12
:102220000CD0DBF8FC301B7943B10DF05BFC0323D1
:1022300087F820304FF47A73FB61CFE7002C40F031
:1022400089805F4B3A691968DFF86CB1914209D90E
:102250000DF048FC03228BF8202040F6B832CBF872
:102260001C20BBE701228BF82020B7E74FF48060E9
:10227000B9F1000F02D00DF025FC01E00DF050FC8B
:1022800000233B6166E0002C46D10DF02BFCA5E756
:1022900024B1052387F82030012100E02146B8F160
:1022A000000F0ED03B4A3B48D2F8F430DA89454B58
:1022B0001A805A809A80D0F8FC205288DA80022254
:1022C00004923F4B1A687B699A4202D8B8F1000F1A
:1022D0003DD147F23053FB6103231EE02B7843F0DE
:1022E00002032B700FF014F8354B1A68FB69134486
:1022F000BB61042311E0324B1A688CB1BB699A426E
:1023000028D9314B1B781BB9DAF80030DA0721D411
:102310002B7823F002032B70052387F820305DE72C
:10232000FB691344BB6115E0254B1A481A68D0F8C5
:10233000FC306421DB884FF4806001FB03233B61A8
:10234000002387F82030FB700DF0EAFB46E70029F8
:102350007FF444AF049A12B110460DF013FB1B4CEE
:1023600004F5C470B4F84E110DF0EEFAA3468046A1
:1023700070BB03F0B1F894F8E231012B06D9104B91
:10238000044A1B68D2F800219A422CD203F094F838
:1023900029E000BF901900205C1B00206C1B00206E
:1023A000711A00200000C84200C07F44EA1C0020CF
:1023B00003310020404B4C00740D002040020020EF
:1023C000C030002052020020080000209C020020A3
:1023D000994B94F8E2211B684FF47A7101FB0232A9
:1023E000964BC3F800212B785B0740D53368DF0696
:1023F0003DD5934B1B78DC0639D4924B8F4C1F781C
:102400008FB19BF8E031B8F1000F16D173B18A4B50
:102410001A68D4F804319B1A002B07DA0EF078FF03
:1024200084F8088123E0B8F1000F19D110200DF0D5
:10243000A9FA012384F8083119E03BB17E4A4FF430
:102440007A71126801FB0323C4F8043194F808314F
:102450006BB106F08DFD794B002283F8082106E070
:1024600094F808311BB106F083FD84F8087100224E
:102470009BF8DEA19BF8DF11BBF89871BBF89AE1DD
:102480001346714C9B08105F0232B842C4BF63F020
:102490007F03DBB27045B8BF43F04003082AF0D198
:1024A000664C94F809219A4205D194F80A21F92A38
:1024B00004D8013200E0002284F80A2184F80931AE
:1024C000604B5E4A1878614F994638BB3B68D80725
:1024D00008D5B8F1000F21D12B78DA071ED50EF000
:1024E0002BFC1BE02B785B0715D5594B1B7893B160
:1024F000584BDB787BB992F80B310133DBB2032BFD
:1025000082F80B310AD911B10EF002FF06E0B8F1E2
:10251000000F03D1F8E7002384F80B3194F80A2167
:10252000464B142ADFF8408140F0A78099F800203C
:102530001AF1000A18BF4FF0010A6AB393F8092193
:102540005F2A11D12A7802F0040202F0FF0112B1D1
:102550000EF0DEFE08E00B20039101930DF012FA5D
:102560000399019B83F80A11BAF1000F14D094F873
:1025700009317D2B10D12B7803F0040303F0FF0207
:1025800013B10EF0C5FE07E00B2002920DF0FAF930
:102590002A4B029A83F80A212B7803F0040303F0F4
:1025A000FF00002B69D194F80931244A572B0AD136
:1025B000294B4FF47A721A80284B1B6858075CD558
:1025C0000A22274B35E03168490717D55A2B15D118
:1025D00092F80C312BB1012382F80C0182F80D31F5
:1025E0004BE092F80E3183F0010382F80E310BB10B
:1025F0000C2000E00D200DF0C5F93EE05D2B00F051
:1026000074845B2B00F073845E2B02D1032000F0F6
:102610006FBC562B01D104F08FFB99F800302BBB17
:1026200094F80931054A972B40F07A840D4B4FF40A
:10263000C8721A8021E000BFC0300020901900202D
:1026400096020020080000205202002040020020D4
:10265000C8000020740D0020FE3000203C02002045
:10266000FC300020941B0020100C002094F809314D
:102670006F2B40F04C840EF05FFB3368580736D563
:1026800094F80E31B44A93B12B7859070FD5B34B58
:10269000B3F90610BBF89831994208DD3B6813F096
:1026A000010304D13221A2F81C1182F80E313B68DB
:1026B00013F4803FA84B0CD094F81E212AB993F84C
:1026C0000C2112B93222A3F81C21012384F81E31F7
:1026D0000DE094F80C2152B12A7802F0040202F0C5
:1026E000FF0122B9012283F80C1183F80D21D8F8DB
:1026F0000090002309F1810A3B6009F183049846A8
:102700000AF1020303EB080113F808204B7814F8D0
:10271000010C9A420AD2214606F0DCFF30B114F8CF
:10272000023C01229A403B6813433B6008F10408D5
:10273000B8F1500F04F10404E2D1894B1F784FB176
:10274000884CDFF840822368874F13F0020F40F077
:1027500036832EE309F1D10809F1D20408F101030F
:10276000D919DA5D4B7814F8010C9A4229D2214626
:1027700006F0B0FF28B394F802E020797B4B0EF10D
:10278000FF3E4FF00C0C0EEB4E0E0CFB00FC9E447B
:10279000714B94F803A003F5907909EB0C02516892
:1027A00071450ED0002109F80CA0C2F804E0916038
:1027B000012202FA00F093F8502122EA000083F887
:1027C00050010637482F04F10604C7D1684BDFF8E3
:1027D000B8A11F68674B4FF000091B680493664B54
:1027E0001B780593DAF80030002B00F0D98293F8BB
:1027F0000080B8F1000F00F0D382DAF804200498CA
:10280000821A002A0DDB012101FA09F100F5FA72A2
:10281000CAF80420504A92F8500120EA010182F8D7
:102820005011059A002A00F0BB821AF8041C58784F
:102830000431C9B2484A002840F07182474830F953
:1028400011104E48B0F8960100F1C804A14201DD14
:102850009C7815E0C838814202DA9C7864420FE027
:10286000012303FA09F33C4890F8502122EA0303BC
:10287000049A80F8503102F5FA73CAF804308FE2F6
:1028800092F8503143FA09F3DB0700F18982002CFA
:10289000CCBF022001200DF0FBF808F1FF33132B11
:1028A00000F27582DFE813F0140021002E003E00D4
:1028B00072007900DD004101A501DA010A0273020C
:1028C0003E004D007900DD004101AF0013017701AA
:1028D0003B7838461C44FA2CA8BFFA2424EAE47456
:1028E0003C7002F087FB01201AE07B7838461C44DC
:1028F000642CA8BF642424EAE4747C7002F07AFBA0
:1029000002200DE0FB7838461C44642CA8BF6424E8
:102910001B4B24EAE474FC70196802F027FB0320C7
:102920002146C8E179790D2021446429A8BF64219A
:1029300021EAE171797108F085FCB8F10D0F00F022
:10294000268239790E2021446429A8BF642121EA16
:10295000E1713971AFE100BF9019002052020020EF
:10296000013100204002002044020020E88A0108D2
:102970007C0C0020C0300020C80000209C020020F9
:10298000981C00203C020020B41A0020B9790520D0
:10299000214481F30801B9718DE1A74B1B681A78B6
:1029A000022A21D1204601930FF016FAA3490FF015
:1029B0001BFB019B596A0FF05BF9002102900FF09D
:1029C000FDFB029A019B40B910469C490FF014FC94
:1029D000029A019B10B1994A00E000225A620F202E
:1029E000114608F043FC0AE099780F202144C829D9
:1029F000A8BFC82121EAE171997008F023FCB8F161
:102A00000F0F00F0C4818C4BD3F8008098F8003091
:102A1000022B1AD120460FF0DFF988490FF0E4FAB3
:102A2000D8F820100FF024F9002104460FF0C6FB5F
:102A300030B9204681490FF0DFFB10B17F4C00E038
:102A40000024C8F82040122059E198F80110122003
:102A50002144C829A8BFC82121EAE17188F80110E2
:102A600029E1754B1B681A78022A21D1204601936F
:102A70000FF0B2F971490FF0B7FA019B196B0FF023
:102A8000F7F8002102900FF099FB029A019B40B9E0
:102A900010466A490FF0B0FB029A019B10B1674AD9
:102AA00000E000221A631020114608F0DFFB0AE064
:102AB000197B10202144C829A8BFC82121EAE1714F
:102AC000197308F0BFFBB8F1100F00F060815A4B8A
:102AD000D3F8008098F80030022B1AD120460FF06E
:102AE0007BF956490FF080FAD8F82C100FF0C0F897
:102AF000002104460FF062FB30B920464F490FF029
:102B00007BFB10B14D4C00E00024C8F82C40132092
:102B1000F5E098F80B1013202144C829A8BFC8215C
:102B200021EAE17188F80B10C5E0434B1B681A7865
:102B3000022A21D1204601930FF04EF940490FF0AF
:102B400053FA019BD96B0FF093F8002102900FF01C
:102B500035FB029A019B40B9104638490FF04CFBF7
:102B6000029A019B10B1354A00E00022DA6311207D
:102B7000114608F07BFB0AE0997D11202144C82909
:102B8000A8BFC82121EAE171997508F05BFBB8F193
:102B9000110F00F0FC80284BD3F8008098F800302B
:102BA000022B1AD120460FF017F925490FF01CFA15
:102BB000D8F838100FF05CF8002104460FF0FEFA48
:102BC00030B920461D490FF017FB10B11B4C00E037
:102BD0000024C8F83840142091E098F8151014200B
:102BE0002144C829A8BFC82121EAE17188F815103D
:102BF00061E0114BD3F8008098F80030022B21D10E
:102C000020460FF0E9F80D490FF0EEF9D8F828103A
:102C10000FF02EF8002104460FF0D0FA30B920460C
:102C200006490FF0E9FA10B1044C00E00024C8F89E
:102C30002840092063E000BF9C1C00200000C8421F
:102C400000007A4498F8031009202144C829A8BF3D
:102C5000C82121EAE17188F803102CE0B54BD3F8C4
:102C6000008098F80030022B1AD120460FF0B4F8FB
:102C7000B1490FF0B9F9D8F834100EF0F9FF00217E
:102C800004460FF09BFA30B92046AB490FF0B4FA76
:102C900010B1A94C00E00024C8F834400A202EE00E
:102CA00098F80D100A202144C829A8BFC82121EA9C
:102CB000E17188F80D1008F0C5FA68E09D4BD3F873
:102CC000008098F80030022B1DD120460FF084F8C8
:102CD0009A490FF089F9D8F840100EF0C9FF002189
:102CE00004460FF06BFA30B9204693490FF084FA8E
:102CF00010B1914C00E00024C8F840400B20214660
:102D000008F0B4FA43E098F817100B202144C829C2
:102D1000A8BFC82121EAE17188F81710CBE7012884
:102D200035D19878864B33F91110B1F5617F05DB09
:102D300040F633039942B8BF0B4601E04FF461738C
:102D4000B8F10C0F23D14FF49664A3F5617394FB93
:102D5000F0F493FBF4F492F85131E4B2A34216D0AC
:102D6000032C94BF2346022382F851310E2202FB2A
:102D700003B3744A03F2AE73136002F055F9404690
:102D8000214608F05FFA601CC0B20CF081FE0122FF
:102D900002FA09F26C4B93F850110A4383F8502160
:102DA00009F10109B9F1040F0AF10C0A7FF41AAD17
:102DB000C6E43368D80510D5644BDB786BB1D8F81E
:102DC0000030990709D53B8813F001090AD102F0B8
:102DD00083FB01200CF076FE04E001200CF0A0FE45
:102DE000012300E00023226852070CD55BB10120CB
:102DF0000CF096FE3B88980708D402F06DFB022089
:102E00000CF060FE02E002200CF08AFE3B88504A83
:102E100013F0030F4FF0100114BF51611161D8F886
:102E2000002012F00A0F2BD02268D1060DD55A07C8
:102E30000ED404200CF046FE464BB3F904200A23BE
:102E400092FBF3F2444B1A8002E004200CF068FE7F
:102E500023689B0606D53B88580606D440200CF014
:102E600031FE02E040200CF05BFE2368590607D5D6
:102E7000384BB3F904200A2392FBF3F2374B1A8044
:102E800023684FF480701A0502D50CF01BFE01E098
:102E90000CF046FE324A53791746082B01D00E2B10
:102EA00002D140200CF03CFE33685B0540F19C8071
:102EB00097F820321BB92B7813F0040F02E0236837
:102EC00013F4002F0CD0204B002283F852213C2019
:102ED0000AF0D4FB002800F0878006F065F8F6E7DA
:102EE0000EF0E0F80DF0A0FE7EE0012000E00220F0
:102EF0005FFA80F909F1FF338BF8AC3709F0A6F8D7
:102F000007F0B6F848460CF0C3FDFFF7B6BBBAF1C0
:102F1000000F3FF485AB7E2B7FF482ABFFF7ABBB9A
:102F2000A72B21D10F4B1A7842F004021A70FFF739
:102F3000A4BB00BF9C1C00200000C84200007A44D3
:102F4000520200207C0C002090190020740D0020FB
:102F5000000C0140B40B0020240C0020281B002092
:102F60009C020020960200200021BB2B079101D17A
:102F7000022303E0B72B04D14FF6FE73ADF81E30E9
:102F800009E0BE2B01D1022303E0BD2B1AD14FF67D
:102F9000FE73ADF81C30D8F80030BDF81C10B3F843
:102FA00060200A44A3F86020BDF81E10B3F8622028
:102FB0000A44A3F8622003F0BFFE002384F80A311C
:102FC000FFF75BBB792B04D192F8133123F0010397
:102FD00006E07A2B7FF451AB92F8133143F00103F2
:102FE00082F81331FFF749BB09B0BDE8F08F00BF8D
:102FF000834B2DE9F04FB3F90610824B91B018685E
:103000004389994211DBB1F5FA6F90F807E009DACC
:10301000CA1A02FB0EFEA3F5FA639EFBF3FE0EF145
:10302000640E04E0CEF1640E01E04FF0640E83897B
:10303000994219DBB1F5FA6F047A10DA632CC3EB0D
:10304000010205D9643CA4B25443C3F5FA6302E01B
:103050005443A3F5FA6394FBF3F4643405E0632C62
:1030600003D8C4F1640400E06424674BB3F89621EC
:1030700093F95E310492654A9BB2D2F800C0059381
:10308000664600225E4B049D33F912304FEA420837
:1030900003935B1B03F2F31740F2E635AF4203D80C
:1030A000002BB8BF5B4201E04FF4FA73022A4FF0E5
:1030B0006407574D2ED09CF81991B9F1000F04D038
:1030C0004B45CCBFC9EB0303002393FBF7F96FF02B
:1030D000630B35F819A00BFB093B09F1010935F920
:1030E00019900FFA8AF5C5EB090505FB0BF595FB61
:1030F000F7F5AA44474D28F805A085182D796B43AC
:10310000454D93FBF5F364339BB20EFB03F393FB46
:10311000F7F72FE09CF81A91B9F1000F04D04B4556
:10312000CCBFC9EB0303002393FBF7F76FF0630AEF
:1031300005EB47090AFB073B05EB4707B9F90E907A
:10314000B7F91050059FC9EB050505FB0BFB9BFB71
:10315000FAFBC9EB0B0909FB07F92E4FA7F80490FE
:10316000857983EAE377A7EBE3776F432A4D97FBF3
:10317000F5F764370CEB020595F801A0244B07FB2B
:103180000AFA642503F11C099AFBF5FA09F802A072
:1031900096F80BA003F11F0907FB0AFA9AFBF5FA50
:1031A00009F802A096F815A0022A07FB0AF703F116
:1031B000220997FBF5F71D4616BF253383F82740F4
:1031C00003F802E009F80270039B049FBB42114F11
:1031D00004DA37F808305B4227F808300132032A56
:1031E00006F101067FF44EAF074CB4F898319942CE
:1031F00014DBB1F5FA6FA8BF4FF4FA610FE000BF1E
:10320000520200207C0C00209C020020100C0020A8
:10321000E81A00201C0C00200CFEFFFF1946C91AFA
:103220004FF47A725143C3F5FA63B1FBF3F34FF0F5
:10323000640E93FBFEF205EB4201088D6FF0630113
:1032400001FB023305EB4202B2F92A1002B28A1ADC
:10325000534393FBFEFEB54B70441B88B44E5B0694
:10326000F88045D5B34BB3F904000A2390FBF3F083
:10327000B14BB3F84030C01A00B20EF0ADFDAF490B
:103280000EF0FEFDAE4980460EF0F2FC02F091FA1F
:103290008146404602F08DFA8046B6F902000EF0F3
:1032A0009BFD8246B6F900000EF096FD4946834626
:1032B0000EF0E6FD41460346504601930EF0E0FD58
:1032C000019B014618460EF0D1FC0EF09FFF4946C7
:1032D000308050460EF0D4FD4146814658460EF0EF
:1032E000CFFD014648460EF0C3FC0EF08FFF708004
:1032F000944B914E18880EF06BFD934B06F14401F0
:103300000122B5F8428002F0F1F80EF0A5FF8F4BD4
:1033100080B2B8FBF0F000F1010C1B781FFA8CFCB6
:10332000A5F84CC00BB3B6F94EA00023824AFE5A52
:1033300002F1500E33F90E8002F158010AFB08F831
:1033400033F801900FFA8CFBC9EB060998FBFBF8E8
:10335000C84423F80E805E520233082BE6D17B4B23
:1033600000211970A2F84E0004E0B6F84E30013B7F
:10337000A6F84E30B5F94E106F4A00294FF0000301
:103380000FDDB2F94C60724AA2F10800185E9A5A39
:10339000484390FBF6F0121AFA520233082BF2D18E
:1033A00001E0A2F84E306B4B1A689A4612F0020FF9
:1033B00074D0694B2A6E1B6845F207219A1A8A421B
:1033C0005D4E6BDD336607F007FC644BDFF8A081D0
:1033D0001A789946032AB8F8003022D10A2B2CD942
:1033E0000023282089F8003001F077FE07F0F4FB75
:1033F000B6F8640005F082FD594B5A491B68DA782B
:1034000090FBF2F0421C082A28BF08220A70597962
:103410001B7992B251435A43A6F86610A6F8682069
:103420000BE00A2B09D803234E4A89F80030002309
:103430001370A6F86630A6F8683099F80020474B5C
:10344000012A0DD002D3022A1ED027E0B5F866204B
:10345000B8F800309A4221DD012389F8003011E0EC
:10346000B8F80020B5F86810914202DD02221A7007
:1034700011E03149B1F8661001318A4202DD0022C3
:103480001A700BE0082007E0B5F86830B8F80020A3
:1034900001339A42E0DC07200CF074FADAF80020DD
:1034A000314E12F4006F00F09E802B4BE86E1968CD
:1034B000214BC0EB010A45F20720824540F393807F
:1034C0002748B7F90690D0F80080D96698F80A0026
:1034D000B4F84E110128A9F57A79244F03D06BD3A3
:1034E000022847D06AE093F88120196F03EB42026B
:1034F000B2F88400082291FBF2FE80B2CEEB01010B
:10350000014491FBF2F2A3F88C0092B2196740F6E5
:10351000E4435343B8F808004FF47A72C0EB133316
:103520005343B8F9062093FBF2F346E0440200202F
:103530001C0C0020B40B0020E81A002035FA8E3C49
:10354000DB0FC93F140C00206F12833A39020020B0
:10355000401B0020D4000020E03000203B1400205D
:10356000DC2700205400002003310020E827002041
:10357000E02700203378B8F808B05807C7F800B043
:103580001CD5AC4802920CF0DFF9029A20B912F077
:10359000100F18BF4FF0000909FB09F2322392FB0C
:1035A000F3F39944B8F906304FF47A7203FB09F348
:1035B00093FBF2F35B4400E000233B603B68D5E9FA
:1035C000240103FB0AFA4FF47A739AFBF3FA10EB27
:1035D0000A0041EBEA710023C5E92401964A0EF086
:1035E0005BFE964B1860964B1A68994612F4805F02
:1035F00002D00A200CF0C6F9D5F89830914F002B74
:1036000058D0914AD7F89C1010689246814251D800
:1036100097F8A000B7F8A220596810BB012087F8DE
:10362000A0008A5C52B31A78D4F8DC37013A00FA69
:1036300002F21A4201D101F083FD012385F8A43082
:1036400005F072FCB5F8A2307E4FBBB9D7F89830C0
:103650001B78053B012B11D801F019FDC7F8A80014
:103660000CE04FF0000887F8A0808B5C33B1404637
:1036700001F066FD87F8A48005F056FCD5F8982087
:10368000B5F8A21052686F4B525CFE2A03D100229B
:10369000A3F8A2200EE0FF2A02D105F069FC09E0A0
:1036A000DAF800000A2707FB02020131C3F89C2068
:1036B000A3F8A2103378590703D5644B08225A6146
:1036C0003AE0D9F80020D20703D4614A43F001035D
:1036D0001370604B1B781B0703D4337823F001036E
:1036E00033705D4B1B685F0702D55C4A128862B974
:1036F000B5F8AC200AB1980705D4594B1B880033A4
:1037000018BF012300E001233BB1022385F8A43058
:10371000337823F00103337005E03278D10758BFC6
:10372000022385F8A43001F0B2FCD5F8B030C01AFD
:10373000002801DB05F0F8FB0DF0B4FC494B1A78CA
:10374000002A00F09B80D5F8B430002B00F0F18601
:10375000D5F8B4003B4C01F015FD002800F0E986D7
:10376000D4F8B40001F009FD092801D03F2852D156
:103770004FF00008D5F8B8603B4F44462EB13B48A7
:103780003968324611F0CAFB10B9B84604B93C4654
:10379000374B10379F42F1D3ECB1D5F8B8302268DF
:1037A0002848D75CD8F80020D15CB94213D15A1C04
:1037B00059B92D2B09D8C0F8B8200344202702445A
:1037C00083F8BC7082F8BC1005E02B4483F8BC7011
:1037D000C5F8B820E1E7D5F8B8300BB1444510D0B2
:1037E000244805F071FC444507D854F8100B05F047
:1037F0006BFC092005F061FCF5E71F4805F064FC4F
:103800000026D5F8B8309E42A2D2184B985D05F03C
:1038100054FC0136F5E7D4F8B830002B40F094861C
:10382000042840F0018704F1BC000CF033FA00F0EA
:1038300080BE00BF24040020407E0500EC2700204D
:1038400040020020E81A0020C0300020000C014097
:1038500003310020960200203C020020FC300020B2
:10386000FE30002001310020248B0108A41B002021
:10387000F48C01081CA2010821A20108D44F97F87A
:103880004A30012B40F05086DFF86C83DFF86C93F0
:103890003B68C8F80070C9F80030C346DFF85CA385
:1038A0005246106801F06EFC002800F03086DAF80D
:1038B000000001F062FCDBF80030024693F848108B
:1038C00019B924283DD1012238E0012904D14D281D
:1038D0000CBF0222002231E0022904D13C280CBF97
:1038E000032200222AE003290CD140284FF00001D6
:1038F00002D983F848104EE058711971D971987146
:1039000004221BE0042907D1997983F8490080EA51
:1039100001029A71052211E005293CD158791979E3
:103920008842987906D950409871481C18710B4408
:103930001A7230E090420CBF0622002283F8482021
:1039400029E03178A34B490725D4232ADAF800105F
:1039500016D1A1484FF0010E80F800E09F48C5F84D
:10396000B410C5F884110292019305F0ADFB9C4898
:1039700005F0AAFB019B197841F002011970029A27
:10398000D5F888311B78934205D1964A964B1A6038
:10399000964A974BDA60DBF80030DFF85CA293F8C8
:1039A0004820062A7FF47AAF93F8490002F090F994
:1039B000002840F0A585DAF8002092F849B0BBF164
:1039C0004A0F00F09A8562D8BBF1330F00F08A8469
:1039D00029D8BBF1290F00F023840CD8BBF1250FA7
:1039E00000F0FA83BBF1270F00F0FC83BBF1230F3B
:1039F00040F0A78531E1BBF12D0F00F0228408D8FB
:103A0000BBF12B0F40F09D8505F039FB607100F094
:103A100074BDBBF12F0F00F0DD84BBF1310F00F05E
:103A2000EE8400F08EBDBBF13E0F00F0578114D83C
:103A3000BBF1370F00F0958405D8BBF1350F00F0CE
:103A4000A98200F07EBDBBF1390F00F0D883BBF135
:103A50003C0F00F04D8100F074BDBBF1430F00F04E
:103A60005D8408D8BBF1410F08BF4FF0000900F09A
:103A70003E8400F066BDBBF1440F00F0F484BBF15E
:103A8000480F40F05E8507F04BFB00F036BDBBF100
:103A9000D00F00F07F8367D8BBF1CA0F00F04181DF
:103AA00019D8BBF14E0F00F0EF83BBF1C80F00F047
:103AB000CA80BBF14C0F40F0448505F0E0FA84F871
:103AC000D60105F0DCFA84F8D70105F0E3FAA4F892
:103AD000D80100F012BDBBF1CD0F00F0668305D810
:103AE000BBF1CC0F00F0808200F02BBDBBF1CE0FFC
:103AF00000F06483BBF1CF0F40F0238505F0CAFAD4
:103B00006FF4AF6E00EB0E039BB2C62B98BFA4F808
:103B1000960105F0BFFAA4F8400105F0BBFAA4F83D
:103B2000420105F0B7FAA4F8440105F0B3FAA4F88D
:103B3000D80105F0A4FA05F0A2FA05F0A0FA05F004
:103B40009EFA84F8850105F09AFA84F8920105F04E
:103B500096FA284BD3F8009005F09CFA00EB800011
:103B60004000A9F85E004AE3BBF1D80F00F066817F
:103B700015D8BBF1D30F60D004D8BBF1D20F49D018
:103B800000F0DFBCBBF1D40F00F08982BBF1D60F8F
:103B900008BF4FF0000900F0778200F0D2BCBBF103
:103BA000F20F00F0CC822BD8BBF1EF0F40F0C984AC
:103BB000DFF84090D9F800A005F06CFAAAF862008E
:103BC000D9F8009005F066FAA9F8600000F095BCFD
:103BD000D41B0020033100200131002051A2010834
:103BE00021A20108EFBEADDEF04F00200400FA056F
:103BF00000ED00E0100C0020542800205828002080
:103C0000BBF1F30F00F03384BBF1FA0F00F0E08258
:103C100000F097BC337803F0040303F0FF09002B96
:103C200040F06B8405F02BFA022884F8AC0740F2D0
:103C3000B782C94B83F8AC97B2E205F02BFAC74BB9
:103C4000188000F05ABC92F805904FEA5909B9F172
:103C5000120F1CD84FF0000A1DE005F010FA1328CF
:103C600015D8DFF814A300F1200BDAF8003003EBCD
:103C70008B0B05F004FABA4B0BF1010903F5A8729E
:103C8000197A814200F048810C339342F8D109F04F
:103C9000F1FC00F032BCCA4507D205F0FBF907ABD6
:103CA00023F81A000AF1010AF5E700234B45AD4A53
:103CB00006DA07A931F8131022F813100133F5E7DB
:103CC00009F1FF3902EB49032232934203D000216C
:103CD00023F8021FF9E70122A34B77E205F0CFF9A1
:103CE00084F8E00105F0CBF984F8DF0100F005BCB1
:103CF000DFF88492D9F800A005F0C1F918B10228C4
:103D0000A8BF022000E001208AF80000D9F80030A6
:103D10001B78022B18BF954A954B08BF954A1A602D
:103D2000EBE3954A814611689246097802296AD1E7
:103D3000DAF8003009F1080B019305F0A0F90EF054
:103D400047F88E490EF050F9019B43F82B00DAF842
:103D500000B005F094F909F10A030BEB830B0EF0A8
:103D600037F887490EF040F9DAF80030CBF8040054
:103D7000019305F084F90EF02BF882490EF034F926
:103D800009F10E0B019B09F10109B9F1030F43F889
:103D90002B00CDD1B9F1070FDAF800B01AD105F038
:103DA0006EF90EF015F875490EF01EF9CBF84400C7
:103DB000DAF800B005F063F90EF00AF86F490EF07A
:103DC00013F9CBF84800DAF800B005F058F98BF891
:103DD0004C0012E005F053F90BEB09035870DAF8C8
:103DE00000B005F04CF90BEB0903D872DAF800B01B
:103DF00005F045F90BEB0903587509F10109B9F113
:103E00000A0FC7D179E3DAF800B005F038F90BEB07
:103E100009035870DAF800B005F031F90BEB09032B
:103E2000D872DAF800B005F02AF90BEB090309F1B2
:103E30000109B9F10A0F5875E5D15EE38146DFF853
:103E400038A109F1080BDAF80030019305F022F9E6
:103E50000DF0BEFF4B490EF0C7F8019B43F82B0055
:103E6000DAF800B005F016F909F10A030BEB830B41
:103E70000DF0AEFF43490EF0B7F8DAF80030CBF89A
:103E80000400019305F006F90DF0A2FF3D490EF084
:103E9000ABF809F10E0B019B09F10109B9F1030F10
:103EA00043F82B00CBD1B9F1070FDAF800B01AD1E3
:103EB00005F0F0F80DF08CFF32490EF095F8CBF8D4
:103EC0004400DAF800B005F0E5F80DF081FF2D4967
:103ED0000EF08AF8CBF84800DAF800B005F0DAF80E
:103EE0008BF84C0012E005F0D5F80BEB0903587085
:103EF000DAF800B005F0CEF80BEB0903D872DAF867
:103F000000B005F0C7F80BEB0903587509F101097A
:103F1000B9F10A0FC7D1F0E21B788BF8013005F038
:103F2000AEF889F8010005F0AAF889F8020005F05A
:103F3000A6F889F80300144BDAF80000134AC3F816
:103F4000B40100218130C3F8B02101F08FF8104B8B
:103F500080F001001870D0E29C020020240C0020A8
:103F6000F48C0108741C002015020020D9ED000813
:103F7000480000204DEA0008100C002000002041FD
:103F80000000C84200007A44E81A0020DC03002048
:103F90000800002005F073F80B283FF678AE4FF0CC
:103FA000060A0AFB00F0D84BD0301B6803EB000A6E
:103FB00005F065F803283FF66AAE8AF8060005F0BA
:103FC0005EF88AF8010005F05AF88AF8020005F058
:103FD00056F88AF8030005F052F88AF8040005F054
:103FE0004EF88AF8050088E25379092B7FF64FAE28
:103FF000DFF82093D9F800A005F041F88AF8000016
:10400000D9F800A005F03BF88AF8010005F037F870
:10401000D9F800306428A8BF6420187105F02FF883
:10402000D9F800306428A8BF6420587105F027F83B
:10403000D9F80030FF28A8BFFF20987105F01FF8BD
:10404000D9F800A0642828BF64208AF8070005F08A
:1040500016F88AF80200D9F800A005F010F88AF8DE
:104060000300D9F800A005F015F8D8F80030AAF838
:104070000A005B790A2B40F24082D9F8009004F0E4
:10408000FEFF89F8090038E205F004F89F4B23F899
:10409000090009F10209B9F1100FF5D12DE25379A8
:1040A0000F2B7FF4F4AD04F0EAFF072881463FF6BA
:1040B000EEADDFF854A2DAF800B004F0EBFF0E2307
:1040C00003FB09F90BEB0903A3F82101DAF800B0AF
:1040D00004F0E0FF0BEB0903A3F82301DAF800B0CA
:1040E00004F0D8FF0BEB0903A3F82501DAF800B0C0
:1040F00004F0C5FF0BEB090383F82701DAF800B0E1
:1041000004F0BDFF0BEB090383F82801DAF800B0D7
:1041100004F0B5FF0BEB090383F82901DAF800B0CE
:1041200004F0ADFF0BEB090383F82A01DAF800A0D5
:1041300004F0BAFF0AEB0903C3F82B01DDE104F038
:104140009EFF0F2881463FF6A2AD04F098FFC9EB11
:10415000C90904EB090383F8D00003F1D00904F086
:104160008EFF89F8010004F08AFF89F8020004F04C
:1041700086FF89F8030004F082FF89F8040004F048
:104180007EFF89F8050004F07AFF89F8060001F047
:10419000BDF8B2E13378590700F1AF8105F0AEFB0D
:1041A00007F054FF05F064FFA7E133785A0700F1E8
:1041B000A4814FF4C873A5F8AC309EE133785B0757
:1041C00000F19B81524B1A7842F004021A7094E17C
:1041D00033785807E4D5B4E1A06004F065FF01F03E
:1041E00061FB8AE104F056FFA4F8580104F052FF85
:1041F000A4F85A0104F04EFFA4F85C017DE104F03C
:104200003EFF84F87A0104F03AFF84F87E0104F05E
:1042100036FF84F87D0104F032FF84F87F016CE101
:1042200004F038FFA4F8800104F034FFA4F8820100
:1042300004F025FF84F8840104F02CFFA4F8860123
:104240005BE104F01CFF84F8900104F023FFA4F864
:104250009A0104F01FFFA4F8960104F01BFFA4F8D4
:10426000980104F00CFFDAF8003084F891015B79D2
:10427000082B40F2428104F00DFFA4F89C0104F0E9
:1042800009FFA4F89E0138E192F805B00323BBFBB7
:10429000F3FBBBF1120F3FF6FAACDFF87C904FF066
:1042A000000ADA4580F0298104F0E9FE89F8A001CE
:1042B00004F0F0FE40F2ED23984205DD40F6CA031B
:1042C0009842A8BF184601E040F2EE20A0F2EE208E
:1042D000192390FBF3F089F8A1010AF1010A09F111
:1042E0000209DEE704F0CBFE84F8920105E104F058
:1042F000C6FE04EB090309F10109B9F1080F83F8BF
:104300008801F4D1F9E000BF100C0020A40D0020BA
:10431000960200207C0C00209C020020019004F0FA
:10432000AEFE6071019BA36004F0BEFE01F0BAFA1C
:1043300004F0A5FE84F8900104F0ACFEA4F8580146
:1043400004F0A8FEA4F85A0104F0A4FEA4F85C014D
:1043500004F0A0FEA4F8800104F09CFEA4F8820101
:10436000CBE053794FF0070AB3FBFAF2C2EBC2027B
:104370009A1A12F0FF0F7FF48AACB3FBFAFABAF183
:10438000000F00F0BA8004F07AFE5FFA80FB4FFA6B
:104390008BF000F0ABFD0AF1FF3A5FFA8AFA814632
:1043A00000283FF474AC80F800B004F073FEA9F864
:1043B000020004F064FE89F8040004F060FE89F84D
:1043C000050004F05CFE89F8070004F058FE89F847
:1043D0000600D4E7DFF8D89209F1400A04F05AFE4B
:1043E000A9F8B00204F04BFE89F8B20204F047FECF
:1043F00009F1040989F8AF02D145EFD17DE004F05D
:104400003EFE1F283FF643ACD8F800305B79082BFE
:104410007FF43DAC00F18C0A04F03CFE04EB8A0909
:1044200000F03F00A9F8020004F034FEB9F80220C1
:10443000800100F4FE531343A9F8023004F01FFE7C
:10444000000104F82A0004F01AFE14F82A3000F0E3
:104450000F00184304F82A0004F011FE89F8010047
:1044600001F09CFA49E0012385F8B83145E004F0F9
:1044700006FEFF28824623D100238DF81B309DF8CD
:104480001B30052B15D89DF81B20774B9DF81B1072
:10449000012003EBC101496800FA01F153F8320031
:1044A00089B2482204F022FE9DF81B300133DBB2B2
:1044B000E3E76E484FF48051042204F017FE1CE03D
:1044C00005283FF6E4AB002004F0C4FD04F09EFD97
:1044D000D8F80030186800F045FED9F8000004F064
:1044E00063FD504603F004FC0A2000F0F6FD0CF0DA
:1044F0009BFBD8F8003083F849B0002004F0AAFDF7
:1045000004F084FDD8F80030002283F8482095F8A4
:10451000B8314BB1386800F025FE0BF07DFB00F0A0
:10452000E6FD534A534BDA60534B4C379F427FF4BE
:10453000A6A9524B9B68002B00F0938050489847E7
:104540008FE009F097F8DBE70C2803D14D4804F021
:10455000BBFD59E00A2801D00D2857D14A4C4B48E1
:1045600004F1BC0604F0B0FD3046232110F0C1FC7C
:1045700010B1801BC4F8B800D5F8B830002B38D083
:10458000591E705C404A202801D10B46F6E7C2F85C
:10459000B8301344002283F8BC203D4B3D4CD3F887
:1045A00000A0D4F80090DFF8E080484610F0AEFCA0
:1045B00008F1BC07064649463846324610F0AEFCC4
:1045C000354B38B908EB060292F8BC2052445278B9
:1045D000520703D010349C42E3D306E09C4204D23D
:1045E000701CE3683844984702E02C4804F06CFDE6
:1045F00000232B4800213022C5F8B83010F046FCCB
:1046000028480378002B94D0274809E07F2811D14F
:10461000013BC4F8B83000222344244883F8BC206E
:1046200004F052FDFFF794B80C288FD07F2804D1F6
:10463000FFF78EB82F2B3FF68BA8A0F12002D2B245
:104640005E2A3FF685A813B920283FF481A85A1C9A
:104650002B44C5F8B82083F8BC0004F02EFDFFF70A
:1046600077B811B0BDE8F08FECA101080008014057
:104670000400FA0500ED00E06C1C0020F80B00209F
:10468000A21C002026A20108E81A002019A901088E
:1046900058000020248B0108F48C010831A2010885
:1046A000A41B00200131002021A201084DA2010815
:1046B0009C020020034B4FF4805208B11A617047EE
:1046C0005A61704700080140034B4FF4805208B113
:1046D0005A6170471A6170470008014003685A1C0C
:1046E000026019707047016B0346C26810B54069DB
:1046F00041B1196C541A005D013918BF0A46C0B2A5
:104700001A6410BD196A405C0131914228BF002132
:10471000C0B2196210BD036B13B15A68036C01E09B
:10472000C269036A9A4237BFC068C3EB02008018AF
:10473000C3EB0000C0B27047436B13B190F8440064
:104740007047826A436AD31A584258417047436A95
:10475000816A02698B4238BF9B185B1A416B21B199
:1047600049680B44511E8B4203D2013AD31AD8B286
:1047700070470020704743799B070AD5436A8269D6
:10478000D154426A03690132B2FBF3F103FB1123F6
:1047900043627047437903F0020303F0FF0243B121
:1047A0000369416A826A013BDBB2881A23EA00008E
:1047B000704710467047437913F0010307D0C36870
:1047C000C169026A013B881A1840C0B27047184696
:1047D0007047437910B513F0010304460DD0FFF77D
:1047E000EAFF58B1226A6369985CE3680132B2FB60
:1047F000F3F103FB1123236210BD184610BD426A7A
:10480000806A131A58425841704741717047334AC1
:1048100010B5136C90681944081A40F68C2398421E
:104820009160D060516013463CD9127893F94510DD
:104830008A420BD1111F082908D893F8461018296D
:1048400001D8013103E083F8442002E0002183F81D
:10485000461093F944108A421CD1204991F8471020
:10486000C1B1002191421E4806DA03EB810424699C
:1048700020F811400131F5E7511E00EB41011630DF
:10488000814203D0002421F8024FF9E71549087846
:104890000130087083F84520002201211A7083F846
:1048A000471010BD92F84710B9B1A0F2EF2440F2C2
:1048B000DA518C4208D811780B2905D80B1D01312B
:1048C000117042F8230010BD002283F84720991888
:1048D00004320020302A0861F9D110BD8014002074
:1048E000180200201602002010F80A3C0133DBB247
:1048F0000A2B00F80A3C07D910F8131C034A0023BE
:1049000022F8113000F80A3C704700BF180200205E
:10491000024B1A6C01321144196470478014002054
:10492000024B53F820301B6819807047A8150020EF
:10493000074BA1F57A7153F820304FF47A701A685A
:104940001B894B4393FBF0F39BB21380704700BF6E
:10495000A81500208C46654B65492DE9F04F1B6872
:104960004C899846220200234FF00009B8EB020858
:1049700069EB03098A88002716040A8989B0A2FB1B
:10498000084502FB0955E20942EA4562B4184A8823
:104990004FEAE5134FEAC236CA8847EB0305CDE973
:1049A0000645A2FB084502FB0955220A42EA0562B8
:1049B00016EB020A8A894FEA2523A8FB024502FB6F
:1049C00009554FEAD4524FF0000742EA452247EB1F
:1049D000030B12F5FA664FEAE55343F10007CDE900
:1049E0000467B6F5FA6F77F10007019060DAA2FB71
:1049F000026702FB03F107EB41070521A6FB014516
:104A000001FB0755DDE9066769104FEA3400361AE5
:104A100067EB0107CDE90667DDE90401A608354C1F
:104A200046EA8576AF104FF0FF35BAEB060A6BEB1E
:104A3000070BA042A94128DADDE9066740F6AC542D
:104A400012194FF0000543EB050302FB03F1A2FB33
:104A500002236FF0060403EB4103514204FB0311F0
:104A6000A2FB044536190D444FF00B0147EB050737
:104A7000A2FB014501FB0355CDE906676D104FEA26
:104A80003404BAEB040A6BEB050B08FB09F3DDE910
:104A90000401A8FB088909EB43094FEAD87242EAEE
:104AA00049024FEAE973801A61EB0301CDE9040181
:104AB000114B019E1A68A2FB0A4502FB0B55620DC1
:104AC00042EAC5226B15DDE90645121B63EB0503BF
:104AD000D40B44EA434406B13460BCF1000F02D069
:104AE000049FCCF8007009B0BDE8F08FA02500202D
:104AF000D025002024FAFFFFA42500202DE9F04F47
:104B0000724BDFF8D0811A68B8F8006089B0C6EB44
:104B100022135B437600C6EBE202B8F902601B1376
:104B20005643B8F90420039153439B1303EBE62645
:104B300006EB860380331B120593654BB6F5FA3AF4
:104B40001B684FEAE67747F1FF3BC8F8186004930B
:104B5000AAFB0A670AFB0BF3B8F8102007EB430720
:104B60000692B8F80E30B8F908200793D3170AFB5D
:104B700003F102FB0B11AAFB02238146B8F90A00DC
:104B80000B44C1171D0306FB01F300FB0733A6FB13
:104B900000011403194445EA1255020A42EA01626F
:104BA00012194FEA2123B8F8064043EB05030032FF
:104BB000A2FB040143F5004304FB03114B10CA1789
:104BC00000930192DDE900231343B8F80CC06FD0C5
:104BD000069A002012B2D3177343A6FB024502FBCC
:104BE0000733079A1D4412B2D3170AFB03F3AAFB3B
:104BF000026702FB0B331F4472047B04A41843EAD0
:104C0000D63345EB0305049B0019C3F580164FEA24
:104C1000E6714FEAC17343EA56034FEAC6720FFAD0
:104C20008CF64FEAC60141EB0501121A63EB010352
:104C300040F63544A2FB040104FB0311DDE9002327
:104C40000DF02AFBB8F916404B1304FB03F6420B98
:104C500042EAC142E51702FB0566A4FB0245634335
:104C6000354402FB0535A4FB02232B44540E44EAD1
:104C7000C314B8F9142024184FEA636545EB010505
:104C80005143D31700FB0313A2FB00011944C20CCC
:104C900042EA413212194FEAE143B8F912404FEAB1
:104CA000122043EB050340EA03602201024400E0C6
:104CB0000022B9F1000F02D0120AC9F80020039AAD
:104CC0000AB1059B136009B0BDE8F08FAC25002048
:104CD000A82500200C26002070477047324B2DE994
:104CE000F0411C88314B0A265A89B3F91250A41A94
:104CF0001A89ED025443B3F91420E413224495FBBE
:104D0000F2F22244DA615643A2F57A6202FB02F41F
:104D1000B3F90480B3F902C0B3F90E7002FB0CFCC6
:104D200002FB08F2B3F90C802413674304FB08F478
:104D3000241404EB62320232DC88921002F5004245
:104D4000B3F920506243B3F900304FEAEC2404EB8E
:104D5000E72404EB8304AC40154B02341B68D20BF0
:104D6000A3EBA4044CF250332B41634355BF5B00CB
:104D7000B3FBF2F3B3FBF2F35B001A12524340F6BB
:104D8000DE3462430B4C08365C43241404EB2242AD
:104D900002F6CF62361103EB221300B1036001B1BA
:104DA0000E60BDE8F08100BFB4250020E42500209E
:104DB000B025002043E3FFFF13B50C4B04465B68AE
:104DC0001B20022101AA984770B19DF804209DF88C
:104DD000053043EA022303F54E5310334FF48C722F
:104DE00093FBF2F32333238002B010BDBC250020D7
:104DF000054B1A7802F0FF0122B101220270002255
:104E00001A70704701707047BC1E002037B5104BF8
:104E100004465D68187806216A46A847A8B19DF83F
:104E200000209DF80130012043EA022323809DF8F1
:104E300002209DF8033043EA022363809DF804209A
:104E40009DF8053043EA0223A38003B030BD00BFC4
:104E5000BC25002013B5104B04465B683B2006219F
:104E60006A469847A8B19DF800209DF801300120BE
:104E700043EA022323809DF802209DF8033043EA91
:104E8000022363809DF804209DF8053043EA022345
:104E9000A38002B010BD00BFBC25002030B508497A
:104EA00000230A780C4607495D56854203D1FF2549
:104EB000013A5D54D2B20C333C2BF4D1227030BD98
:104EC000EC1C0020F01C00200023074A1A44516803
:104ED000814203D00C333C2BF7D170470023C362CF
:104EE00013725360704700BFF01C002010B5084BD0
:104EF00001461A680023D41894F90240901C8C4291
:104F0000184403D00833282BF5D1002010BD00BF72
:104F1000701C002038B1438811EA030003D08B4293
:104F200014BF02200120704730B50B4B0B4A1C68A0
:104F30001378042B0DD8591C04EBC3039D88C9B208
:104F4000284203F1020302D01170184630BD0B460F
:104F5000EFE71370002030BD701C0020A81C00205B
:104F6000014B00221A70DFE7A81C00202DE9F04752
:104F70008278C6781E4BC2F1640802EB820C544260
:104F80005FFA88F84FEA4C0CC6F16409A4B203F149
:104F90001807A5B228B2002804DC002D14BF15465E
:104FA000012500E0454600FB00FA6D430AFB06FAC6
:104FB0009AFBF5F54D4468434FF00A0A90FBFAF06E
:104FC000604480B258800D88B1F802A000B2C5EBF1
:104FD0000A0A00FB0AF04FF47A7A90FBFAF00544D3
:104FE00023F8025F0A34BB42A4B2D2D1BDE8F087F5
:104FF0000E1B002010B544780078002303FB03F15A
:105000001939614301F6C4115943414340F6C412B2
:1050100091FBF2F1034A22F813100133072BEDD173
:1050200010BD00BFE81A002010B50D4C2068FFF736
:10503000E1FF20680023447A03FB03F1193961433F
:1050400001F6C4115943192291FBF2F1054A22F8E5
:1050500013100133072BEFD1BDE81040024985E75B
:105060007C0C0020F61A0020DC03002010B5002381
:10507000C25C8A4204D1C2189478D278944204D394
:105080000433502BF4D1002010BD012010BD10B509
:10509000094A0A491368886800BF12689342F7D129
:1050A000074A11684FF47A7202FB01F4201AB0FB30
:1050B000F1F002FB030010BDC030002010E000E062
:1050C0005414002038B50446FFF7E1FF0546FFF70A
:1050D000DEFF401BA042FAD338BD10B504462CB108
:1050E0004FF47A70FFF7EEFF013CF8E710BD08B50A
:1050F0000F4B1A780023D9B2914207D20D490020F4
:1051000051F82310013309680880F4E73220FFF7D3
:10511000E4FF094B1B685A0308D5084B9B685B03E7
:1051200004D4BDE8084040F2DC50D6E708BD00BF1B
:10513000300C0020A8150020D40000209C02002084
:1051400008B5024B1B68984708BD00BFEC30002033
:1051500008B503689B69984708BD08B503685B6993
:10516000984708BD10B504462046FFF7F6FF18B96A
:105170000A20FFF7B2FFF7E710BD08B50368DB6848
:10518000984708BD08B503685B68984708BD10B527
:10519000044C2068FFF7F6FF18B12068FFF7EDFF19
:1051A000F6E710BD3428002008B503681B6898474F
:1051B00008BD014B1868F7E76C1C0020A0F17D03C7
:1051C000012B70B504460D460A4E05D830687D2186
:1051D000FFF7EAFF84F0200430682146FFF7E4FF80
:1051E00035B12B881C4404EB142404F0FF042C80FC
:1051F00070BD00BF6428002030B585B004AC002528
:1052000024F8025D0091ADF8060021461020FFF75A
:10521000D5FF9DF806002146FFF7D0FF9DF8070057
:105220002146FFF7CBFF9DF800002146FFF7C6FFA0
:105230009DF801002146FFF7C1FF9DF802002146BD
:10524000FFF7BCFF9DF803002146FFF7B7FF9DF86D
:105250000E002946C043C0B2FFF7B0FF05B030BD15
:1052600038B5054C05465E212068FFF79DFF206894
:105270002946BDE8384097E7B8300020014B5E2151
:10528000186891E7B830002010B50A4C5E28014636
:10529000206805D15D21FFF787FF20683E2105E0EA
:1052A0005D2903D1FFF780FF20683D21BDE8104054
:1052B0007AE700BFB830002010B50446C0B2FFF74F
:1052C000E3FFC4F30720BDE81040FFF7DDBF10B5D2
:1052D000B0F904300C4C994204DA02882088C0F5F9
:1052E000617003E04288208800F5617080B200B2EE
:1052F000C91AA0F56170484312B2D31A90FBF3F0BB
:1053000000F5617080B210BD9A0C002038B5002401
:105310000E4D21460E4870222C700FF0B7FD21462D
:105320000C4B1B680B4493F9022072B11C680848AF
:105330000C500A189888073190809B7970299371D6
:105340002B7803F101032B70EAD138BDD00D00207A
:10535000D10D002070140020094B0E221B6802FBA7
:105360000030437AFF2B07D0064A12789A4203D9BD
:10537000054A32F8130000E0808800B2704700BF91
:10538000CC0D0020E81C002052020020454B2DE9E6
:10539000F74F1D68444B2946D3F800B0434B1C68B7
:1053A000434B1E6830460CF06BFD5946009030466A
:1053B0000CF066FD2146074630460CF061FD59466B
:1053C000814628460CF05CFD2146824628460CF0BA
:1053D00057FD2146804658460CF052FD5946064678
:1053E00058460CF04DFD01460CF042FC2146019060
:1053F00020460CF045FD01460CF03AFC019983462D
:105400004FF07E500CF032FC59460CF02FFC294C2A
:105410004946206050460CF029FC01460CF028FC5F
:105420003946606040460CF023FC01460CF020FC3D
:105430004946A06050460CF01BFC01460CF018FCDD
:105440002946E06028460CF01BFD01460CF010FCDC
:1054500001464FF07E500CF009FC594605460CF011
:1054600005FC0099206130460CF000FC01460CF070
:10547000FFFB3946606140460CF0F8FB01460CF03A
:10548000F7FB0099A06130460CF0F2FB01460CF0EE
:10549000EFFBE061284601990CF0E8FB206203B0C5
:1054A000BDE8F08F101E0020141E0020181E0020E2
:1054B00030000020540C0020054B00221A605A6076
:1054C0009A60044B00221A605A609A60704700BFCD
:1054D000D02800207C280020034B00225A609A60CC
:1054E0000022DA601A617047A81C0020F8B5074650
:1054F0000C464868002115461E460CF055FE58B172
:1055000028460CF069FC10490CF0BAFC01464FF03B
:105510007E500CF069FD6060616830460CF0A8FBBD
:10552000014630460CF060FD25680646294638469F
:105530000CF09CFB014630460CF0A2FC01462846CC
:105540000CF096FB2060F8BDDB0FC9402DE9F0415F
:1055500002780346202A00F10100F9D0092AF7D089
:105560002D2A02D10346414D04E02B2A08BF0346F1
:105570004FF07E551E460024334616F8012BA2F14B
:105580003007F9B209290DD8394920460CF078FCCA
:10559000044638460CF020FC014620460CF068FB1F
:1055A0000446E9E72E2A17D1314F334616F8010B8E
:1055B0003038C2B2092A0FD80CF00EFC39460CF074
:1055C00013FD014620460CF053FB2949044638469A
:1055D0000CF056FC0746E8E71A7802F0DF02452A8D
:1055E00038D15A782D2A02D10233012604E02B2A21
:1055F00014BF013302330026013B002713F8012FAB
:10560000303AD1B2092903D80A2101FB0727F5E76F
:10561000B7F59A7F28BF4FF49A77B8464FF07E517E
:10562000B8F1070F07D9084612490CF029FCA8F178
:1056300008080146F4E707F0070737B108460C49A8
:105640000CF01EFC013F0146F7E72EB120460CF09E
:10565000CBFC04E04FF07E5120460CF011FC0146DB
:1056600028460CF00DFCBDE8F08100BF000080BFB3
:105670000000204120BCBE4CF0B50124B0FBF4F585
:105680008D4201D34C43F9E70026DCB1B0FBF4F5C1
:1056900004FB1500B4FBF1F41EB9002D01DC002C55
:1056A000F3D1092D03F101075FFA85FC04DD002A1F
:1056B0000CBF5725372500E0302565441D700136A5
:1056C0003B46E2E71C70F0BDF0B50124B0FBF4F5F9
:1056D0008D4201D34C43F9E70026DCB1B0FBF4F571
:1056E00004FB1500B4FBF1F41EB9002D01DC002C05
:1056F000F3D1092D03F101075FFA85FC04DD002ACF
:105700000CBF5725372500E0302565441D70013654
:105710003B46E2E71C70F0BD70B50646B6FBF2F4FE
:105720000846154614B12046FFF7F6FF05FB146442
:10573000024B1B5D00F8013B70BD00BFDAA60108FB
:105740002DE9F843089E002B0746884614460CBFF7
:105750004FF020094FF03009334613F8012B0AB9F6
:10576000254603E0002CFBDD013CF6E7002D04DDBF
:1057700038464946C047013DF8E724EAE474254627
:10578000331B595D19B13846C0470135F8E7284643
:10579000BDE8F88380EAE073A3EBE0738B4206DB9D
:1057A000002801DD401A704702D0084470470020ED
:1057B000704770B504460CF029FD2030402857D8BA
:1057C00020462C490CF018FD28B120462A490CF03F
:1057D0004DFA0446F4E7204628490CF0EFFC28B1C6
:1057E000204625490CF044FA0446F4E720462449B3
:1057F0000CF002FD30B1224920460CF037FA014688
:105800001F480AE020461F490CF0D8FC40B11C4953
:1058100020460CF02DFA01461A480CF027FA0446EF
:10582000214620460CF02CFB0546294620460CF06C
:1058300027FB0021064628460CF022FB12490CF0FB
:1058400015FA014628460CF01BFB10490CF010FA23
:10585000014628460CF014FB0D490CF007FA0146EE
:1058600030460CF00DFB014620460CF001FA70BDED
:10587000002070BDDB0F4940DB0FC940DB0F49C082
:10588000DB0FC93FDB0FC9BF92E741399730083CB6
:1058900015A82A3E024B9A6822EA000098607047D9
:1058A0009C020020024B9A6810439860704700BF2A
:1058B0009C0200200A4B1A8801321A80094B1A6890
:1058C00001321A60084B1A88013292B2202A04D1A0
:1058D00000221A80054B1A8801321A80704700BFD7
:1058E000961300209C13002098130020B030002055
:1058F000114A30B50028B8BF4042104C90FBF2F37B
:1059000004FB03003C2568430D4D90FBF2F22D682B
:105910002D7B25B903EB830303EB830301E0C3EB8A
:10592000031302EB830304FB02020B804FF47A7330
:1059300092FBF3F24A8030BD80969800806967FF41
:10594000E4270020022803D0431E584258417047E4
:10595000064B1B681B7823B1054B1868C0F3C04089
:105960007047044B1878C0F3800070476819002016
:10597000400200200331002008B507480FF0C6FAA6
:10598000C0B21428044B04D8421C20211954D0B2B0
:10599000F7E700221A5408BDED1E0020F0B5244A96
:1059A000244D2549002314682B700B751A461846A0
:1059B000A61876884EB9A75C3FB92B7000230875EE
:1059C0004B752F7818461A460CE0360548BF013053
:1059D00002F1040203F1010348BFC0B2802ADBB226
:1059E000E6D1EAE7C5B2BD420CD214F8205001302E
:1059F0002E099E4205F00F05A8BF731C9542A8BF53
:105A00006A1CEFE74B758A750C4851084C1E0470F0
:105A100002F001020A4811440170C3F34702094928
:105A2000501E087003F0010307491A440A70F0BDC4
:105A30003014002038140020A81C0020441400203A
:105A400046140020471400204514002010B50A4BCE
:105A50000A4A1B7842609C18094A046012789A42EC
:105A600004D3D31A0B6000234B6010BDC3F1800335
:105A70000B604A6010BD00BF20200020911F002055
:105A8000901F00201FB5684602A9FFF7DFFF044BF7
:105A90001868029B1844039B184405B05DF804FB8A
:105AA0008C190020054A064B10781B7883422EBFC4
:105AB000C0EB0300C0F18000C01870472020002018
:105AC000901F0020024A00231370024A137070478F
:105AD000901F0020202000202DE9F041038A8789B3
