:020000040800F2
:10000000005000205D2A0108092B01083114010865
:10001000092B0108092B0108092B01080000000029
:10002000000000000000000000000000092B010893
:10003000092B010800000000092B01080114010828
:10004000092B0108092B0108092B0108092B0108BC
:10005000092B0108092B01089DCD000899CD000846
:10006000092B0108092B0108092B0108092B01089C
:10007000092B0108092B010859CD0008092B01089B
:10008000A1CD0008092B0108092B0108092B010843
:10009000092B0108092B0108092B010895CD00083F
:1000A000092B010815CD0008092B010825CD0008F2
:1000B00005CD0008F5CC0008E5CC0008DDCD000832
:1000C000D5CD0008D9CD0008D1CD0008092B0108F5
:1000D000092B01084DCD000841CD000835CD0008A1
:1000E00011140108092B0108092B01080000000068
:1000F0000000000000000000000000000000000000
:0C01000000000000000000005FF808F1A3
:100110002DE9F04F754B764EA3B03360002373602A
:1001200009F092FE18B90DF005FD09F0B1FE08F0D6
:10013000FBFC704B704C1A78704D42F001021A7043
:1001400000230A930B930C934FF4E0130D93236851
:10015000297B43F480332360A36943F01003A36138
:10016000236803F400330B930A9B01330A930B9B20
:100170001BB90A9BB3F5A06FF2D122685E4B12F453
:10018000003201D0022315E0186840F00100186029
:100190000A92236803F002030B930A9B01330A932C
:1001A0000B9B1BB90A9BB3F5A06FF2D123689F0785
:1001B00039D501230C93524B52481A6842F0100271
:1001C0001A601A6822F003021A601A6842F00202EA
:1001D0001A606368636063686360636843F48063A4
:1001E0006360494B1A68043B22F070425A60474AE8
:1001F0001060606820F47C106060586840F0004037
:100200005860D86820F40040D8609B68180449BF43
:100210003F4B4FF4E01313604FF480130D930C9B8E
:10022000012B01D117E0FEE7022B18D169B10D9B1C
:10023000B3F5801F02D14FF4A01305E00D9BB3F579
:10024000E01F02D14FF400130D9361680D9B0B4327
:1002500043F4803302E0636843F46013636023680F
:1002600043F0807323602168234B8901FBD55968D3
:1002700021F003015960596841F002015960636837
:100280001D4903F00C03082BF9D14868214B00F0FD
:100290000C00042803D0082804D01A4900E0116893
:1002A000196011E048684F68C0F38340FF0300F114
:1002B000020001D4184905E0496811F4003F1168B3
:1002C00018BF49084843186061681448C1F3031116
:1002D000014491F81890196821FA09F9C3F80090BF
:1002E0001368084A93421BD101221DE0FD5A000801
:1002F00038140020CC300020001002409C02002066
:100300000020024000127A00041001401400002076
:10031000001BB7004C00002000093D00F8830108D5
:10032000644A934202D10222634B1A70DFF8B8B1DB
:10033000624B22AFCBF80C30A369DFF8A88143F001
:100340000103A361636ADFF898A1B360636A4FF0A9
:10035000000043F080736362A36943F01C03A36150
:100360004FF6FF7327F82C3D8DF85E003946404666
:1003700006970FF0ECF9504606990FF0E8F950484F
:1003800006990FF0E4F902234FF0100C22A98DF822
:1003900043304FF4007321F8483D8DF842C0404689
:1003A000C8F81030CDF808C00FF0D1F9454B0698C9
:1003B0005A6842F000725A6008F094F8424A179B5B
:1003C0000021B3FBF2F341481822F36014F06EFDF4
:1003D0004FF47A723E4BB9FBF2F909F1FF325A60E1
:1003E000F0228BF823200020072298601A60AB6867
:1003F000DFF8F890DDF808C0C9F80030354BDFF8B9
:10040000F0B00FCB87E80F00A369179843F00803FB
:10041000A361A36918A943F00803A3610823CAF8DC
:100420001030CAF810C00FF092F919981AA90FF0FD
:100430008EF9D9F80030180760D59BF89031012B60
:100440005CD8254B9BF891219B6813F0805800F0F5
:1004500074860027002F51D0204B214F18684FF091
:10046000100AC7F814A0069917901E480FF06FF9EC
:100470001C4908230B613C2005F0CFF9C7F810A0F8
:100480004FF0000A95F891319A4533DA154ADFF8B2
:1004900050B00827CBF810707820576105F0B2F9FA
:1004A000104BCBF8147078201F6105F0ABF90AF1FE
:1004B000010AE7E7001BB700F43000200005FA0549
:1004C000001001400000014040420F00B430002005
:1004D00010E000E020840108381400203084010876
:1004E000000C01400008014000ED00E0D4000020B5
:1004F0009C020020B8F1000F00F02686642005F071
:100500008CF9A0228F48002114F0D0FCE36900226E
:1005100043F00703E361A36943F4006343F00C0372
:10052000A361894B002403F11001545401320E2AB7
:10053000F7D1FF229A77DA7783F8202083F82120F9
:10054000824B834AD9F800701A60214681483C22C8
:1005500014F0ACFC07F04008052321460C207E4A2D
:1005600048438C5C7B4A8454B8F1000F06D11E3C92
:10057000012C03D8FF24013B8454DBB2013105294F
:10058000ECD17649764A7162C0311370B1626A79F2
:10059000744B75491A7001EBC2026B4B5278B90665
:1005A00048BF0122DA620023704A40F2DC519952BE
:1005B0000233102BF8D1DFF8EC816D4FD8F80090A2
:1005C000B9F90C0011F024FC6A4911F029FDB9F8C1
:1005D0000A3001463B803063044611F06DFC4FF059
:1005E0007E5111F061FB15F017FA4FF07E5111F0BA
:1005F0005BFB214611F014FD14F068FE5E4911F01A
:100600005BFC11F01FFE5D4B1880D8F80030B3F88A
:100610000E800FFA88F011F0FBFB594911F04CFCE9
:1006200011F010FE574BB7F800C01880564B00274A
:10063000A3F80080CCF561739BB207930CF5617C45
:10064000524B1FFA8CFCB9464FF4C8780FFA88FB5E
:1006500058460393CDF808C011F0DAFB454911F074
:10066000DFFC4B4911F028FC824614F045FF01469F
:100670005046059114F0B8FF02465046049209F026
:100680009DFB0599824604F1004011F015FC049A87
:10069000114611F007FB3F4911F00EFC514611F0D5
:1006A0000BFC11F0CFFD0799039B0AB280B2934572
:1006B00023F8020FDDF808C010DB0FFA8CF2934527
:1006C0000CDC00B20FFA89F93FB24845B8BF814649
:1006D000B842A8BF07461FFA89F9BFB208F10A0855
:1006E0001FFA88F8B8F5AF6FB0D10FFA89F92A4B25
:1006F000C9F100093FB2B945B8BF4F4610A8002163
:100700001C221F8014F0D2FB244B254F1C6814F4CC
:10071000007904F4006847D0A3040DD4B8F1000FA9
:1007200008D095F8842107F10C03012A18BF3B4635
:10073000079304E0079702E007F10C02079217AB5A
:10074000169333E0F425002038140020601C0020AC
:1007500090040020C41C002057A00108AC02002017
:10076000C01C00208A0C00203CA10108900C002035
:10077000A60C0020000020410000A041A40C002095
:100780009999993EA00C0020A20C00205A0E00203E
:1007900035FA8E3C00007A445A0E0020D400002026
:1007A000F8830108800C0020CDF81C906B790E2B8B
:1007B00003D003F0EF03082B02D101238DF8523050
:1007C000012004F00FFF18B14088003018BF01204D
:1007D000C4F340038DF84630C4F380138DF84930DC
:1007E000C4F3403300F001008DF84030C4F3C0334F
:1007F0008DF845008DF84330B8F1000F07D095F81B
:100800008481B8F1010EDEF1000858EB0E08C4F344
:1008100000438DF84A30F36A19F1000918BF4FF010
:100820000109003318BF01238DF84C30C4F3005385
:100830008DF84D30B5F84631B5F844E1ADF850309B
:10084000B5F8523104F00101ADF84E30C4F38043E5
:100850008DF8473095F85431C4F3C002181C18BF06
:1008600001208DF84800B5F85001E4048DF844806B
:100870008DF841108DF842208DF84B90ADF8540062
:10088000ADF856E004D5B64CB4F84C41ADF856403E
:10089000B0F5FA7F02D90BB9ADF8563095F8D431DE
:1008A000B04886F83430002386F8353043709DF820
:1008B0005230002B14BF0223002301B902B10133CF
:1008C00007EB8303DB6B4FF0000B0993CDF820B0EF
:1008D000099B33F80B204FF6FF739A4200F0958185
:1008E000D3B2A14E9DF845101D01741919B1991E7E
:1008F000012940F284819DF8491021B171599B482A
:10090000814200F07C819DF84AE0BEF1000F04D0E6
:1009100071599648814200F072819DF8461039B1B4
:1009200061689348814203D12189102900F06781D1
:100930009DF8431039B161688D48814203D1218906
:10094000022900F05C819DF8441039B16168894842
:10095000814203D12189022900F05181DDF858C07C
:10096000BCF1000F0FD06068DCF8001088420AD19B
:100970002189BCF80400884200F04181BCF80600DF
:10098000884200F03C814FEA1228B8F1020F02D1F0
:100990009DF8402004E0B8F1010F04D19DF84120FA
:1009A000002A00F02C819DF84C2062B19DF8522065
:1009B0004AB9A3F10802012A05D871596E4A914239
:1009C00008BF4FF004089DF84D2062B19DF85220F9
:1009D0004AB9BEF1000F02D00C3B012B01E0043BF1
:1009E000032B40F2F480B8F1010F42D1634BFF2298
:1009F00083F87C2083F87D202189627B4FF00009F9
:100A000083F88090C3F88C406068ADF85C108DF876
:100A10005E2017A9022283F83890C3F83C90C3F8EF
:100A20004090C3F84490C3F8789083F87E9083F8A0
:100A30007F908DF85F2003930EF089FE7059A17AA4
:100A40004A4607F005FD20464946424608F095FF14
:100A5000039B4B4AC3F89890C3F89020494A20461C
:100A6000C3F8942003F1900103F194020CF036F8DE
:100A7000C5E0B8F1020F42D10899434ACBB21C211C
:100A80004B43089802EB03094FF0000A4FF0010CAA
:100A900089F8010089F802A089F80AA002F803C0C9
:100AA000637B22896068C9F80C4017A98DF85E3015
:100AB000CDF808C0ADF85C208DF85F800EF047FEE1
:100AC0007059A17A524607F0C3FCDDF808C02046F1
:100AD0006246514608F051FF2C4B09F11001C9F84C
:100AE00010302B4BC9F818A0C9F81430204609F172
:100AF00014020BF0F3FF0899013108917FE0B8F17F
:100B0000030F61D19DF847301C4D8BB19DF84830E3
:100B100095F836603BB1BDF854301E4A2046B2FB12
:100B2000F3F208213FE0204608214FF6FF723DE036
:100B3000BDF8543095F83660B3F5FA7F2ED9154AD2
:100B40002046B2FBF3F20821BDF8563092B208F00D
:100B5000E7FF05EB8606C6F860010F4B2DE000BFEE
:100B60009C0200206D1400205CA0010800040040DD
:100B700000080140000C0140002C01403814002006
:100B800031ED000835EE0008B81400208D8400080F
:100B90000DEE000800127A0055EE0008B24A204619
:100BA000B2FBF3F20121BDF8563092B208F0B8FF63
:100BB00005EB8606AD4BC6F86001C36095F836308C
:100BC000013385F836301AE0B8F1040F17D1BDF8BB
:100BD0004E30A54AA64D92FBF3F22046BDF85030A8
:100BE000012192B295F8356008F09AFF95F83530FA
:100BF00005EB86060133C6F8900185F835300BF118
:100C0000020BBBF11C0F7FF463AE994C994B94F827
:100C10003520002684F8B021974A1E701578994631
:100C2000A5F11702022A1AD8636A0021985903EB2A
:100C3000060811F0D5FA10B1E36A7BBB27E08F4BB1
:100C400006EB030E98E80F008EE80F0099F80030CD
:100C500010360133C02E89F80030E5D1ECE7884B1F
:100C600013F835C003EBC503D3F8048089F800C03E
:100C7000B8F1000FE0D06645DEDA804A330103EBBD
:100C8000020E43440FCB01368EE80F00F3E77D4B95
:100C90001A68984612F4805F23D11CE007EBC50761
:100CA00097F84C00784B3E6D1870002EEFD0002363
:100CB0008342ECDAC3EBC3017218D2F800C0DFF84C
:100CC00000E2013341F80EC001EB0E079188B980B4
:100CD0009279BA71ECE705F0EF03082B6B4B25D145
:100CE00026E099F80090B9F1010FF4D9684E002779
:100CF0004F4506F11006EEDA56F8100C4FF07C5115
:100D000011F0DAF84FF07C5146F8100C56F8140C3C
:100D100011F0D2F84FF07C5146F8140C56F80C0C38
:100D200011F0CAF8013746F80C0CE1E70E2D08D196
:100D30001A78182D42F010021A7008D104F06DFFD5
:100D400005E01A78192D22F010021A70F5E706F066
:100D500013FED8F800305D0302D44E4B01221A7006
:100D60004D4B4E4D1A784E4F42F004021A702B78BC
:100D70004FF48052012B8CBF102314238DF85E306A
:100D80004FF002038DF85F30BB69ADF85C2043F093
:100D90000403BB618CBF01260026424817A90EF050
:100DA000D6FC414B0EB1414A00E0414A00201A6096
:100DB00004F066FD069A3F4B3F4E93E80300BB6983
:100DC00082E8030043F0080318A9BB6117980EF0EE
:100DD000BEFC10F099FA9F238DF83C30322000239E
:100DE0004FF480598DF83D308DF83E308DF83F300E
:100DF00004F013FD0422C6F8149006980FA906F01B
:100E0000DFFEC6F810909DF85E209DF85D3012025E
:100E100042EA03429DF85F301A43284B9A4214D0AD
:100E2000322004F0FAFCC6F81490F52006F094FE87
:100E3000FF2006F091FE7028C6F8109005D12B789F
:100E4000022B02D1154B03221A702B78032B0CBFF7
:100E50001F20022004F07EFB2B78032B32D00120D0
:100E60000EF094FE38E000BF40420F0045EE00084F
:100E700038140020300C00208A0C0020A80C002020
:100E80003CA10108D4000020C80D002096020020DB
:100E9000B00C002068130020CC300020F43000207B
:100EA0000010024000080140DC3000206D540008B2
:100EB0008154000814850108000C01401520200011
:100EC000C90D0020022004F08DFB18B140880030CD
:100ED00018BF0120C007C2D5D8F8006095F800A05F
:100EE000AA4D4FF0100B06F40063284600215A4625
:100EF000069313F0DBFF4FF6FF73ADF83C3002238F
:100F000006F400494FF000081E408DF83E308DF881
:100F10003F800DD022A921F84CBD9D4807F034FB3D
:100F20000126042207232A7085F80180AE70EB7039
:100F3000B9F1000F0ED0022322A921F84C3D9448AC
:100F400007F022FB0123F2182B71AB7107236E719E
:100F5000EB71D6B2BAF1010F0FD9202322A921F8E3
:100F60004C3D8B4807F010FB052301222B72AA721F
:100F7000731C07226E72EA72DEB2069B7BB10223FB
:100F800022A921F84C3D834807F0FEFA09230122EB
:100F90002B73AA73731C07226E73EA73DEB27B682D
:100FA0007D4843F440437B607B69DFF8EC8143F08C
:100FB00001037B61BB6943F40073BB6107F0CFFBA6
:100FC00017A807F0A1FB754B00271793744B022E4F
:100FD000189334BF3B4680231C934FF480731D93BA
:100FE0004FF480631E93202317A91F9340464FF4AC
:100FF00000531A96209319971B97219707F091FB9E
:10100000D8F80030012E43F00103C8F80030654BDA
:1010100098BF00215A6888BF012122F4702222F46F
:10102000807242EA01225A6099685F4A013E0A4092
:1010300042F4602242F002029A60DA6AF6B222F4C6
:10104000700242EA0656DE623846012329188A7881
:10105000002A5AD02A5C5E1C092A91F803E0F6B2F5
:10106000504911D9A2F10A0707EB47074FF0070CC7
:101070000CFA07FC0EFA07FED1F80C8028EA0C0CDB
:101080004CEA0E07CF600EE002EB42074FF0070C70
:101090000CFA07FC0EFA07FED1F8108028EA0C0CB7
:1010A0004CEA0E070F61062B3E490ED8013B03EBBD
:1010B00083034FF01F0E0EFA03FE9A404F6B27EA90
:1010C0000E0747EA02034B6320E00C2B0ED8073BC8
:1010D00003EB83034FF01F0E0EFA03FE9A400F6BD3
:1010E00027EA0E0747EA02030B630FE00D3B03EB11
:1010F00083034FF01F0E0EFA03FE9A40CF6A27EAD1
:101100000E0747EA0203CB6200E01E4604301028B7
:1011100001D033469AE7234B9A6842F480729A6072
:101120009A6842F001029A609A6842F008029A6056
:1011300099681C4A09070ED5FAE7571E092F8CBF7C
:1011400000270127FFF786B9184B83F8918105F036
:101150002BFAFFF7D3B9936843F004039360114A65
:10116000936813F00403FAD1916841F4A0019160EF
:101170000E4AB2F85801E0B9B2F95A31C3B9B2F91E
:101180005C31D3F1010338BF002312E04C1B002077
:1011900000080140000C0140080002404C240140BE
:1011A0005C1B002000240140FDF7F1FF9C020020A1
:1011B000034613F0010340F09380B34A00B2137169
:1011C00010F026FEB14910F077FEB14F0646B7F990
:1011D0005A0110F01DFEAD4910F06EFE0546B7F93C
:1011E0005C0110F015FEA94910F066FEA949814680
:1011F000304610F059FD05F020F80746304605F05E
:101200001CF8A4498046284610F04EFD05F015F85C
:101210000646284605F011F89E490546484610F056
:1012200043FD05F00AF88246484605F006F83946BF
:101230008146504610F040FE39468346484610F03D
:101240003BFE51460690404610F036FE4946089057
:10125000404610F031FE31460990504610F02CFE09
:101260004946C4F8B40106F1004010F025FE2946B5
:10127000C4F8B801C4F8BC51089810F01DFE01462E
:10128000069810F011FD2946C4F8C001099810F025
:1012900013FE0146584610F005FD3146C4F8C4015E
:1012A00008F1004010F008FE2946C4F8C80158466D
:1012B00010F002FE0146099810F0F4FC2946C4F82B
:1012C000CC01069810F0F8FD0146089810F0ECFCEF
:1012D0003946C4F8D001304610F0EEFDC4F8D40110
:1012E0006D4F3B689A0320D5C82004F096FAAE20D3
:1012F0000FF0DFFC08B10FF0E0FC84F8D801C82043
:1013000004F08BFA654B00210C226548C4F8DC31EF
:1013100013F0CCFD022384F8E33107F000FE04F063
:1013200032FA604B0344C4F8E8315F4E584D3368DD
:1013300095F85F0195F8691195F86A21B3F95E3067
:101340000AF01CFBB04610B9012004F0BDFA574B5F
:101350000A261A7842F002021A70554B10225A617E
:1013600008221A61DFF848911920D9F80C30013EA3
:1013700083F01003C9F80C30D9F80C3083F008035F
:10138000C9F80C3004F049FA012004F079FA192068
:1013900004F043FA002004F073FA16F0FF06E1D1DE
:1013A00008234FF0100A434EC9F81030C9F810A0B6
:1013B00033681B0709D5404BC9F814A01B68984730
:1013C0003E4B0122C9F810A01A70D4F8EC31187BFA
:1013D00010F01EFD2D4910F06FFD2E4910F064FC39
:1013E00004F02BFF364BC4F8F0012849186910F0BF
:1013F00063FD344BC4F8F401188810F009FD014670
:10140000314810F00DFE314910F00AFE304C314BDE
:10141000186004F0FFFCFF211B22204613F046FD5C
:101420000022227032682C4B012112F0020F197039
:10143000204604D06170032119700221A170540765
:1014400004D519784C1C1C700324445412F00A0F64
:101450000CD01A7804218154511CC9B2052444547B
:10146000D11C02321970D2B2062181543A68910619
:1014700004D519784C1C1C70072444546979082938
:101480002CD00E2933D129E01400002035FA8E3CEF
:101490009C020020DB0FC93FD40000202404002060
:1014A00018160020404B4C00100C0020CC300020BF
:1014B000000C01403C020020880200208C0A002021
:1014C000F80B0020100000200AE81C4100401C46D8
:1014D0009B1C0020D40B00209A1C00201C7804F1D7
:1014E000010E83F800E04FF00B0E00F804E01C78CA
:1014F0004FF00C0C04F1010E5FFA8EFE12F4803FE7
:1015000083F800E000F804C009D004F1020CA84CF4
:1015100084F800C0A74C4FF00E0C04F80EC054071E
:1015200008D51C7804F1010E83F800E04FF0100E8E
:1015300000F804E01C784FF0120C04F1010E5FFA81
:101540008EFE12F4806F83F800E000F804C00ED025
:1015500095F820C2BCF1000F09D004F1020C944CA4
:1015600084F800C0934C4FF0130C04F80EC094059F
:1015700008D51C7804F1010E83F800E04FF0150E39
:1015800000F804E0182913D11C784FF0160E00F86B
:1015900004E004F1010E5FFA8EFE4FF0170C00F824
:1015A0000EC004F1030E0234E4B283F800E00155EA
:1015B000110304D519784C1C1C7019244454D2050D
:1015C00004D51A78511C19701A2181541A787A4C52
:1015D000511C19701423835400219822774813F06A
:1015E00065FC0EF0CBFCB5F84E317549A4F8FC3122
:1015F00000230B808B70D8F80010724A01F1810E25
:10160000B5F896017049C4F8F8210A6084F8FE31F3
:1016100082B26E49DFF8E891D1F80080DFF8E4C1CA
:1016200008F596784CF8138023F809200233242B10
:101630008846EED1D7F800C01CF4805F0CBFB5F827
:101640009C311346A9F8063000231EF80320B2B9D6
:101650000EEB0302917892F803A051450FD209B125
:10166000013901E00AF1010101EB8101527801EB3E
:10167000810101F5617189B2043229F81210043335
:10168000502BE2D11CF0080F00F0E98095F8903162
:10169000062B00F2DE80DFE803F004070E35517000
:1016A000700045F2F05201E042F6F822484B1A80F1
:1016B0000EF0F0FCCCE0464B42F6F8221A80000116
:1016C0000A2390FBF3F0A0F5B0600023414A985044
:1016D0000433482BFAD1404A404B40209A60404B9B
:1016E00012221A7003F0B8FF002800F0B280012324
:1016F0004FF0070A90F9000040218DE80804394AAC
:10170000394BA0E0324B42F6F8221A80374A334B6D
:1017100040209A60324B10221A7003F09DFF00287F
:1017200000F0978001234FF0000990F9000040215C
:101730008DE808022E4A4FF4E13384E0244B42F650
:10174000F8221A802B4A254B40209A60244B08220D
:101750001A7003F081FF00287BD001234FF0000CAA
:1017600090F9000040218DE80810234A4FF4E1333E
:101770000FF081FDC4F8480267E0154A42F6F821EF
:10178000118017490C22062B1C480A703CD00023FC
:10179000037084F84C3284F84D321B2384F84E32A7
:1017A000052384F84F2284F850324FF4E13539E0B4
:1017B0009A1C00209B1C002038140020C41B002011
:1017C000800D002024040020DC000020B030002028
:1017D0001A1B002030010020317E00081400002078
:1017E000BC1C002089800008A0860100217E000822
:1017F000D97F00080D7E00088D7F000814020020AC
:1018000052020020381600200021017084F84C128A
:1018100084F84D12B94D212184F84E1284F84F22DC
:1018200084F85032B64AB74B40209A6003F014FF58
:1018300078B101234FF0000EB34A90F90000402127
:101840008DE808402B460FF016FD003018BF012030
:1018500028B908200DF0B4FDAC4AAA4B9A603B6849
:10186000AB4A13F4804F04D012211170A948A54946
:10187000886042F20101194089B1A74944F620600D
:101880000880990404D508211170A4489D498860F6
:10189000DD0704D50C211170A1489A4988601178A0
:1018A0009805A1F10401517053D59E4D079A9E4BA6
:1018B0002A609A69079842F001029A6103884FF002
:1018C0001009ADF83830994802230EA98DF83A90E6
:1018D0008DF83B300DF03BFF2B6894485B880EA9D8
:1018E000ADF8383004238DF83A300DF030FF2B6816
:1018F0000120197A0DF016FF2B688D4A5B684FF0B6
:10190000000A536117A88DF861904FF001091793F1
:101910008DF860A08DF8629006F0C8FE2B680FA8C5
:101920005B7A8DF83EA08DF83C3003238DF83D3076
:101930008DF83F900BF0B6F9D8F800207D4B3C3A7B
:101940001A6033684FF0FF3243F0100333607A4B74
:101950001A607A4B7A4A7B4D13607B4A803313605E
:101960003B680026D9032E7040F1B180DFF800B249
:10197000DFF8B48140F22A3A0DF0A6FD4FF00109DC
:1019800052465846314685F8009013F08FFAD8F841
:1019900018306E4843F00403C8F818304023ADF8FF
:1019A000383018238DF83B300EA903238DF83A30D8
:1019B00006F0EAFDD8F81C30654D43F00203C8F884
:1019C0001C30644BA8F694781A68634BB2FBF3F2B0
:1019D0002B88013A23F45C731B041B0C2B8092B2FE
:1019E0001D23AB852A85A5F814902B8C23F00103C9
:1019F0001B041B0C2B842B8CA9882A8B23F002033D
:101A000022F0730212041B04120C1B0C89B242F068
:101A1000600243EA0903A9802A83AE862B842B8BBC
:101A200023F008031B041B0C43F008032B83B5F8B9
:101A300044306FEA43436FEA53439BB2A5F8443006
:101A4000D8F8A83F43EA0903C8F8A83F404606F083
:101A500086FE17A806F058FE404BCDF860B01793ED
:101A600080231C934FF480734FF0100B1D9340465E
:101A70004FF4005317A92093CDF864B0CDF868A0B7
:101A80001B961E961F96219606F04BFEAB890FA85B
:101A90009BB243F40073AB81D8F8003043F00203EB
:101AA000C8F800308DF83CB08DF83D908DF83E6060
:101AB0008DF83F900BF0F6F8294B1A68294BF2503D
:101AC0000436802EF8D10AF032FF0AF030FF3B686E
:101AD0005A057FD5D4F87C65234B04201E6003F0A3
:101AE000BBFD0421C4F8800503F090FD1F4B84F872
:101AF000840508201E6003F0AFFD3BE090D003009A
:101B0000CD7D000814000020757E0008695400088F
:101B1000BC1C00205D7E00081A1B0020697E0008A6
:101B20005D540008F40B002000100240000C01403E
:101B300000040140F00B0020BC0B0020CC0400206E
:101B400020140020911300202414002000080140DC
:101B5000000400404C00002000366E0134040040B8
:101B6000A477010892130020A8270020EC2700206A
:101B700089160020894B0821186003F047FD884D25
:101B80002C22002184F88505284613F08FF97C2348
:101B90002B708E236B70E023EB7010207D2385F873
:101BA0002B30C4F8886503F057FD1021C4F88C056C
:101BB00003F02CFD84F890052020C4F8946503F010
:101BC0004BFD2021C4F8980503F020FD84F89C0506
:101BD0000EF05EFC734B744D1B78022B64D1734B7B
:101BE00000261A88322022F040021204120C1A80B9
:101BF0001A884FF4805722F038021204120C1A800F
:101C00001A8892B242F040021A809F238DF83C302D
:101C10008DF83D608DF83E608DF83F6003F0FDFD6E
:101C20008DF85D60624E0422776117A80FA905F058
:101C3000C7FF37619DF85E309DF85D201B0243EAC7
:101C400002439DF85F2013435A4A934219D00AD8A1
:101C5000A2F51A42033A93420CD002F51A4202321C
:101C6000934209D01BE0544A934205D0013293427B
:101C700007D014E0202300E080232B804FF48073F2
:101C800002E04FF480732B806B80AB882A881B02A4
:101C9000AB605343EB60012384F89D3504E00023DF
:101CA0002B806B80AB60EB60EE6816B3F60A3746AC
:101CB0004FF00008B0450BDA08EB06056D100DF18A
:101CC0005C09E8024946102205F0F8FF0F2805DC00
:101CD000FF0208F009FEC4F8A0750AE0002359F8D5
:101CE0000320013256D10433102BF8D12E462F4653
:101CF000E0E7324D324A2B6813F4002318BF01236A
:101D0000137003F040FD2F4B18602F4B5A79194682
:101D1000052A03D12D4B4FF4C8721A802C4B4FF477
:101D20007A721A802B4BC8221A802B4B1A7842F0F9
:101D300008021A70294B1A7822F002021A702A68D7
:101D400040F6020313406BB12548264B1860264B22
:101D500003201870254B01201870254800230380AC
:101D600024480380930308D5032384F8E43194F8CE
:101D7000E33143F0010384F8E3318B6801222B60E7
:101D80001D4B1A701D4B1A7862F07F021A7023B037
:101D9000BDE8F08F05F101083D46A8E708280020BE
:101DA000BC270020F4300020200000200038004034
:101DB000000C014018BA20001740EF00D4000020AA
:101DC00069130020180C00209C020020841B0020B6
:101DD000EE300020EC30002096020020F33000208E
:101DE00016040020A02700202B14002054000020FF
:101DF0003E1B0020401B002068130020CC30002038
:101E0000A2492DE9F04F0A68A14802F59C4320330E
:101E10000360A04B87B01E78C6B119465B689A4232
:101E200040F20A81013E0E7006E12B68072C98BF34
:101E3000195D994B88BF21461B6898489847032C29
:101E40000CD9944A013602EB44042081934BF4B23E
:101E50001A78934DA2421A46E7D81EE02B6804F187
:101E60000E0203EB82029388D2880028E9D0C01AC0
:101E70004FF47A714843D31A90FBF3F0084440F6CC
:101E8000C903984205DC40F2EE239842B8BF1846D9
:101E900001E040F6CA0080B2D3E7824B42F201096A
:101EA0001B6803EA0909D9F101097F4B38BF4FF0DC
:101EB0000009D3F800A07D4BB9F1000F06D17C4991
:101EC000097819707B4908787B4908701E781EB123
:101ED000794B1E7886F001066E490F2381F82C306D
:101EE000764B92F800801F780322B7FBF2F202EBE8
:101EF0004202BA1AD2B201F12E0303EB42020024CD
:101F0000D5F800B04FEA480C0292254664455AD0F5
:101F100016B16B4BE05A00E03046BBF814308342F8
:101F200006D8BBF81610814234BF0021012100E021
:101F30000021644BE9B953F825309A4502D2624B2F
:101F4000E05A1AE0EBB218468DE8081005F0DAFD09
:101F5000009BDDF804C0032B0FD84FF0010E0EFAE2
:101F600005FE4C4B93F82C1021EA0E0183F82C103F
:101F700003E00AF5967143F81410B9F1000F1DD172
:101F8000029A444B04EB4401505293F8762022B954
:101F9000022F13D9012083F876004C4B581831F8E2
:101FA00003E041884A337144B0F804E0714489B2D7
:101FB000E15208B2032390FBF3F080B2424B0135AB
:101FC000E0520234A2E7334B374A93F82C10B1F1B8
:101FD0000F077942794183F890103D4B69B13D4933
:101FE00009684E0109D41268D9689A60521AC82A41
:101FF0001ED9012283F821201AE02E480121017008
:102000002D48126801709968DA605B68521A9A422A
:1020100003D92F4B002283F821200024444507DAFE
:10202000E0B205F06FFD284B23F814000134F5E70A
:10203000224B1A7801321A701A4E3368DD0405D526
:10204000244B1B68DC0701D40DF0EEFF0F4B1C681E
:10205000134B19688B7A002B40D01B4A013B32F896
:1020600013000B7B1BB1C0F53B60083080B200B29F
:10207000A0F57A70B0F57A7FA8BF4FF47A7020EAA5
:10208000E0700FF0C5FE14495DE000BFD0300020C5
:1020900030020020DC1900201C000020BC1C0020A5
:1020A000DC000020D4000020B0300020C800002058
:1020B000D000002001000020000000203616002083
:1020C000E419002038160020520200200A1A0020CD
:1020D000800D00204002002000007A443268100485
:1020E0003AD59D4AD2F89400201A002834DB04F532
:1020F0009C402030C2F894009848C97A45799848A5
:1021000030F8150080B290FBF1F092F89810013190
:1021100001F00F0182F898100A4482F899001846DD
:10212000904A9A5C01331044102B80B2F8D100B26F
:1021300090FBF3F000B26428A8BF642020EAE070AE
:102140000FF066FE88490FF06BFF88490FF0B4FE70
:1021500010F09EF8864B18803368864D13F4807F0C
:1021600000F0E080844B854F9C4203D9BB780BB9CB
:102170000123BB70BB78002B00F0D4807F4B95F817
:10218000008093F821407E4B611E4C421A684C41FE
:10219000002CC2F380690CBF03220022C8F3800820
:1021A0009A46029297F82030052B00F2B680DFE8BD
:1021B00003F0034E5378859EB8F1000F3AD0714B6F
:1021C0001868714B198805F0DBFA012809D16F4BAB
:1021D00064211A68604BD3F8AC30DB8801FB032321
:1021E0003B61B9F1000F0DD05B4BD3F8AC301B79DC
:1021F00043B105F093FB032387F820304FF47A7343
:10220000FB61CFE7002C40F08880604B3A69196889
:10221000DFF868B1914209D905F080FB03228BF801
:10222000202040F6B832CBF81C20BBE701228BF807
:102230002020B7E74FF48060B9F1000F02D005F01D
:102240005DFB01E005F088FB00233B6165E0002CAD
:1022500045D105F063FBA5E724B1052387F82030BD
:10226000012100E02146B8F1000F0DD0454B1B685D
:10227000DA89474B1A805A809A80374AD2F8AC20C4
:102280005288DA8002220292404B1A687B699A4295
:1022900002D8B8F1000F3DD147F23053FB61032360
:1022A0001EE02B7843F002032B700DF0BDFE374B80
:1022B0001A68FB691344BB61042311E0334B1A68AD
:1022C0008CB1BB699A4228D9324B1B781BB9DAF81A
:1022D0000030DA0721D42B7823F002032B7005237A
:1022E00087F820305EE7FB691344BB6115E0274B9C
:1022F00019491A68D1F8AC306421DB884FF480604A
:1023000001FB03233B61002387F82030FB7005F0BD
:1023100023FB47E700297FF445AF029A12B110462C
:1023200005F04CFA1C4C04F5C470B4F84E1105F0DD
:1023300027FAA346804688BB03F012FE94F8E231E8
:10234000012B06D9114B044A1B68D2F8B0209A42DF
:102350002FD203F0F5FD2CE0DC1900204C1B0020EF
:102360005C1B0020751A00200000C84200C07F449A
:10237000BE1C0020F3300020404B4C00800D00209C
:10238000400200203016002034160020B03000201B
:1023900052020020080000209C020020984B94F874
:1023A000E2211B684FF47A7101FB0232954BC3F8AE
:1023B000B0202B785B0740D53368DF063DD5924BC4
:1023C0001B78DC0639D4914B8E4C1F788FB19BF86B
:1023D000E031B8F1000F16D173B1894B1A68D4F807
:1023E000B4309B1A002B07DA0DF01EFE84F8B8807B
:1023F00023E0B8F1000F19D1102005F0DFF9012317
:1024000084F8B83019E03BB17D4A4FF47A71126814
:1024100001FB0323C4F8B43094F8B8306BB103F077
:1024200037FA784B002283F8B82006E094F8B830E9
:102430001BB103F02DFA84F8B87000229BF8DEA1DE
:102440009BF8DF11BBF89871BBF89AE11346704C0A
:102450009B08105F0232B842C4BF63F07F03DBB257
:102460007045B8BF43F04003082AF0D1654C94F89A
:10247000B9209A4205D194F8BA20F92A04D8013239
:1024800000E0002284F8BA2084F8B9305F4B5D4A3E
:102490001878604F994638BB3B68D80708D5B8F123
:1024A000000F21D12B78DA071ED50DF03DFE1BE081
:1024B0002B785B0715D5584B1B7893B1574BDB78BE
:1024C0007BB992F8BB300133DBB2032B82F8BB300F
:1024D0000AD911B10DF0A8FD06E0B8F1000F03D143
:1024E000F8E7002384F8BB3094F8BA20454B142A4F
:1024F000DFF83C8140F0A58099F800201AF1000A2D
:1025000018BF4FF0010A6AB393F8B9205F2A11D1BE
:102510002A7802F0040202F0FF0112B10DF084FDEE
:1025200008E00B200191009305F048F90199009B08
:1025300083F8BA10BAF1000F14D094F8B9307D2B9B
:1025400010D12B7803F0040303F0FF0213B10DF058
:102550006BFD07E00B20019205F030F9294B019A41
:1025600083F8BA202B7803F0040303F0FF00002B5C
:1025700067D194F8B930234A572B0AD1284B4FF42E
:102580007A721A80274B1B6858075AD50A22264BA5
:1025900034E03168490717D55A2B15D192F8BC3071
:1025A0002BB1012382F8BC0082F8BD3049E092F8DB
:1025B000BE3083F0010382F8BE300BB10C2000E086
:1025C0000D2005F0FBF83CE05D2B00F072845B2BE6
:1025D00000F071845E2B02D1032000F06DBC562BFD
:1025E00001D103F0E1FF99F800301BBB94F8B9303A
:1025F000972B40F079840D4B4FF4C8721A8020E07D
:10260000B0300020DC1900209602002008000020D5
:102610005202002040020020C8000020800D00204F
:10262000EE3000203C020020EC300020841B002013
:10263000100C002094F8B9306F2B40F04C840DF052
:1026400073FD3368580736D594F8BE30B44A93B159
:102650002B7859070FD5B34BB3F90610BBF8983157
:10266000994208DD3B6813F0010304D13221A2F83E
:10267000C01082F8BE303B6813F4803FA84B0CD0EA
:1026800094F8C2202AB993F8BC2012B93222A3F8D8
:10269000C020012384F8C2300DE094F8BC2052B170
:1026A0002A7802F0040202F0FF0122B9012283F825
:1026B000BC1083F8BD20D8F80090002309F1810AEE
:1026C0003B6009F1830498460AF1020303EB080119
:1026D00013F808204B7814F8010C9A420AD22146CC
:1026E0000DF028FC30B114F8023C01229A403B68FE
:1026F00013433B6008F10408B8F1500F04F10404DF
:10270000E2D1894B1F784FB1884CDFF840822368B3
:10271000874F13F0020F40F036832EE309F1D10802
:1027200009F1D20408F10103D919DA5D4B7814F8E4
:10273000010C9A4229D221460DF0FCFB28B394F8F3
:1027400002E020797B4B0EF1FF3E4FF00C0C0EEBBC
:102750004E0E0CFB00FC9E44714B94F803A003F159
:10276000C40909EB0C02516871450ED0002109F82B
:102770000CA0C2F804E09160012202FA00F093F884
:10278000F42022EA000083F8F4000637482F04F111
:102790000604C7D1684BDFF8B8A11F68674B4FF03C
:1027A00000091B680293664B1B780393DAF800302C
:1027B000002B00F0D98293F80080B8F1000F00F0F0
:1027C000D382DAF8042002998A1A002A0DDB01F577
:1027D000FA72012101FA09F1CAF80420504A92F86C
:1027E000F40020EA010182F8F410039A002A00F0B4
:1027F000BB821AF8041C58780431C9B2484A002830
:1028000040F07182474830F911104E48B0F89601F7
:1028100000F1C804A14201DD9C7815E0C83881426E
:1028200002DA9C7864420FE0012303FA09F33C4981
:1028300091F8F42022EA0303029A81F8F43002F5B9
:10284000FA73CAF804308FE292F8F43043FA09F3CD
:10285000DB0700F18982002CCCBF0220012005F0AB
:1028600033F808F1FF33132B00F27582DFE813F021
:10287000140021002E003E0072007900DD004101AD
:10288000A501DA010A0273023E004D007900DD0065
:102890004101AF00130177013B7838461C44FA2C04
:1028A000A8BFFA2424EAE4743C7002F01FFF012060
:1028B0001AE07B7838461C44642CA8BF642424EAC0
:1028C000E4747C7002F012FF02200DE0FB783846C1
:1028D0001C44642CA8BF64241B4B24EAE474FC70E1
:1028E000196802F0BFFE03202146C8E179790D2066
:1028F00021446429A8BF642121EAE171797107F0BC
:10290000CDFEB8F10D0F00F0268239790E2021445A
:102910006429A8BF642121EAE1713971AFE100BFE8
:10292000DC19002052020020F1300020400200207B
:1029300044020020088B01087C0C0020B0300020ED
:10294000C80000209C020020881C00203C020020BF
:10295000A41A0020B9790520214481F30801B97136
:102960008DE1A74B1B681A78022A21D120460093DB
:102970000FF04EFAA3490FF053FB009B596A0FF07A
:1029800093F9002101900FF035FC019A009B40B9AA
:1029900010469C490FF04CFC019A009B10B1994ADB
:1029A00000E000225A620F20114607F08BFE0AE079
:1029B00099780F202144C829A8BFC82121EAE171D4
:1029C000997007F06BFEB8F10F0F00F0C4818C4BCB
:1029D000D3F8008098F80030022B1AD120460FF06F
:1029E00017FA88490FF01CFBD8F820100FF05CF99B
:1029F000002104460FF0FEFB30B9204681490FF05C
:102A000017FC10B17F4C00E00024C8F820401220D1
:102A100059E198F8011012202144C829A8BFC82103
:102A200021EAE17188F8011029E1754B1B681A78D9
:102A3000022A21D1204600930FF0EAF971490FF0E4
:102A4000EFFA009B196B0FF02FF9002101900FF0A6
:102A5000D1FB019A009B40B910466A490FF0E8FB90
:102A6000019A009B10B1674A00E000221A6310200F
:102A7000114607F027FE0AE0197B10202144C829DF
:102A8000A8BFC82121EAE171197307F007FEB8F168
:102A9000100F00F060815A4BD3F8008098F8003096
:102AA000022B1AD120460FF0B3F956490FF0B8FAAD
:102AB000D8F82C100FF0F8F8002104460FF09AFB1C
:102AC00030B920464F490FF0B3FB10B14D4C00E038
:102AD0000024C8F82C401320F5E098F80B101320C0
:102AE0002144C829A8BFC82121EAE17188F80B1048
:102AF000C5E0434B1B681A78022A21D12046009377
:102B00000FF086F940490FF08BFA009BD96B0FF05C
:102B1000CBF8002101900FF06DFB019A009B40B9AA
:102B2000104638490FF084FB019A009B10B1354ADA
:102B300000E00022DA631120114607F0C3FD0AE02D
:102B4000997D11202144C829A8BFC82121EAE1713B
:102B5000997507F0A3FDB8F1110F00F0FC80284B28
:102B6000D3F8008098F80030022B1AD120460FF0DD
:102B70004FF925490FF054FAD8F838100FF094F8AF
:102B8000002104460FF036FB30B920461D490FF0F6
:102B90004FFB10B11B4C00E00024C8F83840142053
:102BA00091E098F8151014202144C829A8BFC82125
:102BB00021EAE17188F8151061E0114BD3F800802B
:102BC00098F80030022B21D120460FF021F90D4951
:102BD0000FF026FAD8F828100FF066F80021044606
:102BE0000FF008FB30B9204606490FF021FB10B169
:102BF000044C00E00024C8F82840092063E000BF2E
:102C00008C1C00200000C84200007A4498F8031091
:102C100009202144C829A8BFC82121EAE17188F808
:102C200003102CE0B54BD3F8008098F80030022B4D
:102C30001AD120460FF0ECF8B1490FF0F1F9D8F8AD
:102C400034100FF031F8002104460FF0D3FA30B9F8
:102C50002046AB490FF0ECFA10B1A94C00E000247B
:102C6000C8F834400A202EE098F80D100A202144BC
:102C7000C829A8BFC82121EAE17188F80D1007F022
:102C80000DFD68E09D4BD3F8008098F80030022BD2
:102C90001DD120460FF0BCF89A490FF0C1F9D8F8C1
:102CA00040100FF001F8002104460FF0A3FA30B9EC
:102CB000204693490FF0BCFA10B1914C00E000247B
:102CC000C8F840400B20214607F0FCFC43E098F890
:102CD00017100B202144C829A8BFC82121EAE1719F
:102CE00088F81710CBE7012835D19878864B33F94F
:102CF0001110B1F5617F05DB40F633039942B8BF8F
:102D00000B4601E04FF46173B8F10C0F23D14FF47F
:102D10009664A3F5617394FBF0F493FBF4F492F8DA
:102D2000F530E4B2A34216D0032C94BF234602230D
:102D300082F8F5300E2202FB03B3744A03F2AE733D
:102D4000136002F0EDFC4046214607F0A7FC601C32
:102D5000C0B204F0B9FD012202FA09F26C4B93F8FB
:102D6000F4100A4383F8F42009F10109B9F1040FC2
:102D70000AF10C0A7FF41AADC6E43368D80510D501
:102D8000644BDB786BB1D8F80030990709D53B88E4
:102D900013F001090AD103F0E3F8012004F0AEFDBD
:102DA00004E0012004F0D8FD012300E000232268A4
:102DB00052070CD55BB1012004F0CEFD3B8898078B
:102DC00008D403F0CDF8022004F098FD02E00220C0
:102DD00004F0C2FD3B88504A13F0030F4FF010017E
:102DE00014BF51611161D8F8002012F00A0F2BD0E6
:102DF0002268D1060DD55A070ED4042004F07EFDBA
:102E0000464BB3F904200A2392FBF3F2444B1A8099
:102E100002E0042004F0A0FD23689B0606D53B8851
:102E2000580606D4402004F069FD02E0402004F07A
:102E300093FD2368590607D5384BB3F904200A23BC
:102E400092FBF3F2374B1A8023684FF480701A0517
:102E500002D504F053FD01E004F07EFD324A5379BF
:102E60001746082B01D00E2B02D1402004F074FD30
:102E700033685B0540F19B8097F820321BB92B78B3
:102E800013F0040F02E0236813F4002F0CD0204B42
:102E9000002283F8F6203C2005F098F9002800F085
:102EA000868002F07FFBF6E70DF0F2FA0DF066F88F
:102EB0007DE0012000E002205FFA80F909F1FF3394
:102EC0008BF8AC3706F0E4FF05F02EFE484604F020
:102ED000FBFCFFF7B6BBBAF1000F3FF487AB7E2BCC
:102EE0007FF484ABFFF7ABBBA72B21D10F4B1A7834
:102EF00042F004021A70FFF7A4BB00BF8C1C002034
:102F00000000C84200007A44520200207C0C0020DD
:102F1000DC190020800D0020000C0140B40B0020C3
:102F2000240C0020181B00209C0200209602002088
:102F30000022BB2B059201D1022303E0B72B04D161
:102F40004FF6FE73ADF8163009E0BE2B01D1022317
:102F500003E0BD2B1AD14FF6FE73ADF81430D8F84C
:102F60000030BDF81410B3F860200A44A3F86020C4
:102F7000BDF81610B3F862200A44A3F8622003F0EB
:102F800013FB002384F8BA30FFF75BBB792B04D125
:102F9000084BDA7822F0010206E07A2B7FF451AB7D
:102FA000044BDA7842F00102DA70FFF74ABB07B04F
:102FB000BDE8F08F18160020834B2DE9F04FB3F9D0
:102FC0000610824B91B018684389994211DBB1F524
:102FD000FA6F90F807E009DACA1A02FB0EFEA3F5B1
:102FE000FA639EFBF3FE0EF1640E04E0CEF1640E74
:102FF00001E04FF0640E8389994219DBB1F5FA6F55
:10300000047A10DA632CC3EB010205D9643CA4B244
:103010005443C3F5FA6302E05443A3F5FA6394FB07
:10302000F3F4643405E0632C03D8C4F1640400E0D5
:103030006424674BB3F8962193F95E310492654A94
:103040009BB2D2F800C00593664600225E4B049DF9
:1030500033F912304FEA420803935B1B03F2F31774
:1030600040F2E635AF4203D8002BB8BF5B4201E027
:103070004FF4FA73022A4FF06407574D2ED09CF894
:103080001991B9F1000F04D04B45CCBFC9EB030334
:10309000002393FBF7F96FF0630B35F819A00BFBD6
:1030A000093B09F1010935F919900FFA8AF5C5EBC9
:1030B000090505FB0BF595FBF7F5AA44474D28F8E4
:1030C00005A085182D796B43454D93FBF5F36433CB
:1030D0009BB20EFB03F393FBF7F72FE09CF81A91DA
:1030E000B9F1000F04D04B45CCBFC9EB030300235B
:1030F00093FBF7F76FF0630A05EB47090AFB073B01
:1031000005EB4707B9F90E90B7F91050059FC9EBC9
:10311000050505FB0BFB9BFBFAFBC9EB0B0909FB48
:1031200007F92E4FA7F80490857983EAE377A7EB98
:10313000E3776F432A4D97FBF5F764370CEB0205F5
:1031400095F801A0244B07FB0AFA642503F11C093A
:103150009AFBF5FA09F802A096F80BA003F11F09F3
:1031600007FB0AFA9AFBF5FA09F802A096F815A0EF
:10317000022A07FB0AF703F1220997FBF5F71D4620
:1031800016BF253383F8274003F802E009F80270E0
:10319000039B049FBB42114F04DA37F808305B42AF
:1031A00027F808300132032A06F101067FF44EAFFA
:1031B000074CB4F89831994214DBB1F5FA6FA8BF07
:1031C0004FF4FA610FE000BF520200207C0C002097
:1031D0009C020020100C0020D81A00201C0C00209B
:1031E0000CFEFFFF1946C91A4FF47A725143C3F51A
:1031F000FA63B1FBF3F34FF0640E93FBFEF205EBC1
:103200004201088D6FF0630101FB023305EB4202BE
:10321000B2F92A1002B28A1A534393FBFEFEB54B51
:1032200070441B88B44E5B06F88045D5B34BB3F9A8
:1032300004000A2390FBF3F0B14BB3F84030C01AFE
:1032400000B20EF0E5FDAF490EF036FEAE49804605
:103250000EF02AFD02F0F1FF8146404602F0EDFF3C
:103260008046B6F902000EF0D3FD8246B6F90000A2
:103270000EF0CEFD494683460EF01EFE4146034643
:10328000504601930EF018FE019B014618460EF0C1
:1032900009FD0EF0D7FF4946308050460EF00CFE77
:1032A0004146814658460EF007FE014648460EF05C
:1032B000FBFC0EF0C7FF7080944B914E18880EF007
:1032C000A3FD934B06F144010122B5F8428002F0C0
:1032D00051FE0EF0DDFF8F4B80B2B8FBF0F000F135
:1032E000010C1B781FFA8CFCA5F84CC00BB3B6F987
:1032F0004EA00023824AFE5A02F1500E33F90E808E
:1033000002F158010AFB08F833F801900FFA8CFB20
:10331000C9EB060998FBFBF8C84423F80E805E52FF
:103320000233082BE6D17B4B00211970A2F84E0026
:1033300004E0B6F84E30013BA6F84E30B5F94E1019
:103340006F4A00294FF000030FDDB2F94C60724A5A
:10335000A2F10800185E9A5A484390FBF6F0121A40
:10336000FA520233082BF2D101E0A2F84E306B4B37
:103370001A689A4612F0020F74D0694B2A6E1B68C5
:1033800045F207219A1A8A425D4E6BDD336606F0DC
:103390007FF9644BDFF8A0811A789946032AB8F8C0
:1033A000003022D10A2B2CD90023282089F80030A4
:1033B00002F033FA06F06CF9B6F8640005F0FCFA96
:1033C000594B5A491B68DA7890FBF2F0421C082AE4
:1033D00028BF08220A7059791B7992B251435A4387
:1033E000A6F86610A6F868200BE00A2B09D803237C
:1033F0004E4A89F8003000231370A6F86630A6F80C
:10340000683099F80020474B012A0DD002D3022AD8
:103410001ED027E0B5F86620B8F800309A4221DDCA
:10342000012389F8003011E0B8F80020B5F86810E1
:10343000914202DD02221A7011E03149B1F86610A2
:1034400001318A4202DD00221A700BE0082007E0F9
:10345000B5F86830B8F8002001339A42E0DC072064
:1034600004F0ACF9DAF80020314E12F4006F00F0ED
:103470009E802B4BE86E1968214BC0EB010A45F288
:103480000720824540F393802748B7F90690D0F88B
:103490000080D96698F80A00B4F84E110128A9F501
:1034A0007A79244F03D06BD3022847D06AE093F88F
:1034B0008120196F03EB4202B2F88400082291FBCD
:1034C000F2FE80B2CEEB0101014491FBF2F2A3F8CF
:1034D0008C0092B2196740F6E4435343B8F80800F1
:1034E0004FF47A72C0EB13335343B8F9062093FBC1
:1034F000F2F346E0440200201C0C0020B40B002034
:10350000D81A002035FA8E3CDB0FC93F140C00207E
:103510006F12833A39020020301B0020D4000020B3
:10352000D03000202B140020A027002054000020C1
:10353000F3300020AC270020A42700203378B8F80F
:1035400008B05807C7F800B01CD5AC48029204F088
:1035500017F9029A20B912F0100F18BF4FF00009A6
:1035600009FB09F2322392FBF3F39944B8F90630D0
:103570004FF47A7203FB09F393FBF2F35B4400E030
:1035800000233B603B68D5E9240103FB0AFA4FF4B2
:103590007A739AFBF3FA10EB0A0041EBEA7100230D
:1035A000C5E92401964A0EF093FE964B1860964B9F
:1035B0001A68994612F4805F02D00A2004F0FEF8DF
:1035C000D5F89830914F002B58D0914AD7F89C10DD
:1035D00010689246814251D897F8A000B7F8A2200F
:1035E000596810BB012087F8A0008A5C52B31A7892
:1035F000D4F8DC37013A00FA02F21A4201D102F0A3
:103600003FF9012385F8A43002F0D8F8B5F8A230CC
:103610007E4FBBB9D7F898301B78053B012B11D8EA
:1036200002F0B1F8C7F8A8000CE04FF0000887F8E6
:10363000A0808B5C33B1404602F022F987F8A48069
:1036400002F0BCF8D5F89820B5F8A21052686F4B7C
:10365000525CFE2A03D10022A3F8A2200EE0FF2A2A
:1036600002D102F015F909E0DAF800000A2707FB99
:1036700002020131C3F89C20A3F8A2103378590745
:1036800003D5644B08225A613AE0D9F80020D207EA
:1036900003D4614A43F001031370604B1B781B078E
:1036A00003D4337823F0010333705D4B1B685F074D
:1036B00002D55C4A128862B9B5F8AC200AB1980705
:1036C00005D4594B1B88003318BF012300E00123A8
:1036D0003BB1022385F8A430337823F00103337023
:1036E00005E03278D10758BF022385F8A43002F0F4
:1036F0004AF8D5F8B030C01A002801DB02F05EF8B5
:103700000CF0C6FE494B1A78002A00F09B80D5F8D1
:10371000B430002B00F0F186D5F8B4003B4C02F039
:1037200073F9002800F0E986D4F8B40002F067F9D4
:10373000092801D03F2852D14FF00008D5F8B860D1
:103740003B4F44462EB13B483968324611F0F6FBF8
:1037500010B9B84604B93C46374B10379F42F1D3F5
:10376000ECB1D5F8B83022682848D75CD8F80020EA
:10377000D15CB94213D15A1C59B92D2B09D8C0F8C4
:10378000B82003442027024483F8BC7082F8BC10A0
:1037900005E02B4483F8BC70C5F8B820E1E7D5F804
:1037A000B8300BB1444510D0244802F095F9444597
:1037B00007D854F8100B02F08FF9092002F085F9B0
:1037C000F5E71F4802F088F90026D5F8B8309E4288
:1037D000A2D2184B985D02F078F90136F5E7D4F8DB
:1037E000B830002B40F09486042840F0018704F1A3
:1037F000BC0004F06BF900F080BE00BF2404002080
:10380000407E0500B027002040020020D81A00208A
:10381000B0300020000C0140F33000209602002060
:103820003C020020EC300020EE300020F13000207F
:10383000448B0108941B0020148D01083CA2010850
:1038400041A20108D44F97F84A30012B40F050862E
:10385000DFF86C83DFF86C933B68C8F80070C9F838
:103860000030C346DFF85CA35246106802F0CCF883
:10387000002800F03086DAF8000002F0C0F8DBF82B
:103880000030024693F8481019B924283DD101228E
:1038900038E0012904D14D280CBF0222002231E07A
:1038A000022904D13C280CBF032200222AE003296C
:1038B0000CD140284FF0000102D983F848104EE0A7
:1038C00058711971D971987104221BE0042907D12C
:1038D000997983F8490080EA01029A71052211E082
:1038E00005293CD1587919798842987906D95040F0
:1038F0009871481C18710B441A7230E090420CBF4A
:103900000622002283F8482029E03178A34B49079A
:1039100025D4232ADAF8001016D1A1484FF0010E61
:1039200080F800E09F48C5F8B410C5F884110292F1
:10393000019302F0D1F89C4802F0CEF8019B19786F
:1039400041F002011970029AD5F888311B78934230
:1039500005D1964A964B1A60964A974BDA60DBF887
:103960000030DFF85CA293F84820062A7FF47AAF93
:1039700093F8490000F082FE002840F0A585DAF8AF
:10398000002092F849B0BBF14A0F00F09A8562D846
:10399000BBF1330F00F08A8429D8BBF1290F00F066
:1039A00023840CD8BBF1250F00F0FA83BBF1270F5D
:1039B00000F0FC83BBF1230F40F0A78531E1BBF1A0
:1039C0002D0F00F0228408D8BBF12B0F40F09D850D
:1039D00001F065FD607100F074BDBBF12F0F00F0C8
:1039E000DD84BBF1310F00F0EE8400F08EBDBBF141
:1039F0003E0F00F0578114D8BBF1370F00F09584CB
:103A000005D8BBF1350F00F0A98200F07EBDBBF1F7
:103A1000390F00F0D883BBF13C0F00F04D8100F06E
:103A200074BDBBF1430F00F05D8408D8BBF1410FBA
:103A300008BF4FF0000900F03E8400F066BDBBF106
:103A4000440F00F0F484BBF1480F40F05E8506F0AF
:103A500093FD00F036BDBBF1D00F00F07F8367D837
:103A6000BBF1CA0F00F0418119D8BBF14E0F00F035
:103A7000EF83BBF1C80F00F0CA80BBF14C0F40F0E0
:103A8000448501F00CFD84F8D60101F008FD84F8AE
:103A9000D70101F00FFDA4F8D80100F012BDBBF171
:103AA000CD0F00F0668305D8BBF1CC0F00F080820B
:103AB00000F02BBDBBF1CE0F00F06483BBF1CF0F44
:103AC00040F0238501F0F6FC6FF4AF6E00EB0E03BF
:103AD0009BB2C62B98BFA4F8960101F0EBFCA4F8AA
:103AE000400101F0E7FCA4F8420101F0E3FCA4F876
:103AF000440101F0DFFCA4F8D80101F0D0FC01F092
:103B0000CEFC01F0CCFC01F0CAFC84F8850101F088
:103B1000C6FC84F8920101F0C2FC284BD3F8009057
:103B200001F0C8FC00EB80004000A9F85E004AE309
:103B3000BBF1D80F00F0668115D8BBF1D30F60D070
:103B400004D8BBF1D20F49D000F0DFBCBBF1D40FD9
:103B500000F08982BBF1D60F08BF4FF0000900F0DA
:103B6000778200F0D2BCBBF1F20F00F0CC822BD8F0
:103B7000BBF1EF0F40F0C984DFF84090D9F800A006
:103B800001F098FCAAF86200D9F8009001F092FCCC
:103B9000A9F8600000F095BCC41B0020F3300020A1
:103BA000F130002071A2010841A20108EFBEADDE94
:103BB000F04F00200400FA0500ED00E0100C00209A
:103BC000182800201C280020BBF1F30F00F03384DC
:103BD000BBF1FA0F00F0E08200F097BC337803F0FD
:103BE000040303F0FF09002B40F06B8401F057FC45
:103BF000022884F8AC0740F2B782C94B83F8AC972F
:103C0000B2E201F057FCC74B188000F05ABC92F8A2
:103C100005904FEA5909B9F1120F1CD84FF0000A6C
:103C20001DE001F03CFC132815D8DFF814A300F1C7
:103C3000200BDAF8003003EB8B0B01F030FCBA4BB1
:103C40000BF1010903F5A872197A814200F048814D
:103C50000C339342F8D104F0B5FA00F032BCCA45F7
:103C600007D201F027FC07AB23F81A000AF1010A7A
:103C7000F5E700234B45AD4A06DA07A931F81310E2
:103C800022F813100133F5E709F1FF3902EB49037C
:103C90002232934203D0002123F8021FF9E70122C8
:103CA000A34B77E201F0FBFB84F8E00101F0F7FBA6
:103CB00084F8DF0100F005BCDFF88492D9F800A099
:103CC00001F0EDFB18B10228A8BF022000E001209E
:103CD0008AF80000D9F800301B78022B18BF954AEB
:103CE000954B08BF954A1A60EBE3954A81461168E7
:103CF0009246097802296AD1DAF8003009F1080BF6
:103D0000019301F0CCFB0EF07FF88E490EF088F99C
:103D1000019B43F82B00DAF800B001F0C0FB09F179
:103D20000A030BEB830B0EF06FF887490EF078F95E
:103D3000DAF80030CBF80400019301F0B0FB0EF08C
:103D400063F882490EF06CF909F10E0B019B09F141
:103D50000109B9F1030F43F82B00CDD1B9F1070FD9
:103D6000DAF800B01AD101F09AFB0EF04DF875495F
:103D70000EF056F9CBF84400DAF800B001F08FFBF2
:103D80000EF042F86F490EF04BF9CBF84800DAF824
:103D900000B001F084FB8BF84C0012E001F07FFBD7
:103DA0000BEB09035870DAF800B001F078FB0BEB6D
:103DB0000903D872DAF800B001F071FB0BEB0903CC
:103DC000587509F10109B9F10A0FC7D179E3DAF899
:103DD00000B001F064FB0BEB09035870DAF800B097
:103DE00001F05DFB0BEB0903D872DAF800B001F0CB
:103DF00056FB0BEB090309F10109B9F10A0F5875DC
:103E0000E5D15EE38146DFF838A109F1080BDAF865
:103E10000030019301F04EFB0DF0F6FF4B490EF020
:103E2000FFF8019B43F82B00DAF800B001F042FBE9
:103E300009F10A030BEB830B0DF0E6FF43490EF08B
:103E4000EFF8DAF80030CBF80400019301F032FB10
:103E50000DF0DAFF3D490EF0E3F809F10E0B019B7E
:103E600009F10109B9F1030F43F82B00CBD1B9F1E6
:103E7000070FDAF800B01AD101F01CFB0DF0C4FFF7
:103E800032490EF0CDF8CBF84400DAF800B001F07A
:103E900011FB0DF0B9FF2D490EF0C2F8CBF8480028
:103EA000DAF800B001F006FB8BF84C0012E001F0EC
:103EB00001FB0BEB09035870DAF800B001F0FAFAD5
:103EC0000BEB0903D872DAF800B001F0F3FA0BEB50
:103ED0000903587509F10109B9F10A0FC7D1F0E2D8
:103EE0001B788BF8013001F0DAFA89F8010001F053
:103EF000D6FA89F8020001F0D2FA89F80300144BCF
:103F0000DAF80000134AC3F8B40100218130C3F885
:103F1000B02101F027FC104B80F001001870D0E2B6
:103F20009C020020240C0020148D0108641C002039
:103F30001502002009E50008480000207DE1000886
:103F4000100C0020000020410000C84200007A440C
:103F5000D81A0020DC0300200800002001F09FFA9E
:103F60000B283FF678AE4FF0060A0AFB00F0D84B5C
:103F7000D0301B6803EB000A01F091FA03283FF6EA
:103F80006AAE8AF8060001F08AFA8AF8010001F0A8
:103F900086FA8AF8020001F082FA8AF8030001F03A
:103FA0007EFA8AF8040001F07AFA8AF8050088E2BD
:103FB0005379092B7FF64FAEDFF82093D9F800A094
:103FC00001F06DFA8AF80000D9F800A001F067FA54
:103FD0008AF8010001F063FAD9F800306428A8BF1C
:103FE0006420187101F05BFAD9F800306428A8BF8A
:103FF0006420587101F053FAD9F80030FF28A8BFA7
:10400000FF20987101F04BFAD9F800A0642828BF6E
:1040100064208AF8070001F042FA8AF80200D9F811
:1040200000A001F03CFA8AF80300D9F800A001F0E2
:1040300041FAD8F80030AAF80A005B790A2B40F25E
:104040004082D9F8009001F02AFA89F8090038E294
:1040500001F030FA9F4B23F8090009F10209B9F188
:10406000100FF5D12DE253790F2B7FF4F4AD01F051
:1040700016FA072881463FF6EEADDFF854A2DAF8CB
:1040800000B001F017FA0E2303FB09F90BEB09034B
:10409000A3F82101DAF800B001F00CFA0BEB0903E8
:1040A000A3F82301DAF800B001F004FA0BEB0903DE
:1040B000A3F82501DAF800B001F0F1F90BEB0903E0
:1040C00083F82701DAF800B001F0E9F90BEB0903F6
:1040D00083F82801DAF800B001F0E1F90BEB0903ED
:1040E00083F82901DAF800B001F0D9F90BEB0903E4
:1040F00083F82A01DAF800A001F0E6F90AEB0903D7
:10410000C3F82B01DDE101F0CAF90F2881463FF623
:10411000A2AD01F0C4F9C9EBC90904EB090383F8A6
:10412000D00003F1D00901F0BAF989F8010001F0DB
:10413000B6F989F8020001F0B2F989F8030001F03C
:10414000AEF989F8040001F0AAF989F8050001F038
:10415000A6F989F8060001F060FDB2E1337859074D
:1041600000F1AF8109F0E6FC05F092FE04F0DCFC02
:10417000A7E133785A0700F1A4814FF4C873A5F87A
:10418000AC309EE133785B0700F19B81524B1A788B
:1041900042F004021A7094E133785807E4D5B4E190
:1041A000A06001F091F90BF013F98AE101F082F9B6
:1041B000A4F8580101F07EF9A4F85A0101F07AF947
:1041C000A4F85C017DE101F06AF984F87A0101F05C
:1041D00066F984F87E0101F062F984F87D0101F04E
:1041E0005EF984F87F016CE101F064F9A4F88001C4
:1041F00001F060F9A4F8820101F051F984F884011A
:1042000001F058F9A4F886015BE101F048F984F85F
:10421000900101F04FF9A4F89A0101F04BF9A4F8CC
:10422000960101F047F9A4F8980101F038F9DAF89D
:10423000003084F891015B79082B40F2428101F053
:1042400039F9A4F89C0101F035F9A4F89E0138E190
:1042500092F805B00323BBFBF3FBBBF1120F3FF653
:10426000FAACDFF87C904FF0000ADA4580F0298143
:1042700001F015F989F8A00101F01CF940F2ED23D5
:10428000984205DD40F6CA039842A8BF184601E0EF
:1042900040F2EE20A0F2EE20192390FBF3F089F813
:1042A000A1010AF1010A09F10209DEE701F0F7F8BC
:1042B00084F8920105E101F0F2F804EB090309F139
:1042C0000109B9F1080F83F88801F4D1F9E000BFC2
:1042D000100C0020B00D0020960200207C0C002065
:1042E0009C020020019001F0DAF86071019BA3604C
:1042F00001F0EAF80BF06CF801F0D1F884F89001C5
:1043000001F0D8F8A4F8580101F0D4F8A4F85A0143
:1043100001F0D0F8A4F85C0101F0CCF8A4F8800119
:1043200001F0C8F8A4F88201CBE053794FF0070AF6
:10433000B3FBFAF2C2EBC2029A1A12F0FF0F7FF43B
:104340008AACB3FBFAFABAF1000F00F0BA8001F0C0
:10435000A6F85FFA80FB4FFA8BF001F043F90AF1FF
:10436000FF3A5FFA8AFA814600283FF474AC80F87D
:1043700000B001F09FF8A9F8020001F090F889F868
:10438000040001F08CF889F8050001F088F889F83C
:10439000070001F084F889F80600D4E7DFF8D89226
:1043A00009F1400A01F086F8A9F8B00201F077F8A7
:1043B00089F8B20201F073F809F1040989F8AF0233
:1043C000D145EFD17DE001F06AF81F283FF643ACFC
:1043D000D8F800305B79082B7FF43DAC00F18C0AF3
:1043E00001F068F804EB8A0900F03F00A9F8020028
:1043F00001F060F8B9F80220800100F4FE53134385
:10440000A9F8023001F04BF8000104F82A0001F08D
:1044100046F814F82A3000F00F00184304F82A0078
:1044200001F03DF889F801000BF04EF849E0012356
:1044300085F8B83145E001F032F8FF28824623D1F3
:1044400000238DF81B309DF81B30052B15D89DF8E7
:104450001B20774B9DF81B10012003EBC10149681D
:1044600000FA01F153F8320089B2482201F064F8F1
:104470009DF81B300133DBB2E3E76E484FF4805107
:10448000042201F059F81CE005283FF6E4AB0020B7
:1044900001F006FB01F0E0FAD8F80030186801F0EE
:1044A000A3FAD9F8000001F07DF850460CF094FA18
:1044B0000A2001F0B2F90BF061FDD8F8003083F862
:1044C00049B0002001F0ECFA01F0C6FAD8F800304B
:1044D000002283F8482095F8B8314BB1386801F0D4
:1044E00083FA03F0B5FA01F0A2F9534A534BDA60AC
:1044F000534B4C379F427FF4A6A9524B9B68002B2D
:1045000000F09380504898478FE003F05BFEDBE7B4
:104510000C2803D14D4801F0DFFA59E00A2801D0F8
:104520000D2857D14A4C4B4804F1BC0601F0D4FA8F
:104530003046232110F0EDFC10B1801BC4F8B80008
:10454000D5F8B830002B38D0591E705C404A20286E
:1045500001D10B46F6E7C2F8B8301344002283F8C5
:10456000BC203D4B3D4CD3F800A0D4F80090DFF8C0
:10457000E080484610F0DAFC08F1BC0706464946E0
:104580003846324610F0DAFC354B38B908EB0602F3
:1045900092F8BC2052445278520703D010349C4207
:1045A000E3D306E09C4204D2701CE3683844984789
:1045B00002E02C4801F090FA00232B480021302221
:1045C000C5F8B83010F072FC28480378002B94D05E
:1045D000274809E07F2811D1013BC4F8B8300022F8
:1045E0002344244883F8BC2001F076FAFFF794B8FE
:1045F0000C288FD07F2804D1FFF78EB82F2B3FF6E1
:104600008BA8A0F12002D2B25E2A3FF685A813B98A
:1046100020283FF481A85A1C2B44C5F8B82083F801
:10462000BC0001F052FAFFF777B811B0BDE8F08F87
:104630000CA20108000801400400FA0500ED00E0AA
:104640005C1C0020F80B0020921C002046A20108F0
:10465000D81A002093AE010858000020448B0108AE
:10466000148D010851A20108941B0020F130002094
:1046700041A201086DA201089C0200202DE9F04F23
:104680004728ABB0044600F07F8600F2CE802E288B
:1046900000F02E8667D8222800F0E18423D8032872
:1046A00000F05A8214D8012800F04B82022840F012
:1046B000B986042001F0F4F9422001F0BCF954203D
:1046C00001F0B9F9462001F0B6F94C2000F0E2BD46
:1046D000042800F04B82052840F0A4861A2001F03F
:1046E000DFF9002454E2282800F09B8515D82428FF
:1046F00000F08285262840F09586CF4C062001F0F8
:10470000CFF9B4F8580101F0CEF9B4F85A0101F02C
:10471000CAF9B4F85C0100F0CEBD2A2800F09485F7
:104720002C2840F07F86C44C0C2001F0B9F994F895
:10473000900101F080F9B4F89A0101F0B4F9B4F8ED
:10474000960101F0B0F9B4F8980101F0ACF994F8D1
:10475000910101F070F9B4F89C0101F0A4F9B4F8EA
:104760009E0100F0A8BD3A2800F00B831DD8342824
:1047700000F0AE840DD8302800F0D085322840F00B
:104780005186012001F08CF9AB4B93F8920100F0B7
:1047900081BD362800F09285382840F043860420F9
:1047A00001F07EF9A44C00F02DBD402800F0758585
:1047B00011D83B2800F04C843D2840F033869E4CB5
:1047C000022001F06DF994F8E00101F034F994F859
:1047D000DF0100F05FBD452800F0F98500F2C385D8
:1047E000422840F01F86944C102001F059F960795E
:1047F00001F021F9A06801F05FF994F8900101F04F
:104800001AF9B4F8580101F04EF9B4F85A0101F060
:104810004AF9B4F85C0101F046F9B4F8800101F0FE
:1048200042F9B4F8820100F046BD6F2800F006831B
:1048300000F21281662800F0E98100F2D5804D284F
:1048400000F0088515D8492800F0F2824B2840F086
:10485000E985794C042001F023F994F8D60101F0A0
:10486000EAF894F8D70101F0E6F8B4F8D80100F0BE
:1048700022BD642800F0A581652840F0D3850B2077
:1048800001F00EF96D4B6E4C188801F00CF9208880
:1048900080B201F008F96B4B1B68C3F3C000C3F38F
:1048A0008002800040EA4200C3F340021043C3F399
:1048B000401240EAC20003F01003184301F0F3F87D
:1048C000614BA4781A8812F0010F0CBF002002205F
:1048D00012F0020F0CBF0021042112F0040F0CBFD4
:1048E000002310230393594B02F0080A1B6812F0AF
:1048F000400F03F0C00B03F480794BEA0A0A0CBFA7
:104900000026202603F4805812F0100F4AEA090A04
:10491000019003F4005C0CBF00204FF400704AEAE1
:10492000080A12F0200F029103F4804E0CBF002100
:104930004FF480614AEA0C0A12F4807F04960590D5
:104940000CBF00264FF4006603F4003003F4004768
:104950004AEA0E0A0796089003F480364AEA070AE4
:1049600006914AEA060A03F48021089E09914AEA60
:10497000060A099E03F400254AEA060A03F4801099
:104980004AEA0505284303F000730343304812F454
:10499000007F06780198C6F3800643EA0603029E6C
:1049A00043EA0003039843EA0603049E43EA000334
:1049B000059843EA0603069E43EA0003079843EA84
:1049C000060343EA00030CBF00214FF4001112F468
:1049D000806F43EA01014FF000000CBF00234FF04D
:1049E000806319430346FCE0692800F0AC810AD8D3
:1049F000672800F03381682840F01485102001F00A
:104A00004FF8002497E16D2800F0B28100F2E281B6
:104A10006C2840F007850F4C062001F041F82088F3
:104A200001F041F8608801F03EF8B4F904000A236F
:104A300090FBF3F0FAE100BF9C020020140C002070
:104A4000981C00203C02002044020020400200206C
:104A5000F3300020B40B0020772800F08B834BD874
:104A6000732800F0A2833CD8702800F011827228CD
:104A700040F0D884C54C162001F012F8B4F8960125
:104A800001F011F8B4F8400101F00DF8B4F842015A
:104A900001F009F8B4F8440101F005F8B4F8D801C0
:104AA00001F001F8002000F0C6FF002000F0C3FF75
:104AB000002000F0C0FF94F8850100F0BCFF94F8DE
:104AC000920100F0B8FF002000F0B5FFB04B1B686A
:104AD000B3F95E000A2390FBF3F080B200F0E3FF2D
:104AE00090E3742800F01483752840F09B842F20F5
:104AF00000F0D6FFA74CA3E2A02800F06F830AD8ED
:104B0000782800F0B7807B2840F08C843C2000F0AF
:104B1000C7FF00243EE2F12800F0E780FE2800F005
:104B20004F83F02840F07E84994C042000F0B8FFB9
:104B30002368B3F8620000F0B6FF2368B3F86000A2
:104B4000B9E3032000F0ACFF002000F074FF204622
:104B500000F071FF0D209DE300F0A2FF022000F0A5
:104B60006AFF012000F067FF022093E3062000F0B7
:104B700097FF412000F05FFF462000F05CFF4E20D1
:104B800000F059FF412000F056FF834B187892E364
:104B9000824B185D013400F04EFF0B2CF8D100243D
:104BA0007F4B185D013400F046FF082CF8D100243B
:104BB0007C4B185D013400F03EFF072CF8D100F06B
:104BC00017BC072000F06CFFE72000F034FF6F4BAC
:104BD000587900F030FF002000F02DFF042000F095
:104BE00005BCA3420CD2704A9D5C012202FA05F575
:104BF0000D4218BF9A4003F1010318BF1043F0E7BC
:104C000000F05AFF614B93F8AC0743E3122000F029
:104C100047FF664B00241B88B3F5806F94BF0125C6
:104C20000825634BE05E023490FBF5F080B200F0A3
:104C30003AFF062CF5D15F4CE08B00F034FF208C5E
:104C400000F031FF608C5C4C00F02DFF208800F0FC
:104C50002AFF608800F027FFA0882CE3102000F0D6
:104C60001FFF0024554B185D013400F0E4FE102CAA
:104C7000F8D1BDE3702000F013FF00260E2474432A
:104C8000434D01362B682344B3F8210100F00BFF9C
:104C90002B682344B3F8230100F005FF2B6823445D
:104CA000B3F8250100F0FFFE2B68234493F8270199
:104CB00000F0C1FE2B68234493F8280100F0BBFEEE
:104CC0002B68234493F8290100F0B5FE2B68234498
:104CD00093F82A0100F0AFFE2B681C44D4F82B0196
:104CE00000F0EAFE082EC9D182E3702000F0D8FE61
:104CF000264C04F1700594F8D00000F09CFE94F866
:104D0000D10000F098FE94F8D20000F094FE94F8E0
:104D1000D30000F090FE94F8D40000F08CFE94F8DC
:104D2000D50000F088FE073494F8CF0000F083FE31
:104D3000AC42E0D15CE3224B185D013400F07BFE15
:104D4000102CF8D154E31B4D002495F824004000AA
:104D500000F0FE0000F0A4FE95F824309C4280F0A4
:104D60004783184B33F8140000F09DFE0134F3E73D
:104D7000062000F095FE144B186800F09DFE134BC2
:104D80005AE0042000F08CFE114B33E29C0200201C
:104D9000100C0020638E0108F43000205F9601089B
:104DA0006B960108439601089B1C00201000002010
:104DB0009A270020981C002090020020900C0020D0
:104DC000680D0020520200204C020020E00B002061
:104DD000BC0B0020072000F063FEB14B4FF6FF74C0
:104DE0001888FF28A8BFFF20C0B200F024FEAD4BFA
:104DF0001868A042A8BF204620EAE07080B200F008
:104E000052FEA94BD88C00F04EFEA84B93F885219A
:104E1000A74B42B11B680A205843A042A8BF2046B6
:104E200020EAE07002E0186800F30F0080B242E26E
:104E3000022000F035FE9F4B18883CE29E4C0B2070
:104E400000F02EFE23680025187800F0F4FD23689A
:104E50002646587800F0EFFD3368974C2B441879BC
:104E6000013500F0E8FD032DF6D12368D87900F074
:104E7000E2FD2368987800F0DEFD2368D87800F022
:104E8000DAFD2368588900F00EFE2368587A01E2A3
:104E90008A4D1E2000F004FE2B6800241B78022B94
:104EA00065D12B6804F1080253F8220084490DF003
:104EB00003F810F05BFB80F30800C0B200F0BBFD0C
:104EC0002B68804903EB8403D86A0CF0F5FF10F0DF
:104ED0004DFB80F30800C0B200F0ADFD2B6804F17B
:104EE0000E0253F8220078490CF0E6FF10F03EFB6A
:104EF00080F30800C0B2013400F09DFD032CD0D136
:104F0000072C2B6821D1586C6D490CF0D5FF10F09F
:104F10002DFB80F30800C0B200F08DFD2B686849BE
:104F2000986C0CF0C9FF10F021FB80F30800C0B2B0
:104F300000F081FD2B6893F84C000CF065FF10F039
:104F400015FB80F30800C0B20BE02344587800F052
:104F500072FD2B682344D87A00F06DFD2B68234442
:104F6000587D013400F067FD0A2CC9D140E22B685E
:104F70002344587800F05FFD2B682344D87A00F072
:104F80005AFD2B682344587D013400F054FD0A2C4F
:104F9000EDD12DE2494D04F108022B684A4953F83E
:104FA00022000CF089FF10F0E1FA80B200F07BFDE6
:104FB0002B68454903EB8403D86A0CF07DFF10F0A1
:104FC000D5FA80B200F06FFD2B6804F10E0253F8A1
:104FD00022003D490CF070FF10F0C8FA013480B295
:104FE00000F061FD032CD5D1072C2B6816D1586C2D
:104FF00035490CF061FF10F0B9FA80B200F053FDB2
:105000002B683149986C0CF057FF10F0AFFA80B262
:1050100000F049FD2B6893F84C000BE023445878CE
:1050200000F041FD2B682344D87A00F03CFD2B684A
:105030002344587D013400F036FD0A2CD4D1D7E149
:1050400014F8010F002800F0D38100F0F4FCF7E71A
:10505000012000F025FD194B1B6818781AE150203B
:1050600000F01EFD0024154B04F120021B680C21EA
:1050700003EB82035D1C154A5B78013401FB0323BB
:10508000187A00F0D8FC687800F0D5FCA87800F019
:10509000D2FCE87800F0CFFC142CE4D1A8E100BFEA
:1050A000A4270020B0270020981C00209C0200208C
:1050B000AC2700200C0C00207C0C0020100C0020E1
:1050C000000020410000C84200007A44148D01080D
:1050D000482000F0E5FC002506266E43C54BD0367F
:1050E0001B6801351E44B07900F0A5FC707800F013
:1050F000A2FCB07800F09FFCF07800F09CFC3079C6
:1051000000F099FC707900F096FC0C2DE4D16FE171
:10511000002701240025B84B9A78954222DA033300
:10512000E95C0023B54A03EB02089A5C8A4204D08A
:105130000C33B3F5A87FF5D112E0D8F804000FF0D6
:10514000F5FE81460CB9264601E0074408E04E45CD
:1051500006DAD8F80430985D00F06DFC0136F6E709
:105160000135D8E7002C00F04381F8B200F098FC3C
:105170000024CFE7A04D0024A87800F091FCAB7884
:105180009C4280F035819E4BE05C00239B4A99183D
:105190009A5C824204D00C33B3F5A87FF6D102E0CA
:1051A000087A00F048FC0134E9E7082000F078FCB8
:1051B0000124E0B2013400F03EFC092CF9D117E1E2
:1051C000082000F06DFC002000F06DFC002000F0D5
:1051D0006AFC002000F067FC00206CE00C2000F06E
:1051E0005FFC884B186800F067FC874B186800F07C
:1051F00063FC864B1868F9E0042000F051FC844BF6
:105200009868F3E094F87A0100F015FC94F87E01B8
:1052100000F011FC94F87D0100F00DFC94F87F0182
:1052200038E07B4C072000F03BFCB4F8800100F034
:105230003AFCB4F8820100F036FC94F8840100F0E6
:10524000FAFBB4F8860136E0012000F029FC704B2F
:1052500058791FE0684E6F4C96F82400002500EB4B
:105260004000C0B200F01CFC96F8243002349D428D
:1052700080F0BE8014F8020C00F0DDFB14F8010C85
:10528000013500EB800000EB800000F2EE2000F022
:105290000AFCE9E700F0CFFBAAE0082000F000FCE0
:1052A00000245B4B234493F88801013400F0C3FBD6
:1052B000082CF6D19CE000F0F6FB99E04E4B544CE4
:1052C00093F8280004F12805C0EBC000C0B200F03C
:1052D000E7FB94F8F60100234F4AD25C904200F0BD
:1052E000A3800C333C2BF7D10834AC42F1D17FE0E2
:1052F000402000F0D5FB464C04F14005B4F8B00264
:1053000000F0D1FB94F8B20200F095FB043494F85D
:10531000AF0200F090FBAC42F0D169E0E02000F079
:10532000BFFB3B4C04F18005B4F83202043400F0BA
:105330003F0000F0B8FBB4F82E02C0F3861000F076
:10534000B2FB94F82C02000900F075FB94F82C02D3
:1053500000F00F0000F06FFB94F82D0200F06BFBE3
:10536000AC42E1D144E02D4C0D2000F099FB02F05D
:1053700071FC00F060FB208800F09EFBE06800F00C
:105380009BFB0AF015F931E000F09EF804468420FA
:1053900000F086FB204600F08FFB204BDD6804F117
:1053A0008003AB428CBFC4EB0505802505F09CFA59
:1053B00020462A460AA902F081FC00240546AC4298
:1053C00016DA0AA9085D00F036FB0134F7E713206E
:1053D00000F066FB0024124B185D013400F02BFB3B
:1053E0000B2CF8D1002000F067FB002000F064FBDC
:1053F000012030E0100C0020981C0020148D0108C2
:105400009B1C0020E8F7FF1FECF7FF1FF0F7FF1FC2
:105410009C0200203C040020C41C0020200000202E
:105420005F960108002016E000F005FBB4F8F801D3
:1054300000F039FB94F8FA0100F0FDFA94F8FB0152
:1054400000F0F9FA94F8FD0100F0F5FA94F8FC0187
:1054500000F0F1FA48E72BB0BDE8F08F014B33F8CC
:10546000110070471802002000207047034B4FF4D2
:10547000805208B11A6170475A61704700080140B4
:10548000034B4FF4805208B15A6170471A6170475C
:105490000008014003685A1C026019707047044BF1
:1054A0001B68DA79511CD9711344187A704700BF10
:1054B0001828002010B5FFF7F2FF0446FFF7EFFFB2
:1054C00004EB002080B210BD10B5FFF7F3FF0446D7
:1054D000FFF7F0FF04EB004010BD828810B5140602
:1054E000836806D512484FF4CA7490F8AC0704FBE1
:1054F0000033D00504D50F480E24007804FB003398
:1055000002F03F02042A0DD003D8013A012A07D93C
:1055100010BD102A08D0202A08D0082A07D101E09F
:10552000197010BD198010BD196010BD196010BD33
:105530009C020020D11A002007B50123ADF8041009
:1055400001A98DF806208DF807300AF000F903B0A4
:105550005DF804FB30B5084900230A780C4607497A
:105560005D56854203D1FF25013A5D54D2B20C331A
:105570003C2BF4D1227030BDC01C0020C41C002084
:105580000023074A1A445168814203D00C333C2B54
:10559000F7D170470023C36213725360704700BF96
:1055A000C41C002038B50D4D04462B68834206D13B
:1055B000FFF7E6FF284600214C220FF077FCEB6C4A
:1055C000A34209D12046FFF7DBFFBDE8384004487D
:1055D00000214C220FF06ABC38BD00BFC41B002064
:1055E000101C002010B5084B01461A680023D4187F
:1055F00094F90240901C8C42184403D00833282BA5
:10560000F5D1002010BD00BF601C002038B14388D8
:1056100011EA030003D08B4214BF0220012070471F
:1056200030B50B4B0B4A1C681378042B0DD8591C52
:1056300004EBC3039D88C9B2284203F1020302D0E0
:105640001170184630BD0B46EFE71370002030BDD7
:10565000601C0020001D0020014B00221A70DFE7B3
:10566000001D00202DE9F0478278C6781E4BC2F15C
:10567000640802EB820C54425FFA88F84FEA4C0C43
:10568000C6F16409A4B203F11807A5B228B2002834
:1056900004DC002D14BF1546012500E0454600FB43
:1056A00000FA6D430AFB06FA9AFBF5F54D44684390
:1056B0004FF00A0A90FBFAF0604480B258800D88DF
:1056C000B1F802A000B2C5EB0A0A00FB0AF04FF4E1
:1056D0007A7A90FBFAF0054423F8025F0A34BB4261
:1056E000A4B2D2D1BDE8F087FE1A002010B54478EC
:1056F0000078002303FB03F11939614301F6C4115B
:105700005943414340F6C41291FBF2F1034A22F897
:1057100013100133072BEDD110BD00BFD81A0020A4
:1057200010B50D4C2068FFF7E1FF20680023447A94
:1057300003FB03F11939614301F6C41159431922DE
:1057400091FBF2F1054A22F813100133072BEFD138
:10575000BDE81040024985E77C0C0020E61A0020D5
:10576000DC03002010B50023C25C8A4204D1C218B9
:105770009478D278944204D30433502BF4D100208F
:1057800010BD012010BD10B5094A0A491368886888
:1057900000BF12689342F7D1074A11684FF47A723A
:1057A00002FB01F4201AB0FBF1F002FB030010BD74
:1057B000B030002010E000E04414002008B50E4B8B
:1057C0001B78012B0CD007D3022B0CD10B4BDA68C2
:1057D00082F00802DA6006E0084B08221A6102E053
:1057E000064B08225A61FFF7CEFF054B00F5F42067
:1057F00000F59070186008BD7C1B0020000C014073
:10580000881B002038B50446FFF7BDFF0546FFF7AB
:10581000BAFF401BA042FAD338BD10B504462CB1E4
:105820004FF47A70FFF7EEFF013CF8E710BD08B5C2
:105830000F4B1A780023D9B2914207D20D490020AC
:1058400051F82310013309680880F4E73220FFF78C
:10585000E4FF094B1B685A0308D5084B9B685B03A0
:1058600004D4BDE8084040F2DC50D6E708BD00BFD4
:10587000300C002098150020D40000209C0200204D
:1058800008B5024B1B68984708BD00BFDC300020FC
:1058900010B50020FFF7F4FF064B00241C70FFF743
:1058A0008DFF054B1C70054B1C60054B1C80054B88
:1058B0001C6010BD7C1B0020781B0020741B002086
:1058C0007A1B0020701B00202DE9F84381460B262F
:1058D000013E31D0204B10225A6108221A6109F191
:1058E0000108322705251C4C0120E36883F01003D2
:1058F000E360E36883F00803E360FFF7C1FF384625
:10590000FFF78BFFE368002083F01003E360E36898
:1059100083F00803E360FFF7B3FF3846FFF77DFF2E
:105920003DB1013DDFD14FF4FA70FFF776FFFA2762
:1059300007E008F1FF3804E0084A094BDA60BDE8E7
:10594000F883B8F1000F01D00025CCE74FF47A704E
:10595000FFF763FFBCE700BF000C01400400FA053D
:1059600000ED00E0074B5A6832B1DA681AB15A69A3
:10597000103322B900E008335960187070470020D6
:10598000A2E700BFB430002038B509F019FF104C71
:1059900005461920FFF741FFA3681520002198470D
:1059A00010B90220FFF790FF45F01801A368C9B2B3
:1059B00016209847A368002117209847A368012163
:1059C0003D209847A36801213E20984738BD00BF7D
:1059D0006C25002008B503689B69984708BD08B589
:1059E00003685B69984708BD10B504462046FFF779
:1059F000F6FF18B90A20FFF710FFF7E710BD08B54A
:105A00000368DB68984708BD08B503685B6898477A
:105A100008BD10B5044C2068FFF7F6FF18B12068E8
:105A2000FFF7EDFFF6E710BDF827002008B5036883
:105A30001B68984708BD064B10B5044621461868F8
:105A4000FFF7F4FF034B1B689A7954409C7110BD1B
:105A50001C28002018280020014B1B689879EAE7D1
:105A60001828002038B5044624200D46FFF7E3FF30
:105A70004D20FFF7E0FF002C084C0CBF3E202120FA
:105A8000FFF7D9FF2368002228469A71FFF7D3FF5A
:105A9000236893F84900BDE83840CCE71828002077
:105AA00001460020DEE710B50446C0B2FFF7C3FF91
:105AB000200ABDE81040BEE710B5044680B2FFF7EB
:105AC000F2FF200CBDE81040EDE7024B01461868DC
:105AD000ACE700BF8C1B002010B5441E14F8011F5A
