:020000040800F2
:10000000005000202D590108D95901080143010869
:10001000D9590108D9590108D9590108000000002F
:10002000000000000000000000000000D959010895
:10003000D959010800000000D9590108D942010826
:10004000D9590108D9590108D9590108D9590108C4
:10005000D9590108D9590108494201084542010806
:10006000D9590108D9590108D9590108D9590108A4
:10007000D9590108D959010805420108D95901087F
:100080004D420108D9590108D9590108D959010827
:10009000D9590108D9590108D95901084142010823
:1000A000D9590108C1410108D9590108D1410108B4
:1000B000B1410108A14101089141010889420108AB
:1000C00081420108854201087D420108D959010891
:1000D000D9590108F9410108ED410108E141010840
:1000E000E9420108D9590108D95901080000000066
:1000F0000000000000000000000000000000000000
:0C01000000000000000000005FF808F1A3
:100110002DE9F04F754B764FA1B03B6000237B601B
:100120000CF08EFB18B913F029FA0CF0ADFB0CF0B3
:100130004DFD704B704C1A78704D42F001021A70F0
:100140000023089309930A934FF4E0130B93236859
:10015000297B43F480332360A36943F01003A36138
:10016000236803F400330993089B01330893099B28
:100170001BB9089BB3F5A06FF2D122685E4B12F455
:10018000003201D0022315E0186840F00100186029
:100190000892236803F002030993089B0133089334
:1001A000099B1BB9089BB3F5A06FF2D123689E078A
:1001B00039D501230A93524B52481A6842F0100273
:1001C0001A601A6822F003021A601A6842F00202EA
:1001D0001A606368636063686360636843F48063A4
:1001E0006360494B1A68043B22F070425A60474AE8
:1001F0001060606820F47C106060586840F0004037
:100200005860D86820F40040D8609B68180449BF43
:100210003F4B4FF4E01313604FF480130B930A9B92
:10022000012B01D117E0FEE7022B18D169B10B9B1E
:10023000B3F5801F02D14FF4A01305E00B9BB3F57B
:10024000E01F02D14FF400130B9361680B9B0B432B
:1002500043F4803302E0636843F46013636023680F
:1002600043F0807323602168234B8901FBD55968D3
:1002700021F003015960596841F002015960636837
:100280001D4903F00C03082BF9D14868214B00F0FD
:100290000C00042803D0082804D01A4900E0116893
:1002A000196011E048684E68C0F38340F60300F11E
:1002B000020001D4184905E0496811F4003F1168B3
:1002C00018BF49084843186061681448C1F3031116
:1002D000014491F818A0196821FA0AFAC3F800A09D
:1002E0001368084A93421BD101221DE0B986000819
:1002F000C0150020A035002000100240A002002000
:100300000020024000127A0004100140100000207A
:10031000001BB7005400002000093D00C8A80108D8
:100320005A4A934202D10222594B1A70DFF8909137
:10033000584B20AEC9F80C30A369DFF880B143F008
:100340000103A361636A4FF00008BB60636A52480F
:1003500043F080736362A36943F01C03A3614FF60B
:10036000FF7326F82C3D31468DF8568010F08BF93E
:100370005846314610F087F93146484810F083F965
:10038000474B30465A6842F000725A6007F0ACFCA6
:10039000444A159B4146B3FBF2F343480C22FB60F1
:1003A00017F024FD4FF47A72404BBAFBF2FA0AF1CF
:1003B000FF325A60F02289F823200722C3F8088010
:1003C0001A60AB68DFF8FC90DFF8FCA0C9F80030D9
:1003D000374B0FCB86E80F00A369159843F008034D
:1003E000A361A36916A943F00803A3610823CBF80E
:1003F00010301023CBF8103010F045F9179818A9D9
:1004000010F041F9D9F800301B0763D59AF8903104
:10041000012B5FD8274B9AF891219B6813F0805AE3
:1004200000F076864346002B54D0234ADFF88CB088
:100430001068DFF864801023CBF814303146159033
:100440004046039310F01FF90822C8F810203C2002
:1004500008F063F8039BCBF810304FF0000B95F8D1
:1004600091319B4532DA154B08261E617820C8F879
:100470001460039308F046F8039B78205E61C8F887
:10048000106008F03FF80BF1010BE8E7001BB70024
:10049000CC3500200005FA0500080140001001409D
:1004A0000000014040420F009435002010E000E0C1
:1004B000F0A80108C015002000A90108000C0140A7
:1004C00000ED00E0D8000020A0020020BAF1000FEB
:1004D00000F02786642008F020F8A0228848002138
:1004E00017F084FCE369002243F00703E361A3698A
:1004F00043F4006343F00C03A361824B002603F135
:100500001001565401320E2AF7D1D9F80040FF22CB
:100510009A77DA7783F8202083F8212004F04003CB
:100520000493794A794B31461A6079483C2217F096
:100530005DFC052331460C20764A48438E5CDFF88B
:10054000D0E1049A00F80E603AB91E3E012E04D89C
:10055000FF26013B00F80E60DBB201310529EAD12C
:100560006D4A95F8059013706C4A6D4B7A62C032F3
:10057000BA626C4A83F8009002EBC902614B527870
:10058000A00648BF0122DA620023674A40F2DC512C
:1005900099520233102BF8D1644B4FF028081E6893
:1005A000B6F90C0014F08AF9614914F08FFA386337
:1005B0008346B6F90A0014F081F95D4914F086FA11
:1005C0005C4B0646186031465B4814F0C1F814F0E5
:1005D0008FFB59490690304614F0BCF814F088FBA4
:1005E000002605903746404614F068F953490390B9
:1005F00014F0B8F9524914F069FA029008F06AFC54
:1006000001460BF1004014F0ADF9DDF808C0824658
:1006100060460FF0A1FD039A84461046CDF808C04D
:1006200008F0AEFDDDF808C00146604614F09AF906
:100630000146504614F08CF8424A069B02EB8802B1
:100640009845824642F8A00C0DDB059A90450ADADF
:10065000394614F025FB00B157465046314614F098
:100660003DFB00B1564608F10108B8F18C0FBAD134
:100670003846002114F032FB10B907F1004800E0C1
:10068000B8463046002114F029FB10B906F10041AC
:1006900000E03146404614F003FB38B138460021F3
:1006A00014F01CFB50B907F1004608E03046002169
:1006B00014F014FB18B906F1004600E03E46224B48
:1006C0000EA800211C221E6017F090FB14F4007885
:1006D0001E4E04F400673BD0A1040AD43FB195F844
:1006E000842106F10C03012A18BF334603E0069665
:1006F00002E006F10C03069315AB14932AE000BF49
:10070000F4330020C015002098040020901E002023
:10071000481F00201CC70108451F0020B002002010
:10072000620D002004C80108680D0020580D00204B
:1007300000002041780D00200000B442DB0F49404A
:1007400000003443380F0020340F0020C8A80108EF
:10075000CDF81880B9F10E0F04D009F0EF09B9F106
:10076000080F02D101238DF84A30012007F0DEFD89
:1007700018B14088003018BF0120C4F340038DF841
:100780003E30049B00F0010013F1000AC4F3403333
:1007900018BF4FF0010A8DF83830C4F3C0338DF81C
:1007A0003D008DF841A08DF83B3027B195F884715C
:1007B0007A1E574257418DF83C70BB4FC4F300433B
:1007C0008DF84230FB6A18F1000818BF4FF001089D
:1007D000003318BF01238DF84430C4F300538DF863
:1007E0004530B5F8463104F00101ADF84830B5F8B0
:1007F0005231C4F3C002ADF84630C4F380438DF8E3
:100800003F3095F854318DF83910181C18BF01206D
:100810008DF84000B5F85001B5F8445114F4805FEC
:100820008DF83A208DF84380ADF84C00ADF84E506D
:10083000BB4604D09D4CB4F84C41ADF84E40B0F5E9
:10084000FA7F02D90BB9ADF84E30984B984C93F81B
:10085000D4018BF8340000208BF8350060709DF8CF
:100860004A00002814BF0223002301B902B101335A
:1008700006EB8303DB6B4FF0000A0593CDF810A065
:1008800005994FF6FF7331F80A209A4200F09681DD
:10089000D3B2884F9DF83D101D017C1919B1991EE6
:1008A000012940F285819DF8411021B17959824892
:1008B000814200F07D819DF842E0BEF1000F04D03E
:1008C00079597D48814200F073819DF83E1039B11D
:1008D00061687A48814203D12189102900F068813A
:1008E0009DF83B1039B161687448814203D1218978
:1008F000022900F05D819DF83C1039B161687048B3
:10090000814203D12189022900F05281DDF850C0D3
:10091000BCF1000F0FD06068DCF8001088420AD1EB
:100920002189BCF80400884200F04281BCF806002E
:10093000884200F03D814FEA1228B8F1020F02D13F
:100940009DF8382004E0B8F1010F04D19DF839205A
:10095000002A00F02D819DF8442062B19DF84A20C4
:100960004AB9A3F10802012A05D87A5955498A42A1
:1009700008BF4FF004089DF8452062B19DF84A2059
:100980004AB9BEF1000F02D00C3B012B01E0043B41
:10099000032B40F2F680B8F1010F3DD1FF238BF815
:1009A0007C308BF87D30637B4FF0000922896068D2
:1009B0008DF8563015A902238BF88090CBF88C4027
:1009C0008DF85730ADF854208BF83890CBF83C9028
:1009D000CBF84090CBF84490CBF878908BF87E9091
:1009E0008BF87F900FF04FFE7859A17A4A4607F0B6
:1009F00031F92046494642460BF0ADFC324B3349B3
:100A0000CBF89030324BCBF89890CBF8943020460E
:100A10000A1D0DF069FFCBE0B8F1020F60D1049917
:100A20002C4ACBB21C214B434FF0000102EB0309CF
:100A300089F8021089F80A1004994FF0010C89F81E
:100A4000011002F803C0637B22896068C9F80C407A
:100A500015A98DF85630CDF808C0ADF854208DF8A2
:100A600057800FF010FE7859A17A002207F0F2F8B3
:100A7000DDF808C02046624600210BF06CFC164BE6
:100A80000022C9F81030154BC9F81820C9F81430E5
:100A9000204609F1100109F114020DF025FF049B15
:100AA0000133049384E000BFC0150020A0020020A1
:100AB000F515002024C7010800040040000801408B
:100AC000000C0140002C0140F7FA000850160020ED
:100AD000F9FB000840160020917C0008D1FB0008BB
:100AE000B8F1030F4AD19DF83F30E3B19DF8403093
:100AF000994D9BF8367053B1BDF84C30974A20465B
:100B0000B2FBF3F2082192B2BDF84E3003E020466A
:100B100008214FF6FF720BF048FC0BEB8707C7F874
:100B20006001C56024E0BDF84C209BF83650B2F55A
:100B3000FA7FBDF84E300DD988492046B1FBF2F25C
:100B400092B208210BF031FC0BEB8505C5F8600172
:100B5000834B0CE083492046B1FBF2F292B20121B3
:100B60000BF023FC0BEB85057B4BC5F86001C360E4
:100B70009BF8363001338BF8363019E0B8F1040FAA
:100B800016D1BDF84630774A204692FBF3F2012198
:100B9000BDF8483092B29BF835500BF006FC9BF83C
:100BA00035300BEB85050133C5F890018BF83530F6
:100BB0000AF1020ABAF11C0F7FF462AE9BF83530DD
:100BC000694F8BF8B031694B00251C783D70A4F15A
:100BD0001703022B1AD8DBF824300021585903EBF5
:100BE000050814F053F818B1DBF82C306BBB25E086
:100BF0005F4B05EB030E98E80F008EE80F003B7883
:100C000010350133C02D3B70E5D1EDE7594B13F89A
:100C100034C003EBC403D3F8048087F800C0B8F1F4
:100C2000000FE1D06545DFDA514A2B0103EB020EDC
:100C300043440FCB01358EE80F00F3E74E4B1A68A3
:100C4000994612F4805F23D11CE006EBC40696F8A7
:100C50004C004A4B356D1870002DEFD000238342B5
:100C6000ECDAC3EBC3016A18D2F800C0DFF834E154
:100C7000013341F80EC001EB0E069188B1809279E4
:100C8000B271ECE704F0EF03082B3D4B23D124E0D5
:100C90003F78012FF6D93B4D0026BE4205F11005E5
:100CA000F0DA55F8100C4FF07C5113F05BFE4FF06A
:100CB0007C5145F8100C55F8140C13F053FE4FF00E
:100CC0007C5145F8140C55F80C0C13F04BFE013612
:100CD00045F80C0CE1E70E2C08D11A78182C42F0DC
:100CE00010021A7008D107F0B2FD05E01A78192C2D
:100CF00022F010021A70F5E70DF058F9D9F800301B
:100D00005B0302D4204B01221A70204B204E1A782C
:100D1000204C42F004021A7033784FF48052012BB9
:100D20008CBF102314238DF856304FF002038DF83A
:100D30005730A36915AD43F00403ADF854208CBFC0
:100D400001270027A361144829460FF09CFC134B90
:100D500057B3134A29E000BF09FC000800127A00CB
:100D600019FC000840420F00540D0020620D0020C5
:100D70007C0D002004C80108D80000209C0E002033
:100D80009A020020840D002010150020A0350020BC
:100D9000CC3500200010024000080140B035002092
:100DA000518200089D0E0020C14A00201A6007F001
:100DB000E7FBC04BC04F93E80300A36985E803003D
:100DC00043F0080316A9A36115980FF05CFC13F01B
:100DD00089F99F238DF83430322000234FF4805856
:100DE0008DF835308DF836308DF8373007F095FBBB
:100DF0000422C7F8148028460DA909F0ADFAC7F8F7
:100E000010809DF856209DF85530120242EA0342A8
:100E10009DF857301A43A94B9A4214D0322007F05C
:100E20007CFBC7F81480F52009F018FAFF2009F0C0
:100E300015FA7028C7F8108005D13378022B02D13B
:100E40009F4B03221A703378032B0CBF1F20022004
:100E500007F043FA3378032B03D0012009F04EF852
:100E600009E0022007F062FA18B14088003018BF8C
:100E70000120C707F1D53678D9F800700496914E55
:100E80004FF0100A07F400635246304600210593E4
:100E900016F0ACFF4FF6FF73ADF8343002234FF07D
:100EA000000817EA030207F400498DF836308DF880
:100EB0003780374610D020A921F84CAD824806F083
:100EC00065FF4FF0010A04220723327086F8018083
:100ED00086F802A0F37000E09246B9F1000F11D03D
:100EE000022320A921F84C3D774806F04FFF01234B
:100EF0000AEB03023B71BB71072387F805A0FB7166
:100F00005FFA82FA049B012B12D9202320A921F831
:100F10004C3D6D4806F03AFF052301223B72BA7240
:100F20000AF10103072287F809A0FA725FFA83FA2F
:100F3000059B93B1022320A921F84C3D5E4806F0A1
:100F400025FF092301223B73BA730AF1010307222B
:100F500087F80DA0FA735FFA83FA63685B4843F47D
:100F6000404363606369594E43F001036361A369C1
:100F700043F40073A36106F0D9FF554B0024159389
:100F8000544BBAF1020F169334BF234680231A93B1
:100F90004FF480731B934FF480631C9320232946E6
:100FA0001D9330464FF400531E931794CDF860A064
:100FB00019941F9406F09CFF3368BAF1010F43F0B7
:100FC00001033360444B98BF00215A6888BF012158
:100FD00022F4702222F4807242EA01225A60996857
:100FE0003E4A20460A4042F4602242F002029A60E1
:100FF000D96A0AF1FF3221F47001D2B241EA0252F9
:10100000DA62012339188A78002A69D03A5C5C1CBC
:10101000092ACE78E4B2304910D9A2F10A0505EBCD
:1010200045054FF0070E0EFA05FEAE40D1F80CC094
:101030002CEA0E0E4EEA0605CD600DE002EB4205ED
:101040004FF0070E0EFA05FEAE40D1F810C02CEAA4
:101050000E0E4EEA06050D61062B1F490CD8013B0A
:1010600003EB83031F259D409A404E6B26EA05053E
:1010700045EA02034B6334E00C2B0CD8073B03EB2F
:1010800083031F259D409A400E6B26EA050545EA1D
:1010900002030B6325E00D3B03EB83031F259D40FB
:1010A0009A40CE6A26EA050545EA0203CB6218E0BB
:1010B00065820008E4A90108000C01401520200009
:1010C000CC350020601D00200008014008000240CF
:1010D0004C240140701D002000240140FDF7F1FF69
:1010E0001C460430102801D023468BE71E4B9A681B
:1010F00042F480729A609A6842F001029A609A689B
:1011000042F008029A609968174A0C0710D5FAE76E
:1011100002F1FF38B8F1090F8CBF00230123FFF75C
:1011200082B9124B83F891A10BF008FFFFF7D2B9F7
:10113000936843F0040393600B4A936813F004032D
:10114000FAD1916841F4A0019160084AB2F85801BF
:1011500078B9B2F95A315BB9B2F95C31D3F1010314
:1011600038BF002305E000BF00240140A00200209A
:10117000034613F0010340F08A80B94A00B21371AC
:1011800013F09CFBB74913F0EDFBB74E0546B6F9DB
:101190005A0113F093FBB34913F0E4FB0446B6F98C
:1011A0005C0113F08BFBAF4913F0DCFB8046284653
:1011B00007F090FE064628460EF0CEFF0746204672
:1011C00007F088FE054620460EF0C6FF044640465E
:1011D00007F080FE814640460EF0BEFF3146804655
:1011E000484613F0BFFB31460490404613F0BAFB6B
:1011F00049460590384613F0B5FB414607903846FE
:1012000013F0B0FB29468246484613F0ABFB41463B
:10121000CBF8B40105F1004013F0A4FB2146CBF854
:10122000B801CBF8BC41079813F09CFB0146059828
:1012300013F090FA2146CBF8C001504613F092FB10
:101240000146049813F084FA2946CBF8C40107F14B
:10125000004013F087FB2146CBF8C801049813F037
:1012600081FB0146504613F073FA2146CBF8CC01BE
:10127000059813F077FB0146079813F06BFA314697
:10128000CBF8D001284613F06DFBCBF8D401774D95
:101290002B68980322D5C82007F03FF9AE200FF045
:1012A0007FFC08B10BF023FC714C84F8D801C820F6
:1012B00007F033F96F4B00210C2204F5F070C4F8ED
:1012C000DC3116F093FD022384F8E33111F014FDB4
:1012D00007F0FDF8684B0344C4F8E831674C624EF0
:1012E000236896F85F0196F8691196F86A21B3F9B8
:1012F000563009F0FFFF10B901200CF059FD604B8A
:101300000A271A7842F002021A705E4B10225A61C4
:1013100008221A615B4C1920E368013F83F0100337
:10132000E360E36883F00803E36007F0F6F8012068
:1013300007F026F9192007F0F0F8002007F020F94F
:1013400017F0FF07E6D10823236110274E4B2761D2
:101350001A68994612F0080F07D04C4B67611B685A
:1013600098474B4B012227611A70414C4FF00008FF
:10137000D4F8EC71387B13F0A1FA3A4913F0F2FA81
:1013800007F0A8FD434BC4F8F001188813F096FA53
:1013900001464FF07E5013F099FB3F4B3149C4F8A2
:1013A000F401186913F0DEFAC4F8F801387813F084
:1013B00085FA01464FF07E5013F088FB0146C4F8D1
:1013C000FC014FF07E5013F0C3F94FF07E53C4F888
:1013D00000024046C4F80C32C4F81832C4F8048243
:1013E000C4F80882C4F81082C4F8148207F072FDB1
:1013F000074640460EF0B0FE39468046384613F0A8
:10140000B1FA41468246404613F0ACFA39460490A0
:10141000504613F0A7FA41468346049813F0A2FA07
:101420000146584613F096F93946C4F81C02404666
:1014300013F098FA3946039013F094FA039B83460D
:101440004146184613F08EFA034619465846039350
:1014500013F07EF9039BC4F82002194658461DE09C
:101460001000002035FA8E3CA0020020D800002099
:10147000C015002028040020404B4C00480C0020E0
:10148000A0350020000C0140400200208C0200200A
:10149000A00A00200C000020300C002013F05AF9A4
:1014A0004146C4F82402504613F05CFA394680469F
:1014B000049813F057FA0146404613F049F9B84F23
:1014C000C4F828024FF00008FF211B22384684F898
:1014D0002C8216F08BFCD9F80020B24B012112F0BF
:1014E000020F197087F80080384604D07970032104
:1014F00019700221B970510704D519784F1C1F705B
:101500000327475412F00A0F0CD01A780421815493
:10151000511CC9B205274754D11C02321970D2B2EE
:10152000062181542A68970604D519784F1C1F702C
:1015300007274754110608D51978092747548F1CE7
:1015400001311F70C9B20A2747547179082901D0A7
:101550000E2908D11F7807F1010E83F800E04FF043
:101560000B0E00F807E01F784FF00C0C07F1010E8E
:101570005FFA8EFE12F4803F83F800E000F807C0A7
:1015800009D007F1020C874F87F800C0844F4FF055
:101590000E0C07F80EC0570706D51F7807F1010E8D
:1015A00083F800E01023C3557E4B4FF0120C1F78D8
:1015B00012F4806F07F1010E5FFA8EFE83F800E0EF
:1015C00000F807C00BD096F824C2BCF1000F06D07B
:1015D00002371F70724F4FF0130C07F80EC01F78C0
:1015E0004FF0140C07F1010E5FFA8EFE12F4007F2B
:1015F00083F800E000F807C009D007F1020C694F3A
:1016000087F800C0664F4FF0150C07F80EC0182978
:1016100013D11F784FF0160E00F807E007F1010E06
:101620005FFA8EFE4FF0170C00F80EC007F1030EA4
:101630000237FFB283F800E0C155110305D55949BF
:101640000B785F1C0F701921C154D30505D5554A7D
:101650001378591C11701A22C25400219822524842
:1016600016F0C4FB10F040FCB6F84E314F49A4F818
:10167000343200234E4A0B808B70B6F896014D49E8
:10168000C4F830220A6084F8363282B24A495A528B
:101690000233242BFAD12B68DF0458BFB6F89C2103
:1016A0001B07CA8040F1EA8096F89031062B00F2C1
:1016B000DF80DFE803F004070E39559D9D0045F2F9
:1016C000F05201E042F6F8223C4B1A8010F096FCF2
:1016D000CDE03A4B42F6F8221A8013F0EFF8384981
:1016E00013F040F9374913F033F813F027FB0023C8
:1016F000354A98500433482BFAD1344A344B4020B1
:101700009A60344B12221A7006F04AFE002800F04C
:10171000AF8001234FF0070A90F9000040218DE8C7
:1017200008042D4A2D4B9DE0244B42F6F8221A80E6
:101730002B4A274B40209A60264B10221A7006F045
:101740002FFE002800F0948001234FF0000890F94C
:10175000000040218DE80801224A4FF4E13381E086
:10176000164B42F6F8221A801F4A194B40209A6005
:10177000184B08221A7006F013FE002878D00123B7
:101780004FF0000C90F9000040218DE80810174A36
:101790004FF4E13310F05EFBC4F8380264E000BFA0
:1017A000E31E0020E21E0020F41D0020540E002045
:1017B00028040020E000002056020020880C0020B1
:1017C000CDCCCC3F0000B044340100205576000859
:1017D00010000020FE1E0020BD780008A086010039
:1017E000457600080D78000831760008C1770008BA
:1017F000494A42F6F821118048490C22062B4848F4
:101800000A7010D00023037084F83C3284F83D3213
:101810001B2384F83E32052384F83F2284F84032AB
:101820004FF4E1370DE00021017084F83C1284F898
:101830003D123C4F212184F83E1284F83F2284F867
:101840004032394A394B40209A6006F0A9FD78B100
:1018500001234FF0000E364A90F9000040218DE838
:1018600008403B4610F0F6FA003018BF012028B9B6
:1018700008200EF0E3FC2F4A2C4B9A602B68274A75
:1018800013F4804F04D0122111702B48274988602F
:1018900042F20101194089B11F4944F620600880D5
:1018A000980404D508211170244820498860D9077C
:1018B00004D50C21117022481C49886011781F063C
:1018C000A1F1040151707CD54FF000081D4FDFF8E5
:1018D00080A041461522DFF87CB01B48C4F844A222
:1018E00087F80180C7F80480C7F8088016F07EFAF0
:1018F000AAF105034046CBF800300CF0A9FD134BCC
:1019000002201B68FB6006F04BFD594620BB80207F
:101910000EF094FC4DE000BF880C0020FE1E00205D
:101920001802002090D00300F1750008100000207C
:10193000A9760008A5760008817600088D76000853
:1019400099760008080C0020081800209035002027
:1019500098040020280C002090F805E07B78C64A07
:101960004FF00C0C0CFB032C9CF801C0F44504D088
:101970000133DBB2042BF2D900237B700B6890F9A2
:1019800000001B78002B7B784FF00C0707FB03222D
:101990000CBF012103215378002200910192022102
:1019A00010F058FAB54B18600028B0D001200CF0A8
:1019B0004FFDB34AB34B106800F5C5721A600EF0C4
:1019C00025FD2B68980555D5AF4F069B06993B60C2
:1019D000AE4B4FF010089A69AD4842F001029A618F
:1019E0000B880CA9ADF8303002238DF832808DF8C9
:1019F00033300EF048FE3B68A5485B880CA9ADF873
:101A0000303004238DF832300EF03DFE3B6801206B
:101A1000197A0EF023FE3B689E4A5B684FF0000A7D
:101A2000536115A88DF859804FF0010815938DF872
:101A300058A08DF85A8006F02DFA3B680DA85B7A05
:101A40008DF836A08DF8343003238DF835308DF8BD
:101A500037800DF01FF9904B1A68904B3C3A1A6092
:101A6000D9F800304FF0FF3243F01003C9F80030CE
:101A70008B4B1A608B4B8C4FC4F860328033C4F8A8
:101A800064322B684FF00008D90387F8008040F1DA
:101A9000BA800EF063FCDFF844C2DFF8F09140F248
:101AA0002A3B4FF0010A60465A46414687F800A09B
:101AB000CDF808C016F09AF9D9F818307B4843F0F1
:101AC0000403C9F818304023ADF8303018238DF8DE
:101AD00033300CA903238DF8323006F057F9D9F8CA
:101AE0001C30734F43F00203C9F81C30714BA9F648
:101AF00094791A68704BB2FBF3F23B88013A23F4F5
:101B00005C731B041B0C3B8092B21D23BB853A8582
:101B1000A7F814A03B8C23F001031B041B0C3B848F
:101B20003B8CB9883A8B23F0020322F07302120433
:101B30001B04120C1B0C89B242F0600243EA0A0338
:101B4000B9803A83A7F834803B843B8B23F00803A9
:101B50001B041B0C43F008033B83B7F844306FEAC7
:101B600043436FEA53439BB2A7F84430D9F8A83FE8
:101B700043EA0A03C9F8A83F484606F0D7F94F4B95
:101B80008022DDF808C01A924FF4807215931B92E0
:101B900010234FF40052484615A917931E92039341
:101BA000CDF86480CDF87080CDF87480CDF87C805D
:101BB000CDF858C0CDF860B006F09AF9BA89039B09
:101BC00092B242F40072BA81D9F800200DA842F016
:101BD0000202C9F800208DF834308DF835A08DF858
:101BE00036808DF837A00DF055F8354B1A68354B17
:101BF00048F8032008F10408B8F1800FF5D10CF083
:101C000067FF0CF065FF2B685A0540F18B80D4F814
:101C100094852D4B0420C3F8008006F0C1FB0421FD
:101C2000C4F8980506F096FB284B84F89C0508201C
:101C3000C3F8008006F0B4FB254B0821186006F0BD
:101C400089FB244F84F89D05002138462C2216F08C
:101C5000CDF88E237B704FF07C0AE0234FF07D0996
:101C6000FB7087F800A087F82B901B4F2C220021D7
:101C7000384616F0BBF833E078970108040C0020D2
:101C8000480C0020440D0020000C002000100240F1
:101C9000000C01400004014090350020FC0B0020A6
:101CA000CC0B0020D40400202D150020000801409A
:101CB000000400405400002000366E01340400404F
:101CC000B09B01082E1500209C1F0020F01F002053
:101CD0003C200020C01F0020F51F002028180020F5
:101CE0008A237B701020A023FB7087F800A087F860
:101CF0002B90C4F8A08506F053FB1021C4F8A4056E
:101D000006F028FB84F8A8052020C4F8AC8506F06E
:101D100047FB2021C4F8B00506F01CFB84F8B4058D
:101D200010F070FB744B754F1B78022B68D1744B0D
:101D30004FF000081A88322022F040021204120CE0
:101D40001A801A884FF4805922F038021204120CBB
:101D50001A801A8892B242F040021A809F238DF8AE
:101D600034308DF835808DF836808DF8378006F068
:101D7000D4FB8DF85580DFF8D8810422C8F8149080
:101D800015A80DA908F0E8FAC8F810909DF856308B
:101D90009DF855201B0243EA02439DF85720134348
:101DA000584A934219D00AD8A2F51A42033A9342EC
:101DB0000CD002F51A420232934209D01BE0524A7B
:101DC000934205D00132934207D014E0202300E073
:101DD00080233B804FF4807302E04FF480733B809C
:101DE0007B80BB883A881B02BB605343FB600123A6
:101DF00084F8B53504E000233B807B80BB60FB604A
:101E0000FB6823B34FEAD328C2464FF00009C1450F
:101E10000BDA09EB08077F100DF1540BF802594655
:101E2000102208F0A9FB0F2806DC0FF02FFA4FEA6A
:101E3000CA23C4F8B8350AE000235BF80320013256
:101E400055D10433102BF8D1BA46B846DFE72B68DA
:101E500013F400222D4B18BF01221A7006F037FB35
:101E60002B4B18607379052B03D12A4B4FF4C872A2
:101E70001A80294B4FF47A721A80284BC8221A8094
:101E8000274B28491A7842F008021A70264B1A7814
:101E900022F002021A700A6840F6020313406BB186
:101EA0002248234B1860234B03201870224B01203B
:101EB000187022480023038021480380930308D52B
:101EC000042384F8E43194F8E33143F0010384F807
:101ED000E3311C4B01229B680B601B4B1A701B4BA0
:101EE0001A7862F07F021A7021B0BDE8F08F07F116
:101EF00001094746A9E700BFCC3500201C0000209F
:101F00000038004018BA20001740EF0011150020DB
:101F10004C0C0020B41D0020C6350020C035002028
:101F20009A020020D8000020CB3500201A0400209F
:101F3000941F0020F41F002058000020521D002094
:101F4000541D0020A002002010150020A035002004
:101F5000000C014095492DE9F04F0A68944C02F5B8
:101F60009C4394482778203387B00360B7B16368F7
:101F70009A4240F2F180013F2770EDE03368072D6F
:101F800098BF595D8C4B88BF29461B688B48984782
:101F9000032D0AD904EB450528810137874BFDB293
:101FA0001A78874EAA42E9D81EE0336805F10E027E
:101FB00003EB82029388D2880028EBD0C01A4FF43A
:101FC0007A714843D31A90FBF3F0084440F6C903F2
:101FD000984205DC40F2EE239842B8BF184601E073
:101FE00040F6CA0080B2D5E7764A42F2010912688B
:101FF00002EA0909744AD9F10109127838BF4FF091
:10200000000932B9B9F1000F06D0704A92F8008089
:1020100003E04FF0010800E0C8460F2293F800A04B
:1020200084F82C206A4A4FEA4A0192F800B00391E2
:102030000321BBFBF1F101EB4101C1EB0B01C9B283
:10204000336849000025634E02912F4603998D4263
:102050004BD0B8F1000F02D05F4AA85A00E04046CA
:102060009A8A824205D8DA8A824234BF002201224B
:1020700000E0002232B9F8B2019200930BF050FF59
:10208000009B019A5FFA87FEBEF1030F0BD852B98D
:102090004FF0010C0CFA07FC454A92F82CE02EEAAE
:1020A0000C0E82F82CE0B9F1000F18D1029AB05250
:1020B0003F4A92F8761029B9BBF1020F0FD90120DF
:1020C00082F87600728830881044B2881044434AFF
:1020D00080B2A85200B2032290FBF2F080B2404AD4
:1020E0000137A85206360235B0E794F82C203D4B54
:1020F000B2F10F014A424A4184F890203A496AB14C
:102100003A4A1268520109D40A68D9689A60521A88
:10211000C82A1DD9012283F8212019E02A4800226B
:10212000096802709868D9605B68091A994288BF8B
:102130002C4B4FF0000588BF83F82120554507DA66
:10214000E8B20BF0EDFE264B23F815000135F5E75C
:102150001F4B1A7801321A701A4E3368DF0405D506
:10216000224B1B68DD0701D40FF012FF144B0F4AFE
:10217000196817688B7A002B3CD0194A013B32F85A
:1021800013000B7B1BB1C0F53B60083080B200B27E
:10219000A0F57A70B0F57A7FA8BF4FF47A7020EA84
:1021A000E07012F08BFB124959E000BFA43500200B
:1021B0007C1B00203402002018000020FE1E00209E
:1021C000E0000020D8000020D0000020DC0000202B
:1021D000F6170020AA1B0020841B0020F41B0020FF
:1021E00056020020540E00209035002044020020AA
:1021F00000007A44326810043AD5D4F894008B4A2F
:10220000381A002834DB07F59C402030C2F89400CF
:102210008748C97A4579874830F8150080B290FB25
:10222000F1F092F89810013101F00F0182F8981046
:102230000A4482F8990018467F4A9A5C0133104498
:10224000102B80B2F8D100B290FBF3F000B26428FA
:10225000A8BF642020EAE07012F030FB774912F04A
:1022600035FC774912F07EFB12F068FD754B188043
:102270003368754D13F4807F00F00381734B9F42E8
:10228000734F03D9BA780AB90122BA70BA78002A12
:1022900000F0F7806F4A95F800901278C9F3800932
:1022A00002926D4A029B1168002BC1F3806A93462B
:1022B0000CBF4FF003084FF0000897F82020052AC4
:1022C00000F2D980DFE802F0034D5378859FB9F121
:1022D000000F39D0614A1068614A11880BF048FE3E
:1022E000012808D15F4A64201168D4F8AC20D28854
:1022F00000FB02123A61BAF1000F0CD0D4F8AC2006
:10230000127942B108F012FA032287F820204FF424
:102310007A72FA61D1E7029A002A40F0AC80514A01
:10232000396910684A4A88420AD9019208F0FEF9D0
:10233000019A032182F8201040F6B831D161BCE740
:10234000012182F82010B8E74FF48060BAF1000F45
:1023500002D008F0DBF901E008F006FA00223A6149
:1023600089E0029B002B46D108F0E0F9A5E7029A2C
:1023700022B1052287F82020012000E00298B9F15F
:10238000000F0CD0354A4FF002081268D189364A46
:10239000118051809180D4F8AC104988D180314AA5
:1023A00011687A69914202D8B9F1000F60D147F201
:1023B0003052FA6103221FE02A7842F002022A70AA
:1023C0000FF0E6FD274A1168FA690A44BA6104224F
:1023D00012E0244A029B11688BB1BA6991424AD932
:1023E000224A12781AB9DBF80020D10743D42A78A0
:1023F00022F002022A70052287F820205DE7FA69A0
:102400000A44BA6137E0174A64201168D4F8AC2056
:10241000D28800FB02124FF480603A61002287F8F4
:102420002020FA7008F0A0F947E700BF7C1B0020CD
:10243000601D0020701D0020151C00200000C842F7
:1024400000C07F44001F0020CB350020404B4C00D3
:10245000540E0020D000002044020020F01700207D
:10246000F4170020903500205602002005000020BF
:1024700000287FF422AFB8F1000F02D0404608F0E8
:10248000BDF8974F07F5C470B7F84E110BF070FD0B
:10249000804670B906F0EAFA0023C4F8B080C4F8A8
:1024A000B480C4F8B880C4F8BC30C4F8C030C4F8F4
:1024B000C4302B785A0745D53368DB0642D5894BA3
:1024C0001B78DF063ED4884B1F789FB1B8F1000F10
:1024D0001AD1864890F8E0317BB1854B1A68D4F860
:1024E000C8309B1A002B08DA0FF052FD814B83F89D
:1024F000CC8027E0B8F1000F1CD1102008F07EF846
:10250000012384F8CC301DE0784991F8E0313BB1EB
:10251000774A4FF47A71126801FB0323C4F8C8307C
:1025200094F8CC3073B108F04DF8724B002283F868
:10253000CC2007E094F8CC3023B108F043F86D4B81
:1025400083F8CC70694A92F8DE9192F8DF11B2F804
:1025500098E1B2F89AC100221346674F9B08D05FFA
:1025600002327045C4BF63F07F03DBB26045B8BF81
:1025700043F04003082AF0D194F8CD005D4A984218
:1025800005D192F8CE00F92804D8013000E00020EF
:1025900082F8CE0084F8CD30534B584F1A789A46C3
:1025A000DAB93B68D80708D5B8F1000F15D12B78F8
:1025B000D90712D50FF06CFD0FE02B785A070CD518
:1025C0004F4B1B784BB14F4BDB7833B911B10FF048
:1025D000DFFC02E0B8F1000FF9D094F8CE20DFF86C
:1025E00014B1142ADFF8308140F0A8809AF8002056
:1025F00019F1000918BF4FF001094AB39BF8CD202B
:102600005F2A0FD12A7802F0040202F0FF0112B112
:102610000FF0BEFC06E00B20019107F0EFFF0199DF
:102620008BF8CE10B9F1000F12D094F8CD307D2B7D
:102630000ED12B7803F0040303F0FF0B13B10FF05E
:10264000A7FC05E00B2007F0D9FF2A4B83F8CEB09A
:102650002B7803F0040303F0FF00002B6ED194F8F5
:10266000CD30244A572B15D1274B4FF47A721A805C
:1026700033681B0601D506F0C3FD244B1B685807C1
:1026800002D5234A0A21118013F0080356D1214AAA
:10269000138053E03168490717D55A2B15D192F8AA
:1026A000CF302BB1012382F8CF0082F8D03045E043
:1026B00092F8D13083F0010382F8D1300BB10C20B5
:1026C00000E00D2007F09AFF38E05D2B00F0588500
:1026D0005B2B00F057855E2B20D1032000F053BD0B
:1026E000A00200209A02002005000020A002002085
:1026F000903500207C1B0020560200204402002060
:10270000D0000020540E0020C635002040020020DA
:10271000C03500202E0D0020480C0020562B01D182
:102720000AF00CFC9AF80030002B00F0428594F877
:10273000CD306F2B40F037850FF0AAFC3368580777
:1027400037D594F8D130AD4A9BB12B78590710D5C5
:10275000AB4BAC48B3F90610B0F89831994208DD9C
:102760003B6813F0010304D13221A2F8D21082F8A1
:10277000D1303B6813F4803FA04B0CD094F8D420A8
:102780002AB993F8CF2012B93222A3F8D22001231C
:1027900084F8D4300DE094F8CF2052B12A7802F0BA
:1027A000040202F0FF0122B9012283F8CF1083F85E
:1027B000D020D8F800A000230AF1790B3B600AF181
:1027C0007B0998460BF1020303EB080113F808207C
:1027D0004B7819F8010C9A420AD2494610F024FAB3
:1027E00030B119F8023C01229A403B6813433B6028
:1027F00008F10408B8F1500F09F10409E2D1824B45
:102800001B7853B1814BDFF820921A68984612F07A
:10281000020F7F4F40F044833CE30AF1C9090AF1FB
:10282000CA07984609F1010303EB080113F80820D1
:102830004B7817F8010C9A4229D2394610F0F4F976
:1028400028B397F802E03879724B0EF1FF3E4FF053
:102850000C0C0EEB4E0E0CFB00FC9E44674B97F8E5
:1028600003B003F1D80A0AEB0C02516871450ED08F
:1028700000210AF80CB0C2F804E09160012202FACB
:1028800000F093F8082122EA000083F8080108F11B
:102890000608B8F1480F07F10607C3D15E4BDFF811
:1028A0008CA1D3F800805D4B4FF0000B1B680293A6
:1028B0005B4B1B780393DAF80030002B00F0E182C9
:1028C00093F80090B9F1000F00F0DB82DAF80420F1
:1028D0000298821A002A0CDB00F5FA72CAF804206A
:1028E000012202FA0BF294F8081121EA020284F89C
:1028F0000821039A002A00F0C4821AF8042C59789F
:102900000432D2B2002940F07A823D4931F91220D6
:102910003C49B1F8961101F1C800824201DD9F786F
:1029200014E0C8398A4202DA9F787F420EE0012320
:1029300003FA0BF394F8082122EA0303029A84F8BD
:10294000083102F5FA73CAF804309AE294F80831B3
:1029500043FA0BF3DB0700F19482002FCCBF022077
:10296000012007F0BBFE09F1FF33132B00F2818237
:10297000DFE813F01400230032005E007B008400C7
:10298000E8004C01B001E40114027F025E006F0018
:102990008400E8004C01BA001E01820198F8003062
:1029A00040461F44FA2FA8BFFA2727EAE77788F89E
:1029B000007005F03FFD01201EE098F80130404610
:1029C0001F44642FA8BF642727EAE77788F80170BF
:1029D00005F030FD02200FE098F8033040461F4418
:1029E000642FA8BF64270F4B27EAE77788F80370A6
:1029F000196805F0DBFC03203946CCE17C1B002084
:102A000056020020A0020020CA3500204402002007
:102A100048020020DCAF0108500D00209035002056
:102A2000D0000020B81E002040020020581C0020CA
:102A300098F805100D2039446429A8BF642121EAC3
:102A4000E17188F805100EF0A3FDB9F10D0F00F04B
:102A5000108298F804100E2039446429A8BF64211C
:102A600021EAE17188F8041095E198F80610052034
:102A7000394481F3080188F806108CE1A64B1B68E5
:102A80001A78022A21D13846009311F017FFA34982
:102A900012F01CF8009B596A11F05CFE00210190B5
:102AA00012F0FEF8019A009B40B910469B4912F0C3
:102AB00015F9019A009B10B1984A00E000225A6271
:102AC0000F2011460EF078FD0AE099780F20394466
:102AD000C829A8BFC82121EAE17199700EF058FDFC
:102AE000B9F10F0F00F0C5818B4BD3F8009099F826
:102AF0000030022B1AD1384611F0E0FE874911F060
:102B0000E5FFD9F8201011F025FE0021074612F04C
:102B1000C7F830B93846814912F0E0F810B17F4F5C
:102B200000E00027C9F82070122058E199F8011040
:102B300012203944C829A8BFC82121EAE17189F8C7
:102B4000011028E1744B1B681A78022A21D13846FB
:102B5000009311F0B3FE714911F0B8FF009B196B9F
:102B600011F0F8FD0021019012F09AF8019A009BF3
:102B700040B91046694912F0B1F8019A009B10B1B2
:102B8000664A00E000221A63102011460EF014FD80
:102B90000AE0197B10203944C829A8BFC82121EABE
:102BA000E17119730EF0F4FCB9F1100F00F06181BE
:102BB000594BD3F8009099F80030022B1AD13846BF
:102BC00011F07CFE554911F081FFD9F82C1011F05D
:102BD000C1FD0021074612F063F830B938464F496D
:102BE00012F07CF810B14D4F00E00027C9F82C70AE
:102BF0001320F4E099F80B1013203944C829A8BF1A
:102C0000C82121EAE17189F80B10C4E0424B1B682E
:102C10001A78022A21D13846009311F04FFE40491C
:102C200011F054FF009BD96B11F094FD002101902D
:102C300012F036F8019A009B40B91046374912F05D
:102C40004DF8019A009B10B1344A00E00022DA638B
:102C5000112011460EF0B0FC0AE0997D1120394494
:102C6000C829A8BFC82121EAE17199750EF090FC2E
:102C7000B9F1110F00F0FD80274BD3F8009099F8BF
:102C80000030022B1AD1384611F018FE244911F0F9
:102C90001DFFD9F8381011F05DFD0021074611F035
:102CA000FFFF30B938461D4912F018F810B11B4F1C
:102CB00000E00027C9F83870142090E099F815104A
:102CC00014203944C829A8BFC82121EAE17189F834
:102CD000151060E0104BD3F8009099F80030022BEB
:102CE00020D1384611F0EAFD0C4911F0EFFED9F879
:102CF000281011F02FFD0021074611F0D1FF30B947
:102D00003846064911F0EAFF10B1044F00E00027F1
:102D1000C9F82870092062E0BC1E00200000C842EB
:102D200000007A4499F8031009203944C829A8BF43
:102D3000C82121EAE17189F803102CE0B24BD3F8E5
:102D4000009099F80030022B1AD1384611F0B6FDE8
:102D5000AE4911F0BBFED9F8341011F0FBFC002194
:102D6000074611F09DFF30B93846A84911F0B6FF6B
:102D700010B1A64F00E00027C9F834700A202EE0F9
:102D800099F80D100A203944C829A8BFC82121EAA2
:102D9000E17189F80D100EF0FBFB6AE09A4BD3F855
:102DA000009099F80030022B1DD1384611F086FDB5
:102DB000974911F08BFED9F8401011F0CBFC00219F
:102DC000074611F06DFF30B93846904911F086FF83
:102DD00010B18E4F00E00027C9F840700B20394633
:102DE0000EF0EAFB45E099F817100B203944C8298A
:102DF000A8BFC82121EAE17189F81710CBE70129A2
:102E000037D19978834B33F91220B2F5617F05DB16
:102E100040F633039A42B8BF134601E04FF46173A2
:102E2000B9F10C0F25D14FF49667A3F5617397FBA9
:102E3000F1F793FBF7F794F80931FFB2BB4218D0D2
:102E4000032F754A94BF3B460223744982F8093127
:102E50000E2202FB0313724A03F2BE73136005F0E5
:102E600003FB484639460EF093FB781CC0B207F0CE
:102E700035FC012303FA0BF394F80821134384F87B
:102E800008310BF1010BBBF1040F0AF10C0A7FF4BE
:102E900012ADB7E43368D80510D5624BDB786BB15F
:102EA000D9F80030990709D53B8813F0010A0AD1F7
:102EB00005F0DCFD012007F029FC04E0012007F00B
:102EC00053FC012300E00023D8F8002052070CD562
:102ED0005BB1012007F048FC3B889B0708D405F054
:102EE000C5FD022007F012FC02E0022007F03CFCC6
:102EF0003B884D4A13F0030F4FF0100114BF51618E
:102F00001161D9F8002012F00A0F26D0D8F800205D
:102F1000D00609D559070AD4042007F0F7FB434B24
:102F20001A88434B1A8002E0042007F01DFCD8F8F1
:102F300000309A0606D53B885B0606D4402007F091
:102F4000E5FB02E0402007F00FFCD8F800305806FF
:102F500003D5364B1A88374B1A80D9F800309906BA
:102F600009D4D8F800301A0540F1DC804FF48070A5
:102F700007F0CCFBDAE0304B1B789B0740F19880E0
:102F80002E4B1B78042B40F29380D8F8003013F4BA
:102F9000007A0ED03B88DF067DD4102007F0B6FB08
:102FA000202007F0E1FB2648011D08F0A5FD0222C4
:102FB0006CE0B7F8009009F010091FFA89F343B1EB
:102FC000102007F0D1FB1F4B4FF0010983F800A040
:102FD00000E09946D8F80030580550D51A4B1B68C8
:102FE0005A891A4BB3F900100029B8BF49429142DF
:102FF0002EDAB3F90230002BB8BF5B429342ACBF6C
:103000000023012325E000BFBC1E00200000C842B1
:1030100000007A44560200207C1B0020A002002001
:10302000500D0020540E0020000C01402E0D0020F9
:10303000300D0020481D00209A0200202C0C00209A
:10304000C41E0020D41E0020440D0020260D0020A8
:103050000023A3B13B8899061FD4202007F056FB1C
:103060007E4B7F481A685B68011D4360026008F070
:1030700043FD7C4B4FF0010983F800900DE03B8845
:103080009A060AD5202007F06FFB0022754B4FF0FF
:1030900001091A7001E04FF0000994F80A31BBB938
:1030A0000E2007F0ABFA704B012283F80A210FE0E3
:1030B0003B8803F03003002B3FF453AF102007F0A0
:1030C00053FB202007F050FB664B00221A7003E0F0
:1030D000B9F1000F3FF445AF00231A4663490020C1
:1030E00050526349634F5052634907EB030E5052ED
:1030F0000021D9510232CEF80400CEF8081007F1B1
:10310000280E503743F80E10D9519E441F44042A0C
:10311000CEF80400CEF808107860B96003F114030B
:10312000DCD11EE74FF4807007F01EFB534A537941
:103130001746082B01D00E2B02D1402007F014FBBC
:1031400033685B0540F1878097F824321BB92B78F0
:1031500013F0040F03E0D8F8003013F4002F0AD066
:10316000002384F884313C2004F032FC002872D023
:1031700005F046F8F7E70FF045F90EF0B5FE6AE006
:10318000012000E002205FFA80F93C4A09F1FF3398
:1031900082F8BC3709F078FB09F018FD484607F0C3
:1031A0009DFAFFF7CBBAB9F1000F02D07E2B3FF4A6
:1031B000C3AA94F8CD30972B05D1314B4FF4C87288
:1031C0001A80FFF7BBBAA72B06D12E4B1A7842F014
:1031D00004021A70FFF7B2BA0022BB2B059201D18C
:1031E000022303E0B72B04D14FF6FE73ADF816307F
:1031F00009E0BE2B01D1022303E0BD2B1AD14FF60B
:10320000FE73ADF81430D8F80030BDF81410B3F8E0
:1032100058200A44A3F85820BDF81610B3F85A20D5
:103220000A44A3F85A2009F089FE002384F8CE301E
:10323000FFF784BA792B04D1134BDA7822F001021C
:1032400006E07A2B7FF47AAA0F4BDA7842F001027B
:10325000DA70FFF773BA07B0BDE8F08FB01F002037
:10326000CC1E0020D41E00207C1B0020C235002074
:10327000480D0020881C00204C0D0020A0020020DA
:10328000B41D00209A020020A0170020834B2DE9D6
:10329000F04FB3F90610824B8FB0186843899942FA
:1032A00011DBB1F5FA6F90F807E009DACA1A02FBF0
:1032B0000EFEA3F5FA639EFBF3FE0EF1640E04E02E
:1032C000CEF1640E01E04FF0640E8389994219DB60
:1032D000B1F5FA6F047A10DA632CC3EB010205D959
:1032E000643CA4B25443C3F5FA6302E05443A3F52B
:1032F000FA6394FBF3F4643405E0632C03D8C4F15F
:10330000640400E06424674BB3F8962193F95E31BE
:103310000292654A9BB2D2F800C00393674600222E
:103320005E4B029D33F912304FEA420801935B1B5A
:1033300003F2F31640F2E635AE4203D8002BB8BFD5
:103340005B4201E04FF4FA73022A4FF06406574DD6
:103350002ED09CF81191B9F1000F04D04B45CCBF91
:10336000C9EB0303002393FBF6F96FF0630B35F809
:1033700019A00BFB093B09F1010935F919900FFA66
:103380008AF5C5EB090505FB0BF595FBF6F5AA4497
:10339000474D28F805A085182D796B43454D93FBC3
:1033A000F5F364339BB20EFB03F393FBF6F62FE0C9
:1033B0009CF81291B9F1000F04D04B45CCBFC9EB7A
:1033C0000303002393FBF6F66FF0630A05EB46094F
:1033D0000AFB063B05EB4606B9F90E90B6F910500C
:1033E000039EC9EB050505FB0BFB9BFBFAFBC9EB39
:1033F0000B0909FB06F92E4EA6F80490857983EA9D
:10340000E376A6EBE3766E432A4D96FBF5F664363B
:103410000CEB020595F801A0244B06FB0AFA642583
:1034200003F11C099AFBF5FA09F802A097F80BA022
:1034300003F11F0906FB0AFA9AFBF5FA09F802A044
:1034400097F815A0022A06FB0AF603F1220996FB5B
:10345000F5F61D4616BF253383F8274003F802E032
:1034600009F80260019B029EB342114E04DA36F85D
:1034700008305B4226F808300132032A07F10107C1
:103480007FF44EAF074CB4F89831994214DBB1F594
:10349000FA6FA8BF4FF4FA610FE000BF5602002098
:1034A000500D0020A0020020480C0020081D002024
:1034B000260D00200CFEFFFF1946C91A4FF47A7240
:1034C0005143C3F5FA63B1FBF3F34FF0640E93FB82
:1034D000FEF205EB4201088D6FF0630101FB023340
:1034E00005EB4202B2F92A1002B28A1A534393FB47
:1034F000FEFEB34B70441B88B24F5906F0803ED598
:10350000B14B1888B14BB3F84030C01A00B211F07B
:10351000D5F9AF4911F026FA804605F0DBFC81466B
:1035200040460CF019FE8046B7F9020011F0C6F9CA
:103530008246B7F9000011F0C1F94946834611F0FF
:1035400011FA414603465046009311F00BFA009BD6
:103550000146184611F0FCF811F0CAFB49463880C4
:10356000504611F0FFF941468146584611F0FAF9EC
:103570000146484611F0EEF811F0BAFB7880954B01
:103580001A689A4612F0020F74D0934B6A6C1B684B
:1035900045F207219A1A8A428C4F6BDD7B640BF04F
:1035A00010FA8E4BDFF864821A789946032AB8F82D
:1035B000003022D10A2B2CD90023282089F8003092
:1035C00004F0ABFF0BF0FDF9B7F8480004F0DEFDA6
:1035D000834B84491B68DA7890FBF2F0421C082A7E
:1035E00028BF08220A7059791B7992B251435A4375
:1035F000A7F84A10A7F84C200BE00A2B09D80323A0
:10360000784A89F8003000231370A7F84A30A7F8E9
:103610004C3099F80020714B012A0DD002D3022AB8
:103620001ED027E0B5F84A20B8F800309A4221DDD4
:10363000012389F8003011E0B8F80020B5F84C10EB
:10364000914202DD02221A7011E06049B1F84A107D
:1036500001318A4202DD00221A700BE0082007E0E7
:10366000B5F84C30B8F8002001339A42E0DC07206E
:1036700006F0C4FFDAF800703A0577D5564B296D8D
:103680001A68524BC1EB020A45F207218A456DDDEB
:103690001A65534AB6F90690D2F80080B4F84E1174
:1036A00098F80A20A9F57A79012A4F4E03D046D31B
:1036B000022A23D045E093F86520596D03EB4202BE
:1036C000B2F86800082291FBF2FE80B2CEEB010155
:1036D000014491FBF2F2A3F8700092B2596540F6F2
:1036E000E4435343B8F808004FF47A72C0EB133345
:1036F0005343B8F9062093FBF2F321E03B4BB8F8B3
:1037000008B01B78C6F800B05B071AD538480AF035
:103710002FFC20B917F0100F18BF4FF0000909FB5C
:1037200009F2322392FBF3F39944B8F906304FF4CF
:103730007A7203FB09F393FBF2F35B4400E000238E
:1037400033603368D5E91E0103FB0AFA4FF47A733C
:103750009AFBF3FA10EB0A0041EBEA710023C5E98A
:103760001E01244A11F00AFB234B1860234B1A68F0
:10377000984612F4805F4ED03F0649D5204B1B7807
:103780009E0745D51F4B1978042941D900231E4EA9
:1037900005229A55981C1E440A27122BC2B2777034
:1037A00004D0B1EB520F0346F1D800E014222A44B2
:1037B000322382F87F30FF2382F880300F2028E008
:1037C00048020020260D00202E0D0020081D00209C
:1037D00035FA8E3CD8000020A4350020F41F0020CC
:1037E000941F002058000020A01F0020CB3500208F
:1037F00028040020407E0500A41F00204402002071
:103800009A0200202C0C0020881D0020981F002008
:103810000A2006F0F3FED5F89830AA4E002B57D0B8
:10382000A94AD6F89C1010689146814250D896F863
:10383000A000B6F8A220596810BB012086F8A000AD
:103840008A5C4AB31A78D4F8EC37013A00FA02F2EB
:103850001A4201D104F094FE012385F8A43004F04B
:10386000ABFCB5F8A230974EB3B9D6F898301B78B8
:10387000053B012B10D804F02AFEC6F8A8000BE087
:10388000002786F8A0708B5C33B1384604F078FED0
:1038900086F8A47004F090FCD5F89820B5F8A21032
:1038A0005268884B525CFE2A03D10022A3F8A22062
:1038B0000EE0FF2A02D106F085FE09E0D9F80000EB
:1038C0000A2606FB02020131C3F89C20A3F8A210CD
:1038D0007E4E3278500703D57D4B08225A613FE077
:1038E000D8F80030D9075CBF42F001023270794A43
:1038F0001278120703D4327822F001023270DB0210
:1039000003D5337823F001033370734B1B685F07D3
:1039100002D5724A128862B9B5F8AC200AB198078C
:1039200005D46F4B1B88003318BF012300E001232F
:103930003BB1022385F8A430337823F001033370C0
:1039400005E03278D10758BF022385F8A43004F08F
:10395000BEFDD5F8B030C01A002801DB04F02CFC05
:103960000EF050FD5F4B1A78002A78D0D5F8B430AD
:10397000002B00F02587D5F8B400524C04F027FE48
:10398000002800F01D87D4F8B40004F01BFE0928BD
:1039900001D03F2855D14FF00008D5F8B860524FFC
:1039A00044462EB151483968324614F067FA10B9CE
:1039B000B84604B93C464E4B10379F42F1D304B38E
:1039C000D4F800E0D8F800C0D5F8B8303D481EF86B
:1039D00003701CF80310B94213D15A1C59B92D2B8E
:1039E00009D8C0F8B82003442027024483F8BC70EB
:1039F00082F8BC1005E02B4483F8BC70C5F8B820F1
:103A0000E2E7D5F8B8300BB1444510D0394804F09E
:103A100041FE444507D854F8100B04F03BFE092042
:103A200004F031FEF5E7344804F034FE0026D5F802
:103A3000B8309E429FD22D4B985D04F024FE013693
:103A4000F5E7D4F8B830002B40F0E686042840F0C3
:103A5000DD8604F1BC000AF053FB00F0B1BE274F35
:103A600097F84A30012B40F0A686254BDFF894806A
:103A70003A68C8F800701A609946D9F80000DFF873
:103A800080A004F0A4FD002800F08386DAF800008E
:103A900004F098FD1B4A8346136893F848201AB92E
:103AA00024285DD1012258E0012A04D14D280CBF01
:103AB0000222002251E0022A26D13C280CBF032218
:103AC00000224AE0081D002090350020CB35002060
:103AD000000C01409A02002040020020C035002066
:103AE000C6350020CA35002018B00108C41D0020CA
:103AF000F8B1010804C9010809C90108F41D002032
:103B0000502000204C200020032A09D140284FF0EB
:103B1000000222D81A71DA715871987104221CE0DF
:103B2000042A08D19A7983F8490080EA020B83F8C5
:103B300006B0052211E0052A39D159791A79914246
:103B4000997906D941409971511C19711344187221
:103B50002DE081420CBF0622002283F8482026E097
:103B60003278CB4B520722D4BBF1230FDAF8002076
:103B700012D1C84801210170C748C5F8B420C5F862
:103B80008421009304F086FDC44804F083FD009B6B
:103B90001A7842F002021A70D5F888311B785B451A
:103BA00005D1BF4ABF4B1A60BF4AC04BDA60DFF88D
:103BB00018A35246136893F848B0BBF1060F7FF480
:103BC0005CAF93F8490000F0DFFE002840F0DA8592
:103BD000DAF8002092F849304C2B00F0B18400F262
:103BE0008E80352B00F08D8239D82B2B00F07F840E
:103BF00020D8252B00F0568404D8232B00F0F88021
:103C000000F001BE272B00F05484292B40F0FB85E7
:103C100004F042FBA4F8800104F03EFBA4F882010A
:103C200004F02FFB84F8840104F036FBA4F886012D
:103C300000F0A5BD2F2B00F0188504D82D2B00F027
:103C40005A8400F0E0BD312B00F02485332B40F086
:103C5000DA8504F016FB84F8920100F090BD412B48
:103C600000F0A98418D8392B00F0308404D8372B01
:103C700000F0C28400F0C7BD3C2B00F0FA803E2B60
:103C800040F0C18504F0FDFA84F8E00104F0F9FA8F
:103C900084F8DF0100F073BD442B00F02F8526D897
:103CA000432B40F0B08504F0ECFA0023A360607170
:103CB00004F0FCFAA3681843A06004F0E2FA84F868
:103CC000900104F0E9FAA4F8580104F0E5FAA4F828
:103CD0005A0104F0E1FAA4F85C0104F0DDFAA4F85A
:103CE000800104F0D9FAA4F8820100F048BD482B05
:103CF00000F070834A2B00F0428500F084BDD12B88
:103D000000F0938320D8CC2B00F023820FD8C82B4F
:103D100064D004D84E2B00F0208400F074BDC92B71
:103D200000F05B83CA2B00F0D18000F06CBDCE2B7D
:103D300000F04283C0F03783CF2B00F06982D02B94
:103D400000F0268300F05FBDD82B00F04D810DD828
:103D5000D32B3DD029D3D42B00F09F82D62B08BF84
:103D60004FF0000900F08E8200F04DBDF22B00F004
:103D7000E48212D8EF2B40F04685DFF84891D9F85D
:103D800000A004F089FAAAF85A00D9F8009004F0CB
:103D900083FAA9F8580000F0F2BCF32B00F0B284CB
:103DA000FA2B00F0138300F02EBD337803F00403E8
:103DB00003F0FF09002B40F0E28404F062FA0228CD
:103DC00084F8BC0740F2EA82394B83F8BC97E5E2FD
:103DD00004F062FA374B188000F0D1BC92F80590DD
:103DE0004FEA5909B9F1120F1CD84FF0000A1DE033
:103DF00004F047FA132815D8DFF8C8A000F11E0B0D
:103E0000DAF8003003EB8B0B04F03BFA2A4B0BF192
:103E1000010903F5A872197A814200F053810C332D
:103E20009342F8D103F0D0FD00F0A9BCCA4507D2F7
:103E300004F032FA05AB23F81A000AF1010AF5E79B
:103E400000234B451D4A06DA05A931F8131022F864
:103E500013100133F5E709F1FF3902EB4903223270
:103E6000934203D0002123F8021FF9E70122144BEB
:103E7000AAE2DFF85090D9F800A004F002FA8AF81C
:103E80000000D9F80030187804F0BAFD00F077BCD3
:103E9000CB350020CA35002039C9010809C90108FD
:103EA000EFBEADDEF04F00200400FA0500ED00E0AB
:103EB000A0020020300D0020F8B10108941E00205F
:103EC00019020020480C00204C200020C94B4FF064
:103ED00000091A689A461278022A6AD1DAF8003084
:103EE00009F1080B009304F0CCF910F0E3FCC2498F
:103EF00010F0ECFD009B43F82B00DAF800B004F062
:103F0000C0F909F10A030BEB830B10F0D3FCBB499A
:103F100010F0DCFDDAF80030CBF80400009304F078
:103F2000B0F910F0C7FCB64910F0D0FD09F10E0B46
:103F3000009B09F10109B9F1030F43F82B00CDD122
:103F4000B9F1070FDAF800B01AD104F09AF910F0BD
:103F5000B1FCA94910F0BAFDCBF84400DAF800B082
:103F600004F08FF910F0A6FCA34910F0AFFDCBF8D8
:103F70004800DAF800B004F084F98BF84C0012E045
:103F800004F07FF90BEB09035870DAF800B004F085
:103F900078F90BEB0903D872DAF800B004F071F984
:103FA0000BEB0903587509F10109B9F10A0FC7D1E3
:103FB000E5E3DAF800B004F064F90BEB090358709C
:103FC000DAF800B004F05DF90BEB0903D872DAF807
:103FD00000B004F056F90BEB090309F10109B9F13E
:103FE0000A0F5875E5D1CAE38146DFF808A209F146
:103FF000080BDAF80030009304F04EF910F05AFC88
:104000007F4910F063FD009B43F82B00DAF800B005
:1040100004F042F909F10A030BEB830B10F04AFCA0
:10402000774910F053FDDAF80030CBF80400009324
:1040300004F032F910F03EFC714910F047FD09F12F
:104040000E0B009B09F10109B9F1030F43F82B0096
:10405000CBD1B9F1070FDAF800B01AD104F01CF98E
:1040600010F028FC664910F031FDCBF84400DAF876
:1040700000B004F011F910F01DFC614910F026FDAC
:10408000CBF84800DAF800B004F006F98BF84C00E1
:1040900012E004F001F90BEB09035870DAF800B0F4
:1040A00004F0FAF80BEB0903D872DAF800B004F068
:1040B000F3F80BEB0903587509F10109B9F10A0F7F
:1040C000C7D15CE31B788BF8013004F0DAF889F88B
:1040D000010004F0D6F889F8020004F0D2F889F85B
:1040E0000300DAF80000474BC5F8B401002179302D
:1040F000C5F8B03104F0DAF9434B80F001001870D4
:104100003DE304F0BEF80B283FF68CAE0BFB00FB42
:10411000384B0BF1C80B1B689B4404F0B2F8032822
:104120003FF680AE8BF8060004F0ABF88BF8010088
:1041300004F0A7F88BF8020004F0A3F88BF8030052
:1041400004F09FF88BF8040004F09BF88BF805004E
:1041500015E35379092B7FF665AEDFF8B090D9F8F7
:1041600000B004F08EF88BF80000D9F800B004F02D
:1041700088F88BF8010004F084F8D9F8003064283E
:10418000A8BF6420187104F07CF8D9F800306428C6
:10419000A8BF6420587104F074F8D9F80030FF28E3
:1041A000A8BFFF20987104F06CF8D9F800B064281B
:1041B00028BF64208BF8070004F063F88BF8020036
:1041C000D9F800B004F05DF88BF80300D9F800B01E
:1041D00004F062F8DAF80030ABF80A005B790A2BD9
:1041E00040F2CD82D9F8009004F04BF889F809002C
:1041F000C5E200BF480C0020000020410000C8427A
:1042000000007A44E003002005000020500D00204B
:1042100004F042F86FF4AF6E00EB0E039BB2C62BB6
:1042200098BFA4F8960104F037F8A4F8400104F010
:1042300033F8A4F8420104F02FF8A4F8440104F084
:104240002BF8A4F8D80104F01CF884F8F30104F06A
:1042500018F804F016F884F8F40104F012F884F861
:10426000850104F00EF884F8920104F00AF8D84BA6
:10427000D3F8009004F010F800EB80004000A9F89B
:10428000560023E104F008F8D24B23F8090009F1A5
:104290000209B9F1100FF5D171E253790F2B7FF4B8
:1042A000C1AD03F0EEFF072881463FF6BBADDFF856
:1042B00020A3DAF800B003F0EFFF0E2303FB09F9A7
:1042C0000BEB0903A3F81901DAF800B003F0E4FFDF
:1042D0000BEB0903A3F81B01DAF800B003F0DCFFD5
:1042E0000BEB0903A3F81D01DAF800B003F0C9FFD6
:1042F0000BEB090383F81F01DAF800B003F0C1FFEC
:104300000BEB090383F82001DAF800B003F0B9FFE2
:104310000BEB090383F82101DAF800B003F0B1FFD9
:104320000BEB090383F82201DAF800A003F0BEFFCB
:104330000AEB0903C3F8230121E203F0A2FF0F28CF
:1043400081463FF66FAD03F09CFFC9EBC90904EB52
:10435000090383F8D00003F1D00903F092FF89F834
:10436000010003F08EFF89F8020003F08AFF89F84C
:10437000030003F086FF89F8040003F082FF89F848
:10438000050003F07EFF89F8060004F060FAF6E10C
:104390003378590700F1F3810FF0F0F808F074FA60
:1043A00008F014FCEBE133785A0700F1E8814FF490
:1043B000C873A5F8AC30E2E133785B0700F1DF8128
:1043C000854B1A7842F004021A70D8E13378580706
:1043D000E4D518E20BF05CFAD1E103F052FF7E4B1A
:1043E0001A7810B142F0020201E022F002021A70C3
:1043F00003F047FF794BDFF8F891187003F056FF90
:10440000C9F8000003F052FFC9F8040003F044FFAC
:10441000734B188003F040FF724B188095F8B83149
:1044200043F0020385F8B831A9E103F02AFF0090B8
:1044300003F03CFF834603F039FF824603F036FF6A
:10444000814603F029FF03F027FF03F01AFF009BCA
:104450009BB91020C5F8BCB1C5F8C0A106F084F91D
:104460005D4B1A7842F001021A70B9F1000F00F0AA
:1044700086815D4BC3F8009081E1102B40F07F8175
:10448000C5F8C4B1C5F8C8A1B9F1000F02D0564BA8
:10449000C3F8009055480223011D85F8CC3107F080
:1044A0002BFB6CE1A06003F001FFA3681843A06040
:1044B00065E103F0F1FEA4F8580103F0EDFEA4F865
:1044C0005A0103F0E9FEA4F85C0158E103F0D9FEBB
:1044D00084F87A0103F0D5FE84F87E0103F0D1FE62
:1044E00084F87D0103F0CDFE84F87F0147E103F0FD
:1044F000C8FE607143E103F0C4FE84F8900103F04C
:10450000CBFEA4F89A0103F0C7FEA4F8960103F0CD
:10451000C3FEA4F8980103F0B4FED8F8003084F884
:1045200091015B79DFF8CC90082B40F2288103F0F1
:10453000B3FEA9F89C0103F0AFFEA9F89E011EE1AD
:1045400003F09FFE84F8D60103F09BFE84F8D701A8
:1045500003F0A2FEA4F8D80111E192F805B00323FC
:10456000BBFBF3FBBBF1120F3FF65CACDFF88490B2
:104570004FF0000ADA4580F0028103F082FE89F8EC
:10458000A00103F089FE40F2ED23984205DD40F6DC
:10459000CA039842A8BF184601E040F2EE20A0F2FC
:1045A000EE20192390FBF3F089F8A1010AF1010A2A
:1045B00009F10209DEE7814603F063FE04EB09031B
:1045C00009F10109B9F1080F83F88801F4D1D6E0A7
:1045D000480C0020840E00209A0200202C0C0020A1
:1045E000AA1F0020A81F00204C020020CC1E002083
:1045F000B01F0020A002002053794FF0070AB3FB40
:10460000FAFACAEBCA029B1A13F0FF0F7FF40AAC46
:104610005FFA8AFABAF1000F00F0B18003F031FEC0
:104620005FFA80FB4FFA8BF003F080FE0AF1FF3A4D
:104630005FFA8AFA814600283FF4F4AB80F800B0B4
:1046400003F02AFEA9F8020003F01BFE89F804001B
:1046500003F017FE89F8050003F013FE89F8070040
:1046600003F00FFE89F80600D4E7DFF8189309F18C
:10467000400A03F011FEA9F8B40203F002FE89F823
:10468000B60203F0FEFD09F1040989F8B302D14531
:10469000EFD174E003F0F5FD1F283FF6C3ABD8F867
:1046A00000305B79082B7FF4BDAB00F18C0A03F07E
:1046B000F3FD04EB8A0A00F03F00AAF8060003F0BD
:1046C000EBFDBAF80620800100F4FE531343AAF86C
:1046D000063003F0D6FD00018AF8040003F0D1FD96
:1046E0009AF8043000F00F0018438AF8040003F031
:1046F000C8FD8AF805000BF031FE40E0012385F883
:10470000CD313CE003F0BDFDFF28824623D10023DC
:104710008DF813309DF81330052B15D89DF8132014
:10472000824B9DF81310012003EBC101496800FA88
:1047300001F153F8320089B2482203F0C0FD9DF820
:1047400013300133DBB2E3E779484FF480510422A0
:1047500003F0B5FD13E005283FF664AB002003F03D
:104760007DFF03F06DFDD9F8000003F016FF18B9C6
:10477000322003F0D2FEF6E7504609F0DDFC0020BF
:1047800003F06CFF03F05CFDD8F80030002283F8E2
:10479000482095F8CD3173B1386803F0FEFE18B9A2
:1047A000322003F0BAFEF7E709F06CFC03F0BFFE1D
:1047B000604A614BDA60614B4C379F427FF450A9ED
:1047C0005F4B1B68990616D55E4BD5F8D0211B6848
:1047D0009A1A002A0FDB5C4A1278042A0BD95B4A2A
:1047E00003F5123303F5F873C2F8D031584BDA6889
:1047F00082F01002DA60574B9B68002B00F0938028
:10480000554898478FE003F0DFF8BBE70C2825D127
:10481000524803F03FFF1FE00C28F9D00A2821D1AD
:104820004A4C4F4804F1BC0603F034FF30462321C4
:1048300013F00FFB10B1801BC4F8B800D5F8B830E6
:10484000BBBB484800213022C5F8B83013F0CEFA7F
:1048500045480378002BB3D044480FE07F2814D19B
:10486000FFF789B80D28DBD07F280BD1013BC4F8B6
:10487000B830002223443E4883F8BC2003F00AFFEE
:10488000FFF779B82F2B3FF676A8A0F12002D2B21D
:104890005E2A3FF670A813B920283FF46CA85A1C72
:1048A0002B44C5F8B82083F8BC0003F0ECFEFFF7FA
:1048B00062B8591E705C254A202801D10B46BFE71B
:1048C000C2F8B8301344002283F8BC20294B2A4C8C
:1048D000D3F800A0D4F80090DFF87080484613F0B9
:1048E000C5FA08F1BC07064649463846324613F079
:1048F000C5FA224B38B908EB060292F8BC205244A4
:104900005278520703D010349C42E3D306E09C4215
:1049100004D2701CE3683844984702E0184803F05A
:10492000B9FE00238DE70FB0BDE8F08FD4C80108B1
:10493000000801400400FA0500ED00E08C1E002094
:1049400040020020A43500202C0C0020081D00206F
:10495000000C0140300C0020DC1E00200EC90108B4
:10496000BED60108C41D0020CA35002009C90108AF
:1049700035C901086000002018B00108F8B101082D
:1049800019C90108A00200202DE9F04F4B28ABB057
:10499000044600F0598600F2B280302800F0E88624
:1049A00051D8222800F0AE8423D8032800F05C817F
:1049B00014D8012800F04C81022840F045870420DB
:1049C00003F04CFE432003F01AFE4C2003F017FEC8
:1049D000462003F014FE4C2000F086BE042800F0B0
:1049E0004D81052840F030871A2003F037FE00245F
:1049F00057E1282800F0F68515D8242800F0DD8539
:104A0000262840F02187B34C062003F027FEB4F897
:104A1000580103F026FEB4F85A0103F022FEB4F860
:104A20005C0100F072BE2C2800F0EF852E2800F00B
:104A300089862A2840F00887012003F00FFEA54B45
:104A4000587900F051BE3D2800F03A831ED8362830
:104A500000F05E860BD8322800F04086342840F003
:104A6000F386482003F0FAFD002500F081BC3A28C7
:104A700000F0D6823B2800F03E84382840F0E486DF
:104A8000042003F0EBFD934C00F09DBD452800F0A1
:104A9000C88627D8402800F02A86422840F0D486CD
:104AA0008C4C102003F0DAFD607903F0A8FDA068BB
:104AB00003F0E0FD94F8900103F0A1FDB4F8580173
:104AC00003F0CFFDB4F85A0103F0CBFDB4F85C015C
:104AD00003F0C7FDB4F8800103F0C3FDB4F8820110
:104AE00000F013BE472800F07986C0F0668649289A
:104AF00040F0AA86022003F0B1FD774BEBE270286C
:104B000000F0158357D8692800F06B822AD86528F1
:104B100000F0028115D84D2800F0C285642840F0CD
:104B20009386072003F09AFDE72003F068FD694BA8
:104B3000587903F064FD002003F061FD042000F0CB
:104B40007FBE672800F0D08100F23E82122003F081
:104B500085FD624B00241B88B3F5806F94BF01254F
:104B60000825A3E16C2800F04F8216D86A2800F0CF
:104B7000A8846B2840F06886052003F06FFD584B31
:104B8000188803F06EFD574B188803F06AFD564BEA
:104B9000187800F0010000F0A7BD6E2800F06A82CE
:104BA00000F29B82062003F059FD504B186803F079
:104BB00061FD4F4B8FE2782800F0A38119D874284B
:104BC00000F0F2830BD8722800F03B84732840F089
:104BD0003B86082003F042FD012400F06BBC7628E0
:104BE00000F08E8400F212842F2003F037FD414C38
:104BF00079E3A42800F0AA8413D87B2800F0198355
:104C0000A02840F021860C2003F028FD3A4B1868BC
:104C100003F030FD394B186803F02CFD384B00F0E1
:104C2000CABCF12800F0A981FE2800F0B684F02863
:104C300040F00A86334C042003F010FD2368B3F8DB
:104C40005A0003F00EFD2368B3F8580000F05DBD74
:104C5000032003F003FD002003F0D1FC204603F005
:104C6000CEFC0D2000F040BD03F0F8FC012003F065
:104C7000C6FC0A2003F0C3FC00F066BC062003F06B
:104C8000EDFC412003F0BBFC462003F0B8FC4E20B5
:104C900003F0B5FC412003F0B2FC1B4B187800F088
:104CA00034BD1A4B185D013403F0A9FC0B2CF8D16C
:104CB0000024174B185D013403F0A1FC082CF8D137
:104CC0000024144B185D013403F099FC072CF8D133
:104CD00000F0B8BDA0020020440C00200C00002011
:104CE0002220002024200020C01E0020500200208E
:104CF000EC0B002063B40108E8F7FF1FECF7FF1F7F
:104D0000F0F7FF1F480C0020CC35002044BB010801
:104D100050BB010825BB01080B2003F09FFCC34BCF
:104D2000C34C188803F09DFC208880B203F099FCE6
:104D3000C04B1B68C3F3C000C3F38002800040EA8D
:104D40004200C3F340021043C3F3401240EAC200E2
:104D500003F01003184303F084FCB74BA4781A88BF
:104D600012F0010F0CBF0020022012F0020F0CBF46
:104D70000021042112F0040F0CBF00231023039321
:104D8000AE4B02F0080A1B6812F0400F03F0C00B94
:104D900003F480794BEA0A0A0CBF0026202603F4AC
:104DA000805812F0100F4AEA090A019003F4005CDF
:104DB0000CBF00204FF400704AEA080A12F0200FDE
:104DC000029103F4804E0CBF00214FF480614AEA47
:104DD0000C0A12F4807F049605900CBF00264FF455
:104DE000006603F4003003F400474AEA0E0A07960F
:104DF000089003F480364AEA070A06914AEA060A4E
:104E000003F48021089E09914AEA060A099E03F4E8
:104E100000254AEA060A03F480104AEA05052843F9
:104E200003F000730343864812F4007F067801986C
:104E3000C6F3800643EA0603029E43EA0003039892
:104E400043EA0603049E43EA0003059843EA060387
:104E5000069E43EA0003079843EA060343EA000379
:104E60000CBF00214FF4001112F4806F43EA0101DE
:104E70004FF000000CBF00234FF08063194303463E
:104E8000A3420CD26F4A9D5C012202FA05F50D4245
:104E900018BF9A4003F1010318BF1043F0E703F075
:104EA000E9FB694B93F8BC0700F01EBC674BE05E62
:104EB000023490FBF5F080B203F0D3FB062CF5D161
:104EC000634C208803F0CDFB608803F0CAFBA08808
:104ED000604C03F0C6FB208803F0C3FB608803F03E
:104EE000C0FBA08800F011BC102003F0B7FB002429
:104EF000594B185D013403F082FB102CF8D100F0FF
:104F0000A1BC702003F0AAFB00260E247443534D6D
:104F100001362B682344B3F8190103F0A2FB2B6878
:104F20002344B3F81B0103F09CFB2B682344B3F824
:104F30001D0103F096FB2B68234493F81F0103F037
:104F40005EFB2B68234493F8200103F058FB2B6889
:104F5000234493F8210103F052FB2B68234493F878
:104F6000220103F04CFB2B681C44D4F8230103F00E
:104F700081FB082EC9D100F065BC702003F06EFBE8
:104F8000314C04F1700594F8D00003F038FB94F82C
:104F9000D10003F034FB94F8D20003F030FB94F816
:104FA000D30003F02CFB94F8D40003F028FB94F812
:104FB000D50003F024FB073494F8CF0003F01FFB67
:104FC000AC42E0D100F03EBC102003F047FB0024CF
:104FD000234B185D013403F012FB102CF8D100F0C4
:104FE00031BC134D0024A87F400000F0FE0003F008
:104FF00035FBAB7F9C4280F025841A4B33F81400BC
:1050000003F02FFB0134F4E7174C062003F026FBD6
:10501000208803F026FB608803F023FB134B5AE043
:10502000042003F01BFB124BC5E200BF500C002014
:10503000E01E002040020020480200204402002020
:10504000CB350020E31E0020A00200208E1F002090
:10505000820C002094020020680D0020480C0020E3
:105060003C0E002056020020C80B00202E0D002010
:10507000CC0B0020072003F0F1FAB24B1888FF2870
:10508000A8BFFF20C0B203F0BAFAAF4B186880F394
:10509000100080B203F0E5FAAC4B188C03F0E1FA93
:1050A000AB4B93F88521AB4B2AB11B680A205843C0
:1050B00080F3100002E0186800F30F0080B224E3D0
:1050C000A34C022003F0CAFA94F8E00103F097FA27
:1050D00094F8DF0108E3188817E39F4C0B2003F0D6
:1050E000BDFA23680025187803F089FA236826465C
:1050F000587803F084FA3368974C2B4418790135BB
:1051000003F07DFA032DF6D12368D87903F077FAFE
:105110002368987803F073FA2368D87803F06FFA5D
:105120002368588903F09DFA2368587ADCE28B4D96
:105130001E2003F093FA2B6800241B78022B65D104
:105140002B6804F1080253F8220085490FF00AFC8D
:1051500013F05CF880F30800C0B203F050FA2B683B
:10516000804903EB8403D86A0FF0FCFB13F04EF880
:1051700080F30800C0B203F042FA2B6804F10E027B
:1051800053F8220078490FF0EDFB13F03FF880F35D
:105190000800C0B2013403F032FA032CD0D1072C3E
:1051A0002B6821D1586C6E490FF0DCFB13F02EF800
:1051B00080F30800C0B203F022FA2B686849986CAB
:1051C0000FF0D0FB13F022F880F30800C0B203F018
:1051D00016FA2B6893F84C000FF06CFB13F016F8DE
:1051E00080F30800C0B20BE02344587803F007FABC
:1051F0002B682344D87A03F002FA2B682344587DA5
:10520000013403F0FCF90A2CC9D11BE32B682344B9
:10521000587803F0F4F92B682344D87A03F0EFF9B7
:105220002B682344587D013403F0E9F90A2CEDD1B1
:1052300008E33C2003F012FA0024484D04F1080270
:105240002B68494953F822000FF08CFB12F0DEFF67
:1052500080B203F006FA2B68434903EB8403D86A53
:105260000FF080FB12F0D2FF80B203F0FAF92B6846
:1052700004F10E0253F822003B490FF073FB12F0C9
:10528000C5FF013480B203F0ECF9032CD5D1072C13
:105290002B6816D1586C34490FF064FB12F0B6FF3E
:1052A00080B203F0DEF92B682F49986C0FF05AFB9F
:1052B00012F0ACFF80B203F0D4F92B6893F84C00E5
:1052C0000BE02344587803F0CCF92B682344D87AB8
:1052D00003F0C7F92B682344587D013403F0C1F96A
:1052E0000A2CD4D1AEE214F8010F002800F0AA82F3
:1052F00003F085F9F7E7012003F0B0F9174B1B68BD
:105300001878F1E1502003F0A9F90024134B04F1BF
:105310001E021B680C2103EB82035D1C134A5B78A1
:10532000013401FB0323187A03F069F9687803F06C
:1053300066F9A87803F063F9E87803F060F9142CB3
:10534000E4D17FE2981F0020A41F0020E01E00206F
:10535000A0020020A01F0020500D0020480C0020BB
:10536000000020410000C84200007A44F8B1010862
:1053700006266E43BC4BC8361B6801351E44B07907
:1053800003F03DF9707803F03AF9B07803F037F99B
:10539000F07803F034F9307903F031F9707903F0E3
:1053A0002EF90C2DE4D14DE2002701240025AF4B4E
:1053B0009A78954222DA0333E95C0023AC4A03EB86
:1053C00002089A5C8A4204D00C33B3F5A87FF5D169
:1053D00012E0D8F8040012F049FD81460CB92646C7
:1053E00001E0074408E04E4506DAD8F80430985D3D
:1053F00003F005F90136F6E70135D8E7002C00F097
:105400002182F8B203F02AF90024CFE7974D002457
:10541000A87803F023F9AB789C4280F01382954B77
:10542000E05C0023924A99189A5C824204D00C33C3
:10543000B3F5A87FF6D102E0087A03F0E0F8013472
:10544000E9E78D4C162003F009F9B4F8960103F052
:1054500008F9B4F8400103F004F9B4F8420103F08C
:1054600000F9B4F8440103F0FCF8B4F8D80103F0F3
:10547000F8F894F8F30103F0C2F8002003F0BFF845
:1054800094F8F40103F0BBF894F8850103F0B7F841
:1054900094F8920103F0B3F8002003F0B0F8724BD7
:1054A0001B68B3F956000A2390FBF3F080B203F0B7
:1054B000D8F888E0E0B2013403F0A1F8092CF9D162
:1054C000C0E1102003F0CAF86C4B6D4C187800F066
:1054D000020003F094F86B4B187803F090F8206802
:1054E00003F0C8F8606803F0C5F8674B188803F04C
:1054F000B8F8664B188803F0B4F85C4B588C04E19C
:1055000002F0BFFE0646122003F0A8F80EB9604B69
:1055100002E0102E03D15F4B1D685C6801E000249F
:105520002546304603F06BF8284603F0A3F82046E2
:1055300003F0A0F8584B186803F09CF8002003F023
:1055400090F8002003F08DF80020CDE0474D0024B6
:1055500095F824002E4680000130C0B203F07EF89A
:1055600095F8240003F04BF896F824309C4280F024
:1055700069814A4D285D03F042F805F11003185D7A
:1055800003F03DF805F12003185D303503F037F8DE
:10559000285D03F034F80134E6E7082003F05EF8F4
:1055A000002003F05EF8002003F05BF8002003F019
:1055B00058F80020A9E0186842E1042003F04EF8F2
:1055C0002D4B98683CE194F87A0103F018F894F8B0
:1055D0007E0103F014F894F87D0103F010F894F8BC
:1055E0007F0181E0244C072003F038F8B4F88001F3
:1055F00003F037F8B4F8820103F033F894F884012B
:1056000002F0FDFFB4F886017FE01B4C0C2003F094
:1056100025F894F8900102F0F2FFB4F89A0103F033
:1056200020F8B4F8960103F01CF8B4F8980103F0E0
:1056300018F894F8910102F0E2FFB4F89C0103F02D
:1056400010F8B4F89E0160E00B4C042003F006F85B
:1056500094F8D60102F0D3FF94F8D70102F0CFFFFF
:10566000B4F8D80151E000BF480C0020E01E002033
:10567000F8B10108E31E0020A00200209A020020D9
:10568000B01F00202C0C0020AA1F0020A81F002003
:10569000C41E0020CC1E00204C020020051F00204C
:1056A000774E784CB07F002500EB4000C0B202F08E
:1056B000D5FFB37F02349D4280F0C48014F8020C01
:1056C00002F09DFF14F8010C013500EB800000EBA7
:1056D000800000F2EE2002F0C4FFEAE7012002F0B1
:1056E000BDFF694B93F8920102F089FFAAE0082000
:1056F00002F0B4FF0024644B234493F88801013482
:1057000002F07DFF082CF6D19CE002F0AAFF99E0A0
:105710005B4B5D4C93F8650004F12805C0EBC000BD
:10572000C0B202F09BFF94F8FA010023574AD25C02
:10573000904200F08B800C333C2BF7D10834AC4204
:10574000F1D17FE0402002F089FF4F4C04F1400589
:10575000B4F8B40202F085FF94F8B60202F04FFFED
:10576000043494F8B30202F04AFFAC42F0D169E08D
:10577000E02002F073FF444C04F18005B4F83602D7
:10578000043400F03F0002F06CFFB4F83202C0F3C2
:10579000861002F066FF94F83002000902F02FFF35
:1057A00094F8300200F00F0002F029FF94F8310263
:1057B00002F025FFAC42E1D144E0354C0D2002F06F
:1057C0004DFF04F0A4FE02F01AFF208802F052FF01
:1057D000E06802F04FFF0AF097FE31E002F066FD4C
:1057E0000446842002F03AFF204602F043FF284B93
:1057F000DD6804F18003AB428CBFC4EB0505802556
:105800000BF044FD20462A460AA904F0B5FE002408
:105810000546AC4216DA0AA9085D02F0F0FE013432
:10582000F7E7132002F01AFF00241A4B185D013429
:1058300002F0E5FE0B2CF8D1002002F01BFF002047
:1058400002F018FF012018E0002016E002F0D7FE59
:10585000B4F8FC0102F005FF94F8FE0102F0CFFE5F
:1058600094F8FF0102F0CBFE94F8010202F0C7FEAB
:1058700094F8000202F0C3FE60E72BB0BDE8F08FA1
:10588000E01E002040040020A0020020481F00204D
:105890001C00002044BB01082DE9FF47B84C80469E
:1058A0002378B84F002B00F0E7813B6862689A1AB2
:1058B0007C2A40F2E1816360237A00250133237260
:1058C00005F12400AE4EC0B202F04EFF06F10A030D
:1058D00033F915000EF0F2FFAB4B814618880EF03D
:1058E000EDFF014648460FF0F1F8A8490FF03AF8ED
:1058F0000FF0FEF9013500B202F062FF032DDFD197
:10590000302002F031FFA24BB3F9000002F058FF43
:1059100002F038FF337A99072ED1726841F288334A
:105920009A4219D99B4E102002F01EFF3068642560
:1059300090FBF5F000B202F043FF212002F014FFCB
:10594000336893FBF5F005FB103585EAE570A0EBB5
:10595000E57000B202F034FF142002F005FF8E4B18
:10596000B3F9000002F02CFF1C2002F0FDFE002025
:1059700002F026FF02F006FF237A5A0740F0598111
:10598000022002F0F1FE854B4FF0050918686423F0
:10599000323090FBF3F000B202F012FF804B032094
:1059A000B3F9065002F0E0FE7E4B95FBF9F51B784B
:1059B000ADB213F0040F7C4E0BD07C48414608F08A
:1059C000D7FA20B9336813F0100F18BF002528B29A
:1059D00005E06B4B1B699B89B3FBF9F000B202F049
:1059E000EFFE33689B076BD5DFF8DC81A38A98F85C
:1059F0000020642505FB0323B4F8169052004FEAFB
:105A00000919B3FBF2F31FFA89F949EA03291FFACE
:105A100089F9C3F3032349EA0309062002F0A4FE2F
:105A20000FFA89F002F0CCFEE28A98F800300132D9
:105A300092B292FBF3F103FB1123E382A369504E70
:105A40009B7B012B05D1392002F08EFEB6F91400A4
:105A50001AE0B38A6E265E43152396FBF3F6B6B2C0
:105A60003A2002F081FEB6FBF5F80FFA88F002F05A
:105A7000A7FE3B2002F078FE05FB186080B20530DF
:105A80000A2390FBF3F000B202F09AFE282002F005
:105A90006BFEE3690A2293FBF2F000B202F090FE83
:105AA000042002F061FE23699B8913B108F0AAFC6F
:105AB00003E0334B186A80F3100000B202F080FE5E
:105AC0003B4B1B689E0640F1A9803A4E33789D07F8
:105AD0001BD5112002F048FEA08C4FF4F3656843FB
