:020000040800F2
:1000000000500020C557010865580108AD4101089E
:10001000655801086558010865580108000000008E
:10002000000000000000000000000000655801080A
:10003000655801080000000065580108B310010868
:100040006558010865580108655801086558010898
:100050006558010865580108EDB20008E9B20008CA
:100060006558010865580108655801086558010878
:10007000655801086558010871BC000865580108F9
:10008000C5E200086558010865580108655801086F
:10009000655801086558010865580108E5B200086F
:1000A00065580108A1CB000865580108B1CB0008CC
:1000B00091CB000881CB000871CB0008FD650008DA
:1000C00001660008F5650008F96500086558010833
:1000D0006558010869BC000861BC000859BC0008EB
:1000E000C1100108655801086558010800000000AA
:1000F0000000000000000000000000000000000000
:0C01000000000000000000005FF808F1A3
:100110002DE9F04F764B774DA3B02B6000236B6039
:1001200011F091FF039518B911F0B0FF0AF048F9EA
:100130000AF010FA704A714C1378714E43F00103C3
:10014000137000230A930B930C934FF4E0130D9359
:100150002368307B43F480332360A36943F01003AA
:10016000A361236803F400330B930A9B01330A93C2
:100170000B9B1BB90A9BB3F5A06FF2D123685F49B3
:1001800013F4003301D0022315E00A6842F00102A3
:100190000A600A93236803F002030B930A9B01335E
:1001A0000A930B9B1BB90A9BB3F5A06FF2D123688E
:1001B0009A0739D501230C93524B53491A6842F0E0
:1001C00010021A601A6822F003021A601A6842F0DC
:1001D00002021A606368636063686360636843F483
:1001E00080636360494B1A68043B22F070425A6096
:1001F000474A1160616821F47C116160596841F0DF
:1002000000415960D96821F40041D9609B681B0402
:1002100049BF404B4FF4E01313604FF480130D932C
:100220000C9B012B01D117E0FEE7022B18D168B11E
:100230000D9BB3F5801F02D14FF4A01305E00D9B79
:10024000B3F5E01F02D14FF400130D930D996368CD
:100250000B4343F4803302E0636843F4601363604C
:10026000236843F0807323602168244B8F01FBD502
:10027000596821F003015960596841F00201596041
:1002800063681E4903F00C03082BF9D14B68DFF8B3
:10029000908003F00C03042B03D0082B03D01A4BDF
:1002A00012E0136810E04B684868C3F38343C5034A
:1002B00003F1020301D4184905E0496811F4003F35
:1002C000116818BF49084B43C8F8003063681349E8
:1002D000C3F303130B44197ED8F80030CB40C8F8A1
:1002E00000301368084A93421CD101221EE000BF6F
:1002F000379C0008C0000020A034002000100240FD
:10030000601100200020024000127A000410014019
:1003100030000020001BB70000093D00E4A20108E6
:100320004C000020434A934202D10222424B1A70F1
:10033000DFF830A1414B039ACAF80C30A369DFF80B
:1003400028C143F00103A361636A0DF1880B936038
:10035000636A3B4F43F080736362A369604643F076
:100360001C03A3614FF6FF732BF82C3D0025594663
:10037000CDF808C08DF85E500EF0AFF838465946FB
:100380000EF0ABF859462F480EF0A7F82E4A584603
:100390005368DFF8D89043F00073536010F09EFA72
:1003A0002A4A179B2946B3FBF2F3294A29481360CE
:1003B0000C2217F04CFCD8F800304FF47A72B3FBE3
:1003C000F2F3254A013B5360F0238AF823300723D8
:1003D00095601360B368DFF89880C9F8003098E83A
:1003E0000F008BE80F00A369102543F00803A361F9
:1003F000A369179843F00803A36108233B6118A978
:100400003D610EF06AF819981AA90EF066F8D9F84D
:100410000020DFF84CA0100732D59AF89021012A6D
:100420002ED80E499AF89121896811F0805A00F06F
:100430006A8625E0001BB700CB3400200005FA05D2
:10044000000C0140001001400000014040420F003C
:10045000A02D0020D029002010E000E0C0000020E6
:100460006011002000ED00E000080140BC300020D9
:100470000CA301087F4B002283F891210AF03AFA7D
:10048000642010F00CFEA0227B48002117F0DFFB57
:10049000E369002243F00703E361A36943F40063C7
:1004A00043F00C03A361754B002703F10C01575473
:1004B00001320E2AF7D1D9F80040FF229A76DA7677
:1004C0001A775A77C4F3801304936D4A6D4B3946FB
:1004D0001A606D483C2217F0BAFB394605236B4A77
:1004E000694F885C0C224A43049DD0553DB91E38A3
:1004F00001289FBFFF2003F1FF33D055DBB201314C
:100500000529ECD1624A77791370624B03991F7009
:10051000614B5A4A0B626149C0330B60604BA106C4
:1005200003EBC7035B7848BF01235362002340F20B
:10053000DC515C4A22F813100133082BF7D15A4BD7
:100540004FF4C87A1D68B5F90C0014F00BF957493F
:1005500014F010FAB5F80AC0002580462E46544B18
:10056000544A1860544BA3F800C01FFA8CFCCCF519
:1005700061739BB20CF5617C03931FFA8CF30593B6
:100580000FFA8AFC60460992CDF820C014F0EAF810
:10059000464914F0EFF9494914F038F9484914F084
:1005A000E9F9814617F060FD0790484617F0F2FD23
:1005B0000690484610F0AAFF8146079908F10040CE
:1005C00014F024F9069B194614F016F83D4914F06E
:1005D0001DF9494614F01AF914F0DEFABDF90C3091
:1005E000DDF820C0099A80B29C4522F8020F0EDB8C
:1005F000BDF914309C450ADA00B236B286422DB2FB
:10060000A8BF0646A842B8BF2846B6B285B20AF1CE
:100610000A0A1FFA8AF3B3F5AF6F1FFA83FAAFD154
:1006200036B22DB27642B542A8BF3546264B10A849
:1006300000211C221D8017F00AFB14F400790D4DD7
:10064000DFF8888004F4006642D0A30408D456B1D1
:1006500095F8842108F10C03012A08BF434604E001
:10066000CDF80C8002E008F10C03039317AB16934E
:1006700030E000BF60110020F02D0020C0000020FD
:1006800058130020142A00201C2A002081CE0108C3
:1006900015110020FC070020701100200C2F0020F5
:1006A000F8CB010880100020F8070020000020414E
:1006B000B82D0020E4080020B42D0020DB0F4940B5
:1006C0000000344300007A44E4080020E4A201085A
:1006D000CDF80C900E2F03D007F0EF07082F02D1B2
:1006E00001238DF85230012007F0FCFA18B1408840
:1006F000003018BF0120C4F340038DF846309DF848
:10070000103000F001008DF84930C4F340338DF80B
:100710004030C4F3C0338DF845008DF8433026B126
:1007200095F88461771E7E427E41C4F300438DF8C4
:100730004A30A04B19F100095A6A18BF4FF001095D
:10074000003218BF01228DF84C20C4F300528DF8FE
:100750004D20B5F846218DF84460ADF85020B5F82D
:10076000522104F00100ADF84E20C4F380428DF810
:10077000472095F85421C4F3C001161C18BF012668
:10078000E40448BF8C4C8DF8486048BFB4F84C4135
:10079000B5F85061B5F844718DF84100ADF8567068
:1007A00048BFADF85640B6F5FA7F8DF842108DF887
:1007B0004B90ADF8546002D90AB9ADF8562095F8BF
:1007C000D42183F82820002283F829207B4B5A70FB
:1007D0009DF8523093420CBF1346022300B901B179
:1007E000013308EB8308D8F838304FF000099A1E1F
:1007F0001A3304920693049B33F8024F04934FF686
:10080000FF739C4200F09B819DF84520E3B2240ACF
:10081000E5B21AB19A1E012A40F28C819DF8492056
:1008200032B167491A018958664A914200F08281C3
:100830009DF84A0030B162491A018958614A9142D3
:1008400000F078819DF8462052B15D49029E01EB8F
:1008500003114A68B24203D10A89102A00F06A8162
:100860009DF8432052B15649029E01EB03114A689C
:10087000B24203D10A89022A00F05C819DF844202B
:1008800052B14F49504E01EB03114A68B24203D1B5
:100890000A89022A00F04E81169E7EB1484F3268C6
:1008A00007EB03177968914208D13A89B1889142E0
:1008B00000F04081F188914200F03C81022C02D18D
:1008C0009DF8402003E0012C04D19DF84120002A2E
:1008D00000F030819DF84C20394C1E015AB19DF832
:1008E000522042B9A3F10802012A04D8A25937497B
:1008F0008A4208BF04259DF84D20344452B19DF82A
:1009000052203AB910B10C3B012B01E0043B032B00
:1009100040F2F880012D5FD1264FDFF8A4C0FF23FD
:1009200087F8703087F871300CEB06035A7B5868F3
:1009300003F1080A1B894FF00008ADF85C3017A9D5
:10094000022387F87480C7F880408DF85F30CDF8B7
:1009500014C08DF85E2087F82C80C7F83080C7F867
:100960003480C7F83880C7F86C8087F8728087F8C1
:1009700073800DF0B2FDDDF814C09AF802105CF837
:10098000060042460AF0FFFA204641462A460BF08E
:10099000BFF80F4BC7F88C80C7F884300D4B20464A
:1009A000C7F8883007F1840107F188020BF0F8F8E6
:1009B000C0E000BFC000002060110020E90000205E
:1009C00078C6010800040040000C0140002C0140E2
:1009D000F5A90008D5AA0008022D48D15FFA89F3CD
:1009E0001C2101FB03FCBB4B002703EB0C08BA4B9B
:1009F0004FF0010A9A19079302F1080359795068D8
:100A0000128988F875908DF85E1088F8767017A9AD
:100A100088F87E7088F874A0C8F88040CDF820C0AF
:100A20000593ADF85C208DF85F500DF056FD079BE7
:100A30003A469859059BD14499780AF0A4FA204681
:100A4000394652460BF064F8A44AA24BDDF820C0A8
:100A5000C8F884209C44A24A0CF18401C8F888207C
:100A6000C8F88C7020460A1D0BF09AF862E0032D3E
:100A700046D19DF84730974D9A4ED3B19DF84830F6
:100A8000994F95F82A8053B1984BBDF854202046D1
:100A9000B3FBF2F2082192B2BDF8563003E02046D3
:100AA0004FF6FF7208210AF0C3FA46F82800C76023
:100AB00020E0BDF8542095F82A70B2F5FA7FBDF811
:100AC00056300BD989492046B1FBF2F2082192B287
:100AD0000AF0AEFA864B46F827000AE08549204620
:100AE000B1FBF2F2012192B20AF0A2FA7E4B46F873
:100AF0002700C36095F82A30013385F82A3019E0C1
:100B0000042D17D1BDF84E207A4B724D93FBF2F2B3
:100B10002046BDF85030012192B295F829600AF0C4
:100B200087FA95F8293005EB86060133C6F854019B
:100B300085F82930049B069A93427FF45CAE654F9A
:100B40006D4E97F82930002487F874316B4B347060
:100B50001D78A5F11703022B18D83B6A00211859FC
:100B600003EB040813F0E6FF10B17B6A5BBB25E0E2
:100B7000634B04EB030E98E80F008EE80F00337808
:100B800010340133C02C3370E7D1EEE75D4B13F81E
:100B900035C003EBC503D3F8048086F800C0B8F174
:100BA000000FE2D06445E0DA554A230103EB020E60
:100BB00043440FCB01348EE80F00F3E7524F3B68FC
:100BC000DB0424D41DE0514B514A13F8350003EBEC
:100BD000C5035C681070002CF0D000238342EDDA6E
:100BE000C3EBC3016218D2F800C0DFF84CE1013357
:100BF00041F80EC001EB0E079188B9809279BA7165
:100C0000ECE705F0EF03082B424B24D125E03378C5
:100C1000012BF6D9404C04EB031303F110061034FA
:100C2000B442EED054F8100C4FF07C5113F0EEFDAE
:100C30004FF07C5144F8100C54F8140C13F0E6FDFE
:100C40004FF07C5144F8140C54F80C0C13F0DEFDFA
:100C500044F80C0CE3E70E2D08D11A78182D42F059
:100C600010021A7008D110F0FBFC05E01A78192D5B
:100C700022F010021A70F5E710F0D6FC3B68274D01
:100C80005E035EBF264B01221A70264A264E137859
:100C9000264843F0040313702B784FF48052022B44
:100CA00034BF142310238DF85E304FF002038DF80B
:100CB0005F30B369ADF85C2043F00403B36134BF27
:100CC0000024012417A90DF008FC194BB4B3194AEC
:100CD00035E000BFC000002078C60108C1AF0008A1
:100CE000CBA90008BC2D0020E5AA000800127A005C
:100CF000F5AA000840420F00EC2D0020FC07002060
:100D000000080020F8CB0108BC30002008B501081D
:100D1000982E00206C19002008080020CB340020F9
:100D2000F80D0020A034002000100240000801400F
:100D3000B0340020350E0108992E0020BD4A002055
:100D40001A6010F0CBF9BC4BBC4C93E80300B369BC
:100D50008BE8030043F00803B361179818A90DF05E
:100D6000BCFBF3694FF0030943F48043F36133693B
:100D7000204643F48043336118238DF85E30594692
:100D80004FF42043ADF85C304FF0040A8DF85F90CB
:100D90000DF0A3FB4FF48043204659464FF4805892
:100DA000ADF85C308DF85EA00DF097FB1023204667
:100DB00059468DF85E30ADF85C800DF08EFB3369DE
:100DC000322043F480433361336923F48043336139
:100DD0009B4B1A8802F4415242F4457242EA0902DE
:100DE0001A80998B072221F400610904090C998368
:100DF0001A821A8892B242F040021A809F23C4F8E5
:100E000010808DF83C3000238DF83D308DF83E3059
:100E10008DF83F3010F043F95246C4F8148058461C
:100E20000FA912F013FBC4F810809DF85E309DF8F6
:100E30005D201B0243EA02439DF85F201343814A71
:100E4000934214D0322010F02AF9C4F81480F5200F
:100E500012F032FBFF2012F02FFB7028C4F8108034
:100E600005D12B78022B04BF774B83F800902B78A9
:100E7000032B0CBF1F20022006F0B7FE2B78032B9C
:100E800003D001200DF07AFD07E0022006F02AFFD2
:100E90000028F6D04388002BF3D095F800906B4DD6
:100EA0004FF0100B284600215A463C6816F0CFFE42
:100EB0004FF6FF73ADF83C30022304F4004804F40D
:100EC00000674FF0000A1C408DF83E308DF83FA0BF
:100ED0000DD05F480FA9ADF83CB00FF049FD0423D9
:100EE0002B700124072385F801A0AC70EB70B8F1DA
:100EF000000F0ED0022356480FA9ADF83C300FF07A
:100F000037FD0123E2182B71AB7107236C71EB7174
:100F1000D4B2B9F1010F0FD920234D480FA9ADF874
:100F20003C300FF025FD052301222B72AA72631CB1
:100F300007226C72EA72DCB27FB102233F480FA92C
:100F4000ADF83C300FF014FD092301222B73AA7376
:100F5000631C07226C73EA73DCB273683D4843F488
:100F60004043736073693B4F43F001037361B3699E
:100F700043F40073B3610FF0B5FD374B00261793B0
:100F8000364B012C189394BF334680231C934FF4A7
:100F900080731D934FF480631E93202317A91F9322
:100FA00038464FF400531A94209319961B962196B5
:100FB0000FF07AFD3B682A4A43F001033B60536817
:100FC000012C23F4702394BF0021012123F48073AA
:100FD00043EA012353609168224B013C0B403146A8
:100FE00043F4602343F002039360D36AE4B223F432
:100FF000700343EA0454D46201236A1890780028ED
:101000006CD06C5C581C092CC0B2D278144F2BD910
:10101000A4F10A06D7F80CC006EB46064FF0070EFF
:101020000EFA06FE2CEA0E0EB2404EEA0202FA60FA
:1010300027E000BF490E01082CA30108000C014065
:101040000038004015202000CB340020D02C002098
:1010500000080140080002404C240140E02C002020
:1010600000240140FDF7F1FF3E6904EB440C4FF012
:10107000070E0EFA0CFE26EA0E0602FA0CF23243B6
:101080003A61062B374E0CD85A1E776B02EB820260
:101090001F23934027EA030704FA02F33B437363D9
:1010A0001BE00C2B0CD8DA1F376B02EB82021F23DC
:1010B000934027EA030704FA02F33B4333630CE04F
:1010C000A3F10D02F76A02EB82021F23934027EA85
:1010D000030704FA02F33B43F36203460431102989
:1010E0008BD1204B9A6842F480729A609A6842F0E1
:1010F00001029A609A6842F008029A609968194A57
:101100000D0733D5FAE7013A092A3FF6B9A9D8F80D
:101110002C007D615946CBF8000002980DF0DDF9F6
:10112000029B3C201A46082313610FF0B8FF3D6173
:10113000574696F891319F42BFF69CA9029BDFF873
:1011400028A00825CAF8105078205D610FF09CFF98
:10115000029BCAF8145078201D610FF095FF0137EB
:10116000E7E700BF00240140000C0140936843F012
:1011700004039360AC4B9A6812F004020292F9D116
:101180009A6842F4A0029A60A84BB3F8580100286C
:1011900040F0A686B3F95A21002A40F0A186B3F99F
:1011A0005C31002B40F09C86A14D2B689C0320D520
:1011B000C8200FF074FFAE200DF04BFB08B10DF00E
:1011C0004DFB9C4C84F87501C8200FF068FF9A4BCA
:1011D0000021C4F87831994C0C22204616F037FDD6
:1011E0000223E3700CF05BFC0FF032FF944B0344DE
:1011F000A360944E8D4C336894F85F0194F86911A4
:1012000094F86A21B3F956300BF0C4FD049610B976
:1012100001200FF0B7FF8C4A0A26137843F002032F
:1012200013708A4B10225A6108221A61874F1920C5
:10123000FB68013E83F01003FB60FB6883F008034A
:10124000FB600FF02CFF01200FF048FF19200FF07A
:1012500026FF00200FF042FF16F0FF06E6D108231C
:101260003B6110267A4B3E611B68180707D5794B06
:101270007E611B689847784B01223E611A70774B5C
:1012800000271E68DFF80C82307B13F06BFA74497C
:1012900013F0BCFA09F038F8724B1860724B1888DA
:1012A00013F060FA01464FF07E5013F063FB6F4B72
:1012B0006B4918606E4B186913F0A8FA6D4B1860F3
:1012C000307813F04FFA01464FF07E5013F052FB86
:1012D000694B014618604FF07E5013F08DF9674B53
:1012E0004FF07E521860664B38469A601F605F6010
:1012F000644B9A601F605F6009F006F80646384646
:1013000008F090FF31460746304613F07FFA394621
:101310008246384613F07AFA31468146504613F039
:1013200075FA39468346484613F070FA0146584626
:1013300013F064F93146C8F80000384613F066FA35
:101340003146059013F062FA059B834639461846EC
:1013500013F05CFA034658461946059313F04CF90E
:10136000059BC8F804001946584613F047F939465A
:10137000C8F80800504613F049FA31460746484677
:1013800013F044FA0146384613F036F93E4F3F4B0E
:101390000026C8F80C00FF2138461B221E7016F0EC
:1013A00056FC38463E702A4E394B3268012112F005
:1013B000020F18BF797019701FBF03211970022125
:1013C000B970510741BF19784F1C1F70032748BFE0
:1013D000475412F00A0F0CD01A7804218154511C82
:1013E000C9B205274754D11C02321970D2B2062166
:1013F00081542A68970641BF19784F1C1F70072730
:1014000048BF4754110608D51978092747548F1C3F
:1014100001311F70C9B20A2747546779082F3BD0A2
:101420000E2F42D138E000BF00240140601100209F
:10143000BC300020C0000020E8120020AC2A0020B0
:10144000404B4C0090100020A0340020000C0140C4
:1014500068190020082A0020E4050020382C00200C
:1014600035FA8E3C342C002018000020EC2B002094
:1014700060290020F02B00204C2C00203C2C002068
:10148000502C0020402C002059100020AA2B0020B6
:1014900058100020242C0020197801F1010E83F847
:1014A00000E04FF00B0E00F801E0197812F4803FD5
:1014B0004FF00C0C00F801C001F1010E1CBFDFF869
:1014C00074C202315FFA8EFE83F800E01FBF8CF811
:1014D000001097494FF00E0C01F80EC0510748BF9D
:1014E00019784FF0120C41BF01F1010E83F800E0B2
:1014F000102343548F4912F4806F0B7803F1010ECF
:101500005FFA8EFE81F800E000F803C00BD094F87B
:1015100024C2BCF1000F06D002330B70844B4FF095
:10152000130C03F80EC00B7812F4007F4FF0140C6C
:1015300000F803C003F1010E1CBFDFF8F8C102334D
:101540005FFA8EFE81F800E01FBF8CF80030784B08
:101550004FF0150C03F80EC0182F13D10B784FF075
:10156000160E00F803E003F1010E5FFA8EFE4FF055
:10157000170C00F80EC003F1030E0233DBB281F842
:1015800000E0C754110341BF6A490B785F1C0F701C
:1015900044BF1921C154D30541BF664A1378591C71
:1015A000117044BF1A22C25400219822624816F0DA
:1015B0004EFB0BF022FB614A614BB4F84E111A60EE
:1015C000604BB4F8960119805F4900230B808B7043
:1015D0005E490A605E4A81B213705E4A22F81310B7
:1015E0000133122BF9D12B68DF0458BFB4F89C11DA
:1015F0001B07D18040F1028194F89031062B00F254
:10160000F780DFE803F004070E395576760045F2DF
:10161000F05201E042F6F8224F4B1A800BF076FBB5
:10162000E5E042F6F8224C4B1A8013F09BF84B4948
:1016300013F0ECF84A4912F0DFFF13F0D3FA00235D
:10164000484A42F823000133122BF9D1464A474950
:1016500040201160464A13700FF01AFC002800F079
:10166000C78001234FF0070990F9000040218DE861
:101670000802404A404BB5E042F6F822364B402083
:101680001A803E4A384B1A60394B10221A700FF0FC
:10169000FFFB002800F0AC8001234FF0000890F918
:1016A000000040218DE80801354A4FF4E13399E00C
:1016B00042F6F822284B40201A80324A2A4B1A6000
:1016C0002B4B08221A700FF0E3FB002800F09080EB
:1016D00001234FF0000C90F9000040218DE8081024
:1016E000294A4FF4E13306F0ADFA284BC3F87C01E8
:1016F0007AE042F6F821184A062B11801C494FF077
:101700000C02DFF8A0E0224F22480A704CD00023E0
:101710003B708EF8003003701F4B1B2119701F4B5C
:101720004FF4E1371A701E4B05221A7049E000BFD2
:101730005910002058100020B0280020E812002086
:10174000300F0020340F002070340020643400205B
:10175000B30E0020F83000206A070020CDCCCC3F2B
:101760000000B044503300201C000020B53D0108AB
:101770004C2900205D3F0108A0860100A13D010821
:10178000B13E01088D3D0108653E0108C000002002
:10179000812C0020802C0020A32C00205F3400200E
:1017A000A42C0020603400200021397001708EF8D4
:1017B00000103C49212008703B493C4F0A703C4ACC
:1017C00013703C4A3C4B40201A600FF061FB78B12B
:1017D00001234FF0000E90F900008DE808403B46D1
:1017E000364A402106F02EFA003018BF012028B9F1
:1017F000082008F0B3FD324A2F4B1A602B68314A9B
:1018000013F4804F1FBF122111702F482A4918BFAF
:10181000086042F20101194099B144F620602B4959
:101820000880980441BF082111702948224948BF07
:101830000860D90741BF0C21117026481E4948BFD6
:10184000086011781F06A1F10401517040F18580F4
:101850002148DFF890A04FF00008204F41461522A4
:10186000C0F880A1DFF8809000F5C27087F8018091
:10187000C7F80480C7F8088016F0E9F9AAF1050353
:101880004046C9F800300AF0B4FE154B02201B6830
:10189000FB600FF0FDFACE4640BB802008F05EFDF5
:1018A00053E000BFA32C00205F34002090D0030041
:1018B000A42C0020C90501081C000020DD0501083A
:1018C000153E01084C290020E53D01086A0700206B
:1018D000053E0108F53D0108C00000201807002062
:1018E000E0300020581300203807002090F805C091
:1018F0007B78C5490C2202FB03125278624504D062
:101900000133DBB2042BF4D900237B70DEF8003006
:101910007A781B7890F90000002B4FF00C0303FB42
:10192000021314BF4FF0030E4FF0010E00225B783C
:10193000CDF800E00192022106F084F9B34B186063
:101940000028AAD001200AF054FE049B1868B04B6E
:1019500000F5C5721A600AF0F3FE2B68980553D59E
:10196000AC4AAD4F039B4FF010083B609369AB4806
:1019700043F001039361039B0EA91B888DF83A8005
:10198000ADF8383002238DF83B300CF0A6FD3B68F3
:10199000A2485B880EA9ADF8383004238DF83A30A0
:1019A0000CF09BFD3B680120197A0CF081FD3B682F
:1019B0009B4A5B684FF00009536117A88DF861805E
:1019C0004FF0010817938DF860908DF862800FF04A
:1019D0002EF83B680FA85B7A8DF83E908DF83C306E
:1019E00003238DF83D308DF83F8011F011FD8D4BB4
:1019F0008D4A1B683C3B136033684FF0FF3243F065
:101A000010033360894B1A60894B8A4A8A4E1360EF
:101A10008A4A803313602B680027D903377040F15E
:101A2000B28040F22A39DFF84CA2DFF8E8B10FF0BB
:101A300033FF4FF001084A465046394686F8008089
:101A400016F005F9DBF818307D4843F00403CBF8B5
:101A500018304023ADF8383018238DF83B300EA9EC
:101A600003238DF83A300EF083FFDBF81C30754A03
:101A700043F00203CBF81C30734B744E1B68ABF67B
:101A8000947BB3FBF2F33288013B22F45C721204C4
:101A9000120C32809BB21D22B2853385A6F81480C9
:101AA000338C23F001031B041B0C3384338CB1886B
:101AB000328B23F0020322F0730212041B04120C77
:101AC0001B0C89B242F0600243EA0803B180328302
:101AD000B7863384338B23F008031B041B0C43F0BD
:101AE00008033383B6F844306FEA43436FEA534345
:101AF0009BB2A6F84430DBF8A83F43EA0803CBF8D2
:101B0000A83F58460EF0EEFF514BCDF860A017935A
:101B100080231C934FF480734FF0100A1D93584696
:101B20004FF4005317A920931B971E971F972197D7
:101B3000CDF864A0CDF868900EF0B6FFB3890FA879
:101B40009BB243F40073B381DBF8003043F002032F
:101B5000CBF800308DF83CA08DF83D808DF83E70BC
:101B60008DF83F8011F054FC3A4B02991A683A4BB9
:101B700043F821200B460133202B0293F4D10CF0C3
:101B8000B9FB0CF0B7FB2B685A0540F19080334E3F
:101B9000334BD6F8C4840420C3F800800FF078F9E2
:101BA0000421C6F8C80406F053F92E4B86F8CC047D
:101BB0000820C3F800800FF06BF92B4B0821186048
:101BC00006F046F9294F86F8CD04002138462C222C
:101BD00016F03DF88E237B704FF07C0AE0234FF027
:101BE0007D09FB7087F800A087F82B90204F2C22EE
:101BF0000021384616F02BF88A237B701020A02392
:101C0000FB7087F800A037E0A8A30108A82A0020ED
:101C1000840F00200010024014070020000C014037
:101C200000040140E030002010070020B010002028
:101C300094130020341A0020F90D0020EC2A002013
:101C40000008014000366E014C00002000040040F6
:101C50003404004034A30108FA0D0020C000002025
:101C60005C190020B4190020001A002084190020FB
:101C7000B91900205902002087F82B90C6F8D084AB
:101C80000FF006F91021C6F8D40406F0E1F886F842
:101C9000D8042020C6F8DC840FF0FAF82021C6F81A
:101CA000E00406F0D5F886F8E4040BF0CFFD734BA2
:101CB000734E1B78022B67D1724A0027138832209B
:101CC00023F040031B041B0C138013884FF480582F
:101CD00023F038031B041B0C138013889BB243F0C2
:101CE000400313809F238DF83C308DF83D708DF8B4
:101CF0003E708DF83F700FF0D2F98DF85D70624F35
:101D00000422C7F8148017A80FA911F09FFBC7F889
:101D100010809DF85E309DF85D201B0243EA024270
:101D20009DF85F301343594A934219D00AD8A2F55F
:101D30001A42033A93420CD002F51A4202329342FD
:101D400009D01CE0524A934205D00132934207D099
:101D500015E0202300E0802333804FF4807302E0FD
:101D60004FF4807333807380B38832881B02B36072
:101D70005343F360474B012283F8E52404E000233A
:101D800033807380B360F360F66826B3F60AB0461A
:101D90004FF00009B1450BDA09EB06077F100DF192
:101DA0005C0AF802514610220CF004FD0F2807DCF3
:101DB0000AF078FE374B4FEAC822C3F8E8240AE05D
:101DC00000235AF82320013254D10133042BF8D1D7
:101DD000B8463E46DEE72B682F4A13F4002318BFAF
:101DE000012313700FF034F92C4B2D4918606379DF
:101DF000052B02BF2B4B4FF4C8721A802A4B4FF4AD
:101E00007A721A80294BC8221A80294A137843F023
:101E100008031370274A137823F00203137040F667
:101E200002030A6813406BB12348244B1860244B0B
:101E300003201870234B01201870234800230380CF
:101E400022480380930341BF214B04221A71DA78A0
:101E500044BF42F00102DA701E4B01229B680B6006
:101E60001D4B1A701D4A137863F07F03137023B063
:101E7000BDE8F08F07F101093746AAE7CB3400200F
:101E80000800002000380040000C014018BA200073
:101E90001740EF00C00000201C3100203C0700204C
:101EA000BC300020BE2B0020C6340020C0340020EF
:101EB0006C190020C9340020DA12002054190020C7
:101EC000B819002040000020281000202A1000200F
:101ED000AC2A002060110020F80D0020A034002062
:101EE000424B00221A7000B212F03CFC404912F042
:101EF0008DFC404C0646B4F95A0112F033FC3C49C3
:101F000012F084FC0546B4F95C0112F02BFC384950
:101F100012F07CFC0446304608F0F6F98046304664
:101F200008F080F90646284608F0EEF907462846EC
:101F300008F078F90546204608F0E6F98246204682
:101F400008F070F941468146504612F05FFC414668
:101F50008346484612F05AFC51460490304612F02F
:101F600055FC49460590304612F050FC3946069023
:101F7000504612F04BFC204C4946206007F10040CF
:101F800012F044FC29466060A560059812F03EFC02
:101F90000146049812F032FB2946E060069812F0E0
:101FA00035FC0146584612F027FB3946206106F100
:101FB000004012F02BFC29466061584612F026FCC6
:101FC0000146069812F018FB2946A061049812F009
:101FD0001DFC0146059812F011FB4146E0613846B0
:101FE00012F014FC2062FFF7DFB800BF34000020BD
:101FF00035FA8E3C60110020AC2C002093492DE96D
:10200000F04F0A68924C02F59C4320332360914BB9
:1020100089B01E788946DFF86882C6B18E490968A2
:102020008A4240F2EA80013E1E70E6E0D8F80030B5
:10203000072D98BF595D894B88BF29461B68884882
:102040009847032D0AD904EB4505A8800136844B37
:10205000F5B21A78AA421A46E8D820E0D8F800204B
:1020600005F10E0302EB83039988DA880028EAD091
:102070004FF47A73401A5843531A90FBF3F040F62A
:10208000C90300F57A70984205DC40F2EE239842CD
:10209000B8BF184601E040F6CA0080B2D3E742F26A
:1020A0000107704B1B681F40B7FA87F794F8283078
:1020B0007F0923B92FB1664B93F8293002E0012341
:1020C00000E03B4692F800A094F82B200326B2FBD8
:1020D000F6F60F2106EB460684F82A10961BD8F870
:1020E0000010DFF8A0B1F6B2002555454DDA1BB15E
:1020F0005D4830F8150000E01846B1F814E0864558
:1021000003D8B1F816E0864515D2E8B203920291E1
:10211000019311F097FF032DDFBF4FF0010E94F8EC
:102120002AC00EFA05FE2CEA0E0E019B0299039AB4
:10213000D8BF84F82AE007BB94F874E02BF81600A7
:10214000BEF1000F06D1022A17D941484FF0010E07
:1021500080F874E0BBF800E0BBF802007044BBF804
:1021600004E07044DFF820E180B22EF8150000B2E0
:102170004FF0030E90FBFEF080B2DFF8FCE00BF1B5
:10218000060B2EF815000135AFE794F82A203748E2
:10219000A2F10F077A427A4184F88E20344B6AB15B
:1021A000344A1268560109D40268D9689A60521AF2
:1021B000C82A1DD9012283F8212019E002689868F5
:1021C000DA605B68121A9A4288BF294B4FF000010F
:1021D00084F8281088BF83F821100025554507DAB8
:1021E000E8B211F02FFF244B23F815000135F5E775
:1021F00094F82B30013384F82B301A4E3368DD0409
:1022000005D51C4B1B68D80701D411F077FDD8F811
:102210000020D9F80070907A002837D01649137B37
:10222000013831F810001BB1C0F53B60083080B2B6
:1022300000B2A0F57A70B0F57A7FA8BF4FF47A703B
:1022400020EAE07012F08EFA0C4954E0AC34002021
:10225000880E00206C340020683400201C00002010
:102260004C290020BC3000208C0E0020E0300020E3
:102270007034002054100020F830002000007A4410
:1022800064340020B40E0020FE0E002033681904D0
:102290003AD5D4F89030904DFB1A002B34DB07F57B
:1022A0009C432033C5F890308C4BD27A59798C4BB3
:1022B00033F8113095F894109BB293FBF2F301318F
:1022C00001F00F0285F894202A4482F895300346E5
:1022D000844A825C0130134410289BB2F8D11BB2AF
:1022E00093FBF0F000B26428A8BF642020EAE070FD
:1022F00012F038FA7C4912F03DFB7C4912F086FA64
:1023000012F070FC7A4B188033687A4D13F4807F9A
:1023100000F00981784BDFF8F0919F4205D999F8D8
:10232000022012B9012289F8022099F80220002A1D
:1023300000F0F980714A94F828709246116895F877
:102340000080002FC1F38063C8F38008019314BF9D
:102350004FF0000B4FF0030B99F82020052A00F2F4
:10236000DC80DFE802F0034E537988A5B8F1000F56
:102370003AD0D4F8A800B4F8AC100EF026FE01282C
:1023800009D15F495F4A09681268C988642000FB67
:102390000122C9F81020019B6BB1594A12681279C9
:1023A0004AB111F0E5FE032289F820204FF47A7239
:1023B000C9F81C20D0E7002F40F0AF80514AD9F86F
:1023C00010101068504A88420AD9029211F0D0FECB
:1023D000029A032182F8201040F6B831D161BBE7A0
:1023E000012182F82010B7E7019B4FF4806013B100
:1023F00007F0A4FF01E007F091FF0022C9F81020C8
:102400008BE0002F49D111F0B3FEA5E727B10522DB
:1024100089F82020012000E03846B8F1000F0CD0E8
:10242000D4F8A8204FF0020BD189384A118051808E
:102430009180334909684988D180324A1168D9F8B6
:102440001420914202D8B8F1000F63D147F2305204
:10245000C9F81C20032221E02A7842F002022A70E7
:1024600011F04CFC274AD9F81C1012680A44C9F82C
:102470001820042212E0234A9FB11168D9F81820CD
:1024800091424AD9224A12781AB9DAF80020D307C1
:1024900043D42A7822F002022A70052289F82020EB
:1024A0005AE71268D9F81C100A44C9F8182034E019
:1024B0001349144A09681268C988642000FB012284
:1024C0004FF48060C9F81020002289F8202089F894
:1024D000032007F023FF3FE7880E0020D02C0020C8
:1024E000E02C00201D0F00200000C84200C07F44E7
:1024F000B4100020C9340020404B4C005410002080
:102500009C340020E030002070340020F83000209F
:102510000600002000287FF41FAFBBF1000F02D09F
:1025200058460EF0F5FD924F07F5C470B7F84E11FE
:102530000EF04BFD0197834668B911F00BFE8D4BF1
:102540000022C3F800B0C3F804B0C3F808B08A4B47
:102550001A605A609A602B785F0736D53368D806C0
:1025600033D5864B1B78D9062FD4854B1B789BB16E
:10257000019B93F8E031BBF1000F15D17BB1814B8A
:102580001A68D4F8B0309B1A002B08DA11F0B6FBA9
:102590007D4B83F8B4B018E0BBF1000F0DD11020D3
:1025A0000EF0B6FD01230EE03BB1764A4FF47A718E
:1025B000126801FB0323C4F8B03094F8B43023B19F
:1025C0000EF092FD002384F8B430019B93F8DEA155
:1025D00093F8DF11B3F898E1B3F89AC100231846D5
:1025E0006A4F800837F9132001337245C4BF60F089
:1025F0007F00C0B26245B8BF40F04000042BB9462E
:10260000EED194F8B530604A834205D192F8B630E5
:10261000F92B04D8013300E0002382F8B630584B80
:1026200084F8B5001A785A4F9846E2B93B68DA0741
:1026300008D5BBF1000F16D12B78DB0713D511F0AD
:10264000ADF910E02B7858070DD54F4B93F8283093
:102650004BB1504BDB7833B911B111F04FFB02E0B5
:10266000BBF1000FF9D094F8B630474A142BDFF8CD
:1026700040B140F0AF8098F800301AF1000A18BF5E
:102680004FF0010A6BB392F8B5305F2B11D12B7864
:1026900003F0040303F0FF0113B111F02FFB08E076
:1026A0000B20039102920EF033FD029A039982F8F7
:1026B000B610BAF1000F14D094F8B5307D2B10D1BC
:1026C0002B7803F0040303F0FF0213B111F016FBA3
:1026D00007E00B2002920EF01BFD2B4B029A83F8B1
:1026E000B6202B7803F0040303F0FF01002B71D117
:1026F00094F8B530244A572B15D1274B4FF47A72F2
:102700001A803368190601D50AF06AF8234B1B6852
:102710005A0742BF224A0A21118013F0080359D1F7
:10272000204A138056E03068400716D55A2B14D142
:102730001D4B187820B119701C4B01221A7049E00A
:1027400092F8B73083F0010382F8B7300BB10C2058
:1027500000E00D200EF0DCFC3CE05D2B00F01D8560
:102760005B2B00F01C855E2B24D1032000F018BDEC
:1027700060110020F82A0020541A00206C19002053
:1027800006000020E0300020880E0020F8300020F5
:102790005410002070340020C63400206819002036
:1027A000C034002050110020E92B0020EA2B00202B
:1027B00090100020562B01D108F09CF898F80030BA
:1027C000002B00F0038594F8B5306F2B40F0F884AF
:1027D00011F0E4F83368580732D594F8B730A3B154
:1027E0002B78590711D5019BB9F90620B3F8983118
:1027F0009A420ADD3B6813F0010301BFAC4A322163
:102800001180AC4A08BF82F8B7303B68DA030AD5BA
:10281000A94B1A782AB9A94A127812B9A44A3221C6
:10282000118001220BE0A54A13784BB12B7803F0FD
:10283000040303F0FF011BB9A14B117001221A70B0
:10284000DBF8009000233B6009F17B0809F1CB0A1B
:1028500098F8002098F8013018F8010C9A420BD231
:1028600041460EF07DFB38B118F8022C012303FA23
:1028700002F23B6813433B6008F10408D045E7D1FE
:10288000904B1B7853B1904B904F1A68984612F0BA
:10289000020FDFF8509240F0398331E309F1CA07A3
:1028A00009F589783A787B7817F8010C9A4225D295
:1028B00039460EF055FB08B397F804E00C21BB78BD
:1028C00001FB0E41824A013B03EB43031344D1F861
:1028D000BC2097F803909A4276480FD0C1F8BC30DC
:1028E000002390F8E820C1F8C030012303FA0EF36A
:1028F00022EA030381F8B89080F8E83006374745AC
:10290000D0D1744BDFF8E0A1D3F80080724B4FF0C8
:10291000000B1B68029394F828300393DAF8003018
:10292000002B00F0E48293F80090B9F1000F00F062
:10293000DE82DAF8042002998A1A002A0CDB01F5FB
:10294000FA72CAF8042094F8E810012202FA0BF295
:1029500021EA020284F8E820039A002A00F0C782E4
:102960001AF8042C59780432D2B2002940F07F8240
:102970005A4931F912105A4AB2F8962102F1C800A8
:10298000814201DD9F7814E0C83A914202DA9978D9
:102990004F420EE094F8E820012303FA0BF322EAF9
:1029A000030384F8E830029B03F5FA73CAF8043095
:1029B0009DE294F8E83043FA0BF3DB0700F19782CD
:1029C000002FCCBF022001200EF0C4FB09F1FF3222
:1029D000384B132A00F28382DFE812F01400230040
:1029E0003200440061008800ED005201B701EA01A5
:1029F00019028102440055008800ED005201BF0019
:102A00002401890198F8001040460F44FA2FA8BF0E
:102A1000FA2727EAE77788F800700EF087FA012096
:102A20001EE098F8011040460F44642FA8BF6427A9
:102A300027EAE77788F801700EF078FA02200FE0B5
:102A400098F8031040460F44642FA8BF642727EA74
:102A5000E77788F80370D3F8EC100EF01FFA032024
:102A60003946D1E198F805100D2039446429A8BFF2
:102A7000642121EAE17188F805100EF0D5FAB9F168
:102A80000D0F00F02C8298F804100E2039446429B0
:102A9000A8BF642121EAE17188F80410B4E198F834
:102AA00006100520394481F3080188F80610ABE1CF
:102AB000D02B0020880E0020E82B0020E92B0020DE
:102AC000EA2B0020CE34002054100020681900208A
:102AD000B0A70108B8100020E0300020F830002036
:102AE00060110020301A0020440F0020D3F8F0308D
:102AF0001A78022A22D13846049311F033FEA949EC
:102B000011F038FF049B596A059311F077FD0021FD
:102B1000049012F019F8059B48B9049AA14910468F
:102B200012F030F8049A059B10B19E4A00E0002292
:102B30005A620F2011460EF063FA0AE099780F20CE
:102B40003944C829A8BFC82121EAE17199700EF063
:102B50006BFAB9F10F0F00F0C281934BD3F8F090EC
:102B600099F80030022B1AD1384611F0FBFD8D493F
:102B700011F000FFD9F8201011F040FD00210746A8
:102B800011F0E2FF30B93846864911F0FBFF10B171
:102B9000844F00E00027C9F82070122057E199F80F
:102BA000011012203944C829A8BFC82121EAE171C7
:102BB00089F8011028E1D3F8F0301A78022A22D1DE
:102BC0003846049311F0CEFD764911F0D3FE049BF4
:102BD000196B059311F012FD0021049011F0B4FF60
:102BE000059B48B9049A6F49104611F0CBFF049A2F
:102BF000059B10B16B4A00E000221A6310201146B9
:102C00000EF0FEF90AE0197B10203944C829A8BF4C
:102C1000C82121EAE17119730EF006FAB9F1100F1B
:102C200000F05D81604BD3F8F09099F80030022BF2
:102C30001AD1384611F096FD5A4911F09BFED9F889
:102C40002C1011F0DBFC0021074611F07DFF30B99C
:102C50003846544911F096FF10B1524F00E000275A
:102C6000C9F82C701320F2E099F80B1013203944A6
:102C7000C829A8BFC82121EAE17189F80B10C3E077
:102C8000D3F8F0301A78022A22D13846049311F092
:102C900069FD464911F06EFE049BD96B059311F056
:102CA000ADFC0021049011F04FFF059B48B9049A38
:102CB0003C49104611F066FF049A059B10B1394A51
:102CC00000E00022DA63112011460EF099F90AE0C3
:102CD000997D11203944C829A8BFC82121EAE17192
:102CE00099750EF0A1F9B9F1110F00F0F8802E4B93
:102CF000D3F8F09099F80030022B1AD1384611F031
:102D000031FD2A4911F036FED9F8381011F076FC61
:102D10000021074611F018FF30B93846214911F05B
:102D200031FF10B11F4F00E00027C9F838701420A0
:102D30008DE099F8151014203944C829A8BFC8217E
:102D400021EAE17189F815105EE0D3F8F09099F866
:102D50000030022B1AD1384611F004FD114911F050
:102D600009FED9F8281011F049FC0021074611F09E
:102D7000EBFE30B938460B4911F004FF10B1094F92
:102D800000E00027C9F82870092060E099F80310D6
:102D900009203944C829A8BFC82121EAE17189F86E
:102DA000031031E00000C842880E002000007A4481
:102DB000D3F8F09099F80030022B1AD1384611F070
:102DC000D1FCB44911F0D6FDD9F8341011F016FC3D
:102DD0000021074611F0B8FE30B93846AD4911F070
:102DE000D1FE10B1AB4F00E00027C9F834700A20C3
:102DF0002DE099F80D100A203944C829A8BFC82130
:102E000021EAE17189F80D100EF00EF967E0D3F8B0
:102E1000F09099F80030022B1DD1384611F0A2FC39
:102E20009D4911F0A7FDD9F8401011F0E7FB0021F2
:102E3000074611F089FE30B93846964911F0A2FED6
:102E400010B1944F00E00027C9F840700B203946BC
:102E50000EF0D6F843E099F817100B203944C82932
:102E6000A8BFC82121EAE17189F81710CCE7012930
:102E700035D19878894B33F91230B3F5617F05DB92
:102E800040F633029342A8BF134601E04FF461734A
:102E9000B9F10C0F23D14FF4966292FBF0F0A3F539
:102EA000617393FBF0F37E4ADFB21378BB4216D016
:102EB000042F34BF3B460223019913700E2202FBFC
:102EC0000313784A03F2BE73136007F01FFB4846F2
:102ED00039460EF0A9F8781CC0B20EF03BF994F810
:102EE000E820012303FA0BF3134384F8E8300BF1D5
:102EF000010BBBF1040F0AF10C0A7FF40FADC2E421
:102F00003368D80510D5684BDB786BB13B689907FF
:102F10000AD5B9F8003013F0010A0AD111F01AF9F4
:102F2000012007F00BFA04E0012007F0F7F9012374
:102F300000E00023D8F8002052070DD563B101202E
:102F400007F0ECF9B9F800309B0708D411F002F94A
:102F5000022007F0F3F902E0022007F0DFF9B9F8E8
:102F60000030524A13F0030F4FF0100114BF5161AB
:102F700011613A6812F00A0F27D0D8F80020D00665
:102F800009D559070AD4042007F0D8F9484B1B8803
:102F9000A4F8F43002E0042007F0C0F9D8F80030BB
:102FA0009A0607D5B9F800305B0606D4402007F032
:102FB000C5F902E0402007F0B1F9D8F80030580612
:102FC00042BF3B4B1B88A4F8F6303B68990609D4F6
:102FD000D8F800301A0540F1AF804FF4807007F048
:102FE000ADF9ADE0334B1B789B076DD5324B1B78A9
:102FF000042B69D9D8F8003013F4007A0FD0B9F84F
:103000000030DF063AD4102007F098F9202007F0AE
:1030100085F92A48011D09F04DFB02232AE0B9F881
:10302000007007F01007BFB22FB1102007F076F93B
:10303000012784F8F8A0D8F80030580512D5D4F844
:10304000FC301F495A89B1F90030002BB8BF5B42F0
:10305000934207DAB1F90230002BB8BF5B429342CA
:10306000C0F20681B9F80030990608D5202007F093
:1030700055F9002384F8F830012700E0002794F880
:10308000003193BB0E200EF043F80E4B012283F863
:1030900000212AE00000C84200007A44F8300020F5
:1030A00074300020B810002070340020000C014063
:1030B000501100206C19002072190020C01000204F
:1030C00058110020880E0020B9F8003003F03003BA
:1030D000002B3FF47DAF102007F020F9202007F0EF
:1030E0001DF9002384F8F83002E0002F3FF470AFA0
:1030F000002214466B4B002023F814006A4B191D64
:1031000003F10A0721F814000021D1511744786017
:10311000B96023F8140003F132075A33D151D1506A
:10312000174413447860B960586099601432002CD9
:103130007FF44EAF0124DDE74FF4807007F0EEF826
:103140005A4B5A791C46082A01D00E2A02D1402037
:1031500007F0E4F833685A0540F1A08094F824326F
:103160001BB92B7813F0040F03E0D8F8003013F4E8
:10317000002F0BD04E4B00221A703C200AF04EFA62
:10318000002800F08B800FF079FEF6E70AF05EFB76
:1031900009B0BDE8F04F09F030BD012000E0022089
:1031A0005FFA80F8019A08F1FF3382F8BC3707F024
:1031B00007F907F0CFF940460DF0CCFFFFF70ABB47
:1031C000BAF1000F02D07E2B3FF402AB94F8B53079
:1031D000972B05D1374B4FF4C8721A80FFF7FABA14
:1031E000A72B06D1344A137843F004031370FFF77A
:1031F000F1BA0022BB2B079201D1022303E0B72BC7
:1032000004D14FF6FE73ADF81E3009E0BE2B01D19C
:10321000022303E0BD2B1AD14FF6FE73ADF81C302C
:10322000DBF80030BDF81C10B3F858200A44A3F8AE
:103230005820BDF81E10B3F85A200A44A3F85A20AB
:1032400007F058FB002384F8B630FFF7C3BA792B98
:1032500004D11A4AD37823F0010306E07A2B7FF4D5
:10326000B9AA164AD37843F00103D370FFF7B2BA74
:10327000B9F800309B063FF502AF202007F05EF85A
:103280000F4B10481A685B68011D4360026009F02B
:1032900011FA0D4B012783F8F870F0E609B0BDE88C
:1032A000F08F00BFC23400208A0F00206011002080
:1032B000182A0020BE2B00206C190020AC2A002008
:1032C00074190020C8100020880E00207C4B2DE9C6
:1032D000F04FB3F906107B4B8FB01E687289914294
:1032E0000EDBB1F5FA6FF579BFBF8B1A6B43A2F510
:1032F000FA6593FBF5F5ACBFC5F16405643500E0F4
:103300006425B08981421ADBB1F5FA6F327A11DA9D
:10331000632A88BF643AA1EB000385BF92B253438E
:103320005343C0F5FA6298BFA0F5FA6293FBF2F23C
:10333000643205E0632A03D8C2F1640200E064222B
:103340006148B0F8963190F95E0101935F4B80B20D
:103350001C680390A64602940020009340F2E634D5
:10336000574B4FEA400C33F910B0019BC3EB0B03F2
:1033700003F2F317A74203D8002BB8BF5B4201E06A
:103380004FF4FA7302282ED0029F97F811711FB1E3
:10339000BB42CCBFDB1B0023642493FBF4F84C4FEF
:1033A0006FF0630A37F818900AFB083A08F1010831
:1033B00037F918700FFA89F8C8EB070707FB0AF707
:1033C00097FBF4F7434C4F4424F80C7037183F79BF
:1033D00064247B43404F93FBF7F364339BB26B430E
:1033E00093FBF4F42CE0029C94F812711FB1BB42E1
:1033F000CCBFDB1B0023642493FBF4F4DFF8E490E0
:103400006FF0630808FB043A39F91470013439F994
:103410001440002BA4EB070404FB0AFA9AFBF8FA09
:10342000039CC7EB0A0A0AFB04FA2A4CB8BF5B42AA
:10343000A4F804A0B4796343274C93FBF4F46434F8
:103440009EF801306427634393FBF7F3DFF898801D
:10345000022808F800309EF80B30DFF8908004FB5B
:1034600003F393FBF7F308F800309EF8153004FBE4
:1034700003F494FBF7F7194B1F54164F184B0ED15A
:103480009A70019B9B450EDB0F4CB4F8982191423A
:103490002EDBB1F5FA6FA8BF4FF4FA6129E01D5495
:1034A000019B9B4504DA37F80C305B4227F80C305F
:1034B000013003280EF1010E7FF450AFE4E700BFA6
:1034C000F8300020B810002060110020901000207B
:1034D000922D0020581100200CFEFFFF741A0020CE
:1034E000F42A002010100020601A00201E10002076
:1034F0001146891A4FF47A735943C2F5FA62B1FB47
:10350000F2F1642391FBF3F2DFF820E36FF063063E
:103510003EF8120006FB021101323EF9122006B2FB
:10352000921B514391FBF3F30344FB80A84BA94D3D
:103530001B885A063BD5A84AA84B10881B88181A26
:1035400000B211F00FF9A64911F060F9064606F035
:10355000DBFE8046304606F065FE0646B5F9020001
:1035600011F000F98146B5F9000011F0FBF8414671
:10357000824611F04BF931468346484611F046F930
:103580000146584611F038F811F006FB41462880F4
:10359000484611F03BF931468046504611F036F965
:1035A0000146404611F02AF811F0F6FA68808D4D78
:1035B0002B689B076CD545F207218B4B8B4E1A6805
:1035C0007369D31A8B4263DD72610DF019FC884B6D
:1035D000DFF85C921A789846032AB9F8003020D1B7
:1035E0000A2B28D90023282088F800300DF057FD39
:1035F0000DF006FC7F4B18880DF0ECFB7E4B1A6833
:10360000D37890FBF3F0013008287C4BA8BF08204A
:103610001870537980B243433383137958437083CE
:1036200009E00A2B07D80323744A88F800300023E6
:1036300013703383738398F800306D4A012B0CD0DC
:1036400002D3022B1BD023E0328BB9F800309A4210
:103650001EDD012388F800300FE0B9F80010738BED
:103660008B4202DD022313700FE0604B1B8B013392
:10367000994202DD002313700AE0082006E0738BF4
:10368000B9F8002001339A42E3DC07200DF040FD39
:103690002D682E0573D5544B544E1B68F269C2EB4E
:1036A000030845F20722904569DDF361524BB7F9F3
:1036B00006B0D3F80090B4F84E1199F80A30ABF583
:1036C0007A7B012B4E4F03D042D3022B20D041E016
:1036D0004C4B316A5A7B4C4B082033F8122091FB3B
:1036E000F0F392B2C91A8B18336293FBF0F3B284F1
:1036F00040F6E4429BB25343B9F80820C2EB1333BF
:103700004FF47A725343B9F9062093FBF2F320E0A9
:103710003E4BB9F808A01B78C7F800A0580719D588
:103720003B480DF052FC20B915F0100F18BF4FF0B8
:10373000000B0BFB0BF3322293FBF2F3B9F90620DB
:103740005B445A434FF47A7392FBF3F3534400E023
:1037500000233B603B68D6E90A0103FB08F84FF4FD
:103760007A7398FBF3F810EB080041EBE871002343
:10377000C6E90A01274A11F055FA274B1860274E6F
:103780003368D90459D52A0654D5254B1B789B0795
:1037900050D5244B187804284CD90022224B0521FF
:1037A000D718951C4FF00A0E122AD154E9B287F8A7
:1037B00001E004D0B0EB510F2A46EFD800E014210D
:1037C0005A18322002F8010CFF225A540F2032E01E
:1037D000301A0020581100207E0F002050110020C8
:1037E00035FA8E3CBC300020AC3400201010002094
:1037F000B8190020E82C00205419002040000020B7
:1038000060190020D02C0020E02C0020C9340020BA
:10381000E8120020407E05006419002054100020AA
:103820006C19002072190020943000207A2D00209D
:10383000581900200A200DF06BFC8D4D2A68002AD3
:1038400056D08C4B8C4F18683968984681424FD8B7
:103850008A4BDFF834921878516808BB0120187041
:10386000B9F80030CB5C5BB31378013B00FA03F28C
:10387000D4F8EC371A4201D10DF030FC804B012214
:103880001A7010F031FCB9F80030CBB92B681B78F6
:10389000053B012B14D80DF0DBFB7A4B18600FE0D1
:1038A0004FF0000A83F800A0B9F80030CB5C3BB1C0
:1038B00050460DF013FC724B83F800A010F014FC7E
:1038C0002B68B9F800205B686F499B5CFE2B02D126
:1038D00000230B800CE0FF2B02D10DF005FC07E06C
:1038E000D8F800000A2505FB030301323B600A807B
:1038F000664D2B785F0703D5654B08225A613DE082
:103900003268D0075CBF43F001032B70614B1B781A
:1039100019075EBF2B7823F001032B70D30248BF39
:103920002B78574A44BF23F001032B705A4B1B6876
:1039300013F0040F02D05949098851B95849098830
:1039400009B19F0705D4574B1B88003318BF0123CB
:1039500033B1022313702B7823F001032B7004E0A2
:103960002978CE0758BF022313700DF071FB4E4B20
:103970001B68C01A002801DB10F0B6FB09F066FFD7
:103980004A4B1E780193002E00F0D580484E3368D4
:10399000002B00F04E8730680DF05CFC002800F032
:1039A0004887434B434C18680DF051FC092801D05F
:1039B0003F2850D14FF000094F46D4F800803E4DCB
:1039C000B8F1000F05D03D482968424614F08CF943
:1039D00010B9A94607B92F46394B10359D42EFD390
:1039E000C7B1D7F800E0D9F800C023681EF803502B
:1039F0001CF80300A8420DD15A1C304938B92D2BB0
:103A000005D82C4D2A602025CD54885402E0CD5491
:103A10002260EAE723680BB14F4511D029480FF027
:103A200023FB4F4507D857F8100B0FF01DFB09205B
:103A30000FF012FBF5E724480FF016FB4FF00008DB
:103A400023689845A7D21D4B13F808000FF004FB1C
:103A500008F10108F4E72368002B40F0CF86042822
:103A600040F00B8715480BF025FA00F0E2BE00BFCE
:103A7000B02D0020E0300020A82D0020A42D002033
:103A800094340020D0320020AC2D0020C934002016
:103A9000000C01406C19002068190020C03400207F
:103AA000BE2B0020C634002098340020CE340020E5
:103AB00090300020E82A002068B20108B82A0020CF
:103AC00048B4010884CA010889CA0108D8F800006E
:103AD000DFF884A30DF0BEFB18B3DAF800000DF098
:103AE000B6FBD9F80030834693F848208ABB2428D7
:103AF00068D1012283F84820D9F80030DFF854A3B8
:103B000093F848B0BBF1060FE0D193F8490000F0FC
:103B100045FF00287ED00FF0FFF93B68002283F8B4
:103B20004820CA4B93F83530002B40F055864C3670
:103B3000982E00F07E86C64BF21892F84A100129A2
:103B4000F5D1C44FF3583A60C34AB9461360904662
:103B5000BCE7012A04D14D2814BF00220222C9E784
:103B6000022A04D13C2814BF00220322C2E7032A00
:103B70000AD140284FF000029FBF1A71DA715871C4
:103B8000987198BF0422B5E7042A08D19A7983F87E
:103B9000490080EA020B83F806B00522AAE7052A4D
:103BA000AAD159791A799142997906D941409971E6
:103BB000511C1971134418729EE781420CBF0622F2
:103BC000002297E72B78A54A590795D42328DAF8DD
:103BD000003012D10292019A01211170A049A1482E
:103BE0000B609A490B630FF03FFA9F480FF03CFAC5
:103BF000029A137843F0020313709C4B1B681B78E6
:103C00005B4501BF9A4A9B4B1A609B4A04BF9B4B82
:103C1000DA6071E7DAF8002092F849304C2B00F0B6
:103C2000AC8400F28E80352B00F0878239D82B2BA4
:103C300000F07B8420D8252B00F0528404D8232B5D
:103C400000F0428200F015BE272B00F05084292B93
:103C500040F00F860FF03CF9A4F880010FF038F91E
:103C6000A4F882010FF02AF984F884010FF030F9EA
:103C7000A4F8860100F0ABBD2F2B00F01E8504D800
:103C80002D2B00F0568400F0F4BD312B00F02A8576
:103C9000332B40F0EE850FF011F984F8920100F01B
:103CA00096BD412B00F0A48418D8392B00F02C8449
:103CB00004D8372B00F0C88400F0DBBD3C2B00F0AB
:103CC000FF803E2B40F0D5850FF0F8F884F8E00136
:103CD0000FF0F4F884F8DF0100F079BD442B00F018
:103CE000358526D8432B40F0C4850FF0E7F8002334
:103CF000A36060710FF0F6F8A3681843A0600FF09E
:103D0000DDF884F890010FF0E3F8A4F858010FF003
:103D1000DFF8A4F85A010FF0DBF8A4F85C010FF00B
:103D2000D7F8A4F880010FF0D3F8A4F8820100F0CE
:103D30004EBD482B00F069834A2B00F0488500F007
:103D400098BDD12B00F08B8320D8CC2B00F0328291
:103D50000FD8C82B62D004D84E2B00F01B8400F083
:103D600088BDC92B00F05483CA2B00F0B88000F046
:103D700080BDCE2B00F03C83C0F03183CF2B00F010
:103D80006982D02B00F0208300F073BDD82B00F0A7
:103D900031810BD8D32B3BD027D3D42B00F09E827C
:103DA000D62B40F066854FF000088CE2F22B00F035
:103DB000E38212D8EF2B40F05C85DFF8CC80D8F896
:103DC00000900FF085F8A9F85A00D8F800800FF09D
:103DD0007FF8A8F8580000F0FABCF32B00F0BB8481
:103DE000FA2B00F00E8300F044BD2B7803F004039F
:103DF00003F0FF08002B40F0EA840FF05FF8022880
:103E000084F8BC0740F2E6821D4B83F8BC87E1E2F0
:103E10000FF05EF81B4B188000F0D9BC92F80580BB
:103E20004FEA5808B8F1120F03D909F0F3FB00F07C
:103E3000CEBC4FF00009C14528D20FF049F805ABC0
:103E400023F8190009F10109F5E700BF101000205F
:103E5000B0280020101A0020141A0020C9340020B5
:103E600090300020B9CA010889CA0108142A00202C
:103E7000EFBEADDEF04F00200400FA0500ED00E0DB
:103E8000601100207C0F002090100020424600238B
:103E9000434507DA05A931F81300BB4921F813009F
:103EA0000133F5E7122A05D0B74B002123F8121091
:103EB0000132F7E7B54B012283F8342000F087BCCC
:103EC000DFF8CC82D8F800900EF0F8FF89F80000F7
:103ED000D8F8003018780CF03FFB00F078BCAC4B01
:103EE0004FF000091A6898461278022A67D1D8F86C
:103EF00000A00EF0E3FF10F031FCA64910F03AFDEF
:103F000009F1080B4AF82B00D8F800A00EF0D6FFF4
:103F100009F10A030AEB830A10F020FC9E4910F015
:103F200029FDCAF80400D8F800A00EF0C7FF10F071
:103F300015FC9A4910F01EFD09F10E0B09F101095B
:103F4000B9F1030F4AF82B00D1D1B9F1070FD8F816
:103F500000A01AD10EF0B2FF10F000FC8D4910F055
:103F600009FDCAF84400D8F800A00EF0A7FF10F031
:103F7000F5FB884910F0FEFCCAF84800D8F800A00C
:103F80000EF09CFF8AF84C0012E00EF097FFCA4436
:103F90008AF80100D8F800A00EF090FFCA448AF811
:103FA0000B00D8F800A00EF089FFCA448AF815006B
:103FB00009F10109B9F10A0FC7D100F008BCD8F81E
:103FC00000A00EF07BFFCA448AF80100D8F800A0D8
:103FD0000EF074FFCA448AF80B00D8F800A00EF067
:103FE0006DFFCA4409F10109B9F10A0F8AF81500F9
:103FF000E5D1ECE38046DFF8989108F1080BD9F899
:1040000000A00EF065FF10F0A9FB644910F0B2FCAF
:104010004AF82B00D9F800A00EF05AFF08F10A0365
:104020000AEB830A10F09AFB5C4910F0A3FCCAF873
:104030000400D9F800A00EF04BFF10F08FFB574999
:1040400010F098FC08F10E0B08F10108B8F1030F0D
:104050004AF82B00CFD1B8F1070FD9F800A01AD138
:104060000EF036FF10F07AFB4C4910F083FCCAF8D2
:104070004400D9F800A00EF02BFF10F06FFB474969
:1040800010F078FCCAF84800D9F800A00EF020FF24
:104090008AF84C0012E00EF01BFFC2448AF80100BF
:1040A000D9F800A00EF014FFC2448AF80B00D9F82A
:1040B00000A00EF00DFFC2448AF8150008F10108B7
:1040C000B8F10A0FC7D182E30EF0F8FE132882463A
:1040D0003FF6ABAEDFF8B890D9F800800EF0EEFEF8
:1040E00000232F490C2202FB0312117A814220D1B6
:1040F000137808EB8A0888F879300EF0DFFE88F82C
:104100007A000EF0DBFE88F87B000EF0D7FE254A21
:10411000254B88F87C001A60D9F80000234B002159
:10412000186079300CF040FF214B80F001001870CE
:104130004DE301331C2BD4D177E60EF0BFFE0B28E4
:1041400080463FF672AE124BD3F800900EF0B6FEEA
:1041500003283FF66AAE0BFB089B8BF8CE000EF0EF
:10416000ADFE8BF8C9000EF0A9FE8BF8CA000EF068
:10417000A5FE8BF8CB000EF0A1FE8BF8CC000EF064
:104180009DFE8BF8CD0022E3983300201010002014
:1041900090100020000020410000C84200007A4436
:1041A0001CA80108A0120020740F0020780F002026
:1041B000060000205379092B7FF637AEDFF87C84A8
:1041C000D8F800900EF07AFE89F80000D8F8009038
:1041D0000EF074FE89F801000EF070FED8F8003081
:1041E0006428A8BF642018710EF068FED8F800306B
:1041F0006428A8BF642058710EF060FED8F8003023
:10420000FF28A8BFFF2098710EF058FED8F8009044
:10421000642828BF642089F807000EF04FFE89F853
:104220000200D8F800900EF049FE89F80300D8F893
:1042300000900EF04DFEDAF80030A9F80A005B7924
:104240000A2B40F2C482D8F800800EF037FE88F8BE
:104250000900BCE20EF03CFE6FF4AF6283189BB223
:10426000C62B98BFA4F896010EF032FEA4F84001C8
:104270000EF02EFEA4F842010EF02AFEA4F844012E
:104280000EF026FEA4F8D8010EF018FE84F8F30113
:104290000EF014FE0EF012FE84F8F4010EF00EFE85
:1042A00084F885010EF00AFE84F892010EF006FEF5
:1042B000D64BD3F800800EF00BFE00EB80004000E0
:1042C000A8F8560020E10EF003FED14B23F81800A9
:1042D00008F10108B8F1080FF5D178E253790F2BF6
:1042E0007FF4A3AD0EF0EAFD072880463FF69DADB2
:1042F000009BD3F800900EF0EBFD0E2303FB08F8B3
:10430000009BC144A9F81901D3F800900EF0E0FD1C
:10431000C144009BA9F81B01D3F800900EF0D8FD12
:10432000C144009BA9F81D01D3F800900EF0C6FD12
:10433000C144009B89F81F01D3F800900EF0BEFD28
:10434000C144009B89F82001D3F800900EF0B6FD1F
:10435000C144009B89F82101D3F800900EF0AEFD16
:10436000C144009B89F82201D3F800900EF0BAFDF9
:10437000C844C8F823012AE20EF0A0FD0F288046A9
:104380003FF653AD0EF09AFDC8EBC808A04488F87C
:10439000D0000EF093FD88F8D1000EF08FFD88F864
:1043A000D2000EF08BFD88F8D3000EF087FD88F860
:1043B000D4000EF083FD88F8D5000EF07FFD88F85C
:1043C000D6000DF04DF902E22B785B0700F1FF817A
:1043D0000DF05CFE05F0F4FF06F0BCF8F7E12B7879
:1043E000580700F1F4818B4B4FF4C8721A80EEE14C
:1043F0002B78590700F1EB81874A137843F00403C7
:104400002BE02B785A07E5D533E208F089FBDEE193
:104410000EF054FD804B1A7810B142F0020201E018
:1044200022F002021A700EF049FD7C4BDFF8108278
:1044300018700EF057FDC8F800000EF053FDC8F8D4
:1044400004000EF045FD764B18800EF041FD754BD3
:10445000754A1880137843F002031370B7E10EF029
:104460002DFD83460EF03EFD82460EF03BFD81465B
:104470000EF038FD80460EF02BFD0EF029FD0EF0FB
:104480001DFDBBF1000F14D1684B1020C3F800A034
:10449000C3F8049005F042FF5F4A137843F001032C
:1044A0001370B8F1000F00F09281614BC3F80080E7
:1044B0008DE1BBF1100F40F08A815E4BC3F800A084
:1044C000C3F80490B8F1000F02D0594BC3F8008034
:1044D0005848594B0222011D1A7008F0EBF876E19A
:1044E000A0600EF0FFFCA3681843A0606FE10EF01F
:1044F000EFFCA4F858010EF0EBFCA4F85A010EF002
:10450000E7FCA4F85C0162E10EF0D8FC84F87A01C3
:104510000EF0D4FC84F87E010EF0D0FC84F87D010E
:104520000EF0CCFC84F87F0151E10EF0C7FC607105
:104530004DE10EF0C3FC84F890010EF0C9FCA4F824
:104540009A010EF0C5FCA4F896010EF0C1FCA4F887
:1045500098010EF0B3FC3B6884F891015B79DFF8B9
:10456000E480082B40F233810EF0B2FCA8F89C01E5
:104570000EF0AEFCA8F89E0129E10EF09FFC84F835
:10458000D6010EF09BFC84F8D7010EF0A1FCA4F834
:10459000D8011CE192F805800323B8FBF3F8B8F1C9
:1045A000120F3FF642ACDFF89C904FF0000AC24574
:1045B00080F00D810EF082FC89F8A0010EF088FCDD
:1045C00040F2ED23984205DD40F6CA039842A8BFA9
:1045D000184601E040F2EE20A0F2EE20192390FBF5
:1045E000F3F00AF1010A89F8A10109F10209DEE7F5
:1045F00080460EF063FC04EB080308F10108B8F1F3
:10460000080F83F88801F4D1E1E000BF901000208A
:1046100076300020BE2B00206C190020721900207B
:10462000701900206E190020BE100020C01000205C
:10463000D0100020C8100020800F0020B8100020EB
:10464000741900206011002053794FF00709B3FB63
:10465000F9F9C9EBC9029B1A13F0FF0F7FF4E5AB20
:104660005FFA89F909F1FF395FFA89F9B9F1FF0FAA
:1046700000F0AD800EF022FC5FFA80FA4FFA8AF06B
:1046800003F030FB804600283FF4CFAB80F800A059
:104690000EF01EFCA8F802000EF010FC88F80400D2
:1046A0000EF00CFC88F805000EF008FC88F80700F6
:1046B0000EF004FC88F80600D4E7DFF8DC8208F18D
:1046C00040090EF005FCA8F8B4020EF0F7FB88F8DC
:1046D000B6020EF0F3FB08F1040888F8B302C845EF
:1046E000EFD174E00EF0EAFB1F2880463FF69DAB49
:1046F0003B685B79082B7FF498AB0EF0E9FB08F17F
:104700008C0804EB880800F03F00A8F806000EF0C3
:10471000DFFBB8F80630800100F4FE501843A8F81B
:1047200006000EF0CBFB000188F804000EF0C6FB7B
:1047300098F8043000F00F00184388F804000EF0D9
:10474000BDFB88F805000DF0A7F840E07D4B012285
:1047500083F835203BE00EF0B1FBFF28814622D1E3
:1047600000238DF813309DF81330052B14D89DF8D5
:104770001300754A9DF81330012102EBC3035B68F7
:1047800052F83000994089B2482203F083F99DF82D
:1047900013300133DBB2E4E76C484FF4805104225C
:1047A00003F078F913E005283FF63FAB00200EF048
:1047B000D7FB0EF0B1FBD8F800000CF042FD18B9A1
:1047C00032200CF06CFCF6E7484603F071F900204B
:1047D0000EF0C6FBFFF79FB95D4B98590CF031FD09
:1047E00018B932200CF05BFCF6E70CF0F9FE05F08E
:1047F000BDFD584A584BDA60FFF799B90C283ED0F6
:104800000A2845D1554D56480EF02EFC2846232146
:1048100013F053FA08B1401B20602368002B5AD1D3
:104820004E4800213022236013F011FA019B1B78BF
:1048300043BB4C4B1B689B0614D54B4B41491B6833
:104840008A6B9A1A002A0DDB484A1278042A09D981
:1048500003F5123303F5F873454A8B63D36883F08D
:104860001003D360434B9B68002B67D042489847A6
:1048700064E008F0CFFEFFF74EB90C2804D13F48A2
:104880000EF0F2FB3E480DE07F2812D1FFF783B80F
:104890000D28B7D07F2809D1304A013B0021394883
:1048A0002360D1540EF0E0FBFFF775B82F2B3FF6D5
:1048B00072A8A0F12002D2B25E2A3FF66CA813B90A
:1048C00020283FF468A85A1C2260244AD0540EF0D5
:1048D000C3FBFFF760B85A1EA95C202901D113461B
:1048E0009CE71E4A00212360D154274B274DD3F863
:1048F0000090D5F800A0DFF86480504613F0EBF983
:10490000074651463A46404613F0EEF9204A28B988
:1049100018F807304B445B78580703D010359542A0
:10492000E7D306E0954204D2781CEB6840449847F0
:1049300002E018480EF098FB002371E70FB0BDE8C5
:10494000F08F00BF10100020ECCD010800080140DE
:10495000B02800200400FA0500ED00E0B82A00208D
:10496000D6D9010868190020AC3400207219002043
:10497000000C0140602900204C1000208ECA010864
:1049800089CA0108B5CA01085400002068B20108AC
:1049900048B4010899CA0108601100202DE9F047C8
:1049A0004B28A0B0044600F03F8600F2B2803028C9
:1049B00000F0CA8651D8222800F08B8423D803281F
:1049C00000F05E8114D8012800F04E81022840F0EA
:1049D000268704200EF0C4FA43200EF08CFA4C20F7
:1049E0000EF089FA46200EF086FA4C2000F050BEF8
:1049F000042800F04F81052840F011871A200EF09E
:104A0000AFFA002459E1282800F0DC8515D82428C5
:104A100000F0C385262840F00287B44C06200EF033
:104A20009FFAB4F858010EF09EFAB4F85A010EF04D
:104A30009AFAB4F85C0100F0ADBD2C2800F0D585E1
:104A40002E2800F050862A2840F0E98601200EF03A
:104A500087FAA64B587900F01BBE3D2800F0F8827B
:104A60001ED8362800F025860BD8322800F00A869A
:104A7000342840F0D48648200EF072FA002500F069
:104A80004ABC3A2800F0B8823B2800F01B84382842
:104A900040F0C58604200EF063FA944C00F083BD0C
:104AA000452800F0A98627D8402800F0F485422840
:104AB00040F0B5868D4C10200EF052FA60790EF061
:104AC0001AFAA0680EF058FA94F890010EF013FA52
:104AD000B4F858010EF047FAB4F85A010EF043FA50
:104AE000B4F85C010EF03FFAB4F880010EF03BFA26
:104AF000B4F8820100F04EBD472800F05B86C0F09C
:104B00004886492840F08B8602200EF029FA784B1F
:104B1000CAE2702800F0F28258D8692800F04D826D
:104B20002AD8652800F0008115D84D2800F08B8523
:104B3000642840F0748607200EF012FAE7200EF089
:104B4000DAF96A4B58790EF0D6F900200EF0D3F955
:104B5000042000F060BE672800F0B28100F22082DD
:104B600012200EF0FDF9634B00241B88B3F5806F13
:104B70008CBF0825012586E16C2800F0318217D80A
:104B80006A2800F08D846B2840F0498605200EF0DD
:104B9000E7F9594B18880EF0E6F9584B18880EF0D3
:104BA000E2F9574B93F86E0000F0010000F070BD81
:104BB0006E28534D00F0278200F2788206200EF016
:104BC000CFF9E86D0EF0D8F94E4B6DE2782800F081
:104BD000848119D8742800F0BF830BD8722800F0A4
:104BE0001F84732840F01B8608200EF0B9F90124B9
:104BF00000F04FBC762800F0738400F2F1832F2080
:104C00000EF0AEF9404C55E3A42800F08F8414D880
:104C10007B2800F0F582A02840F001860C200EF0E1
:104C20009FF93A4B18680EF0A7F9394B18680EF047
:104C3000A3F9384B186800F0EEBDF12800F0898127
:104C4000FE2800F09A84F02840F0E9852C4C0420DE
:104C50000EF086F9236CB3F85A000EF084F9236C39
:104C6000B3F8580000F096BC03200EF079F900204C
:104C70000EF041F920460EF03EF90D2000F008BD7F
:104C80000EF06EF901200EF036F90A200EF033F91D
:104C900000F04ABC06200EF063F941200EF02BF91B
:104CA00046200EF028F94E200EF025F941200EF096
:104CB00022F9194B187800F06DBC184B185D0134BF
:104CC0000EF019F90B2CF8D10024154B185D0134A6
:104CD0000EF011F9082CF8D10024124B185D0134A4
:104CE0000EF009F9072CF8D100F097BD60110020F3
:104CF000002A002018000020E6190020E8190020F2
:104D00005010002048110020EBA70108E8F7FF1F12
:104D1000ECF7FF1FF0F7FF1FCB340020B0C70108EE
:104D2000BCC7010891C70108CF4C0B200EF018F941
:104D300020880EF018F9608880B20EF014F9CB4B81
:104D40001B68C3F3C000C3F38002800040EA420046
:104D5000C3F340021043C3F3401240EAC20003F021
:104D6000100318430EF0FFF8C14B1A88636802F075
:104D7000080103F4475949EA010903F4804149EA6B
:104D8000010903F4004149EA010903F4803149EAC9
:104D9000010903F4003149EA010903F4802149EAD9
:104DA000010903F4002149EA010903F4801149EAE9
:104DB000010903F0007349EA0303DFF8E89212F0F7
:104DC000010F99F8009018BF4FF00208C9F380094D
:104DD00008BF4FF0000843EA090312F0020F43EA4C
:104DE000080314BF4FF0040C4FF0000C12F0040F36
:104DF00043EA0C0C14BF4FF0100E4FF0000E12F0EF
:104E0000400F14BF202700274CEA0E0E12F0100F9F
:104E100014BF4FF4007600264EEA070712F0200F69
:104E200014BF4FF4806500253E4312F4807F14BF09
:104E30004FF400600020354312F4007F14BF4FF49C
:104E400000110021284312F4806F41EA000114BFD1
:104E50004FF080630023002019430346247AA342C5
:104E60000AD2844A9D5C012202FA05F50D421CBF5C
:104E70009A4010430133F2E70EF07EF87E4B93F830
:104E8000BC0700F005BC7D4B33F91400013490FBE6
:104E9000F5F080B20EF067F8032CF4D1724CA08CC0
:104EA0000EF061F8E08C0EF05EF8208D0EF05BF8ED
:104EB000608D0EF058F8A08D0EF055F8E08D69E386
:104EC00010200EF04DF800246D4B185D01340EF0EB
:104ED00012F8102CF8D100F0A0BC70200EF040F8B1
:104EE00000260E247443604D01362B6C2344B3F826
:104EF00019010EF038F82B6C2344B3F81B010EF0A7
:104F000032F82B6C2344B3F81D010EF02CF82B6CF7
:104F1000234493F81F010DF0EEFF2B6C234493F80C
:104F200020010DF0E8FF2B6C234493F821010DF0D4
:104F3000E2FF2B6C234493F822010DF0DCFF2B6C75
:104F40001C44D4F823010EF017F8082EC9D100F044
:104F500064BC70200EF004F8474C04F1700594F81E
:104F6000D0000DF0C8FF94F8D1000DF0C4FF94F804
:104F7000D2000DF0C0FF94F8D3000DF0BCFF94F800
:104F8000D4000DF0B8FF94F8D5000DF0B4FF07344D
:104F900094F8CF000DF0AFFFAC42E0D100F03DBC83
:104FA00010200DF0DDFF0024364B185D01340DF0AC
:104FB000A2FF102CF8D100F030BC334D002428782B
:104FC000400000F0FE000DF0CBFF2B789C4280F0FB
:104FD00024842E4B33F814000DF0C5FF0134F4E7A0
:104FE0002B4C06200DF0BCFF20880DF0BCFF608824
:104FF0000DF0B9FF274B57E004200DF0B1FF1A4B1D
:10500000186E00F008BC07200DF0AAFF224B18888C
:10501000FF28A8BFFF20C0B20DF06DFF1F4B18681E
:1050200080F3100080B20DF09EFFB5F864000DF023
:105030009AFF114B93F88521194B186822B10A2366
:10504000584380F3100001E000F30F0080B2A1E2AA
:10505000094C02200DF084FF94F8E0010DF04BFFA5
:1050600094F8DF0114E300BF5010002068190020FD
:10507000301A002059100020601100204211002039
:1050800080100020941000204C290020F8300020CF
:10509000B43000205011002058190020641900205D
:1050A00060190020C9340020188873E20B200DF02D
:1050B00057FFAB6E002618780DF01DFFAB6E5878C9
:1050C0000DF019FFAB6EC14C3344187901360DF069
:1050D00012FF032EF6D1A36ED8790DF00CFFA36E4C
:1050E00098780DF008FFA36ED8780DF004FFA36E3A
:1050F00058890DF038FFA36E587AC9E2B34C1E20D0
:105100000DF02EFF236C00251B78022B65D1236C3C
:1051100005F1080253F82200AD490FF077FB12F0B9
:10512000D9FF80F30800C0B20DF0E5FE236CA94959
:1051300003EB8503D86A0FF069FB12F0CBFF80F315
:105140000800C0B20DF0D7FE236C05F10E0253F833
:105150002200A1490FF05AFB12F0BCFF80F30800B7
:10516000C0B201350DF0C7FE032DD0D1072D236C41
:1051700021D1586C96490FF049FB12F0ABFF80F338
:105180000800C0B20DF0B7FE236C9149986C0FF087
:105190003DFB12F09FFF80F30800C0B20DF0ABFEA4
:1051A000236C93F84C000FF0D9FA12F093FF80F3C0
:1051B0000800C0B20BE02B4458780DF09CFE236C25
:1051C0002B44D87A0DF097FE236C2B44587D013583
:1051D0000DF091FE0A2DC9D11FE3236C2B445878A2
:1051E0000DF089FE236C2B44D87A0DF084FE236CDD
:1051F0002B44587D01350DF07EFE0A2DEDD10CE3D8
:105200003C200DF0ADFE0024704D04F108022B6C23
:10521000714953F822000FF0F9FA12F05BFF80B2E7
:105220000DF0A1FE2B6C6C4903EB8403D86A0FF0E0
:10523000EDFA12F04FFF80B20DF095FE2B6C04F1E9
:105240000E0253F8220064490FF0E0FA12F042FF18
:10525000013480B20DF087FE032CD5D1072C2B6CC6
:1052600016D1586C5C490FF0D1FA12F033FF80B2BE
:105270000DF079FE2B6C5849986C0FF0C7FA12F0BC
:1052800029FF80B20DF06FFE2B6C93F84C000BE001
:10529000234458780DF067FE2B6C2344D87A0DF028
:1052A00062FE2B6C2344587D01340DF05CFE0A2C09
:1052B000D4D1B2E214F8010F002800F0AE820DF054
:1052C0001AFEF7E701200DF04BFE404B1B6C1878DF
:1052D000DEE150200DF044FE00253C4B0C211C6CFF
:1052E0003E4B04EB850494F87920013501FB023331
:1052F00093F838000DF0FFFD94F87A000DF0FBFDF7
:1053000094F87B000DF0F7FD94F87C000DF0F3FDB0
:10531000142DE2D181E22D4B1C6C062303FB0544C6
:1053200094F8CE000DF0E7FD94F8C9000DF0E3FD10
:1053300094F8CA000DF0DFFD94F8CB000DF0DBFD12
:1053400094F8CC000DF0D7FD013594F8CD000DF0A8
:10535000D2FD0C2DDFD160E24FF0000801260027BE
:105360001A4B1A7A974227DA0933FA5C00240C2385
:1053700063431A4D05F13001595C914207D12B442A
:10538000586B12F0A8FC82462EB9B14605E00134F4
:105390001C2CECD10EE080440CE0D1450ADA0C2341
:1053A00003FB04535B6B13F809000DF0A4FD09F136
:1053B0000109F2E70137D3E7002E00F02E825FFAF1
:1053C00088F00DF0CDFD0026C9E700BF5010002089
:1053D000000020410000C84200007A44ECA7010808
:1053E000CC4D0024287A0DF0BBFD2B7A9C4280F036
:1053F0001482C94B0021E65C0C2202FB01F3C74872
:1054000000F13007DA5DB24205D1034493F8380069
:105410000DF071FD02E001311C29EDD10134E4E70A
:10542000BF4C16200DF09CFDB4F896010DF09BFDCD
:10543000B4F840010DF097FDB4F842010DF093FD72
:10544000B4F844010DF08FFDB4F8D8010DF08BFDD8
:1054500094F8F3010DF04FFD00200DF04CFD94F891
:10546000F4010DF048FD94F885010DF044FD94F829
:1054700092010DF040FD00200DF03DFDA54B0A20EE
:105480001B6CB3F9563093FBF0F080B20DF06BFD5E
:1054900089E0E0B201340DF02EFD092CF9D1BCE118
:1054A00010200DF05DFD9F4B9F4C187800F002001E
:1054B0000DF021FD9D4B18780DF01DFD20680DF0BD
:1054C0005BFD60680DF058FD994B18880DF04BFDA1
:1054D000984B18880DF047FD8E4BB3F86C0059E0DF
:1054E0000DF0ECFC074612200DF03AFD894C17B97F
:1054F000266F656F05E0102F19BF00252E46A66F99
:10550000E56F38460DF0F7FC30460DF035FD2846C6
:105510000DF032FDD4F880000DF02EFD00200DF0CE
:1055200022FD00200DF01FFD0020B1E0794D002488
:1055300095F884002E4680000130C0B20DF010FDB9
:1055400095F884000DF0D7FC96F884309C4280F0EA
:105550006481794D285D0DF0CEFC05F11003185DD6
:105560000DF0C9FC05F12003185D30350DF0C3FCCA
:10557000285D0DF0C0FC0134E6E708200DF0F0FCDA
:1055800000200DF0F0FC00200DF0EDFC00200DF0EF
:10559000EAFC00200DF0E7FC3FE104200DF0E0FC08
:1055A0005F4B986837E194F87A010DF0A4FC94F809
:1055B0007E010DF0A0FC94F87D010DF09CFC94F8A8
:1055C0007F0165E0564C07200DF0CAFCB4F880015D
:1055D0000DF0C9FCB4F882010DF0C5FC94F884010B
:1055E0000DF089FCB4F88601D4E74D4C0C200DF089
:1055F000B7FC94F890010DF07EFCB4F89A010DF020
:10560000B2FCB4F896010DF0AEFCB4F898010DF0C0
:10561000AAFC94F891010DF06EFCB4F89C010DF019
:10562000A2FCB4F89E01B5E73D4C04200DF098FCB7
:1056300094F8D6010DF05FFC94F8D7010DF05BFCF7
:10564000B4F8D801A6E73D4C3D4D2078002600EB8C
:105650004000C0B20DF084FC237802359E4280F0F9
:10566000DC8015F8020C0DF046FC15F8010C013633
:1056700000EB800000EB800000F2EE2080B20DF025
:1056800072FCE9E701200DF06BFC254B93F89201C9
:105690000DF031FCC1E008200DF062FC0024204B2D
:1056A000234493F8880101340DF025FC082CF6D131
:1056B000B3E0184B1A4C93F8C50004F12805C0EB71
:1056C000C000C0B20DF04CFC94F8FA0100231D4A52
:1056D000D25C904200F0A5800C333C2BF7D108340B
:1056E000AC42F1D199E040200DF03AFC0C4C04F1B1
:1056F0004005B4F8B4020DF036FC94F8B6020DF093
:10570000FAFB043494F8B3020DF0F5FBAC42F0D18F
:1057100083E000BF5010002059100020ECA70108C2
:10572000601100206C1900207419002072190020EB
:10573000701900206E190020D51000204C2900207F
:10574000001300201C2A0020E0200DF009FC424C30
:1057500004F18005B4F83602043400F03F000DF087
:1057600002FCB4F83202C0F386100DF0FCFB94F892
:10577000300200090DF0BFFB94F8300200F00F007A
:105780000DF0B9FB94F831020DF0B5FBAC42E1D15C
:1057900043E0324C0D200DF0E3FB08F0D7FF0DF095
:1057A000AAFB20880DF0E8FBE0680DF0E5FB07F0B0
:1057B000BFF830E00DF096FB054684200DF0D0FBDD
:1057C00028460DF0D9FB254BDC6805F18003A34288
:1057D0008CBF641B802407F065F928462246694681
:1057E00008F0E8FF05460024AC4216DA1DF8040074
:1057F0000DF081FB0134F7E713200DF0B1FB00241D
:10580000174B185D01340DF076FB0B2CF8D10020FE
:105810000DF0B2FB00200DF0AFFB012018E00020DE
:1058200016E00DF068FBB4F8FC010DF09CFB94F859
:10583000FE010DF060FB94F8FF010DF05CFB94F8A5
:1058400001020DF058FB94F800020DF054FB46E7FE
:1058500020B0BDE8F08700BF6011002008000020E4
:10586000B0C701086B4B6C4A2DE9F04F5E89146894
:105870004FEA062AB4EB0A0A9C884FF000054FEA6B
:1058800004481C894FF0000BA4FB0A6765EB0B0B67
:1058900004FB0B77F40944EA476418EB04065C88C0
:1058A0004FF000094FEAE7154FEAC438DC8849EBAE
:1058B000050787B0CDE90467A4FB0A6704FB0B77F3
:1058C000340A44EA076418EB04064FEA27259C894A
:1058D0004FF0000949EB0507CDE90067AAFB046713
:1058E00004FB0B77F40D44EA472414F5FA664FEAFB
:1058F000E75545F10007B6F5FA6F77F10003CDE9FA
:105900000267964666DADDE90489A4FB046704FBB6
:1059100005F34FF0050C07EB4307A6FB0C230CFB2C
:1059200007335F104FEA3206B8EB06084FEA9206DB
:1059300046EA837669EB07099F10DDE90023921B95
:1059400063EB0703CDE90023DDE90267334A4FF03B
:10595000FF33964277EB0303CDE9048927DA40F65B
:10596000AC520023A4185D4104FB05F3A4FB0445DD
:105970006FF0060205EB4305664202FB0566A4FBD9
:105980000223334418EB020649EB0307CDE9046711
:105990000B26A4FB062306FB0533DDE900455B105F
:1059A0004FEA3202A41A65EB0305CDE90045DDE9B3
:1059B00002450AFB0BF3AAFB0AAB0BEB430B4FEAC6
:1059C000DA7242EA4B02A41A4FEAEB7365EB030565
:1059D000CDE90245DEF80440009B019DA4FB0323B2
:1059E00004FB05334FEA525848EAC3284FEA63598B
:1059F000DDE90423B8EB020269EB03039946D30BFC
:105A000043EA494300B1036009B1029B0B6007B050
:105A1000BDE8F08F802900201811002024FAFFFF34
:105A20002DE9F04FDFF8589285B00746D9F8080005
:105A30000E460EF097FE8E4C804620880EF08EFEAD
:105A40004FF05C51054640460EF0E0FE4FF06451C9
:105A5000824628460EF0DAFE014650460EF0CCFD96
:105A60004FF06251824640460EF0D0FE4FF06A5130
:105A7000804628460EF0CAFE014640460EF0BCFDA8
:105A80000546B4F902000EF06DFE014628460EF000
:105A9000BDFE5146054650460EF0B8FE8046B4F9AC
:105AA00004000EF05FFE014640460EF0AFFE0146D8
:105AB00028460EF0A3FD80460FF06EF86D490546AE
:105AC000A06140460EF056FFD9F80C3080462846BB
:105AD00001930EF047FE4FF07C510EF097FE6649A1
