:020000040800F2
:1000000000500020F92F0108A5300108CD19010882
:10001000A5300108A5300108A53001080000000046
:10002000000000000000000000000000A5300108F2
:10003000A530010800000000A53001089D19010845
:10004000A5300108A5300108A5300108A530010838
:10005000A5300108A530010819AB000815AB000850
:10006000A5300108A5300108A5300108A530010818
:10007000A5300108A5300108D5AA0008A53001085F
:100080001DAB0008A5300108A5300108A530010806
:10009000A5300108A5300108A530010811AB000802
:1000A000A530010891AA0008A5300108A1AA0008FE
:1000B00081AA000871AA000861AA000859AB0008CB
:1000C00051AB000855AB00084DAB0008A530010846
:1000D000A5300108C9AA0008BDAA0008B1AA0008F5
:1000E000AD190108A5300108A53001080000000085
:1000F0000000000000000000000000000000000000
:0C01000000000000000000005FF808F1A3
:100110002DE9F04F754B764EA3B03360002373602A
:1001200008F09CFA18B90AF0AFF908F0BBFA11F020
:10013000F1F9704B704C1A78704D42F001021A7050
:1001400000230A930B930C934FF4E0130D93236851
:10015000297B43F480332360A36943F01003A36138
:10016000236803F400330B930A9B01330A930B9B20
:100170001BB90A9BB3F5A06FF2D122685E4B12F453
:10018000003201D0022315E0186840F00100186029
:100190000A92236803F002030B930A9B01330A932C
:1001A0000B9B1BB90A9BB3F5A06FF2D123689F0785
:1001B00039D501230C93524B52481A6842F0100271
:1001C0001A601A6822F003021A601A6842F00202EA
:1001D0001A606368636063686360636843F48063A4
:1001E0006360494B1A68043B22F070425A60474AE8
:1001F0001060606820F47C106060586840F0004037
:100200005860D86820F40040D8609B68180449BF43
:100210003F4B4FF4E01313604FF480130D930C9B8E
:10022000012B01D117E0FEE7022B18D169B10D9B1C
:10023000B3F5801F02D14FF4A01305E00D9BB3F579
:10024000E01F02D14FF400130D9361680D9B0B4327
:1002500043F4803302E0636843F46013636023680F
:1002600043F0807323602168234B8901FBD55968D3
:1002700021F003015960596841F002015960636837
:100280001D4903F00C03082BF9D14868214B00F0FD
:100290000C00042803D0082804D01A4900E0116893
:1002A000196011E048684F68C0F38340FF0300F114
:1002B000020001D4184905E0496811F4003F1168B3
:1002C00018BF49084843186061681448C1F3031116
:1002D000014491F81890196821FA09F9C3F80090BF
:1002E0001368084A93421BD101221DE0B56600083D
:1002F000C800002004310020001002404C080020FB
:100300000020024000127A0004100140000000208A
:10031000001BB7004C00002000093D009078010848
:10032000644A934202D10222634B1A70DFF8B8B1DB
:10033000624B22AFCBF80C30A369DFF8A88143F001
:100340000103A361636ADFF898A1B360636A4FF0A9
:10035000000043F080736362A36943F01C03A36150
:100360004FF6FF7327F82C3D39468DF85E00404666
:10037000069711F078F85046069911F074F8504835
:10038000069911F070F802234FF0100C22A98DF895
:1003900043304FF4007321F8483D8DF842C0404689
:1003A000C8F81030CDF808C011F05DF8454B06983C
:1003B0005A6842F000725A6005F060FC424A179B8E
:1003C0000021B3FBF2F341481822F36014F048FF18
:1003D0004FF47A723E4BB9FBF2F909F1FF325A60E1
:1003E000F0228BF823200020072298601A60AB6867
:1003F000DFF8F890DDF808C0C9F80030354BDFF8B9
:10040000F0B00FCB87E80F00A369179843F00803FB
:10041000A361A36918A943F00803A3610823CAF8DC
:100420001030CAF810C011F01EF819981AA911F06E
:100430001AF8D9F800301F0760D59BF89031012BCE
:100440005CD8254B9BF891219B6813F0805800F0F5
:100450008C860027002F51D0204B214F18684FF079
:10046000100AC7F814A0069917901E4810F0FBFF59
:100470001C4908230B613C2006F031F8C7F810A096
:100480004FF0000A95F891319A4533DA154ADFF8B2
:1004900050B00827CBF810707820576106F014F898
:1004A000104BCBF8147078201F6106F00DF80AF19C
:1004B000010AE7E7001BB7002C3100200005FA0510
:1004C000001001400000014040420F00EC300020CD
:1004D00010E000E0B8780108C8000020C8780108E2
:1004E000000C01400008014000ED00E084060020FF
:1004F0004C080020B8F1000F00F03E86642005F0A3
:10050000EEFFA0229648002114F0AAFEE369002223
:1005100043F00703E361A36943F4006343F00C0372
:10052000A361904B002403F11001545401320E2AB0
:10053000F7D1FF229A77DA7783F8202083F82120F9
:10054000894B8A4AD9F800701A60214688483C22B3
:1005500014F086FE07F04008052321460C20854A4A
:1005600048438C5C824A8454B8F1000F06D11E3C8B
:10057000012C03D8FF24013B8454DBB2013105294F
:10058000ECD17D497D4A7162C0311370B1626A79E4
:100590007B497C4B01EBC20149781A70B806714B5C
:1005A00048BF0121D9620023774940F2DC505852FC
:1005B0000233102BF8D1012A40F0AE80734B0A3180
:1005C0001F68734BB7F90C001A68724B46321A60F9
:1005D000714BDFF8FC81196011F0E8FE6F4911F0F2
:1005E000EDFF7B89DFF8EC91A8F80030FB8901462C
:1005F000A9F800306A4B30631F60044611F02AFFEF
:100600004FF07E5111F01EFE15F0E0FB4FF07E51D1
:1006100011F018FE214611F0D1FF15F031F86149B3
:1006200011F018FF12F0DCF85F4BB9F80070188079
:1006300038B211F0BBFE5D4911F00CFF12F0D0F89A
:100640005B4BB8F800C018805A4B4FF4C8781F8035
:10065000CCF561739BB207930CF5617C0027564B78
:100660001FFA8CFCB9460FFA88FB58460393CDF865
:1006700008C011F09BFE494911F0A0FF4F4911F04D
:10068000E9FE824615F012F901465046059115F033
:1006900085F902465046049207F09AFF0599824672
:1006A00004F1004011F0D6FE049A114611F0C8FD85
:1006B000434911F0CFFE514611F0CCFE12F090F8F4
:1006C0000799039B0AB280B2934523F8020FDDF825
:1006D00008C010DB0FFA8CF293450CDC00B20FFA65
:1006E00089F93FB24845B8BF8146B842A8BF07461E
:1006F0001FFA89F9BFB208F10A081FFA88F8B8F59D
:10070000AF6FB0D10FFA89F9C9F100093FB22D4B93
:10071000B945B8BF4F461F8010A800211C2214F015
:100720009FFD294B294F1C6814F4007904F40068DC
:1007300052D0A3040DD4B8F1000F08D095F884214D
:1007400007F10C03012A18BF3B46079304E0079703
:1007500002E007F10C02079217AB16933EE000BFD0
:1007600078290020C8000020801C0020400A0020BA
:10077000E41C0020CC9901085C080020E21C002049
:10078000B49A01083A1200206C13002030120020A5
:100790007C1300203C120020401200200000204169
:1007A000041500200000A041461200209999993EAE
:1007B00044120020481200201214002035FA8E3C0A
:1007C00000007A441214002084060020907801086A
:1007D0004A12002008150020CDF81C906B790E2BD2
:1007E00003D003F0EF03082B02D101238DF8523020
:1007F000012005F059FD18B14088003018BF0120D4
:10080000C4F340038DF84630C4F380138DF84930AB
:10081000C4F3403300F001008DF84030C4F3C0331E
:100820008DF845008DF84330B8F1000F07D095F8EA
:100830008481B8F1010EDEF1000858EB0E08C4F314
:1008400000438DF84A30F36A19F1000918BF4FF0E0
:100850000109003318BF01238DF84C30C4F3005355
:100860008DF84D30B5F84631B5F844E1ADF850306B
:10087000B5F8523104F00101ADF84E30C4F38043B5
:100880008DF8473095F85431C4F3C002181C18BFD6
:1008900001208DF84800B5F85001E4048DF844803B
:1008A0008DF841108DF842208DF84B90ADF8540032
:1008B000ADF856E004D5B64CB4F84C41ADF856400E
:1008C000B0F5FA7F02D90BB9ADF8563095F8D431AE
:1008D000B04886F83430002386F8353043709DF8F0
:1008E0005230002B14BF0223002301B902B101339F
:1008F00007EB8303DB6B4FF0000B0993CDF820B0BF
:10090000099B33F80B204FF6FF739A4200F0958154
:10091000D3B2A14E9DF845101D01741919B1991E4D
:10092000012940F284819DF8491021B171599B48F9
:10093000814200F07C819DF84AE0BEF1000F04D0B6
:1009400071599648814200F072819DF8461039B184
:1009500061689348814203D12189102900F06781A1
:100960009DF8431039B161688D48814203D12189D6
:10097000022900F05C819DF8441039B16168894812
:10098000814203D12189022900F05181DDF858C04C
:10099000BCF1000F0FD06068DCF8001088420AD16B
:1009A0002189BCF80400884200F04181BCF80600AF
:1009B000884200F03C814FEA1228B8F1020F02D1C0
:1009C0009DF8402004E0B8F1010F04D19DF84120CA
:1009D000002A00F02C819DF84C2062B19DF8522035
:1009E0004AB9A3F10802012A05D871596E4A914209
:1009F00008BF4FF004089DF84D2062B19DF85220C9
:100A00004AB9BEF1000F02D00C3B012B01E0043BC0
:100A1000032B40F2F480B8F1010F42D1634BFF2267
:100A200083F87C2083F87D202189627B4FF00009C8
:100A300083F88090C3F88C406068ADF85C108DF846
:100A40005E2017A9022283F83890C3F83C90C3F8BF
:100A50004090C3F84490C3F8789083F87E9083F870
:100A60007F908DF85F20039310F0FDFC7059A17A00
:100A70004A4605F0B9F820464946424607F088FB49
:100A8000039B4B4AC3F89890C3F89020494A2046EC
:100A9000C3F8942003F1900103F194020DF0FCFFE0
:100AA000C5E0B8F1020F42D10899434ACBB21C21EC
:100AB0004B43089802EB03094FF0000A4FF0010C7A
:100AC00089F8010089F802A089F80AA002F803C099
:100AD000637B22896068C9F80C4017A98DF85E30E5
:100AE000CDF808C0ADF85C208DF85F8010F0BBFC3D
:100AF0007059A17A524605F077F8DDF808C0204613
:100B00006246514607F044FB2C4B09F11001C9F82D
:100B100010302B4BC9F818A0C9F81430204609F141
:100B200014020DF0B9FF0899013108917FE0B8F186
:100B3000030F61D19DF847301C4D8BB19DF84830B3
:100B400095F836603BB1BDF854301E4A2046B2FBE2
:100B5000F3F208213FE0204608214FF6FF723DE006
:100B6000BDF8543095F83660B3F5FA7F2ED9154AA2
:100B70002046B2FBF3F20821BDF8563092B207F0DE
:100B8000D9FB05EB8606C6F860010F4B2DE000BFD0
:100B90004C080020FD000020D4990108000400400A
:100BA00000080140000C0140002C0140C80000205A
:100BB0008D0C0108910D010848010020255C0008FA
:100BC000690D010800127A00B10D0108B24A2046F1
:100BD000B2FBF3F20121BDF8563092B207F0AAFB46
:100BE00005EB8606AD4BC6F86001C36095F836305C
:100BF000013385F836301AE0B8F1040F17D1BDF88B
:100C00004E30A54AA64D92FBF3F22046BDF8503077
:100C1000012192B295F8356007F08CFB95F83530DC
:100C200005EB86060133C6F8900185F835300BF1E7
:100C3000020BBBF11C0F7FF463AE994C994B94F8F7
:100C40003520002684F8B021974A1E701578994601
:100C5000A5F11702022A1AD8636A0021985903EBFA
:100C6000060811F08BFD10B1E36A7BBB27E08F4BC8
:100C700006EB030E98E80F008EE80F0099F800309D
:100C800010360133C02E89F80030E5D1ECE7884BEF
:100C900013F835C003EBC503D3F8048089F800C00E
:100CA000B8F1000FE0D06645DEDA804A330103EB8D
:100CB000020E43440FCB01368EE80F00F3E77D4B65
:100CC0001A68984612F4805F23D11CE007EBC50731
:100CD00097F84C00784B3E6D1870002EEFD0002333
:100CE0008342ECDAC3EBC3017218D2F800C0DFF81C
:100CF00000E2013341F80EC001EB0E079188B98084
:100D00009279BA71ECE705F0EF03082B6B4B25D114
:100D100026E099F80090B9F1010FF4D9684E002748
:100D20004F4506F11006EEDA56F8100C4FF07C51E4
:100D300011F090FB4FF07C5146F8100C56F8140C53
:100D400011F088FB4FF07C5146F8140C56F80C0C4F
:100D500011F080FB013746F80C0CE1E70E2D08D1AD
:100D60001A78182D42F010021A7008D105F066FDAD
:100D700005E01A78192D22F010021A70F5E70DF02F
:100D8000F9FDD8F800305D0302D44E4B01221A70F1
:100D90004D4B4E4D1A784E4F42F004021A702B788C
:100DA0004FF48052012B8CBF102314238DF85E303A
:100DB0004FF002038DF85F30BB69ADF85C2043F063
:100DC0000403BB618CBF01260026424817A910F01E
:100DD0004AFB414B0EB1414A00E0414A00201A60F3
:100DE00005F0B0FB069A3F4B3F4E93E80300BB690A
:100DF00082E8030043F0080318A9BB61179810F0BC
:100E000032FB10F04FFD9F238DF83C303220002341
:100E10004FF480598DF83D308DF83E308DF83F30DD
:100E200005F05DFB0422C6F8149006980FA90BF09C
:100E300007FFC6F810909DF85E209DF85D30120205
:100E400042EA03429DF85F301A43284B9A4214D07D
:100E5000322005F044FBC6F81490F5200BF0BCFEE0
:100E6000FF200BF0B9FE7028C6F8109005D12B7842
:100E7000022B02D1154B03221A702B78032B0CBFC7
:100E80001F20022005F0C7F92B78032B32D0012058
:100E900008F02CFC38E000BF40420F00A10D010813
:100EA000C8000020E01100203A1200204C1200205F
:100EB000B49A010884060020801300204608002010
:100EC0005412002050190020043100202C31002041
:100ED0000010024000080140083100208D61000828
:100EE000A1610008AC790108000C01401520200028
:100EF00081130020022005F0D7F918B14088003096
:100F000018BF0120C007C2D5D8F8006095F800A02E
:100F1000AA4D4FF0100B06F40063284600215A46F4
:100F2000069314F09DF94FF6FF73ADF83C300223A1
:100F300006F400494FF000081E408DF83E308DF851
:100F40003F800DD022A921F84CBD9D4804F0E8FE59
:100F50000126042207232A7085F80180AE70EB7009
:100F6000B9F1000F0ED0022322A921F84C3D94487C
:100F700004F0D6FE0123F2182B71AB7107236E71BA
:100F8000EB71D6B2BAF1010F0FD9202322A921F8B3
:100F90004C3D8B4804F0C4FE052301222B72AA723B
:100FA000731C07226E72EA72DEB2069B7BB10223CB
:100FB00022A921F84C3D834804F0B2FE0923012206
:100FC0002B73AA73731C07226E73EA73DEB27B68FD
:100FD0007D4843F440437B607B69DFF8EC8143F05C
:100FE00001037B61BB6943F40073BB6104F083FFC1
:100FF00017A804F055FF754B00271793744B022E6A
:10100000189334BF3B4680231C934FF480731D9389
:101010004FF480631E93202317A91F9340464FF47B
:1010200000531A96209319971B97219704F045FFB8
:10103000D8F80030012E43F00103C8F80030654BAA
:1010400098BF00215A6888BF012122F4702222F43F
:10105000807242EA01225A6099685F4A013E0A4062
:1010600042F4602242F002029A60DA6AF6B222F496
:10107000700242EA0656DE623846012329188A7851
:10108000002A5AD02A5C5E1C092A91F803E0F6B2C5
:10109000504911D9A2F10A0707EB47074FF0070C97
:1010A0000CFA07FC0EFA07FED1F80C8028EA0C0CAB
:1010B0004CEA0E07CF600EE002EB42074FF0070C40
:1010C0000CFA07FC0EFA07FED1F8108028EA0C0C87
:1010D0004CEA0E070F61062B3E490ED8013B03EB8D
:1010E00083034FF01F0E0EFA03FE9A404F6B27EA60
:1010F0000E0747EA02034B6320E00C2B0ED8073B98
:1011000003EB83034FF01F0E0EFA03FE9A400F6BA2
:1011100027EA0E0747EA02030B630FE00D3B03EBE0
:1011200083034FF01F0E0EFA03FE9A40CF6A27EAA0
:101130000E0747EA0203CB6200E01E460430102887
:1011400001D033469AE7234B9A6842F480729A6042
:101150009A6842F001029A609A6842F008029A6026
:1011600099681C4A09070ED5FAE7571E092F8CBF4C
:1011700000270127FFF76EB9184B83F891810DF016
:10118000DBFDFFF7BBB9936843F004039360114A9A
:10119000936813F00403FAD1916841F4A0019160BF
:1011A0000E4AB2F85801E0B9B2F95A31C3B9B2F9EE
:1011B0005C31D3F1010338BF002312E06C1B002027
:1011C00000080140000C0140080002404C2401408E
:1011D0007C1B002000240140FDF7F1FF4C0800209B
:1011E000034613F0010340F09380B34A00B2137139
:1011F00011F0DCF8B14911F02DF9B14F0646B7F9FD
:101200005A0111F0D3F8AD4911F024F90546B7F9A8
:101210005C0111F0CBF8A94911F01CF9A9498146EC
:10122000304611F00FF805F05CFD0746304605F03A
:1012300058FDA4498046284611F004F805F051FDF8
:101240000646284605F04DFD9E490546484610F0E5
:10125000F9FF05F046FD8246484605F042FD394655
:101260008146504611F0F6F839468346484611F05B
:10127000F1F851460690404611F0ECF849460890C6
:10128000404611F0E7F831460990504611F0E2F877
:101290004946C4F8B40106F1004011F0DBF82946D4
:1012A000C4F8B801C4F8BC51089811F0D3F801464D
:1012B000069810F0C7FF2946C4F8C001099811F03C
:1012C000C9F80146584610F0BBFF3146C4F8C401C6
:1012D00008F1004011F0BEF82946C4F8C80158468C
:1012E00011F0B8F80146099810F0AAFF2946C4F891
:1012F000CC01069811F0AEF80146089810F0A2FF54
:101300003946C4F8D001304611F0A4F8C4F8D4012D
:101310006D4F3B689A0320D5C82005F0E0F8AE2059
:101320000BF041FE08B10BF043FE84F8D801C82051
:1013300005F0D5F8654B00210C226548C4F8DC3176
:1013400013F08EFF022384F8E3310FF037F805F035
:101350007CF8604B0344C4F8E8315F4E584D336865
:1013600095F85F0195F8691195F86A21B3F95E3037
:101370000AF072FDB04610B901200DF04FF9574B3D
:101380000A261A7842F002021A70554B10225A614E
:1013900008221A61DFF848911920D9F80C30013E73
:1013A00083F01003C9F80C30D9F80C3083F008032F
:1013B000C9F80C3005F093F8012005F0C3F81920A6
:1013C00005F08DF8002005F0BDF816F0FF06E1D11C
:1013D00008234FF0100A434EC9F81030C9F810A086
:1013E00033681B0709D5404BC9F814A01B68984700
:1013F0003E4B0122C9F810A01A70D4F8EC31187BCA
:1014000010F0D4FF2D4911F025F82E4910F01AFFE5
:1014100005F067FC364BC4F8F0012849186911F053
:1014200019F8344BC4F8F401188810F0BFFF0146D6
:10143000314811F0C3F8314911F0C0F8304C314B4C
:10144000186005F03BFAFF211C22204613F008FF2C
:101450000022227032682C4B012112F0020F197009
:10146000204604D06170032119700221A170540735
:1014700004D519784C1C1C700324445412F00A0F34
:101480000CD01A7804218154511CC9B2052444544B
:10149000D11C02321970D2B2062181543A689106E9
:1014A00004D519784C1C1C70072444546979082908
:1014B0002CD00E2933D129E00000002035FA8E3CD3
:1014C0004C080020DB0FC93F84060020D40900200F
:1014D000A8020020404B4C00C01100200431002025
:1014E000000C0140EC070020380800203C100020D0
:1014F000A81100201C0000200AE81C4100401C46E6
:10150000BB1C002084110020BA1C00201C7804F1B0
:10151000010E83F800E04FF00B0E00F804E01C7899
:101520004FF00C0C04F1010E5FFA8EFE12F4803FB6
:1015300083F800E000F804C009D004F1020CAA4CC2
:1015400084F800C0A94C4FF00E0C04F80EC05407EC
:1015500008D51C7804F1010E83F800E04FF0100E5E
:1015600000F804E01C784FF0120C04F1010E5FFA51
:101570008EFE12F4806F83F800E000F804C00ED0F5
:1015800095F820C2BCF1000F09D004F1020C964C72
:1015900084F800C0954C4FF0130C04F80EC094056D
:1015A00008D51C7804F1010E83F800E04FF0150E09
:1015B00000F804E0182913D11C784FF0160E00F83B
:1015C00004E004F1010E5FFA8EFE4FF0170C00F8F4
:1015D0000EC004F1030E0234E4B283F800E00155BA
:1015E000110304D519784C1C1C7019244454D205DD
:1015F00004D51A78511C19701A2181541A781421B3
:101600008154911C01321970D2B21B2383540021E2
:101610009822774813F024FE764C0EF061FAB5F864
:101620004E317549A4F8FC3100230B808B70D8F83B
:101630000010724A01F1810EB5F896017049C4F8A4
:10164000F8210A6084F8FE3182B26E49DFF8E89131
:10165000D1F80080DFF8E4C108F596784CF81380E3
:1016600023F809200233242B8846EED1D7F800C096
:101670001CF4805F0CBFB5F89C311346A9F8063006
:1016800000231EF80320B2B90EEB0302917892F802
:1016900003A051450FD209B1013901E00AF101015E
:1016A00001EB8101527801EB810101F5617189B291
:1016B000043229F812100433502BE2D11CF0080F29
:1016C00000F0E98095F89031062B00F2DE80DFE82B
:1016D00003F004070E355170700045F2F05201E03E
:1016E00042F6F822484B1A800EF086FACCE0464BC0
:1016F00042F6F8221A8000010A2390FBF3F0A0F5CD
:10170000B0600023414A98500433482BFAD1404A34
:10171000404B40209A60404B12221A7004F0FEFDAC
:10172000002800F0B28001234FF0070A90F9000072
:1017300040218DE80804394A394BA0E0324B42F68B
:10174000F8221A80374A334B40209A60324B1022DD
:101750001A7004F0E3FD002800F0978001234FF099
:10176000000990F9000040218DE808022E4A4FF44C
:10177000E13384E0244B42F6F8221A802B4A254BB1
:1017800040209A60244B08221A7004F0C7FD0028FC
:101790007BD001234FF0000C90F9000040218DE830
:1017A0000810234A4FF4E13306F0D1F8C4F8480298
:1017B00067E0154A42F6F821118017490C22062BE2
:1017C0001C480A703CD00023037084F84C3284F823
:1017D0004D321B2384F84E32052384F84F2284F8BF
:1017E00050324FF4E13539E0BA1C0020BB1C002018
:1017F000E41B0020C800002024130020D40900208E
:101800008C060020E83000203A1B0020E006002073
:10181000C955000800000020DE1C002021580008E7
:10182000A0860100B955000871570008A5550008A9
:1018300025570008C407002002080020C802002025
:101840000021017084F84C1284F84D12BC4D212106
:1018500084F84E1284F84F2284F85032B94ABA4BB9
:1018600040209A6004F05AFD78B101234FF0000E39
:10187000B64A90F9000040218DE808402B4606F05A
:1018800066F8003018BF012028B9082005F09AFA40
:10189000AF4AAD4B9A603B68AE4A13F4804F04D018
:1018A00012211170AC48A849886042F20101194028
:1018B00089B1AA4944F620600880990404D508211A
:1018C0001170A748A0498860DD0704D50C2111706C
:1018D000A4489D49886011789805A1F104015170D0
:1018E00053D5A14D079AA14B2A609A69079842F0F7
:1018F00001029A6103884FF01009ADF838309C4816
:1019000002230EA98DF83A908DF83B300FF0ABFD15
:101910002B6897485B880EA9ADF8383004238DF802
:101920003A300FF0A0FD2B680120197A0FF086FDE8
:101930002B68904A5B684FF0000A536117A88DF836
:1019400061904FF0010917938DF860A08DF86290B7
:1019500004F078FA2B680FA85B7A8DF83EA08DF81A
:101960003C3003238DF83D308DF83F900AF04CFA5F
:10197000D8F80020804B3C3A1A6033684FF0FF32B1
:1019800043F0100333607D4B1A607D4B7D4DC4F8EE
:1019900054328033C4F858323B680026D9032E7085
:1019A00040F1B180DFF808B2DFF8C08140F22A3A96
:1019B00005F08CFA4FF0010952465846314685F839
:1019C000009013F04DFCD8F818306F4843F0040332
:1019D000C8F818304023ADF8383018238DF83B3064
:1019E0000EA903238DF83A3004F09AF9D8F81C3088
:1019F000664D43F00203C8F81C30654BA8F6947896
:101A00001A68644BB2FBF3F22B88013A23F45C733F
:101A10001B041B0C2B8092B21D23AB852A85A5F8D5
:101A200014902B8C23F001031B041B0C2B842B8C98
:101A3000A9882A8B23F0020322F0730212041B04EC
:101A4000120C1B0C89B242F0600243EA0903A98020
:101A50002A83AE862B842B8B23F008031B041B0CDC
:101A600043F008032B83B5F844306FEA43436FEA31
:101A700053439BB2A5F84430D8F8A83F43EA090382
:101A8000C8F8A83F404604F036FA17A804F008FA50
:101A9000414BCDF860B0179380231C934FF48073B3
:101AA0004FF0100B1D9340464FF4005317A920939D
:101AB000CDF864B0CDF868A01B961E961F962196AF
:101AC00004F0FBF9AB890FA89BB243F40073AB8120
:101AD000D8F8003043F00203C8F800308DF83CB06D
:101AE0008DF83D908DF83E608DF83F900AF08CF9AE
:101AF0002A4B1A682A4BF2500436802EF8D10AF08D
:101B00004AF80AF048F83B685A057ED5D4F888654B
:101B1000244B04201E6004F001FC0421C4F88C0551
:101B200004F0D6FB204B84F8900508201E6004F0DA
:101B3000F5FB1E4B0821186004F0CAFB3AE000BF19
:101B400090D0030065550008000000200D560008E5
:101B500089610008DE1C0020F55500083A1B0020B2
:101B6000015600087D610008A41100200010024009
:101B7000000C014000040140A01100206C11002065
:101B80007C0A002079190020000801400004004070
:101B90004C00002000366E013404004044820108ED
:101BA0007A1900202C2B0020702B00208C2B002079
:101BB00024030020874D2C22002184F8910528461B
:101BC00013F04EFB7C232B708E236B70E023EB70A5
:101BD00010207D2385F82B30C4F8946504F09EFB1B
:101BE0001021C4F8980504F073FB84F89C052020AC
:101BF000C4F8A06504F092FB2021C4F8A40504F009
:101C000067FB84F8A8050EF0F5F9734B734D1B784C
:101C1000022B64D1724B00261A88322022F0400237
:101C20001204120C1A801A884FF4805722F03802DE
:101C30001204120C1A801A8892B242F040021A80E2
:101C40009F238DF83C308DF83D608DF83E608DF817
:101C50003F6004F044FC8DF85D60624E04227761C1
:101C600017A80FA90AF0ECFF37619DF85E309DF8C8
:101C70005D201B0243EA02439DF85F2013435A4A4A
:101C8000934219D00AD8A2F51A42033A93420CD0D3
:101C900002F51A420232934209D01BE0534A9342A2
:101CA00005D00132934207D014E0202300E08023C6
:101CB0002B804FF4807302E04FF480732B806B8095
:101CC000AB882A881B02AB605343EB60012384F886
:101CD000A93504E000232B806B80AB60EB60EE68DD
:101CE00016B3F60A37464FF00008B0450BDA08EB9A
:101CF00006056D100DF15C09E802494610220BF053
:101D00001DF80F2805DCFF020CF09CF9C4F8AC7537
:101D10000AE0002359F80320013256D10433102B76
:101D2000F8D12E462F46E0E7314D324A2B6813F4A6
:101D3000002318BF0123137004F087FB2E4B18609B
:101D40002E4B5A791946052A03D12D4B4FF4C872F0
:101D50001A802C4B4FF47A721A802B4BC8221A80AF
:101D60002A4B1A7842F008021A70294B1A7822F08E
:101D700002021A702A6840F6020313406BB125482C
:101D8000254B1860254B03201870254B0120187037
:101D900024480023038024480380930308D50323A9
:101DA00084F8E43194F8E33143F0010384F8E3313B
:101DB0008B6801222B601D4B1A701D4B1A7862F044
:101DC0007F021A7023B0BDE8F08F05F101083D468F
:101DD000A8E700BF402B00202C310020200000206D
:101DE00000380040000C014018BA20001740EF00F6
:101DF0008406002051190020C81100204C08002042
:101E0000A41B002026310020243100204608002099
:101E10002B310020C6090020242B0020742B002029
:101E2000540000205E1B0020601B00205019002081
:101E300004310020A2492DE9F04F0A68A14802F5BB
:101E40009C4320330360A04B87B01E78C6B119466F
:101E50005B689A4240F20A81013E0E7006E12B68EF
:101E6000072C98BF195D994B88BF21461B6898487D
:101E70009847032C0CD9944A013602EB4404208184
:101E8000934BF4B21A78934DA2421A46E7D81EE05B
:101E90002B6804F10E0203EB82029388D28800289B
:101EA000E9D0C01A4FF47A714843D31A90FBF3F08B
:101EB000084440F6C903984205DC40F2EE239842FC
:101EC000B8BF184601E040F6CA0080B2D3E7824BA3
:101ED00042F201091B6803EA0909D9F101097F4BA4
:101EE00038BF4FF00009D3F800A07D4BB9F1000FC7
:101EF00006D17C49097819707B4908787B490870BC
:101F00001E781EB1794B1E7886F001066E490F23AC
:101F100081F82C30764B92F800801F780322B7FBB3
:101F2000F2F202EB4202BA1AD2B201F12E0303EB33
:101F300042020024D5F800B04FEA480C0292254630
:101F400064455AD016B16B4BE05A00E03046BBF8FE
:101F50001430834206D8BBF81610814234BF0021EA
:101F6000012100E00021644BE9B953F825309A457E
:101F700002D2624BE05A1AE0EBB218468DE8081024
:101F80000CF022FC009BDDF804C0032B0FD84FF0AF
:101F9000010E0EFA05FE4C4B93F82C1021EA0E01AF
:101FA00083F82C1003E00AF5967143F81410B9F188
:101FB000000F1DD1029A444B04EB4401505293F898
:101FC000762022B9022F13D9012083F876004C4BDA
:101FD000581831F803E041884A337144B0F804E0FE
:101FE000714489B2E15208B2032390FBF3F080B24E
:101FF000424B0135E0520234A2E7334B374A93F8A3
:102000002C10B1F10F077942794183F890103D4BC4
:1020100069B13D4909684E0109D41268D9689A60CE
:10202000521AC82A1ED9012283F821201AE02E480C
:10203000012101702D48126801709968DA605B68AF
:10204000521A9A4203D92F4B002283F821200024F0
:10205000444507DAE0B20CF0B7FB284B23F8140034
:102060000134F5E7224B1A7801321A701A4E3368A0
:10207000DD0405D5244B1B68DC0701D40DF086FD7B
:102080000F4B1C68134B19688B7A002B40D01B4AEE
:10209000013B32F813000B7B1BB1C0F53B600830ED
:1020A00080B200B2A0F57A70B0F57A7FA8BF4FF485
:1020B0007A7020EAE07010F079F914495DE000BF11
:1020C0000C310020E0070020001A0020080000204A
:1020D000DE1C00208C06002084060020E830002052
:1020E00078060020800600200D0000200C00002053
:1020F000C6020020081A0020C802002002080020A2
:102100002E1A002024130020F007002000007A443B
:10211000326810043AD59D4AD2F89400201A00285B
:1021200034DB04F59C402030C2F894009848C97A0A
:102130004579984830F8150080B290FBF1F092F89C
:102140009810013101F00F0182F898100A4482F8CA
:1021500099001846904A9A5C01331044102B80B2C3
:10216000F8D100B290FBF3F000B26428A8BF64205D
:1021700020EAE07010F01AF9884910F01FFA884937
:1021800010F068F910F052FB864B18803368864DCA
:1021900013F4807F00F0E080844B854F9C4203D98C
:1021A000BB780BB90123BB70BB78002B00F0D48047
:1021B0007F4B95F8008093F821407E4B611E4C4286
:1021C0001A684C41002CC2F380690CBF0322002224
:1021D000C8F380089A46029297F82030052B00F247
:1021E000B680DFE803F0034E5378859EB8F1000F08
:1021F0003AD0714B1868714B19880CF00FFB01280D
:1022000009D16F4B64211A68604BD3F8AC30DB887E
:1022100001FB03233B61B9F1000F0DD05B4BD3F8F9
:10222000AC301B7943B10CF077FB032387F82030E7
:102230004FF47A73FB61CFE7002C40F08880604B4D
:102240003A691968DFF868B1914209D90CF064FB6A
:1022500003228BF8202040F6B832CBF81C20BBE7D5
:1022600001228BF82020B7E74FF48060B9F1000F0E
:1022700002D00CF041FB01E00CF06CFB00233B6151
:1022800065E0002C45D10CF047FBA5E724B1052300
:1022900087F82030012100E02146B8F1000F0DD071
:1022A000454B1B68DA89474B1A805A809A80374A17
:1022B000D2F8AC205288DA8002220292404B1A688F
:1022C0007B699A4202D8B8F1000F3DD147F23053F2
:1022D000FB6103231EE02B7843F002032B700DF00B
:1022E00055FC374B1A68FB691344BB61042311E0AA
:1022F000334B1A688CB1BB699A4228D9324B1B7890
:102300001BB9DAF80030DA0721D42B7823F0020366
:102310002B70052387F820305EE7FB691344BB610F
:1023200015E0274B19491A68D1F8AC306421DB88D5
:102330004FF4806001FB03233B61002387F82030CA
:10234000FB700CF007FB47E700297FF445AF029ACA
:1023500012B110460CF080FA1C4C04F5C470B4F8AD
:102360004E110CF05BFAA346804688BB04F04CFB90
:1023700094F8E231012B06D9114B044A1B68D2F8BC
:10238000B0209A422FD204F02FFB2CE0001A00203C
:102390006C1B00207C1B0020991A00200000C84202
:1023A00000C07F44E01C00202B310020404B4C003B
:1023B00024130020F0070020C0020020C4020020E7
:1023C000E830002002080020140000204C08002003
:1023D000984B94F8E2211B684FF47A7101FB0232AA
:1023E000954BC3F8B0202B785B0740D53368DF06E8
:1023F0003DD5924B1B78DC0639D4914B8E4C1F781F
:102400008FB19BF8E031B8F1000F16D173B1894B51
:102410001A68D4F8B4309B1A002B07DA0DF0B6FB1B
:1024200084F8B88023E0B8F1000F19D110200CF027
:1024300013FA012384F8B83019E03BB17D4A4FF418
:102440007A71126801FB0323C4F8B43094F8B830F1
:102450006BB104F07FF8784B002283F8B82006E0D7
:1024600094F8B8301BB104F075F884F8B870002205
:102470009BF8DEA19BF8DF11BBF89871BBF89AE1DD
:102480001346704C9B08105F0232B842C4BF63F021
:102490007F03DBB27045B8BF43F04003082AF0D198
:1024A000654C94F8B9209A4205D194F8BA20F92ADB
:1024B00004D8013200E0002284F8BA2084F8B93050
:1024C0005F4B5D4A1878604F994638BB3B68D80728
:1024D00008D5B8F1000F21D12B78DA071ED50DF001
:1024E000D5FB1BE02B785B0715D5584B1B7893B1B8
:1024F000574BDB787BB992F8BB300133DBB2032B4F
:1025000082F8BB300AD911B10DF040FB06E0B8F1FA
:10251000000F03D1F8E7002384F8BB3094F8BA2009
:10252000454B142ADFF83C8140F0A58099F8002043
:102530001AF1000A18BF4FF0010A6AB393F8B920E4
:102540005F2A11D12A7802F0040202F0FF0112B1D1
:102550000DF01CFB08E00B20019100930CF07CF9BE
:102560000199009B83F8BA10BAF1000F14D094F8C7
:10257000B9307D2B10D12B7803F0040303F0FF0258
:1025800013B10DF003FB07E00B2001920CF064F98E
:10259000294B019A83F8BA202B7803F0040303F047
:1025A000FF00002B67D194F8B930234A572B0AD18A
:1025B000284B4FF47A721A80274B1B6858075AD55C
:1025C0000A22264B34E03168490717D55A2B15D11A
:1025D00092F8BC302BB1012382F8BC0082F8BD30E8
:1025E00049E092F8BE3083F0010382F8BE300BB1AF
:1025F0000C2000E00D200CF02FF93CE05D2B00F0EA
:1026000072845B2B00F071845E2B02D1032000F0FA
:102610006DBC562B01D10CF08FFB99F800301BBB21
:1026200094F8B930972B40F079840D4B4FF4C87271
:102630001A8020E0E8300020001A00204608002020
:102640001400002002080020F00700207806002077
:102650002413002026310020EC0700202431002024
:10266000A41B0020C011002094F8B9306F2B40F05B
:102670004C840DF00BFB3368580736D594F8BE3008
:10268000B44A93B12B7859070FD5B34BB3F9061061
:10269000BBF89831994208DD3B6813F0010304D17F
:1026A0003221A2F8C01082F8BE303B6813F4803F9C
:1026B000A84B0CD094F8C2202AB993F8BC2012B9C8
:1026C0003222A3F8C020012384F8C2300DE094F830
:1026D000BC2052B12A7802F0040202F0FF0122B9B4
:1026E000012283F8BC1083F8BD20D8F800900023A5
:1026F00009F1810A3B6009F1830498460AF102035B
:1027000003EB080113F808204B7814F8010C9A42E7
:102710000AD2214609F03CFB30B114F8023C0122F8
:102720009A403B6813433B6008F10408B8F1500F2E
:1027300004F10404E2D1894B1F784FB1884CDFF8D3
:1027400040822368874F13F0020F40F036832EE358
:1027500009F1D10809F1D20408F10103D919DA5DB0
:102760004B7814F8010C9A4229D2214609F010FB4B
:1027700028B394F802E020797B4B0EF1FF3E4FF036
:102780000C0C0EEB4E0E0CFB00FC9E44714B94F8AF
:1027900003A003F1C40909EB0C02516871450ED086
:1027A000002109F80CA0C2F804E09160012202FAAD
:1027B00000F093F8F42022EA000083F8F4000637D2
:1027C000482F04F10604C7D1684BDFF8B8A11F6891
:1027D000674B4FF000091B680293664B1B7803930D
:1027E000DAF80030002B00F0D98293F80080B8F1BD
:1027F000000F00F0D382DAF8042002998A1A002A26
:102800000DDB01F5FA72012101FA09F1CAF8042081
:10281000504A92F8F40020EA010182F8F410039A79
:10282000002A00F0BB821AF8041C58780431C9B29F
:10283000484A002840F07182474830F911104E484C
:10284000B0F8960100F1C804A14201DD9C7815E0C2
:10285000C838814202DA9C7864420FE0012303FA0F
:1028600009F33C4991F8F42022EA0303029A81F823
:10287000F43002F5FA73CAF804308FE292F8F430BB
:1028800043FA09F3DB0700F18982002CCCBF022058
:1028900001200CF019F808F1FF33132B00F27582B8
:1028A000DFE813F0140021002E003E0072007900D2
:1028B000DD004101A501DA010A0273023E004D006C
:1028C0007900DD004101AF00130177013B78384604
:1028D0001C44FA2CA8BFFA2424EAE4743C7003F0E8
:1028E00067FD01201AE07B7838461C44642CA8BFA1
:1028F000642424EAE4747C7003F05AFD02200DE0A5
:10290000FB7838461C44642CA8BF64241B4B24EA83
:10291000E474FC70196803F007FD03202146C8E148
:1029200079790D2021446429A8BF642121EAE1714D
:1029300079710BF019FAB8F10D0F00F02682397990
:102940000E2021446429A8BF642121EAE171397174
:10295000AFE100BF001A002002080020293100204A
:10296000F0070020F4070020988E01082C120020A8
:10297000E8300020780600204C080020A81C002029
:10298000EC070020C81A0020B9790520214481F302
:102990000801B9718DE1A74B1B681A78022A21D171
:1029A000204600930FF002FDA3490FF007FE009BA5
:1029B000596A0FF047FC002101900FF0E9FE019ADF
:1029C000009B40B910469C490FF000FF019A009B04
:1029D00010B1994A00E000225A620F2011460BF014
:1029E000D7F90AE099780F202144C829A8BFC82147
:1029F00021EAE17199700BF0B7F9B8F10F0F00F00F
:102A0000C4818C4BD3F8008098F80030022B1AD187
:102A100020460FF0CBFC88490FF0D0FDD8F82010ED
:102A20000FF010FC002104460FF0B2FE30B9204632
:102A300081490FF0CBFE10B17F4C00E00024C8F8B4
:102A40002040122059E198F8011012202144C82991
:102A5000A8BFC82121EAE17188F8011029E1754B6E
:102A60001B681A78022A21D1204600930FF09EFCA1
:102A700071490FF0A3FD009B196B0FF0E3FB0021E0
:102A800001900FF085FE019A009B40B910466A49FB
:102A90000FF09CFE019A009B10B1674A00E00022F3
:102AA0001A63102011460BF073F90AE0197B10200D
:102AB0002144C829A8BFC82121EAE17119730BF08C
:102AC00053F9B8F1100F00F060815A4BD3F8008031
:102AD00098F80030022B1AD120460FF067FC5649B7
:102AE0000FF06CFDD8F82C100FF0ACFB0021044661
:102AF0000FF04EFE30B920464F490FF067FE10B17F
:102B00004D4C00E00024C8F82C401320F5E098F864
:102B10000B1013202144C829A8BFC82121EAE17164
:102B200088F80B10C5E0434B1B681A78022A21D1A4
:102B3000204600930FF03AFC40490FF03FFD009B08
:102B4000D96B0FF07FFB002101900FF021FE019A5D
:102B5000009B40B9104638490FF038FE019A009B9F
:102B600010B1354A00E00022DA63112011460BF063
:102B70000FF90AE0997D11202144C829A8BFC82176
:102B800021EAE17199750BF0EFF8B8F1110F00F03F
:102B9000FC80284BD3F8008098F80030022B1AD123
:102BA00020460FF003FC25490FF008FDD8F8381037
:102BB0000FF048FB002104460FF0EAFD30B9204633
:102BC0001D490FF003FE10B11B4C00E00024C8F8B3
:102BD0003840142091E098F8151014202144C82999
:102BE000A8BFC82121EAE17188F8151061E0114BF6
:102BF000D3F8008098F80030022B21D120460FF046
:102C0000D5FB0D490FF0DAFCD8F828100FF01AFBAD
:102C1000002104460FF0BCFD30B9204606490FF0F4
:102C2000D5FD10B1044C00E00024C8F8284009206C
:102C300063E000BFAC1C00200000C84200007A44E2
:102C400098F8031009202144C829A8BFC82121EA07
:102C5000E17188F803102CE0B54BD3F8008098F8A8
:102C60000030022B1AD120460FF0A0FBB1490FF023
:102C7000A5FCD8F834100FF0E5FA002104460FF057
:102C800087FD30B92046AB490FF0A0FD10B1A94C2B
:102C900000E00024C8F834400A202EE098F80D1017
:102CA0000A202144C829A8BFC82121EAE17188F877
:102CB0000D100BF059F868E09D4BD3F8008098F8A0
:102CC0000030022B1DD120460FF070FB9A490FF007
:102CD00075FCD8F840100FF0B5FA002104460FF04B
:102CE00057FD30B9204693490FF070FD10B1914C5B
:102CF00000E00024C8F840400B2021460BF048F8C3
:102D000043E098F817100B202144C829A8BFC82118
:102D100021EAE17188F81710CBE7012835D19878BE
:102D2000864B33F91110B1F5617F05DB40F63303B3
:102D30009942B8BF0B4601E04FF46173B8F10C0F34
:102D400023D14FF49664A3F5617394FBF0F493FBE5
:102D5000F4F492F8F530E4B2A34216D0032C94BFF9
:102D60002346022382F8F5300E2202FB03B3744A95
:102D700003F2AE73136003F035FB404621460AF0C0
:102D8000F3FF601CC0B20BF09FFD012202FA09F2B2
:102D90006C4B93F8F4100A4383F8F42009F101090D
:102DA000B9F1040F0AF10C0A7FF41AADC6E43368D6
:102DB000D80510D5644BDB786BB1D8F80030990793
:102DC00009D53B8813F001090AD103F01DFE01204B
:102DD0000BF092FD04E001200BF0BCFD012300E0AC
:102DE0000023226852070CD55BB101200BF0B2FD25
:102DF0003B88980708D403F007FE02200BF07CFD07
:102E000002E002200BF0A6FD3B88504A13F0030FAE
:102E10004FF0100114BF51611161D8F8002012F079
:102E20000A0F2BD02268D1060DD55A070ED40420E4
:102E30000BF062FD464BB3F904200A2392FBF3F238
:102E4000444B1A8002E004200BF084FD23689B06AB
:102E500006D53B88580606D440200BF04DFD02E015
:102E600040200BF077FD2368590607D5384BB3F99E
:102E700004200A2392FBF3F2374B1A8023684FF4A5
:102E800080701A0502D50BF037FD01E00BF062FDF2
:102E9000324A53791746082B01D00E2B02D140201D
:102EA0000BF058FD33685B0540F19B8097F82032AA
:102EB0001BB92B7813F0040F02E0236813F4002FE2
:102EC0000CD0204B002283F8F6203C2002F04AFD73
:102ED000002800F0868003F0C7F9F6E70DF08AF8C5
:102EE0000CF0FEFD7DE0012000E002205FFA80F999
:102EF00009F1FF338BF8AC3705F0D4FB0EF00AFB79
:102F000048460BF0E1FCFFF7B6BBBAF1000F3FF407
:102F100087AB7E2B7FF484ABFFF7ABBBA72B21D114
:102F20000F4B1A7842F004021A70FFF7A4BB00BFDF
:102F3000AC1C00200000C84200007A4402080020B7
:102F40002C120020001A002024130020000C014045
:102F500064110020D4110020381B00204C080020F0
:102F6000460800200022BB2B059201D1022303E07A
:102F7000B72B04D14FF6FE73ADF8163009E0BE2B27
:102F800001D1022303E0BD2B1AD14FF6FE73ADF839
:102F90001430D8F80030BDF81410B3F860200A449B
:102FA000A3F86020BDF81610B3F862200A44A3F815
:102FB00062200BF0C1FE002384F8BA30FFF75BBB40
:102FC000792B04D1084BDA7822F0010206E07A2B43
:102FD0007FF451AB044BDA7842F00102DA70FFF76C
:102FE0004ABB07B0BDE8F08FA8020020834B2DE953
:102FF000F04FB3F90610824B91B01868438999429B
:1030000011DBB1F5FA6F90F807E009DACA1A02FB92
:103010000EFEA3F5FA639EFBF3FE0EF1640E04E0D0
:10302000CEF1640E01E04FF0640E8389994219DB02
:10303000B1F5FA6F047A10DA632CC3EB010205D9FB
:10304000643CA4B25443C3F5FA6302E05443A3F5CD
:10305000FA6394FBF3F4643405E0632C03D8C4F101
:10306000640400E06424674BB3F8962193F95E3161
:103070000492654A9BB2D2F800C0059366460022CE
:103080005E4B049D33F912304FEA420803935B1BF9
:1030900003F2F31740F2E635AF4203D8002BB8BF76
:1030A0005B4201E04FF4FA73022A4FF06407574D78
:1030B0002ED09CF81991B9F1000F04D04B45CCBF2C
:1030C000C9EB0303002393FBF7F96FF0630B35F8AB
:1030D00019A00BFB093B09F1010935F919900FFA09
:1030E0008AF5C5EB090505FB0BF595FBF7F5AA4439
:1030F000474D28F805A085182D796B43454D93FB66
:10310000F5F364339BB20EFB03F393FBF7F72FE069
:103110009CF81A91B9F1000F04D04B45CCBFC9EB14
:103120000303002393FBF7F76FF0630A05EB4709EE
:103130000AFB073B05EB4707B9F90E90B7F91050AA
:10314000059FC9EB050505FB0BFB9BFBFAFBC9EBD8
:103150000B0909FB07F92E4FA7F80490857983EA3C
:10316000E377A7EBE3776F432A4D97FBF5F76437D7
:103170000CEB020595F801A0244B07FB0AFA642525
:1031800003F11C099AFBF5FA09F802A096F80BA0C6
:1031900003F11F0907FB0AFA9AFBF5FA09F802A0E6
:1031A00096F815A0022A07FB0AF703F1220997FBFC
:1031B000F5F71D4616BF253383F8274003F802E0D4
:1031C00009F80270039B049FBB42114F04DA37F8E1
:1031D00008305B4227F808300132032A06F1010665
:1031E0007FF44EAF074CB4F89831994214DBB1F537
:1031F000FA6FA8BF4FF4FA610FE000BF0208002089
:103200002C1200204C080020C0110020F81A0020C9
:10321000CC1100200CFEFFFF1946C91A4FF47A7238
:103220005143C3F5FA63B1FBF3F34FF0640E93FB24
:10323000FEF205EB4201088D6FF0630101FB0233E2
:1032400005EB4202B2F92A1002B28A1A534393FBE9
:10325000FEFEB54B70441B88B44E5B06F88045D526
:10326000B34BB3F904000A2390FBF3F0B14BB3F86E
:103270004030C01A00B20FF099F8AF490FF0EAF8E9
:10328000AE4980460EF0DEFF03F02BFD814640463E
:1032900003F027FD8046B6F902000FF087F882465A
:1032A000B6F900000FF082F8494683460FF0D2F8D5
:1032B00041460346504601930FF0CCF8019B01466E
:1032C00018460EF0BDFF0FF08BFA4946308050468D
:1032D0000FF0C0F84146814658460FF0BBF8014652
:1032E00048460EF0AFFF0FF07BFA7080944B914E82
:1032F00018880FF057F8934B06F144010122B5F8F6
:10330000428003F08BFB0FF091FA8F4B80B2B8FB39
:10331000F0F000F1010C1B781FFA8CFCA5F84CC0F2
:103320000BB3B6F94EA00023824AFE5A02F1500EAA
:1033300033F90E8002F158010AFB08F833F80190C6
:103340000FFA8CFBC9EB060998FBFBF8C84423F87D
:103350000E805E520233082BE6D17B4B00211970A0
:10336000A2F84E0004E0B6F84E30013BA6F84E300D
:10337000B5F94E106F4A00294FF000030FDDB2F986
:103380004C60724AA2F10800185E9A5A484390FBBA
:10339000F6F0121AFA520233082BF2D101E0A2F829
:1033A0004E306B4B1A689A4612F0020F74D0694B7C
:1033B0002A6E1B6845F207219A1A8A425D4E6BDD20
:1033C00033660DF0B1FB644BDFF8A0811A789946A3
:1033D000032AB8F8003022D10A2B2CD90023282048
:1033E00089F8003003F07BF80DF09EFBB6F864001E
:1033F00002F0AEFE594B5A491B68DA7890FBF2F0A6
:10340000421C082A28BF08220A7059791B7992B2F7
:1034100051435A43A6F86610A6F868200BE00A2B21
:1034200009D803234E4A89F8003000231370A6F808
:103430006630A6F8683099F80020474B012A0DD075
:1034400002D3022A1ED027E0B5F86620B8F8003073
:103450009A4221DD012389F8003011E0B8F80020FC
:10346000B5F86810914202DD02221A7011E031496C
:10347000B1F8661001318A4202DD00221A700BE0B9
:10348000082007E0B5F86830B8F8002001339A4208
:10349000E0DC07200BF0E0F9DAF80020314E12F4FE
:1034A000006F00F09E802B4BE86E1968214BC0EB3B
:1034B000010A45F20720824540F393802748B7F977
:1034C0000690D0F80080D96698F80A00B4F84E113A
:1034D0000128A9F57A79244F03D06BD3022847D06D
:1034E0006AE093F88120196F03EB4202B2F884007E
:1034F000082291FBF2FE80B2CEEB0101014491FB68
:10350000F2F2A3F88C0092B2196740F6E4435343F9
:10351000B8F808004FF47A72C0EB13335343B8F98C
:10352000062093FBF2F346E0F4070020CC110020C4
:1035300064110020F81A002035FA8E3CDB0FC93FD9
:10354000C41100206F12833AE9070020501B0020AD
:10355000840600200C310020742B0020242B002036
:10356000540000202B310020302B0020282B00207D
:103570003378B8F808B05807C7F800B01CD5AC4885
:1035800002920BF04BF9029A20B912F0100F18BFFB
:103590004FF0000909FB09F2322392FBF3F399443F
:1035A000B8F906304FF47A7203FB09F393FBF2F398
:1035B0005B4400E000233B603B68D5E9240103FB4A
:1035C0000AFA4FF47A739AFBF3FA10EB0A0041EB14
:1035D000EA710023C5E92401964A0FF047F9964B9A
:1035E0001860964B1A68994612F4805F02D00A2040
:1035F0000BF032F9D5F89830914F002B58D0914A02
:10360000D7F89C1010689246814251D897F8A000D4
:10361000B7F8A220596810BB012087F8A0008A5C87
:1036200052B31A78D4F8DC37013A00FA02F21A429F
:1036300001D102F087FF012385F8A43002F020FFBA
:10364000B5F8A2307E4FBBB9D7F898301B78053B50
:10365000012B11D802F0F9FEC7F8A8000CE04FF0DA
:10366000000887F8A0808B5C33B1404602F06AFF07
:1036700087F8A48002F004FFD5F89820B5F8A210CE
:1036800052686F4B525CFE2A03D10022A3F8A2209D
:103690000EE0FF2A02D102F05DFF09E0DAF8000037
:1036A0000A2707FB02020131C3F89C20A3F8A210ED
:1036B0003378590703D5644B08225A613AE0D9F8A8
:1036C0000020D20703D4614A43F001031370604B1A
:1036D0001B781B0703D4337823F0010333705D4B51
:1036E0001B685F0702D55C4A128862B9B5F8AC2046
:1036F0000AB1980705D4594B1B88003318BF012322
:1037000000E001233BB1022385F8A430337823F095
:103710000103337005E03278D10758BF022385F8E2
:10372000A43002F092FED5F8B030C01A002801DBB8
:1037300002F0A6FE0CF05EFC494B1A78002A00F05D
:103740009B80D5F8B430002B00F0F186D5F8B4009A
:103750003B4C02F035FF002800F0E986D4F8B400B5
:1037600002F029FF092801D03F2852D14FF000086C
:10377000D5F8B8603B4F44462EB13B4839683246D5
:1037800011F0B6FD10B9B84604B93C46374B1037B6
:103790009F42F1D3ECB1D5F8B83022682848D75C05
:1037A000D8F80020D15CB94213D15A1C59B92D2B3D
:1037B00009D8C0F8B82003442027024483F8BC701D
:1037C00082F8BC1005E02B4483F8BC70C5F8B82023
:1037D000E1E7D5F8B8300BB1444510D0244802F0E9
:1037E00057FF444507D854F8100B02F051FF092049
:1037F00002F047FFF5E71F4802F04AFF0026D5F820
:10380000B8309E42A2D2184B985D02F03AFF0136C2
:10381000F5E7D4F8B830002B40F09486042840F047
:10382000018704F1BC0006F0CDFA00F080BE00BFB5
:10383000D4090020407E0500342B0020F007002032
:10384000F81A0020E8300020000C01402B31002045
:1038500046080020EC0700202431002026310020FB
:1038600029310020D48E0108B41B0020A490010847
:10387000FCA5010801A60108D44F97F84A30012B96
:1038800040F05086DFF86C83DFF86C933B68C8F833
:103890000070C9F80030C346DFF85CA352461068D8
:1038A00002F08EFE002800F03086DAF8000002F008
:1038B00082FEDBF80030024693F8481019B924283C
:1038C0003DD1012238E0012904D14D280CBF02224C
:1038D000002231E0022904D13C280CBF032200223F
:1038E0002AE003290CD140284FF0000102D983F8C7
:1038F00048104EE058711971D971987104221BE07B
:10390000042907D1997983F8490080EA01029A7164
:10391000052211E005293CD1587919798842987916
:1039200006D950409871481C18710B441A7230E047
:1039300090420CBF0622002283F8482029E031780B
:10394000A34B490725D4232ADAF8001016D1A14841
:103950004FF0010E80F800E09F48C5F8B410C5F89C
:1039600084110292019302F093FE9C4802F090FEB3
:10397000019B197841F002011970029AD5F888313B
:103980001B78934205D1964A964B1A60964A974BFC
:10399000DA60DBF80030DFF85CA293F84820062AF2
:1039A0007FF47AAF93F8490000F082FE002840F0DF
:1039B000A585DAF8002092F849B0BBF14A0F00F073
:1039C0009A8562D8BBF1330F00F08A8429D8BBF105
:1039D000290F00F023840CD8BBF1250F00F0FA83E7
:1039E000BBF1270F00F0FC83BBF1230F40F0A7854C
:1039F00031E1BBF12D0F00F0228408D8BBF12B0F71
:103A000040F09D8502F0DBFB607100F074BDBBF1FE
:103A10002F0F00F0DD84BBF1310F00F0EE8400F0D9
:103A20008EBDBBF13E0F00F0578114D8BBF1370FAC
:103A300000F0958405D8BBF1350F00F0A98200F0A5
:103A40007EBDBBF1390F00F0D883BBF13C0F00F015
:103A50004D8100F074BDBBF1430F00F05D8408D8C8
:103A6000BBF1410F08BF4FF0000900F03E8400F0A9
:103A700066BDBBF1440F00F0F484BBF1480F40F089
:103A80005E850AF07BF800F036BDBBF1D00F00F088
:103A90007F8367D8BBF1CA0F00F0418119D8BBF111
:103AA0004E0F00F0EF83BBF1C80F00F0CA80BBF1EE
:103AB0004C0F40F0448502F082FB84F8D60102F0FE
:103AC0007EFB84F8D70102F085FBA4F8D80100F052
:103AD00012BDBBF1CD0F00F0668305D8BBF1CC0F52
:103AE00000F0808200F02BBDBBF1CE0F00F06483AC
:103AF000BBF1CF0F40F0238502F06CFB6FF4AF6E8B
:103B000000EB0E039BB2C62B98BFA4F8960102F0FF
:103B100061FBA4F8400102F05DFBA4F8420102F051
:103B200059FBA4F8440102F055FBA4F8D80102F0B7
:103B300046FB02F044FB02F042FB02F040FB84F83B
:103B4000850102F03CFB84F8920102F038FB284B1F
:103B5000D3F8009002F03EFB00EB80004000A9F893
:103B60005E004AE3BBF1D80F00F0668115D8BBF1C7
:103B7000D30F60D004D8BBF1D20F49D000F0DFBC26
:103B8000BBF1D40F00F08982BBF1D60F08BF4FF014
:103B9000000900F0778200F0D2BCBBF1F20F00F018
:103BA000CC822BD8BBF1EF0F40F0C984DFF84090F6
:103BB000D9F800A002F00EFBAAF86200D9F8009034
:103BC00002F008FBA9F8600000F095BCE41B00209F
:103BD0002B3100202931002031A6010801A601085F
:103BE000EFBEADDEF04F00200400FA0500ED00E06E
:103BF000C01100209C2B0020A02B0020BBF1F30F54
:103C000000F03384BBF1FA0F00F0E08200F097BCC3
:103C1000337803F0040303F0FF09002B40F06B84BA
:103C200002F0CDFA022884F8AC0740F2B782C94B03
:103C300083F8AC97B2E202F0CDFAC74B188000F0DF
:103C40005ABC92F805904FEA5909B9F1120F1CD8E5
:103C50004FF0000A1DE002F0B2FA132815D8DFF881
:103C600014A300F1200BDAF8003003EB8B0B02F009
:103C7000A6FABA4B0BF1010903F5AE72197A81422B
:103C800000F048810C339342F8D101F067FE00F058
:103C900032BCCA4507D202F09DFA07AB23F81A00DE
:103CA0000AF1010AF5E700234B45AD4A06DA07A9F8
:103CB00031F8131022F813100133F5E709F1FF3939
:103CC00002EB49032232934203D0002123F8021F62
:103CD000F9E70122A34B77E202F071FA84F8E001E0
:103CE00002F06DFA84F8DF0100F005BCDFF8849281
:103CF000D9F800A002F063FA18B10228A8BF022088
:103D000000E001208AF80000D9F800301B78022B6F
:103D100018BF954A954B08BF954A1A60EBE3954A40
:103D2000814611689246097802296AD1DAF8003092
:103D300009F1080B019302F042FA0EF033FB8E49B1
:103D40000EF03CFC019B43F82B00DAF800B002F0C7
:103D500036FA09F10A030BEB830B0EF023FB8749BC
:103D60000EF02CFCDAF80030CBF80400019302F0DE
:103D700026FA0EF017FB82490EF020FC09F10E0B1B
:103D8000019B09F10109B9F1030F43F82B00CDD1D3
:103D9000B9F1070FDAF800B01AD102F010FA0EF0FC
:103DA00001FB75490EF00AFCCBF84400DAF800B0CC
:103DB00002F005FA0EF0F6FA6F490EF0FFFBCBF8B1
:103DC0004800DAF800B002F0FAF98BF84C0012E083
:103DD00002F0F5F90BEB09035870DAF800B002F0C5
:103DE000EEF90BEB0903D872DAF800B002F0E7F94C
:103DF0000BEB0903587509F10109B9F10A0FC7D195
:103E000079E3DAF800B002F0DAF90BEB0903587045
:103E1000DAF800B002F0D3F90BEB0903D872DAF844
:103E200000B002F0CCF90BEB090309F10109B9F17B
:103E30000A0F5875E5D15EE38146DFF838A109F134
:103E4000080BDAF80030019302F0C4F90EF0AAFA78
:103E50004B490EF0B3FB019B43F82B00DAF800B09E
:103E600002F0B8F909F10A030BEB830B0EF09AFA92
:103E700043490EF0A3FBDAF80030CBF804000193BD
:103E800002F0A8F90EF08EFA3D490EF097FB09F109
:103E90000E0B019B09F10109B9F1030F43F82B0047
:103EA000CBD1B9F1070FDAF800B01AD102F092F9CC
:103EB0000EF078FA32490EF081FBCBF84400DAF8C4
:103EC00000B002F087F90EF06DFA2D490EF076FB86
:103ED000CBF84800DAF800B002F07CF98BF84C001F
:103EE00012E002F077F90BEB09035870DAF800B032
:103EF00002F070F90BEB0903D872DAF800B002F0A7
:103F000069F90BEB0903587509F10109B9F10A0FB9
:103F1000C7D1F0E21B788BF8013002F050F989F834
:103F2000010002F04CF989F8020002F048F989F822
:103F30000300144BDAF80000134AC3F8B40100215F
:103F40008130C3F8B02102F06FFA104B80F001000D
:103F50001870D0E24C080020D4110020A490010871
:103F6000841C0020C507002035D400085000002024
:103F7000A9D00008C0110020000020410000C84264
:103F800000007A44F81A00208C0900201400002058
:103F900002F015F90B283FF678AE4FF0060A0AFB3F
:103FA00000F0D84BD0301B6803EB000A02F007F991
:103FB00003283FF66AAE8AF8060002F000F98AF894
:103FC000010002F0FCF88AF8020002F0F8F88AF822
:103FD000030002F0F4F88AF8040002F0F0F88AF81E
:103FE000050088E25379092B7FF64FAEDFF8209366
:103FF000D9F800A002F0E3F88AF80000D9F800A090
:1040000002F0DDF88AF8010002F0D9F8D9F80030A2
:104010006428A8BF6420187102F0D1F8D9F80030E4
:104020006428A8BF6420587102F0C9F8D9F800309C
:10403000FF28A8BFFF20987102F0C1F8D9F800A0AE
:10404000642828BF64208AF8070002F0B8F88AF8CC
:104050000200D9F800A002F0B2F88AF80300D9F8FB
:1040600000A002F0B7F8D8F80030AAF80A005B798F
:104070000A2B40F24082D9F8009002F0A0F889F8AB
:10408000090038E202F0A6F89F4B23F8090009F175
:104090000209B9F1100FF5D12DE253790F2B7FF4FE
:1040A000F4AD02F08CF8072881463FF6EEADDFF85C
:1040B00054A2DAF800B002F08DF80E2303FB09F9E0
:1040C0000BEB0903A3F82101DAF800B002F082F843
:1040D0000BEB0903A3F82301DAF800B002F07AF839
:1040E0000BEB0903A3F82501DAF800B002F067F83A
:1040F0000BEB090383F82701DAF800B002F05FF850
:104100000BEB090383F82801DAF800B002F057F846
:104110000BEB090383F82901DAF800B002F04FF83D
:104120000BEB090383F82A01DAF800A002F05CF82F
:104130000AEB0903C3F82B01DDE102F040F80F2878
:1041400081463FF6A2AD02F03AF8C9EBC90904EB8B
:10415000090383F8D00003F1D00902F030F889F8A0
:10416000010002F02CF889F8020002F028F889F822
:10417000030002F024F889F8040002F020F889F81E
:10418000050002F01CF889F8060002F057FBB2E1C6
:104190003378590700F1AF8106F076F904F082FA1E
:1041A0000DF0B8F9A7E133785A0700F1A4814FF474
:1041B000C873A5F8AC309EE133785B0700F19B81B2
:1041C000524B1A7842F004021A7094E1337858077F
:1041D000E4D5B4E1A06002F007F802F0FBFD8AE14B
:1041E00001F0F8FFA4F8580101F0F4FFA4F85A0117
:1041F00001F0F0FFA4F85C017DE101F0E0FF84F83C
:104200007A0101F0DCFF84F87E0101F0D8FF84F828
:104210007D0101F0D4FF84F87F016CE101F0DAFF49
:10422000A4F8800101F0D6FFA4F8820101F0C7FFD5
:1042300084F8840101F0CEFFA4F886015BE101F06F
:10424000BEFF84F8900101F0C5FFA4F89A0101F0C7
:10425000C1FFA4F8960101F0BDFFA4F8980101F098
:10426000AEFFDAF8003084F891015B79082B40F258
:10427000428101F0AFFFA4F89C0101F0ABFFA4F86C
:104280009E0138E192F805B00323BBFBF3FBBBF1C1
:10429000120F3FF6FAACDFF87C904FF0000ADA45D7
:1042A00080F0298101F08BFF89F8A00101F092FFD5
:1042B00040F2ED23984205DD40F6CA039842A8BFBC
:1042C000184601E040F2EE20A0F2EE20192390FB08
:1042D000F3F089F8A1010AF1010A09F10209DEE708
:1042E00001F06DFF84F8920105E101F068FF04EB35
:1042F000090309F10109B9F1080F83F88801F4D124
:10430000F9E000BFC011002054130020460800202F
:104310002C1200204C080020019001F050FF607129
:10432000019BA36001F060FF02F054FD01F047FF24
:1043300084F8900101F04EFFA4F8580101F04AFF03
:10434000A4F85A0101F046FFA4F85C0101F042FF15
:10435000A4F8800101F03EFFA4F88201CBE053797C
:104360004FF0070AB3FBFAF2C2EBC2029A1A12F03C
:10437000FF0F7FF48AACB3FBFAFABAF1000F00F03A
:10438000BA8001F01CFF5FFA80FB4FFA8BF001F05E
:104390008BFF0AF1FF3A5FFA8AFA814600283FF460
:1043A00074AC80F800B001F015FFA9F8020001F02C
:1043B00006FF89F8040001F002FF89F8050001F00A
:1043C000FEFE89F8070001F0FAFE89F80600D4E73E
:1043D000DFF8D89209F1400A01F0FCFEA9F8B0021A
:1043E00001F0EDFE89F8B20201F0E9FE09F10409DD
:1043F00089F8AF02D145EFD17DE001F0E0FE1F2842
:104400003FF643ACD8F800305B79082B7FF43DAC25
:1044100000F18C0A01F0DEFE04EB8A0900F03F0097
:10442000A9F8020001F0D6FEB9F80220800100F4DC
:10443000FE531343A9F8023001F0C1FE000104F855
:104440002A0001F0BCFE14F82A3000F00F001843D7
:1044500004F82A0001F0B3FE89F8010002F036FDED
:1044600049E0012385F8B83145E001F0A8FEFF28B6
:10447000824623D100238DF81B309DF81B30052B7D
:1044800015D89DF81B20774B9DF81B10012003EBDE
:10449000C101496800FA01F153F8320089B248229B
:1044A00001F0ABFE9DF81B300133DBB2E3E76E4851
:1044B0004FF48051042201F0A0FE1CE005283FF6D5
:1044C000E4AB002002F0C8F802F0A2F8D8F80030FF
:1044D000186802F065F8D9F8000001F0C5FE5046F2
:1044E00008F0E8FA0A2001F0FAFF0BF0F9FAD8F820
:1044F000003083F849B0002002F0AEF802F088F8EE
:10450000D8F80030002283F8482095F8B8314BB134
:10451000386802F045F80AF099FA01F0EAFF534AC8
:10452000534BDA60534B4C379F427FF4A6A9524B52
:104530009B68002B00F09380504898478FE001F073
:104540000DFADBE70C2803D14D4802F0A1F859E041
:104550000A2801D00D2857D14A4C4B4804F1BC061B
:1045600002F096F83046232110F0ADFE10B1801B0A
:10457000C4F8B800D5F8B830002B38D0591E705C9C
:10458000404A202801D10B46F6E7C2F8B830134460
:10459000002283F8BC203D4B3D4CD3F800A0D4F85A
:1045A0000090DFF8E080484610F09AFE08F1BC0762
:1045B000064649463846324610F09AFE354B38B921
:1045C00008EB060292F8BC2052445278520703D0FE
:1045D00010349C42E3D306E09C4204D2701CE36892
:1045E0003844984702E02C4802F052F800232B4848
:1045F00000213022C5F8B83010F032FE2848037888
:10460000002B94D0274809E07F2811D1013BC4F842
:10461000B83000222344244883F8BC2002F038F844
:10462000FFF794B80C288FD07F2804D1FFF78EB8FD
:104630002F2B3FF68BA8A0F12002D2B25E2A3FF6C4
:1046400085A813B920283FF481A85A1C2B44C5F82B
:10465000B82083F8BC0002F014F8FFF777B811B067
:10466000BDE8F08FCCA50108000801400400FA0560
:1046700000ED00E07C1C0020A8110020B21C0020EE
:1046800006A60108F81A00208EAE01085C00002082
:10469000D48E0108A490010811A60108B41B0020C3
:1046A0002931002001A601082DA601084C08002090
:1046B0002DE9F04F4728ABB0044600F0858600F2A4
:1046C000CE802E2800F0348667D8222800F0E984B6
:1046D00023D8032800F0628214D8012800F0538206
:1046E000022840F0C186042001F0B6FF422001F00C
:1046F0007EFF542001F07BFF462001F078FF4C2024
:1047000000F0E8BD042800F05382052840F0AC8694
:104710001A2001F0A1FF00245CE2282800F0A18506
:1047200015D8242800F08885262840F09D86D34C93
:10473000062001F091FFB4F8580101F090FFB4F8A1
:104740005A0101F08CFFB4F85C0100F0D4BD2A28B6
:1047500000F09A852C2840F08786C84C0C2001F088
:104760007BFF94F8900101F042FFB4F89A0101F048
:1047700076FFB4F8960101F072FFB4F8980101F0E9
:104780006EFF94F8910101F032FFB4F89C0101F042
:1047900066FFB4F89E0100F0AEBD3A2800F0138326
:1047A0001DD8342800F0B6840DD8302800F0D68506
:1047B000322840F05986012001F04EFFAF4B93F8AC
:1047C000920100F087BD362800F09885382840F027
:1047D0004B86042001F040FFA84C00F033BD402878
:1047E00000F07B8511D83B2800F054843D2840F030
:1047F0003B86A24C022001F02FFF94F8E00101F06B
:10480000F6FE94F8DF0100F065BD452800F0FF8555
:1048100000F2C985422840F02786984C102001F00C
:104820001BFF607901F0E3FEA06801F021FF94F81E
:10483000900101F0DCFEB4F8580101F010FFB4F86B
:104840005A0101F00CFFB4F85C0101F008FFB4F864
:10485000800101F004FFB4F8820100F04CBD6F2824
:1048600000F00E8300F21A81662800F0F18100F258
:10487000DD804D2800F00E8515D8492800F0FA8219
:104880004B2840F0F1857D4C042001F0E5FE94F8C2
:10489000D60101F0ACFE94F8D70101F0A8FEB4F8FF
:1048A000D80100F028BD642800F0AD81652840F0F3
:1048B000DB850B2001F0D0FE714B724C188801F0A3
:1048C000CEFE208880B201F0CAFE6F4B1B68C3F396
:1048D000C000C3F38002800040EA4200C3F34002FC
:1048E0001043C3F3401240EAC20003F01003184320
:1048F00001F0B5FE654BA4781A8812F0010F0CBFC9
:104900000020022012F0020F0CBF0021042112F03F
:10491000040F0CBF0023102303935D4B02F0080A21
:104920001B6812F0400F03F0C00B03F480794BEAD0
:104930000A0A0CBF0026202603F4805812F0100F3C
:104940004AEA090A019003F4005C0CBF00204FF40E
:1049500000704AEA080A12F0200F029103F4804E18
:104960000CBF00214FF480614AEA0C0A12F4807FE8
:10497000049605900CBF00264FF4006603F4003047
:1049800003F400474AEA0E0A0796089003F48036BB
:104990004AEA070A06914AEA060A03F48021089EB9
:1049A00009914AEA060A099E03F400254AEA060A22
:1049B00003F480104AEA0505284303F0007303431B
:1049C000344812F4007F06780198C6F3800643EA63
:1049D0000603029E43EA0003039843EA0603049E8B
:1049E00043EA0003059843EA0603069E43EA0003F0
:1049F000079843EA060343EA00030CBF00214FF483
:104A0000001112F4806F43EA01010CBF00234FF044
:104A1000806312F01B0F41EA03014FF000000CBF4E
:104A200000234FF0006319430346FCE0692800F0BF
:104A3000AC810AD8672800F03381682840F01485DB
:104A4000102001F009FE002497E16D2800F0B281EA
:104A500000F2E2816C2840F007850F4C062001F03F
:104A6000FBFD208801F0FBFD608801F0F8FDB4F942
:104A700004000A2390FBF3F0FAE100BF4C08002089
:104A8000C4110020B81C0020EC070020F40700200F
:104A9000F00700202B31002064110020772800F05F
:104AA0008B834BD8732800F0A2833CD8702800F089
:104AB0001182722840F0D884C54C162001F0CCFD3C
:104AC000B4F8960101F0CBFDB4F8400101F0C7FD48
:104AD000B4F8420101F0C3FDB4F8440101F0BFFD98
:104AE000B4F8D80101F0BBFD002001F080FD0020EA
:104AF00001F07DFD002001F07AFD94F8850101F0C0
:104B000076FD94F8920101F072FD002001F06FFD36
:104B1000B04B1B68B3F95E000A2390FBF3F080B240
:104B200001F09DFD8EE3742800F01483752840F099
:104B30009B842F2001F090FDA74CA3E2A02800F059
:104B40006D830AD8782800F0B7807B2840F08C84E9
:104B50003C2001F081FD00243EE2F12800F0E780D6
:104B6000FE2800F04F83F02840F07E84994C04200A
:104B700001F072FD2368B3F8620001F070FD236854
:104B8000B3F86000B7E3032001F066FD002001F0F8
:104B90002EFD204601F02BFD0D209BE301F05CFD76
:104BA000022001F024FD012001F021FD022091E30B
:104BB000062001F051FD412001F019FD462001F0D1
:104BC00016FD4E2001F013FD412001F010FD834B36
:104BD000187890E3824B185D013401F008FD0B2C2E
:104BE000F8D100247F4B185D013401F000FD082C42
:104BF000F8D100247C4B185D013401F0F8FC072C3F
:104C0000F8D100F015BC072001F026FDE72001F0E7
:104C1000EEFC6F4B587901F0EAFC002001F0E7FC54
:104C2000042000F003BCA3420CD2704A9D5C012218
:104C300002FA05F50D4218BF9A4003F1010318BFAF
:104C40001043F0E701F014FD614B93F8AC0741E32A
:104C5000122001F001FD664B00241B88B3F5806F24
:104C600094BF01250825634BE05E023490FBF5F00C
:104C700080B201F0F4FC062CF5D15F4C208C01F0E1
:104C8000EEFC608C01F0EBFCA08C5C4C01F0E7FCCE
:104C9000208801F0E4FC608801F0E1FCA0882AE3B0
:104CA000102001F0D9FC0024554B185D013401F0AF
:104CB0009EFC102CF8D1BBE3702001F0CDFC002647
:104CC0000E247443434D01362B682344B3F821016D
:104CD00001F0C5FC2B682344B3F8230101F0BFFCAD
:104CE0002B682344B3F8250101F0B9FC2B68234459
:104CF00093F8270101F07BFC2B68234493F82801EB
:104D000001F075FC2B68234493F8290101F06FFC36
:104D10002B68234493F82A0101F069FC2B681C449A
:104D2000D4F82B0101F0A4FC082EC9D180E3702037
:104D300001F092FC264C04F1700594F8D00001F0CB
:104D400056FC94F8D10001F052FC94F8D20001F026
:104D50004EFC94F8D30001F04AFC94F8D40001F022
:104D600046FC94F8D50001F042FC073494F8CF00DB
:104D700001F03DFCAC42E0D15AE3224B185D013416
:104D800001F035FC102CF8D152E31B4D002495F8AE
:104D90002600400000F0FE0001F05EFC95F8263091
:104DA0009C4280F04583184B33F8140001F057FC07
:104DB0000134F3E7062001F04FFC144B186801F0B2
:104DC00057FC134B5AE0042001F046FC114B31E232
:104DD0004C080020C0110020FF9101082C31002058
:104DE000D39B0108DF9B0108B79B0108BB1C002077
:104DF0001C0000201E2B0020B81C002040080020B2
:104E00006C1300200C13002002080020FC07002077
:104E1000901100206C110020072001F01DFCB14B07
:104E20004FF6FF741888FF28A8BFFF20C0B201F01A
:104E3000DEFBAD4B1868A042A8BF204620EAE07018
:104E400080B201F00CFCA94B188D01F008FCA84BB6
:104E500093F88521A74B42B11B680A205843A04212
:104E6000A8BF204620EAE07002E0186800F30F00B7
:104E700080B240E2022001F0EFFB9F4B18883AE23B
:104E80009E4C0B2001F0E8FB23680025187801F008
:104E9000AEFB23682646587801F0A9FB3368974C8F
:104EA0002B441879013501F0A2FB032DF6D12368BC
:104EB000D87901F09CFB2368987801F098FB23686F
:104EC000D87801F094FB2368588901F0C8FB236867
:104ED000587AFFE18A4D1E2001F0BEFB2B680024AA
:104EE0001B78022B65D12B6804F1080253F82200CD
:104EF00084490DF0AFFA10F013FD80F30800C0B242
:104F000001F075FB2B68804903EB8403D86A0DF030
:104F1000A1FA10F005FD80F30800C0B201F067FBB4
:104F20002B6804F10E0253F8220078490DF092FA32
:104F300010F0F6FC80F30800C0B2013401F057FB1A
:104F4000032CD0D1072C2B6821D1586C6D490DF062
:104F500081FA10F0E5FC80F30800C0B201F047FBD5
:104F60002B686849986C0DF075FA10F0D9FC80F345
:104F70000800C0B201F03BFB2B6893F84C000DF029
:104F800011FA10F0CDFC80F30800C0B20BE023440E
:104F9000587801F02CFB2B682344D87A01F027FBCA
:104FA0002B682344587D013401F021FB0A2CC9D120
:104FB0003EE22B682344587801F019FB2B68234408
:104FC000D87A01F014FB2B682344587D013401F09A
:104FD0000EFB0A2CEDD12BE2494D04F108022B689F
:104FE0004A4953F822000DF035FA10F099FC80B2CE
:104FF00001F035FB2B68454903EB8403D86A0DF0BB
:1050000029FA10F08DFC80B201F029FB2B6804F125
:105010000E0253F822003D490DF01CFA10F080FCFE
:10502000013480B201F01BFB032CD5D1072C2B6877
:1050300016D1586C35490DF00DFA10F071FC80B2A4
:1050400001F00DFB2B683149986C0DF003FA10F05C
:1050500067FC80B201F003FB2B6893F84C000BE077
:105060002344587801F0FBFA2B682344D87A01F0E6
:10507000F6FA2B682344587D013401F0F0FA0A2C2B
:10508000D4D1D5E114F8010F002800F0D18101F04E
:10509000AEFAF7E7012001F0DFFA194B1B68187828
:1050A00018E1502001F0D8FA0024154B04F1200239
:1050B0001B680C2103EB82035D1C154A5B780134ED
:1050C00001FB0323187A01F092FA687801F08FFA55
:1050D000A87801F08CFAE87801F089FA142CE4D170
:1050E000A6E100BF282B0020342B0020B81C002094
:1050F0004C080020302B0020BC1100202C12002076
:10510000C0110020000020410000C84200007A4485
:10511000A4900108482001F09FFA002506266E435E
:10512000C44BD0361B6801351E44B07901F05FFADC
:10513000707801F05CFAB07801F059FAF07801F07B
:1051400056FA307901F053FA707901F050FA0C2DCB
:10515000E4D16DE1002701240025B74B9A789542F0
:1051600022DA0333E95C0023B44A03EB02089A5CB9
:105170008A4204D00C33B3F5AE7FF5D112E0D8F8F3
:10518000040010F0ADF881460CB9264601E0074452
:1051900008E04E4506DAD8F80430985D01F027FAA9
:1051A0000136F6E70135D8E7002C00F04181F8B26E
:1051B00001F052FA0024CFE79F4D0024A87801F0B7
:1051C0004BFAAB789C4280F033819D4BE05C00232E
:1051D0009A4A99189A5C824204D00C33B3F5AE7F98
:1051E000F6D102E0087A01F002FA0134E9E708207A
:1051F00001F032FA0124E0B2013401F0F8F9092C8F
:10520000F9D115E1082001F027FA00248D4B185B35
:10521000023401F024FA082CF8D109E10C2001F045
:105220001BFA894B186801F023FA884B186801F0C3
:105230001FFA874B1868F9E0042001F00DFA854B3E
:105240009868F3E094F87A0101F0D1F994F87E01BE
:1052500001F0CDF994F87D0101F0C9F994F87F01CE
:1052600038E07C4C072001F0F7F9B4F8800101F038
:10527000F6F9B4F8820101F0F2F994F8840101F032
:10528000B6F9B4F8860136E0012001F0E5F9714B7A
:1052900058791FE0684E704C96F82600002500EB08
:1052A0004000C0B201F0D8F996F8263002349D4291
:1052B00080F0BE8014F8020C01F099F914F8010C8A
:1052C000013500EB800000EB800000F2EE2001F0E1
:1052D000C6F9E9E701F08BF9AAE0082001F0BCF972
:1052E00000245C4B234493F88801013401F07FF9DA
:1052F000082CF6D19CE001F0B2F999E04E4B554CE8
:1053000093F82A0004F12805C0EBC000C0B201F0F8
:10531000A3F994F8F6010023504AD25C904200F0C1
:10532000A5800C333C2BF7D10834AC42F1D17FE09F
:10533000402001F091F9474C04F14005B4F8B00267
:1053400001F08DF994F8B20201F051F9043494F8A7
:10535000AF0201F04CF9AC42F0D169E0E02001F07D
:105360007BF93C4C04F18005B4F83202043400F0BF
:105370003F0001F074F9B4F82E02C0F3861001F07A
:105380006EF994F82C02000901F031F994F82C021E
:1053900000F00F0001F02BF994F82D0201F027F92D
:1053A000AC42E1D144E02E4C0D2001F055F907F05C
:1053B00091FC01F01CF9208801F05AF9E06801F035
:1053C00057F901F0F7FD31E000F00EFF04468420AC
:1053D00001F042F9204601F04BF9214BDD6804F160
:1053E0008003AB428CBFC4EB0505802508F02AFE84
:1053F00020462A460AA907F0A1FC00240546AC4233
:1054000016DA0AA9085D01F0F2F80134F7E7132073
:1054100001F022F90024134B185D013401F0E7F884
:105420000B2CF8D1002001F023F9002001F020F925
:10543000012032E0C0110020B81C0020A490010817
:10544000BB1C0020FC140020E8F7FF1FECF7FF1F37
:10545000F0F7FF1F4C080020EC090020E41C00209E
:1054600020000020D39B0108002016E001F0BFF8C7
:10547000B4F8F80101F0F3F894F8FA0101F0B7F884
:1054800094F8FB0101F0B3F894F8FD0101F0AFF8D6
:1054900094F8FC0101F0ABF846E72BB0BDE8F08FC3
:1054A000084BDA68D10709D4DA68520708D4DB68F8
:1054B00013F0100F0CBF0420032070470120704729
:1054C000022070470020024030B5002213462149D7
:1054D00014180C5D83EA0423082413F4004F4FEAE8
:1054E000430318BF83F4815304F1FF3418BF83F0E2
:1054F000010314F0FF049BB2EFD10132192AE6D167
:1055000000F119028D5C00F11A028A5C02EB05229F
:1055100092B29A421DD1104B1D782346DAB2AA42AC
:1055200014D2441C04EB4202D2B28C5C01328A5C7D
:1055300002EB0424A4B24FF4AF625443074A24138D
:1055400004F5487422F813400133E7E7044B0122C5
:105550001A7030BD201D002017030020421D0020BE
:10556000C407002003788B4283BF034B03EB410148
:10557000488C0020704700BF201D002003788B421C
:105580000AD9064B1A78064B53F8210002B140089D
:1055900000F5777080B2704700207047692E0020B8
:1055A000AC06002007299ABF024B33F821000020E7
:1055B000704700BFA4070020024B33F81100C00859
:1055C000704700BF6C07002008B5074B53F8210057
:1055D0000CF0E8FE05490CF03DFF05490CF032FEE9
:1055E0000DF024F980B208BDE00600200000203F45
:1055F00000005C44014B33F811007047841C00200C
:10560000014B33F811007047C8070020F8B5074672
:1056100000F01BFF2B4E2C4CF36B2C4DC31AB3F533
:10562000FA5F3364F06302D9002323702B70237870
:105630001BB9A12F04BF01222A702A781AB1FFB228
:10564000F75401332370224B21781A781F46914278
:1056500036D1204B1B78052B02D0062B03D02CE033
:105660000020FFF731FF73781E2B26D138780022F7
:1056700001381346D1B2814219DA775C19463B46AC
:10568000082781EA030C1CF0010F1CBF83F01803EC
:10569000C3F3460307F1FF370CBF5B0843F08003F9
:1056A00017F0FF07C1F34701EBD10132E2E7325CAB
:1056B000934202D10320FFF707FF00232B702370D2
:1056C000F8BD00BF201D002015030020140300209A
:1056D000160300201803002010B5044600F0B5FEA4
:1056E0000D4B41F288315A6C5864821A8A429A648E
:1056F00084BF002283F84C2093F84C30074AE4B270
:105700000F2BD45403D1064B01221A7010BD024A4C
:10571000013382F84C3010BD201D00209906002076
:105720009006002010B5044600F08FFE0D4B41F2AC
:1057300088311A6D1865821A8A425A6584BF002220
:1057400083F8582093F85830074A142BD45403D1C7
:10575000064B01221A7010BD024A013382F85830FC
:1057600010BD00BF201D00208D0700208C070020E9
:1057700010B5044600F069FE244AD36DD065C31A03
:10578000B3F57A6F84BF002382F8603092F86030FE
:1057900033B9A82C39D11E490B701E490B8006E085
:1057A000022B02D11C490C7001E0242B01D81B49AB
:1057B000CC540133DBB282F86030174A12780232DF
:1057C0005200934217DA134AE0B2138883EA0020AA
:1057D000082310F4004F4FEA400018BF80F48150B6
:1057E00003F1FF3318BF80F0010013F0FF0380B214
:1057F000EFD1108010BD0132934206D1034B00223D
:1058000083F86020024B01221A7010BD201D002079
:1058100041070020440700204207002046070020DF
:1058200010B5044600F011FE0E4B40F6AC515A6E16
:10583000821A8A42C4BF002283F8682093F8682045
:1058400009498C541AB90F2C0BD10649486601320C
:10585000D2B283F86820192A044B0CBF012200221F
:105860001A7010BD201D002028070020DC06002033
:10587000031E10B50C4603DA2D2201F8012B584205
:105880000A2201F0E1F900230370204610BD30B573
:1058900087B005460C4603A800210C220FF0E0FC5F
:1058A000284600210CF092FF20B1284628490CF030
:1058B000C9FC03E0284626490CF0C2FC25490CF03F
:1058C000C9FD0CF08DFF054685EAE570A0EBE5709B
:1058D0006946FFF7CDFF002DACBF20232D2368467E
:1058E0008DF80C300FF0FCFC012807D130238DF827
:1058F0000D308DF80E308DF80F300CE0022805D1F8
:1059000030238DF80D308DF80E3004E0032804BFED
:1059100030238DF80D30694603A80FF0C7FC03A8AB
:105920000FF0DEFC0338C5B22A4603A920460FF06B
:1059300001FD00236355204607490FF0B7FC03A97A
:10594000204629440FF0B2FC204607B030BD00BF0E
:105950006F12033A00007A44C4AA01080120002112
:1059600000F05CBEF0B5144B144C1E682378042B79
:105970001FD85D1C06EBC3039A1CEDB207D05188FB
:1059800011F0010203D008420CBF00220122D2070D
:105990000DD59F7800230A4A9918D25C974203D00C
:1059A0000C333C2BF7D102E025704868F0BD2B4644
:1059B000DDE723700020F0BD801C0020F61A0020D7
:1059C000E41C00200A88F0B54B888F880E89CD88AA
:1059D000002A3AD1048C834A24F001042404240CC4
:1059E0000484018B048C89B221F0F30141EA06168C
:1059F000B6B29042A4B246EA070743F0010315D0BD
:105A000002F50062904211D0B0F1804F0ED0A2F5A5
:105A1000983290420AD002F58062904206D002F598
:105A20008062904218BF24F00A0401D124F00204DD
:105A3000234307830384038B23F00C031B041B0CF9
:105A40000383038B9BB21D4344E0042A44D1048C9E
:105A5000644A24F010042404240C0484018B048C74
:105A600021F440710905090D41EA063189B241EA84
:105A700007279042A4B2BFB212D002F50062904252
:105A80000ED0B0F1804F0BD0A2F59832904207D0E3
:105A900002F58062904203D002F58062904207D105
:105AA00024F0200444EA03139BB243F0100304E003
:105AB00024F0A00443F01003234307830384038BE3
:105AC00023F440631B041B0C0383038B9BB243EA48
:105AD0000525ADB20583F0BD082A018C3ED121F425
