:020000040800F2
:10000000005000202D560108D95601080140010872
:10001000D9560108D9560108D95601080000000038
:10002000000000000000000000000000D956010898
:10003000D956010800000000D9560108D93F01082F
:10004000D9560108D9560108D9560108D9560108D0
:10005000D9560108D9560108493F0108453F010812
:10006000D9560108D9560108D9560108D9560108B0
:10007000D9560108D9560108053F0108D95601088B
:100080004D3F0108D9560108D9560108D956010833
:10009000D9560108D9560108D9560108413F01082F
:1000A000D9560108C13E0108D9560108D13E0108C0
:1000B000B13E0108A13E0108913E0108893F0108B7
:1000C000813F0108853F01087D3F0108D95601089D
:1000D000D9560108F93E0108ED3E0108E13E01084C
:1000E000E93F0108D9560108D9560108000000006F
:1000F0000000000000000000000000000000000000
:0C01000000000000000000005FF808F1A3
:100110002DE9F04F754B764FA1B03B6000237B601B
:1001200009F0BEF818B913F0D5F809F0DBF80CF0B7
:1001300017FF704B704C1A78704D42F001021A7024
:100140000023089309930A934FF4E0130B93236859
:10015000297B43F480332360A36943F01003A36138
:10016000236803F400330993089B01330893099B28
:100170001BB9089BB3F5A06FF2D122685E4B12F455
:10018000003201D0022315E0186840F00100186029
:100190000892236803F002030993089B0133089334
:1001A000099B1BB9089BB3F5A06FF2D123689E078A
:1001B00039D501230A93524B52481A6842F0100273
:1001C0001A601A6822F003021A601A6842F00202EA
:1001D0001A606368636063686360636843F48063A4
:1001E0006360494B1A68043B22F070425A60474AE8
:1001F0001060606820F47C106060586840F0004037
:100200005860D86820F40040D8609B68180449BF43
:100210003F4B4FF4E01313604FF480130B930A9B92
:10022000012B01D117E0FEE7022B18D169B10B9B1E
:10023000B3F5801F02D14FF4A01305E00B9BB3F57B
:10024000E01F02D14FF400130B9361680B9B0B432B
:1002500043F4803302E0636843F46013636023680F
:1002600043F0807323602168234B8901FBD55968D3
:1002700021F003015960596841F002015960636837
:100280001D4903F00C03082BF9D14868214B00F0FD
:100290000C00042803D0082804D01A4900E0116893
:1002A000196011E048684E68C0F38340F60300F11E
:1002B000020001D4184905E0496811F4003F1168B3
:1002C00018BF49084843186061681448C1F3031116
:1002D000014491F818A0196821FA0AFAC3F800A09D
:1002E0001368084A93421BD101221DE07B5000088D
:1002F000081600206C3500200010024098020020F3
:100300000020024000127A0004100140100000207A
:10031000001BB7005000002000093D0000A70108A5
:100320005A4A934202D10222594B1A70DFF8909137
:10033000584B20AEC9F80C30A369DFF880B143F008
:100340000103A361636A4FF00008BB60636A52480F
:1003500043F080736362A36943F01C03A3614FF60B
:10036000FF7326F82C3D31468DF8568005F0BBFE14
:100370005846314605F0B7FE3146484805F0B3FE11
:10038000474B30465A6842F000725A600EF07AFBD2
:10039000444A159B4146B3FBF2F343480C22FB60F1
:1003A00017F054FC4FF47A72404BBAFBF2FA0AF1A0
:1003B000FF325A60F02289F823200722C3F8088010
:1003C0001A60AB68DFF8FC90DFF8FCA0C9F80030D9
:1003D000374B0FCB86E80F00A369159843F008034D
:1003E000A361A36916A943F00803A3610823CBF80E
:1003F00010301023CBF8103005F075FE179818A9AF
:1004000005F071FED9F800301B0763D59AF89031DA
:10041000012B5FD8274B9AF891219B6813F0805AE3
:1004200000F049864346002B54D0234ADFF88CB0B5
:100430001068DFF864801023CBF814303146159033
:100440004046039305F04FFE0822C8F810203C20D8
:1004500009F0F3FE039BCBF810304FF0000B95F83A
:1004600091319B4532DA154B08261E617820C8F879
:100470001460039309F0D6FE039B78205E61C8F8F0
:10048000106009F0CFFE0BF1010BE8E7001BB7008D
:10049000983500200005FA050008014000100140D1
:1004A0000000014040420F006035002010E000E0F5
:1004B00028A701080816002038A70108000C0140F1
:1004C00000ED00E0D400002098020020BAF1000FF7
:1004D00000F0FA85642009F0B0FEA02288480021CF
:1004E00017F0B4FBE369002243F00703E361A3695B
:1004F00043F4006343F00C03A361824B002603F135
:100500001001565401320E2AF7D1D9F80040FF22CB
:100510009A77DA7783F8202083F8212004F04003CB
:100520000493794A794B31461A6079483C2217F096
:100530008DFB052331460C20764A48438E5CDFF85C
:10054000D0E1049A00F80E603AB91E3E012E04D89C
:10055000FF26013B00F80E60DBB201310529EAD12C
:100560006D4A95F8059013706C4A6D4B7A62C032F3
:10057000BA626C4A83F8009002EBC902614B527870
:10058000A00648BF0122DA620023674A40F2DC512C
:1005900099520233102BF8D1644B4FF028081E6893
:1005A000B6F90C0014F00AF8614914F00FF9386339
:1005B0008346B6F90A0014F001F85D4914F006F913
:1005C0005C4B0646186031465B4813F041FF14F05F
:1005D0000FFA59490690304613F03CFF14F008FA20
:1005E000002605903746404613F0E8FF5349039034
:1005F00014F038F8524914F0E9F8029005F0BCF90B
:1006000001460BF1004014F02DF8DDF808C08246D9
:10061000604605F03FF9039A84461046CDF808C0BD
:1006200005F000FBDDF808C00146604614F01AF83A
:100630000146504613F00CFF424A069B02EB88022B
:100640009845824642F8A00C0DDB059A90450ADADF
:10065000394614F0A5F900B157465046314614F01A
:10066000BDF900B1564608F10108B8F18C0FBAD1B6
:100670003846002114F0B2F910B907F1004800E043
:10068000B8463046002114F0A9F910B906F100412E
:1006900000E03146404614F083F938B13846002175
:1006A00014F09CF950B907F1004608E030460021EB
:1006B00014F094F918B906F1004600E03E46224BCA
:1006C0000EA800211C221E6017F0C0FA14F4007856
:1006D0001E4E04F400673BD0A1040AD43FB195F844
:1006E000842106F10C03012A18BF334603E0069665
:1006F00002E006F10C03069315AB14932AE000BF49
:10070000C03300200816002090040020D81E0020CE
:10071000781F002037C50108751F0020A80200209F
:10072000AE0D00201CC60108B40D0020A40D002051
:1007300000002041C40D00200000B442DB0F4940FE
:1007400000003443840F0020800F002000A7010820
:10075000CDF81880B9F10E0F04D009F0EF09B9F106
:10076000080F02D101238DF84A30012009F0ECFA7C
:1007700018B14088003018BF0120C4F340038DF841
:100780003E30049B00F0010013F1000AC4F3403333
:1007900018BF4FF0010A8DF83830C4F3C0338DF81C
:1007A0003D008DF840A08DF83B3027B195F884715D
:1007B0007A1E57425741BF48C4F300438DF8413079
:1007C000C36A18F1000818BF4FF00108003318BFC2
:1007D00001238DF84330C4F300538DF84430B5F84D
:1007E000463104F00101ADF84830B5F85231C4F398
:1007F000C002ADF84630C4F380438DF83F30B5F801
:100800005031B5F8445114F4805F8DF83C708DF888
:1008100039108DF83A208DF84280ADF84C30ADF8A3
:100820004E50834604D0A448B0F84C01ADF84E00B9
:10083000B3F5FA7F84BF0023ADF84E309E4B9F4C3A
:1008400093F8D4018BF8340000208BF835006070E9
:100850009DF84A00002814BF0223002301B902B109
:10086000013306EB8303DB6B4FF0000A0593CDF8F1
:1008700010A005994FF6FF7331F80A209A4200F054
:100880008081D3B28E4F9DF83D101D017C1919B1A6
:10089000991E012940F26F819DF8401021B17959CC
:1008A0008848814200F067819DF841E0BEF1000F69
:1008B00004D079598348814200F05D819DF83E1053
:1008C00039B161688048814203D12189102900F043
:1008D00052819DF83B1039B161687B48814203D158
:1008E0002189022900F047819DF83C1039B16168E7
:1008F0007648814203D12189022900F03C81DDF84C
:1009000050C0BCF1000F0FD06068DCF800108842C6
:100910000AD12189BCF80400884200F02C81BCF87F
:100920000600884200F027814FEA1228B8F1020F32
:1009300002D19DF8382004E0B8F1010F04D19DF8F0
:100940003920002A00F017819DF8432062B19DF8FC
:100950004A204AB9A3F10802012A05D87A595C490C
:100960008A4208BF4FF004089DF8442062B19DF808
:100970004A204AB9BEF1000F02D00C3B012B01E026
:10098000043B032B40F2E080B8F1010F3DD1FF237F
:100990008BF87C308BF87D30637B4FF00009228927
:1009A00060688DF8563015A902238BF88090CBF83B
:1009B0008C408DF85730ADF854208BF83890CBF838
:1009C0003C90CBF84090CBF84490CBF878908BF8E3
:1009D0007E908BF87F9005F086FB7859A17A4A4685
:1009E0000EF006F820464946424608F0E4F9394B35
:1009F0003949CBF89030394BCBF89890CBF89430FC
:100A000020460A1D0AF05AFDB5E0B8F1020F43D1A5
:100A10000499334ACBB21C214B434FF0000102EB47
:100A2000030989F8021089F80A1004994FF0010CA3
:100A300089F8011002F803C0637B22896068C9F855
:100A40000C4015A98DF85630CDF808C0ADF85420EB
:100A50008DF8578005F047FB7859A17A00220DF0F8
:100A6000C7FFDDF808C020466246002108F0A3F960
:100A70001C4B0022C9F810301B4BC9F81820C9F8CC
:100A80001430204609F1100109F114020AF016FD94
:100A9000049B013304936EE0B8F1030F51D19DF82C
:100AA0003F301BB39BF83650204608214FF6FF72AB
:100AB000002338E008160020980200203D16002090
:100AC0003CC501080004004000080140000C014042
:100AD000002C01400F4A000898160020114B000816
:100AE000881600202DEA0008E94A0008BDF84C20CD
:100AF0009BF83650B2F5FA7FBDF84E300DD9B649A5
:100B00002046B1FBF2F292B2082108F07EF90BEB1D
:100B10008505C5F86001B14B0CE0B1492046B1FB39
:100B2000F2F292B2012108F070F90BEB8505AD4BA2
:100B3000C5F86001C3609BF8363001338BF836305E
:100B400019E0B8F1040F16D1BDF84630A44A20468A
:100B500092FBF3F20121BDF8483092B29BF8355078
:100B600008F053F99BF835300BEB85050133C5F8D8
:100B700090018BF835300AF1020ABAF11C0F7FF4AC
:100B800078AE9BF83530984F8BF8B031974B0025F5
:100B90001C783D70A4F11703022B1AD8DBF824301F
:100BA0000021585903EB050813F0F0FE18B1DBF8EB
:100BB0002C306BBB25E08E4B05EB030E98E80F0045
:100BC0008EE80F003B7810350133C02D3B70E5D126
:100BD000EDE7884B13F834C003EBC403D3F804806B
:100BE00087F800C0B8F1000FE1D06545DFDA804A30
:100BF0002B0103EB020E43440FCB01358EE80F00AF
:100C0000F3E77D4B1A68994612F4805F23D11CE00C
:100C100006EBC40696F84C00784B356D1870002D25
:100C2000EFD000238342ECDAC3EBC3016A18D2F899
:100C300000C0DFF800E2013341F80EC001EB0E0600
:100C40009188B1809279B271ECE704F0EF03082B40
:100C50006B4B23D124E03F78012FF6D9694D002654
:100C6000BE4205F11005F0DA55F8100C4FF07C513A
:100C700013F0F8FC4FF07C5145F8100C55F8140CAB
:100C800013F0F0FC4FF07C5145F8140C55F80C0CA7
:100C900013F0E8FC013645F80C0CE1E70E2C08D106
:100CA0001A78182C42F010021A7008D104F0AFFA2A
:100CB00005E01A78192C22F010021A70F5E708F0F6
:100CC000FFFBD9F800305B0302D44F4B01221A70AE
:100CD0004E4B4F4E1A784F4C42F004021A70337844
:100CE0004FF48052012B8CBF102314238DF8563003
:100CF0004FF002038DF85730A36915AD43F004039C
:100D0000ADF854208CBF01270027A3614248294633
:100D100005F0E9F9414B0FB1414A00E0414A00209A
:100D20001A6009F0BDFA404B404F93E80300A369F5
:100D300085E8030043F0080316A9A361159805F0A0
:100D4000D2F913F04FF89F238DF83430322000236E
:100D50004FF480588DF835308DF836308DF83730B7
:100D600009F06BFA0422C7F8148028460DA90FF089
:100D7000C3FDC7F810809DF856209DF8553012022B
:100D800042EA03429DF857301A43294B9A4214D045
:100D9000322009F052FAC7F81480F5200FF0FCFD5C
:100DA000FF200FF0F9FD7028C7F8108005D13378C7
:100DB000022B02D1164B03221A703378032B0CBF7F
:100DC0001F20022008F078FF3378032B34D0012055
:100DD0000AF007FE3AE000BF00127A00314B00082B
:100DE00040420F00214B0008A00D0020AE0D002056
:100DF000C80D00201CC60108D4000020E80E002009
:100E000092020020D00D0020581500206C350020E3
:100E10009835002000100240000801407C35002079
:100E200001980008159800081CA80108000C014052
:100E300015202000E90E0020022008F085FF18B1DF
:100E40004088003018BF0120C707C0D53678D9F8D0
:100E500000700496AD4E4FF0100A07F4006352463E
:100E600030460021059316F0F1FE4FF6FF73ADF802
:100E7000343002234FF0000817EA030207F4004958
:100E80008DF836308DF83780374610D020A921F8FC
:100E90004CAD9F480DF048FE4FF0010A0422072395
:100EA000327086F8018086F802A0F37000E0924666
:100EB000049B012B12D9202320A921F84C3D9448F2
:100EC0000DF032FE052301223B72BA720AF10103D2
:100ED000072287F809A0FA725FFA83FAB9F1000FC6
:100EE00011D0022320A921F84C3D89480DF01CFEA9
:100EF00001230AEB03023B71BB71072387F805A0AE
:100F0000FB715FFA82FA059B93B1022320A921F8B5
:100F10004C3D80480DF008FE092301223B73BA7353
:100F20000AF10103072287F80DA0FA735FFA83FA2A
:100F30006368794843F4404363606369764E43F0E5
:100F400001036361A36943F40073A36108F0DAFC51
:100F5000724B00241593724BBAF1020F169334BFF3
:100F6000234680231A934FF480731B934FF48063BE
:100F70001C93202329461D9330464FF400531E93A3
:100F80001794CDF860A019941F9408F09DFC336865
:100F9000BAF1010F43F001033360624B98BF0021A7
:100FA0005A6888BF012122F4702222F4807242EA3A
:100FB00001225A6099685C4A20460A4042F4602245
:100FC00042F002029A60D96A0AF1FF3221F47001FC
:100FD000D2B241EA0252DA62012339188A78002A31
:100FE00051D03A5C5C1C092ACE78E4B24D4910D944
:100FF000A2F10A0505EB45054FF0070E0EFA05FEB6
:10100000AE40D1F80CC02CEA0E0E4EEA0605CD60BB
:101010000DE002EB42054FF0070E0EFA05FEAE4062
:10102000D1F810C02CEA0E0E4EEA06050D61062B13
:101030003C490CD8013B03EB83031F259D409A409C
:101040004E6B26EA050545EA02034B631CE00C2BB8
:101050000CD8073B03EB83031F259D409A400E6B82
:1010600026EA050545EA02030B630DE00D3B03EBA1
:1010700083031F259D409A40CE6A26EA050545EA6E
:101080000203CB6200E01C460430102801D0234646
:10109000A3E7244B9A6842F480729A609A6842F0FF
:1010A00001029A609A6842F008029A6099681D4AA3
:1010B0000C0710D5FAE702F1FF38B8F1090F8CBF21
:1010C00000230123FFF7AFB9184B83F891A10CF06F
:1010D00001F9FFF7FFB9936843F004039360114AE5
:1010E000936813F00403FAD1916841F4A001916070
:1010F0000E4AB2F85801E0B9B2F95A31C3B9B2F99F
:101100005C31D3F1010338BF002312E0A81D002099
:1011100000080140000C0140080002404C2401403E
:10112000B81D002000240140FDF7F1FF98020020C7
:10113000034613F0010340F08A80B94A00B21371EC
:1011400013F03CFAB74913F08DFAB74E0546B6F9DD
:101150005A0113F033FAB34913F084FA0446B6F98E
:101160005C0113F02BFAAF4913F07CFA8046284655
:1011700004F002FC0646284604F08CFB0746204695
:1011800004F0FAFB0546204604F084FB0446404682
:1011900004F0F2FB8146404604F07CFB3146804679
:1011A000484613F05FFA31460490404613F05AFA6D
:1011B00049460590384613F055FA4146079038469F
:1011C00013F050FA29468246484613F04BFA41463E
:1011D000CBF8B40105F1004013F044FA2146CBF8F6
:1011E000B801CBF8BC41079813F03CFA01460598CA
:1011F00013F030F92146CBF8C001504613F032FA13
:101200000146049813F024F92946CBF8C40107F1EC
:10121000004013F027FA2146CBF8C801049813F0D8
:1012200021FA0146504613F013F92146CBF8CC01C0
:10123000059813F017FA0146079813F00BF9314699
:10124000CBF8D001284613F00DFACBF8D401774D36
:101250002B68980322D5C82008F0EFFFAE200DF0D0
:1012600065FF08B10DF066FF714C84F8D801C82005
:1012700008F0E3FF6F4B00210C2204F5F070C4F876
:10128000DC3116F0E3FC022384F8E33111F0E0FBDB
:1012900008F031FE684B0344C4F8E831674C624EF5
:1012A000236896F85F0196F8691196F86A21B3F9F8
:1012B00056300AF089FF10B901200AF05FFD604B3B
:1012C0000A271A7842F002021A705E4B10225A6105
:1012D00008221A615B4C1920E368013F83F0100378
:1012E000E360E36883F00803E36008F0A6FF0120F1
:1012F00008F0D6FF192008F0A0FF002008F0D0FF6A
:1013000017F0FF07E6D10823236110274E4B276112
:101310001A68994612F0080F07D04C4B67611B689A
:1013200098474B4B012227611A70414C4FF000083F
:10133000D4F8EC71387B13F041F93A4913F092F983
:1013400004F01AFB434BC4F8F001188813F036F987
:1013500001464FF07E5013F039FA3F4B3149C4F843
:10136000F401186913F07EF9C4F8F801387813F025
:1013700025F901464FF07E5013F028FA0146C4F8D3
:10138000FC014FF07E5013F063F84FF07E53C4F829
:1013900000024046C4F80C32C4F81832C4F8048283
:1013A000C4F80882C4F81082C4F8148204F0E4FA85
:1013B0000746404604F06EFA39468046384613F038
:1013C00051F941468246404613F04CF939460490A3
:1013D000504613F047F941468346049813F042F90A
:1013E0000146584613F036F83946C4F81C02404608
:1013F00013F038F93946039013F034F9039B834610
:101400004146184613F02EF90346194658460393F1
:1014100013F01EF8039BC4F82002194658461DE03D
:101420001000002035FA8E3C98020020D4000020E5
:101430000816002020040020404B4C003C0C0020EB
:101440006C350020000C014038020020840200208E
:10145000940A00200C000020240C002012F0FAFF57
:101460004146C4F82402504613F0FCF83946804641
:10147000049813F0F7F80146404612F0E9FFB74F21
:10148000C4F828024FF00008FF211B22384684F8D8
:101490002C8216F0DBFBD9F80020B14B012112F0B1
:1014A000020F197087F80080384604D07970032144
:1014B00019700221B970510704D519784F1C1F709B
:1014C0000327475412F00A0F0CD01A7804218154D4
:1014D000511CC9B205274754D11C02321970D2B22F
:1014E000062181542A68970604D519784F1C1F706D
:1014F00007274754110608D51978092747548F1C28
:1015000001311F70C9B20A2747547179082901D0E7
:101510000E2908D11F7807F1010E83F800E04FF083
:101520000B0E00F807E01F784FF00C0C07F1010ECE
:101530005FFA8EFE12F4803F83F800E000F807C0E7
:1015400009D007F1020C864F87F800C0834F4FF097
:101550000E0C07F80EC0570706D51F7807F1010ECD
:1015600083F800E01023C3557D4B4FF0120C1F7819
:1015700012F4806F07F1010E5FFA8EFE83F800E02F
:1015800000F807C00BD096F824C2BCF1000F06D0BB
:1015900002371F70714F4FF0130C07F80EC01F7801
:1015A0004FF0140C07F1010E5FFA8EFE12F4007F6B
:1015B00083F800E000F807C009D007F1020C684F7B
:1015C00087F800C0654F4FF0150C07F80EC01829BA
:1015D00013D11F784FF0160E00F807E007F1010E47
:1015E0005FFA8EFE4FF0170C00F80EC007F1030EE5
:1015F0000237FFB283F800E0C155130305D55849FF
:101600000B785F1C0F701921C154D70505D5544ABA
:101610001378591C11701A22C25400219822514883
:1016200016F014FB10F05AFEB6F84E314E49A4F8ED
:10163000343200234D4A0B808B70B6F896014C492A
:10164000C4F830220A6081B24A4A99520233242BEC
:10165000FAD12B68D9045CBFB6F89C1111801B0726
:1016600040F1EA8096F89031062B00F2DF80DFE847
:1016700003F004070E39559D9D0045F2F05201E03C
:1016800042F6F8223C4B1A8010F0B2FECDE03A4B05
:1016900042F6F8221A8012F091FF384912F0E2FF68
:1016A000374912F0D5FE13F0C9F90023354A985096
:1016B0000433482BFAD1344A344B40209A60344BDF
:1016C00012221A7008F07EFB002800F0AF80012380
:1016D0004FF0070A90F9000040218DE808042D4AD8
:1016E0002D4B9DE0244B42F6F8221A802B4A274BC3
:1016F00040209A60264B10221A7008F063FB0028E5
:1017000000F0948001234FF0000890F90000402180
:101710008DE80801224A4FF4E13381E0164B42F68E
:10172000F8221A801F4A194B40209A60184B082251
:101730001A7008F047FB002878D001234FF0000C06
:1017400090F9000040218DE80810174A4FF4E1336A
:1017500010F07AFDC4F8380264E000BF131F0020C7
:10176000121F00203C1E0020A00E0020200400209C
:10177000D80000204E020020D60C0020CDCCCC3F5B
:101780000000B0442C010020AD970008100000209C
:101790002E1F00208DA10008A08601009D97000843
:1017A000DDA000088997000891A00008494A42F688
:1017B000F821118048490C22062B48480A7010D0A5
:1017C0000023037084F83C3284F83D321B2384F8F4
:1017D0003E32052384F83F2284F840324FF4E1374B
:1017E0000DE00021017084F83C1284F83D123C4F5A
:1017F000212184F83E1284F83F2284F84032394A8D
:10180000394B40209A6008F0DDFA78B101234FF09F
:10181000000E364A90F9000040218DE808403B4612
:1018200010F012FD003018BF012028B9082004F084
:101830005FFA2F4A2C4B9A602B68274A13F4804F8B
:1018400004D0082111702B482749886042F2010119
:10185000194089B11F4944F620600880980404D5D6
:1018600008211170244820498860D90704D50C212B
:10187000117022481C49886011781F06A1F10401EB
:1018800051707CD54FF000081D4FDFF880A0414615
:101890001522DFF87CB01B48C4F844A287F8018009
:1018A000C7F80480C7F8088016F0D0F9AAF105033C
:1018B0004046CBF8003009F02DFD134B02201B6889
:1018C000FB6008F07FFA594620BB802004F010FA34
:1018D0004DE000BFD60C00202E1F0020100200207B
:1018E00090D003004997000810000020799F00085D
:1018F000FD970008D9970008E5970008F1970008C0
:10190000FC0B0020501800205C35002090040020C3
:101910001C0C002090F805E07B78C64A4FF00C0CB8
:101920000CFB032C9CF801C0F44504D00133DBB25E
:10193000042BF2D900237B700B6890F900001B7810
:10194000002B7B784FF00C0707FB03220CBF012113
:1019500003215378002200910192022110F074FCBF
:10196000B54B18600028B0D0012009F0D3FCB34A71
:10197000B34B106800F5C5721A6004F077FA2B6853
:10198000980555D5AF4F069B06993B60AE4B4FF07F
:1019900010089A69AD4842F001029A610B880CA9BF
:1019A000ADF8303002238DF832808DF8333004F0FA
:1019B0009AFB3B68A5485B880CA9ADF8303004233E
:1019C0008DF8323004F08FFB3B680120197A04F067
:1019D00075FB3B689E4A5B684FF0000A536115A88F
:1019E0008DF859804FF0010815938DF858A08DF8A7
:1019F0005A8007F03BFF3B680DA85B7A8DF836A054
:101A00008DF8343003238DF835308DF8378008F0A9
:101A1000CCFF904B1A68904B3C3A1A60D9F80030D2
:101A20004FF0FF3243F01003C9F800308B4B1A60BF
:101A30008B4B8C4FC4F860328033C4F864322B680F
:101A40004FF00008D90387F8008040F1BA8004F015
:101A5000B5F9DFF844C2DFF8F09140F22A3B4FF0CD
:101A6000010A60465A46414687F800A0CDF808C0F2
:101A700016F0ECF8D9F818307B4843F00403C9F8A5
:101A800018304023ADF8303018238DF833300CA9CE
:101A900003238DF832300DF047F8D9F81C30734F1E
:101AA00043F00203C9F81C30714BA9F694791A6807
:101AB000704BB2FBF3F23B88013A23F45C731B04D6
:101AC0001B0C3B8092B21D23BB853A85A7F814A05E
:101AD0003B8C23F001031B041B0C3B843B8CB9881B
:101AE0003A8B23F0020322F0730212041B04120C3F
:101AF0001B0C89B242F0600243EA0A03B9803A83C0
:101B0000A7F834803B843B8B23F008031B041B0C99
:101B100043F008033B83B7F844306FEA43436FEA6E
:101B200053439BB2A7F84430D9F8A83F43EA0A03CD
:101B3000C9F8A83F484607F0E5FE4F4B8022DDF884
:101B400008C01A924FF4807215931B9210234FF421
:101B50000052484615A917931E920393CDF864804E
:101B6000CDF87080CDF87480CDF87C80CDF858C069
:101B7000CDF860B007F0A8FEBA89039B92B242F498
:101B80000072BA81D9F800200DA842F00202C9F80B
:101B900000208DF834308DF835A08DF836808DF822
:101BA00037A008F002FF354B1A68354B48F8032080
:101BB00008F10408B8F1800FF5D108F007FE08F02D
:101BC00005FE2B685A0540F18B80D4F894852D4B87
:101BD0000420C3F8008008F0F5F80421C4F8980543
:101BE00008F0C6F8284B84F89C050820C3F800804C
:101BF00008F0E8F8254B0821186008F0B9F8244FE0
:101C000084F89D05002138462C2216F01FF88E23FB
:101C10007B704FF07C0AE0234FF07D09FB7087F862
:101C200000A087F82B901B4F2C220021384616F07D
:101C30000DF833E0D8950108F80B00203C0C00208B
:101C4000900D0020F40B002000100240000C014019
:101C5000000401405C350020F00B0020C00B002088
:101C6000CC0400207515002000080140000400404D
:101C70005000002000366E0134040040109A010824
:101C800076150020CC1F0020202000206C20002092
:101C9000F01F002025200020701800208A237B7070
:101CA0001020A023FB7087F800A087F82B90C4F8C1
:101CB000A08508F087F81021C4F8A40508F058F8AA
:101CC00084F8A8052020C4F8AC8508F07BF8202112
:101CD000C4F8B00508F04CF884F8B40510F08CFD99
:101CE000744B754F1B78022B68D1744B4FF0000872
:101CF0001A88322022F040021204120C1A801A882C
:101D00004FF4805922F038021204120C1A801A88FB
:101D100092B242F040021A809F238DF834308DF841
:101D200035808DF836808DF8378008F086FA8DF88A
:101D30005580DFF8D8810422C8F8149015A80DA9A1
:101D40000EF0DAFDC8F810909DF856309DF8552039
:101D50001B0243EA02439DF857201343584A93421B
:101D600019D00AD8A2F51A42033A93420CD002F5D0
:101D70001A420232934209D01BE0524A934205D0E4
:101D80000132934207D014E0202300E080233B80FF
:101D90004FF4807302E04FF480733B807B80BB88FC
:101DA0003A881B02BB605343FB60012384F8B535BE
:101DB00004E000233B807B80BB60FB60FB6823B3B7
:101DC0004FEAD328C2464FF00009C1450BDA09EBB0
:101DD00008077F100DF1540BF802594610220AF043
:101DE000CDF90F2806DC0FF04BFC4FEACA23C4F8EC
:101DF000B8350AE000235BF80320013255D10433E3
:101E0000102BF8D1BA46B846DFE72B6813F400224E
:101E10002D4B18BF01221A7008F06DF82B4B18607B
:101E20007379052B03D12A4B4FF4C8721A80294BC2
:101E30004FF47A721A80284BC8221A80274B2849FF
:101E40001A7842F008021A70264B1A7822F0020221
:101E50001A700A6840F6020313406BB12248234B04
:101E60001860234B03201870224B01201870224861
:101E70000023038021480380930308D5042384F8BA
:101E8000E43194F8E33143F0010384F8E3311C4B6F
:101E900001229B680B601B4B1A701B4B1A7862F077
:101EA0007F021A7021B0BDE8F08F07F101094746A3
:101EB000A9E700BF983500201C0000200038004032
:101EC00018BA20001740EF0059150020A00C002080
:101ED000FC1D00208E3500208C3500209202002051
:101EE000D40000209735002012040020C41F0020D9
:101EF00024200020540000209A1D00209C1D00205A
:101F000098020020581500206C350020000C01407C
:101F10009A4A2DE9F04F1468994904F59C432033FF
:101F20000B60984B89B01968984611F4804F964E13
:101F300005D107F08FFA10B9337801333370777811
:101F4000914BBFB15A68944240F2EF80013F5F70FD
:101F5000EBE0D9F80030072C98BF195D8B4B88BF98
:101F600021461B688A489847032C0BD906EB44048A
:101F700020810137864BFCB21D78DFF83C92A542E8
:101F8000E7D81FE0D9F8003004F10E0203EB82021B
:101F90009388D2880028E9D0C01A4FF47A71484358
:101FA000D31A90FBF3F0084440F6C903984205DCCD
:101FB00040F2EE239842B8BF184601E040F6CA004E
:101FC00080B2D3E70F2386F82C30724B36781B781B
:101FD0004FF0030BB6FBFBFB02930BEB4B0B6E4B73
:101FE000CBEB060B1B785FFA8BFB4FEA4B0B6900C0
:101FF0004FF0000AD9F80090684FCDF810B0039365
:102000000591D346059A92455BD06548029A3AF805
:10201000004042B907F01EFA20B1039B002B08BF15
:10202000002400E0029CB9F81400A04208D8B9F8D6
:1020300016C0A44534BF4FF0000C4FF0010C01E076
:102040004FF0000C63463BB95FFA8BF0CDF800C04F
:1020500007F00CFA009B04465FFA8BF003280BD8BC
:1020600053B94FF0010C0CFA0BFC474890F82CE0E8
:102070002EEA0C0E80F82CE007F0ECF9C0B94248CB
:10208000049990F876307C5223B9022E10D901249D
:1020900080F8764078883C880444B88804444148F5
:1020A000A4B22AF8004024B2032094FBF0F4A4B2B6
:1020B0003D480BF1010B2AF8004006370AF1020AED
:1020C000A0E7314B394993F82C20B2F10F077A423F
:1020D0007A4183F89020364B6AB1364A126856012D
:1020E00009D40A68D9689A60521AC82A1DD90122EF
:1020F00083F8212019E027480022096802709868B7
:10210000D9605B68091A994288BF294B4FF00004D7
:1021100088BF83F82120AC4207DAE0B207F0A6F9C5
:10212000214B23F814000134F5E7D8F80030DD0422
:1021300005D5204B1B68DC0701D410F023F90F4BA9
:102140001C681D4B19688B7A002B39D0164A013B4D
:1021500032F813000B7B1BB1C0F53B60083080B236
:1021600000B2A0F57A70B0F57A7FA8BF4FF47A700C
:1021700020EAE07012F022FA104957E07035002092
:102180002C020020D4000020C41B002018000020D6
:102190002E1F0020C8000020D0000020F21B0020CD
:1021A000CC1B00203C1C00204E0200205C3500208F
:1021B000A00E00203C020020D800002000007A443D
:1021C000D8F8002010043AD58A4AD2F89400201A90
:1021D000002834DB04F59C402030C2F89400864887
:1021E000C97A4579854830F8150080B290FBF1F046
:1021F00092F89810013101F00F0182F898100A440A
:1022000082F8990018467E4A9A5C01331044102BDC
:1022100080B2F8D100B290FBF3F000B26428A8BFFE
:10222000642020EAE07012F0C9F9764912F0CEFA83
:10223000754912F017FA12F001FC744B1880D8F8A7
:102240000030734E13F4807F00F0FD80714B9C4290
:10225000714C03D9A3780BB90123A370A378002B89
:1022600000F0F1806C4B377893F821506B4B691E6E
:102270004D424D411A68002DC7F38007C2F38069B3
:102280009A460CBF4FF0030B4FF0000B94F8203030
:10229000052B00F2D280DFE803F0034D5274819ADF
:1022A000002F3AD05E4B18685E4B198809F048FD44
:1022B000012809D15C4B64211A684E4BD3F8AC302D
:1022C000DB8801FB03232361B9F1000F0DD0494BDB
:1022D000D3F8AC301B7943B109F042F8032384F8FA
:1022E00020304FF47A73E361D0E7002D40F0A580F1
:1022F0004D4B22691968484B91420AD9009309F065
:102300002FF8009B032283F8202040F6B832DA61D0
:10231000BCE7012283F82020B8E74FF48060B9F1D0
:10232000000F02D008F01AF801E008F027F80023A7
:10233000236182E0002D42D109F012F8A6E725B111
:10234000052384F82030012100E029466FB1344B89
:102350004FF0020B1B68DA89344B1A805A809A803E
:10236000244AD2F8AC205288DA802F4B1A6863696D
:102370009A4201D8002F5DD147F23053E361032325
:102380001EE0337843F0020333700FF0FBFF264B5F
:102390001A68E3691344A361042311E0224B1A680D
:1023A0008DB1A3699A4248D9214B1B781BB9DAF841
:1023B0000030DA0741D4337823F002033370052369
:1023C00084F8203062E7E3691344A36135E0164BDB
:1023D00064211A68074B4FF48060D3F8AC30DB8877
:1023E00001FB03232361002384F82030E37007F00E
:1023F000C5FF4BE7C41B0020A81D0020B81D00200E
:102400005D1C00200000C84200C07F44301F002037
:1024100097350020404B4C00A00E00203C020020CD
:10242000381800203C1800205C3500204E020020A7
:102430000500002000297FF429AFBBF1000F02D076
:10244000584607F051FF984F07F5C470B7F84E1182
:1024500009F076FC814678B902F0E8FF934B002240
:10246000C3F8B090C3F8B490C3F8B890C3F8BC20D8
:10247000C3F8C020C3F8C42033785B0741D5D8F82F
:102480000030DD063DD58A4B1B78DC0639D4894BFC
:10249000864C1D788DB197F8E031B9F1000F16D157
:1024A00073B1854B1A68D4F8C8309B1A002B07DA31
:1024B0000FF068FF84F8CC9023E0B9F1000F19D138
:1024C000102007F011FF012384F8CC3019E03BB154
:1024D000794A4FF47A71126801FB0323C4F8C830BB
:1024E00094F8CC306BB107F0E3FE704B002283F818
:1024F000CC2006E094F8CC301BB107F0D9FE84F86C
:10250000CC50002297F8DEA197F8DF11B7F8985168
:10251000B7F89AE11346694C9B08105F0232A84253
:10252000C4BF63F07F03DBB27045B8BF43F0400324
:10253000082AF0D15D4C94F8CD209A4205D194F848
:10254000CE20F92A04D8013200E0002284F8CE20FF
:1025500084F8CD30574B5A4D1A789B46DAB92B6820
:10256000D80708D5B9F1000F15D13378D90712D59E
:102570000FF088FF0FE033785A070CD5514B1B78CA
:102580004BB1514BDB7833B911B10FF0FBFE02E0D8
:10259000B9F1000FF9D094F8CE20444B142ADFF89B
:1025A0003C9140F0AD809BF800201AF1000A18BF62
:1025B0004FF0010A6AB393F8CD205F2A11D1327827
:1025C00002F0040202F0FF0112B10FF0DBFE08E09E
:1025D0000B200191009307F087FE0199009B83F87F
:1025E000CE10BAF1000F14D094F8CD307D2B10D15D
:1025F000337803F0040303F0FF0213B10FF0C2FEBF
:1026000007E00B20019207F06FFE284B019A83F838
:10261000CE20337803F0040303F0FF00002B6FD1CA
:1026200094F8CD30214A572B16D1284B4FF47A72AB
:102630001A80D8F800301B0601D503F033FB244B79
:102640001B68580702D5234A0A21118013F008039A
:1026500056D1214A138053E0D8F80010490717D506
:102660005A2B15D192F8CF302BB1012382F8CF002D
:1026700082F8D03044E092F8D13083F0010382F840
:10268000D1300BB10C2000E00D2007F02DFE37E01B
:102690005D2B00F03A855B2B00F039855E2B1FD156
:1026A000032000F035BD00BF98020020C41B0020AD
:1026B00092020020050000205C3500204E02002020
:1026C0003C020020C8000020A00E00208E35002013
:1026D000380200208C3500207A0D00203C0C0020B0
:1026E000562B01D10AF0F6FD9BF80030002B00F0CC
:1026F000248594F8CD306F2B40F019850FF0C2FE81
:10270000D8F80030580736D594F8D130B34A93B191
:10271000337859070FD5B24BB3F90610B7F8983193
:10272000994208DD2B6813F0010304D13221A2F88D
:10273000D21082F8D1302B6813F4803FA74B0CD015
:1027400094F8D4202AB993F8CF2012B93222A3F8F2
:10275000D220012384F8D4300DE094F8CF2052B178
:10276000327802F0040202F0FF0122B9012283F85C
:10277000CF1083F8D020D9F800A000230AF1790BFC
:102780002B600AF17B0499460BF1020303EB09016C
:1027900013F809204B7814F8010C9A420AD221460A
:1027A0000EF030FA30B114F8023C01229A402B6846
:1027B00013432B6009F10409B9F1500F04F104042B
:1027C000E2D1884B1D784DB1874DDFF838922B68E8
:1027D000864C13F0020F40F033832AE30AF1C90953
:1027E0000AF1CA0409F1010359195A5D4B7814F82A
:1027F000010C9A4229D221460EF004FA28B394F82B
:1028000002E020797A4B0EF1FF3E4FF00C0C0EEBFC
:102810004E0E0CFB00FC9E44704B94F803B003F189
:10282000D80A0AEB0C02516871450ED000210AF853
:102830000CB0C2F804E09160012202FA00F093F8B3
:10284000082122EA000083F808010635482D04F12A
:102850000604C7D1674BDFF8B0B11D68664B4FF077
:10286000000A1B680293654B1B780393DBF800306A
:10287000002B00F0D58293F80090B9F1000F00F022
:10288000CF82DBF804200298821A002A0DDB012196
:1028900001FA0AF100F5FA72CBF804204F4A92F8D7
:1028A000080120EA010182F80811039A002A00F0C9
:1028B000B7821BF8041C58780431C9B2474A002873
:1028C00040F06D82464830F91110B7F8960100F1DA
:1028D000C804A14201DD9C7814E0C838814202DAC4
:1028E0009C7864420EE0012303FA0AF392F808117F
:1028F00021EA030382F80831029A02F5FA73CBF851
:1029000004308DE292F8083143FA0AF3DB0700F154
:102910008782002CCCBF0220012007F007FD09F1BF
:10292000FF33132B00F27382DFE813F01400210051
:102930002E003E0070007700DB003F01A301D801AC
:10294000080271023E004D007700DB003F01AD0040
:10295000110175012B7828461C44FA2CA8BFFA24D3
:1029600024EAE4742C7007F079FA01201AE06B78FD
:1029700028461C44642CA8BF642424EAE4746C70C8
:1029800007F06CFA02200DE0EB7828461C44642C1A
:10299000A8BF64241A4B24EAE474EC70196807F0A9
:1029A00019FA03202146C6E169790D2021446429E2
:1029B000A8BF642121EAE17169710EF0E3FFB9F16A
:1029C0000D0F00F0248229790E2021446429A8BF2C
:1029D000642121EAE1712971ADE100BFC41B00202F
:1029E0004E020020963500203C02002040020020CC
:1029F00014AE01089C0D00205C350020C8000020AA
:102A0000DC1E002038020020A01C0020A97905202F
:102A1000214481F30801A9718DE1A74B1B681A7845
:102A2000022A21D12046009311F0C8FDA34911F0DC
:102A3000CDFE009B596A11F00DFD0021019011F0AF
:102A4000AFFF019A009B40B910469C4911F0C6FFA8
:102A5000019A009B10B1994A00E000225A620F20AF
:102A600011460EF0A3FF0AE099780F202144C829EF
:102A7000A8BFC82121EAE17199700EF083FFB9F176
:102A80000F0F00F0C4818C4BD3F8009099F8003000
:102A9000022B1AD1204611F091FD884911F096FEC3
:102AA000D9F8201011F0D6FC0021044611F078FF6F
:102AB00030B92046814911F091FF10B17F4C00E000
:102AC0000024C9F82040122059E199F80110122081
:102AD0002144C829A8BFC82121EAE17189F8011061
:102AE00029E1754B1B681A78022A21D120460093F0
:102AF00011F064FD714911F069FE009B196B11F032
:102B0000A9FC0021019011F04BFF019A009B40B9F4
:102B100010466A4911F062FF019A009B10B1674AA2
:102B200000E000221A63102011460EF03FFF0AE079
:102B3000197B10202144C829A8BFC82121EAE171CE
:102B400019730EF01FFFB9F1100F00F060815A4B9E
:102B5000D3F8009099F80030022B1AD1204611F0DA
:102B60002DFD564911F032FED9F82C1011F072FCEF
:102B70000021044611F014FF30B920464F4911F0EE
:102B80002DFF10B14D4C00E00024C9F82C4013205B
:102B9000F5E099F80B1013202144C829A8BFC821DB
:102BA00021EAE17189F80B10C5E0434B1B681A78E4
:102BB000022A21D12046009311F000FD404911F076
:102BC00005FE009BD96B11F045FC0021019011F02E
:102BD000E7FE019A009B40B91046384911F0FEFE0D
:102BE000019A009B10B1354A00E00022DA631120FF
:102BF00011460EF0DBFE0AE0997D11202144C82920
:102C0000A8BFC82121EAE17199750EF0BBFEB9F1A8
:102C1000110F00F0FC80284BD3F8009099F8003099
:102C2000022B1AD1204611F0C9FC254911F0CEFD26
:102C3000D9F8381011F00EFC0021044611F0B0FE56
:102C400030B920461D4911F0C9FE10B11B4C00E0FF
:102C50000024C9F83840142091E099F81510142088
:102C60002144C829A8BFC82121EAE17189F81510BB
:102C700061E0114BD3F8009099F80030022B21D17C
:102C8000204611F09BFC0D4911F0A0FDD9F8281049
:102C900011F0E0FB0021044611F082FE30B920461D
:102CA000064911F09BFE10B1044C00E00024C9F865
:102CB0002840092063E000BFE01E00200000C84259
:102CC00000007A4499F8031009202144C829A8BFBC
:102CD000C82121EAE17189F803102CE0AE4BD3F84A
:102CE000009099F80030022B1AD1204611F066FCB2
:102CF000AA4911F06BFDD9F8341011F0ABFB00219B
:102D0000044611F04DFE30B92046A44911F066FE8C
:102D100010B1A24C00E00024C9F834400A202EE093
:102D200099F80D100A202144C829A8BFC82121EA1A
:102D3000E17189F80D100EF025FE68E0964BD3F88E
:102D4000009099F80030022B1DD1204611F036FC7E
:102D5000934911F03BFDD9F8401011F07BFB0021A5
:102D6000044611F01DFE30B920468C4911F036FEA4
:102D700010B18A4C00E00024C9F840400B202146E5
:102D80000EF014FE43E099F817100B202144C829D7
:102D9000A8BFC82121EAE17189F81710CBE7012803
:102DA00035D198787F4B33F91110B1F5617F05DB90
:102DB00040F633039942B8BF0B4601E04FF461730C
:102DC000B9F10C0F23D14FF49664A3F5617394FB12
:102DD000F0F493FBF4F492F80931E4B2A34216D074
:102DE000032C94BF2346022382F809310E2202FBF2
:102DF00003736D4A03F2BE73136007F049F8484647
:102E000021460EF0BFFD601CC0B207F08FFA012210
:102E100002FA0AF2654B93F808110A4383F8082175
:102E20000AF1010ABAF1040F0BF10C0B7FF41EAD8D
:102E3000CAE4D8F80030D80510D55D4BDB786BB10B
:102E4000D9F80030990709D5238813F0010A0AD16F
:102E500002F0ECFA012007F081FA04E0012007F00B
:102E60008DFA012300E000232A6852070CD55BB1DC
:102E7000012007F083FA23889B0708D402F0D6FAD2
:102E8000022007F06BFA02E0022007F077FA2388AD
:102E9000484A13F0030F4FF0100114BF5161116144
:102EA000D9F8002012F00A0F23D02A68D00609D5DD
:102EB00059070AD4042007F051FA3F4B1A883F4BB8
:102EC0001A8002E0042007F059FA2B689A0606D50A
:102ED00023885B0606D4402007F040FA02E0402039
:102EE00007F04CFA2B68580603D5334B1A88344B3D
:102EF0001A80D9F80030990608D42B681A0540F1D9
:102F0000D7804FF4807007F029FAD5E02D4B1B785D
:102F10009B0740F193802C4B1B78042B40F28E8052
:102F20002B6813F4007A0ED02388DC0679D41020A5
:102F300007F014FA202007F021FA2448011D09F0B7
:102F400045FD022268E0B4F8009009F010091FFA6C
:102F500089F343B1102007F011FA1D4B4FF001091E
:102F600083F800A000E099462B6858054DD5194B11
:102F70001B685A89184BB3F900100029B8BF4942A1
:102F800091422BDAB3F90230002BB8BF5B42934277
:102F9000ACBF0023012322E0E01E00200000C84255
:102FA00000007A444E0200209C0D0020C41B00202B
:102FB000A00E0020000C01407A0D00207C0D0020A6
:102FC000901D002092020020200C0020E81E00200E
:102FD000F81E0020900D0020720D00200023A3B1E8
:102FE000238899061FD4202007F0B8F97D4B7E482E
:102FF0001A685B68011D4360026009F0E7FC7B4BC7
:103000004FF0010983F800900DE023889A060AD555
:10301000202007F0B3F90022744B4FF001091A7019
:1030200001E04FF00009724C94F80A31B3B90E2058
:1030300007F05AF9012384F80A310FE0238803F0DE
:103040003003002B3FF459AF102007F097F92020F0
:1030500007F094F9654B00221A7003E0B9F1000FF4
:103060003FF44BAF00231A46624900205052624998
:10307000624C5052624904EB030E50520021195128
:103080000232CEF80400CEF8081004F1280E5034B5
:1030900043F80E1019519E441C44042ACEF8040033
:1030A000CEF808106060A16003F11403DCD124E7BE
:1030B0004FF4807007F062F97B79082B01D00E2B5A
:1030C00002D1402007F05AF9D8F800305B0540F1F2
:1030D000868097F824321BB9337813F0040F02E08E
:1030E0002B6813F4002F0BD0414B002283F884216E
:1030F0003C200BF03BFB002871D006F005FEF7E703
:103100000FF07AFB0FF0EAF869E0012000E00220FE
:103110005FFA80FA0AF1FF3387F8BC3706F0E2F86D
:1031200009F01EFF504607F001F9FFF7E9BABAF1BE
:10313000000F02D07E2B3FF4E1AA94F8CD30972BFC
:1031400005D1304B4FF4C8721A80FFF7D9BAA72BBC
:1031500006D12D4B1A7842F004021A70FFF7D0BA4C
:103160000022BB2B079201D1022303E0B72B04D12D
:103170004FF6FE73ADF81E3009E0BE2B01D10223DD
:1031800003E0BD2B1AD14FF6FE73ADF81C30D9F811
:103190000030BDF81C10B3F858200A44A3F858209A
:1031A000BDF81E10B3F85A200A44A3F85A200AF0BA
:1031B00091F8002384F8CE30FFF7A2BA792B04D11E
:1031C000124BDA7822F0010206E07A2B7FF498AAFB
:1031D0000E4BDA7842F00102DA70FFF791BA09B0CB
:1031E000BDE8F08FE01F0020F01E0020F81E002038
:1031F000C41B002090350020940D0020D01C00201E
:10320000980D0020FC1D002092020020E8170020ED
:10321000834B2DE9F04FB3F90610824B89B0186843
:103220004389994211DBB1F5FA6F90F807E009DAAA
:10323000CA1A02FB0EFEA3F5FA639EFBF3FE0EF123
:10324000640E04E0CEF1640E01E04FF0640E838959
:10325000994219DBB1F5FA6F047A10DA632CC3EBEB
:10326000010205D9643CA4B25443C3F5FA6302E0F9
:103270005443A3F5FA6394FBF3F4643405E0632C40
:1032800003D8C4F1640400E06424674BB3F89621CA
:1032900093F95E310492654A9BB2D2F800C005935F
:1032A000674600225E4B049D33F912304FEA420814
:1032B00003935B1B03F2F31640F2E635AE4203D8EC
:1032C000002BB8BF5B4201E04FF4FA73022A4FF0C3
:1032D0006406574D2ED09CF81191B9F1000F04D01F
:1032E0004B45CCBFC9EB0303002393FBF6F96FF00A
:1032F000630B35F819A00BFB093B09F1010935F9FE
:1033000019900FFA8AF5C5EB090505FB0BF595FB3E
:10331000F6F5AA44474D28F805A085182D796B438A
:10332000454D93FBF5F364339BB20EFB03F393FB24
:10333000F6F62FE09CF81291B9F1000F04D04B453E
:10334000CCBFC9EB0303002393FBF6F66FF0630ACF
:1033500005EB46090AFB063B05EB4606B9F90E905C
:10336000B6F91050059EC9EB050505FB0BFB9BFB51
:10337000FAFBC9EB0B0909FB06F92E4EA6F80490DF
:10338000857983EAE376A6EBE3766E432A4D96FBD6
:10339000F5F664360CEB020595F801A0244B06FB0C
:1033A0000AFA642503F11C099AFBF5FA09F802A050
:1033B00097F80BA003F11F0906FB0AFA9AFBF5FA2E
:1033C00009F802A097F815A0022A06FB0AF603F1F5
:1033D000220996FBF5F61D4616BF253383F82740D4
:1033E00003F802E009F80260039B049EB342114E09
:1033F00004DA36F808305B4226F808300132032A36
:1034000007F101077FF44EAF074CB4F898319942A9
:1034100014DBB1F5FA6FA8BF4FF4FA610FE000BFFB
:103420004E0200209C0D0020980200203C0C002041
:10343000501D0020720D00200CFEFFFF1946C91A16
:103440004FF47A725143C3F5FA63B1FBF3F34FF0D3
:10345000640E93FBFEF205EB4201088D6FF06301F1
:1034600001FB023305EB4202B2F92A1002B28A1ABA
:10347000534393FBFEFEB54B70441B88B44F590673
:10348000F0803ED5B34B1888B34BB3F84030C01A28
:1034900000B211F093F8B14911F0E4F8804602F05F
:1034A0006BFA8146404602F0F5F98046B7F9020012
:1034B00011F084F88246B7F9000011F07FF8494610
:1034C000834611F0CFF8414603465046019311F070
:1034D000C9F8019B0146184610F0BAFF11F088FAAE
:1034E00049463880504611F0BDF84146814658465D
:1034F00011F0B8F80146484610F0ACFF11F078FA28
:103500007880974B1A689A4612F0020F74D0954B48
:103510006A6C1B6845F207219A1A8A428E4F6BDD4E
:103520007B6408F075F9904BDFF86C821A78994645
:10353000032AB8F8003022D10A2B2CD900232820E6
:1035400089F8003006F079FE08F062F9B7F8480013
:1035500006F0F4FA854B86491B68DA7890FBF2F0A6
:10356000421C082A28BF08220A7059791B7992B296
:1035700051435A43A7F84A10A7F84C200BE00A2BF6
:1035800009D803237A4A89F8003000231370A7F87A
:103590004A30A7F84C3099F80020734B012A0DD01F
:1035A00002D3022A1ED027E0B5F84A20B8F800302E
:1035B0009A4221DD012389F8003011E0B8F800209B
:1035C000B5F84C10914202DD02221A7011E06249F6
:1035D000B1F84A1001318A4202DD00221A700BE074
:1035E000082007E0B5F84C30B8F8002001339A42C3
:1035F000E0DC072006F078FEDAF800703A057BD5AB
:10360000584B296D1A68544BC1EB020B45F2072148
:103610008B4571DD5548B6F90690D0F800801A65E3
:1036200098F80A004FF47A7201289BFBF2FBB4F879
:103630004E11A9F57A794F4E03D046D3022823D0F4
:1036400045E093F86510586D03EB4101B1F868E06F
:10365000082190FBF1FC1FFA8EFECCEB00007044B9
:1036600090FBF1F1586589B240F6E4404143A3F87C
:1036700070E0B8F80830C3EB11314A43B8F90630AE
:1036800092FBF3F2326022E03B4BB8F808A01B78C3
:10369000C6F800A05B071AD5384808F051FB20B9DE
:1036A00017F0100F18BF4FF0000909FB09F2322381
:1036B00092FBF3F39944B8F906304FF47A7203FBA6
:1036C00009F393FBF2F3534400E0002333603368C3
:1036D000D5E91E0103FB0BFB4FF47A739BFBF3FB55
:1036E00010EB0B0041EBEB710023C5E91E01244AEE
:1036F00011F0C4F9234B1860234B1A68984612F452
:10370000805F4ED03F0649D5204B1B789E0745D59C
:103710001F4B1978042941D900231E4E05229A55C2
:10372000981C1E440A27122BC2B2777004D0B1EB4A
:10373000520F0346F1D800E014222A44322382F8C3
:103740007F30FF2382F880300F2028E040020020E5
:10375000720D00207A0D0020501D002035FA8E3C9D
:10376000D40000207035002024200020C41F002039
:1037700054000020D01F0020973500202004002096
:10378000407E0500D41F00203C0200209202002051
:10379000200C0020D01D0020C81F00200A2006F0A9
:1037A000A3FDD5F89820AE4E002A4ED0AD4BD6F8EA
:1037B0009C1018689946814247D896F8A010B6F830
:1037C000A2305268C9B9012786F8A070D35C03B350
:1037D000384606F065FD86F8A47006F0FFFCB6F8E2
:1037E000A230B3B9D6F898301B78053BBB4210D84D
:1037F00006F081FBC6F8A8000BE0002786F8A07051
:10380000D35C33B1384606F04BFD86F8A47006F061
:10381000E5FCD5F89820B5F8A2105268904B525CA0
:10382000FE2A03D10022A3F8A2200EE0FF2A02D133
:1038300006F03EFD09E0D9F800000A2606FB020268
:103840000131C3F89C20A3F8A210874E32785007AC
:1038500003D5864B08225A613FE0D8F80030D907DB
:103860005CBF42F001023270814A1278120703D421
:10387000327822F001023270DB0203D5337823F074
:10388000010333707B4B1B685F0702D57A4A1288AD
:1038900062B9B5F8AC200AB1980705D4774B1B88FC
:1038A000003318BF012300E001233BB1022385F858
:1038B000A430337823F00103337005E03278D10768
:1038C00058BF022385F8A43006F015FBD5F8B030B8
:1038D000C01A002801DB06F081FC0EF08DFF684B5A
:1038E0001A78002A78D0D5F8B430002B00F00E8773
:1038F000D5F8B4005A4C06F070FD002800F0068799
:10390000D4F8B40006F064FD092801D03F2855D151
:103910004FF00008D5F8B8605A4F44462EB15A48C7
:103920003968324614F0DAF910B9B84604B93C46A1
:10393000564B10379F42F1D304B3D4F800E0D8F8C7
:1039400000C0D5F8B83046481EF803701CF80310C4
:10395000B94213D15A1C59B92D2B09D8C0F8B82037
:1039600003442027024483F8BC7082F8BC1005E0B1
:103970002B4483F8BC70C5F8B820E2E7D5F8B8301E
:103980000BB1444510D0424806F05EF9444507D8D3
:1039900054F8100B06F058F9092006F04EF9F5E737
:1039A0003C4806F051F90026D5F8B8309E429FD227
:1039B000354B985D06F041F90136F5E7D4F8B8309B
:1039C000002B40F0C986042840F0378704F1BC0082
:1039D00005F02CFE00F09ABE2F4F97F84A30012BCD
:1039E00040F08F86DFF8B8802C4B3A68C8F800703A
:1039F0001A60C2469B46DBF80000DFF8A09006F094
:103A0000ECFC002800F06B86D9F8000006F0E0FC22
:103A1000DAF80030024693F8481019B9242860D12A
:103A200001225BE0012904D14D280CBF02220022B3
:103A300054E0022904D13C280CBF032200224DE0AF
:103A400003292FD140284FF0000102D983F84810F4
:103A500071E058711971D971987104223EE000BF6C
:103A6000501D00205C35002097350020000C0140DF
:103A700092020020380200208C3500208E35002074
:103A80009635002050AE01080C1E002030B0010811
:103A9000ECC60108F1C601083C1E00208020002071
:103AA0007C200020042907D1997983F8490080EA15
:103AB00001029A71052211E005293CD15879197942
:103AC0008842987906D950409871481C18710B4467
:103AD0001A7230E090420CBF0622002283F8482080
:103AE00029E03178D44B490725D4232AD9F800108E
:103AF00016D1D2484FF0010E80F800E0D048C5F84A
:103B0000B410C5F884110292019306F09DF8CD48D7
:103B100006F09AF8019B197841F002011970029A97
:103B2000D5F888311B78934205D1C74AC74B1A6034
:103B3000C74AC84BDA60DAF80030DFF8409393F8F0
:103B40004820062A7FF457AF93F8490002F004FB9F
:103B50008246002840F0BC85D9F8002092F8493010
:103B60004C2B00F076845DD8332B00F0AD8421D847
:103B7000292B00F03A8409D8252B00F01184272B3B
:103B800000F01584232B40F0E485C4E02D2B00F0D9
:103B90003D8407D82B2B40F0DC8506F030F86071AF
:103BA00000F093BD2F2B00F0FC84312B00F00E852C
:103BB00000F0CFBD3E2B00F0D9801DD8372B00F090
:103BC000B78404D8352B00F01D8200F0C2BD392B1C
:103BD00000F0FA833C2B40F0BC85DFF89092D9F8D6
:103BE00000A006F00CF88AF80000D9F80030187828
:103BF00001F0E6FB00F069BD432B00F0768407D8A6
:103C0000412B08BF4FF0000900F0638400F0A1BD14
:103C1000442B00F01F85482B40F09B850CF096FA52
:103C200000F053BDD12B00F07E8320D8CC2B00F0C8
:103C300013820FD8C82B64D004D84E2B00F0168402
:103C400000F087BDC92B00F04683CA2B00F0988096
:103C500000F07FBDCE2B00F03083C0F02583CF2B4A
:103C600000F04A82D02B00F0078300F072BDD82B01
:103C700000F03B810DD8D32B3DD029D3D42B00F0BD
:103C80008082D62B08BF4FF0000900F06F8200F051
:103C900060BDF22B00F0C58212D8EF2B40F05985A1
:103CA000DFF8C891D9F800A005F0B4FFAAF85A00CF
:103CB000D9F8009005F0AEFFA9F8580000F005BD56
:103CC000F32B00F0CB84FA2B00F0018300F041BD10
:103CD000337803F0040303F0FF09002B40F0F58470
:103CE00005F08DFF022884F8BC0740F2CB825A4BC6
:103CF00083F8BC97C6E205F08DFF584B188000F0A2
:103D0000E4BC92F805A04FEA5A0ABAF1120F1CD887
:103D10004FF000091DE005F072FF132815D8DFF8F9
:103D20004CA100F11E0BDAF8003003EB8B0B05F011
:103D300066FF4B4B0BF1010903F5A872197A81421A
:103D400000F041810C339342F8D10AF00BFD00F0F2
:103D5000BCBCD14507D205F05DFF424B23F81900EA
:103D600009F10109F5E701223F4BAEE205F047FFFB
:103D700084F8E00105F043FF84F8DF0100F0A5BC02
:103D80003A4B4FF000091A689A461278022A40F01E
:103D90009180DAF8003009F1080B019305F02FFF4C
:103DA00010F008FC324910F011FD019B43F82B0084
:103DB000DAF800B005F023FF09F10A030BEB830BDF
:103DC00010F0F8FB2B4910F001FDDAF80030CBF8C9
:103DD0000400019305F013FF10F0ECFB264910F0EE
:103DE000F5FC09F10E0B019B09F10109B9F1030F73
:103DF00043F82B00CDD1B9F1070FDAF800B03FD16D
:103E000005F0FDFE10F0D6FB194910F0DFFCCBF8F1
:103E10004400DAF800B005F0F2FE10F0CBFB1449D4
:103E200010F0D4FCCBF84800DAF800B005F0E7FE5B
:103E30008BF84C0037E000BF973500209635002006
:103E400021C70108F1C60108EFBEADDEF04F00202A
:103E50000400FA0500ED00E0980200207C0D00202F
:103E600030B001084E020020110200203C0C00205E
:103E7000000020410000C84200007A447C2000205D
:103E800005F0BDFE0BEB09035870DAF800B005F041
:103E9000B6FE0BEB0903D872DAF800B005F0AFFEFE
:103EA0000BEB0903587509F10109B9F10A0FA2D109
:103EB00000F00BBCDAF800B005F0A1FE0BEB090333
:103EC0005870DAF800B005F09AFE0BEB0903D872CF
:103ED000DAF800B005F093FE0BEB090309F10109D4
:103EE000B9F10A0F5875E5D1EFE38146DFF8ACA3CD
:103EF00009F1080BDAF80030019305F08BFE10F0A1
:103F000059FBE34910F062FC019B43F82B00DAF8FF
:103F100000B005F07FFE09F10A030BEB830B10F0F4
:103F200049FBDB4910F052FCDAF80030CBF8040012
:103F3000019305F06FFE10F03DFBD54910F046FCF3
:103F400009F10E0B019B09F10109B9F1030F43F8C7
:103F50002B00CBD1B9F1070FDAF800B01AD105F078
:103F600059FE10F027FBCA4910F030FCCBF8440092
:103F7000DAF800B005F04EFE10F01CFBC44910F05A
:103F800025FCCBF84800DAF800B005F043FE8BF8CA
:103F90004C0012E005F03EFE0BEB09035870DAF816
:103FA00000B005F037FE0BEB0903D872DAF800B069
:103FB00005F030FE0BEB0903587509F10109B9F161
:103FC0000A0FC7D181E31B788BF8013005F017FE8B
:103FD00089F8010005F013FE89F8020005F00FFED4
:103FE00089F80300DAF80000AA4BC5F89001002117
:103FF0007930C5F88C3105F06DFFA74B80F00100DA
:10400000187062E305F0FBFD0B283FF69EAE4FF003
:10401000060A0AFB00F0A14BC8301B6803EB000A3C
:1040200005F0EDFD03283FF690AE8AF8060005F096
:10403000E6FD8AF8010005F0E2FD8AF8020005F0CD
:10404000DEFD8AF8030005F0DAFD8AF8040005F0C9
:10405000D6FD8AF8050038E35379092B7FF675AE53
:10406000DFF840A2DAF800B005F0C9FD8BF80000D7
:10407000DAF800B005F0C3FD8BF8010005F0BFFDD4
:10408000DAF800306428A8BF6420187105F0B7FD85
:10409000DAF800306428A8BF6420587105F0AFFD3D
:1040A000DAF80030FF28A8BFFF20987105F0A7FDBF
:1040B000DAF800B0642828BF64208BF8070005F008
:1040C0009EFD8BF80200DAF800B005F098FD8BF841
:1040D0000300DAF800B005F09DFDD9F80030ABF828
:1040E0000A005B790A2B40F2F082DAF8009005F0C2
:1040F00086FD89F80900E8E205F08CFD6FF4AF6EEB
:1041000000EB0E039BB2C62B98BFA4F8960105F0F6
:1041100081FDA4F8400105F07DFDA4F8420105F001
:1041200079FDA4F8440105F075FDA4F8D80105F067
:1041300066FD84F8F30105F062FD05F060FD84F88A
:10414000F40105F05CFD84F8850105F058FD84F864
:10415000920105F054FD514BD3F8009005F05AFD43
:1041600000EB80004000A9F856002DE105F052FD5B
:104170004B4B23F8090009F10209B9F1100FF5D1F1
:10418000A3E253790F2B7FF4E0AD05F038FD07284B
:1041900081463FF6DAADDFF804A1DAF800B005F0A9
:1041A00039FD0E2303FB09F90BEB0903A3F81901F1
:1041B000DAF800B005F02EFD0BEB0903A3F81B01A4
:1041C000DAF800B005F026FD0BEB0903A3F81D019A
:1041D000DAF800B005F013FD0BEB090383F81F01BB
:1041E000DAF800B005F00BFD0BEB090383F82001B2
:1041F000DAF800B005F003FD0BEB090383F82101A9
:10420000DAF800B005F0FBFC0BEB090383F82201A0
:10421000DAF800A005F008FD0AEB0903C3F8230152
:1042200053E205F0ECFC0F2881463FF68EAD05F019
:10423000E6FCC9EBC90904EB090383F8D00003F1DC
:10424000D00905F0DCFC89F8010005F0D8FC89F8FC
:10425000020005F0D4FC89F8030005F0D0FC89F8D1
:10426000040005F0CCFC89F8050005F0C8FC89F8CD
:10427000060000F0CCFF28E23378580700F12582D1
:104280000FF028F805F02EF808F06AFE1DE200BFD6
:1042900000007A44D8030020050000203C0C0020D8
:1042A000D00E00209C0D00203378590700F10D82BC
:1042B0004FF4C873A5F8AC3007E233785A0700F121
:1042C0000482DC4B1A7842F004021A70FDE1337864
:1042D0005B07D7D53DE205F092FCD64B1A7810B1BA
:1042E00042F0020201E022F002021A7005F087FC9F
:1042F000D14BDFF85893187005F096FCC9F8000010
:1043000005F092FCC9F8040005F084FCCB4B188042
:1043100005F080FCCA4B188095F8943143F00203F5
:1043200085F89431D1E105F06AFC019005F07CFC40
:10433000834605F079FC824605F076FC814605F05F
:1043400069FC05F067FC05F05AFC019B9BB9102045
:10435000C5F898B1C5F89CA106F010F8B54B1A78CD
:1043600042F001021A70B9F1000F00F0AE81B54BB6
:10437000C3F80090A9E1102B40F0A781C5F8A0B1C7
:10438000C5F8A4A1B9F1000F02D0AE4BC3F800905C
:10439000AD480223011D85F8A83108F017FB94E110
:1043A000A06005F041FCA3681843A0608DE105F012
:1043B00031FCA4F8580105F02DFCA4F85A0105F0D1
:1043C00029FCA4F85C0180E105F019FC84F87A016D
:1043D00005F015FC84F87E0105F011FC84F87D01E0
:1043E00005F00DFC84F87F016FE105F013FCA4F8E3
:1043F000800105F00FFCA4F8820105F000FC84F8B0
:10440000840105F007FCA4F886015EE105F0F7FBE6
:1044100084F8900105F0FEFBA4F89A0105F0FAFB80
:10442000A4F8960105F0F6FBA4F8980105F0E7FB67
:10443000D9F8003084F891015B79082B40F245816E
:1044400005F0E8FBA4F89C0105F0E4FBA4F89E014C
:104450003BE105F0D4FB84F8D60105F0D0FB84F8ED
:10446000D70105F0D7FBA4F8D8012EE192F805B0EA
:104470000323BBFBF3FBBBF1120F3FF666ACDFF887
:10448000D0914FF0000ADA4580F01F8105F0B7FBAC
:1044900089F8A00105F0BEFB40F2ED23984205DD4E
:1044A00040F6CA039842A8BF184601E040F2EE2049
:1044B000A0F2EE20192390FBF3F089F8A1010AF194
:1044C000010A09F10209DEE705F099FB84F892017F
:1044D000FBE005F094FB04EB090309F10109B9F1D4
:1044E000080F83F88801F4D1EFE005F088FBC4F8E9
:1044F00008A0607105F098FBA3681843A06005F060
:104500007EFB84F8900105F085FBA4F8580105F0C6
:1045100081FBA4F85A0105F07DFBA4F85C0105F0CD
:1045200079FBA4F8800105F075FBA4F88201CCE0CA
:1045300053794FF0070AB3FBFAF2C2EBC2029A1AA0
:1045400012F0FF0F7FF401ACB3FBFAFABAF1000FDF
:1045500000F0BB8005F053FB5FFA80FB4FFA8BF055
:1045600005F0F2FB0AF1FF3A5FFA8AFA8146002869
:104570003FF4EBAB80F800B005F04CFBA9F802006B
:1045800005F03DFB89F8040005F039FB89F80500CA
:1045900005F035FB89F8070005F031FB89F80600C6
:1045A000D4E7DFF8AC9009F1400A05F033FBA9F835
:1045B000B40205F024FB89F8B60205F020FB09F1EE
:1045C000040989F8B302D145EFD17EE005F017FB6D
:1045D0001F283FF6BAABD8F800305B79082B7FF480
:1045E000B4AB00F18C0A05F015FB04EB8A0A00F06D
:1045F0003F00AAF8060005F00DFBBAF8062080017E
:1046000000F4FE531343AAF8063005F0F8FA00014F
:104610008AF8040005F0F3FA9AF8043000F00F006D
:1046200018438AF8040005F0EAFA8AF8050001F058
:10463000C5FB4AE092020020200C0020DA1F002077
:10464000D81F002044020020F01E0020E01F0020A0
:1046500098020020012385F8A93136E005F0CFFA51
:10466000FF2881461CD100238DF81F309DF81F3094
:10467000052B2AD89DF81F20804B9DF81F10012084
:1046800003EBC101496800FA01F153F8320089B225
:10469000482205F003FB9DF81F300133DBB2E3E74E
:1046A00005283FF652AB002005F094FA05F06EFAAB
:1046B000DBF8000005F077FE18B9322005F0BDFDEB
:1046C000F6E74FFA89F007F027FC002005F082FAA0
:1046D00005F05CFAD8F80030002283F8482095F8FD
:1046E000A93173B1386805F05EFE18B9322005F0C3
:1046F000A4FDF7E704F050FF05F0A9FD604A614B07
:10470000DA60614A4C3797427FF467A95F4B1B68B8
:10471000980616D55E4BD5F8AC211B689A1A002A6C
:104720000FDB5C4A1278042A0BD95B4A03F512337B
:1047300003F5F873C2F8AC31584BDA6882F0100216
:10474000DA60574B9B68002B00F0948055489847DF
:1047500090E00AF007F8BBE70C2803D1524805F0B7
:1047600073FA5AE00A2801D00D2858D14A4C4F4814
:1047700004F1BC0605F068FA3046232113F099FADB
:1047800010B1801BC4F8B800D5F8B830002B38D071
:10479000591E705C404A202801D10B46F6E7C2F84A
:1047A000B8301344002283F8BC20414B414CD3F86D
:1047B00000A0D4F80090DFF8E080484613F086FAB5
:1047C00008F1BC07064649463846324613F086FAD9
:1047D000394B38B908EB060292F8BC2052445278A3
:1047E000520703D010349C42E3D306E09C4204D22B
:1047F000701CE3683844984702E0304805F024FA1A
:1048000000232F4800213022C5F8B83013F01EFADB
:104810002C480378002B3FF479AF2B4809E07F2820
:1048200011D1013BC4F8B83000222344274883F853
:10483000BC2005F009FAFFF75BB80C288ED07F2862
:1048400004D1FFF755B82F2B3FF652A8A0F1200254
:10485000D2B25E2A3FF64CA813B920283FF448A8EC
:104860005A1C2B44C5F8B82083F8BC0005F0E5F9C4
:10487000FFF73EB809B0BDE8F08F00BF70CC01086B
:104880000400FA0500ED00E0D41E002038020020EC
:1048900070350020200C0020501D0020000C01402D
:1048A000240C0020001F0020F6C6010830D20108A9
:1048B0005C00002050AE010830B0010801C70108BB
:1048C0000C1E002096350020F1C601081DC7010806
:1048D00003685A1C026019707047124A30B50028EC
:1048E000B8BF4042104C90FBF2F304FB03003C25A0
:1048F00068430E4D90FBF2F22D682D7B25B903EB3A
:10490000830303EB830301E0C3EB031302EB830395
:1049100004FB02020B804FF47A7392FBF3F24A809D
:1049200030BD00BF80969800806967FFCC1F0020D3
:10493000016B0346C26810B5406941B1196C541A45
:10494000005D013918BF0A46C0B21A6410BD196A69
:10495000405C0131914228BF0021C0B2196210BDF4
:10496000036B13B15A68036C01E0C269036A9A428F
:1049700037BFC068C3EB02008018C3EB0000C0B2B1
:104980007047436B13B190F844007047826A436AE2
:10499000D31A58425841704743799B070AD5436A56
:1049A0008269D154426A03690132B2FBF3F103FB1D
:1049B000112343627047437913F0010307D0C368A2
:1049C000C169026A013B881A1840C0B27047184694
:1049D0007047437910B513F0010304460DD0FFF77B
:1049E000EAFF58B1226A6369985CE3680132B2FB5E
:1049F000F3F103FB1123236210BD184610BD426A78
:104A0000806A131A58425841704741717047334ABF
:104A100010B5136C90681944081A40F68C2398421C
:104A20009160D060516013463CD9127893F94510DB
:104A30008A420BD1111F082908D893F8461018296B
:104A400001D8013103E083F8442002E0002183F81B
:104A5000461093F944108A421CD1204991F847101E
:104A6000C1B1002191421E4806DA03EB810424699A
:104A700020F811400131F5E7511E00EB41011630DD
:104A8000814203D0002421F8024FF9E71549087844
:104A90000130087083F84520002201211A7083F844
:104AA000471010BD92F84710B9B1A0F2EF2440F2C0
:104AB000DA518C4208D811780B2905D80B1D013129
:104AC000117042F8230010BD002283F84720991886
:104AD00004320020302A0861F9D110BD40160020B0
:104AE000140200201202002010F80A3C0133DBB24D
:104AF0000A2B00F80A3C07D910F8131C034A0023BC
:104B000022F8113000F80A3C704700BF1402002060
:104B1000024B1A6C01321144196470474016002090
:104B2000024B53F820301B6819807047681700202B
:104B3000074BA1F57A7153F820304FF47A701A6858
:104B40001B894B4393FBF0F39BB21380704700BF6C
:104B5000681700208C46654B65492DE9F04F1B68AE
:104B60004C899846220200234FF00009B8EB020856
:104B700069EB03098A88002716040A8989B0A2FB19
:104B8000084502FB0955E20942EA4562B4184A8821
:104B90004FEAE5134FEAC236CA8847EB0305CDE971
:104BA0000645A2FB084502FB0955220A42EA0562B6
:104BB00016EB020A8A894FEA2523A8FB024502FB6D
:104BC00009554FEAD4524FF0000742EA452247EB1D
:104BD000030B12F5FA664FEAE55343F10007CDE9FE
:104BE0000467B6F5FA6F77F10007019060DAA2FB6F
:104BF000026702FB03F107EB41070521A6FB014514
:104C000001FB0755DDE9066769104FEA3400361AE3
:104C100067EB0107CDE90667DDE90401A608354C1D
:104C200046EA8576AF104FF0FF35BAEB060A6BEB1C
:104C3000070BA042A94128DADDE9066740F6AC542B
:104C400012194FF0000543EB050302FB03F1A2FB31
:104C500002236FF0060403EB4103514204FB0311EE
:104C6000A2FB044536190D444FF00B0147EB050735
:104C7000A2FB014501FB0355CDE906676D104FEA24
:104C80003404BAEB040A6BEB050B08FB09F3DDE90E
:104C90000401A8FB088909EB43094FEAD87242EAEC
:104CA00049024FEAE973801A61EB0301CDE904017F
:104CB000114B019E1A68A2FB0A4502FB0B55620DBF
:104CC00042EAC5226B15DDE90645121B63EB0503BD
:104CD000D40B44EA434406B13460BCF1000F02D067
:104CE000049FCCF8007009B0BDE8F08FC428002004
:104CF000CC22002024FAFFFFC82800202DE9F04F25
:104D0000924B85B0074618680E460FF057FC904C42
:104D1000804620880FF04EFC4FF05C51054640461F
:104D20000FF0A0FC4FF06451814628460FF09AFC2A
:104D3000014648460FF08CFB4FF0625181464046D9
:104D40000FF090FC4FF06A51804628460FF08AFC25
:104D5000014640460FF07CFB0546B4F902000FF017
:104D60002DFC014628460FF07DFC49460546484685
:104D70000FF078FC8046B4F904000FF01FFC0146E8
:104D800040460FF06FFC014628460FF063FB80465B
:104D90000FF02EFE6F490546A06140460FF016FD4C
:104DA0006D4B80461B68284602930FF007FC4FF0BE
:104DB0007C510FF057FC69490FF04AFBE389054627
:104DC000B4F90A0003930FF0F9FB29460FF04AFCEF
:104DD00029460FF047FC4FF058510FF043FC814635
:104DE000B4F908000FF0EAFB29460FF03BFC01463E
:104DF00048460FF02FFB4FF058510FF033FC4FF0A7
:104E000060510FF02FFC4FF07E510FF023FB8146D5
:104E1000E0880FF0CFFB014648460FF023FC00214D
:104E2000B4F810B0B4F80CA081460FF0AFFD002824
:104E30007CD1294628460FF015FC03460FFA8BF06B
:104E400001930FF0BBFB019B014618460FF00AFCD3
:104E50004FF060510FF006FC039B834618B20FF031
:104E6000ADFB014628460FF0FDFB01460FF0F2FABC
:104E7000014658460FF0EEFA4FF07A510FF0F2FB70
:104E8000834602980FF09AFB01464FF093400FF0D3
:104E9000DFFA05460FFA8AF00FF090FB4FF08F41D2
:104EA0000FF0E0FB014658460FF0D4FA4FF0665180
:104EB0000FF0D8FB014628460FF0CAFA28490FF038
:104EC000D1FB49460FF082FC0546B4F916000FF0FD
:104ED00075FB29460FF0C6FB29460FF0C3FB4FF0C8
:104EE00040510FF0BFFB8146B4F914000FF066FB90
:104EF000014628460FF0B6FB4FF060510FF0B2FBB1
:104F0000014648460FF0A6FA8146B4F912000FF0A8
:104F100055FB014648460FF09DFA4FF076510FF0D1
:104F2000A1FB014628460FF095FA00E0002017B1DA
:104F30000FF05EFD38602EB140460FF059FD64233E
:104F40005843306005B0BDE8F08F00BFD028002086
:104F5000082300200000A045CC28002000007A474C
:104F60000050C34570477047324B2DE9F0411C8813
:104F7000314B0A265A89B3F91250A41A1A89ED0244
:104F80005443B3F91420E413224495FBF2F2224473
:104F9000DA615643A2F57A6202FB02F4B3F90480A7
:104FA000B3F902C0B3F90E7002FB0CFC02FB08F26D
:104FB000B3F90C802413674304FB08F4241404EBB6
:104FC00062320232DC88921002F50042B3F92050BE
:104FD0006243B3F900304FEAEC2404EBE72404EB1E
:104FE0008304AC40154B02341B68D20BA3EBA40422
:104FF0004CF250332B41634355BF5B00B3FBF2F3DC
:10500000B3FBF2F35B001A12524340F6DE34624304
:105010000B4C08365C43241404EB224202F6CF62A8
:10502000361103EB221300B1036001B10E60BDE83D
:10503000F08100BFDC280020E0220020D8280020DA
:1050400043E3FFFF024B4FF480521A80704700BFCA
:105050000C000020054B1A7802F0FF0122B101225A
:10506000027000221A7070470170704720220020E1
:1050700008B503681B68984708BD014B1868F7E737
:10508000D41E0020A0F17D03012B70B504460D460F
:105090000A4E05D830687D21FFF7EAFF84F020042E
:1050A00030682146FFF7E4FF35B12B881C4404EB40
:1050B000142404F0FF042C8070BD00BF8C2000205D
:1050C00030B585B004AC002524F8025D0091ADF840
:1050D000060021461020FFF7D5FF9DF80600214667
:1050E000FFF7D0FF9DF807002146FFF7CBFF9DF8A3
:1050F00000002146FFF7C6FF9DF801002146FFF79B
:10510000C1FF9DF802002146FFF7BCFF9DF8030098
:105110002146FFF7B7FF9DF80E002946C043C0B2F5
:10512000FFF7B0FF05B030BD38B5054C05465E2130
:105130002068FFF79DFF20682946BDE8384097E7C3
:10514000FC310020014B5E21186891E7FC31002002
:1051500010B50A4C5E280146206805D15D21FFF795
:1051600087FF20683E2105E05D2903D1FFF780FF1E
:1051700020683D21BDE810407AE700BFFC310020E7
:1051800010B50446C0B2FFF7E3FFC4F30720BDE843
:105190001040FFF7DDBF13B5044601A90068FFF713
:1051A0009CFB1320FFF7C0FFBDF90400FFF7E8FFE9
:1051B0001B20FFF7B9FFBDF90600FFF7E1FF232031
:1051C000FFF7B2FF2368002BACBF4E205320FFF740
:1051D000D7FF01A96068FFF780FB1220FFF7A4FF4B
:1051E000BDF90400FFF7CCFF1A20FFF79DFFBDF9C2
:1051F0000600FFF7C5FF2220FFF796FF6368002B2C
:10520000ACBF45205720FFF7BBFF02B010BD38B53B
:1052100000240F4D21460F4870222C7012F016FD0D
:1052200021460D4B1B680B4493F9022072B11C6898
:1052300008480C500A189888073190809B7970298B
:1052400093712B7803F101032B70EAD138BD00BFB5
:10525000E80E0020E90E002030160020094B0E2237
:105260001B6802FB0030437AFF2B07D0064A1278F6
:105270009A4203D9054A32F8130000E0808800B250
:10528000704700BFB00D00202E1F00204E020020EE
:10529000F8B5B0F904400E46A142124B05DA058874
:1052A000196811480FF0D4F804E045880E491868D1
:1052B0000FF0D0F80C490FF0CBF80746301B0FF079
:1052C0007DF9014638460FF0CDF9064628B2001B9D
:1052D0000FF074F9014630460FF078FA02490FF0EA
:1052E000B9F8F8BDC40D00200000B4422DE9F84F14
:1052F000D0F80490D1F808A0D0F808804E680D6866
:1053000007685146484614460FF0ACF931468346CB
:1053100040460FF0A7F9014658460FF099F8294684
:10532000206040460FF09EF95146804638460FF007
:1053300099F9014640460FF08BF8314660603846D7
:105340000FF090F92946064648460FF08BF90146C2
:1053500030460FF07DF8A060BDE8F88F2DE9F041F0
:1053600005460C464068496816460FF073F8A16878
:105370008046A8680FF06EF82168074628680FF08D
:1053800069F8C6F804803060B760BDE8F0812DE9A7
:10539000F04104460D460846616816460FF062F972
:1053A000A168804628460FF05DF929460746206827
:1053B0000FF058F9C6F804803060B760BDE8F0819E
:1053C00001380A4B042804D8DFE800F00507090B70
:1053D0000D00074A08E0074A06E0074A04E0074ACA
:1053E00002E0074A00E0074A1A6070474C000020BC
:1053F000318A0008A9F60008B9CB0008857E0008AC
:105400007D810008CD840008064B1B7803F004035F
:1054100003F0FF001BB1044B1888C0F3C01000F06C
:10542000010070479735002040020020044B002205
:105430001A605A60034B00221A605A60704700BF1E
:10544000A4200020B4200020F8B507460C46486888
:10545000002115461E460FF099FA58B128460FF064
:10546000ADF810490FF0FEF801464FF07E500FF0F6
:10547000ADF96060616830460EF0ECFF01463046E1
:105480000FF0A4F925680646294638460EF0E0FFDD
:10549000014630460FF0E6F8014628460EF0DAFFE6
:1054A0002060F8BDDB0FC9402DE9F04102780346CA
:1054B000202A00F10100F9D0092AF7D02D2A02D1C3
:1054C0000346414D04E02B2A08BF03464FF07E55AA
:1054D0001E460024334616F8012BA2F13007F9B21C
:1054E00009290DD8394920460FF0BCF80446384642
:1054F0000FF064F8014620460EF0ACFF0446E9E7E1
:105500002E2A17D1314F334616F8010B3038C2B26C
:10551000092A0FD80FF052F839460FF057F9014613
:1055200020460EF097FF2949044638460FF09AF8B6
:105530000746E8E71A7802F0DF02452A38D15A78A0
:105540002D2A02D10233012604E02B2A14BF013395
:1055500002330026013B002713F8012F303AD1B265
:10556000092903D80A2101FB0727F5E7B7F59A7F38
:1055700028BF4FF49A77B8464FF07E51B8F1070F25
:1055800007D9084612490FF06DF8A8F1080801463E
:10559000F4E707F0070737B108460C490FF062F847
:1055A000013F0146F7E72EB120460FF00FF904E066
:1055B0004FF07E5120460FF055F8014628460FF077
:1055C00051F8BDE8F08100BF000080BF000020411D
:1055D00020BCBE4CF0B50124B0FBF4F58D4201D3E4
:1055E0004C43F9E70026DCB1B0FBF4F504FB1500F1
:1055F000B4FBF1F41EB9002D01DC002CF3D1092D10
:1056000003F101075FFA85FC04DD002A0CBF572572
:10561000372500E0302565441D7001363B46E2E742
:105620001C70F0BDF0B50124B0FBF4F58D4201D340
:105630004C43F9E70026DCB1B0FBF4F504FB1500A0
:10564000B4FBF1F41EB9002D01DC002CF3D1092DBF
:1056500003F101075FFA85FC04DD002A0CBF572522
:10566000372500E0302565441D7001363B46E2E7F2
:105670001C70F0BD70B50646B6FBF2F40846154640
:1056800014B12046FFF7F6FF05FB1464024B1B5DC7
:1056900000F8013B70BD00BFA0CC01082DE9F84324
:1056A000089E002B0746884614460CBF4FF0200981
:1056B0004FF03009334613F8012B0AB9254603E0B1
:1056C000002CFBDD013CF6E7002D04DD38464946A1
:1056D000C047013DF8E724EAE4742546331B595DD1
:1056E00019B13846C0470135F8E72846BDE8F883C8
:1056F00080EAE073A3EBE0738B4206DB002801DD58
:10570000401A704702D008447047002070472DE9C6
:10571000F84321F0004520F0004607468846284619
:1057200031460FF05BF908B12C4600E034462046C4
:1057300000210FF02BF960B9284631460FF030F9FF
:1057400008B1284600E0304621460FF03FF80446F5
:1057500000E00024204625490EF084FF24490EF085
:1057600077FE21460EF07EFF22490EF071FE2146A3
:105770000EF078FF20490EF06BFE21460EF072FF0E
:105780001E490EF065FE1E4900F1004920460EF04C
:1057900069FF1C490EF05EFE21460EF063FF4FF0DC
:1057A0007E510EF057FE014648460FF00FF829468D
:1057B000044630460FF012F920B1214612480EF08F
:1057C00047FE0446404600210FF0EAF820B121468A
:1057D0000E480EF03DFE0446384600210FF0E0F87A
:1057E00008B104F100442046BDE8F88339094E3D74
:1057F000E3B59E3E88FA163E45FE7F3FA7DFA834FC
:1058000099FB243F69A2163EDB0FC93FDB0F4940DD
:10581000F8B5101A0C461F460EF0D0FE0546381B90
:105820000EF0CCFE174B079E19680EF01BFF2946A1
:10583000044628460EF016FF2146074620460EF085
:1058400011FF014638460EF005FE12F04FFE0E49DC
:105850000EF008FF0FF0F2F8069B2146186005F1E4
:105860000040FFF754FF09490EF0FCFE08490EF016
:10587000F1FD0FF0BDF80028BCBF00F50C40A030D2
:105880003060F8BD400000202C7D8E3FA00CB34559
:1058900000A00C4670B504460FF0AAF8203040284E
:1058A00057D820462C490FF099F828B120462B49AB
:1058B0000EF0CEFD0446F4E7204629490FF070F8BB
:1058C00028B1204625490EF0C5FD0446F4E72046E0
:1058D00024490FF083F830B1224920460EF0B8FD7C
:1058E000014620480AE020461F490FF059F840B110
:1058F0001C4920460EF0AEFD01461B480EF0A8FDE7
:105900000446214620460EF0ADFE054629462046B7
:105910000EF0A8FE0021064628460EF0A3FE13490D
:105920000EF096FD014628460EF09CFE10490EF042
:1059300091FD014628460EF095FE0E490EF088FDB9
:10594000014630460EF08EFE014620460EF082FDE6
:1059500070BD002070BD00BFDB0F4940DB0FC940A8
:10596000DB0F49C0DB0FC93FDB0FC9BF92E74139ED
:105970009730083C15A82A3E08B503490EF06AFD89
:10598000BDE8084086E700BFDB0FC93FB0F9023031
:105990002DE9F74F93421CBF002303700478824621
:1059A0000E461746002C40F0BA8010460EF006FE58
:1059B00099490EF057FE99490EF054FE4FF07C5174
:1059C0000EF050FE8046FFF765FF05464046FFF7A4
:1059D000D3FF014628460EF0F9FE014605460EF0BB
:1059E00041FE8F49834628460EF03CFE0346194689
:1059F000584601930EF02EFD4FF07E510EF02AFD19
:105A000001464FF07E500EF0E1FE294681460EF031
:105A100029FE29460EF026FE0146CAF804008046FB
:105A20000EF018FDCAF80C804FF07E582946CAF8CF
:105A30000800CAF8108028460EF00CFD29460EF02A
:105A400011FE4FF080410EF003FD014648460EF076
:105A500009FE019BCAF81400194658460EF0F8FCDE
:105A600041460EF0F7FC014648460EF0FBFD40F2C1
:105A7000DC53CAF854301023AAF852301823CAF85D
:105A80001800AAF8503055460AEB04084FF0974129
:105A9000D8F810000EF0E6FD002181460EF080FFE0
:105AA00028B148464FF07C510EF0D2FC04E0484645
:105AB0004FF07C510EF0CEFC0EF0FCFFC5E90E015C
:105AC0004FF09741D8F804000EF0CCFD002180463D
:105AD0000EF066FF28B140464FF07C510EF0B8FC46
