:020000040800F2
:100000000050002019300108C5300108ED19010821
:10001000C5300108C5300108C530010800000000E6
:10002000000000000000000000000000C5300108D2
:10003000C530010800000000C5300108BD190108E5
:10004000C5300108C5300108C5300108C5300108B8
:10005000C5300108C530010821BF00081DBF0008D8
:10006000C5300108C5300108C5300108C530010898
:10007000C5300108C5300108DDBE0008C5300108E3
:1000800025BF0008C5300108C5300108C53001088A
:10009000C5300108C5300108C530010819BF000886
:1000A000C530010899BE0008C5300108A9BE000886
:1000B00089BE000879BE000869BE000861BF00085B
:1000C00059BF00085DBF000855BF0008C5300108D2
:1000D000C5300108D1BE0008C5BE0008B9BE000881
:1000E000CD190108C5300108C53001080000000025
:1000F0000000000000000000000000000000000000
:0C01000000000000000000005FF808F1A3
:100110002DE9F04F754B764EA3B03360002373602A
:1001200008F070FE18B90BF0B3FB08F08FFE11F069
:1001300057FA704B704C1A78704D42F001021A70E9
:1001400000230A930B930C934FF4E0130D93236851
:10015000297B43F480332360A36943F01003A36138
:10016000236803F400330B930A9B01330A930B9B20
:100170001BB90A9BB3F5A06FF2D122685E4B12F453
:10018000003201D0022315E0186840F00100186029
:100190000A92236803F002030B930A9B01330A932C
:1001A0000B9B1BB90A9BB3F5A06FF2D123689F0785
:1001B00039D501230C93524B52481A6842F0100271
:1001C0001A601A6822F003021A601A6842F00202EA
:1001D0001A606368636063686360636843F48063A4
:1001E0006360494B1A68043B22F070425A60474AE8
:1001F0001060606820F47C106060586840F0004037
:100200005860D86820F40040D8609B68180449BF43
:100210003F4B4FF4E01313604FF480130D930C9B8E
:10022000012B01D117E0FEE7022B18D169B10D9B1C
:10023000B3F5801F02D14FF4A01305E00D9BB3F579
:10024000E01F02D14FF400130D9361680D9B0B4327
:1002500043F4803302E0636843F46013636023680F
:1002600043F0807323602168234B8901FBD55968D3
:1002700021F003015960596841F002015960636837
:100280001D4903F00C03082BF9D14868214B00F0FD
:100290000C00042803D0082804D01A4900E0116893
:1002A000196011E048684F68C0F38340FF0300F114
:1002B000020001D4184905E0496811F4003F1168B3
:1002C00018BF49084843186061681448C1F3031116
:1002D000014491F81890196821FA09F9C3F80090BF
:1002E0001368084A93421BD101221DE0096A0008E5
:1002F000C80000200C310020001002404C080020F3
:100300000020024000127A0004100140000000208A
:10031000001BB7004C00002000093D006878010870
:10032000644A934202D10222634B1A70DFF8B8B1DB
:10033000624B22AFCBF80C30A369DFF8A88143F001
:100340000103A361636ADFF898A1B360636A4FF0A9
:10035000000043F080736362A36943F01C03A36150
:100360004FF6FF7327F82C3D39468DF85E00404666
:10037000069710F090FE5046069910F08CFE5048FB
:10038000069910F088FE02234FF0100C22A98DF878
:1003900043304FF4007321F8483D8DF842C0404689
:1003A000C8F81030CDF808C010F075FE454B06981F
:1003B0005A6842F000725A6007F0D4FB424A179B19
:1003C0000021B3FBF2F341481822F36014F034FF2C
:1003D0004FF47A723E4BB9FBF2F909F1FF325A60E1
:1003E000F0228BF823200020072298601A60AB6867
:1003F000DFF8F890DDF808C0C9F80030354BDFF8B9
:10040000F0B00FCB87E80F00A369179843F00803FB
:10041000A361A36918A943F00803A3610823CAF8DC
:100420001030CAF810C010F036FE19981AA910F052
:1004300032FED9F800301F0760D59BF89031012BB0
:100440005CD8254B9BF891219B6813F0805800F0F5
:100450008C860027002F51D0204B214F18684FF079
:10046000100AC7F814A0069917901E4810F013FE42
:100470001C4908230B613C2006F0DBF9C7F810A0EB
:100480004FF0000A95F891319A4533DA154ADFF8B2
:1004900050B00827CBF810707820576106F0BEF9ED
:1004A000104BCBF8147078201F6106F0B7F90AF1F1
:1004B000010AE7E7001BB700343100200005FA0508
:1004C000001001400000014040420F00F4300020C5
:1004D00010E000E090780108C8000020A078010832
:1004E000000C01400008014000ED00E084060020FF
:1004F0004C080020B8F1000F00F03E86642006F0A2
:1005000098F9A0229648002114F096FEE369002293
:1005100043F00703E361A36943F4006343F00C0372
:10052000A361904B002403F11001545401320E2AB0
:10053000F7D1FF229A77DA7783F8202083F82120F9
:10054000894B8A4AD9F800701A60214688483C22B3
:1005500014F072FE07F04008052321460C20854A5E
:1005600048438C5C824A8454B8F1000F06D11E3C8B
:10057000012C03D8FF24013B8454DBB2013105294F
:10058000ECD17D497D4A7162C0311370B1626A79E4
:100590007B497C4B01EBC20149781A70B806714B5C
:1005A00048BF0121D9620023774940F2DC505852FC
:1005B0000233102BF8D1012A40F0AE80734B0A3180
:1005C0001F68734BB7F90C001A68724B46321A60F9
:1005D000714BDFF8FC81196011F0F8FE6F4911F0E2
:1005E000FDFF7B89DFF8EC91A8F80030FB8901461C
:1005F000A9F800306A4B30631F60044611F03AFFDF
:100600004FF07E5111F02EFE15F0CCFB4FF07E51D5
:1006100011F028FE214611F0E1FF15F01DF86149A7
:1006200011F028FF12F0ECF85F4BB9F80070188059
:1006300038B211F0CBFE5D4911F01CFF12F0E0F86A
:100640005B4BB8F800C018805A4B4FF4C8781F8035
:10065000CCF561739BB207930CF5617C0027564B78
:100660001FFA8CFCB9460FFA88FB58460393CDF865
:1006700008C011F0ABFE494911F0B0FF4F4911F02D
:10068000F9FE824615F0FEF801465046059115F038
:1006900071F902465046049208F06EFB05998246B5
:1006A00004F1004011F0E6FE049A114611F0D8FD65
:1006B000434911F0DFFE514611F0DCFE12F0A0F8C4
:1006C0000799039B0AB280B2934523F8020FDDF825
:1006D00008C010DB0FFA8CF293450CDC00B20FFA65
:1006E00089F93FB24845B8BF8146B842A8BF07461E
:1006F0001FFA89F9BFB208F10A081FFA88F8B8F59D
:10070000AF6FB0D10FFA89F9C9F100093FB22D4B93
:10071000B945B8BF4F461F8010A800211C2214F015
:100720008BFD294B294F1C6814F4007904F40068F0
:1007300052D0A3040DD4B8F1000F08D095F884214D
:1007400007F10C03012A18BF3B46079304E0079703
:1007500002E007F10C02079217AB16933EE000BFD0
:1007600018250020C8000020801C0020400A00201E
:10077000E41C0020A49901085C080020E21C002071
:100780008C9A01083A1200206C13002030120020CD
:100790007C1300203C120020401200200000204169
:1007A000041500200000A041461200209999993EAE
:1007B00044120020481200201214002035FA8E3C0A
:1007C00000007A4412140020840600206878010892
:1007D0004A12002008150020CDF81C906B790E2BD2
:1007E00003D003F0EF03082B02D101238DF8523020
:1007F000012005F003FF18B14088003018BF012028
:10080000C4F340038DF84630C4F380138DF84930AB
:10081000C4F3403300F001008DF84030C4F3C0331E
:100820008DF845008DF84330B8F1000F07D095F8EA
:100830008481B8F1010EDEF1000858EB0E08C4F314
:1008400000438DF84A30F36A19F1000918BF4FF0E0
:100850000109003318BF01238DF84C30C4F3005355
:100860008DF84D30B5F84631B5F844E1ADF850306B
:10087000B5F8523104F00101ADF84E30C4F38043B5
:100880008DF8473095F85431C4F3C002181C18BFD6
:1008900001208DF84800B5F85001E4048DF844803B
:1008A0008DF841108DF842208DF84B90ADF8540032
:1008B000ADF856E004D5B64CB4F84C41ADF856400E
:1008C000B0F5FA7F02D90BB9ADF8563095F8D431AE
:1008D000B04886F83430002386F8353043709DF8F0
:1008E0005230002B14BF0223002301B902B101339F
:1008F00007EB8303DB6B4FF0000B0993CDF820B0BF
:10090000099B33F80B204FF6FF739A4200F0958154
:10091000D3B2A14E9DF845101D01741919B1991E4D
:10092000012940F284819DF8491021B171599B48F9
:10093000814200F07C819DF84AE0BEF1000F04D0B6
:1009400071599648814200F072819DF8461039B184
:1009500061689348814203D12189102900F06781A1
:100960009DF8431039B161688D48814203D12189D6
:10097000022900F05C819DF8441039B16168894812
:10098000814203D12189022900F05181DDF858C04C
:10099000BCF1000F0FD06068DCF8001088420AD16B
:1009A0002189BCF80400884200F04181BCF80600AF
:1009B000884200F03C814FEA1228B8F1020F02D1C0
:1009C0009DF8402004E0B8F1010F04D19DF84120CA
:1009D000002A00F02C819DF84C2062B19DF8522035
:1009E0004AB9A3F10802012A05D871596E4A914209
:1009F00008BF4FF004089DF84D2062B19DF85220C9
:100A00004AB9BEF1000F02D00C3B012B01E0043BC0
:100A1000032B40F2F480B8F1010F42D1634BFF2267
:100A200083F87C2083F87D202189627B4FF00009C8
:100A300083F88090C3F88C406068ADF85C108DF846
:100A40005E2017A9022283F83890C3F83C90C3F8BF
:100A50004090C3F84490C3F8789083F87E9083F870
:100A60007F908DF85F20039310F015FB7059A17AE9
:100A70004A4607F02DF820464946424607F05CFFFB
:100A8000039B4B4AC3F89890C3F89020494A2046EC
:100A9000C3F8942003F1900103F194020EF0EAFCF4
:100AA000C5E0B8F1020F42D10899434ACBB21C21EC
:100AB0004B43089802EB03094FF0000A4FF0010C7A
:100AC00089F8010089F802A089F80AA002F803C099
:100AD000637B22896068C9F80C4017A98DF85E30E5
:100AE000CDF808C0ADF85C208DF85F8010F0D3FA27
:100AF0007059A17A524606F0EBFFDDF808C0204697
:100B00006246514607F018FF2C4B09F11001C9F855
:100B100010302B4BC9F818A0C9F81430204609F141
:100B200014020EF0A7FC0899013108917FE0B8F19A
:100B3000030F61D19DF847301C4D8BB19DF84830B3
:100B400095F836603BB1BDF854301E4A2046B2FBE2
:100B5000F3F208213FE0204608214FF6FF723DE006
:100B6000BDF8543095F83660B3F5FA7F2ED9154AA2
:100B70002046B2FBF3F20821BDF8563092B207F0DE
:100B8000ADFF05EB8606C6F860010F4B2DE000BFF8
:100B90004C080020FD000020AC9901080004004032
:100BA00000080140000C0140002C0140C80000205A
:100BB000BD080108C1090108480100200D7B00089B
:100BC0009909010800127A00E1090108B24A204699
:100BD000B2FBF3F20121BDF8563092B207F07EFF6E
:100BE00005EB8606AD4BC6F86001C36095F836305C
:100BF000013385F836301AE0B8F1040F17D1BDF88B
:100C00004E30A54AA64D92FBF3F22046BDF8503077
:100C1000012192B295F8356007F060FF95F8353004
:100C200005EB86060133C6F8900185F835300BF1E7
:100C3000020BBBF11C0F7FF463AE994C994B94F8F7
:100C40003520002684F8B021974A1E701578994601
:100C5000A5F11702022A1AD8636A0021985903EBFA
:100C6000060811F09BFD10B1E36A7BBB27E08F4BB8
:100C700006EB030E98E80F008EE80F0099F800309D
:100C800010360133C02E89F80030E5D1ECE7884BEF
:100C900013F835C003EBC503D3F8048089F800C00E
:100CA000B8F1000FE0D06645DEDA804A330103EB8D
:100CB000020E43440FCB01368EE80F00F3E77D4B65
:100CC0001A68984612F4805F23D11CE007EBC50731
:100CD00097F84C00784B3E6D1870002EEFD0002333
:100CE0008342ECDAC3EBC3017218D2F800C0DFF81C
:100CF00000E2013341F80EC001EB0E079188B98084
:100D00009279BA71ECE705F0EF03082B6B4B25D114
:100D100026E099F80090B9F1010FF4D9684E002748
:100D20004F4506F11006EEDA56F8100C4FF07C51E4
:100D300011F0A0FB4FF07C5146F8100C56F8140C43
:100D400011F098FB4FF07C5146F8140C56F80C0C3F
:100D500011F090FB013746F80C0CE1E70E2D08D19D
:100D60001A78182D42F010021A7008D105F0FAFE18
:100D700005E01A78192D22F010021A70F5E70EF02E
:100D8000E7FAD8F800305D0302D44E4B01221A7006
:100D90004D4B4E4D1A784E4F42F004021A702B788C
:100DA0004FF48052012B8CBF102314238DF85E303A
:100DB0004FF002038DF85F30BB69ADF85C2043F063
:100DC0000403BB618CBF01260026424817A910F01E
:100DD00062F9414B0EB1414A00E0414A00201A60DD
:100DE00005F05AFD069A3F4B3F4E93E80300BB695E
:100DF00082E8030043F0080318A9BB61179810F0BC
:100E00004AF910F097FB9F238DF83C3032200023E5
:100E10004FF480598DF83D308DF83E308DF83F30DD
:100E200005F007FD0422C6F8149006980FA90DF0EE
:100E3000AFFEC6F810909DF85E209DF85D3012025E
:100E400042EA03429DF85F301A43284B9A4214D07D
:100E5000322005F0EEFCC6F81490F5200DF064FE8B
:100E6000FF200DF061FE7028C6F8109005D12B7898
:100E7000022B02D1154B03221A702B78032B0CBFC7
:100E80001F20022005F071FB2B78032B32D00120AC
:100E900009F030FE38E000BF40420F00D1090108E0
:100EA000C8000020E01100203A1200204C1200205F
:100EB0008C9A010884060020801300204608002038
:100EC00054120020501900200C3100203431002031
:100ED000001002400008014010310020E1640008C9
:100EE000F564000884790108000C014015202000F9
:100EF00081130020022005F081FB18B140880030EA
:100F000018BF0120C007C2D5D8F8006095F800A02E
:100F1000AA4D4FF0100B06F40063284600215A46F4
:100F2000069314F089F94FF6FF73ADF83C300223B5
:100F300006F400494FF000081E408DF83E308DF851
:100F40003F800DD022A921F84CBD9D4806F05CFEE3
:100F50000126042207232A7085F80180AE70EB7009
:100F6000B9F1000F0ED0022322A921F84C3D94487C
:100F700006F04AFE0123F2182B71AB7107236E7144
:100F8000EB71D6B2BAF1010F0FD9202322A921F8B3
:100F90004C3D8B4806F038FE052301222B72AA72C5
:100FA000731C07226E72EA72DEB2069B7BB10223CB
:100FB00022A921F84C3D834806F026FE0923012290
:100FC0002B73AA73731C07226E73EA73DEB27B68FD
:100FD0007D4843F440437B607B69DFF8EC8143F05C
:100FE00001037B61BB6943F40073BB6106F0F7FE4C
:100FF00017A806F0C9FE754B00271793744B022EF5
:10100000189334BF3B4680231C934FF480731D9389
:101010004FF480631E93202317A91F9340464FF47B
:1010200000531A96209319971B97219706F0B9FE43
:10103000D8F80030012E43F00103C8F80030654BAA
:1010400098BF00215A6888BF012122F4702222F43F
:10105000807242EA01225A6099685F4A013E0A4062
:1010600042F4602242F002029A60DA6AF6B222F496
:10107000700242EA0656DE623846012329188A7851
:10108000002A5AD02A5C5E1C092A91F803E0F6B2C5
:10109000504911D9A2F10A0707EB47074FF0070C97
:1010A0000CFA07FC0EFA07FED1F80C8028EA0C0CAB
:1010B0004CEA0E07CF600EE002EB42074FF0070C40
:1010C0000CFA07FC0EFA07FED1F8108028EA0C0C87
:1010D0004CEA0E070F61062B3E490ED8013B03EB8D
:1010E00083034FF01F0E0EFA03FE9A404F6B27EA60
:1010F0000E0747EA02034B6320E00C2B0ED8073B98
:1011000003EB83034FF01F0E0EFA03FE9A400F6BA2
:1011100027EA0E0747EA02030B630FE00D3B03EBE0
:1011200083034FF01F0E0EFA03FE9A40CF6A27EAA0
:101130000E0747EA0203CB6200E01E460430102887
:1011400001D033469AE7234B9A6842F480729A6042
:101150009A6842F001029A609A6842F008029A6026
:1011600099681C4A09070ED5FAE7571E092F8CBF4C
:1011700000270127FFF76EB9184B83F8918104F01F
:10118000D3FAFFF7BBB9936843F004039360114AA5
:10119000936813F00403FAD1916841F4A0019160BF
:1011A0000E4AB2F85801E0B9B2F95A31C3B9B2F9EE
:1011B0005C31D3F1010338BF002312E06C1B002027
:1011C00000080140000C0140080002404C2401408E
:1011D0007C1B002000240140FDF7F1FF4C0800209B
:1011E000034613F0010340F09380B34A00B2137139
:1011F00011F0ECF8B14911F03DF9B14F0646B7F9DD
:101200005A0111F0E3F8AD4911F034F90546B7F988
:101210005C0111F0DBF8A94911F02CF9A9498146CC
:10122000304611F01FF805F01CFF0746304605F068
:1012300018FFA4498046284611F014F805F011FF64
:101240000646284605F00DFF9E490546484611F022
:1012500009F805F006FF8246484605F002FF3946C8
:101260008146504611F006F939468346484611F04A
:1012700001F951460690404611F0FCF849460890A5
:10128000404611F0F7F831460990504611F0F2F857
:101290004946C4F8B40106F1004011F0EBF82946C4
:1012A000C4F8B801C4F8BC51089811F0E3F801463D
:1012B000069810F0D7FF2946C4F8C001099811F02C
:1012C000D9F80146584610F0CBFF3146C4F8C401A6
:1012D00008F1004011F0CEF82946C4F8C80158467C
:1012E00011F0C8F80146099810F0BAFF2946C4F871
:1012F000CC01069811F0BEF80146089810F0B2FF34
:101300003946C4F8D001304611F0B4F8C4F8D4011D
:101310006D4F3B689A0320D5C82005F08AFAAE20AD
:101320000DF0E9FD08B10DF0EBFD84F8D801C820FF
:1013300005F07FFA654B00210C226548C4F8DC31CA
:1013400013F07AFF022384F8E3310EF04FFE05F02C
:1013500026FA604B0344C4F8E8315F4E584D3368B9
:1013600095F85F0195F8691195F86A21B3F95E3037
:101370000BF076FFB04610B901200DF03DFE574B43
:101380000A261A7842F002021A70554B10225A614E
:1013900008221A61DFF848911920D9F80C30013E73
:1013A00083F01003C9F80C30D9F80C3083F008032F
:1013B000C9F80C3005F03DFA012005F06DFA19204E
:1013C00005F037FA002005F067FA16F0FF06E1D1C4
:1013D00008234FF0100A434EC9F81030C9F810A086
:1013E00033681B0709D5404BC9F814A01B68984700
:1013F0003E4B0122C9F810A01A70D4F8EC31187BCA
:1014000010F0E4FF2D4911F035F82E4910F02AFFB5
:1014100005F027FE364BC4F8F0012849186911F091
:1014200029F8344BC4F8F401188810F0CFFF0146B6
:10143000314811F0D3F8314911F0D0F8304C314B2C
:10144000186005F0CFFBFF211C22204613F0F4FEAC
:101450000022227032682C4B012112F0020F197009
:10146000204604D06170032119700221A170540735
:1014700004D519784C1C1C700324445412F00A0F34
:101480000CD01A7804218154511CC9B2052444544B
:10149000D11C02321970D2B2062181543A689106E9
:1014A00004D519784C1C1C70072444546979082908
:1014B0002CD00E2933D129E00000002035FA8E3CD3
:1014C0004C080020DB0FC93F84060020D40900200F
:1014D000A8020020404B4C00C01100200C3100201D
:1014E000000C0140EC070020380800203C100020D0
:1014F000A81100201C0000200AE81C4100401C46E6
:10150000BB1C002084110020BA1C00201C7804F1B0
:10151000010E83F800E04FF00B0E00F804E01C7899
:101520004FF00C0C04F1010E5FFA8EFE12F4803FB6
:1015300083F800E000F804C009D004F1020CAA4CC2
:1015400084F800C0A94C4FF00E0C04F80EC05407EC
:1015500008D51C7804F1010E83F800E04FF0100E5E
:1015600000F804E01C784FF0120C04F1010E5FFA51
:101570008EFE12F4806F83F800E000F804C00ED0F5
:1015800095F820C2BCF1000F09D004F1020C964C72
:1015900084F800C0954C4FF0130C04F80EC094056D
:1015A00008D51C7804F1010E83F800E04FF0150E09
:1015B00000F804E0182913D11C784FF0160E00F83B
:1015C00004E004F1010E5FFA8EFE4FF0170C00F8F4
:1015D0000EC004F1030E0234E4B283F800E00155BA
:1015E000110304D519784C1C1C7019244454D205DD
:1015F00004D51A78511C19701A2181541A781421B3
:101600008154911C01321970D2B21B2383540021E2
:101610009822774813F010FE764C0EF079F8B5F862
:101620004E317549A4F8FC3100230B808B70D8F83B
:101630000010724A01F1810EB5F896017049C4F8A4
:10164000F8210A6084F8FE3182B26E49DFF8E89131
:10165000D1F80080DFF8E4C108F596784CF81380E3
:1016600023F809200233242B8846EED1D7F800C096
:101670001CF4805F0CBFB5F89C311346A9F8063006
:1016800000231EF80320B2B90EEB0302917892F802
:1016900003A051450FD209B1013901E00AF101015E
:1016A00001EB8101527801EB810101F5617189B291
:1016B000043229F812100433502BE2D11CF0080F29
:1016C00000F0E98095F89031062B00F2DE80DFE82B
:1016D00003F004070E355170700045F2F05201E03E
:1016E00042F6F822484B1A800EF09EF8CCE0464BAA
:1016F00042F6F8221A8000010A2390FBF3F0A0F5CD
:10170000B0600023414A98500433482BFAD1404A34
:10171000404B40209A60404B12221A7004F0A8FF00
:10172000002800F0B28001234FF0070A90F9000072
:1017300040218DE80804394A394BA0E0324B42F68B
:10174000F8221A80374A334B40209A60324B1022DD
:101750001A7004F08DFF002800F0978001234FF0ED
:10176000000990F9000040218DE808022E4A4FF44C
:10177000E13384E0244B42F6F8221A802B4A254BB1
:1017800040209A60244B08221A7004F071FF002850
:101790007BD001234FF0000C90F9000040218DE830
:1017A0000810234A4FF4E1330FF07BFEC4F84802DF
:1017B00067E0154A42F6F821118017490C22062BE2
:1017C0001C480A703CD00023037084F84C3284F823
:1017D0004D321B2384F84E32052384F84F2284F8BF
:1017E00050324FF4E13539E0BA1C0020BB1C002018
:1017F000E41B0020C800002024130020D40900208E
:101800008C060020F03000203A1B0020E00600206B
:10181000B174000800000020DE1C002009770008D9
:10182000A0860100A1740008597600088D74000894
:101830000D760008C407002002080020C80200201E
:101840000021017084F84C1284F84D12BC4D212106
:1018500084F84E1284F84F2284F85032B94ABA4BB9
:1018600040209A6004F004FF78B101234FF0000E8D
:10187000B64A90F9000040218DE808402B460FF051
:1018800010FE003018BF012028B9082005F05AFCCE
:10189000AF4AAD4B9A603B68AE4A13F4804F04D018
:1018A00012211170AC48A849886042F20101194028
:1018B00089B1AA4944F620600880990404D508211A
:1018C0001170A748A0498860DD0704D50C2111706C
:1018D000A4489D49886011789805A1F104015170D0
:1018E00053D5A14D079AA14B2A609A69079842F0F7
:1018F00001029A6103884FF01009ADF838309C4816
:1019000002230EA98DF83A908DF83B300FF0C3FBFF
:101910002B6897485B880EA9ADF8383004238DF802
:101920003A300FF0B8FB2B680120197A0FF09EFBBC
:101930002B68904A5B684FF0000A536117A88DF836
:1019400061904FF0010917938DF860A08DF86290B7
:1019500006F0ECF92B680FA85B7A8DF83EA08DF8A5
:101960003C3003238DF83D308DF83F900BF050FC58
:10197000D8F80020804B3C3A1A6033684FF0FF32B1
:1019800043F0100333607D4B1A607D4B7D4DC4F8EE
:1019900054328033C4F858323B680026D9032E7085
:1019A00040F1B180DFF808B2DFF8C08140F22A3A96
:1019B00005F04CFC4FF0010952465846314685F877
:1019C000009013F039FCD8F818306F4843F0040346
:1019D000C8F818304023ADF8383018238DF83B3064
:1019E0000EA903238DF83A3006F00EF9D8F81C3012
:1019F000664D43F00203C8F81C30654BA8F6947896
:101A00001A68644BB2FBF3F22B88013A23F45C733F
:101A10001B041B0C2B8092B21D23AB852A85A5F8D5
:101A200014902B8C23F001031B041B0C2B842B8C98
:101A3000A9882A8B23F0020322F0730212041B04EC
:101A4000120C1B0C89B242F0600243EA0903A98020
:101A50002A83AE862B842B8B23F008031B041B0CDC
:101A600043F008032B83B5F844306FEA43436FEA31
:101A700053439BB2A5F84430D8F8A83F43EA090382
:101A8000C8F8A83F404606F0AAF917A806F07CF966
:101A9000414BCDF860B0179380231C934FF48073B3
:101AA0004FF0100B1D9340464FF4005317A920939D
:101AB000CDF864B0CDF868A01B961E961F962196AF
:101AC00006F06FF9AB890FA89BB243F40073AB81AA
:101AD000D8F8003043F00203C8F800308DF83CB06D
:101AE0008DF83D908DF83E608DF83F900BF090FBA7
:101AF0002A4B1A682A4BF2500436802EF8D10BF08C
:101B00004EFA0BF04CFA3B685A057ED5D4F888653E
:101B1000244B04201E6004F0ABFD0421C4F88C05A6
:101B200004F080FD204B84F8900508201E6004F02E
:101B30009FFD1E4B0821186004F074FD3AE000BFC1
:101B400090D003004D74000800000020F5740008D8
:101B5000DD640008DE1C0020DD7400083A1B002054
:101B6000E9740008D1640008A411002000100240AC
:101B7000000C014000040140A01100206C11002065
:101B80007C0A002079190020000801400004004070
:101B90004C00002000366E01340400401C82010815
:101BA0007A190020CC260020102700202C270020A6
:101BB00024030020874D2C22002184F8910528461B
:101BC00013F03AFB7C232B708E236B70E023EB70B9
:101BD00010207D2385F82B30C4F8946504F048FD6F
:101BE0001021C4F8980504F01DFD84F89C05202000
:101BF000C4F8A06504F03CFD2021C4F8A40504F05D
:101C000011FD84F8A8050EF00DF8734B734D1B7889
:101C1000022B64D1724B00261A88322022F0400237
:101C20001204120C1A801A884FF4805722F03802DE
:101C30001204120C1A801A8892B242F040021A80E2
:101C40009F238DF83C308DF83D608DF83E608DF817
:101C50003F6004F0EEFD8DF85D60624E0422776116
:101C600017A80FA90CF094FF37619DF85E309DF81E
:101C70005D201B0243EA02439DF85F2013435A4A4A
:101C8000934219D00AD8A2F51A42033A93420CD0D3
:101C900002F51A420232934209D01BE0534A9342A2
:101CA00005D00132934207D014E0202300E08023C6
:101CB0002B804FF4807302E04FF480732B806B8095
:101CC000AB882A881B02AB605343EB60012384F886
:101CD000A93504E000232B806B80AB60EB60EE68DD
:101CE00016B3F60A37464FF00008B0450BDA08EB9A
:101CF00006056D100DF15C09E802494610220CF052
:101D0000C5FF0F2805DCFF0207F0B0FDC4F8AC7575
:101D10000AE0002359F80320013256D10433102B76
:101D2000F8D12E462F46E0E7314D324A2B6813F4A6
:101D3000002318BF0123137004F031FD2E4B1860EF
:101D40002E4B5A791946052A03D12D4B4FF4C872F0
:101D50001A802C4B4FF47A721A802B4BC8221A80AF
:101D60002A4B1A7842F008021A70294B1A7822F08E
:101D700002021A702A6840F6020313406BB125482C
:101D8000254B1860254B03201870254B0120187037
:101D900024480023038024480380930308D50323A9
:101DA00084F8E43194F8E33143F0010384F8E3313B
:101DB0008B6801222B601D4B1A701D4B1A7862F044
:101DC0007F021A7023B0BDE8F08F05F101083D468F
:101DD000A8E700BFE02600203431002020000020CA
:101DE00000380040000C014018BA20001740EF00F6
:101DF0008406002051190020C81100204C08002042
:101E0000A41B00202E3100202C3100204608002089
:101E100033310020C6090020C426002014270020EA
:101E2000540000205E1B0020601B00205019002081
:101E30000C310020A2492DE9F04F0A68A14802F5B3
:101E40009C4320330360A04B87B01E78C6B119466F
:101E50005B689A4240F20A81013E0E7006E12B68EF
:101E6000072C98BF195D994B88BF21461B6898487D
:101E70009847032C0CD9944A013602EB4404208184
:101E8000934BF4B21A78934DA2421A46E7D81EE05B
:101E90002B6804F10E0203EB82029388D28800289B
:101EA000E9D0C01A4FF47A714843D31A90FBF3F08B
:101EB000084440F6C903984205DC40F2EE239842FC
:101EC000B8BF184601E040F6CA0080B2D3E7824BA3
:101ED00042F201091B6803EA0909D9F101097F4BA4
:101EE00038BF4FF00009D3F800A07D4BB9F1000FC7
:101EF00006D17C49097819707B4908787B490870BC
:101F00001E781EB1794B1E7886F001066E490F23AC
:101F100081F82C30764B92F800801F780322B7FBB3
:101F2000F2F202EB4202BA1AD2B201F12E0303EB33
:101F300042020024D5F800B04FEA480C0292254630
:101F400064455AD016B16B4BE05A00E03046BBF8FE
:101F50001430834206D8BBF81610814234BF0021EA
:101F6000012100E00021644BE9B953F825309A457E
:101F700002D2624BE05A1AE0EBB218468DE8081024
:101F80000DF010F9009BDDF804C0032B0FD84FF0C3
:101F9000010E0EFA05FE4C4B93F82C1021EA0E01AF
:101FA00083F82C1003E00AF5967143F81410B9F188
:101FB000000F1DD1029A444B04EB4401505293F898
:101FC000762022B9022F13D9012083F876004C4BDA
:101FD000581831F803E041884A337144B0F804E0FE
:101FE000714489B2E15208B2032390FBF3F080B24E
:101FF000424B0135E0520234A2E7334B374A93F8A3
:102000002C10B1F10F077942794183F890103D4BC4
:1020100069B13D4909684E0109D41268D9689A60CE
:10202000521AC82A1ED9012283F821201AE02E480C
:10203000012101702D48126801709968DA605B68AF
:10204000521A9A4203D92F4B002283F821200024F0
:10205000444507DAE0B20DF0A5F8284B23F8140048
:102060000134F5E7224B1A7801321A701A4E3368A0
:10207000DD0405D5244B1B68DC0701D40DF09EFB65
:102080000F4B1C68134B19688B7A002B40D01B4AEE
:10209000013B32F813000B7B1BB1C0F53B600830ED
:1020A00080B200B2A0F57A70B0F57A7FA8BF4FF485
:1020B0007A7020EAE07010F089F914495DE000BF01
:1020C00014310020E0070020001A00200800002042
:1020D000DE1C00208C06002084060020F03000204A
:1020E00078060020800600200D0000200C00002053
:1020F000C6020020081A0020C802002002080020A2
:102100002E1A002024130020F007002000007A443B
:10211000326810043AD59D4AD2F89400201A00285B
:1021200034DB04F59C402030C2F894009848C97A0A
:102130004579984830F8150080B290FBF1F092F89C
:102140009810013101F00F0182F898100A4482F8CA
:1021500099001846904A9A5C01331044102B80B2C3
:10216000F8D100B290FBF3F000B26428A8BF64205D
:1021700020EAE07010F02AF9884910F02FFA884917
:1021800010F078F910F062FB864B18803368864DAA
:1021900013F4807F00F0E080844B854F9C4203D98C
:1021A000BB780BB90123BB70BB78002B00F0D48047
:1021B0007F4B95F8008093F821407E4B611E4C4286
:1021C0001A684C41002CC2F380690CBF0322002224
:1021D000C8F380089A46029297F82030052B00F247
:1021E000B680DFE803F0034E5378859EB8F1000F08
:1021F0003AD0714B1868714B19880CF0FDFF01281B
:1022000009D16F4B64211A68604BD3F8AC30DB887E
:1022100001FB03233B61B9F1000F0DD05B4BD3F8F9
:10222000AC301B7943B10DF065F8032387F82030FB
:102230004FF47A73FB61CFE7002C40F08880604B4D
:102240003A691968DFF868B1914209D90DF052F87E
:1022500003228BF8202040F6B832CBF81C20BBE7D5
:1022600001228BF82020B7E74FF48060B9F1000F0E
:1022700002D00DF02FF801E00DF05AF800233B6179
:1022800065E0002C45D10DF035F8A5E724B1052314
:1022900087F82030012100E02146B8F1000F0DD071
:1022A000454B1B68DA89474B1A805A809A80374A17
:1022B000D2F8AC205288DA8002220292404B1A688F
:1022C0007B699A4202D8B8F1000F3DD147F23053F2
:1022D000FB6103231EE02B7843F002032B700DF00B
:1022E0006DFA374B1A68FB691344BB61042311E094
:1022F000334B1A688CB1BB699A4228D9324B1B7890
:102300001BB9DAF80030DA0721D42B7823F0020366
:102310002B70052387F820305EE7FB691344BB610F
:1023200015E0274B19491A68D1F8AC306421DB88D5
:102330004FF4806001FB03233B61002387F82030CA
:10234000FB700CF0F5FF47E700297FF445AF029AD8
:1023500012B110460CF06EFF1C4C04F5C470B4F8BA
:102360004E110CF049FFA346804688BB04F0E0FC08
:1023700094F8E231012B06D9114B044A1B68D2F8BC
:10238000B0209A422FD204F0C3FC2CE0001A0020A7
:102390006C1B00207C1B0020991A00200000C84202
:1023A00000C07F44E01C002033310020404B4C0033
:1023B00024130020F0070020C0020020C4020020E7
:1023C000F030002002080020140000204C080020FB
:1023D000984B94F8E2211B684FF47A7101FB0232AA
:1023E000954BC3F8B0202B785B0740D53368DF06E8
:1023F0003DD5924B1B78DC0639D4914B8E4C1F781F
:102400008FB19BF8E031B8F1000F16D173B1894B51
:102410001A68D4F8B4309B1A002B07DA0DF0CEF905
:1024200084F8B88023E0B8F1000F19D110200CF027
:1024300001FF012384F8B83019E03BB17D4A4FF425
:102440007A71126801FB0323C4F8B43094F8B830F1
:102450006BB104F029FA784B002283F8B82006E02B
:1024600094F8B8301BB104F01FFA84F8B870002259
:102470009BF8DEA19BF8DF11BBF89871BBF89AE1DD
:102480001346704C9B08105F0232B842C4BF63F021
:102490007F03DBB27045B8BF43F04003082AF0D198
:1024A000654C94F8B9209A4205D194F8BA20F92ADB
:1024B00004D8013200E0002284F8BA2084F8B93050
:1024C0005F4B5D4A1878604F994638BB3B68D80728
:1024D00008D5B8F1000F21D12B78DA071ED50DF001
:1024E000EDF91BE02B785B0715D5584B1B7893B1A2
:1024F000574BDB787BB992F8BB300133DBB2032B4F
:1025000082F8BB300AD911B10DF058F906E0B8F1E4
:10251000000F03D1F8E7002384F8BB3094F8BA2009
:10252000454B142ADFF83C8140F0A58099F8002043
:102530001AF1000A18BF4FF0010A6AB393F8B920E4
:102540005F2A11D12A7802F0040202F0FF0112B1D1
:102550000DF034F908E00B20019100930CF06AFEB5
:102560000199009B83F8BA10BAF1000F14D094F8C7
:10257000B9307D2B10D12B7803F0040303F0FF0258
:1025800013B10DF01BF907E00B2001920CF052FE85
:10259000294B019A83F8BA202B7803F0040303F047
:1025A000FF00002B67D194F8B930234A572B0AD18A
:1025B000284B4FF47A721A80274B1B6858075AD55C
:1025C0000A22264B34E03168490717D55A2B15D11A
:1025D00092F8BC302BB1012382F8BC0082F8BD30E8
:1025E00049E092F8BE3083F0010382F8BE300BB1AF
:1025F0000C2000E00D200CF01DFE3CE05D2B00F0F7
:1026000072845B2B00F071845E2B02D1032000F0FA
:102610006DBC562B01D103F087F899F800301BBB35
:1026200094F8B930972B40F079840D4B4FF4C87271
:102630001A8020E0F0300020001A00204608002018
:102640001400002002080020F00700207806002077
:10265000241300202E310020EC0700202C31002014
:10266000A41B0020C011002094F8B9306F2B40F05B
:102670004C840DF023F93368580736D594F8BE30F2
:10268000B44A93B12B7859070FD5B34BB3F9061061
:10269000BBF89831994208DD3B6813F0010304D17F
:1026A0003221A2F8C01082F8BE303B6813F4803F9C
:1026B000A84B0CD094F8C2202AB993F8BC2012B9C8
:1026C0003222A3F8C020012384F8C2300DE094F830
:1026D000BC2052B12A7802F0040202F0FF0122B9B4
:1026E000012283F8BC1083F8BD20D8F800900023A5
:1026F00009F1810A3B6009F1830498460AF102035B
:1027000003EB080113F808204B7814F8010C9A42E7
:102710000AD221460AF040FD30B114F8023C0122F1
:102720009A403B6813433B6008F10408B8F1500F2E
:1027300004F10404E2D1894B1F784FB1884CDFF8D3
:1027400040822368874F13F0020F40F036832EE358
:1027500009F1D10809F1D20408F10103D919DA5DB0
:102760004B7814F8010C9A4229D221460AF014FD44
:1027700028B394F802E020797B4B0EF1FF3E4FF036
:102780000C0C0EEB4E0E0CFB00FC9E44714B94F8AF
:1027900003A003F1C40909EB0C02516871450ED086
:1027A000002109F80CA0C2F804E09160012202FAAD
:1027B00000F093F8F42022EA000083F8F4000637D2
:1027C000482F04F10604C7D1684BDFF8B8A11F6891
:1027D000674B4FF000091B680293664B1B7803930D
:1027E000DAF80030002B00F0D98293F80080B8F1BD
:1027F000000F00F0D382DAF8042002998A1A002A26
:102800000DDB01F5FA72012101FA09F1CAF8042081
:10281000504A92F8F40020EA010182F8F410039A79
:10282000002A00F0BB821AF8041C58780431C9B29F
:10283000484A002840F07182474830F911104E484C
:10284000B0F8960100F1C804A14201DD9C7815E0C2
:10285000C838814202DA9C7864420FE0012303FA0F
:1028600009F33C4991F8F42022EA0303029A81F823
:10287000F43002F5FA73CAF804308FE292F8F430BB
:1028800043FA09F3DB0700F18982002CCCBF022058
:1028900001200CF007FD08F1FF33132B00F27582C5
:1028A000DFE813F0140021002E003E0072007900D2
:1028B000DD004101A501DA010A0273023E004D006C
:1028C0007900DD004101AF00130177013B78384604
:1028D0001C44FA2CA8BFFA2424EAE4743C7003F0E8
:1028E00011FF01201AE07B7838461C44642CA8BFF5
:1028F000642424EAE4747C7003F004FF02200DE0F9
:10290000FB7838461C44642CA8BF64241B4B24EA83
:10291000E474FC70196803F0B1FE03202146C8E19D
:1029200079790D2021446429A8BF642121EAE1714D
:10293000797106F075FEB8F10D0F00F02682397935
:102940000E2021446429A8BF642121EAE171397174
:10295000AFE100BF001A0020020800203131002042
:10296000F0070020F4070020708E01082C120020D0
:10297000F0300020780600204C080020A81C002021
:10298000EC070020C81A0020B9790520214481F302
:102990000801B9718DE1A74B1B681A78022A21D171
:1029A000204600930FF012FDA3490FF017FE009B85
:1029B000596A0FF057FC002101900FF0F9FE019ABF
:1029C000009B40B910469C490FF010FF019A009BF4
:1029D00010B1994A00E000225A620F20114606F019
:1029E00033FE0AE099780F202144C829A8BFC821E6
:1029F00021EAE171997006F013FEB8F10F0F00F0B3
:102A0000C4818C4BD3F8008098F80030022B1AD187
:102A100020460FF0DBFC88490FF0E0FDD8F82010CD
:102A20000FF020FC002104460FF0C2FE30B9204612
:102A300081490FF0DBFE10B17F4C00E00024C8F8A4
:102A40002040122059E198F8011012202144C82991
:102A5000A8BFC82121EAE17188F8011029E1754B6E
:102A60001B681A78022A21D1204600930FF0AEFC91
:102A700071490FF0B3FD009B196B0FF0F3FB0021C0
:102A800001900FF095FE019A009B40B910466A49EB
:102A90000FF0ACFE019A009B10B1674A00E00022E3
:102AA0001A631020114606F0CFFD0AE0197B1020B2
:102AB0002144C829A8BFC82121EAE171197306F091
:102AC000AFFDB8F1100F00F060815A4BD3F80080D1
:102AD00098F80030022B1AD120460FF077FC5649A7
:102AE0000FF07CFDD8F82C100FF0BCFB0021044641
:102AF0000FF05EFE30B920464F490FF077FE10B15F
:102B00004D4C00E00024C8F82C401320F5E098F864
:102B10000B1013202144C829A8BFC82121EAE17164
:102B200088F80B10C5E0434B1B681A78022A21D1A4
:102B3000204600930FF04AFC40490FF04FFD009BE8
:102B4000D96B0FF08FFB002101900FF031FE019A3D
:102B5000009B40B9104638490FF048FE019A009B8F
:102B600010B1354A00E00022DA631120114606F068
:102B70006BFD0AE0997D11202144C829A8BFC82116
:102B800021EAE171997506F04BFDB8F1110F00F0E3
:102B9000FC80284BD3F8008098F80030022B1AD123
:102BA00020460FF013FC25490FF018FDD8F8381017
:102BB0000FF058FB002104460FF0FAFD30B9204613
:102BC0001D490FF013FE10B11B4C00E00024C8F8A3
:102BD0003840142091E098F8151014202144C82999
:102BE000A8BFC82121EAE17188F8151061E0114BF6
:102BF000D3F8008098F80030022B21D120460FF046
:102C0000E5FB0D490FF0EAFCD8F828100FF02AFB7D
:102C1000002104460FF0CCFD30B9204606490FF0E4
:102C2000E5FD10B1044C00E00024C8F8284009205C
:102C300063E000BFAC1C00200000C84200007A44E2
:102C400098F8031009202144C829A8BFC82121EA07
:102C5000E17188F803102CE0B54BD3F8008098F8A8
:102C60000030022B1AD120460FF0B0FBB1490FF013
:102C7000B5FCD8F834100FF0F5FA002104460FF037
:102C800097FD30B92046AB490FF0B0FD10B1A94C0B
:102C900000E00024C8F834400A202EE098F80D1017
:102CA0000A202144C829A8BFC82121EAE17188F877
:102CB0000D1006F0B5FC68E09D4BD3F8008098F845
:102CC0000030022B1DD120460FF080FB9A490FF0F7
:102CD00085FCD8F840100FF0C5FA002104460FF02B
:102CE00067FD30B9204693490FF080FD10B1914C3B
:102CF00000E00024C8F840400B20214606F0A4FC68
:102D000043E098F817100B202144C829A8BFC82118
:102D100021EAE17188F81710CBE7012835D19878BE
:102D2000864B33F91110B1F5617F05DB40F63303B3
:102D30009942B8BF0B4601E04FF46173B8F10C0F34
:102D400023D14FF49664A3F5617394FBF0F493FBE5
:102D5000F4F492F8F530E4B2A34216D0032C94BFF9
:102D60002346022382F8F5300E2202FB03B3744A95
:102D700003F2AE73136003F0DFFC4046214606F019
:102D80004FFC601CC0B20CF08DFA012202FA09F26D
:102D90006C4B93F8F4100A4383F8F42009F101090D
:102DA000B9F1040F0AF10C0A7FF41AADC6E43368D6
:102DB000D80510D5644BDB786BB1D8F80030990793
:102DC00009D53B8813F001090AD103F0B1FF0120B6
:102DD0000CF080FA04E001200CF0AAFA012300E0D4
:102DE0000023226852070CD55BB101200CF0A0FA39
:102DF0003B88980708D403F09BFF02200CF06AFA86
:102E000002E002200CF094FA3B88504A13F0030FC2
:102E10004FF0100114BF51611161D8F8002012F079
:102E20000A0F2BD02268D1060DD55A070ED40420E4
:102E30000CF050FA464BB3F904200A2392FBF3F24C
:102E4000444B1A8002E004200CF072FA23689B06BF
:102E500006D53B88580606D440200CF03BFA02E029
:102E600040200CF065FA2368590607D5384BB3F9B2
:102E700004200A2392FBF3F2374B1A8023684FF4A5
:102E800080701A0502D50CF025FA01E00CF050FA1A
:102E9000324A53791746082B01D00E2B02D140201D
:102EA0000CF046FA33685B0540F19B8097F82032BE
:102EB0001BB92B7813F0040F02E0236813F4002FE2
:102EC0000CD0204B002283F8F6203C2004F0BEFCFE
:102ED000002800F0868003F071FBF6E70CF0A2FEFC
:102EE0000CF016FC7DE0012000E002205FFA80F982
:102EF00009F1FF338BF8AC3705F0A8FF0EF070FB3B
:102F000048460CF0CFF9FFF7B6BBBAF1000F3FF41B
:102F100087AB7E2B7FF484ABFFF7ABBBA72B21D114
:102F20000F4B1A7842F004021A70FFF7A4BB00BFDF
:102F3000AC1C00200000C84200007A4402080020B7
:102F40002C120020001A002024130020000C014045
:102F500064110020D4110020381B00204C080020F0
:102F6000460800200022BB2B059201D1022303E07A
:102F7000B72B04D14FF6FE73ADF8163009E0BE2B27
:102F800001D1022303E0BD2B1AD14FF6FE73ADF839
:102F90001430D8F80030BDF81410B3F860200A449B
:102FA000A3F86020BDF81610B3F862200A44A3F815
:102FB000622002F0B9FB002384F8BA30FFF75BBB54
:102FC000792B04D1084BDA7822F0010206E07A2B43
:102FD0007FF451AB044BDA7842F00102DA70FFF76C
:102FE0004ABB07B0BDE8F08FA8020020834B2DE953
:102FF000F04FB3F90610824B91B01868438999429B
:1030000011DBB1F5FA6F90F807E009DACA1A02FB92
:103010000EFEA3F5FA639EFBF3FE0EF1640E04E0D0
:10302000CEF1640E01E04FF0640E8389994219DB02
:10303000B1F5FA6F047A10DA632CC3EB010205D9FB
:10304000643CA4B25443C3F5FA6302E05443A3F5CD
:10305000FA6394FBF3F4643405E0632C03D8C4F101
:10306000640400E06424674BB3F8962193F95E3161
:103070000492654A9BB2D2F800C0059366460022CE
:103080005E4B049D33F912304FEA420803935B1BF9
:1030900003F2F31740F2E635AF4203D8002BB8BF76
:1030A0005B4201E04FF4FA73022A4FF06407574D78
:1030B0002ED09CF81991B9F1000F04D04B45CCBF2C
:1030C000C9EB0303002393FBF7F96FF0630B35F8AB
:1030D00019A00BFB093B09F1010935F919900FFA09
:1030E0008AF5C5EB090505FB0BF595FBF7F5AA4439
:1030F000474D28F805A085182D796B43454D93FB66
:10310000F5F364339BB20EFB03F393FBF7F72FE069
:103110009CF81A91B9F1000F04D04B45CCBFC9EB14
:103120000303002393FBF7F76FF0630A05EB4709EE
:103130000AFB073B05EB4707B9F90E90B7F91050AA
:10314000059FC9EB050505FB0BFB9BFBFAFBC9EBD8
:103150000B0909FB07F92E4FA7F80490857983EA3C
:10316000E377A7EBE3776F432A4D97FBF5F76437D7
:103170000CEB020595F801A0244B07FB0AFA642525
:1031800003F11C099AFBF5FA09F802A096F80BA0C6
:1031900003F11F0907FB0AFA9AFBF5FA09F802A0E6
:1031A00096F815A0022A07FB0AF703F1220997FBFC
:1031B000F5F71D4616BF253383F8274003F802E0D4
:1031C00009F80270039B049FBB42114F04DA37F8E1
:1031D00008305B4227F808300132032A06F1010665
:1031E0007FF44EAF074CB4F89831994214DBB1F537
:1031F000FA6FA8BF4FF4FA610FE000BF0208002089
:103200002C1200204C080020C0110020F81A0020C9
:10321000CC1100200CFEFFFF1946C91A4FF47A7238
:103220005143C3F5FA63B1FBF3F34FF0640E93FB24
:10323000FEF205EB4201088D6FF0630101FB0233E2
:1032400005EB4202B2F92A1002B28A1A534393FBE9
:10325000FEFEB54B70441B88B44E5B06F88045D526
:10326000B34BB3F904000A2390FBF3F0B14BB3F86E
:103270004030C01A00B20FF0A9F8AF490FF0FAF8C9
:10328000AE4980460EF0EEFF03F0EBFE814640466D
:1032900003F0E7FE8046B6F902000FF097F8824689
:1032A000B6F900000FF092F8494683460FF0E2F8B5
:1032B00041460346504601930FF0DCF8019B01465E
:1032C00018460EF0CDFF0FF09BFA4946308050466D
:1032D0000FF0D0F84146814658460FF0CBF8014632
:1032E00048460EF0BFFF0FF08BFA7080944B914E62
:1032F00018880FF067F8934B06F144010122B5F8E6
:10330000428003F01FFD0FF0A1FA8F4B80B2B8FB93
:10331000F0F000F1010C1B781FFA8CFCA5F84CC0F2
:103320000BB3B6F94EA00023824AFE5A02F1500EAA
:1033300033F90E8002F158010AFB08F833F80190C6
:103340000FFA8CFBC9EB060998FBFBF8C84423F87D
:103350000E805E520233082BE6D17B4B00211970A0
:10336000A2F84E0004E0B6F84E30013BA6F84E300D
:10337000B5F94E106F4A00294FF000030FDDB2F986
:103380004C60724AA2F10800185E9A5A484390FBBA
:10339000F6F0121AFA520233082BF2D101E0A2F829
:1033A0004E306B4B1A689A4612F0020F74D0694B7C
:1033B0002A6E1B6845F207219A1A8A425D4E6BDD20
:1033C00033660DF0C9F9644BDFF8A0811A7899468D
:1033D000032AB8F8003022D10A2B2CD90023282048
:1033E00089F8003003F025FA0DF0B6F9B6F864005C
:1033F00004F022FE594B5A491B68DA7890FBF2F030
:10340000421C082A28BF08220A7059791B7992B2F7
:1034100051435A43A6F86610A6F868200BE00A2B21
:1034200009D803234E4A89F8003000231370A6F808
:103430006630A6F8683099F80020474B012A0DD075
:1034400002D3022A1ED027E0B5F86620B8F8003073
:103450009A4221DD012389F8003011E0B8F80020FC
:10346000B5F86810914202DD02221A7011E031496C
:10347000B1F8661001318A4202DD00221A700BE0B9
:10348000082007E0B5F86830B8F8002001339A4208
:10349000E0DC07200BF0CEFEDAF80020314E12F40B
:1034A000006F00F09E802B4BE86E1968214BC0EB3B
:1034B000010A45F20720824540F393802748B7F977
:1034C0000690D0F80080D96698F80A00B4F84E113A
:1034D0000128A9F57A79244F03D06BD3022847D06D
:1034E0006AE093F88120196F03EB4202B2F884007E
:1034F000082291FBF2FE80B2CEEB0101014491FB68
:10350000F2F2A3F88C0092B2196740F6E4435343F9
:10351000B8F808004FF47A72C0EB13335343B8F98C
:10352000062093FBF2F346E0F4070020CC110020C4
:1035300064110020F81A002035FA8E3CDB0FC93FD9
:10354000C41100206F12833AE9070020501B0020AD
:10355000840600201431002014270020C4260020F7
:103560005400002033310020D0260020C82600203F
:103570003378B8F808B05807C7F800B01CD5AC4885
:1035800002920BF039FE029A20B912F0100F18BF08
:103590004FF0000909FB09F2322392FBF3F399443F
:1035A000B8F906304FF47A7203FB09F393FBF2F398
:1035B0005B4400E000233B603B68D5E9240103FB4A
:1035C0000AFA4FF47A739AFBF3FA10EB0A0041EB14
:1035D000EA710023C5E92401964A0FF057F9964B8A
:1035E0001860964B1A68994612F4805F02D00A2040
:1035F0000BF020FED5F89830914F002B58D0914A0F
:10360000D7F89C1010689246814251D897F8A000D4
:10361000B7F8A220596810BB012087F8A0008A5C87
:1036200052B31A78D4F8DC37013A00FA02F21A429F
:1036300001D103F031F9012385F8A43003F0CAF871
:10364000B5F8A2307E4FBBB9D7F898301B78053B50
:10365000012B11D803F0A3F8C7F8A8000CE04FF035
:10366000000887F8A0808B5C33B1404603F014F962
:1036700087F8A48003F0AEF8D5F89820B5F8A2102A
:1036800052686F4B525CFE2A03D10022A3F8A2209D
:103690000EE0FF2A02D103F007F909E0DAF8000092
:1036A0000A2707FB02020131C3F89C20A3F8A210ED
:1036B0003378590703D5644B08225A613AE0D9F8A8
:1036C0000020D20703D4614A43F001031370604B1A
:1036D0001B781B0703D4337823F0010333705D4B51
:1036E0001B685F0702D55C4A128862B9B5F8AC2046
:1036F0000AB1980705D4594B1B88003318BF012322
:1037000000E001233BB1022385F8A430337823F095
:103710000103337005E03278D10758BF022385F8E2
:10372000A43003F03CF8D5F8B030C01A002801DB13
:1037300003F050F80CF076FA494B1A78002A00F0A2
:103740009B80D5F8B430002B00F0F186D5F8B4009A
:103750003B4C03F0DFF8002800F0E986D4F8B40011
:1037600003F0D3F8092801D03F2852D14FF00008C8
:10377000D5F8B8603B4F44462EB13B4839683246D5
:1037800011F0A2FD10B9B84604B93C46374B1037CA
:103790009F42F1D3ECB1D5F8B83022682848D75C05
:1037A000D8F80020D15CB94213D15A1C59B92D2B3D
:1037B00009D8C0F8B82003442027024483F8BC701D
:1037C00082F8BC1005E02B4483F8BC70C5F8B82023
:1037D000E1E7D5F8B8300BB1444510D0244803F0E8
:1037E00001F9444507D854F8100B03F0FBF8092001
:1037F00003F0F1F8F5E71F4803F0F4F80026D5F8D8
:10380000B8309E42A2D2184B985D03F0E4F801361E
:10381000F5E7D4F8B830002B40F09486042840F047
:10382000018704F1BC0007F0D1FC00F080BE00BFAE
:10383000D4090020407E0500D4260020F007002097
:10384000F81A0020F0300020000C01403331002035
:1038500046080020EC0700202C3100202E310020EB
:1038600031310020AC8E0108B41B00207C9001088F
:10387000D4A50108D9A50108D44F97F84A30012BE7
:1038800040F05086DFF86C83DFF86C933B68C8F833
:103890000070C9F80030C346DFF85CA352461068D8
:1038A00003F038F8002800F03086DAF8000003F062
:1038B0002CF8DBF80030024693F8481019B9242898
:1038C0003DD1012238E0012904D14D280CBF02224C
:1038D000002231E0022904D13C280CBF032200223F
:1038E0002AE003290CD140284FF0000102D983F8C7
:1038F00048104EE058711971D971987104221BE07B
:10390000042907D1997983F8490080EA01029A7164
:10391000052211E005293CD1587919798842987916
:1039200006D950409871481C18710B441A7230E047
:1039300090420CBF0622002283F8482029E031780B
:10394000A34B490725D4232ADAF8001016D1A14841
:103950004FF0010E80F800E09F48C5F8B410C5F89C
:1039600084110292019303F03DF89C4803F03AF869
:10397000019B197841F002011970029AD5F888313B
:103980001B78934205D1964A964B1A60964A974BFC
:10399000DA60DBF80030DFF85CA293F84820062AF2
:1039A0007FF47AAF93F8490000F082FE002840F0DF
:1039B000A585DAF8002092F849B0BBF14A0F00F073
:1039C0009A8562D8BBF1330F00F08A8429D8BBF105
:1039D000290F00F023840CD8BBF1250F00F0FA83E7
:1039E000BBF1270F00F0FC83BBF1230F40F0A7854C
:1039F00031E1BBF12D0F00F0228408D8BBF12B0F71
:103A000040F09D8502F085FD607100F074BDBBF152
:103A10002F0F00F0DD84BBF1310F00F0EE8400F0D9
:103A20008EBDBBF13E0F00F0578114D8BBF1370FAC
:103A300000F0958405D8BBF1350F00F0A98200F0A5
:103A40007EBDBBF1390F00F0D883BBF13C0F00F015
:103A50004D8100F074BDBBF1430F00F05D8408D8C8
:103A6000BBF1410F08BF4FF0000900F03E8400F0A9
:103A700066BDBBF1440F00F0F484BBF1480F40F089
:103A80005E8505F03BFD00F036BDBBF1D00F00F0C8
:103A90007F8367D8BBF1CA0F00F0418119D8BBF111
:103AA0004E0F00F0EF83BBF1C80F00F0CA80BBF1EE
:103AB0004C0F40F0448502F02CFD84F8D60102F052
:103AC00028FD84F8D70102F02FFDA4F8D80100F0FA
:103AD00012BDBBF1CD0F00F0668305D8BBF1CC0F52
:103AE00000F0808200F02BBDBBF1CE0F00F06483AC
:103AF000BBF1CF0F40F0238502F016FD6FF4AF6EDF
:103B000000EB0E039BB2C62B98BFA4F8960102F0FF
:103B10000BFDA4F8400102F007FDA4F8420102F0F9
:103B200003FDA4F8440102F0FFFCA4F8D80102F060
:103B3000F0FC02F0EEFC02F0ECFC02F0EAFC84F88F
:103B4000850102F0E6FC84F8920102F0E2FC284BC9
:103B5000D3F8009002F0E8FC00EB80004000A9F8E8
:103B60005E004AE3BBF1D80F00F0668115D8BBF1C7
:103B7000D30F60D004D8BBF1D20F49D000F0DFBC26
:103B8000BBF1D40F00F08982BBF1D60F08BF4FF014
:103B9000000900F0778200F0D2BCBBF1F20F00F018
:103BA000CC822BD8BBF1EF0F40F0C984DFF84090F6
:103BB000D9F800A002F0B8FCAAF86200D9F8009089
:103BC00002F0B2FCA9F8600000F095BCE41B0020F4
:103BD000333100203131002009A60108D9A50108A0
:103BE000EFBEADDEF04F00200400FA0500ED00E06E
:103BF000C01100203C27002040270020BBF1F30F1C
:103C000000F03384BBF1FA0F00F0E08200F097BCC3
:103C1000337803F0040303F0FF09002B40F06B84BA
:103C200002F077FC022884F8AC0740F2B782C94B57
:103C300083F8AC97B2E202F077FCC74B188000F033
:103C40005ABC92F805904FEA5909B9F1120F1CD8E5
:103C50004FF0000A1DE002F05CFC132815D8DFF8D5
:103C600014A300F1200BDAF8003003EB8B0B02F009
:103C700050FCBA4B0BF1010903F5AE72197A81427F
:103C800000F048810C339342F8D103F0DBFD00F0E3
:103C900032BCCA4507D202F047FC07AB23F81A0032
:103CA0000AF1010AF5E700234B45AD4A06DA07A9F8
:103CB00031F8131022F813100133F5E709F1FF3939
:103CC00002EB49032232934203D0002123F8021F62
:103CD000F9E70122A34B77E202F01BFC84F8E00134
:103CE00002F017FC84F8DF0100F005BCDFF88492D5
:103CF000D9F800A002F00DFC18B10228A8BF0220DC
:103D000000E001208AF80000D9F800301B78022B6F
:103D100018BF954A954B08BF954A1A60EBE3954A40
:103D2000814611689246097802296AD1DAF8003092
:103D300009F1080B019302F0ECFB0EF043FB8E49F6
:103D40000EF04CFC019B43F82B00DAF800B002F0B7
:103D5000E0FB09F10A030BEB830B0EF033FB874901
:103D60000EF03CFCDAF80030CBF80400019302F0CE
:103D7000D0FB0EF027FB82490EF030FC09F10E0B50
:103D8000019B09F10109B9F1030F43F82B00CDD1D3
:103D9000B9F1070FDAF800B01AD102F0BAFB0EF051
:103DA00011FB75490EF01AFCCBF84400DAF800B0AC
:103DB00002F0AFFB0EF006FB6F490EF00FFCCBF8E4
:103DC0004800DAF800B002F0A4FB8BF84C0012E0D7
:103DD00002F09FFB0BEB09035870DAF800B002F019
:103DE00098FB0BEB0903D872DAF800B002F091FBF4
:103DF0000BEB0903587509F10109B9F10A0FC7D195
:103E000079E3DAF800B002F084FB0BEB0903587099
:103E1000DAF800B002F07DFB0BEB0903D872DAF898
:103E200000B002F076FB0BEB090309F10109B9F1CF
:103E30000A0F5875E5D15EE38146DFF838A109F134
:103E4000080BDAF80030019302F06EFB0EF0BAFABC
:103E50004B490EF0C3FB019B43F82B00DAF800B08E
:103E600002F062FB09F10A030BEB830B0EF0AAFAD6
:103E700043490EF0B3FBDAF80030CBF804000193AD
:103E800002F052FB0EF09EFA3D490EF0A7FB09F13D
:103E90000E0B019B09F10109B9F1030F43F82B0047
:103EA000CBD1B9F1070FDAF800B01AD102F03CFB20
:103EB0000EF088FA32490EF091FBCBF84400DAF8A4
:103EC00000B002F031FB0EF07DFA2D490EF086FBBA
:103ED000CBF84800DAF800B002F026FB8BF84C0073
:103EE00012E002F021FB0BEB09035870DAF800B086
:103EF00002F01AFB0BEB0903D872DAF800B002F0FB
:103F000013FB0BEB0903587509F10109B9F10A0F0D
:103F1000C7D1F0E21B788BF8013002F0FAFA89F889
:103F2000010002F0F6FA89F8020002F0F2FA89F8CC
:103F30000300144BDAF80000134AC3F8B40100215F
:103F40008130C3F8B02102F019FC104B80F0010061
:103F50001870D0E24C080020D41100207C90010899
:103F6000841C0020C507002081DF000850000020CD
:103F7000F5DB0008C0110020000020410000C8420D
:103F800000007A44F81A00208C0900201400002058
:103F900002F0BFFA0B283FF678AE4FF0060A0AFB94
:103FA00000F0D84BD0301B6803EB000A02F0B1FAE6
:103FB00003283FF66AAE8AF8060002F0AAFA8AF8E9
:103FC000010002F0A6FA8AF8020002F0A2FA8AF8CA
:103FD000030002F09EFA8AF8040002F09AFA8AF8C6
:103FE000050088E25379092B7FF64FAEDFF8209366
:103FF000D9F800A002F08DFA8AF80000D9F800A0E4
:1040000002F087FA8AF8010002F083FAD9F800304A
:104010006428A8BF6420187102F07BFAD9F8003038
:104020006428A8BF6420587102F073FAD9F80030F0
:10403000FF28A8BFFF20987102F06BFAD9F800A002
:10404000642828BF64208AF8070002F062FA8AF820
:104050000200D9F800A002F05CFA8AF80300D9F84F
:1040600000A002F061FAD8F80030AAF80A005B79E3
:104070000A2B40F24082D9F8009002F04AFA89F8FF
:10408000090038E202F050FA9F4B23F8090009F1C9
:104090000209B9F1100FF5D12DE253790F2B7FF4FE
:1040A000F4AD02F036FA072881463FF6EEADDFF8B0
:1040B00054A2DAF800B002F037FA0E2303FB09F934
:1040C0000BEB0903A3F82101DAF800B002F02CFA97
:1040D0000BEB0903A3F82301DAF800B002F024FA8D
:1040E0000BEB0903A3F82501DAF800B002F011FA8E
:1040F0000BEB090383F82701DAF800B002F009FAA4
:104100000BEB090383F82801DAF800B002F001FA9A
:104110000BEB090383F82901DAF800B002F0F9F992
:104120000BEB090383F82A01DAF800A002F006FA83
:104130000AEB0903C3F82B01DDE102F0EAF90F28CD
:1041400081463FF6A2AD02F0E4F9C9EBC90904EBE0
:10415000090383F8D00003F1D00902F0DAF989F8F5
:10416000010002F0D6F989F8020002F0D2F989F8CC
:10417000030002F0CEF989F8040002F0CAF989F8C8
:10418000050002F0C6F989F8060002F0EBFCB2E186
:104190003378590700F1AF8107F07AFB04F056FE3F
:1041A0000DF01EFAA7E133785A0700F1A4814FF40D
:1041B000C873A5F8AC309EE133785B0700F19B81B2
:1041C000524B1A7842F004021A7094E1337858077F
:1041D000E4D5B4E1A06002F0B1F902F0BBFF8AE1DE
:1041E00002F0A2F9A4F8580102F09EF9A4F85A01CD
:1041F00002F09AF9A4F85C017DE102F08AF984F8F2
:104200007A0102F086F984F87E0102F082F984F8DE
:104210007D0102F07EF984F87F016CE102F084F9FF
:10422000A4F8800102F080F9A4F8820102F071F98B
:1042300084F8840102F078F9A4F886015BE102F0C9
:1042400068F984F8900102F06FF9A4F89A0102F07D
:104250006BF9A4F8960102F067F9A4F8980102F04E
:1042600058F9DAF8003084F891015B79082B40F2B4
:10427000428102F059F9A4F89C0102F055F9A4F822
:104280009E0138E192F805B00323BBFBF3FBBBF1C1
:10429000120F3FF6FAACDFF87C904FF0000ADA45D7
:1042A00080F0298102F035F989F8A00102F03CF98B
:1042B00040F2ED23984205DD40F6CA039842A8BFBC
:1042C000184601E040F2EE20A0F2EE20192390FB08
:1042D000F3F089F8A1010AF1010A09F10209DEE708
:1042E00002F017F984F8920105E102F012F904EBEB
:1042F000090309F10109B9F1080F83F88801F4D124
:10430000F9E000BFC011002054130020460800202F
:104310002C1200204C080020019002F0FAF8607185
:10432000019BA36002F00AF902F014FF02F0F1F819
:1043300084F8900102F0F8F8A4F8580102F0F4F8BB
:10434000A4F85A0102F0F0F8A4F85C0102F0ECF8CD
:10435000A4F8800102F0E8F8A4F88201CBE05379D8
:104360004FF0070AB3FBFAF2C2EBC2029A1A12F03C
:10437000FF0F7FF48AACB3FBFAFABAF1000F00F03A
:10438000BA8002F0C6F85FFA80FB4FFA8BF002F0B9
:1043900035F90AF1FF3A5FFA8AFA814600283FF4BC
:1043A00074AC80F800B002F0BFF8A9F8020002F087
:1043B000B0F889F8040002F0ACF889F8050002F0C2
:1043C000A8F889F8070002F0A4F889F80600D4E7F5
:1043D000DFF8D89209F1400A02F0A6F8A9F8B00275
:1043E00002F097F889F8B20202F093F809F1040993
:1043F00089F8AF02D145EFD17DE002F08AF81F289D
:104400003FF643ACD8F800305B79082B7FF43DAC25
:1044100000F18C0A02F088F804EB8A0900F03F00F2
:10442000A9F8020002F080F8B9F80220800100F437
:10443000FE531343A9F8023002F06BF8000104F8B0
:104440002A0002F066F814F82A3000F00F00184332
:1044500004F82A0002F05DF889F8010002F0F6FE87
:1044600049E0012385F8B83145E002F052F8FF2811
:10447000824623D100238DF81B309DF81B30052B7D
:1044800015D89DF81B20774B9DF81B10012003EBDE
:10449000C101496800FA01F153F8320089B248229B
:1044A00002F055F89DF81B300133DBB2E3E76E48AC
:1044B0004FF48051042202F04AF81CE005283FF630
:1044C000E4AB002002F072FA02F04CFAD8F80030A7
:1044D000186802F00FFAD9F8000002F06FF85046A1
:1044E0000AF090FA0A2002F0A4F90BF011F9D8F8BA
:1044F000003083F849B0002002F058FA02F032FA96
:10450000D8F80030002283F8482095F8B8314BB134
:10451000386802F0EFF90AF087FF02F094F9534A85
:10452000534BDA60534B4C379F427FF4A6A9524B52
:104530009B68002B00F09380504898478FE003F071
:1045400081F9DBE70C2803D14D4802F04BFA59E022
:104550000A2801D00D2857D14A4C4B4804F1BC061B
:1045600002F040FA3046232110F099FE10B1801B72
:10457000C4F8B800D5F8B830002B38D0591E705C9C
:10458000404A202801D10B46F6E7C2F8B830134460
:10459000002283F8BC203D4B3D4CD3F800A0D4F85A
:1045A0000090DFF8E080484610F086FE08F1BC0776
:1045B000064649463846324610F086FE354B38B935
:1045C00008EB060292F8BC2052445278520703D0FE
:1045D00010349C42E3D306E09C4204D2701CE36892
:1045E0003844984702E02C4802F0FCF900232B489D
:1045F00000213022C5F8B83010F01EFE284803789C
:10460000002B94D0274809E07F2811D1013BC4F842
:10461000B83000222344244883F8BC2002F0E2F999
:10462000FFF794B80C288FD07F2804D1FFF78EB8FD
:104630002F2B3FF68BA8A0F12002D2B25E2A3FF6C4
:1046400085A813B920283FF481A85A1C2B44C5F82B
:10465000B82083F8BC0002F0BEF9FFF777B811B0BC
:10466000BDE8F08FA4A50108000801400400FA0588
:1046700000ED00E07C1C0020A8110020B21C0020EE
:10468000DEA50108F81A0020FAB101085C0000203C
:10469000AC8E01087C900108E9A50108B41B00203C
:1046A00031310020D9A5010805A601084C080020D9
:1046B0002DE9F04F4728ABB0044600F0858600F2A4
:1046C000CE802E2800F0348667D8222800F0E984B6
:1046D00023D8032800F0628214D8012800F0538206
:1046E000022840F0C186042002F060F9422002F066
:1046F00028F9542002F025F9462002F022F94C2036
:1047000000F0E8BD042800F05382052840F0AC8694
:104710001A2002F04BF900245CE2282800F0A18561
:1047200015D8242800F08885262840F09D86D34C93
:10473000062002F03BF9B4F8580102F03AF9B4F857
:104740005A0102F036F9B4F85C0100F0D4BD2A2811
:1047500000F09A852C2840F08786C84C0C2002F087
:1047600025F994F8900102F0ECF8B4F89A0102F0FF
:1047700020F9B4F8960102F01CF9B4F8980102F09F
:1047800018F994F8910102F0DCF8B4F89C0102F0F9
:1047900010F9B4F89E0100F0AEBD3A2800F0138382
:1047A0001DD8342800F0B6840DD8302800F0D68506
:1047B000322840F05986012002F0F8F8AF4B93F808
:1047C000920100F087BD362800F09885382840F027
:1047D0004B86042002F0EAF8A84C00F033BD4028D4
:1047E00000F07B8511D83B2800F054843D2840F030
:1047F0003B86A24C022002F0D9F894F8E00102F0C6
:10480000A0F894F8DF0100F065BD452800F0FF85B1
:1048100000F2C985422840F02786984C102002F00B
:10482000C5F8607902F08DF8A06802F0CBF894F832
:10483000900102F086F8B4F8580102F0BAF8B4F822
:104840005A0102F0B6F8B4F85C0102F0B2F8B4F81C
:10485000800102F0AEF8B4F8820100F04CBD6F2880
:1048600000F00E8300F21A81662800F0F18100F258
:10487000DD804D2800F00E8515D8492800F0FA8219
:104880004B2840F0F1857D4C042002F08FF894F81D
:10489000D60102F056F894F8D70102F052F8B4F8B5
:1048A000D80100F028BD642800F0AD81652840F0F3
:1048B000DB850B2002F07AF8714B724C188802F0FD
:1048C00078F8208880B202F074F86F4B1B68C3F34D
:1048D000C000C3F38002800040EA4200C3F34002FC
:1048E0001043C3F3401240EAC20003F01003184320
:1048F00002F05FF8654BA4781A8812F0010F0CBF24
:104900000020022012F0020F0CBF0021042112F03F
:10491000040F0CBF0023102303935D4B02F0080A21
:104920001B6812F0400F03F0C00B03F480794BEAD0
:104930000A0A0CBF0026202603F4805812F0100F3C
:104940004AEA090A019003F4005C0CBF00204FF40E
:1049500000704AEA080A12F0200F029103F4804E18
:104960000CBF00214FF480614AEA0C0A12F4807FE8
:10497000049605900CBF00264FF4006603F4003047
:1049800003F400474AEA0E0A0796089003F48036BB
:104990004AEA070A06914AEA060A03F48021089EB9
:1049A00009914AEA060A099E03F400254AEA060A22
:1049B00003F480104AEA0505284303F0007303431B
:1049C000344812F4007F06780198C6F3800643EA63
:1049D0000603029E43EA0003039843EA0603049E8B
:1049E00043EA0003059843EA0603069E43EA0003F0
:1049F000079843EA060343EA00030CBF00214FF483
:104A0000001112F4806F43EA01010CBF00234FF044
:104A1000806312F01B0F41EA03014FF000000CBF4E
:104A200000234FF0006319430346FCE0692800F0BF
:104A3000AC810AD8672800F03381682840F01485DB
:104A4000102001F0B3FF002497E16D2800F0B2813F
:104A500000F2E2816C2840F007850F4C062001F03F
:104A6000A5FF208801F0A5FF608801F0A2FFB4F93E
:104A700004000A2390FBF3F0FAE100BF4C08002089
:104A8000C4110020B81C0020EC070020F40700200F
:104A9000F00700203331002064110020772800F057
:104AA0008B834BD8732800F0A2833CD8702800F089
:104AB0001182722840F0D884C54C162001F076FF90
:104AC000B4F8960101F075FFB4F8400101F071FFF0
:104AD000B4F8420101F06DFFB4F8440101F069FF40
:104AE000B4F8D80101F065FF002001F02AFF002092
:104AF00001F027FF002001F024FF94F8850101F068
:104B000020FF94F8920101F01CFF002001F019FF32
:104B1000B04B1B68B3F95E000A2390FBF3F080B240
:104B200001F047FF8EE3742800F01483752840F0ED
:104B30009B842F2001F03AFFA74CA3E2A02800F0AD
:104B40006D830AD8782800F0B7807B2840F08C84E9
:104B50003C2001F02BFF00243EE2F12800F0E7802A
:104B6000FE2800F04F83F02840F07E84994C04200A
:104B700001F01CFF2368B3F8620001F01AFF2368FC
:104B8000B3F86000B7E3032001F010FF002001F04C
:104B9000D8FE204601F0D5FE0D209BE301F006FF74
:104BA000022001F0CEFE012001F0CBFE022091E3B5
:104BB000062001F0FBFE412001F0C3FE462001F07B
:104BC000C0FE4E2001F0BDFE412001F0BAFE834B35
:104BD000187890E3824B185D013401F0B2FE0B2C83
:104BE000F8D100247F4B185D013401F0AAFE082C97
:104BF000F8D100247C4B185D013401F0A2FE072C93
:104C0000F8D100F015BC072001F0D0FEE72001F03C
:104C100098FE6F4B587901F094FE002001F091FE50
:104C2000042000F003BCA3420CD2704A9D5C012218
:104C300002FA05F50D4218BF9A4003F1010318BFAF
:104C40001043F0E701F0BEFE614B93F8AC0741E37F
:104C5000122001F0ABFE664B00241B88B3F5806F79
:104C600094BF01250825634BE05E023490FBF5F00C
:104C700080B201F09EFE062CF5D15F4C208C01F035
:104C800098FE608C01F095FEA08C5C4C01F091FECA
:104C9000208801F08EFE608801F08BFEA0882AE358
:104CA000102001F083FE0024554B185D013401F003
:104CB00048FE102CF8D1BBE3702001F077FE0026EF
:104CC0000E247443434D01362B682344B3F821016D
:104CD00001F06FFE2B682344B3F8230101F069FE55
:104CE0002B682344B3F8250101F063FE2B682344AD
:104CF00093F8270101F025FE2B68234493F828013F
:104D000001F01FFE2B68234493F8290101F019FEDE
:104D10002B68234493F82A0101F013FE2B681C44EE
:104D2000D4F82B0101F04EFE082EC9D180E370208B
:104D300001F03CFE264C04F1700594F8D00001F01F
:104D400000FE94F8D10001F0FCFD94F8D20001F0CF
:104D5000F8FD94F8D30001F0F4FD94F8D40001F0CC
:104D6000F0FD94F8D50001F0ECFD073494F8CF0085
:104D700001F0E7FDAC42E0D15AE3224B185D01346B
:104D800001F0DFFD102CF8D152E31B4D002495F803
:104D90002600400000F0FE0001F008FE95F82630E5
:104DA0009C4280F04583184B33F8140001F001FE5B
:104DB0000134F3E7062001F0F9FD144B186801F007
:104DC00001FE134B5AE0042001F0F0FD114B31E2DB
:104DD0004C080020C0110020D79101083431002078
:104DE000AB9B0108B79B01088F9B0108BB1C0020EF
:104DF0001C000020BE260020B81C00204008002017
:104E00006C1300200C13002002080020FC07002077
:104E1000901100206C110020072001F0C7FDB14B5C
:104E20004FF6FF741888FF28A8BFFF20C0B201F01A
:104E300088FDAD4B1868A042A8BF204620EAE0706C
:104E400080B201F0B6FDA94B188D01F0B2FDA84B60
:104E500093F88521A74B42B11B680A205843A04212
:104E6000A8BF204620EAE07002E0186800F30F00B7
:104E700080B240E2022001F099FD9F4B18883AE28F
:104E80009E4C0B2001F092FD23680025187801F05C
:104E900058FD23682646587801F053FD3368974C37
:104EA0002B441879013501F04CFD032DF6D1236810
:104EB000D87901F046FD2368987801F042FD236817
:104EC000D87801F03EFD2368588901F072FD23680F
:104ED000587AFFE18A4D1E2001F068FD2B680024FE
:104EE0001B78022B65D12B6804F1080253F82200CD
:104EF00084490DF0BFFA10F0FFFC80F30800C0B247
:104F000001F01FFD2B68804903EB8403D86A0DF084
:104F1000B1FA10F0F1FC80F30800C0B201F011FD0D
:104F20002B6804F10E0253F8220078490DF0A2FA22
:104F300010F0E2FC80F30800C0B2013401F001FD82
:104F4000032CD0D1072C2B6821D1586C6D490DF062
:104F500091FA10F0D1FC80F30800C0B201F0F1FC2E
:104F60002B686849986C0DF085FA10F0C5FC80F349
:104F70000800C0B201F0E5FC2B6893F84C000DF07E
:104F800021FA10F0B9FC80F30800C0B20BE0234412
:104F9000587801F0D6FC2B682344D87A01F0D1FC74
:104FA0002B682344587D013401F0CBFC0A2CC9D175
:104FB0003EE22B682344587801F0C3FC2B6823445D
:104FC000D87A01F0BEFC2B682344587D013401F0EF
:104FD000B8FC0A2CEDD12BE2494D04F108022B68F4
:104FE0004A4953F822000DF045FA10F085FC80B2D2
:104FF00001F0DFFC2B68454903EB8403D86A0DF010
:1050000039FA10F079FC80B201F0D3FC2B6804F17E
:105010000E0253F822003D490DF02CFA10F06CFC02
:10502000013480B201F0C5FC032CD5D1072C2B68CC
:1050300016D1586C35490DF01DFA10F05DFC80B2A8
:1050400001F0B7FC2B683149986C0DF013FA10F0A1
:1050500053FC80B201F0ADFC2B6893F84C000BE0E0
:105060002344587801F0A5FC2B682344D87A01F03A
:10507000A0FC2B682344587D013401F09AFC0A2CD3
:10508000D4D1D5E114F8010F002800F0D18101F04E
:1050900058FCF7E7012001F089FC194B1B681878D0
:1050A00018E1502001F082FC0024154B04F120028D
:1050B0001B680C2103EB82035D1C154A5B780134ED
:1050C00001FB0323187A01F03CFC687801F039FCFD
:1050D000A87801F036FCE87801F033FC142CE4D118
:1050E000A6E100BFC8260020D4260020B81C00205E
:1050F0004C080020D0260020BC1100202C120020DB
:10510000C0110020000020410000C84200007A4485
:105110007C900108482001F049FC002506266E43DA
:10512000C44BD0361B6801351E44B07901F009FC30
:10513000707801F006FCB07801F003FCF07801F023
:1051400000FC307901F0FDFB707901F0FAFB0C2DC9
:10515000E4D16DE1002701240025B74B9A789542F0
:1051600022DA0333E95C0023B44A03EB02089A5CB9
:105170008A4204D00C33B3F5AE7FF5D112E0D8F8F3
:10518000040010F099F881460CB9264601E0074466
:1051900008E04E4506DAD8F80430985D01F0D1FBFE
:1051A0000136F6E70135D8E7002C00F04181F8B26E
:1051B00001F0FCFB0024CFE79F4D0024A87801F00C
:1051C000F5FBAB789C4280F033819D4BE05C002383
:1051D0009A4A99189A5C824204D00C33B3F5AE7F98
:1051E000F6D102E0087A01F0ACFB0134E9E70820CF
:1051F00001F0DCFB0124E0B2013401F0A2FB092C38
:10520000F9D115E1082001F0D1FB00248D4B185B8A
:10521000023401F0CEFB082CF8D109E10C2001F09A
:10522000C5FB894B186801F0CDFB884B186801F06D
:10523000C9FB874B1868F9E0042001F0B7FB854BE8
:105240009868F3E094F87A0101F07BFB94F87E0112
:1052500001F077FB94F87D0101F073FB94F87F0176
:1052600038E07C4C072001F0A1FBB4F8800101F08C
:10527000A0FBB4F8820101F09CFB94F8840101F0DA
:1052800060FBB4F8860136E0012001F08FFB714B22
:1052900058791FE0684E704C96F82600002500EB08
:1052A0004000C0B201F082FB96F8263002349D42E5
:1052B00080F0BE8014F8020C01F043FB14F8010CDE
:1052C000013500EB800000EB800000F2EE2001F0E1
:1052D00070FBE9E701F035FBAAE0082001F066FB6E
:1052E00000245C4B234493F88801013401F029FB2E
:1052F000082CF6D19CE001F05CFB99E04E4B554C3C
:1053000093F82A0004F12805C0EBC000C0B201F0F8
:105310004DFB94F8F6010023504AD25C904200F015
:10532000A5800C333C2BF7D10834AC42F1D17FE09F
:10533000402001F03BFB474C04F14005B4F8B002BB
:1053400001F037FB94F8B20201F0FBFA043494F850
:10535000AF0201F0F6FAAC42F0D169E0E02001F0D2
:1053600025FB3C4C04F18005B4F83202043400F013
:105370003F0001F01EFBB4F82E02C0F3861001F0CE
:1053800018FB94F82C02000901F0DBFA94F82C02C7
:1053900000F00F0001F0D5FA94F82D0201F0D1FAD7
:1053A000AC42E1D144E02E4C0D2001F0FFFA09F0AF
:1053B00039FC01F0C6FA208801F004FBE06801F036
:1053C00001FB01F0B7FF31E001F0B8F8044684209A
:1053D00001F0ECFA204601F0F5FA214BDD6804F10A
:1053E0008003AB428CBFC4EB0505802504F03EFA78
:1053F00020462A460AA909F049FC00240546AC4289
:1054000016DA0AA9085D01F09CFA0134F7E71320C7
:1054100001F0CCFA0024134B185D013401F091FA2D
:105420000B2CF8D1002001F0CDFA002001F0CAFACF
:10543000012032E0C0110020B81C00207C9001083F
:10544000BB1C0020FC140020E8F7FF1FECF7FF1F37
:10545000F0F7FF1F4C080020EC090020E41C00209E
:1054600020000020AB9B0108002016E001F069FA43
:10547000B4F8F80101F09DFA94F8FA0101F061FA2C
:1054800094F8FB0101F05DFA94F8FD0101F059FA7E
:1054900094F8FC0101F055FA46E72BB0BDE8F08F17
:1054A00008B503783BB90B4B0B4893F8AC17BDE834
:1054B000084004F0A7BC0FF054FF022808D8054BA1
:1054C00083F8AC0703F0C2FC0CF08AF80348E8E765
:1054D00008BD00BF4C080020EBB4010808A6010875
:1054E0002DE9F04F87B00193002306468B460292C8
:1054F0001C46029A934204DA5BF8232001331444D9
:10550000F7E7019B0394002B51D109F08BFB002896
:105510004DD1019874E002223B4D8DF814201A0CF5
:105520004FF480578DF8152006201A0A8DF81620A2
:105530008DF8173009F09AFB6F61062009F0F4FA34
:10554000324B01222F6100201A7005A96F610422DD
:10555000002509F01DFBD8464F462B46029A934280
:1055600018DAC44658F8042B002A44D0BA424FF047
:105570000000715932D33A46CDF800C009F008FB5B
:105580007359DDF800C03B447351DCF80030DF1B79
:10559000CCF800701C4B4FF480521A61DAF80030DE
:1055A000C9EB04044B44CAF80030019B33B32CB35D
:1055B000DFF860A0DAF800305FFA83F904EB090243
:1055C000B2F5807F124A88BFC9F58079D26898BF4A
:1055D000A14693429FD301F0CDFE0FE0009309F066
:1055E000D7FA58F8042C7159BF1A0A447251009B1B
:1055F000002248F8042C01330435AFE7039B181B45
:1056000007B0BDE8F08F00BF000C0140710600201C
:10561000200000207406002030B50E4D0E4C2A7874
:10562000237885B09A4211D0684602A901F066FE3F
:10563000002302A902226846FFF752FF03F0C4FCD0
:1056400028782378C31A5842584100E0012005B059
:1056500030BD00BFC82400203824002010B50F4BF7
:10566000014693F8DA37012B11D10D4B0D4C187808
:10567000421CD2B21A70120644BF00221A70215482
:1056800001F068FE3F2808D9BDE81040C4E7064B8A
:10569000BDE81040186801F04FB910BD4C0800205B
:1056A00038240020392400205419002010B5044665
:1056B0007F2C06D964F07F00C0B2FFF7CFFFE4096A
:1056C000F6E7E0B2BDE81040C8E7430083EAE070C7
:1056D000ECE70FB437B506AC54F8045B4820FFF78D
:1056E000BDFF2020FFF7BAFF2A4623460B490020C2
:1056F000019404F0ADFA04460A20FFF7AFFF084B0F
:10570000C4F1FF241A6804F57F04FD3422441A60B2
:1057100003B0BDE8304004B0704700BF2557000813
:1057200058190020084699E708B503F08FFB0BF0E5
:1057300057FFBDE80840012009F0B4BD2DE9F04F46
:1057400011F0FD0F8FB005460391BA4C06D0BA4E4A
:1057500033689F0700F1F38000F0A1BEB74BB84853
:105760005B689847DFF8D8820028F0D0227840465E
:10577000414602F0ABFBB34B0AAA03F1080C1746F3
:1057800018685968164603C6083363453246F7D190
:1057900018689B883060B380AB4ABDF934C0AB4910
:1057A00002F1060900231846CE18768837F903B0AF
:1057B000CE52023336B20C2B0BFB0600F4D15388C9
:1057C0004FF480768B811BB20CFB030090FBF6F04C
:1057D00022F8020F4A4501F10E01E3D19C4B1B88D0
:1057E000002B00F0A080E36A00271B78DFF880A27E
:1057F00004933E46964A1288B2F57A7F0592954AFE
:1058000003D10021D151CAF81010D15938F906003E
:105810000144D1510CF0DAFDDAF810208346013250
:10582000012ACAF8102007D10022CAF80400CAF8D9
:105830000000CAF808202DE0DAF800C001926146A5
:10584000CDF808C00CF00CFD019A814610460CF012
:10585000BDFD014648460CF0C1FEDDF808C001461A
:1058600060460CF0FFFC02461146CAF80400584698
:1058700001920CF0F5FC014648460CF0FBFDDAF80D
:1058800008100CF0EFFC019ACAF80C00CAF80020CE
:10589000CAF80800DFF8C0B1002228F8062026F870
:1058A0000B20059ADFF8A891012A29D1DAF8100017
:1058B000012808DD01380CF089FD0146DAF80C00FA
:1058C0000CF08CFE00E0002010F06CFA049B024605
:1058D00063B1184601920CF079FD019A0146104619
:1058E0000CF084FF10B14FF47A731AE0594A4FF468
:1058F0007A71BA5802F5FA7292FBF1F22BF806208F
:105900000236062E07F104070AF1140A7FF472AF7B
:10591000B9F80000012801D109F08CFCB9F8003079
:10592000013BA9F8003000234B4A38F803109A5A7B
:105930008A1A28F803200233062BF5D107E7039BC8
:10594000002B00F0AC85DFF8EC90D4F8843009F13E
:105950008C00984709F18C07002800F005813F4B27
:1059600038461A78394602F0B1FA3D4B1A88984603
:10597000002A42D00022D9F894001346B8F800104B
:10598000DFF8F0C0B1F5C87F04BF00214CF8031068
:1059900037F902905CF80310DFF898E049444CF8BE
:1059A0000310043300210C2BB952815202F1020280
:1059B000E4D1B8F80030012B1AD1DEF898304FF45A
:1059C000C872C83393FBF2F30380DEF89C30C8330F
:1059D00093FBF2F34380DEF8A030C83393FBF2F27E
:1059E000204B1B88D21A828029806980FFF79CFE99
:1059F000B8F80030013BA8F800301B4B1B68580773
:105A000040F19E80194A13889046322B34D1D4F845
:105A100094301A88A4F8A4205A889B88A4F8A62059
:105A2000A4F8A8302B88A4F8AA306B88A4F8AC306E
:105A300024E000BF201D0020EC070020A81100205A
:105A4000D81C002008920108D61C0020221D00202E
:105A50002E3100208C1D0020981D002035310020A3
:105A6000A41B00201C00002084060020C01A002077
:105A7000501D0020B81D0020002B41D00022D4F87A
:105A800094C01046B8F80030DFF85CE1322B04BF58
:105A900000234EF800305EF8001037F902904A4BB0
:105AA00049444EF80010043000210C28B9528E46AB
:105AB0002CF8021002F10202E4D1B8F80020012A09
:105AC00019D1424981F800E041490A70009309F078
:105AD000B1FB009BD3F89420B3F8A4101180B3F865
