:020000040800F2
:1000000000500020D954010885550108AD3E010873
:100010008555010885550108855501080000000037
:1000200000000000000000000000000085550108ED
:10003000855501080000000085550108853E01082E
:100040008555010885550108855501088555010824
:100050008555010885550108F53D0108F13D010868
:100060008555010885550108855501088555010804
:100070008555010885550108B13D010885550108E0
:10008000F93D010885550108855501088555010888
:10009000855501088555010885550108ED3D010884
:1000A000855501086D3D0108855501087D3D010814
:1000B0005D3D01084D3D01083D3D0108353E01080B
:1000C0002D3E0108313E0108293E010885550108F1
:1000D00085550108A53D0108993D01088D3D0108A0
:1000E000953E01088555010885550108000000006E
:1000F0000000000000000000000000000000000000
:0C01000000000000000000005FF808F1A3
:100110002DE9F04F754B764FA1B03B6000237B601B
:100120000EF0FAFB18B913F083F80EF019FC0BF07F
:1001300085F9704B704C1A78704E42F001021A70BB
:100140000023089309930A934FF4E0130B93236859
:10015000317B43F480332360A36943F01003A36130
:10016000236803F400330993089B01330893099B28
:100170001BB9089BB3F5A06FF2D122685E4B12F455
:10018000003201D0022315E0186840F00100186029
:100190000892236803F002030993089B0133089334
:1001A000099B1BB9089BB3F5A06FF2D123689D078B
:1001B00039D501230A93524B52481A6842F0100273
:1001C0001A601A6822F003021A601A6842F00202EA
:1001D0001A606368636063686360636843F48063A4
:1001E0006360494B1A68043B22F070425A60474AE8
:1001F0001060606820F47C106060586840F0004037
:100200005860D86820F40040D8609B68180449BF43
:100210003F4B4FF4E01313604FF480130B930A9B92
:10022000012B01D117E0FEE7022B18D169B10B9B1E
:10023000B3F5801F02D14FF4A01305E00B9BB3F57B
:10024000E01F02D14FF400130B9361680B9B0B432B
:1002500043F4803302E0636843F46013636023680F
:1002600043F0807323602168234B8901FBD55968D3
:1002700021F003015960596841F002015960636837
:100280001D4903F00C03082BF9D14868214B00F0FD
:100290000C00042803D0082804D01A4900E0116893
:1002A000196011E048684D68C0F38340ED0300F128
:1002B000020001D4184905E0496811F4003F1168B3
:1002C00018BF49084843186060681449C0F3031018
:1002D000084490F81880186820FA08F8C3F80080DD
:1002E0001368084A93421BD101221DE0318D00089A
:1002F00078140020D833002000100240980200201B
:100300000020024000127A00041001400C0000207E
:10031000001BB7005000002000093D009CB30108FD
:10032000B94A934202D10222B84B1A70DFF860A397
:10033000B74B20ADCAF80C30A369DFF8FCB243F02C
:100340000103A361636A4FF00009BB60636AB148AF
:1003500043F080736362A36943F01C03A3614FF60B
:10036000FF7325F82C3D29468DF8569011F0A5FB1A
:100370005846294611F0A1FB2946A74811F09DFBDC
:10038000A64B28465A6842F000725A6009F0FEFDFA
:10039000A34A159B4946B3FBF2F3A2480C22FB602B
:1003A00017F0F4FA4FF47A729F4BB8FBF2F808F1A9
:1003B000FF325A60F0228AF823200722C3F80890FF
:1003C0001A60B368DFF87882DFF8C8A2C8F8003096
:1003D000964B0FCB85E80F00A369159843F00803EF
:1003E000A361A36916A943F00803A3610823CBF80E
:1003F00010301023CBF8103011F05FFB179818A9BC
:1004000011F05BFBD8F80030180744D59AF890310A
:10041000012B40D8864B9AF891219B6813F0805AA3
:1004200000F004864B46B3B3824ADFF80CB2106882
:10043000DFF8E0914FF01008CBF8148029461590B2
:10044000484611F03AFB0822C9F810203C2008F079
:10045000E4FBCBF810804FF0000896F8912190450E
:1004600015DA754A4FF0080BC2F810B07820C9F8B9
:1004700014B0039208F0C6FB039A7820C2F814B0B7
:10048000C9F810B008F0BEFB08F10108E5E7BAF1C1
:10049000000F00F0D485642008F0BFFBA02267485D
:1004A000002117F073FAE369002243F00703E361C8
:1004B000A36943F4006343F00C03A3615C4B4FF06A
:1004C000000A03F1100102F801A001320E2AF5D151
:1004D000FF229A77DA7783F8202083F82120584A80
:1004E000584B1468584A51461A6058483C2217F035
:1004F0004DFA04F04009052351460C20544A484364
:1005000011F802E0514A00F802E0B9F1000F0AD1F7
:10051000AEF11E0EBEF1010F05D84FF0FF0E013BEC
:1005200000F802E0DBB201310529E6D1494A96F82C
:1005300005A01370484A494B7A62C032BA62484AF1
:1005400083F800A002EBCA02394B5278A10648BFDB
:100550000122DA620023434A40F2DC51995202330D
:10056000102BF8D1404BD3F80080B8F90C0013F0F1
:100570007BFF3E4914F080F83D4A83461060B8F98D
:100580000A0013F071FF394914F076F8394B3A49F3
:10059000186013F0B5FE394913F0BAFF384914F06A
:1005A0006BF8804617F018FD01464046039117F09E
:1005B000B1FD039980460BF1004013F0A9FF4146BD
:1005C00013F09CFE2F4B002118601C220EA817F080
:1005D000DDF914F4007804F4006B5DD0A3040ED4AC
:1005E000BBF1000F08D0284A96F88401A2F10C0153
:1005F000012818BF0A4603E0244B059301E0224A74
:10060000059214954AE000BF001BB7000434002097
:100610000005FA05000801400010014000000140FB
:1006200040420F00CC33002010E000E0C4B30108CA
:1006300078140020D4B30108000C01402C320020B3
:10064000D4000020401D00208E040020D81D002072
:10065000BED10108D51D0020A8020020B40E002044
:10066000A4D20108CE0E0020A00D002000002041E1
:100670007C0F0020800F00200000B442DB0F4940B7
:1006800000003443780F0020A8B301089CB3010890
:1006900000ED00E098020020CDF81480BAF10E0FB2
:1006A00004D00AF0EF0ABAF1080F02D101228DF846
:1006B0004A20012008F0BAF918B14088003018BF6C
:1006C0000120C4F3400219F100098DF83E20C4F363
:1006D000403200F0010018BF4FF001098DF83820BA
:1006E000C4F3C0328DF83D008DF840908DF83B206A
:1006F000BBF1000F07D096F884B1BBF1010EDEF11B
:10070000000B5BEB0E0B18F1000318BF01238DF8F3
:100710004230FB6AB6F84401003318BF01238DF85C
:100720004330C4F300538DF84430B6F84631C4F377
:100730000042ADF84830B6F852318DF84120ADF89E
:100740004630C4F380438DF83F30B6F8503104F0A2
:100750000101C4F3C002ADF84E00E0048DF83CB0D6
:100760008DF839108DF83A20ADF84C3004D5AF48EB
:10077000B0F84C01ADF84E00B3F5FA7F84BF00230A
:10078000ADF84E3096F8D431A94887F830300023C0
:1007900087F8313043709DF84A30002B14BF022394
:1007A000002301B902B10133A24A4FF0000802EB65
:1007B0008303DB6BCDF810800693069B33F808208B
:1007C0004FF6FF739A4200F08881D3B29A4F9DF89A
:1007D0003D101E01BC1919B1991E012940F2778103
:1007E0009DF8401021B1B9599448814200F06F81C1
:1007F0009DF841E0BEF1000F04D0B9598F48814205
:1008000000F065819DF83E1039B161688C488142E5
:1008100003D12189102900F05A819DF83B1039B18C
:1008200061688748814203D12189022900F04F8104
:100830009DF83C1039B161688248814203D1218919
:10084000022900F04481DDF850C0BCF1000F0FD048
:100850006068DCF8001088420AD12189BCF80400E5
:10086000884200F03481BCF80600884200F02F81F5
:100870004FEA1229B9F1020F02D19DF8382004E0A5
:10088000B9F1010F04D19DF83920002A00F01F8131
:100890009DF8432062B19DF84A204AB9A3F10802AD
:1008A000012A05D8B959684A914208BF4FF0040996
:1008B0009DF8442062B19DF84A204AB9BEF1000F6C
:1008C00002D00C3B012B01E0043B032B40F2E780FC
:1008D000B9F1010F42D15D4BFF2283F8782083F8F4
:1008E00079202189627B4FF0000A83F87CA0C3F84D
:1008F00088406068ADF854108DF8562029460222D1
:1009000083F834A0C3F838A0C3F83CA0C3F840A0D3
:10091000C3F874A083F87AA083F87BA08DF85720E1
:10092000039311F0CAF8B859A17A52460FF0AAFB06
:10093000204651464A460DF079FD039B444AC3F8D0
:1009400094A0C3F88C20434A2046C3F8902003F1BA
:100950008C0103F190020CF0B1FAB8E0B9F1020F8A
:100960003ED1049A3C49D3B21C225A43049B01EB6A
:10097000020A4FF0000B8AF8013001238AF802B016
:100980008AF80AB08B542189627B6068CAF80C40EF
:10099000ADF8541015A903938DF856208DF8579093
:1009A00011F08BF8B859A17A5A460FF06BFB039BF4
:1009B00020461A4659460DF039FD284B0AF114021B
:1009C000CAF81030264BCAF818B0CAF814302046BE
:1009D0000AF110010CF072FA049A0132049276E0E6
:1009E000B9F1030F58D19DF83F30184E3BB196F83E
:1009F0003270204608214FF6FF7200233EE0BDF81A
:100A00004C3096F83270B3F5FA7F2FD9154A20464C
:100A1000B2FBF3F20821BDF84E3092B20DF030FD7A
:100A200006EB8707C7F85C010F4B2EE09802002009
:100A3000A91400209CB30108C4D10108000400409F
:100A400000080140000C0140002C014078140020F7
:100A5000E3100108E5110108F4140020C1000108A9
:100A6000BD11010800127A0005120108B94A20469A
:100A7000B2FBF3F2BDF84E30012192B20DF000FD51
:100A800006EB8707B44BC7F85C01C36096F83230B9
:100A9000013386F832301AE0B9F1040F17D1BDF8EE
:100AA0004630AC4AAD4E92FBF3F22046BDF84830DA
:100AB000012192B296F831700DF0E2FC96F83130D7
:100AC00006EB87070133C7F88C0186F8313008F14F
:100AD0000208B8F11C0F7FF470AEA04CA04F94F840
:100AE00031304FF0000E84F8AC319E4B87F800E0B7
:100AF0001E78A6F11703022B1CD8F146636A002169
:100B000053F8090003EB090A13F096FE10B1E36AEB
:100B10007BBB29E0944B09EB030E9AE80F008EE8AB
:100B20000F003B7809F110090133B9F1C00F3B7098
:100B3000E4D1ECE78D4B13F8369003EBC603D3F802
:100B400004A087F80090BAF1000FE0D0CE45DEDABD
:100B5000854A4FEA0E1303EB020C53440FCB0EF100
:100B6000010E8CE80F00F1E7814A1368D90429D4FB
:100B700022E0804A02EBC60393F84C007E4AD3F889
:100B800050E01070BEF1000FEED000238342EBDA8C
:100B9000C3EBC3010EEB0102D2F800A0DFF80C9208
:100BA000013341F809A001EB090C9188ACF804105D
:100BB00092798CF80620E9E706F0EF03082B6F4BDB
:100BC00027D128E097F800A0BAF1010FF4D96C4FB3
:100BD0004FF00009D14507F11007EDDA57F8100C76
:100BE0004FF07C5113F094FC4FF07C5147F8100CFF
:100BF00057F8140C13F08CFC4FF07C5147F8140C90
:100C000057F80C0C13F084FC09F1010947F80C0C9F
:100C1000E0E70E2E08D11A78182E42F010021A7052
:100C200008D108F050F905E01A78192E22F01002C8
:100C30001A70F5E70BF0F0FF4D4A13685A0302D41F
:100C4000504B01221A70504B504E1A78504F42F0C0
:100C500004021A7033784FF48052012B8CBF10239A
:100C600014238DF856304FF002038DF85730BB69CE
:100C7000ADF8542043F00403BB618CBF4FF0010971
:100C80004FF000094348294610F017FF424BB9F1D5
:100C9000000F01D0414A00E0414A00201A6007F0ED
:100CA000EFFF404BDFF8089193E80300BB6985E84C
:100CB000030043F0080316A9BB61159810F0FDFE70
:100CC0000DF0A4FA9F238DF83430322000234FF426
:100CD000805A8DF835308DF836308DF8373007F082
:100CE0009CFF0422C9F814A028460DA90BF0E8FCCB
:100CF000C9F810A09DF856209DF85530120242EA1E
:100D000003429DF857301A43274B9A4214D03220A1
:100D100007F083FFC9F814A0F5200BF05FFDFF205A
:100D20000BF05CFD7028C9F810A005D13378022BB8
:100D300002D1164B03221A703378032B0CBF1F20ED
:100D4000022007F04BFE3378032B33D0012007F04D
:100D50002CF939E040420F00F51101087814002009
:100D60009C0D0020B40E0020AC0D0020A4D2010880
:100D7000D40000209CB30108E40E00209202002061
:100D8000B40D0020C8130020D83300200434002004
:100D90000010024000080140E8330020F5880008F8
:100DA00009890008B8B4010815202000E50E0020CC
:100DB000000C0140022007F039FE18B140880030D5
:100DC00018BF0120C307C1D5AE4B96F800A01D681F
:100DD000AD4E4FF0100B05F400635A46304600212B
:100DE000049316F0D3FD4FF6FF73ADF834300223B1
:100DF0004FF0000815EA030205F400498DF836307B
:100E00008DF8378035460ED0A0480DA9ADF834B026
:100E100009F00EF90422327086F8018007230126BA
:100E2000AE70EB7000E01646BAF1010F0FD9202327
:100E300096480DA9ADF8343009F0FAF805230122DF
:100E40002B72AA72731C07226E72EA72DEB2B9F1BB
:100E5000000F0ED002238D480DA9ADF8343009F0F3
:100E6000E7F80123F2182B71AB7107236E71EB7158
:100E7000D6B2049B7BB1022385480DA9ADF834306E
:100E800009F0D6F8092301222B73AA73731C0722D9
:100E90006E73EA73DEB27B687E4843F440437B6046
:100EA0007B69DFF8F08143F001037B61BB6943F4A8
:100EB0000073BB6109F09AF9774B00271593774BC4
:100EC000022E169334BF3B4680231A934FF480734F
:100ED0001B934FF480631C93202315A91D93404658
:100EE0004FF4005318961E93179719971F9709F000
:100EF0005FF9D8F80030012E43F00103C8F8003044
:100F0000674B98BF00215A6888BF012122F47022E4
:100F100022F4807242EA01225A609968614A013ED5
:100F20000A4042F4602242F002029A60DA6AF6B2A3
:100F300022F4700242EA0656DE623846012329187E
:100F40008A78002A5AD02A5C5E1C092A91F803E0AC
:100F5000F6B2534911D9A2F10A0707EB47074FF040
:100F6000070C0CFA07FC0EFA07FED1F80C8028EAF1
:100F70000C0C4CEA0E07CF600EE002EB42074FF07C
:100F8000070C0CFA07FC0EFA07FED1F8108028EACD
:100F90000C0C4CEA0E070F61062B41490ED8013BA1
:100FA00003EB83034FF01F0E0EFA03FE9A404F6BC4
:100FB00027EA0E0747EA02034B6320E00C2B0ED80A
:100FC000073B03EB83034FF01F0E0EFA03FE9A401C
:100FD0000F6B27EA0E0747EA02030B630FE00D3B96
:100FE00003EB83034FF01F0E0EFA03FE9A40CF6A05
:100FF00027EA0E0747EA0203CB6200E01E460430F0
:10100000102801D033469AE7254B9A6842F4807243
:101010009A609A6842F001029A609A6842F0080267
:101020009A6099681E4A0F0710D5FAE702F1FF3956
:10103000B9F1090F8CBF00230123FFF7F4B91A4B54
:1010400083F891A10AF0B4FBFFF725BA936843F047
:1010500004039360124A936813F00403FAD1916871
:1010600041F4A0019160104AB2F85801F8B9B2F900
:101070005A31DBB9B2F95C31D3F1010338BF002337
:1010800015E000BFD4000020101C00200008014023
:10109000000C0140080002404C240140201C0020AC
:1010A00000240140FDF7F1FF98020020034613F0F1
:1010B000010340F08A80BB4A00B2137113F0D4F9E7
:1010C000B94913F025FAB94F0646B7F95A0113F09A
:1010D000CBF9B54913F01CFA0546B7F95C0113F0DA
:1010E000C3F9B14913F014FA8146304608F072FA98
:1010F0000746304608F0FCF98046284608F06AFAB0
:101100000646284608F0F4F90546484608F062FA13
:101110008246484608F0ECF939468146504613F0BD
:10112000F7F939468346484613F0F2F951460490E0
:10113000404613F0EDF949460690404613F0E8F9B1
:1011400031460790504613F0E3F94946C4F8B00120
:1011500006F1004013F0DCF92946C4F8B401C4F8E4
:10116000B851069813F0D4F90146049813F0C8F862
:101170002946C4F8BC01079813F0CAF9014658463D
:1011800013F0BCF83146C4F8C00108F1004013F078
:10119000BFF92946C4F8C401584613F0B9F901460D
:1011A000079813F0ABF82946C4F8C801049813F067
:1011B000AFF90146069813F0A3F83946C4F8CC01FC
:1011C000304613F0A5F9C4F8D001794D2B689E0381
:1011D00020D5C82007F021FDAE2011F02CFB08B16E
:1011E00011F02EFB84F8D401C82007F016FD714BD6
:1011F00000210C227048C4F8D83116F0C7FB022336
:1012000084F8DF3111F0D2FB07F0E1FC6B4B0344B3
:10121000C4F8E4316A4F654E3B6896F85F0196F872
:10122000691196F86A21B3F9563009F03BFA10B902
:1012300001200BF0AFFB634B4FF00A081A7842F025
:1012400002021A70604B10225A6108221A615E4F26
:101250001920FB6808F1FF3883F01003FB60FB687E
:1012600083F00803FB6007F0D8FC012007F008FDBD
:10127000192007F0D2FC002007F002FD18F0FF084B
:10128000E5D108233B614FF01008504BC7F81080A0
:101290001B68180709D54E4BC7F814801B68984780
:1012A0004C4B0122C7F810801A70D4F8E8714FF047
:1012B0000008387B13F0D8F83B4913F029F908F0FF
:1012C00089F9454BC4F8EC01188813F0CDF80146B4
:1012D0004FF07E5013F0D0F9404BC4F8F001324982
:1012E000186913F015F9C4F8F401387813F0BCF854
:1012F00001464FF07E5013F0BFF90146C4F8F801E3
:101300004FF07E5012F0FAFF4FF07E53C4F8FC010C
:101310004046C4F80832C4F81432C4F80082C4F855
:101320000482C4F80C82C4F8108208F053F907460E
:10133000404608F0DDF839468046384613F0E8F8B4
:1013400041468246404613F0E3F83946814650460E
:1013500013F0DEF841468346484613F0D9F80146BB
:10136000584612F0CDFF3946C4F81802404613F033
:10137000CFF83946039013F0CBF8039B83464146E0
:10138000184613F0C5F8034619465846039312F061
:10139000B5FF039BC4F81C021946584612F0B0FF73
:1013A0001EE000BF0C00002035FA8E3C98020020A1
:1013B000D40000202004002054160020404B4C0094
:1013C000380C0020D8330020000C014038020020E7
:1013D00084020020900A002006000020200C00203B
:1013E0004146C4F82002504613F092F83946804630
:1013F000484613F08DF80146404612F07FFF002763
:10140000C4F8240284F82872B44CFF211B22204621
:1014100016F0BCFA2770B24FB24B3A68012112F0B5
:10142000020F1970204604D0617003211970022147
:10143000A170510704D519784C1C1C700324445426
:1014400012F00A0F0CD01A7804218154511CC9B231
:1014500005244454D11C02321970D2B206218154A1
:101460002A68940604D519784C1C1C70072444542F
:10147000110608D51978092444548C1C01311C70BC
:10148000C9B20A2444547179082901D00E2908D11F
:101490001C7804F1010E83F800E04FF00B0E00F809
:1014A00004E01C784FF00C0C04F1010E5FFA8EFE84
:1014B00012F4803F83F800E000F804C009D004F182
:1014C000020C884C84F800C0844C4FF00E0C04F8D9
:1014D0000EC0540708D51C7804F1010E83F800E013
:1014E0004FF0100E00F804E01C784FF0120C04F1DD
:1014F000010E5FFA8EFE12F4806F83F800E000F8B0
:1015000004C00ED096F820C2BCF1000F09D004F13F
:10151000020C744C84F800C0704C4FF0130C04F8AB
:101520000EC01C784FF0140C04F1010E5FFA8EFE11
:1015300012F4007F83F800E000F804C009D004F141
:10154000020C684C84F800C0644C4FF0150C04F891
:101550000EC0182913D11C784FF0160E00F804E0C5
:1015600004F1010E5FFA8EFE4FF0170C00F80EC06A
:1015700004F1030E0234E4B283F800E001551103D4
:1015800004D519784C1C1C7019244454D40504D576
:101590001A78511C19701A2383540021982252483A
:1015A00016F0F4F9514C10F0C1FAB6F84E3150492A
:1015B000A4F8303200234F4A0B808B70B6F89601A6
:1015C0004D49C4F82C220A6081B24C4A9952023328
:1015D000242BFAD12B68D9045CBFB6F89C1111807A
:1015E0001B0740F1EE8096F89031062B00F2E38065
:1015F000DFE803F004070E3955A0A00045F2F052D1
:1016000001E042F6F8223E4B1A8010F019FBD1E0BF
:101610003B4B42F6F8221A8012F026FF394912F0AD
:1016200077FF394912F06AFE13F05EF90023374A5A
:1016300098500433482BFAD1354A364B40209A60F3
:10164000354B12221A7007F02BFA002800F0B380F5
:1016500001234FF0070990F9000040218DE80802AE
:101660002E4A2F4BA1E0264B42F6F8221A802D4A33
:10167000284B40209A60284B10221A7007F010FA6D
:10168000002800F0988001234FF0000890F9000036
:1016900040218DE80801244A4FF4E13385E0184BDE
:1016A00042F6F8221A80214A1A4B40209A601A4BBF
:1016B00008221A7007F0F4F900287CD001234FF0BB
:1016C000000C90F9000040218DE80810184A4FF4F2
:1016D000E1330CF051FDC4F8340268E0731D0020C2
:1016E00038020020721D0020A41C00207814002065
:1016F000840E002020040020D80000204E0200208C
:10170000D20C0020CDCCCC3F0000B0442C010020F6
:10171000B19A00080C0000208E1D0020199D0008C1
:10172000A0860100A19A0008699C00088D9A000813
:101730001D9C00084A4A42F6F821118049490C22B2
:10174000062B49480A7010D00023037084F8383201
:1017500084F839321B2384F83A32052384F83B227B
:1017600084F83C324FF4E1380EE00021017084F837
:10177000381284F83912DFF81881212184F83A12DE
:1017800084F83B2284F83C32384A394B40209A6036
:1017900007F086F978B101234FF0000E354A90F931
:1017A000000040218DE8084043460CF0E5FC003085
:1017B00018BF012028B9082008F0A6F82E4A2C4BA3
:1017C0009A602B68274A13F4804F04D008211170C7
:1017D0002A482749886042F20101194089B120490D
:1017E00044F620600880980404D50821117024482C
:1017F0001F498860D90704D50C21117021481C4964
:10180000886011781B06A1F1040151707ED5DFF8C4
:1018100084804FF00009DFF880A0494615221A485D
:10182000DFF878B0C4F840A288F80190C8F80490B6
:10183000C8F8089016F0AAF8AAF105034846CBF8B4
:10184000003006F0DBFA114B02201B68C8F80C30A0
:1018500007F026F9434618BB802008F055F84DE004
:10186000D20C00208E1D0020100200204D9A00088E
:101870000C000020059B0008019B0008DD9A000871
:10188000E99A0008F59A0008BC160020C833002029
:1018900090D00300F80B00208E040020180C0020CC
:1018A00090F805E05A78C9494FF00C0C0CFB021C6B
:1018B0009CF801C0F44504D00132D2B2042AF2D916
:1018C00000225A70DBF800205B7812784FF00C0E83
:1018D0000EFB0311002A0CBF0122032290F9000025
:1018E000009200224B78019202210CF045FCB84B8B
:1018F00018600028B0D0012006F080FAB54B1868B7
:10190000B54B00F5C5721A600FF09AFF2B68980569
:1019100059D5DFF81883059AB04BC8F800209A69AA
:101920004FF0100942F001029A61059AAC48138801
:101930000CA9ADF8303002238DF832908DF8333099
:1019400010F0BBF8D8F80030A5485B880CA9ADF8BA
:10195000303004238DF8323010F0AFF8D8F8003072
:101960000120197A10F094F8D8F800309D4A5B688D
:101970004FF0000A536115A88DF859904FF00109F6
:1019800015938DF858A08DF85A9008F0E3FBD8F81D
:1019900000300DA85B7A8DF836A08DF83430032323
:1019A0008DF835308DF837900BF0DCFC8E4B1A68D3
:1019B0008E4B3C3A1A603B684FF0FF3243F0100305
:1019C0003B608B4B1A608B4B8B4FC4F85C3280337F
:1019D000C4F860322B684FF00008D90387F8008004
:1019E00040F1BA800FF0D4FEDFF844C2DFF8EC918A
:1019F00040F22A3B4FF0010A60465A46414687F8BA
:101A000000A0CDF80CC015F0C1FFD9F818307B4804
:101A100043F00403C9F818304023ADF830301823E0
:101A20008DF833300CA903238DF8323008F000FB19
:101A3000D9F81C30724F43F00203C9F81C30714BC7
:101A4000A9F694791A68704BB2FBF3F23B88013A1D
:101A500023F45C731B041B0C3B8092B21D23BB85DB
:101A60003A85A7F814A03B8C23F001031B041B0C40
:101A70003B843B8CB9883A8B23F0020322F073023B
:101A800012041B04120C1B0C89B242F0600243EAE0
:101A90000A03B9803A83A7F834803B843B8B23F058
:101AA00008031B041B0C43F008033B83B7F84430C6
:101AB0006FEA43436FEA53439BB2A7F84430D9F827
:101AC000A83F43EA0A03C9F8A83F484608F08EFB3E
:101AD0004E4B8022DDF80CC01A924FF480721593A1
:101AE0001B9210234FF40052484615A917931E92DB
:101AF0000393CDF86480CDF87080CDF87480CDF874
:101B00007C80CDF858C0CDF860B008F051FBBA89A0
:101B1000039B92B242F40072BA81D9F800200DA85A
:101B200042F00202C9F800208DF834308DF835A05B
:101B30008DF836808DF837A00BF014FC344B1A6802
:101B4000344B48F8032008F10408B8F1800FF5D1B0
:101B50000BF031FB0BF02FFB2B685A0540F18C800A
:101B6000D4F890852C4B0420C3F8008006F098FF31
:101B70000421C4F8940506F06DFF284B84F89805FD
:101B80000820C3F8008006F08BFF254B0821186061
:101B900006F060FF234F84F89905002138462C2277
:101BA00015F0F4FE8E237B704FF07C0AE0234FF09B
:101BB0007D09FB7087F800A087F82B901A4F2C2224
:101BC0000021384615F0E2FE34E000BF88A201088B
:101BD000F40B0020380C00208C0D00200010024077
:101BE000000C014000040140C8330020EC0B002031
:101BF000BC0B0020C8040020E513002000080140B1
:101C0000000400405000002000366E013404004003
:101C1000C0A60108E61300202C1E0020801E002014
:101C2000CC1E0020501E0020851E0020F00B00203E
:101C3000DC1600208A237B701020A023FB7087F81D
:101C400000A087F82B90C4F89C8506F029FF10218E
:101C5000C4F8A00506F0FEFE84F8A4052020C4F810
:101C6000A88506F01DFF2021C4F8AC0506F0F2FEA1
:101C700084F8B00510F0E8F9744B754F1B78022B0F
:101C800068D1744B4FF000081A88322022F04002CD
:101C90001204120C1A801A884FF4805922F038026C
:101CA0001204120C1A801A8892B242F040021A8072
:101CB0009F238DF834308DF835808DF836808DF87F
:101CC000378006F0AAFF8DF85580DFF8D88104220E
:101CD000C8F8149015A80DA90AF0F2FCC8F81090E5
:101CE0009DF856309DF855201B0243EA02439DF8AB
:101CF00057201343584A934219D00AD8A2F51A42E2
:101D0000033A93420CD002F51A420232934209D0B0
:101D10001BE0524A934205D00132934207D014E0AF
:101D2000202300E080233B804FF4807302E04FF4D7
:101D300080733B807B80BB883A881B02BB60534327
:101D4000FB60012384F8B13504E000233B807B80F5
:101D5000BB60FB60FB6823B34FEAD328C1464FF05A
:101D6000000AC2450BDA0AEB08077F100DF1540B8D
:101D7000F802594610220AF00BFD0F2806DC0EF07F
:101D8000C5FE4FEAC923C4F8B4350AE000235BF866
:101D90000320013255D10433102BF8D1B846B9468F
:101DA000DFE72B6813F400222D4B18BF01221A70B5
:101DB00006F00DFF2B4B18607379052B03D12A4BCE
:101DC0004FF4C8721A80294B4FF47A721A80284B4C
:101DD000C8221A80274B28491A7842F008021A7044
:101DE000264B1A7822F002021A700A6840F60203A3
:101DF00013406BB12248234B1860234B032018700B
:101E0000224B0120187022480023038021480380C0
:101E1000930308D5042384F8E03194F8DF3143F0CC
:101E2000010384F8DF311C4B01229B680B601B4BC4
:101E30001A701B4B1A7862F07F021A7021B0BDE84D
:101E4000F08F07F1010A4F46A9E700BF04340020D4
:101E5000180000200038004018BA20001740EF009A
:101E6000C91300209C0C0020641C0020FA330020C1
:101E7000F833002092020020D40000200334002018
:101E800012040020241E0020841E00205400002084
:101E9000021C0020041C002098020020C81300200F
:101EA000D8330020000C01409A4A2DE9F04F146805
:101EB000994904F59C4320330B60984B89B019680D
:101EC000984611F4804F964E05D10AF051FE10B994
:101ED0003378013333707778914BBFB15A689442AD
:101EE00040F2EF80013F5F70EBE0D9F80030072C43
:101EF00098BF195D8B4B88BF21461B688A4898475D
:101F0000032C0BD906EB440420810137864BFCB22D
:101F10001D78DFF83C92A542E7D81FE0D9F80030E1
:101F200004F10E0203EB82029388D2880028E9D0E4
:101F3000C01A4FF47A714843D31A90FBF3F0084467
:101F400040F6C903984205DC40F2EE239842B8BF40
:101F5000184601E040F6CA0080B2D3E70F2386F8A6
:101F60002C30724B36781B784FF0030BB6FBFBFB23
:101F700002930BEB4B0B6E4BCBEB060B1B785FFA14
:101F80008BFB4FEA4B0B69004FF0000AD9F8009029
:101F9000684FCDF810B003930591D346059A92454A
:101FA0005BD06548029A3AF8004042B90AF0E0FD79
:101FB00020B1039B002B08BF002400E0029CB9F86D
:101FC0001400A04208D8B9F816C0A44534BF4FF099
:101FD000000C4FF0010C01E04FF0000C63463BB9E0
:101FE0005FFA8BF0CDF800C00AF0CEFD009B0446EE
:101FF0005FFA8BF003280BD853B94FF0010C0CFAA1
:102000000BFC474890F82CE02EEA0C0E80F82CE0F0
:102010000AF0AEFDC0B94248049990F876307C527F
:1020200023B9022E10D9012480F8764078883C88A4
:102030000444B88804444148A4B22AF8004024B2B9
:10204000032094FBF0F4A4B23D480BF1010B2AF8F5
:10205000004006370AF1020AA0E7314B394993F8EC
:102060002C20B2F10F077A427A4183F89020364B48
:102070006AB1364A1268560109D40A68D9689A606A
:10208000521AC82A1DD9012283F8212019E02748B5
:102090000022096802709868D9605B68091A994241
:1020A00088BF294B4FF0000488BF83F82120AC4241
:1020B00007DAE0B20AF068FD214B23F8140001347E
:1020C000F5E7D8F80030DD0405D5204B1B68DC07A8
:1020D00001D40FF07FFD0F4B1C681D4B19688B7AE4
:1020E000002B39D0164A013B32F813000B7B1BB191
:1020F000C0F53B60083080B200B2A0F57A70B0F550
:102100007A7FA8BF4FF47A7020EAE07012F0ACF941
:10211000104957E0DC3300202C020020D4000020BE
:10212000301A0020140000208E1D0020C80000205E
:10213000D00000205E1A0020381A0020A81A0020C3
:102140004E020020C8330020840E00203C020020F4
:10215000D800002000007A44D8F8002010043AD5B6
:102160008A4AD2F89400201A002834DB04F59C40F7
:102170002030C2F894008648C97A4579854830F8FD
:10218000150080B290FBF1F092F89810013101F047
:102190000F0182F898100A4482F8990018467E4A86
:1021A0009A5C01331044102B80B2F8D100B290FB3E
:1021B000F3F000B26428A8BF642020EAE07012F0B7
:1021C00053F9764912F058FA754912F0A1F912F054
:1021D0008BFB744B1880D8F80030734E13F4807F5B
:1021E00000F0FD80714B9C42714C03D9A3780BB970
:1021F0000123A370A378002B00F0F1806C4B37789B
:1022000093F821506B4B691E4D424D411A68002DC9
:10221000C7F38007C2F380699A460CBF4FF0030BE7
:102220004FF0000B94F82030052B00F2D280DFE84D
:1022300003F0034D5274819A002F3AD05E4B186818
:102240005E4B19880AF0CAFC012809D15C4B642155
:102250001A684E4BD3F8AC30DB8801FB03232361B3
:10226000B9F1000F0DD0494BD3F8AC301B7943B115
:1022700005F0EAFD032384F820304FF47A73E3611C
:10228000D0E7002D40F0A5804D4B22691968484BDE
:1022900091420AD9009305F0D7FD009B032283F8F1
:1022A000202040F6B832DA61BCE7012283F8202012
:1022B000B8E74FF48060B9F1000F02D008F054F98C
:1022C00001E008F061F90023236182E0002D42D192
:1022D00005F0BAFDA6E725B1052384F820300121D9
:1022E00000E029466FB1344B4FF0020B1B68DA89CE
:1022F000344B1A805A809A80244AD2F8AC205288F3
:10230000DA802F4B1A6863699A4201D8002F5DD199
:1023100047F23053E36103231EE0337843F00203B6
:1023200033700FF057FC264B1A68E3691344A3611E
:10233000042311E0224B1A688DB1A3699A4248D94F
:10234000214B1B781BB9DAF80030DA0741D4337817
:1023500023F002033370052384F8203062E7E36939
:102360001344A36135E0164B64211A68074B4FF400
:102370008060D3F8AC30DB8801FB032323610023AA
:1023800084F82030E37008F0FFF84BE7301A0020A3
:10239000101C0020201C0020C91A00200000C84288
:1023A00000C07F44901D002003340020404B4C00AF
:1023B000840E00203C020020A4160020A816002055
:1023C000C83300204E0200200500002000297FF4C1
:1023D00029AFBBF1000F02D0584608F08BF8984F98
:1023E00007F5C470B7F84E110AF0F8FB814678B9CA
:1023F00006F04AFE934B0022C3F8B090C3F8B490A5
:10240000C3F8B890C3F8BC20C3F8C020C3F8C420F8
:1024100033785B0741D5D8F80030DD063DD58A4BCF
:102420001B78DC0639D4894B864C1D788DB197F822
:10243000E031B9F1000F16D173B1854B1A68D4F8A9
:10244000C8309B1A002B07DA0FF0C4FB84F8CC903D
:1024500023E0B9F1000F19D1102008F04BF8012347
:1024600084F8CC3019E03BB1794A4FF47A711268A4
:1024700001FB0323C4F8C83094F8CC306BB108F0EA
:102480001DF8704B002283F8CC2006E094F8CC3085
:102490001BB108F013F884F8CC50002297F8DEA1A5
:1024A00097F8DF11B7F89851B7F89AE11346694CDD
:1024B0009B08105F0232A842C4BF63F07F03DBB207
:1024C0007045B8BF43F04003082AF0D15D4C94F842
:1024D000CD209A4205D194F8CE20F92A04D80132B1
:1024E00000E0002284F8CE2084F8CD30574B5A4DBE
:1024F0001A789B46DAB92B68D80708D5B9F1000FCE
:1025000015D13378D90712D50FF0E4FB0FE03378FB
:102510005A070CD5514B1B784BB1514BDB7833B973
:1025200011B10FF057FB02E0B9F1000FF9D094F8A8
:10253000CE20444B142ADFF83C9140F0AD809BF84C
:1025400000201AF1000A18BF4FF0010A6AB393F88D
:10255000CD205F2A11D1327802F0040202F0FF018F
:1025600012B10FF037FB08E00B200191009307F048
:10257000C1FF0199009B83F8CE10BAF1000F14D06F
:1025800094F8CD307D2B10D1337803F0040303F0A1
:10259000FF0213B10FF01EFB07E00B20019207F0C2
:1025A000A9FF284B019A83F8CE20337803F0040367
:1025B00003F0FF00002B6FD194F8CD30214A572B48
:1025C00016D1284B4FF47A721A80D8F800301B06C7
:1025D00001D507F073F9244B1B68580702D5234A2D
:1025E0000A21118013F0080356D1214A138053E0C9
:1025F000D8F80010490717D55A2B15D192F8CF30CB
:102600002BB1012382F8CF0082F8D03044E092F859
:10261000D13083F0010382F8D1300BB10C2000E0FF
:102620000D2007F067FF37E05D2B00F03A855B2B4C
:1026300000F039855E2B1FD1032000F035BD00BFAF
:1026400098020020301A002092020020050000208D
:10265000C83300204E0200203C020020C8000020A9
:10266000840E0020FA33002038020020F8330020C6
:10267000760D0020380C0020562B01D109F098F877
:102680009BF80030002B00F0248594F8CD306F2BA0
:1026900040F019850FF01EFBD8F80030580736D5EA
:1026A00094F8D130B34A93B1337859070FD5B24B70
:1026B000B3F90610B7F89831994208DD2B6813F08A
:1026C000010304D13221A2F8D21082F8D1302B6854
:1026D00013F4803FA74B0CD094F8D4202AB993F878
:1026E000CF2012B93222A3F8D220012384F8D430AB
:1026F0000DE094F8CF2052B1327802F0040202F0DB
:10270000FF0122B9012283F8CF1083F8D020D9F835
:1027100000A000230AF1790B2B600AF17B04994693
:102720000BF1020303EB090113F809204B7814F8AD
:10273000010C9A420AD221460AF097FC30B114F8F3
:10274000023C01229A402B6813432B6009F10409D3
:10275000B9F1500F04F10404E2D1884B1D784DB15A
:10276000874DDFF838922B68864C13F0020F40F04B
:1027700033832AE30AF1C9090AF1CA0409F1010302
:1027800059195A5D4B7814F8010C9A4229D2214606
:102790000AF06BFC28B394F802E020797A4B0EF132
:1027A000FF3E4FF00C0C0EEB4E0E0CFB00FC9E445B
:1027B000704B94F803B003F1D80A0AEB0C0251688D
:1027C00071450ED000210AF80CB0C2F804E0916007
:1027D000012202FA00F093F8082122EA000083F8AF
:1027E00008010635482D04F10604C7D1674BDFF810
:1027F000B0B11D68664B4FF0000A1B680293654B31
:102800001B780393DBF80030002B00F0D58293F89F
:102810000090B9F1000F00F0CF82DBF8042002989D
:10282000821A002A0DDB012101FA0AF100F5FA7281
:10283000CBF804204F4A92F8080120EA010182F8FF
:102840000811039A002A00F0B7821BF8041C58787C
:102850000431C9B2474A002840F06D82464830F939
:102860001110B7F8960100F1C804A14201DD9C786F
:1028700014E0C838814202DA9C7864420EE00123F9
:1028800003FA0AF392F8081121EA030382F80831E7
:10289000029A02F5FA73CBF804308DE292F808310F
:1028A00043FA0AF3DB0700F18782002CCCBF022039
:1028B000012007F041FE09F1FF33132B00F2738270
:1028C000DFE813F0140021002E003E0070007700B6
:1028D000DB003F01A301D801080271023E004D0058
:1028E0007700DB003F01AD00110175012B78284610
:1028F0001C44FA2CA8BFFA2424EAE4742C7006F0D5
:1029000019F901201AE06B7828461C44642CA8BFF2
:10291000642424EAE4746C7006F00CF902200DE0E3
:10292000EB7828461C44642CA8BF64241A4B24EA84
:10293000E474EC70196806F0B9F803202146C6E18A
:1029400069790D2021446429A8BF642121EAE1713D
:1029500069710EF05DFAB9F10D0F00F0248229794A
:102960000E2021446429A8BF642121EAE171297164
:10297000ADE100BF301A00204E02002002340020DA
:102980003C02002040020020B0BA0108980D00204F
:10299000C8330020C8000020441D00203802002059
:1029A0000C1B0020A9790520214481F30801A9719D
:1029B0008DE1A74B1B681A78022A21D1204600938B
:1029C00011F052FDA34911F057FE009B596A11F016
:1029D00097FC0021019011F039FF019A009B40B94A
:1029E00010469C4911F050FF019A009B10B1994A82
:1029F00000E000225A620F2011460EF01DFA0AE094
:102A000099780F202144C829A8BFC82121EAE17183
:102A100099700EF0FDF9B9F10F0F00F0C4818C4BE5
:102A2000D3F8009099F80030022B1AD1204611F00B
:102A30001BFD884911F020FED9F8201011F060FC30
:102A40000021044611F002FF30B92046814911F0FF
:102A50001BFF10B17F4C00E00024C9F82040122079
:102A600059E199F8011012202144C829A8BFC821B2
:102A700021EAE17189F8011029E1754B1B681A7888
:102A8000022A21D12046009311F0EEFC714911F089
:102A9000F3FD009B196B11F033FC0021019011F044
:102AA000D5FE019A009B40B910466A4911F0ECFE30
:102AB000019A009B10B1674A00E000221A631020BF
:102AC00011460EF0B9F90AE0197B10202144C829FB
:102AD000A8BFC82121EAE17119730EF099F9B9F183
:102AE000100F00F060815A4BD3F8009099F8003035
:102AF000022B1AD1204611F0B7FC564911F0BCFD4B
:102B0000D9F82C1011F0FCFB0021044611F09EFEB8
:102B100030B920464F4911F0B7FE10B14D4C00E0DE
:102B20000024C9F82C401320F5E099F80B1013206D
:102B30002144C829A8BFC82121EAE17189F80B10F6
:102B4000C5E0434B1B681A78022A21D12046009326
:102B500011F08AFC404911F08FFD009BD96B11F0F8
:102B6000CFFB0021019011F071FE019A009B40B94A
:102B70001046384911F088FE019A009B10B1354A81
:102B800000E00022DA63112011460EF055F90AE048
:102B9000997D11202144C829A8BFC82121EAE171EB
:102BA00099750EF035F9B9F1110F00F0FC80284B42
:102BB000D3F8009099F80030022B1AD1204611F07A
:102BC00053FC254911F058FDD9F8381011F098FB45
:102BD0000021044611F03AFE30B920461D4911F09B
:102BE00053FE10B11B4C00E00024C9F838401420FB
:102BF00091E099F8151014202144C829A8BFC821D4
:102C000021EAE17189F8151061E0114BD3F80090C9
:102C100099F80030022B21D1204611F025FC0D49F6
:102C200011F02AFDD9F8281011F06AFB00210446A2
:102C300011F00CFE30B92046064911F025FE10B106
:102C4000044C00E00024C9F82840092063E000BFDC
:102C5000481D00200000C84200007A4499F8031083
:102C600009202144C829A8BFC82121EAE17189F8B7
:102C700003102CE0AE4BD3F8009099F80030022BF3
:102C80001AD1204611F0F0FBAA4911F0F5FCD9F851
:102C9000341011F035FB0021044611F0D7FD30B996
:102CA0002046A44911F0F0FD10B1A24C00E0002430
:102CB000C9F834400A202EE099F80D100A2021446A
:102CC000C829A8BFC82121EAE17189F80D100EF0CA
:102CD0009FF868E0964BD3F8009099F80030022BEB
:102CE0001DD1204611F0C0FB934911F0C5FCD9F865
:102CF000401011F005FB0021044611F0A7FD30B98A
:102D000020468C4911F0C0FD10B18A4C00E000242F
:102D1000C9F840400B2021460EF08EF843E099F8A8
:102D200017100B202144C829A8BFC82121EAE1714E
:102D300089F81710CBE7012835D198787F4B33F904
:102D40001110B1F5617F05DB40F633039942B8BF3E
:102D50000B4601E04FF46173B9F10C0F23D14FF42E
:102D60009664A3F5617394FBF0F493FBF4F492F88A
:102D70000931E4B2A34216D0032C94BF23460223A8
:102D800082F809310E2202FB03736D4A03F2BA7313
:102D9000136005F0E9FE484621460EF039F8601C44
:102DA000C0B207F0C9FB012202FA0AF2654B93F8A0
:102DB00008110A4383F808210AF1010ABAF1040F45
:102DC0000BF10C0B7FF41EADCAE4D8F80030D80527
:102DD00010D55D4BDB786BB1D9F80030990709D578
:102DE000238813F0010A0AD106F04EF9012007F0FA
:102DF000BBFB04E0012007F0C7FB012300E0002338
:102E00002A6852070CD55BB1012007F0BDFB23886F
:102E10009B0708D406F038F9022007F0A5FB02E072
:102E2000022007F0B1FB2388484A13F0030F4FF04C
:102E3000100114BF51611161D9F8002012F00A0F7E
:102E400023D02A68D00609D559070AD4042007F0F0
:102E50008BFB3F4B1A883F4B1A8002E0042007F09F
:102E600093FB2B689A0606D523885B0606D4402080
:102E700007F07AFB02E0402007F086FB2B6858063B
:102E800003D5334B1A88344B1A80D9F80030990691
:102E900008D42B681A0540F1D7804FF4807007F0F2
:102EA00063FBD5E02D4B1B789B0740F193802C4BA7
:102EB0001B78042B40F28E802B6813F4007A0ED01E
:102EC0002388DC0679D4102007F04EFB202007F081
:102ED0005BFB2448011D07F0E7FF022268E0B4F81D
:102EE000009009F010091FFA89F343B1102007F090
:102EF0004BFB1D4B4FF0010983F800A000E0994601
:102F00002B6858054DD5194B1B685A89184BB3F9D6
:102F100000100029B8BF494291422BDAB3F90230C0
:102F2000002BB8BF5B429342ACBF0023012322E0D9
:102F3000481D00200000C84200007A444E020020D4
:102F4000980D0020301A0020840E0020000C014053
:102F5000760D0020780D0020F81B00209202002042
:102F60001C0C0020501D0020601D00208C0D002036
:102F70006E0D00200023A3B1238899061FD42020C2
:102F800007F0F2FA7D4B7E481A685B68011D4360CA
:102F9000026007F089FF7B4B4FF0010983F8009036
:102FA0000DE023889A060AD5202007F0EDFA0022CA
:102FB000744B4FF001091A7001E04FF00009724C98
:102FC00094F80A31B3B90E2007F094FA012384F87B
:102FD0000A310FE0238803F03003002B3FF459AF90
:102FE000102007F0D1FA202007F0CEFA654B00221E
:102FF0001A7003E0B9F1000F3FF44BAF00231A46FB
:103000006249002050526249624C5052624904EBBE
:10301000030E5052002119510232CEF80400CEF8AE
:10302000081004F1280E503443F80E1019519E4434
:103030001C44042ACEF80400CEF808106060A16099
:1030400003F11403DCD124E74FF4807007F09CFAFD
:103050007B79082B01D00E2B02D1402007F094FA87
:10306000D8F800305B0540F1868097F820321BB914
:10307000337813F0040F02E02B6813F4002F0BD009
:10308000414B002283F884213C200CF0CBFF002828
:1030900071D007F089FAF7E70EF0D6FF0EF046FD83
:1030A00069E0012000E002205FFA80FA0AF1FF33B4
:1030B00087F8B8370BF054FC08F0C0F9504607F019
:1030C0003BFAFFF7E9BABAF1000F02D07E2B3FF4CA
:1030D000E1AA94F8CD30972B05D1304B4FF4C8724C
:1030E0001A80FFF7D9BAA72B06D12D4B1A7842F0D8
:1030F00004021A70FFF7D0BA0022BB2B079201D14D
:10310000022303E0B72B04D14FF6FE73ADF81E3057
:1031100009E0BE2B01D1022303E0BD2B1AD14FF6EB
:10312000FE73ADF81C30D9F80030BDF81C10B3F8B0
:1031300058200A44A3F85820BDF81E10B3F85A20AE
:103140000A44A3F85A2008F033FB002384F8CE3059
:10315000FFF7A2BA792B04D1124BDA7822F00102E0
:1031600006E07A2B7FF498AA0E4BDA7842F001023F
:10317000DA70FFF791BA09B0BDE8F08F401E002069
:10318000581D0020601D0020301A0020FC33002054
:10319000900D00203C1B0020940D0020641C00209A
:1031A0009202002054160020834B2DE9F04FB3F912
:1031B0000610824B89B018684389994211DBB1F53A
:1031C000FA6F90F807E009DACA1A02FB0EFEA3F5BF
:1031D000FA639EFBF3FE0EF1640E04E0CEF1640E82
:1031E00001E04FF0640E8389994219DBB1F5FA6F63
:1031F000047A10DA632CC3EB010205D9643CA4B253
:103200005443C3F5FA6302E05443A3F5FA6394FB15
:10321000F3F4643405E0632C03D8C4F1640400E0E3
:103220006424674BB3F8962193F95E310492654AA2
:103230009BB2D2F800C00593674600225E4B049D06
:1032400033F912304FEA420803935B1B03F2F31683
:1032500040F2E635AE4203D8002BB8BF5B4201E036
:103260004FF4FA73022A4FF06406574D2ED09CF8A3
:103270001191B9F1000F04D04B45CCBFC9EB03034A
:10328000002393FBF6F96FF0630B35F819A00BFBE5
:10329000093B09F1010935F919900FFA8AF5C5EBD7
:1032A000090505FB0BF595FBF6F5AA44474D28F8F3
:1032B00005A085182D796B43454D93FBF5F36433D9
:1032C0009BB20EFB03F393FBF6F62FE09CF81291F2
:1032D000B9F1000F04D04B45CCBFC9EB0303002369
:1032E00093FBF6F66FF0630A05EB46090AFB063B13
:1032F00005EB4606B9F90E90B6F91050059EC9EBDC
:10330000050505FB0BFB9BFBFAFBC9EB0B0909FB56
:1033100006F92E4EA6F80490857983EAE376A6EBAB
:10332000E3766E432A4D96FBF5F664360CEB020508
:1033300095F801A0244B06FB0AFA642503F11C0949
:103340009AFBF5FA09F802A097F80BA003F11F0900
:1033500006FB0AFA9AFBF5FA09F802A097F815A0FD
:10336000022A06FB0AF603F1220996FBF5F61D4632
:1033700016BF253383F8274003F802E009F80260FE
:10338000039B049EB342114E04DA36F808305B42C8
:1033900026F808300132032A07F101077FF44EAF07
:1033A000074CB4F89831994214DBB1F5FA6FA8BF15
:1033B0004FF4FA610FE000BF4E020020980D00208C
:1033C00098020020380C0020B81B00206E0D002051
:1033D0000CFEFFFF1946C91A4FF47A725143C3F528
:1033E000FA63B1FBF3F34FF0640E93FBFEF205EBCF
:1033F0004201088D6FF0630101FB023305EB4202CD
:10340000B2F92A1002B28A1A534393FBFEFEB54B5F
:1034100070441B88B44F5906F0803ED5B34B1888D2
:10342000B34BB3F84030C01A00B211F01DF8B149E7
:1034300011F06EF8804606F0CDF88146404606F061
:1034400057F88046B7F9020011F00EF88246B7F936
:10345000000011F009F84946834611F059F8414639
:1034600003465046019311F053F8019B014618465C
:1034700010F044FF11F012FA49463880504611F01E
:1034800047F841468146584611F042F80146484601
:1034900010F036FF11F002FA7880974B1A689A46BE
:1034A00012F0020F74D0954B6A6C1B6845F207212D
:1034B0009A1A8A428E4F6BDD7B6404F081FC904B3C
:1034C000DFF86C821A789946032AB8F8003022D1C6
:1034D0000A2B2CD90023282089F8003005F09DFB09
:1034E00004F06EFCB7F8480006F0AEFF854B864945
:1034F0001B68DA7890FBF2F0421C082A28BF0822E9
:103500000A7059791B7992B251435A43A7F84A106D
:10351000A7F84C200BE00A2B09D803237A4A89F834
:10352000003000231370A7F84A30A7F84C3099F800
:103530000020734B012A0DD002D3022A1ED027E0AF
:10354000B5F84A20B8F800309A4221DD012389F805
:10355000003011E0B8F80020B5F84C10914202DDBF
:1035600002221A7011E06249B1F84A1001318A4210
:1035700002DD00221A700BE0082007E0B5F84C309D
:10358000B8F8002001339A42E0DC072006F0B2FFD1
:10359000DAF800703A057BD5584B296D1A68544B00
:1035A000C1EB020B45F207218B4571DD5548B6F999
:1035B0000690D0F800801A6598F80A004FF47A72E5
:1035C00001289BFBF2FBB4F84E11A9F57A794F4E16
:1035D00003D046D3022823D045E093F86510586DF8
:1035E00003EB4101B1F868E0082190FBF1FC1FFA00
:1035F0008EFECCEB0000704490FBF1F1586589B26F
:1036000040F6E4404143A3F870E0B8F80830C3EB5B
:1036100011314A43B8F9063092FBF3F2326022E0EE
:103620003B4BB8F808A01B78C6F800A05B071AD57A
:10363000384809F0D3FA20B917F0100F18BF4FF02F
:10364000000909FB09F2322392FBF3F39944B8F91C
:1036500006304FF47A7203FB09F393FBF2F3534401
:1036600000E0002333603368D5E91E0103FB0BFB48
:103670004FF47A739BFBF3FB10EB0B0041EBEB7108
:103680000023C5E91E01244A11F04EF9234B1860AE
:10369000234B1A68984612F4805F4ED03F0649D5F6
:1036A000204B1B789E0745D51F4B1978042941D91B
:1036B00000231E4E05229A55981C1E440A27122BE1
:1036C000C2B2777004D0B1EB520F0346F1D800E0DC
:1036D00014222A44322382F87F30FF2382F880307C
:1036E0000F2028E0400200206E0D0020760D002003
:1036F000B81B002035FA8E3CD4000020DC330020BB
:10370000841E0020241E002054000020301E0020B3
:103710000334002020040020407E0500341E0020D9
:103720003C020020920200201C0C0020381C0020CB
:10373000281E00200A2006F0DDFED5F89820AE4EA7
:10374000002A4ED0AD4BD6F89C101868994681429D
:1037500047D896F8A010B6F8A2305268C9B9012728
:1037600086F8A070D35C03B3384605F089FA86F872
:10377000A47006F07FFEB6F8A230B3B9D6F8983040
:103780001B78053BBB4210D805F021FAC6F8A8000B
:103790000BE0002786F8A070D35C33B1384605F003
:1037A0006FFA86F8A47006F065FED5F89820B5F893
:1037B000A2105268904B525CFE2A03D10022A3F85B
:1037C000A2200EE0FF2A02D106F078FE09E0D9F827
:1037D00000000A2606FB02020131C3F89C20A3F870
:1037E000A210874E3278500703D5864B08225A61C3
:1037F0003FE0D8F80030D9075CBF42F001023270D8
:10380000814A1278120703D4327822F00102327012
:10381000DB0203D5337823F0010333707B4B1B6845
:103820005F0702D57A4A128862B9B5F8AC200AB1AE
:10383000980705D4774B1B88003318BF012300E09D
:1038400001233BB1022385F8A430337823F0010330
:10385000337005E03278D10758BF022385F8A430D1
:1038600005F0B5F9D5F8B030C01A002801DB06F034
:1038700001FE0EF0E9FB684B1A78002A78D0D5F8E3
:10388000B430002B00F00E87D5F8B4005A4C05F088
:103890001EFA002800F00687D4F8B40005F012FAEA
:1038A000092801D03F2855D14FF00008D5F8B8605D
:1038B0005A4F44462EB15A483968324614F0AEF891
:1038C00010B9B84604B93C46564B10379F42F1D365
:1038D00004B3D4F800E0D8F800C0D5F8B8304648B2
:1038E0001EF803701CF80310B94213D15A1C59B9C1
:1038F0002D2B09D8C0F8B82003442027024483F8B0
:10390000BC7082F8BC1005E02B4483F8BC70C5F88D
:10391000B820E2E7D5F8B8300BB1444510D04248A2
:1039200005F0F4F9444507D854F8100B05F0EEF90A
:10393000092005F0E4F9F5E73C4805F0E7F9002631
:10394000D5F8B8309E429FD2354B985D05F0D7F937
:103950000136F5E7D4F8B830002B40F0C9860428CA
:1039600040F0378704F1BC0009F072F900F09ABE0C
:103970002F4F97F84A30012B40F08F86DFF8B88040
:103980002C4B3A68C8F800701A60C2469B46DBF8B8
:103990000000DFF8A09005F09AF9002800F06B868F
:1039A000D9F8000005F08EF9DAF80030024693F8F5
:1039B000481019B9242860D101225BE0012904D103
:1039C0004D280CBF0222002254E0022904D13C28D9
:1039D0000CBF032200224DE003292FD140284FF0D5
:1039E000000102D983F8481071E058711971D9713A
:1039F000987104223EE000BFB81B0020C8330020AD
:103A000003340020000C0140920200203802002004
:103A1000F8330020FA33002002340020ECBA010809
:103A2000741C0020CCBC010874D3010879D30108B0
:103A3000A41C0020E01E0020DC1E0020042907D169
:103A4000997983F8490080EA01029A71052211E010
:103A500005293CD1587919798842987906D950407E
:103A60009871481C18710B441A7230E090420CBFD8
:103A70000622002283F8482029E03178D44B4907F8
:103A800025D4232AD9F8001016D1D2484FF0010EC0
:103A900080F800E0D048C5F8B410C5F8841102924F
:103AA000019305F033F9CD4805F030F9019B197801
:103AB00041F002011970029AD5F888311B789342BF
:103AC00005D1C74AC74B1A60C74AC84BDA60DAF853
:103AD0000030DFF8409393F84820062A7FF457AF70
:103AE00093F8490000F0C0FE8246002840F0BC85F3
:103AF000D9F8002092F849304C2B00F076845DD83C
:103B0000332B00F0AD8421D8292B00F03A8409D85A
:103B1000252B00F01184272B00F01584232B40F077
:103B2000E485C4E02D2B00F03D8407D82B2B40F01A
:103B3000DC8504F023FF607100F093BD2F2B00F0B3
:103B4000FC84312B00F00E8500F0CFBD3E2B00F041
:103B5000D9801DD8372B00F0B78404D8352B00F05E
:103B60001D8200F0C2BD392B00F0FA833C2B40F0DF
:103B7000BC85DFF89092D9F800A004F0FFFE8AF827
:103B80000000D9F80030187805F048FA00F069BD57
:103B9000432B00F0768407D8412B08BF4FF0000973
:103BA00000F0638400F0A1BD442B00F01F85482B7A
:103BB00040F09B850BF0EAFC00F053BDD12B00F0E8
:103BC0007E8320D8CC2B00F013820FD8C82B64D072
:103BD00004D84E2B00F0168400F087BDC92B00F0EE
:103BE0004683CA2B00F0988000F07FBDCE2B00F0FA
:103BF0003083C0F02583CF2B00F04A82D02B00F019
:103C0000078300F072BDD82B00F03B810DD8D32B79
:103C10003DD029D3D42B00F08082D62B08BF4FF0A3
:103C2000000900F06F8200F060BDF22B00F0C58249
:103C300012D8EF2B40F05985DFF8C891D9F800A0D1
:103C400006F01DFDAAF85A00D9F8009006F017FDFD
:103C5000A9F8580000F005BDF32B00F0CB84FA2B37
:103C600000F0018300F041BD337803F0040303F05A
:103C7000FF09002B40F0F58404F080FE022884F850
:103C8000B80740F2CB825A4B83F8B897C6E206F0E9
:103C9000F6FC584B188000F0E4BC92F805A04FEAFF
:103CA0005A0ABAF1120F1CD84FF000091DE004F0B7
:103CB00065FE132815D8DFF84CA100F11E0BDAF8C9
:103CC000003003EB8B0B04F059FE4B4B0BF1010959
:103CD00003F5A872197A814200F041810C339342B6
:103CE000F8D10CF09BF900F0BCBCD14507D206F02E
:103CF000C6FC424B23F8190009F10109F5E701223E
:103D00003F4BAEE204F03AFE84F8E00104F036FEE8
:103D100084F8DF0100F0A5BC3A4B4FF000091A68A7
:103D20009A461278022A40F09180DAF8003009F1C0
:103D3000080B019304F022FE10F092FB324910F0C0
:103D40009BFC019B43F82B00DAF800B004F016FE50
:103D500009F10A030BEB830B10F082FB2B4910F0E7
:103D60008BFCDAF80030CBF80400019304F006FE77
:103D700010F076FB264910F07FFC09F10E0B019B39
:103D800009F10109B9F1030F43F82B00CDD1B9F1C5
:103D9000070FDAF800B03FD104F0F0FD10F060FB3F
:103DA000194910F069FCCBF84400DAF800B004F0CF
:103DB000E5FD10F055FB144910F05EFCCBF848000F
:103DC000DAF800B004F0DAFD8BF84C0037E000BF01
:103DD0000334002002340020A9D3010879D301085C
:103DE000EFBEADDEF04F00200400FA0500ED00E06C
:103DF00098020020780D0020CCBC01084E02002063
:103E000011020020380C0020000020410000C842B0
:103E100000007A44DC1E002004F0B0FD0BEB090327
:103E20005870DAF800B004F0A9FD0BEB0903D87262
:103E3000DAF800B004F0A2FD0BEB0903587509F1A4
:103E40000109B9F10A0FA2D100F00BBCDAF800B0F9
:103E500004F094FD0BEB09035870DAF800B004F09D
:103E60008DFD0BEB0903D872DAF800B004F086FD83
:103E70000BEB090309F10109B9F10A0F5875E5D1F6
:103E8000EFE38146DFF8ACA309F1080BDAF8003064
:103E9000019306F0F4FB10F0E3FAE34910F0ECFBB9
:103EA000019B43F82B00DAF800B006F0E8FB09F1BB
:103EB0000A030BEB830B10F0D3FADB4910F0DCFBA9
:103EC000DAF80030CBF80400019306F0D8FB10F0CC
:103ED000C7FAD54910F0D0FB09F10E0B019B09F18F
:103EE0000109B9F1030F43F82B00CBD1B9F1070F4A
:103EF000DAF800B01AD106F0C2FB10F0B1FACA49E4
:103F000010F0BAFBCBF84400DAF800B006F0B7FBCB
:103F100010F0A6FAC44910F0AFFBCBF84800DAF86D
:103F200000B006F0ACFB8BF84C0012E006F0A7FBEB
:103F30000BEB09035870DAF800B006F0A0FB0BEBAE
:103F40000903D872DAF800B006F099FB0BEB09030D
:103F5000587509F10109B9F10A0FC7D181E31B783E
:103F60008BF8013004F00AFD89F8010004F006FD29
:103F700089F8020004F002FD89F80300DAF8000075
:103F8000AA4BC5F8900100217930C5F88C3104F0B6
:103F90000DFEA74B80F00100187062E304F0EEFC08
:103FA0000B283FF69EAE4FF0060A0AFB00F0A14B2D
:103FB000C8301B6803EB000A04F0E0FC03283FF65E
:103FC00090AE8AF8060004F0D9FC8AF8010004F0EB
:103FD000D5FC8AF8020004F0D1FC8AF8030004F052
:103FE000CDFC8AF8040004F0C9FC8AF8050038E327
:103FF0005379092B7FF675AEDFF840A2DAF800B0EE
:1040000004F0BCFC8BF80000DAF800B004F0B6FC59
:104010008BF8010004F0B2FCDAF800306428A8BF85
:104020006420187104F0AAFCDAF800306428A8BFF4
:104030006420587104F0A2FCDAF80030FF28A8BF11
:10404000FF20987104F09AFCDAF800B0642828BFC9
:1040500064208BF8070004F091FC8BF80200DAF87A
:1040600000B004F08BFC8BF80300DAF800B006F027
:1040700006FBD9F80030ABF80A005B790A2B40F256
:10408000F082DAF8009004F079FC89F80900E8E29F
:1040900006F0F5FA6FF4AF6E00EB0E039BB2C62B81
:1040A00098BFA4F8960106F0EAFAA4F8400106F0D9
:1040B000E6FAA4F8420106F0E2FAA4F8440106F098
:1040C000DEFAA4F8D80104F059FC84F8F10104F0F8
:1040D00055FC04F053FC84F8F20104F04FFC84F822
:1040E000850104F04BFC84F8920104F047FC514B2D
:1040F000D3F8009006F0C3FA00EB80004000A9F866
:1041000056002DE106F0BBFA4B4B23F8090009F1EC
:104110000209B9F1100FF5D1A3E253790F2B7FF407
:10412000E0AD04F02BFC072881463FF6DAADDFF85E
:1041300004A1DAF800B006F0A2FA0E2303FB09F995
:104140000BEB0903A3F81901DAF800B006F097FAAF
:104150000BEB0903A3F81B01DAF800B006F08FFAA5
:104160000BEB0903A3F81D01DAF800B004F006FC1C
:104170000BEB090383F81F01DAF800B004F0FEFB33
:104180000BEB090383F82001DAF800B004F0F6FB2A
:104190000BEB090383F82101DAF800B004F0EEFB21
:1041A0000BEB090383F82201DAF800A006F071FA9C
:1041B0000AEB0903C3F8230153E204F0DFFB0F28E5
:1041C00081463FF68EAD04F0D9FBC9EBC90904EB7B
:1041D000090383F8D00003F1D00904F0CFFB89F87C
:1041E000010004F0CBFB89F8020004F0C7FB89F85A
:1041F000030004F0C3FB89F8040004F0BFFB89F856
:10420000050004F0BBFB89F8060004F05CFE28E220
:104210003378580700F125820FF00AF80AF0A0FB66
:1042200007F00CF91DE200BF00007A44D80300201B
:1042300005000020380C0020B60E0020980D00204C
:104240003378590700F10D824FF4C873A5F8AC30EC
:1042500007E233785A0700F10482DC4B1A7842F007
:1042600004021A70FDE133785B07D7D53DE204F014
:1042700085FBD64B1A7810B142F0020201E022F021
:1042800002021A7004F07AFBD14BDFF858931870D1
:1042900006F0FFF9C9F8000006F0FBF9C9F80400C0
:1042A00006F0EDF9CB4B188006F0E9F9CA4B1880FF
:1042B00095F8943143F0020385F89431D1E104F08C
:1042C0005DFB019006F0E5F9834606F0E2F98246CF
:1042D00006F0DFF9814606F0D2F906F0D0F904F0D5
:1042E0004DFB019B9BB91020C5F898B1C5F89CA166
:1042F00006F04AF9B54B1A7842F001021A70B9F18A
:10430000000F00F0AE81B54BC3F80090A9E1102B6F
:1043100040F0A781C5F8A0B1C5F8A4A1B9F1000F7C
:1043200002D0AE4BC3F80090AD480223011D85F8C2
:10433000A83106F0B9FD94E1A06006F0AAF9A368DF
:104340001843A0608DE106F09AF9A4F8580106F030
:1043500096F9A4F85A0106F092F9A4F85C0180E1FC
:1043600004F00CFB84F87A0104F008FB84F87E0169
:1043700004F004FB84F87D0104F000FB84F87F0165
:104380006FE106F07CF9A4F8800106F078F9A4F852
:10439000820104F0F3FA84F8840106F070F9A4F8BD
:1043A00086015EE104F0EAFA84F8900106F067F90C
:1043B000A4F89A0106F063F9A4F8960106F05FF9F3
:1043C000A4F8980104F0DAFAD9F8003084F89101E1
:1043D0005B79082B40F2458106F051F9A4F89C0165
:1043E00006F04DF9A4F89E013BE104F0C7FA84F809
:1043F000D60104F0C3FA84F8D70106F040F9A4F816
:10440000D8012EE192F805B00323BBFBF3FBBBF10F
:10441000120F3FF666ACDFF8D0914FF0000ADA4594
:1044200080F01F8104F0AAFA89F8A00106F027F9AC
:1044300040F2ED23984205DD40F6CA039842A8BF3A
:10444000184601E040F2EE20A0F2EE20192390FB86
:10445000F3F089F8A1010AF1010A09F10209DEE786
:1044600004F08CFA84F89201FBE004F087FA04EB84
:10447000090309F10109B9F1080F83F88801F4D1A2
:10448000EFE004F07BFAC4F808A0607106F001F9CF
:10449000A3681843A06004F071FA84F8900106F054
:1044A000EEF8A4F8580106F0EAF8A4F85A0106F06C
:1044B000E6F8A4F85C0106F0E2F8A4F8800106F042
:1044C000DEF8A4F88201CCE053794FF0070AB3FB81
:1044D000FAF2C2EBC2029A1A12F0FF0F7FF401AC9B
:1044E000B3FBFAFABAF1000F00F0BB8004F046FA11
:1044F0005FFA80FB4FFA8BF004F098FA0AF1FF3A6A
:104500005FFA8AFA814600283FF4EBAB80F800B0EE
:1045100006F0B5F8A9F8020004F030FA89F80400B2
:1045200004F02CFA89F8050004F028FA89F807004D
:1045300004F024FA89F80600D4E7DFF8AC9009F11A
:10454000400A06F09CF8A9F8B00204F017FA89F8BE
:10455000B20204F013FA09F1040989F8AF02D14557
:10456000EFD17EE004F00AFA1F283FF6BAABD8F884
:1045700000305B79082B7FF4B4AB00F18C0A06F0B5
:104580007EF804EB8A0900F03F00A9F8020006F06B
:1045900076F8B9F80220800100F4FE531343A9F81D
:1045A000023004F0EBF9000104F82A0004F0E6F907
:1045B00014F82A3000F00F00184304F82A0004F021
:1045C000DDF989F801000DF0E3F84AE092020020DD
:1045D0001C0C00203A1E0020381E0020440200203F
:1045E000581D0020401E002098020020012385F85D
:1045F000A93136E004F0C2F9FF2881461CD100231E
:104600008DF81F309DF81F30052B2AD89DF81F20EC
:10461000804B9DF81F10012003EBC101496800FA8F
:1046200001F153F8320089B2482204F0C9F99DF82B
:104630001F300133DBB2E3E705283FF652AB002021
:1046400006F008F805F0E2FFDBF8000004F025FBB7
:1046500018B9322004F0E1FAF6E74FFA89F004F0D5
:1046600091F8002005F0F6FF05F0D0FFD8F80030F3
:10467000002283F8482095F8A93173B1386804F016
:104680000CFB18B9322004F0C8FAF7E708F032FA48
:1046900004F0CDFA604A614BDA60614A4C379742C8
:1046A0007FF467A95F4B1B68980616D55E4BD5F85B
:1046B000AC211B689A1A002A0FDB5C4A1278042A84
:1046C0000BD95B4A03F5123303F5F873C2F8AC312A
:1046D000584BDA6882F01002DA60574B9B68002B67
:1046E00000F094805548984790E00BF097FCBBE7AA
:1046F0000C2803D1524804F009FB5AE00A2801D0E3
:104700000D2858D14A4C4F4804F1BC0604F0FEFA7B
:104710003046232113F06DF910B1801BC4F8B800A6
:10472000D5F8B830002B38D0591E705C404A20288C
:1047300001D10B46F6E7C2F8B8301344002283F8E3
:10474000BC20414B414CD3F800A0D4F80090DFF8D6
:10475000E080484613F05AF908F1BC07064649467E
:104760003846324613F05AF9394B38B908EB06028D
:1047700092F8BC2052445278520703D010349C4225
:10478000E3D306E09C4204D2701CE36838449847A7
:1047900002E0304804F0BAFA00232F48002130220A
:1047A000C5F8B83013F0F2F82C480378002B3FF42A
:1047B00079AF2B4809E07F2811D1013BC4F8B8300C
:1047C00000222344274883F8BC2004F09FFAFFF717
:1047D0005BB80C288ED07F2804D1FFF755B82F2B5B
:1047E0003FF652A8A0F12002D2B25E2A3FF64CA8B2
:1047F00013B920283FF448A85A1C2B44C5F8B82008
:1048000083F8BC0004F07BFAFFF73EB809B0BDE8BE
:10481000F08F00BFF8D801080400FA0500ED00E0B1
:104820003C1D002038020020DC3300201C0C00203E
:10483000B81B0020000C0140200C0020681D002047
:104840007ED3010801DA01085C000020ECBA0108FF
:10485000CCBC010889D30108741C0020023400205C
:1048600079D30108A5D301082DE9F04F4D28ABB04D
:10487000044600F0608600F2BD80302800F0E48637
:1048800051D8222800F0BD8423D8032800F02382C9
:1048900014D8012800F01382022840F04187042038
:1048A00005F0D8FE432005F09FFE4C2005F09CFE4D
:1048B000462005F099FE4C2000F061BE042800F06F
:1048C0001382052840F02C871A2005F0C3FE00242F
:1048D0001DE2282800F0FD8515D8242800F0E48585
:1048E000262840F01D87D14C062005F0B3FEB4F811
:1048F000580105F0B2FEB4F85A0105F0AEFEB4F866
:104900005C0100F04DBE2C2800F0F6852E2800F04A
:1049100064862A2840F00487012005F09BFEC34BE3
:10492000587900F02CBE3D2800F01B831ED8362895
:1049300000F039860BD8322800F01B86342840F06E
:10494000EF86482005F086FE002500F07ABC3A2864
:1049500000F0DC823B2800F04D84382840F0E086EF
:10496000042005F077FEB14C00F0A4BD452800F00E
:10497000C48627D8402800F00586422840F0D0861B
:10498000AA4C102005F066FE607905F02DFEA068A7
:1049900005F06CFE94F8900105F026FEB4F858017D
:1049A00005F05BFEB4F85A0105F057FEB4F85C015F
:1049B00005F053FEB4F8800105F04FFEB4F8820113
:1049C00000F0EEBD472800F07586C0F062864B28E7
:1049D00040F0A686954C042005F03CFE94F8D601E4
:1049E00005F002FE94F8D70105F0FEFDB4F8D801F9
:1049F00000F0D6BD702800F0198300F2F980692814
:104A000000F0648200F2CB80662800F0BE8100F2E4
:104A1000BB80642800F09481652840F081860B20DB
:104A200005F018FE824B834C188805F016FE20888E
:104A300080B205F012FE804B1B68C3F3C000C3F3C5
:104A40008002800040EA4200C3F340021043C3F3F7
:104A5000401240EAC20003F01003184305F0FDFDC8
:104A6000764BA4781A8812F0010F0CBF00200220A8
:104A700012F0020F0CBF0021042112F0040F0CBF32
:104A80000023102303936E4B02F0080A1B6812F0F8
:104A9000400F03F0C00B03F480794BEA0A0A0CBF05
:104AA0000026202603F4805812F0100F4AEA090A63
:104AB000019003F4005C0CBF00204FF400704AEA40
:104AC000080A12F0200F029103F4804E0CBF00215F
:104AD0004FF480614AEA0C0A12F4807F0496059034
:104AE0000CBF00264FF4006603F4003003F40047C7
:104AF0004AEA0E0A0796089003F480364AEA070A43
:104B000006914AEA060A03F48021089E09914AEABE
:104B1000060A099E03F400254AEA060A03F48010F7
:104B20004AEA0505284303F000730343454812F49D
:104B3000007F06780198C6F3800643EA0603029ECA
:104B400043EA0003039843EA0603049E43EA000392
:104B5000059843EA0603069E43EA0003079843EAE2
:104B6000060343EA00030CBF00214FF4001112F4C6
:104B7000806F43EA01014FF000000CBF00234FF0AB
:104B8000806319430346EBE0672800F0268168281C
:104B900040F0C685102005F05DFD00248DE16C28F5
:104BA00000F0A78116D86A2800F002846B2840F034
:104BB000B785052005F04EFD234B188805F04DFD07
:104BC000224B188805F049FD214B187800F00100B0
:104BD00000F0D5BC6E2800F09E8100F2FD81062019
:104BE00005F038FD1B4B186805F040FD1A4B8BE1B2
:104BF000782800F0FF8033D8742800F03E830AD86C
:104C0000722800F09583732840F08A85082005F00B
:104C100021FD0124C5E3762800F0E98300F26D83CD
:104C20002F2005F017FD0D4CDCE200BF980200209C
:104C3000A00C0020701D002038020020400200203F
:104C40003C02002003340020B21E0020B41E0020CD
:104C50004C1D002048020020DC0B002037BF01085B
:104C6000A42800F0EA8313D87B2800F06182A028F2
:104C700040F056850C2005F0EDFCBF4B186805F0A0
:104C8000F5FCBE4B186805F0F1FCBD4B00F00ABC0A
:104C9000F12800F0EB80FE2800F0F683F02840F0C9
:104CA0003F85B84C042005F0D5FC2368B3F85A00C2
:104CB00005F0D3FC2368B3F8580000F071BC032062
:104CC00005F0C8FC002005F08FFC204605F08CFCA8
:104CD0000D2000F054BC05F0BDFC012005F084FC63
:104CE0000A2005F081FCA6E3062005F0B3FC412074
:104CF00005F07AFC462005F077FC4E2005F074FCA8
:104D0000412005F071FCA04B187800F049BC9F4B86
:104D1000185D013405F068FC0B2CF8D100249C4B85
:104D2000185D013405F060FC082CF8D10024994B83
:104D3000185D013405F058FC072CF8D100F0EEBCEA
:104D4000072005F087FCE72005F04EFC924B5879D0
:104D500005F04AFC002005F047FC042000F0DCBC14
:104D6000A3420CD28D4A9D5C012202FA05F50D4248
:104D700018BF9A4003F1010318BF1043F0E705F094
:104D800075FC854B93F8B807F9E3122005F062FC37
:104D9000834B00241B88B3F5806F94BF0125082541
:104DA000804BE05E023490FBF5F080B205F055FCDC
:104DB000062CF5D17C4C208805F04FFC608805F06E
:104DC0004CFCA088794C05F048FC208805F045FC97
:104DD000608805F042FCA088E2E3102005F03AFC70
:104DE0000024734B185D013405F0FEFB102CF8D144
:104DF00000F094BC702005F02DFC00260E247443B6
:104E0000604D01362B682344B3F8190105F025FCE9
:104E10002B682344B3F81B0105F01FFC2B682344C7
:104E2000B3F81D0105F019FC2B68234493F81F010A
:104E300005F0DAFB2B68234493F8200105F0D4FB3E
:104E40002B68234493F8210105F0CEFB2B68234403
:104E500093F8220105F0C8FB2B681C44D4F8230109
:104E600005F004FC082EC9D100F058BC702005F0F4
:104E7000F1FB494C04F1700594F8D00005F0B4FB47
:104E800094F8D10005F0B0FB94F8D20005F0ACFB2B
:104E900094F8D30005F0A8FB94F8D40005F0A4FB27
:104EA00094F8D50005F0A0FB073494F8CF0005F086
:104EB0009BFBAC42E0D100F031BC3E4B185D0134AD
:104EC00005F092FB102CF8D100F028BC3A4D0024DC
:104ED000A87F400000F0FE0005F0BCFBAB7F9C42C9
:104EE00080F01C84354B33F8140005F0B6FB013418
:104EF000F4E7334C062005F0ADFB208805F0ADFB50
:104F0000608805F0AAFB2F4B188849E3042005F0C0
:104F1000A1FB2D4BC6E2072005F09CFB2B4B18880C
:104F2000FF28A8BFFF20C0B205F05EFB284B186821
:104F300080F3100080B205F090FB1F4B188C05F039
:104F40008CFB154B93F88521224B2AB11B680A2054
:104F5000584380F3100002E0186800F30F0080B29D
:104F60001EE30D4C022005F075FB94F8E00105F0FE
:104F70003BFB94F8DF0102E3E8F7FF1FECF7FF1FAC
:104F8000F0F7FF1F380C0020043400201CC6010875
:104F900028C60108FDC5010898020020731D0020E5
:104FA000060000201E1E00203C0C00208C02002069
:104FB000CE0E00206C0E0020701D00204E0200203E
:104FC000B80B0020760D0020BC0B0020281E00200E
:104FD000341E0020301E0020B74C0B2005F03AFB99
:104FE00023680025187805F0FFFA236826465878CC
:104FF00005F0FAFA3368B04C2B441879013505F006
:10500000F3FA032DF6D12368D87905F0EDFA236879
:10501000987805F0E9FA2368D87805F0E5FA23686E
:10502000588905F01AFB2368587AA8E2A34D1E2080
:1050300005F010FB2B6800241B78022B65D12B6830
:1050400004F1080253F822009D490FF061FA12F0B2
:10505000FDFF80F30800C0B205F0C6FA2B6899493D
:1050600003EB8403D86A0FF053FA12F0EFFF80F3DA
:105070000800C0B205F0B8FA2B6804F10E0253F82C
:10508000220091490FF044FA12F0E0FF80F308008B
:10509000C0B2013405F0A8FA032CD0D1072C2B683C
:1050A00021D1586C86490FF033FA12F0CFFF80F30C
:1050B0000800C0B205F098FA2B688149986C0FF08F
:1050C00027FA12F0C3FF80F30800C0B205F08CFA93
:1050D0002B6893F84C000FF0C3F912F0B7FF80F380
:1050E0000800C0B20BE02344587805F07DFA2B6825
:1050F0002344D87A05F078FA2B682344587D01348C
:1051000005F072FA0A2CC9D108E32B6823445878B9
:1051100005F06AFA2B682344D87A05F065FA2B6803
:105120002344587D013405F05FFA0A2CEDD1F5E2F5
:105130003C2005F08FFA0024604D04F108022B6832
:10514000614953F822000FF0E3F912F07FFF80B2BB
:1051500005F083FA2B685C4903EB8403D86A0FF0EF
:10516000D7F912F073FF80B205F077FA2B6804F1DB
:105170000E0253F8220054490FF0CAF912F066FFEC
:10518000013480B205F069FA032CD5D1072C2B68C5
:1051900016D1586C4C490FF0BBF912F057FF80B292
:1051A00005F05BFA2B684849986C0FF0B1F912F0E2
:1051B0004DFF80B205F051FA2B6893F84C000BE0DC
:1051C0002344587805F049FA2B682344D87A05F02F
:1051D00044FA2B682344587D013405F03EFA0A2C2A
:1051E000D4D19BE214F8010F002800F0978205F05B
:1051F000FBF9F7E7012005F02DFA304B1B68187812
:10520000BDE1502005F026FA00242C4B04F11E02CB
:105210001B680C2103EB82035D1C2C4A5B78013474
:1052200001FB0323187A05F0DFF9687805F0DCF953
:10523000A87805F0D9F9E87805F0D6F9142CE4D16E
:105240006CE206266E431D4BC8361B6801351E44B2
:10525000B07905F0C9F9707805F0C6F9B07805F0B5
:10526000C3F9F07805F0C0F9307905F0BDF970792F
:1052700005F0BAF90C2DE4D150E2002701240025F5
:10528000134B9A78954230DA0333E95C00230F4AD6
:1052900003EB02089A5C8A4204D00C33B3F5A87F72
:1052A000F5D120E0D8F8040012F0B0FB81460CB92B
:1052B00026460FE0074416E0980D0020380C002029
:1052C000000020410000C84200007A44CCBC010824
:1052D000701D00204E4506DAD8F80430985D05F0C0
:1052E00083F90136F6E70135CAE7002C00F0168293
:1052F000F8B205F0AFF90024C1E7C34D0024A87847
:1053000005F0A8F9AB789C4280F00882BF4BE05CC6
:105310000023BF4A99189A5C824204D00C33B3F53B
:10532000A87FF6D102E0087A05F05EF90134E9E7DA
:10533000B84C162005F08EF9B4F8960105F08DF9F9
:10534000B4F8400105F089F9B4F8420105F085F997
:10535000B4F8440105F081F9B4F8D80105F07DF9FD
:1053600094F8F10105F040F9002005F03DF994F8BA
:10537000F20105F039F994F8850105F035F994F852
:10538000920105F031F9002005F02EF9A24B1B68BF
:10539000B3F956000A2390FBF3F080B205F05DF9F3
:1053A00088E0E0B2013405F01FF9092CF9D1B5E12C
:1053B000102005F04FF9994B994C187800F0020035
:1053C00005F012F9974B187805F00EF9206805F0F2
:1053D0004DF9606805F04AF9934B188805F03DF9DE
:1053E000924B188805F039F9874B588CD8E003F0B8
:1053F000C5FA0646122005F02DF90EB98C4B02E0D5
:10540000102E03D18B4B1D685C6801E000242546FB
:10541000304605F0E9F8284605F028F9204605F061
:1054200025F9854B186805F021F9002005F015F9DC
:10543000002005F012F90020A1E0734D002495F83A
:1054400024002E4680000130C0B205F003F995F823
:10545000240005F0C9F896F824309C4280F05E8163
:10546000764D285D05F0C0F805F11003185D05F0D4
:10547000BBF805F12003185D303505F0B5F8285D5F
:1054800005F0B2F80134E6E7082005F0E3F8002063
:1054900005F0E3F8002005F0E0F8002005F0DDF865
:1054A00000207DE0186837E1042005F0D3F8594B5F
:1054B000986831E194F87A0105F096F894F87E0145
:1054C00005F092F894F87D0105F08EF894F87F01CC
:1054D00055E0504C072005F0BDF8B4F8800105F008
:1054E000BCF8B4F8820105F0B8F894F8840105F02E
:1054F0007BF8B4F8860153E0464C0C2005F0AAF87E
:1055000094F8900105F070F8B4F89A0105F0A5F848
:10551000B4F8960105F0A1F8B4F8980105F09DF8EB
:1055200094F8910105F060F8B4F89C0105F095F845
:10553000B4F89E0134E0344E414CB07F002500EBBE
:105540004000C0B205F086F8B37F02349D4280F07F
:10555000E58014F8020C05F047F814F8010C013549
:1055600000EB800000EB800000F2EE2005F075F803
:10557000EAE7012005F06EF8264B93F8920105F05A
:1055800033F8CBE0082005F065F80024214B2344D4
:1055900093F88801013405F027F8082CF6D1BDE016
:1055A00005F05BF8BAE0184B1A4C93F8650004F16B
:1055B0002805C0EBC000C0B205F04CF894F8F80123
:1055C0000023204AD25C904200F0AC800C333C2B8C
:1055D000F7D10834AC42F1D1A0E0402005F03AF810
:1055E0000C4C04F14005B4F8B00205F036F894F81C
:1055F000B20204F0F9FF043494F8AF0204F0F4FFAF
:10560000AC42F0D18AE000BF701D0020731D002065
:10561000CCBC010898020020380C00209202002027
:10562000401E00201C0C00203A1E0020381E0020C6
:10563000501D0020581D002044020020951D002010
:1056400038040020D81D0020E02005F003F8424C6B
:1056500004F18005B4F83202043400F03F0004F095
:10566000FCFFB4F82E02C0F3861004F0F6FF94F8A5
:105670002C02000904F0B8FF94F82C0200F00F008F
:1056800004F0B2FF94F82D0204F0AEFFAC42E1D179
:1056900044E0324C0D2004F0DDFF07F045F804F043
:1056A000A3FF208804F0E2FFE06804F0DFFF0CF0C5
:1056B00045F931E004F0EDFF0446842004F0CAFF10
:1056C000204604F0D3FF254BDD6804F18003AB4294
:1056D0008CBFC4EB050580250BF018FA20462A463E
:1056E0000AA907F055F800240546AC4216DA0AA9C3
:1056F000085D04F079FF0134F7E7132004F0AAFFF6
:105700000024174B185D013404F06EFF0B2CF8D108
:10571000002004F0ABFF002004F0A8FF012018E0F7
:10572000002016E004F060FFB4F8FA0104F095FFE1
:1057300094F8FC0104F058FF94F8FD0104F054FFC4
:1057400094F8FF0104F050FF94F8FE0104F04CFFC0
:105750003FE72BB0BDE8F08F980200201800002032
:105760001CC601082DE9FF47B84C80462378B84F86
:10577000002B00F0E7813B6862689A1A7C2A40F2AD
:10578000E1816360237A00250133237205F124004F
:10579000AE4EC0B203F024FB06F10A0333F9150044
:1057A0000EF062FEAB4B814618880EF05DFE01469E
:1057B00048460EF061FFA8490EF0AAFE0FF06EF801
:1057C000013500B203F038FB032DDFD1302003F0A8
:1057D00007FBA24BB3F9000003F02EFB03F00EFB16
:1057E000337A99072ED1726841F288339A4219D9D7
:1057F0009B4E102003F0F4FA3068642590FBF5F01E
:1058000000B203F019FB212003F0EAFA336893FB9E
:10581000F5F005FB103585EAE570A0EBE57000B208
:1058200003F00AFB142003F0DBFA8E4BB3F90000FF
:1058300003F002FB1C2003F0D3FA002003F0FCFA73
:1058400003F0DCFA237A5A0740F05981022003F072
:10585000C7FA854B4FF0050918686423323090FB76
:10586000F3F000B203F0E8FA804B0320B3F90650DE
:1058700003F0B6FA7E4B95FBF9F51B78ADB213F049
:10588000040F7C4E0BD07C48414607F0A7F920B9A5
:10589000336813F0100F18BF002528B205E06B4BDA
:1058A0001B699B89B3FBF9F000B203F0C5FA3368BA
:1058B0009B076BD5DFF8DC81A38A98F8002064256C
:1058C00005FB0323B4F8169052004FEA0919B3FB05
:1058D000F2F31FFA89F949EA03291FFA89F9C3F398
:1058E000032349EA0309062003F07AFA0FFA89F044
:1058F00003F0A2FAE28A98F80030013292B292FBE9
:10590000F3F103FB1123E382A369504E9B7B012B30
:1059100005D1392003F064FAB6F914001AE0B38A0D
:105920006E265E43152396FBF3F6B6B23A2003F0DB
:1059300057FAB6FBF5F80FFA88F003F07DFA3B2032
:1059400003F04EFA05FB186080B205300A2390FB85
:10595000F3F000B203F070FA282003F041FAE36993
:105960000A2293FBF2F000B203F066FA042003F07F
:1059700037FA23699B8913B102F084FA03E0334BB1
:10598000186A80F3100000B203F056FA3B4B1B6814
:105990009E0640F1A9803A4E33789D071BD5112011
:1059A00003F01EFAA08C4FF4F3656843354B90FB6F
:1059B000F3F000B203F040FA192003F011FAA38CBF
:1059C0005D43642395FBF3F595FBF3F203FB125063
:1059D00000B203F031FA3378E58C13F0020F08BF00
:1059E0000025012003F0FCF928B203F025FA092074
:1059F00003F0F6F9002003F01FFA234B1D78234B28
:105A00001B88B3F5967F09D9227A02F00F02072A84
:105A100004D842F20F75AB42B8BF1D46052003F013
:105A2000DFF9A3695B7B0BB928B23DE0A5F120004B
:105A30000EF01AFD16490EF01FFE002105460EF06D
:105A400005FF48B34FF03F4128E000BF141E00207F
:105A5000C83300200600002000007A44DC0B002040
:105A6000B40B0020760D0020B80A00206E0D002037
:105A700003340020D400002020040020380200203D
:105A800092020020A08601001C0C0020560000207D
:105A90006666E63F540000204FF07C5128460EF029
:105AA0002FFC0EF0FBFE00B203F0C6F93378980726
:105AB00003D494F82830012B04D1012384F8283032
:105AC000BC4818E0BC4BBD499D6968680EF020FDDC
:105AD0000EF0E4FEB9490290A8680EF019FD0EF030
