:020000040800F2
:1000000000500020A92F0108553001087D19010872
:100010005530010855300108553001080000000036
:100020000000000000000000000000005530010842
:100030005530010800000000553001084D19010835
:100040005530010855300108553001085530010878
:100050005530010855300108BD180108B9180108CC
:100060005530010855300108553001085530010858
:10007000553001085530010879180108553001083C
:10008000C1180108553001085530010855300108E4
:10009000553001085530010855300108B5180108E0
:1000A0005530010835180108553001084518010878
:1000B000251801081518010805180108FD18010880
:1000C000F5180108F9180108F11801085530010860
:1000D000553001086D18010861180108551801080C
:1000E0005D19010855300108553001080000000075
:1000F0000000000000000000000000000000000000
:0C01000000000000000000005FF808F1A3
:100110002DE9F04F754B764EA3B03360002373602A
:1001200008F032FE18B90BF075FB08F051FE0EF026
:10013000B1FA704B704C1A78704D42F001021A708F
:1001400000230A930B930C934FF4E0130D93236851
:10015000297B43F480332360A36943F01003A36138
:10016000236803F400330B930A9B01330A930B9B20
:100170001BB90A9BB3F5A06FF2D122685E4B12F453
:10018000003201D0022315E0186840F00100186029
:100190000A92236803F002030B930A9B01330A932C
:1001A0000B9B1BB90A9BB3F5A06FF2D123689F0785
:1001B00039D501230C93524B52481A6842F0100271
:1001C0001A601A6822F003021A601A6842F00202EA
:1001D0001A606368636063686360636843F48063A4
:1001E0006360494B1A68043B22F070425A60474AE8
:1001F0001060606820F47C106060586840F0004037
:100200005860D86820F40040D8609B68180449BF43
:100210003F4B4FF4E01313604FF480130D930C9B8E
:10022000012B01D117E0FEE7022B18D169B10D9B1C
:10023000B3F5801F02D14FF4A01305E00D9BB3F579
:10024000E01F02D14FF400130D9361680D9B0B4327
:1002500043F4803302E0636843F46013636023680F
:1002600043F0807323602168234B8901FBD55968D3
:1002700021F003015960596841F002015960636837
:100280001D4903F00C03082BF9D14868214B00F0FD
:100290000C00042803D0082804D01A4900E0116893
:1002A000196011E048684F68C0F38340FF0300F114
:1002B000020001D4184905E0496811F4003F1168B3
:1002C00018BF49084843186061681448C1F3031116
:1002D000014491F81890196821FA09F9C3F80090BF
:1002E0001368084A93421BD101221DE0A97C000833
:1002F0006813002008310020001002409C020020FA
:100300000020024000127A00041001401400002076
:10031000001BB7005400002000093D008887010839
:10032000644A934202D10222634B1A70DFF8B8B1DB
:10033000624B22AFCBF80C30A369DFF8A88143F001
:100340000103A361636ADFF898A1B360636A4FF0A9
:10035000000043F080736362A36943F01C03A36150
:100360004FF6FF7327F82C3D39468DF85E00404666
:10037000069710F0A2FF5046069910F09EFF5048D5
:10038000069910F09AFF02234FF0100C22A98DF865
:1003900043304FF4007321F8483D8DF842C0404689
:1003A000C8F81030CDF808C010F087FF454B06980C
:1003B0005A6842F000725A6005F056FC424A179B98
:1003C0000021B3FBF2F341481822F36014F040FF20
:1003D0004FF47A723E4BB9FBF2F909F1FF325A60E1
:1003E000F0228BF823200020072298601A60AB6867
:1003F000DFF8F890DDF808C0C9F80030354BDFF8B9
:10040000F0B00FCB87E80F00A369179843F00803FB
:10041000A361A36918A943F00803A3610823CAF8DC
:100420001030CAF810C010F048FF19981AA910F03F
:1004300044FFD9F800301F0760D59BF89031012B9D
:100440005CD8254B9BF891219B6813F0805800F0F5
:1004500082860027002F51D0204B214F18684FF083
:10046000100AC7F814A0069917901E4810F025FF2F
:100470001C4908230B613C2007F02BFBC7F810A098
:100480004FF0000A95F891319A4533DA154ADFF8B2
:1004900050B00827CBF810707820576107F00EFB9A
:1004A000104BCBF8147078201F6107F007FB0AF19E
:1004B000010AE7E7001BB700303100200005FA050C
:1004C000001001400000014040420F00F0300020C9
:1004D00010E000E0B087010868130020C087010821
:1004E000000C01400008014000ED00E0D4000020B5
:1004F0009C020020B8F1000F00F03486642007F061
:10050000E8FAA0229548002114F0A2FEE369002237
:1005100043F00703E361A36943F4006343F00C0372
:10052000A3618F4B002403F11001545401320E2AB1
:10053000F7D1FF229A77DA7783F8202083F82120F9
:10054000884B894AD9F800701A60214687483C22B6
:1005500014F07EFE07F04008052321460C20844A53
:1005600048438C5C814A8454B8F1000F06D11E3C8C
:10057000012C03D8FF24013B8454DBB2013105294F
:10058000ECD17C497C4A7162C0311370B1626A79E6
:100590007A497B4B01EBC20149781A70B806704B5F
:1005A00048BF0121D9620023764940F2DC505852FD
:1005B0000233102BF8D1012A40F0AC80724B0A3183
:1005C0001F68724BB7F90C001A68714B46321A60FB
:1005D000704BDFF8F091196011F0C0FE6E4911F018
:1005E000C5FF7B89B7F80E80A9F80030A6F83480E3
:1005F000B76301463063044611F004FF4FF07E51AB
:1006000011F0F8FD15F0DAFB4FF07E5111F0F2FD1C
:10061000214611F0ABFF15F02BF8604911F0F2FE06
:1006200012F0B6F85E4B002718800FFA88F011F030
:1006300095FE5C4911F0E6FE12F0AAF85A4BB9F8A3
:1006400000C01880594BB946A3F80080CCF56173FF
:100650009BB207930CF5617C554B1FFA8CFC4FF451
:10066000C8780FFA88FB58460393CDF808C011F0FC
:1006700075FE494911F07AFF4E4911F0C3FE8246DA
:1006800015F00CF901465046059115F07FF9024628
:100690005046049208F032FB0599824604F100406E
:1006A00011F0B0FE049A114611F0A2FD424911F07A
:1006B000A9FE514611F0A6FE12F06AF80799039BB5
:1006C0000AB280B2934523F8020FDDF808C010DBB0
:1006D0000FFA8CF293450CDC00B20FFA89F93FB2A5
:1006E0004845B8BF8146B842A8BF07461FFA89F9F6
:1006F000BFB208F10A081FFA88F8B8F5AF6FB0D199
:100700000FFA89F9C9F100093FB2B945B8BF4F46A0
:10071000A6F8047110A800211C2214F099FD274BA3
:10072000274F1C6814F4007904F400684CD0A3042B
:100730000DD4B8F1000F08D095F8842107F10C030F
:10074000012A18BF3B46079304E0079702E007F130
:100750000C02079217AB169338E000BF502F002011
:1007600068130020E01C0020900400204C1D002095
:100770002BA40108AC0200204A1D002010A501088E
:100780008A0C0020BC0D0020800C0020D00D002021
:100790008C0C0020900C0020000020410000A041A3
:1007A000960C00209999993E940C0020980C0020FA
:1007B000A213002035FA8E3C00007A44D4000020B9
:1007C000888701089A0C0020CDF81C906B790E2BBD
:1007D00003D003F0EF03082B02D101238DF8523030
:1007E000012007F05BF818B14088003018BF0120E5
:1007F000C4F340038DF84630C4F380138DF84930BC
:10080000C4F3403300F001008DF84030C4F3C0332E
:100810008DF845008DF84330B8F1000F07D095F8FA
:100820008481B8F1010EDEF1000858EB0E08C4F324
:1008300000438DF84A30F36A19F1000918BF4FF0F0
:100840000109003318BF01238DF84C30C4F3005365
:100850008DF84D30B5F84631B5F844E1ADF850307B
:10086000B5F8523104F00101ADF84E30C4F38043C5
:100870008DF8473095F85431C4F3C002181C18BFE6
:1008800001208DF84800B5F85001E4048DF844804B
:100890008DF841108DF842208DF84B90ADF8540042
:1008A000ADF856E004D5B64CB4F84C41ADF856401E
:1008B000B0F5FA7F02D90BB9ADF8563095F8D431BE
:1008C000B04886F80631002386F8073143709DF85A
:1008D0005230002B14BF0223002301B902B10133AF
:1008E00007EB8303DB6B4FF0000B0993CDF820B0CF
:1008F000099B33F80B204FF6FF739A4200F0958165
:10090000D3B2A14E9DF845101D01741919B1991E5D
:10091000012940F284819DF8491021B171599B4809
:10092000814200F07C819DF84AE0BEF1000F04D0C6
:1009300071599648814200F072819DF8461039B194
:1009400061689348814203D12189102900F06781B1
:100950009DF8431039B161688D48814203D12189E6
:10096000022900F05C819DF8441039B16168894822
:10097000814203D12189022900F05181DDF858C05C
:10098000BCF1000F0FD06068DCF8001088420AD17B
:100990002189BCF80400884200F04181BCF80600BF
:1009A000884200F03C814FEA1228B8F1020F02D1D0
:1009B0009DF8402004E0B8F1010F04D19DF84120DA
:1009C000002A00F02C819DF84C2062B19DF8522045
:1009D0004AB9A3F10802012A05D871596E4A914219
:1009E00008BF4FF004089DF84D2062B19DF85220D9
:1009F0004AB9BEF1000F02D00C3B012B01E0043BD1
:100A0000032B40F2F480B8F1010F42D1634BFF2277
:100A100083F8502183F851212189627B4FF000092E
:100A200083F85491C3F860416068ADF85C108DF8AC
:100A30005E2017A9022283F80C91C3F81091C3F825
:100A40001491C3F81891C3F84C9183F8529183F82C
:100A500053918DF85F20039310F02FFC7059A17A09
:100A60004A4605F0B7F820464946424607F026FFB9
:100A7000039B4B4AC3F86C91C3F86421494A204652
:100A8000C3F8682103F5B27103F5B4720EF004FEE9
:100A9000C5E0B8F1020F42D10899434ACBB21C21FC
:100AA0004B43089802EB03094FF0000A4FF0010C8A
:100AB00089F8010089F802A089F80AA002F803C0A9
:100AC000637B22896068C9F80C4017A98DF85E30F5
:100AD000CDF808C0ADF85C208DF85F8010F0EDFB1C
:100AE0007059A17A524605F075F8DDF808C0204625
:100AF0006246514607F0E2FE2C4B09F11001C9F89D
:100B000010302B4BC9F818A0C9F81430204609F151
:100B100014020EF0C1FD0899013108917FE0B8F18F
:100B2000030F61D19DF847301C4D8BB19DF84830C3
:100B300095F808613BB1BDF854301E4A2046B2FB1F
:100B4000F3F208213FE0204608214FF6FF723DE016
:100B5000BDF8543095F80861B3F5FA7F2ED9154ADF
:100B60002046B2FBF3F20821BDF8563092B207F0EE
:100B700077FF05EB8606C6F834020F4B2DE000BF69
:100B80009C0200206F14002030A4010800040040E3
:100B900000080140000C0140002C014068130020B7
:100BA000E10A0108E50B0108BC140020115C0008F3
:100BB000BD0B010800127A00050C0108B24A20465C
:100BC000B2FBF3F20121BDF8563092B207F048FFB4
:100BD00005EB8606AD4BC6F83402C36095F80831C4
:100BE000013385F808311AE0B8F1040F17D1BDF8C8
:100BF0004E30A54AA64D92FBF3F22046BDF8503088
:100C0000012192B295F8076107F02AFF95F80731A4
:100C100005EB86060133C6F8640285F807310BF14F
:100C2000020BBBF11C0F7FF463AE994C994B94F807
:100C30000721002684F88422974A1E701578994669
:100C4000A5F11702022A1AD8636A0021985903EB0A
:100C5000060811F06BFD10B1E36A7BBB27E08F4BF8
:100C600006EB030E98E80F008EE80F0099F80030AD
:100C700010360133C02E89F80030E5D1ECE7884BFF
:100C800013F835C003EBC503D3F8048089F800C01E
:100C9000B8F1000FE0D06645DEDA804A330103EB9D
:100CA000020E43440FCB01368EE80F00F3E77D4B75
:100CB0001A68984612F4805F24D11DE007EBC5073F
:100CC00097F84C00724B3E6D83F88502002EEED0F3
:100CD00000238342EBDAC3EBC3017218D2F800C0E1
:100CE000DFF8F8E1013341F80EC001EB0E079188FF
:100CF000B9809279BA71ECE705F0EF03082B6A4BE3
:100D000025D126E099F80090B9F1010FF4D9674E8A
:100D100000274F4506F11006EEDA56F8100C4FF09A
:100D20007C5111F06FFB4FF07C5146F8100C56F8D7
:100D3000140C11F067FB4FF07C5146F8140C56F878
:100D40000C0C11F05FFB013746F80C0CE1E70E2D9F
:100D500008D11A78182D42F010021A7008D107F045
:100D600051F805E01A78192D22F010021A70F5E7F3
:100D70000EF000FCD8F800305D0302D44C4B012289
:100D80001A704C4B4C4D1A784C4F42F004021A70BA
:100D90002B784FF48052012B8CBF102314238DF835
:100DA0005E304FF002038DF85F30BB69ADF85C2018
:100DB00043F00403BB618CBF01260026404817A9FD
:100DC00010F07BFA3F4B0EB13F4A00E03F4A002053
:100DD0001A6006F0B1FE069A3D4B3E4E93E80300C2
:100DE000BB6982E8030043F0080318A9BB611798A8
:100DF00010F063FA10F0B0FC9F238DF83C303220E5
:100E000000234FF480598DF83D308DF83E308DF839
:100E10003F3006F05EFE0422C6F8149006980FA933
:100E20000DF004FAC6F810909DF85E209DF85D3034
:100E3000120242EA03429DF85F301A43264B9A425F
:100E400014D0322006F045FEC6F81490F5200DF0BF
:100E5000B9F9FF200DF0B6F97028C6F8109005D149
:100E60002B78022B02D1144B03221A702B78032B00
:100E70000CBF1F20022006F0C8FC2B78032B2FD0BC
:100E8000012009F0F9FD35E040420F00F50B0108A3
:100E900068130020300C00208A0C00209C0C0020DD
:100EA00010A50108D400002096020020A40C002008
:100EB00018120020083100203031002000100240BC
:100EC000000801401831002081770008957700085C
:100ED000A4880108000C014015202000EE15002018
:100EE000022006F0DBFC18B14088003018BF01205A
:100EF000C007C5D5D8F8006095F800A0AA4D4FF0FE
:100F0000100B06F40063284600215A46069314F09D
:100F10009FF94FF6FF73ADF83C30022306F4004909
:100F20004FF000081E408DF83E308DF83F800DD008
:100F300022A921F84CBD9D4804F0E8FE01260422B8
:100F400007232A7085F80180AE70EB70B9F1000FAD
:100F50000ED0022322A921F84C3D944804F0D6FE7D
:100F60000123F2182B71AB7107236E71EB71D6B2AE
:100F7000BAF1010F0FD9202322A921F84C3D8B484B
:100F800004F0C4FE052301222B72AA72731C0722EF
:100F90006E72EA72DEB2069B7BB1022322A921F8AF
:100FA0004C3D834804F0B2FE092301222B73AA733F
:100FB000731C07226E73EA73DEB27B687D4843F4CC
:100FC00040437B607B69DFF8EC8143F001037B6188
:100FD000BB6943F40073BB6104F083FF17A804F0FE
:100FE00055FF754B00271793744B022E189334BF8F
:100FF0003B4680231C934FF480731D934FF4806312
:101000001E93202317A91F9340464FF400531A96AE
:10101000209319971B97219704F045FFD8F80030CB
:10102000012E43F00103C8F80030654B98BF002142
:101030005A6888BF012122F4702222F4807242EAA9
:1010400001225A6099685F4A013E0A4042F46022D8
:1010500042F002029A60DA6AF6B222F4700242EAC0
:101060000656DE623846012329188A78002A5AD0AB
:101070002A5C5E1C092A91F803E0F6B2504911D9A6
:10108000A2F10A0707EB47074FF0070C0CFA07FC21
:101090000EFA07FED1F80C8028EA0C0C4CEA0E0779
:1010A000CF600EE002EB42074FF0070C0CFA07FC92
:1010B0000EFA07FED1F8108028EA0C0C4CEA0E0755
:1010C0000F61062B3E490ED8013B03EB83034FF023
:1010D0001F0E0EFA03FE9A404F6B27EA0E0747EAEF
:1010E00002034B6320E00C2B0ED8073B03EB83037A
:1010F0004FF01F0E0EFA03FE9A400F6B27EA0E0701
:1011000047EA02030B630FE00D3B03EB83034FF051
:101110001F0E0EFA03FE9A40CF6A27EA0E0747EA2F
:101120000203CB6200E01E460430102801D0334693
:101130009AE7234B9A6842F480729A609A6842F068
:1011400001029A609A6842F008029A6099681C4A03
:1011500009070ED5FAE7571E092F8CBF0027012774
:10116000FFF778B9184B83F891810DF05BFCFFF71E
:10117000C5B9936843F004039360114A936813F070
:101180000403FAD1916841F4A00191600E4AB2F8CB
:101190005801E0B9B2F95A31C3B9B2F95C31D3F1AF
:1011A000010338BF002312E0CC1B002000080140DF
:1011B000000C0140080002404C240140DC1B0020D0
:1011C00000240140FDF7F1FF9C020020034613F0CC
:1011D000010340F09380B34A00B2137111F0BEF8DE
:1011E000B14911F00FF9B14F0646B7F95A0111F0A4
:1011F000B5F8AD4911F006F90546B7F95C0111F0F3
:10120000ADF8A94911F0FEF8A9498146304610F021
:10121000F1FF07F04AF80746304607F046F8A449C0
:101220008046284610F0E6FF07F03FF806462846BD
:1012300007F03BF89E490546484610F0DBFF07F0F3
:1012400034F88246484607F030F839468146504621
:1012500011F0D8F839468346484611F0D3F8514684
:101260000690404611F0CEF849460890404611F0ED
:10127000C9F831460990504611F0C4F84946C4F8FF
:10128000F80206F1004011F0BDF82946C4F8FC024E
:10129000C4F80053089811F0B5F80146069810F00C
:1012A000A9FF2946C4F80403099811F0ABF80146D8
:1012B000584610F09DFF3146C4F8080308F100407D
:1012C00011F0A0F82946C4F80C03584611F09AF81A
:1012D0000146099810F08CFF2946C4F810030698BF
:1012E00011F090F80146089810F084FF3946C4F8D0
:1012F0001403304611F086F8C4F818036D4F3B68AC
:101300009A0320D5C82006F0E4FBAE200DF041F989
:1013100008B10DF043F984F81C03C82006F0D9FB8E
:10132000654B00210C226548C4F8203313F090FF70
:10133000022384F827330EF06BFF06F080FB604B2E
:101340000344C4F82C335F4E584D336895F85F0161
:1013500095F8691195F86A21B3F95E300BF0CEFA71
:10136000B04610B901200DF059FF574B0A261A78E4
:1013700042F002021A70554B10225A6108221A617B
:10138000DFF848911920D9F80C30013E83F01003A2
:10139000C9F80C30D9F80C3083F00803C9F80C30C8
:1013A00006F097FB012006F0C7FB192006F091FB21
:1013B000002006F0C1FB16F0FF06E1D108234FF034
:1013C000100A434EC9F81030C9F810A033681B0743
:1013D00009D5404BC9F814A01B6898473E4B012221
:1013E000C9F810A01A70D4F83033187B10F0B6FF8B
:1013F0002D4911F007F82E4910F0FCFE06F055FFBC
:10140000364BC4F834032849186910F0FBFF344BFD
:10141000C4F83803188810F0A1FF0146314811F0D4
:10142000A5F8314911F0A2F8304C314B186006F0A4
:1014300029FDFF211C22204613F00AFF0022227002
:1014400032682C4B012112F0020F1970204604D093
:101450006170032119700221A170540704D5197815
:101460004C1C1C700324445412F00A0F0CD01A7840
:1014700004218154511CC9B205244454D11C0232A8
:101480001970D2B2062181543A68910604D51978B0
:101490004C1C1C7007244454697908292CD00E294F
:1014A00033D129E01400002035FA8E3C9C02002044
:1014B000DB0FC93FD4000020240400208C1600203C
:1014C000404B4C00100C002008310020000C014063
:1014D0003C020020880200208C0A0020F80B00202B
:1014E000100000200AE81C4100401C461B1D002083
:1014F000D40B00201A1D00201C7804F1010E83F883
:1015000000E04FF00B0E00F804E01C784FF00C0CDC
:1015100004F1010E5FFA8EFE12F4803F83F800E0C2
:1015200000F804C009D004F1020CAA4C84F800C0F1
:10153000A94C4FF00E0C04F80EC0540708D51C78C7
:1015400004F1010E83F800E04FF0100E00F804E003
:101550001C784FF0120C04F1010E5FFA8EFE12F4AB
:10156000806F83F800E000F804C00ED095F820C228
:10157000BCF1000F09D004F1020C964C84F800C0B5
:10158000954C4FF0130C04F80EC0940508D51C7848
:1015900004F1010E83F800E04FF0150E00F804E0AE
:1015A000182913D11C784FF0160E00F804E004F14E
:1015B000010E5FFA8EFE4FF0170C00F80EC004F11A
:1015C000030E0234E4B283F800E00155110304D5A0
:1015D00019784C1C1C7019244454D20504D51A786F
:1015E000511C19701A2181541A7814218154911CAC
:1015F00001321970D2B21B238354002198227748FC
:1016000013F026FE764C0EF095F9B5F84E3175497B
:10161000A4F8403300230B808B70D8F80010724A76
:1016200001F1810EB5F896017049C4F83C230A60B7
:1016300084F8423382B26E49DFF8E891D1F8008035
:10164000DFF8E4C108F596784CF8138023F80920F8
:101650000233242B8846EED1D7F800C01CF4805FFB
:101660000CBFB5F89C311346A9F8063000231EF8CC
:101670000320B2B90EEB0302917892F803A0514512
:101680000FD209B1013901E00AF1010101EB810139
:10169000527801EB810101F5617189B2043229F8B8
:1016A00012100433502BE2D11CF0080F00F0E98037
:1016B00095F89031062B00F2DE80DFE803F0040796
:1016C0000E355170700045F2F05201E042F6F822FA
:1016D000484B1A800EF0BAF9CCE0464B42F6F8229D
:1016E0001A8000010A2390FBF3F0A0F5B0600023FC
:1016F000414A98500433482BFAD1404A404B40208D
:101700009A60404B12221A7006F002F9002800F08D
:10171000B28001234FF0070A90F9000040218DE8C4
:101720000804394A394BA0E0324B42F6F8221A80BD
:10173000374A334B40209A60324B10221A7006F021
:10174000E7F8002800F0978001234FF0000990F996
:10175000000040218DE808022E4A4FF4E13384E076
:10176000244B42F6F8221A802B4A254B40209A60DF
:10177000244B08221A7006F0CBF800287BD00123F6
:101780004FF0000C90F9000040218DE80810234A2A
:101790004FF4E1330FF097FFC4F88C0367E0154A6C
:1017A00042F6F821118017490C22062B1C480A70BA
:1017B0003CD00023037084F8903384F891331B23CA
:1017C00084F89233052384F8932384F894334FF4F8
:1017D000E13539E01A1D00201B1D0020441C0020AB
:1017E00068130020740D002024040020DC00002079
:1017F000EC3000209A1B002030010020B555000875
:10180000140000203E1D00200D580008A086010095
:10181000A55500085D5700089155000811570008AC
:101820001402002052020020AC160020002101709A
:1018300084F8901384F89113BC4D212184F89213FD
:1018400084F8932384F89433B94ABA4B40209A60C1
:1018500006F05EF878B101234FF0000EB64A90F919
:10186000000040218DE808402B460FF02CFF00308F
:1018700018BF012028B9082006F088FDAF4AAD4BFB
:101880009A603B68AE4A13F4804F04D01221117065
:10189000AC48A849886042F20101194089B1AA49BF
:1018A00044F620600880990404D508211170A748E7
:1018B000A0498860DD0704D50C211170A4489D491A
:1018C000886011789805A1F10401517053D5A14D9C
:1018D000079AA14B2A609A69079842F001029A611F
:1018E00003884FF01009ADF838309C4802230EA948
:1018F0008DF83A908DF83B300FF0DFFC2B6897485D
:101900005B880EA9ADF8383004238DF83A300FF01B
:10191000D4FC2B680120197A0FF0BAFC2B68904A8E
:101920005B684FF0000A536117A88DF861904FF083
:10193000010917938DF860A08DF8629004F078FA91
:101940002B680FA85B7A8DF83EA08DF83C300323FE
:101950008DF83D308DF83F900AF0A8FFD8F80020B0
:10196000804B3C3A1A6033684FF0FF3243F010036B
:1019700033607D4B1A607D4B7D4DC4F898338033C6
:10198000C4F89C333B680026D9032E7040F1B18027
:10199000DFF808B2DFF8C08140F22A3A06F07AFD9B
:1019A0004FF0010952465846314685F8009013F031
:1019B0004FFCD8F818306F4843F00403C8F81830CB
:1019C0004023ADF8383018238DF83B300EA903239F
:1019D0008DF83A3004F09AF9D8F81C30664D43F08F
:1019E0000203C8F81C30654BA8F694781A68644B5B
:1019F000B2FBF3F22B88013A23F45C731B041B0C3B
:101A00002B8092B21D23AB852A85A5F814902B8CD0
:101A100023F001031B041B0C2B842B8CA9882A8B1D
:101A200023F0020322F0730212041B04120C1B0C9D
:101A300089B242F0600243EA0903A9802A83AE8694
:101A40002B842B8B23F008031B041B0C43F008038F
:101A50002B83B5F844306FEA43436FEA53439BB29C
:101A6000A5F84430D8F8A83F43EA0903C8F8A83FCE
:101A7000404604F036FA17A804F008FA414BCDF8B6
:101A800060B0179380231C934FF480734FF0100BBA
:101A90001D9340464FF4005317A92093CDF864B02E
:101AA000CDF868A01B961E961F96219604F0FBF9B0
:101AB000AB890FA89BB243F40073AB81D8F8003018
:101AC00043F00203C8F800308DF83CB08DF83D902B
:101AD0008DF83E608DF83F900AF0E8FE2A4B1A68B8
:101AE0002A4BF2500436802EF8D10AF0A6FD0AF0F7
:101AF000A4FD3B685A057ED5D4F8CC66244B04205F
:101B00001E6005F005FF0421C4F8D00605F0DAFEDA
:101B1000204B84F8D40608201E6005F0F9FE1E4B09
:101B20000821186005F0CEFE3AE000BF90D0030017
:101B30005155000814000020F95500087D77000871
:101B40003E1D0020E15500089A1B0020ED550008BD
:101B500071770008F40B002000100240000C0140D7
:101B600000040140F00B0020BC0B0020CC0400203E
:101B7000E71200200008014000040040540000204B
:101B800000366E0134040040367B0108E812002064
:101B9000581200209C120020B812002008170020C4
:101BA000874D2C22002184F8D506284613F050FBDF
:101BB0007C232B708E236B70E023EB7010207D2331
:101BC00085F82B30C4F8D86605F0A2FE1021C4F8C1
:101BD000DC0605F077FE84F8E0062020C4F8E46611
:101BE00005F096FE2021C4F8E80605F06BFE84F8A7
:101BF000EC060EF029F9734B734D1B78022B64D160
:101C0000724B00261A88322022F040021204120C75
:101C10001A801A884FF4805722F038021204120CEE
:101C20001A801A8892B242F040021A809F238DF8DF
:101C30003C308DF83D608DF83E608DF83F6005F0DA
:101C400048FF8DF85D60624E0422776117A80FA9E6
:101C50000CF0ECFA37619DF85E309DF85D201B02B8
:101C600043EA02439DF85F2013435A4A934219D036
:101C70000AD8A2F51A42033A93420CD002F51A424E
:101C80000232934209D01BE0534A934205D00132FD
:101C9000934207D014E0202300E080232B804FF4F0
:101CA000807302E04FF480732B806B80AB882A88AE
:101CB0001B02AB605343EB60012384F8ED3604E074
:101CC00000232B806B80AB60EB60EE6816B3F60AE6
:101CD00037464FF00008B0450BDA08EB06056D10EB
:101CE0000DF15C09E802494610220CF01DFB0F289B
:101CF00005DCFF0207F07CFDC4F8F0760AE0002363
:101D000059F80320013256D10433102BF8D12E4656
:101D10002F46E0E7314D324A2B6813F4002318BFF9
:101D20000123137005F08BFE2E4B18602E4B5A7951
:101D30001946052A03D12D4B4FF4C8721A802C4B3B
:101D40004FF47A721A802B4BC8221A802A4B1A78C9
:101D500042F008021A70294B1A7822F002021A7017
:101D60002A6840F6020313406BB12548254B1860E2
:101D7000254B03201870254B0120187024480023A0
:101D8000038024480380930308D5032384F8283371
:101D900094F8273343F0010384F827338B6801223A
:101DA0002B601D4B1A701D4B1A7862F07F021A705F
:101DB00023B0BDE8F08F05F101083D46A8E700BF5C
:101DC0006C1200203031002020000020003800403C
:101DD000000C014018BA20001740EF00D40000208A
:101DE00019120020180C00209C020020041C002066
:101DF0002A31002028310020960200202F310020B7
:101E00001604002050120020A01200204C000020D8
:101E1000BE1B0020C01B002018120020083100202B
:101E2000A2492DE9F04F0A68A14802F59C432033EE
:101E30000360A04B87B01E78C6B119465B689A4212
:101E400040F20A81013E0E7006E12B68072C98BF14
:101E5000195D994B88BF21461B6898489847032C09
:101E60000CD9944A013602EB44042081934BF4B21E
:101E70001A78934DA2421A46E7D81EE02B6804F167
:101E80000E0203EB82029388D2880028E9D0C01AA0
:101E90004FF47A714843D31A90FBF3F0084440F6AC
:101EA000C903984205DC40F2EE239842B8BF1846B9
:101EB00001E040F6CA0080B2D3E7824B42F201094A
:101EC0001B6803EA0909D9F101097F4B38BF4FF0BC
:101ED0000009D3F800A07D4BB9F1000F06D17C4971
:101EE000097819707B4908787B4908701E781EB103
:101EF000794B1E7886F001066E490F2381F82C304D
:101F0000764B92F800801F780322B7FBF2F202EBC7
:101F10004202BA1AD2B201F12E0303EB42020024AC
:101F2000D5F800B04FEA480C0292254664455AD0D5
:101F300016B16B4BE05A00E03046BBF814308342D8
:101F400006D8BBF81610814234BF0021012100E001
:101F50000021644BE9B953F825309A4502D2624B0F
:101F6000E05A1AE0EBB218468DE808100DF02CFA92
:101F7000009BDDF804C0032B0FD84FF0010E0EFAC2
:101F800005FE4C4B93F82C1021EA0E0183F82C101F
:101F900003E00AF5967143F81410B9F1000F1DD152
:101FA000029A444B04EB4401505293F8762022B934
:101FB000022F13D9012083F876004C4B581831F8C2
:101FC00003E041884A337144B0F804E0714489B2B7
:101FD000E15208B2032390FBF3F080B2424B01358B
:101FE000E0520234A2E7334B374A93F82C10B1F198
:101FF0000F077942794183F890103D4B69B13D4913
:1020000009684E0109D41268D9689A60521AC82A20
:102010001ED9012283F821201AE02E4801210170E7
:102020002D48126801709968DA605B68521A9A420A
:1020300003D92F4B002283F821200024444507DADE
:10204000E0B20DF0C1F9284B23F814000134F5E794
:10205000224B1A7801321A701A4E3368DD0405D506
:10206000244B1B68DC0701D40DF0BAFC0F4B1C6835
:10207000134B19688B7A002B40D01B4A013B32F876
:1020800013000B7B1BB1C0F53B60083080B200B27F
:10209000A0F57A70B0F57A7FA8BF4FF47A7020EA85
:1020A000E07010F05BF914495DE000BF0C310020D6
:1020B000300200205C1A00201C0000203E1D002081
:1020C000DC000020D4000020EC300020C8000020FC
:1020D000D00000200100002000000020AA160020EF
:1020E000641A0020AC160020520200208A1A002038
:1020F000740D00204002002000007A443268100471
:102100003AD59D4AD2F89400201A002834DB04F511
:102110009C402030C2F894009848C97A4579984884
:1021200030F8150080B290FBF1F092F89810013170
:1021300001F00F0182F898100A4482F899001846BD
:10214000904A9A5C01331044102B80B2F8D100B24F
:1021500090FBF3F000B26428A8BF642020EAE0708E
:1021600010F0FCF8884910F001FA884910F04AF99B
:1021700010F034FB864B18803368864D13F4807F53
:1021800000F0E080844B854F9C4203D9BB780BB9AB
:102190000123BB70BB78002B00F0D4807F4B95F8F7
:1021A000008093F821407E4B611E4C421A684C41DE
:1021B000002CC2F380690CBF03220022C8F3800800
:1021C0009A46029297F82030052B00F2B680DFE89D
:1021D00003F0034E5378859EB8F1000F3AD0714B4F
:1021E0001868714B19880DF019F9012809D16F4B46
:1021F00064211A68604BD3F8AC30DB8801FB032301
:102200003B61B9F1000F0DD05B4BD3F8AC301B79BB
:1022100043B10DF081F9032387F820304FF47A732E
:10222000FB61CFE7002C40F08880604B3A69196869
:10223000DFF868B1914209D90DF06EF903228BF8ED
:10224000202040F6B832CBF81C20BBE701228BF8E7
:102250002020B7E74FF48060B9F1000F02D00DF0F5
:102260004BF901E00DF076F900233B6165E0002CAD
:1022700045D10DF051F9A5E724B1052387F82030A9
:10228000012100E02146B8F1000F0DD0454B1B683D
:10229000DA89474B1A805A809A80374AD2F8AC20A4
:1022A0005288DA8002220292404B1A687B699A4275
:1022B00002D8B8F1000F3DD147F23053FB61032340
:1022C0001EE02B7843F002032B700DF089FB374B97
:1022D0001A68FB691344BB61042311E0334B1A688D
:1022E0008CB1BB699A4228D9324B1B781BB9DAF8FA
:1022F0000030DA0721D42B7823F002032B7005235A
:1023000087F820305EE7FB691344BB6115E0274B7B
:1023100019491A68D1F8AC306421DB884FF4806029
:1023200001FB03233B61002387F82030FB700DF095
:1023300011F947E700297FF445AF029A12B1104620
:102340000DF08AF81C4C04F5C470B4F84E110DF071
:1023500065F8A346804688BB05F03AFE94F8E23162
:10236000012B06D9114B044A1B68D2F8B0209A42BF
:102370002FD205F01DFE2CE05C1A0020CC1B0020A3
:10238000DC1B0020F51A00200000C84200C07F447A
:10239000401D00202F310020404B4C00740D0020C8
:1023A00040020020A4160020A8160020EC300020D7
:1023B00052020020080000209C020020984B94F854
:1023C000E2211B684FF47A7101FB0232954BC3F88E
:1023D000B0202B785B0740D53368DF063DD5924BA4
:1023E0001B78DC0639D4914B8E4C1F788FB19BF84B
:1023F000E031B8F1000F16D173B1894B1A68D4F8E7
:10240000B4309B1A002B07DA0DF0EAFA84F8B88092
:1024100023E0B8F1000F19D110200DF01DF80123B1
:1024200084F8B83019E03BB17D4A4FF47A711268F4
:1024300001FB0323C4F8B43094F8B8306BB105F055
:1024400083FB784B002283F8B82006E094F8B8307C
:102450001BB105F079FB84F8B87000229BF8DEA16F
:102460009BF8DF11BBF89871BBF89AE11346704CEA
:102470009B08105F0232B842C4BF63F07F03DBB237
:102480007045B8BF43F04003082AF0D1654C94F87A
:10249000B9209A4205D194F8BA20F92A04D8013219
:1024A00000E0002284F8BA2084F8B9305F4B5D4A1E
:1024B0001878604F994638BB3B68D80708D5B8F103
:1024C000000F21D12B78DA071ED50DF009FB1BE098
:1024D0002B785B0715D5584B1B7893B1574BDB789E
:1024E0007BB992F8BB300133DBB2032B82F8BB30EF
:1024F0000AD911B10DF074FA06E0B8F1000F03D15A
:10250000F8E7002384F8BB3094F8BA20454B142A2E
:10251000DFF83C8140F0A58099F800201AF1000A0C
:1025200018BF4FF0010A6AB393F8B9205F2A11D19E
:102530002A7802F0040202F0FF0112B10DF050FA05
:1025400008E00B20019100930CF086FF0199009B9D
:1025500083F8BA10BAF1000F14D094F8B9307D2B7B
:1025600010D12B7803F0040303F0FF0213B10DF038
:1025700037FA07E00B2001920CF06EFF294B019A0D
:1025800083F8BA202B7803F0040303F0FF00002B3C
:1025900067D194F8B930234A572B0AD1284B4FF40E
:1025A0007A721A80274B1B6858075AD50A22264B85
:1025B00034E03168490717D55A2B15D192F8BC3051
:1025C0002BB1012382F8BC0082F8BD3049E092F8BB
:1025D000BE3083F0010382F8BE300BB10C2000E066
:1025E0000D200CF039FF3CE05D2B00F072845B2B7A
:1025F00000F071845E2B02D1032000F06DBC562BDD
:1026000001D10CF00FFA99F800301BBB94F8B930E7
:10261000972B40F079840D4B4FF4C8721A8020E05C
:10262000EC3000205C1A00209602002008000020F8
:102630005202002040020020C8000020740D00203B
:102640002A3100203C02002028310020041C0020F8
:10265000100C002094F8B9306F2B40F04C840DF032
:102660003FFA3368580736D594F8BE30B44A93B170
:102670002B7859070FD5B34BB3F90610BBF8983137
:10268000994208DD3B6813F0010304D13221A2F81E
:10269000C01082F8BE303B6813F4803FA84B0CD0CA
:1026A00094F8C2202AB993F8BC2012B93222A3F8B8
:1026B000C020012384F8C2300DE094F8BC2052B150
:1026C0002A7802F0040202F0FF0122B9012283F805
:1026D000BC1083F8BD20D8F80090002309F1810ACE
:1026E0003B6009F1830498460AF1020303EB0801F9
:1026F00013F808204B7814F8010C9A420AD22146AC
:102700000AF098F830B114F8023C01229A403B6874
:1027100013433B6008F10408B8F1500F04F10404BE
:10272000E2D1894B1F784FB1884CDFF84082236893
:10273000874F13F0020F40F036832EE309F1D108E2
:1027400009F1D20408F10103D919DA5D4B7814F8C4
:10275000010C9A4229D221460AF06CF828B394F869
:1027600002E020797B4B0EF1FF3E4FF00C0C0EEB9C
:102770004E0E0CFB00FC9E44714B94F803A003F139
:10278000C40909EB0C02516871450ED0002109F80B
:102790000CA0C2F804E09160012202FA00F093F864
:1027A000F42022EA000083F8F4000637482F04F1F1
:1027B0000604C7D1684BDFF8B8A11F68674B4FF01C
:1027C00000091B680293664B1B780393DAF800300C
:1027D000002B00F0D98293F80080B8F1000F00F0D0
:1027E000D382DAF8042002998A1A002A0DDB01F557
:1027F000FA72012101FA09F1CAF80420504A92F84C
:10280000F40020EA010182F8F410039A002A00F093
:10281000BB821AF8041C58780431C9B2484A00280F
:1028200040F07182474830F911104E48B0F89601D7
:1028300000F1C804A14201DD9C7815E0C83881424E
:1028400002DA9C7864420FE0012303FA09F33C4961
:1028500091F8F42022EA0303029A81F8F43002F599
:10286000FA73CAF804308FE292F8F43043FA09F3AD
:10287000DB0700F18982002CCCBF022001200CF084
:1028800023FE08F1FF33132B00F27582DFE813F00B
:10289000140021002E003E0072007900DD0041018D
:1028A000A501DA010A0273023E004D007900DD0045
:1028B0004101AF00130177013B7838461C44FA2CE4
:1028C000A8BFFA2424EAE4743C7005F06BF80120F8
:1028D0001AE07B7838461C44642CA8BF642424EAA0
:1028E000E4747C7005F05EF802200DE0FB78384659
:1028F0001C44642CA8BF64241B4B24EAE474FC70C1
:10290000196805F00BF803202146C8E179790D20FC
:1029100021446429A8BF642121EAE171797106F09C
:1029200041FEB8F10D0F00F0268239790E202144C6
:102930006429A8BF642121EAE1713971AFE100BFC8
:102940005C1A0020520200202D310020400200209D
:1029500044020020988E01087C0C0020EC300020FE
:10296000C80000209C020020081D00203C0200201E
:10297000241B0020B9790520214481F30801B97195
:102980008DE1A74B1B681A78022A21D120460093BB
:102990000FF0E4FCA3490FF0E9FD009B596A0FF02A
:1029A00029FC002101900FF0CBFE019A009B40B959
:1029B00010469C490FF0E2FE019A009B10B1994A23
:1029C00000E000225A620F20114606F0FFFD0AE0E7
:1029D00099780F202144C829A8BFC82121EAE171B4
:1029E000997006F0DFFDB8F10F0F00F0C4818C4B39
:1029F000D3F8008098F80030022B1AD120460FF04F
:102A0000ADFC88490FF0B2FDD8F820100FF0F2FBB2
:102A1000002104460FF094FE30B9204681490FF0A2
:102A2000ADFE10B17F4C00E00024C8F82040122019
:102A300059E198F8011012202144C829A8BFC821E3
:102A400021EAE17188F8011029E1754B1B681A78B9
:102A5000022A21D1204600930FF080FC71490FF02B
:102A600085FD009B196B0FF0C5FB002101900FF055
:102A700067FE019A009B40B910466A490FF07EFE3E
:102A8000019A009B10B1674A00E000221A631020EF
:102A9000114606F09BFD0AE0197B10202144C8294D
:102AA000A8BFC82121EAE171197306F07BFDB8F1D6
:102AB000100F00F060815A4BD3F8008098F8003076
:102AC000022B1AD120460FF049FC56490FF04EFD5B
:102AD000D8F82C100FF08EFB002104460FF030FECA
:102AE00030B920464F490FF049FE10B14D4C00E07F
:102AF0000024C8F82C401320F5E098F80B101320A0
:102B00002144C829A8BFC82121EAE17188F80B1027
:102B1000C5E0434B1B681A78022A21D12046009356
:102B20000FF01CFC40490FF021FD009BD96B0FF00A
:102B300061FB002101900FF003FE019A009B40B958
:102B4000104638490FF01AFE019A009B10B1354A21
:102B500000E00022DA631120114606F037FD0AE09A
:102B6000997D11202144C829A8BFC82121EAE1711B
:102B7000997506F017FDB8F1110F00F0FC80284B95
:102B8000D3F8008098F80030022B1AD120460FF0BD
:102B9000E5FB25490FF0EAFCD8F838100FF02AFBC6
:102BA000002104460FF0CCFD30B920461D490FF03E
:102BB000E5FD10B11B4C00E00024C8F8384014209B
:102BC00091E098F8151014202144C829A8BFC82105
:102BD00021EAE17188F8151061E0114BD3F800800B
:102BE00098F80030022B21D120460FF0B7FB0D4999
:102BF0000FF0BCFCD8F828100FF0FCFA00210446B6
:102C00000FF09EFD30B9204606490FF0B7FD10B118
:102C1000044C00E00024C8F82840092063E000BF0D
:102C20000C1D00200000C84200007A4498F80310F0
:102C300009202144C829A8BFC82121EAE17188F8E8
:102C400003102CE0B54BD3F8008098F80030022B2D
:102C50001AD120460FF082FBB1490FF087FCD8F85B
:102C600034100FF0C7FA002104460FF069FD30B9A7
:102C70002046AB490FF082FD10B1A94C00E00024C2
:102C8000C8F834400A202EE098F80D100A2021449C
:102C9000C829A8BFC82121EAE17188F80D1006F003
:102CA00081FC68E09D4BD3F8008098F80030022B3F
:102CB0001DD120460FF052FB9A490FF057FCD8F86F
:102CC00040100FF097FA002104460FF039FD30B99B
:102CD000204693490FF052FD10B1914C00E00024C2
:102CE000C8F840400B20214606F070FC43E098F8FD
:102CF00017100B202144C829A8BFC82121EAE1717F
:102D000088F81710CBE7012835D19878864B33F92E
:102D10001110B1F5617F05DB40F633039942B8BF6E
:102D20000B4601E04FF46173B8F10C0F23D14FF45F
:102D30009664A3F5617394FBF0F493FBF4F492F8BA
:102D4000F530E4B2A34216D0032C94BF23460223ED
:102D500082F8F5300E2202FB03B3744A03F2AE731D
:102D6000136004F039FE4046214606F01BFC601C4F
:102D7000C0B20CF0A9FB012202FA09F26C4B93F8E5
:102D8000F4100A4383F8F42009F10109B9F1040FA2
:102D90000AF10C0A7FF41AADC6E43368D80510D5E1
:102DA000644BDB786BB1D8F80030990709D53B88C4
:102DB00013F001090AD105F00BF901200CF09CFB7E
:102DC00004E001200CF0C6FB012300E00023226890
:102DD00052070CD55BB101200CF0BCFB3B88980777
:102DE00008D405F0F5F802200CF086FB02E0022082
:102DF0000CF0B0FB3B88504A13F0030F4FF010016A
:102E000014BF51611161D8F8002012F00A0F2BD0C5
:102E10002268D1060DD55A070ED404200CF06CFBA5
:102E2000464BB3F904200A2392FBF3F2444B1A8079
:102E300002E004200CF08EFB23689B0606D53B883D
:102E4000580606D440200CF057FB02E040200CF05E
:102E500081FB2368590607D5384BB3F904200A23B0
:102E600092FBF3F2374B1A8023684FF480701A05F7
:102E700002D50CF041FB01E00CF06CFB324A5379B7
:102E80001746082B01D00E2B02D140200CF062FB1C
:102E900033685B0540F19B8097F820321BB92B7893
:102EA00013F0040F02E0236813F4002F0CD0204B22
:102EB000002283F8F6203C2002F04AFD002800F0B2
:102EC000868004F0CBFCF6E70CF0BEFF0CF032FD80
:102ED0007DE0012000E002205FFA80F909F1FF3374
:102EE0008BF8AC3705F074FF0BF0D4FB48460CF0C0
:102EF000EBFAFFF7B6BBBAF1000F3FF487AB7E2BBE
:102F00007FF484ABFFF7ABBBA72B21D10F4B1A7813
:102F100042F004021A70FFF7A4BB00BF0C1D002092
:102F20000000C84200007A44520200207C0C0020BD
:102F30005C1A0020740D0020000C0140B40B00202E
:102F4000240C0020981B00209C02002096020020E8
:102F50000022BB2B059201D1022303E0B72B04D141
:102F60004FF6FE73ADF8163009E0BE2B01D10223F7
:102F700003E0BD2B1AD14FF6FE73ADF81430D8F82C
:102F80000030BDF81410B3F860200A44A3F86020A4
:102F9000BDF81610B3F862200A44A3F862200BF0C3
:102FA00041FD002384F8BA30FFF75BBB792B04D1D5
:102FB000084BDA7822F0010206E07A2B7FF451AB5D
:102FC000044BDA7842F00102DA70FFF74ABB07B02F
:102FD000BDE8F08F8C160020834B2DE9F04FB3F93C
:102FE0000610824B91B018684389994211DBB1F504
:102FF000FA6F90F807E009DACA1A02FB0EFEA3F591
:10300000FA639EFBF3FE0EF1640E04E0CEF1640E53
:1030100001E04FF0640E8389994219DBB1F5FA6F34
:10302000047A10DA632CC3EB010205D9643CA4B224
:103030005443C3F5FA6302E05443A3F5FA6394FBE7
:10304000F3F4643405E0632C03D8C4F1640400E0B5
:103050006424674BB3F8962193F95E310492654A74
:103060009BB2D2F800C00593664600225E4B049DD9
:1030700033F912304FEA420803935B1B03F2F31754
:1030800040F2E635AF4203D8002BB8BF5B4201E007
:103090004FF4FA73022A4FF06407574D2ED09CF874
:1030A0001991B9F1000F04D04B45CCBFC9EB030314
:1030B000002393FBF7F96FF0630B35F819A00BFBB6
:1030C000093B09F1010935F919900FFA8AF5C5EBA9
:1030D000090505FB0BF595FBF7F5AA44474D28F8C4
:1030E00005A085182D796B43454D93FBF5F36433AB
:1030F0009BB20EFB03F393FBF7F72FE09CF81A91BA
:10310000B9F1000F04D04B45CCBFC9EB030300233A
:1031100093FBF7F76FF0630A05EB47090AFB073BE0
:1031200005EB4707B9F90E90B7F91050059FC9EBA9
:10313000050505FB0BFB9BFBFAFBC9EB0B0909FB28
:1031400007F92E4FA7F80490857983EAE377A7EB78
:10315000E3776F432A4D97FBF5F764370CEB0205D5
:1031600095F801A0244B07FB0AFA642503F11C091A
:103170009AFBF5FA09F802A096F80BA003F11F09D3
:1031800007FB0AFA9AFBF5FA09F802A096F815A0CF
:10319000022A07FB0AF703F1220997FBF5F71D4600
:1031A00016BF253383F8274003F802E009F80270C0
:1031B000039B049FBB42114F04DA37F808305B428F
:1031C00027F808300132032A06F101067FF44EAFDA
:1031D000074CB4F89831994214DBB1F5FA6FA8BFE7
:1031E0004FF4FA610FE000BF520200207C0C002077
:1031F0009C020020100C0020581B00201C0C0020FA
:103200000CFEFFFF1946C91A4FF47A725143C3F5F9
:10321000FA63B1FBF3F34FF0640E93FBFEF205EBA0
:103220004201088D6FF0630101FB023305EB42029E
:10323000B2F92A1002B28A1A534393FBFEFEB54B31
:1032400070441B88B44E5B06F88045D5B34BB3F988
:1032500004000A2390FBF3F0B14BB3F84030C01ADE
:1032600000B20FF07BF8AF490FF0CCF8AE498046C2
:103270000EF0C0FF05F019F88146404605F015F83C
:103280008046B6F902000FF069F88246B6F90000F0
:103290000FF064F8494683460FF0B4F84146034600
:1032A000504601930FF0AEF8019B014618460EF010
:1032B0009FFF0FF06DFA4946308050460FF0A2F89C
:1032C0004146814658460FF09DF8014648460EF0AB
:1032D00091FF0FF05DFA7080944B914E18880FF0BB
:1032E00039F8934B06F144010122B5F8428004F00D
:1032F00079FE0FF073FA8F4B80B2B8FBF0F000F15B
:10330000010C1B781FFA8CFCA5F84CC00BB3B6F966
:103310004EA00023824AFE5A02F1500E33F90E806D
:1033200002F158010AFB08F833F801900FFA8CFB00
:10333000C9EB060998FBFBF8C84423F80E805E52DF
:103340000233082BE6D17B4B00211970A2F84E0006
:1033500004E0B6F84E30013BA6F84E30B5F94E10F9
:103360006F4A00294FF000030FDDB2F94C60724A3A
:10337000A2F10800185E9A5A484390FBF6F0121A20
:10338000FA520233082BF2D101E0A2F84E306B4B17
:103390001A689A4612F0020F74D0694B2A6E1B68A5
:1033A00045F207219A1A8A425D4E6BDD33660DF0B5
:1033B000E5FA644BDFF8A0811A789946032AB8F839
:1033C000003022D10A2B2CD90023282089F8003084
:1033D00004F07FFB0DF0D2FAB6F8640002F0AEFE06
:1033E000594B5A491B68DA7890FBF2F0421C082AC4
:1033F00028BF08220A7059791B7992B251435A4367
:10340000A6F86610A6F868200BE00A2B09D803235B
:103410004E4A89F8003000231370A6F86630A6F8EB
:10342000683099F80020474B012A0DD002D3022AB8
:103430001ED027E0B5F86620B8F800309A4221DDAA
:10344000012389F8003011E0B8F80020B5F86810C1
:10345000914202DD02221A7011E03149B1F8661082
:1034600001318A4202DD00221A700BE0082007E0D9
:10347000B5F86830B8F8002001339A42E0DC072044
:103480000BF0EAFFDAF80020314E12F4006F00F082
:103490009E802B4BE86E1968214BC0EB010A45F268
:1034A0000720824540F393802748B7F90690D0F86B
:1034B0000080D96698F80A00B4F84E110128A9F5E1
:1034C0007A79244F03D06BD3022847D06AE093F86F
:1034D0008120196F03EB4202B2F88400082291FBAD
:1034E000F2FE80B2CEEB0101014491FBF2F2A3F8AF
:1034F0008C0092B2196740F6E4435343B8F80800D1
:103500004FF47A72C0EB13335343B8F9062093FBA0
:10351000F2F346E0440200201C0C0020B40B002013
:10352000581B002035FA8E3CDB0FC93F140C0020DD
:103530006F12833A39020020B01B0020D400002013
:103540000C310020A0120020501200204C0000205E
:103550002F3100205C120020541200203378B8F87C
:1035600008B05807C7F800B01CD5AC4802920BF061
:1035700055FF029A20B912F0100F18BF4FF0000942
:1035800009FB09F2322392FBF3F39944B8F90630B0
:103590004FF47A7203FB09F393FBF2F35B4400E010
:1035A00000233B603B68D5E9240103FB0AFA4FF492
:1035B0007A739AFBF3FA10EB0A0041EBEA710023ED
:1035C000C5E92401964A0FF029F9964B1860964BED
:1035D0001A68994612F4805F02D00A200BF03CFF73
:1035E000D5F89830914F002B58D0914AD7F89C10BD
:1035F00010689246814251D897F8A000B7F8A220EF
:10360000596810BB012087F8A0008A5C52B31A7871
:10361000D4F8DC37013A00FA02F21A4201D104F080
:103620008BFA012385F8A43004F024FAB5F8A2300F
:103630007E4FBBB9D7F898301B78053B012B11D8CA
:1036400004F0FDF9C7F8A8000CE04FF0000887F877
:10365000A0808B5C33B1404604F06EFA87F8A480FA
:1036600004F008FAD5F89820B5F8A21052686F4B0C
:10367000525CFE2A03D10022A3F8A2200EE0FF2A0A
:1036800002D104F061FA09E0DAF800000A2707FB2A
:1036900002020131C3F89C20A3F8A2103378590725
:1036A00003D5644B08225A613AE0D9F80020D207CA
:1036B00003D4614A43F001031370604B1B781B076E
:1036C00003D4337823F0010333705D4B1B685F072D
:1036D00002D55C4A128862B9B5F8AC200AB19807E5
:1036E00005D4594B1B88003318BF012300E0012388
:1036F0003BB1022385F8A430337823F00103337003
:1037000005E03278D10758BF022385F8A43004F0D1
:1037100096F9D5F8B030C01A002801DB04F0AAF9F8
:103720000CF092FB494B1A78002A00F09B80D5F8E8
:10373000B430002B00F0F186D5F8B4003B4C04F017
:1037400039FA002800F0E986D4F8B40004F02DFA24
:10375000092801D03F2852D14FF00008D5F8B860B1
:103760003B4F44462EB13B483968324611F0B8FD14
:1037700010B9B84604B93C46374B10379F42F1D3D5
:10378000ECB1D5F8B83022682848D75CD8F80020CA
:10379000D15CB94213D15A1C59B92D2B09D8C0F8A4
:1037A000B82003442027024483F8BC7082F8BC1080
:1037B00005E02B4483F8BC70C5F8B820E1E7D5F8E4
:1037C000B8300BB1444510D0244804F05BFA4445AE
:1037D00007D854F8100B04F055FA092004F04BFAFE
:1037E000F5E71F4804F04EFA0026D5F8B8309E429F
:1037F000A2D2184B985D04F03EFA0136F5E7D4F8F2
:10380000B830002B40F09486042840F0018704F182
:10381000BC0007F09DFC00F080BE00BF2404002027
:10382000407E05006012002040020020581B00204E
:10383000EC300020000C01402F31002096020020C7
:103840003C020020283100202A3100202D310020A8
:10385000D48E0108141C0020A490010810A60108B1
:1038600015A60108D44F97F84A30012B40F0508636
:10387000DFF86C83DFF86C933B68C8F80070C9F818
:103880000030C346DFF85CA35246106804F092F99A
:10389000002800F03086DAF8000004F086F9DBF842
:1038A0000030024693F8481019B924283DD101226E
:1038B00038E0012904D14D280CBF0222002231E05A
:1038C000022904D13C280CBF032200222AE003294C
:1038D0000CD140284FF0000102D983F848104EE087
:1038E00058711971D971987104221BE0042907D10C
:1038F000997983F8490080EA01029A71052211E062
:1039000005293CD1587919798842987906D95040CF
:103910009871481C18710B441A7230E090420CBF29
:103920000622002283F8482029E03178A34B49077A
:1039300025D4232ADAF8001016D1A1484FF0010E41
:1039400080F800E09F48C5F8B410C5F884110292D1
:10395000019304F097F99C4804F094F9019B1978BD
:1039600041F002011970029AD5F888311B78934210
:1039700005D1964A964B1A60964A974BDA60DBF867
:103980000030DFF85CA293F84820062A7FF47AAF73
:1039900093F8490000F082FE002840F0A585DAF88F
:1039A000002092F849B0BBF14A0F00F09A8562D826
:1039B000BBF1330F00F08A8429D8BBF1290F00F046
:1039C00023840CD8BBF1250F00F0FA83BBF1270F3D
:1039D00000F0FC83BBF1230F40F0A78531E1BBF180
:1039E0002D0F00F0228408D8BBF12B0F40F09D85ED
:1039F00003F0DFFE607100F074BDBBF12F0F00F02B
:103A0000DD84BBF1310F00F0EE8400F08EBDBBF120
:103A10003E0F00F0578114D8BBF1370F00F09584AA
:103A200005D8BBF1350F00F0A98200F07EBDBBF1D7
:103A3000390F00F0D883BBF13C0F00F04D8100F04E
:103A400074BDBBF1430F00F05D8408D8BBF1410F9A
:103A500008BF4FF0000900F03E8400F066BDBBF1E6
:103A6000440F00F0F484BBF1480F40F05E8505F090
:103A700007FD00F036BDBBF1D00F00F07F8367D8A3
:103A8000BBF1CA0F00F0418119D8BBF14E0F00F015
:103A9000EF83BBF1C80F00F0CA80BBF14C0F40F0C0
:103AA000448503F086FE84F8D60103F082FE84F894
:103AB000D70103F089FEA4F8D80100F012BDBBF1D4
:103AC000CD0F00F0668305D8BBF1CC0F00F08082EB
:103AD00000F02BBDBBF1CE0F00F06483BBF1CF0F24
:103AE00040F0238503F070FE6FF4AF6E00EB0E0321
:103AF0009BB2C62B98BFA4F8960103F065FEA4F80C
:103B0000400103F061FEA4F8420103F05DFEA4F859
:103B1000440103F059FEA4F8D80103F04AFE03F073
:103B200048FE03F046FE03F044FE84F8850103F0EE
:103B300040FE84F8920103F03CFE284BD3F800903D
:103B400003F042FE00EB80004000A9F85E004AE36B
:103B5000BBF1D80F00F0668115D8BBF1D30F60D050
:103B600004D8BBF1D20F49D000F0DFBCBBF1D40FB9
:103B700000F08982BBF1D60F08BF4FF0000900F0BA
:103B8000778200F0D2BCBBF1F20F00F0CC822BD8D0
:103B9000BBF1EF0F40F0C984DFF84090D9F800A0E6
:103BA00003F012FEAAF86200D9F8009003F00CFEB0
:103BB000A9F8600000F095BC441C00202F310020C3
:103BC0002D31002045A6010815A60108EFBEADDE87
:103BD000F04F00200400FA0500ED00E0100C00207A
:103BE000C8120020CC120020BBF1F30F00F0338488
:103BF000BBF1FA0F00F0E08200F097BC337803F0DD
:103C0000040303F0FF09002B40F06B8403F0D1FDA7
:103C1000022884F8AC0740F2B782C94B83F8AC970E
:103C2000B2E203F0D1FDC74B188000F05ABC92F805
:103C300005904FEA5909B9F1120F1CD84FF0000A4C
:103C40001DE003F0B6FD132815D8DFF814A300F12A
:103C5000200BDAF8003003EB8B0B03F0AAFDBA4B14
:103C60000BF1010903F5AE72197A814200F0488127
:103C70000C339342F8D101F067FE00F032BCCA4524
:103C800007D203F0A1FD07AB23F81A000AF1010ADD
:103C9000F5E700234B45AD4A06DA07A931F81310C2
:103CA00022F813100133F5E709F1FF3902EB49035C
:103CB0002232934203D0002123F8021FF9E70122A8
:103CC000A34B77E203F075FD84F8E00103F071FD8A
:103CD00084F8DF0100F005BCDFF88492D9F800A079
:103CE00003F067FD18B10228A8BF022000E0012000
:103CF0008AF80000D9F800301B78022B18BF954ACB
:103D0000954B08BF954A1A60EBE3954A81461168C6
:103D10009246097802296AD1DAF8003009F1080BD5
:103D2000019303F046FD0EF015FB8E490EF01EFCCC
:103D3000019B43F82B00DAF800B003F03AFD09F1DB
:103D40000A030BEB830B0EF005FB87490EF00EFC0C
:103D5000DAF80030CBF80400019303F02AFD0EF0EE
:103D6000F9FA82490EF002FC09F10E0B019B09F1F0
:103D70000109B9F1030F43F82B00CDD1B9F1070FB9
:103D8000DAF800B01AD103F014FD0EF0E3FA754929
:103D90000EF0ECFBCBF84400DAF800B003F009FDBC
:103DA0000EF0D8FA6F490EF0E1FBCBF84800DAF8D4
:103DB00000B003F0FEFC8BF84C0012E003F0F9FCBD
:103DC0000BEB09035870DAF800B003F0F2FC0BEBD0
:103DD0000903D872DAF800B003F0EBFC0BEB09032F
:103DE000587509F10109B9F10A0FC7D179E3DAF879
:103DF00000B003F0DEFC0BEB09035870DAF800B0FA
:103E000003F0D7FC0BEB0903D872DAF800B003F02B
:103E1000D0FC0BEB090309F10109B9F10A0F587540
:103E2000E5D15EE38146DFF838A109F1080BDAF845
:103E30000030019303F0C8FC0EF08CFA4B490EF0F1
:103E400095FB019B43F82B00DAF800B003F0BCFCB3
:103E500009F10A030BEB830B0EF07CFA43490EF0D9
:103E600085FBDAF80030CBF80400019303F0ACFCDA
:103E70000EF070FA3D490EF079FB09F10E0B019B33
:103E800009F10109B9F1030F43F82B00CBD1B9F1C6
:103E9000070FDAF800B01AD103F096FC0EF05AFAC8
:103EA00032490EF063FBCBF84400DAF800B003F0BF
:103EB0008BFC0EF04FFA2D490EF058FBCBF8480062
:103EC000DAF800B003F080FC8BF84C0012E003F04D
:103ED0007BFC0BEB09035870DAF800B003F074FCBC
:103EE0000BEB0903D872DAF800B003F06DFC0BEBB2
:103EF0000903587509F10109B9F10A0FC7D1F0E2B8
:103F00001B788BF8013003F054FC89F8010003F0B2
:103F100050FC89F8020003F04CFC89F80300144BB4
:103F2000DAF80000134AC3F8B40100218130C3F865
:103F3000B02103F073FD104B80F001001870D0E247
:103F40009C020020240C0020A4900108E41C002006
:103F5000150200201DD600085000002091D2000854
:103F6000100C0020000020410000C84200007A44EC
:103F7000581B0020DC0300200800002003F019FC7F
:103F80000B283FF678AE4FF0060A0AFB00F0D84B3C
:103F9000D0301B6803EB000A03F00BFC03283FF64C
:103FA0006AAE8AF8060003F004FC8AF8010003F008
:103FB00000FC8AF8020003F0FCFB8AF8030003F01F
:103FC000F8FB8AF8040003F0F4FB8AF8050088E2A5
:103FD0005379092B7FF64FAEDFF82093D9F800A074
:103FE00003F0E7FB8AF80000D9F800A003F0E1FB3A
:103FF0008AF8010003F0DDFBD9F800306428A8BF7F
:104000006420187103F0D5FBD9F800306428A8BFEC
:104010006420587103F0CDFBD9F80030FF28A8BF09
:10402000FF20987103F0C5FBD9F800A0642828BFD1
:1040300064208AF8070003F0BCFB8AF80200D9F874
:1040400000A003F0B6FB8AF80300D9F800A003F043
:10405000BBFBD8F80030AAF80A005B790A2B40F2C3
:104060004082D9F8009003F0A4FB89F8090038E2F7
:1040700003F0AAFB9F4B23F8090009F10209B9F1EB
:10408000100FF5D12DE253790F2B7FF4F4AD03F02F
:1040900090FB072881463FF6EEADDFF854A2DAF830
:1040A00000B003F091FB0E2303FB09F90BEB0903AE
:1040B000A3F82101DAF800B003F086FB0BEB09034B
:1040C000A3F82301DAF800B003F07EFB0BEB090341
:1040D000A3F82501DAF800B003F06BFB0BEB090342
:1040E00083F82701DAF800B003F063FB0BEB090358
:1040F00083F82801DAF800B003F05BFB0BEB09034F
:1041000083F82901DAF800B003F053FB0BEB090345
:1041100083F82A01DAF800A003F060FB0AEB090338
:10412000C3F82B01DDE103F044FB0F2881463FF685
:10413000A2AD03F03EFBC9EBC90904EB090383F808
:10414000D00003F1D00903F034FB89F8010003F03B
:1041500030FB89F8020003F02CFB89F8030003F020
:1041600028FB89F8040003F024FB89F8050003F01C
:1041700020FB89F8060003F045FEB2E133785907C9
:1041800000F1AF8107F046FB04F022FE0AF082FA4C
:10419000A7E133785A0700F1A4814FF4C873A5F85A
:1041A000AC309EE133785B0700F19B81524B1A786B
:1041B00042F004021A7094E133785807E4D5B4E170
:1041C000A06003F00BFB04F0E9F88AE103F0FCFACD
:1041D000A4F8580103F0F8FAA4F85A0103F0F4FA2D
:1041E000A4F85C017DE103F0E4FA84F87A0103F0BD
:1041F000E0FA84F87E0103F0DCFA84F87D0103F034
:10420000D8FA84F87F016CE103F0DEFAA4F88001AB
:1042100003F0DAFAA4F8820103F0CBFA84F88401FF
:1042200003F0D2FAA4F886015BE103F0C2FA84F845
:10423000900103F0C9FAA4F89A0103F0C5FAA4F8B2
:10424000960103F0C1FAA4F8980103F0B2FADAF883
:10425000003084F891015B79082B40F2428103F031
:10426000B3FAA4F89C0103F0AFFAA4F89E0138E178
:1042700092F805B00323BBFBF3FBBBF1120F3FF633
:10428000FAACDFF87C904FF0000ADA4580F0298123
:1042900003F08FFA89F8A00103F096FA40F2ED23BB
:1042A000984205DD40F6CA039842A8BF184601E0CF
:1042B00040F2EE20A0F2EE20192390FBF3F089F8F3
:1042C000A1010AF1010A09F10209DEE703F071FA1E
:1042D00084F8920105E103F06CFA04EB090309F19B
:1042E0000109B9F1080F83F88801F4D1F9E000BFA2
:1042F000100C0020A40D0020960200207C0C002051
:104300009C020020019003F054FA6071019BA360AD
:1043100003F064FA04F042F803F04BFA84F89001D9
:1043200003F052FAA4F8580103F04EFAA4F85A0127
:1043300003F04AFAA4F85C0103F046FAA4F88001FD
:1043400003F042FAA4F88201CBE053794FF0070A58
:10435000B3FBFAF2C2EBC2029A1A12F0FF0F7FF41B
:104360008AACB3FBFAFABAF1000F00F0BA8003F09E
:1043700020FA5FFA80FB4FFA8BF003F08FFA0AF114
:10438000FF3A5FFA8AFA814600283FF474AC80F85D
:1043900000B003F019FAA9F8020003F00AFA89F84C
:1043A000040003F006FA89F8050003F002FA89F820
:1043B000070003F0FEF989F80600D4E7DFF8D89289
:1043C00009F1400A03F000FAA9F8B00203F0F1F98C
:1043D00089F8B20203F0EDF909F1040989F8AF0296
:1043E000D145EFD17DE003F0E4F91F283FF643AC5F
:1043F000D8F800305B79082B7FF43DAC00F18C0AD3
:1044000003F0E2F904EB8A0900F03F00A9F802008A
:1044100003F0DAF9B9F80220800100F4FE531343E7
:10442000A9F8023003F0C5F9000104F82A0003F0EE
:10443000C0F914F82A3000F00F00184304F82A00DD
:1044400003F0B7F989F8010004F024F849E00123EA
:1044500085F8B83145E003F0ACF9FF28824623D156
:1044600000238DF81B309DF81B30052B15D89DF8C7
:104470001B20774B9DF81B10012003EBC1014968FD
:1044800000FA01F153F8320089B2482203F0AFF983
:104490009DF81B300133DBB2E3E76E484FF48051E7
:1044A000042203F0A4F91CE005283FF6E4AB002049
:1044B00003F0CCFB03F0A6FBD8F80030186803F03B
:1044C00069FBD9F8000003F0C9F9504609F0E8FD8E
:1044D0000A2003F0FEFA0BF02DFAD8F8003083F82A
:1044E00049B0002003F0B2FB03F08CFBD8F8003099
:1044F000002283F8482095F8B8314BB1386803F0B2
:1045000049FB0BF0A3F803F0EEFA534A534BDA6081
:10451000534B4C379F427FF4A6A9524B9B68002B0C
:1045200000F09380504898478FE001F00DFADBE7E8
:104530000C2803D14D4803F0A5FB59E00A2801D00F
:104540000D2857D14A4C4B4804F1BC0603F09AFBA6
:104550003046232110F0AFFE10B1801BC4F8B80024
:10456000D5F8B830002B38D0591E705C404A20284E
:1045700001D10B46F6E7C2F8B8301344002283F8A5
:10458000BC203D4B3D4CD3F800A0D4F80090DFF8A0
:10459000E080484610F09CFE08F1BC0706464946FC
:1045A0003846324610F09CFE354B38B908EB06020F
:1045B00092F8BC2052445278520703D010349C42E7
:1045C000E3D306E09C4204D2701CE3683844984769
:1045D00002E02C4803F056FB00232B480021302238
:1045E000C5F8B83010F034FE28480378002B94D07A
:1045F000274809E07F2811D1013BC4F8B8300022D8
:104600002344244883F8BC2003F03CFBFFF794B814
:104610000C288FD07F2804D1FFF78EB82F2B3FF6C0
:104620008BA8A0F12002D2B25E2A3FF685A813B96A
:1046300020283FF481A85A1C2B44C5F8B82083F8E1
:10464000BC0003F018FBFFF777B811B0BDE8F08F9E
:10465000E0A50108000801400400FA0500ED00E0B3
:10466000DC1C0020F80B0020121D00201AA60108F7
:10467000581B002036B201085C000020D48E0108CF
:10468000A490010825A60108141C00202D3100204B
:1046900015A6010841A601089C0200202DE9F04F53
:1046A0004728ABB0044600F0858600F2CE802E2865
:1046B00000F0348667D8222800F0E98423D8032844
:1046C00000F0628214D8012800F05382022840F0E2
:1046D000C186042003F0BAFA422003F082FA542083
:1046E00003F07FFA462003F07CFA4C2000F0E8BD8E
:1046F000042800F05382052840F0AC861A2003F00D
:10470000A5FA00245CE2282800F0A18515D8242809
:1047100000F08885262840F09D86D34C062003F0C3
:1047200095FAB4F8580103F094FAB4F85A0103F07A
:1047300090FAB4F85C0100F0D4BD2A2800F09A8504
:104740002C2840F08786C84C0C2003F07FFA94F8A0
:10475000900103F046FAB4F89A0103F07AFAB4F83B
:10476000960103F076FAB4F8980103F072FA94F81F
:10477000910103F036FAB4F89C0103F06AFAB4F838
:104780009E0100F0AEBD3A2800F013831DD83428F6
:1047900000F0B6840DD8302800F0D685322840F0DD
:1047A0005986012003F052FAAF4B93F8920100F0C2
:1047B00087BD362800F09885382840F04B860420C5
:1047C00003F044FAA84C00F033BD402800F07B858C
:1047D00011D83B2800F054843D2840F03B86A24C81
:1047E000022003F033FA94F8E00103F0FAF994F8A8
:1047F000DF0100F065BD452800F0FF8500F2C985A6
:10480000422840F02786984C102003F01FFA607968
:1048100003F0E7F9A06803F025FA94F8900103F09B
:10482000E0F9B4F8580103F014FAB4F85A0103F0AF
:1048300010FAB4F85C0103F00CFAB4F8800103F04C
:1048400008FAB4F8820100F04CBD6F2800F00E8326
:1048500000F21A81662800F0F18100F2DD804D2817
:1048600000F00E8515D8492800F0FA824B2840F058
:10487000F1857D4C042003F0E9F994F8D60103F0AA
:10488000B0F994F8D70103F0ACF9B4F8D80100F00E
:1048900028BD642800F0AD81652840F0DB850B2041
:1048A00003F0D4F9714B724C188803F0D2F92088C8
:1048B00080B203F0CEF96F4B1B68C3F3C000C3F3A3
:1048C0008002800040EA4200C3F340021043C3F379
:1048D000401240EAC20003F01003184303F0B9F994
:1048E000654BA4781A8812F0010F0CBF002002203B
:1048F00012F0020F0CBF0021042112F0040F0CBFB4
:104900000023102303935D4B02F0080A1B6812F08A
:10491000400F03F0C00B03F480794BEA0A0A0CBF86
:104920000026202603F4805812F0100F4AEA090AE4
:10493000019003F4005C0CBF00204FF400704AEAC1
:10494000080A12F0200F029103F4804E0CBF0021E0
:104950004FF480614AEA0C0A12F4807F04960590B5
:104960000CBF00264FF4006603F4003003F4004748
:104970004AEA0E0A0796089003F480364AEA070AC4
:1049800006914AEA060A03F48021089E09914AEA40
:10499000060A099E03F400254AEA060A03F4801079
:1049A0004AEA0505284303F000730343344812F430
:1049B000007F06780198C6F3800643EA0603029E4C
:1049C00043EA0003039843EA0603049E43EA000314
:1049D000059843EA0603069E43EA0003079843EA64
:1049E000060343EA00030CBF00214FF4001112F448
:1049F000806F43EA01010CBF00234FF0806312F087
:104A00001B0F41EA03014FF000000CBF00234FF0E1
:104A1000006319430346FCE0692800F0AC810AD822
:104A2000672800F03381682840F01485102003F0D7
:104A30000DF9002497E16D2800F0B28100F2E281C7
:104A40006C2840F007850F4C062003F0FFF8208803
:104A500003F0FFF8608803F0FCF8B4F904000A23BF
:104A600090FBF3F0FAE100BF9C020020140C002040
:104A7000181D00203C0200204402002040020020BB
:104A80002F310020B40B0020772800F08B834BD807
:104A9000732800F0A2833CD8702800F0118272289D
:104AA00040F0D884C54C162003F0D0F8B4F8960135
:104AB00003F0CFF8B4F8400103F0CBF8B4F84201AA
:104AC00003F0C7F8B4F8440103F0C3F8B4F8D80110
:104AD00003F0BFF8002003F084F8002003F081F811
:104AE000002003F07EF894F8850103F07AF894F83A
:104AF000920103F076F8002003F073F8B04B1B68C6
:104B0000B3F95E000A2390FBF3F080B203F0A1F842
:104B10008EE3742800F01483752840F09B842F20C6
:104B200003F094F8A74CA3E2A02800F06D830AD804
:104B3000782800F0B7807B2840F08C843C2003F07C
:104B400085F800243EE2F12800F0E780FE2800F01E
:104B50004F83F02840F07E84994C042003F076F8CF
:104B60002368B3F8620003F074F82368B3F86000B8
:104B7000B7E3032003F06AF8002003F032F8204680
:104B800003F02FF80D209BE303F060F8022003F000
:104B900028F8012003F025F8022091E3062003F015
:104BA00055F8412003F01DF8462003F01AF84E2076
:104BB00003F017F8412003F014F8834B187890E3C2
:104BC000824B185D013403F00CF80B2CF8D1002453
:104BD0007F4B185D013403F004F8082CF8D1002451
:104BE0007C4B185D013402F0FCFF072CF8D100F07B
:104BF00015BC072003F02AF8E72002F0F2FF6F4B04
:104C0000587902F0EEFF002002F0EBFF042000F0E4
:104C100003BCA3420CD2704A9D5C012202FA05F546
:104C20000D4218BF9A4003F1010318BF1043F0E78B
:104C300003F018F8614B93F8AC0741E3122003F03E
:104C400005F8664B00241B88B3F5806F94BF0125DF
:104C50000825634BE05E023490FBF5F080B202F071
:104C6000F8FF062CF5D15F4C208C02F0F2FF608C2F
:104C700002F0EFFFA08C5C4C02F0EBFF208802F00A
:104C8000E8FF608802F0E5FFA0882AE3102002F028
:104C9000DDFF0024554B185D013402F0A2FF102CFB
:104CA000F8D1BBE3702002F0D1FF00260E2474433C
:104CB000434D01362B682344B3F8210102F0C9FFAC
:104CC0002B682344B3F8230102F0C3FF2B6823446D
:104CD000B3F8250102F0BDFF2B68234493F82701A8
:104CE00002F07FFF2B68234493F8280102F079FF3C
:104CF0002B68234493F8290102F073FF2B682344A7
:104D000093F82A0102F06DFF2B681C44D4F82B01A4
:104D100002F0A8FF082EC9D180E3702002F096FFB0
:104D2000264C04F1700594F8D00002F05AFF94F874
:104D3000D10002F056FF94F8D20002F052FF94F82E
:104D4000D30002F04EFF94F8D40002F04AFF94F82A
:104D5000D50002F046FF073494F8CF0002F041FF7F
:104D6000AC42E0D15AE3224B185D013402F039FF26
:104D7000102CF8D152E31B4D002495F8260040007A
:104D800000F0FE0002F062FF95F826309C4280F0B1
:104D90004583184B33F8140002F05BFF0134F3E74E
:104DA000062002F053FF144B186802F05BFF134B10
:104DB0005AE0042002F04AFF114B31E29C0200202D
:104DC000100C00200392010830310020339A0108B2
:104DD0003F9A0108179A01081B1D002010000020AF
:104DE0004A120020181D002090020020BC0D002057
:104DF0005C0D0020520200204C020020E00B00203D
:104E0000BC0B0020072002F021FFB14B4FF6FF74CE
:104E10001888FF28A8BFFF20C0B202F0E2FEAD4B09
:104E20001868A042A8BF204620EAE07080B202F0D5
:104E300010FFA94B188D02F00CFFA84B93F88521A9
:104E4000A74B42B11B680A205843A042A8BF204686
:104E500020EAE07002E0186800F30F0080B240E240
:104E6000022002F0F3FE9F4B18883AE29E4C0B2082
:104E700002F0ECFE23680025187802F0B2FE2368E9
:104E80002646587802F0ADFE3368974C2B441879CB
:104E9000013502F0A6FE032DF6D12368D87902F081
:104EA000A0FE2368987802F09CFE2368D87802F070
:104EB00098FE2368588902F0CCFE2368587AFFE1F7
:104EC0008A4D1E2002F0C2FE2B6800241B78022BA4
:104ED00065D12B6804F1080253F8220084490DF0D3
:104EE00091FA10F015FD80F30800C0B202F079FECF
:104EF0002B68804903EB8403D86A0DF083FA10F025
:104F000007FD80F30800C0B202F06BFE2B6804F1CD
:104F10000E0253F8220078490DF074FA10F0F8FCF4
:104F200080F30800C0B2013402F05BFE032CD0D144
:104F3000072C2B6821D1586C6D490DF063FA10F0E5
:104F4000E7FC80F30800C0B202F04BFE2B68684912
:104F5000986C0DF057FA10F0DBFC80F30800C0B23B
:104F600002F03FFE2B6893F84C000DF0F3F910F0BF
:104F7000CFFC80F30800C0B20BE02344587802F065
:104F800030FE2B682344D87A02F02BFE2B68234492
:104F9000587D013402F025FE0A2CC9D13EE22B686F
:104FA0002344587802F01DFE2B682344D87A02F07F
:104FB00018FE2B682344587D013402F012FE0A2C9F
:104FC000EDD12BE2494D04F108022B684A4953F810
:104FD00022000DF017FA10F09BFC80B202F039FEAF
:104FE0002B68454903EB8403D86A0DF00BFA10F0E7
:104FF0008FFC80B202F02DFE2B6804F10E0253F8F4
:1050000022003D490DF0FEF910F082FC013480B21F
:1050100002F01FFE032CD5D1072C2B6816D1586C3B
:1050200035490DF0EFF910F073FC80B202F011FE7B
:105030002B683149986C0DF0E5F910F069FC80B2ED
:1050400002F007FE2B6893F84C000BE023445878DD
:1050500002F0FFFD2B682344D87A02F0FAFD2B689A
:105060002344587D013402F0F4FD0A2CD4D1D5E15B
:1050700014F8010F002800F0D18102F0B2FDF7E72B
:10508000012002F0E3FD194B1B68187818E150204D
:1050900002F0DCFD0024154B04F120021B680C21FA
:1050A00003EB82035D1C154A5B78013401FB03238B
:1050B000187A02F096FD687802F093FDA87802F065
:1050C00090FDE87802F08DFD142CE4D1A6E100BF3C
:1050D0005412002060120020181D00209C020020A5
:1050E0005C1200200C0C00207C0C0020100C002016
:1050F000000020410000C84200007A44A49001084A
:10510000482002F0A3FD002506266E43C44BD0368E
:105110001B6801351E44B07902F063FD707802F01F
:1051200060FDB07802F05DFDF07802F05AFD307954
:1051300002F057FD707902F054FD0C2DE4D16DE1C1
:10514000002701240025B74B9A78954222DA0333D1
:10515000E95C0023B44A03EB02089A5C8A4204D05B
:105160000C33B3F5AE7FF5D112E0D8F8040010F09F
:10517000AFF881460CB9264601E0074408E04E45E9
:1051800006DAD8F80430985D02F02BFD0136F6E718
:105190000135D8E7002C00F04181F8B202F056FD4D
:1051A0000024CFE79F4D0024A87802F04FFDAB7894
:1051B0009C4280F033819D4BE05C00239A4A991811
:1051C0009A5C824204D00C33B3F5AE7FF6D102E094
:1051D000087A02F006FD0134E9E7082002F036FD06
:1051E0000124E0B2013402F0FCFC092CF9D115E1F4
:1051F000082002F02BFD00248D4B185B023402F0D6
:1052000028FD082CF8D109E10C2002F01FFD894B84
:10521000186802F027FD884B186802F023FD874BC1
:105220001868F9E0042002F011FD854B9868F3E05E
:1052300094F87A0102F0D5FC94F87E0102F0D1FCDA
:1052400094F87D0102F0CDFC94F87F0138E07C4CAD
:10525000072002F0FBFCB4F8800102F0FAFCB4F87D
:10526000820102F0F6FC94F8840102F0BAFCB4F872
:10527000860136E0012002F0E9FC714B58791FE00D
:10528000684E704C96F82600002500EB4000C0B236
:1052900002F0DCFC96F8263002349D4280F0BE809D
:1052A00014F8020C02F09DFC14F8010C013500EB1F
:1052B000800000EB800000F2EE2002F0CAFCE9E77B
:1052C00002F08FFCAAE0082002F0C0FC00245C4B36
:1052D000234493F88801013402F083FC082CF6D1B2
:1052E0009CE002F0B6FC99E04E4B554C93F832002E
:1052F00004F12805C0EBC000C0B202F0A7FC94F88E
:10530000F6010023504AD25C904200F0A5800C3395
:105310003C2BF7D10834AC42F1D17FE0402002F0C1
:1053200095FC474C04F14005B4F8B00202F091FC42
:1053300094F8B20202F055FC043494F8AF0202F083
:1053400050FCAC42F0D169E0E02002F07FFC3C4C24
:1053500004F18005B4F83202043400F03F0002F09A
:1053600078FCB4F82E02C0F3861002F072FC94F8B8
:105370002C02000902F035FC94F82C0200F00F001A
:1053800002F02FFC94F82D0202F02BFCAC42E1D18C
:1053900044E02E4C0D2002F059FC08F091FF02F081
:1053A00020FC208802F05EFCE06802F05BFC03F069
:1053B000E5F831E002F012FA0446842002F046FCDF
:1053C000204602F04FFC214BDD6804F18003AB4224
:1053D0008CBFC4EB0505802504F00AFA20462A4656
:1053E0000AA908F0A1FF00240546AC4216DA0AA972
:1053F000085D02F0F6FB0134F7E7132002F026FC0B
:105400000024134B185D013402F0EBFB0B2CF8D198
:10541000002002F027FC002002F024FC012032E0F2
:10542000100C0020181D0020A49001081B1D002056
:10543000421D0020E8F7FF1FECF7FF1FF0F7FF1FEA
:105440009C0200203C0400204C1D00202000002075
:10545000339A0108002016E002F0C3FBB4F8F8010B
:1054600002F0F7FB94F8FA0102F0BBFB94F8FB01A1
:1054700002F0B7FB94F8FD0102F0B3FB94F8FC01D5
:1054800002F0AFFB46E72BB0BDE8F08F084BDA68BF
:10549000D10709D4DA68520708D4DB6813F0100F7B
:1054A0000CBF042003207047012070470220704782
:1054B0000020024030B500221346214914180C5D2B
:1054C00083EA0423082413F4004F4FEA430318BF70
:1054D00083F4815304F1FF3418BF83F0010314F007
:1054E000FF049BB2EFD10132192AE6D100F1190273
:1054F0008D5C00F11A028A5C02EB052292B29A429C
:105500001DD1104B1D782346DAB2AA4214D2441C96
:1055100004EB4202D2B28C5C01328A5C02EB0424BE
:10552000A4B24FF4AF625443074A241304F54874FD
:1055300022F813400133E7E7044B01221A7030BD13
:10554000881D0020FB160020AA1D00201402002048
:1055500003788B4283BF034B03EB4101488C00204F
:10556000704700BF881D002003788B420AD9064B84
:105570001A78064B53F8210002B1400800F5777005
:1055800080B2704700207047ED260020FC0000200C
:1055900007299ABF024B33F821000020704700BF53
:1055A000F4010020024B33F81100C008704700BF1F
:1055B000BC01002008B5074B53F821000CF0CAFECF
:1055C00005490CF01FFF05490CF014FE0DF006F91B
:1055D00080B208BD300100200000203F00005C4484
:1055E000014B33F811007047E41C0020014B33F8E5
:1055F0001100704718020020F8B5074602F01FFAA4
:105600002B4E2C4CF36B2C4DC31AB3F5FA5F33645D
:10561000F06302D9002323702B7023781BB9A12FCC
:1056200004BF01222A702A781AB1FFB2F75401335D
:105630002370224B21781A781F46914236D1204B95
:105640001B78052B02D0062B03D02CE00020FFF79F
:1056500031FF73781E2B26D138780022013813468B
:10566000D1B2814219DA775C19463B46082781EAB4
:10567000030C1CF0010F1CBF83F01803C3F3460397
:1056800007F1FF370CBF5B0843F0800317F0FF07FB
:10569000C1F34701EBD10132E2E7325C934202D120
:1056A0000320FFF707FF00232B702370F8BD00BF16
:1056B000881D0020F9160020F8160020FA16002098
:1056C000FC16002010B5044602F0B9F90D4B41F26A
:1056D00088315A6C5864821A8A429A6484BF0022C4
:1056E00083F84C2093F84C30074AE4B20F2BD45483
:1056F00003D1064B01221A7010BD024A013382F811
:105700004C3010BD881D0020E9000020E000002082
:1057100010B5044602F093F90D4B41F288311A6D31
:105720001865821A8A425A6584BF002283F858207D
:1057300093F85830074A142BD45403D1064B012256
:105740001A7010BD024A013382F8583010BD00BFF4
:10575000881D0020DD010020DC01002010B504467A
:1057600002F06DF9244AD36DD065C31AB3F57A6F90
:1057700084BF002382F8603092F8603033B9A82CDF
:1057800039D11E490B701E490B8006E0022B02D155
:105790001C490C7001E0242B01D81B49CC54013367
:1057A000DBB282F86030174A12780232520093421C
:1057B00017DA134AE0B2138883EA0020082310F4B2
:1057C000004F4FEA400018BF80F4815003F1FF33CF
:1057D00018BF80F0010013F0FF0380B2EFD11080FA
:1057E00010BD0132934206D1034B002283F86020A2
:1057F000024B01221A7010BD881D0020910100206B
:1058000094010020920100209601002010B504466A
:1058100002F015F90E4B40F6AC515A6E821A8A42CC
:10582000C4BF002283F8682093F8682009498C548B
:105830001AB90F2C0BD1064948660132D2B283F84F
:105840006820192A044B0CBF012200221A7010BDD7
:10585000881D0020780100202C010020031E10B5B7
:105860000C4603DA2D2201F8012B58420A2202F0DD
:10587000CFFC00230370204610BD30B587B005462D
:105880000C4603A800210C220FF0E2FC2846002160
:105890000CF074FF20B1284628490CF0ABFC03E063
:1058A000284626490CF0A4FC25490CF0ABFD0CF071
:1058B0006FFF054685EAE570A0EBE5706946FFF7E6
:1058C000CDFF002DACBF20232D2368468DF80C3072
:1058D0000FF0FEFC012807D130238DF80D308DF834
:1058E0000E308DF80F300CE0022805D130238DF8F2
:1058F0000D308DF80E3004E0032804BF30238DF8FE
:105900000D30694603A80FF0C9FC03A80FF0E0FCB6
:105910000338C5B22A4603A920460FF003FD002331
:105920006355204607490FF0B9FC03A920462944D6
:105930000FF0B4FC204607B030BD00BF6F12033A31
:1059400000007A44D8AA01080120002102F060B9C1
:10595000F0B5144B144C1E682378042B1FD85D1C23
:1059600006EBC3039A1CEDB207D0518811F0010277
:1059700003D008420CBF00220122D2070DD59F7828
:1059800000230A4A9918D25C974203D00C333C2B6F
:10599000F7D102E025704868F0BD2B46DDE72370A3
:1059A0000020F0BDE01C0020521B00204C1D0020F8
:1059B0000A88F0B54B888F880E89CD88002A3AD1A5
:1059C000048C834A24F001042404240C0484018BF5
:1059D000048C89B221F0F30141EA0616B6B2904276
:1059E000A4B246EA070743F0010315D002F50062AE
:1059F000904211D0B0F1804F0ED0A2F59832904273
:105A00000AD002F58062904206D002F58062904290
:105A100018BF24F00A0401D124F0020423430783B1
:105A20000384038B23F00C031B041B0C0383038BE5
:105A30009BB21D4344E0042A44D1048C644A24F000
:105A400010042404240C0484018B048C21F4407180
:105A50000905090D41EA063189B241EA072790425A
:105A6000A4B2BFB212D002F5006290420ED0B0F1E3
:105A7000804F0BD0A2F59832904207D002F5806299
:105A8000904203D002F58062904207D124F02004B6
:105A900044EA03139BB243F0100304E024F0A00493
:105AA00043F01003234307830384038B23F44063F1
:105AB0001B041B0C0383038B9BB243EA0525ADB289
:105AC0000583F0BD082A018C3ED121F480710904C0
:105AD000090C0184818B3E4A89B221F0F301048CC8
