:020000040800F2
:10000000005000201D300108C9300108F119010815
:10001000C9300108C9300108C930010800000000DA
:10002000000000000000000000000000C9300108CE
:10003000C930010800000000C9300108C1190108D9
:10004000C9300108C9300108C9300108C9300108A8
:10005000C9300108C9300108911801088D1801083C
:10006000C9300108C9300108C9300108C930010888
:10007000C9300108C93001084D180108C93001080C
:1000800095180108C9300108C9300108C9300108B4
:10009000C9300108C9300108C930010889180108B0
:1000A000C930010809180108C930010819180108E8
:1000B000F9170108E9170108D9170108D118010833
:1000C000C9180108CD180108C5180108C930010870
:1000D000C93001084118010835180108291801081C
:1000E000D1190108C9300108C93001080000000019
:1000F0000000000000000000000000000000000000
:0C01000000000000000000005FF808F1A3
:100110002DE9F04F744B754EA1B03360002373602E
:1001200006F00EFC18B910F011FD06F02DFC0EF0D3
:10013000C1F86F4B6F4C1A786F4D42F001021A7084
:100140000023089309930A934FF4E0130B93236859
:100150002A7B43F480332360A36943F01003A36137
:10016000236803F400330993089B01330893099B28
:100170001BB9089BB3F5A06FF2D121685D4B11F458
:10018000003101D0022315E0186840F0010018602A
:100190000891236803F002030993089B0133089335
:1001A000099B1BB9089BB3F5A06FF2D123689F0789
:1001B00039D501230A93514B5148196841F0100178
:1001C0001960196821F003011960196841F00201F2
:1001D00019606368636063686360636843F48063A5
:1001E0006360484B1968043B21F0704159604649EF
:1001F0000860606820F47C106060586840F000403F
:100200005860D86820F40040D8609B68180449BF43
:100210003E4B4FF4E0130B604FF480130B930A9B9B
:10022000012B01D117E0FEE7022B18D16AB10B9B1D
:10023000B3F5801F02D14FF4A01305E00B9BB3F57B
:10024000E01F02D14FF400130B9362680B9B134322
:1002500043F4803302E0636843F46013636023680F
:1002600043F0807323602268224B9201FBD55A68C9
:1002700022F003025A605A6842F002025A60626831
:100280001C4B02F00C02082AF9D15868204A00F0F1
:100290000C00042803D0082804D0194B00E00B6898
:1002A000136011E058685F68C0F38340FF0300F1FA
:1002B000020001D4174B05E05B6813F4003F0B68A4
:1002C00018BF5B085843106063681348C3F30313F7
:1002D00003441F7E1368FB4013600A6808498A4282
:1002E0001CD101211EE000BF996F00086813002097
:1002F00010310020001002409C020020002002402B
:1003000000127A000410014014000020001BB70006
:100310005000002000093D00FC87010868498A421E
:1003200002D10221674A1170DFF8CCA1664A20AFE2
:10033000CAF80C20A269DFF8B89142F00102A2616C
:10034000626ADFF8B0B1B260626A4FF0000842F052
:1003500080726262A269484642F01C02A2614FF6B6
:10036000FF7227F82C2D3946029304978DF856809A
:100370000FF02BFA584604990FF027FA53480499C6
:100380000FF023FA02228DF83B2020AF4FF40072C9
:1003900027F8482D4FF0100C05978DF83AC04846C5
:1003A000C9F810200599CDF80CC00FF00EFA484A94
:1003B0000498516841F00071516005F0DBFA45493D
:1003C000159A4548B2FBF1F2F2604146182214F04A
:1003D00079FF029B4FF47A72B3FBF2F33F4A013B81
:1003E0005360F0238AF823300723C2F80880136093
:1003F000AB68DFF808A1049FCAF80030384BDDF87D
:100400000CC00FCB87E80F00A369159843F00803D1
:10041000A361A36916A943F00803A3610823CBF8DD
:100420001030CBF810C00FF0D0F9179818A90FF0C2
:10043000CCF9DAF800301A0766D52A4890F89031DE
:10044000012B61D8284B90F891219B6813F08059BB
:1004500000F0E9854346002B56D0244BDFF894800A
:1004600018684FF0100BC8F814B004991590204884
:100470000FF0ABF91E4908230B613C2006F089FC04
:10048000C8F810B04FF0000B95F891319B4537DA62
:10049000184B174A4FF00808C3F810807820C2F8AC
:1004A0001480029306F06AFC029B7820C3F8148043
:1004B0000F4B0BF1010BC3F8108006F05FFCE3E774
:1004C000001BB700383100200005FA05001001407C
:1004D0000000014040420F00F830002010E000E032
:1004E000248801089C020020681300203488010839
:1004F00000080140000C014000ED00E0D4000020A5
:10050000B9F1000F00F09885642006F042FCA022AB
:100510005248002114F0D6FEE369002243F007039D
:10052000E361A36943F4006343F00C03A3614C4B04
:100530004FF0000903F1100102F8019001320E2A78
:10054000F5D1FF229A77DA7783F8202083F82120EB
:10055000444B454ADAF800801A60494643483C2239
:1005600014F0B0FE08F04004052349460C20404A30
:10057000484311F802E03D4A00F802E054B9AEF1F8
:100580001E0EBEF1010F05D84FF0FF0E013B00F823
:1005900002E0DBB201310529E8D13649364A716201
:1005A000C0311370B1626A793449354B01EBC20135
:1005B00049781A7018F0200F294B18BF0121D96211
:1005C0000023304940F2DC5058520233102BF8D14E
:1005D000012A22D12C4B0A311C682C4BB4F90C0097
:1005E0001A682B4B46321A602A4B196011F0F0FE44
:1005F000294911F0F5FF6289284BB4631A80E38919
:10060000274CB386D4F80080306306F0C9F823681D
:10061000C8EB0308234BA3F80080059800211C2297
:1006200014F050FEDAF8004014F4007804F4006787
:100630003ED0A3040DD44FB11B4B95F88411A3F108
:100640000C02012918BF1346069304E017480690D0
:1006500001E015490691049A14922BE0542F0020D2
:1006600068130020101C0020900400207C1C002037
:10067000A3A40108AC0200207A1C002088A5010870
:100680008A0C0020BC0D0020800C0020D00D002022
:100690008C0C0020900C0020000020419A0C0020BF
:1006A000F4300020721C002008880108FC87010833
:1006B000CDF818806B790E2B03D003F0EF03082BD5
:1006C00002D101238DF84A30012006F06BFA18B1EF
:1006D0004088003018BF0120C4F340038DF83E303D
:1006E000C4F380138DF84130C4F3403300F00100AF
:1006F0008DF83830C4F3C0338DF83D008DF83B30B1
:100700003FB195F88471B7F1010EDEF1000757EBA8
:100710000E07C4F300438DF84230F36A18F1000865
:1007200018BF4FF00108003318BF01238DF8443083
:10073000C4F300538DF84530B5F846318DF83C7060
:10074000ADF84830B5F85231B5F84471ADF84630DF
:10075000C4F380438DF83F3095F8543104F0010123
:10076000181C18BF01208DF84000B5F85001C4F3E3
:10077000C002E4048DF839108DF83A208DF84380DA
:10078000ADF84C00ADF84E7004D5B14CB4F84C4106
:10079000ADF84E40B0F5FA7F02D90BB9ADF84E3046
:1007A00095F8D431AB4886F83C30002386F83D30CC
:1007B00043709DF84A30002B14BF0223002301B977
:1007C00002B10133A44F4FF0000B07EB8303DB6B47
:1007D000CDF814B00793079F4FF6FF7337F80B203F
:1007E0009A4200F08C81D3B29C4E9DF83D101D01C1
:1007F000741919B1991E012940F27B819DF84110AD
:1008000021B171599648814200F073819DF8427080
:1008100027B171599248814200F06B819DF83E10DA
:1008200039B161688F48814203D12189102900F0D4
:1008300060819DF83B1039B161688A48814203D1DB
:100840002189022900F055819DF83C1039B1616879
:100850008548814203D12189022900F04A81DDF8CF
:1008600050E0BEF1000F0FD06068DEF80010884243
:100870000AD12189BEF80400884200F03A81BEF80E
:100880000600884200F035814FEA1228B8F1020FC5
:1008900002D19DF8382004E0B8F1010F04D19DF891
:1008A0003920002A00F025819DF8442062B19DF88E
:1008B0004A204AB9A3F10802012A05D871596B4AA6
:1008C000914208BF4FF004089DF8452052B19DF8B1
:1008D0004A203AB917B10C3B012B01E0043B032B32
:1008E00040F2EF80B8F1010F40D1614FFF2387F84C
:1008F000843087F88530637B4FF000092289606877
:100900008DF8563015A9022387F88890C7F89440CF
:100910008DF85730ADF8542087F84090C7F84490D0
:10092000C7F84890C7F84C90C7F8809087F8869031
:1009300087F887900EF049FF7059A17A4A460DF06A
:100940006FFC20464946424605F0EBFC494BC7F890
:10095000A090C7F89830484B2046C7F89C3007F164
:10096000980107F19C020AF051FEC2E0B8F1020FB3
:100970003DD1059F1C21FBB24B43404A0598D71837
:100980004FF000094FF0010C787087F8029087F85B
:100990000A9002F803C0637B2289FC60606815A995
:1009A0008DF85630CDF80CC0ADF854208DF8578036
:1009B0000EF00BFF7059A17A4A460DF031FCDDF8BC
:1009C0000CC020466246494605F0ABFC2C4BC7F8EC
:1009D00018903B612B4B07F110017B6107F114026A
:1009E00020460AF013FE059F0137059781E0B8F114
:1009F000030F63D19DF83F301D4D8BB19DF8403002
:100A000095F83E603BB1BDF84C301F4A2046B2FB22
:100A1000F3F2082141E0204608214FF6FF723FE043
:100A2000BDF84C3095F83E60B3F5FA7F30D9164AE0
:100A30002046B2FBF3F20821BDF84E3092B205F029
:100A400043FD05EB8606C6F86801104B2FE000BF9A
:100A50009C020020A5130020FC870108A8A401081F
:100A60000004004000080140000C0140002C01403F
:100A70006813002085EF000889F00008F0130020BB
:100A80005DE2000861F0000800127A00A9F0000899
:100A9000B14A2046B2FBF3F20121BDF84E3092B2CA
:100AA00005F012FD05EB8606AC4BC6F86801C36085
:100AB00095F83E30013385F83E301AE0B8F1040F66
:100AC00017D1BDF84630A44AA54D92FBF3F220465B
:100AD000BDF84830012192B295F83D6005F0F4FC74
:100AE00095F83D3005EB86060133C6F8980185F888
:100AF0003D300BF1020BBBF11C0F7FF46CAE984C38
:100B0000984E94F83D30002784F8B831964B3770F2
:100B10001D78A5F11703022B18D8636A0021D85954
:100B200003EB070811F03CFE10B1E36A5BBB25E064
:100B30008E4B07EB030E98E80F008EE80F0033781A
:100B400010370133C02F3370E7D1EEE7884B13F82D
:100B500035C003EBC503D3F8048086F800C0B8F1B4
:100B6000000FE2D06745E0DA804A3B0103EB020E5A
:100B700043440FCB01378EE80F00F3E7DAF800307B
:100B8000DF0427D420E07B48754A00EBC50393F8C7
:100B90004C001F6D82F8B901002FEFD00023834273
:100BA000ECDAC3EBC3017A18D2F80080DFF8FCC19D
:100BB000013341F80C8001EB0C0E9188AEF8041063
:100BC00092798EF80620EAE705F0EF03082B6A4BCE
:100BD00025D126E096F80080B8F1010FF4D9674ED0
:100BE0000027474506F11006EEDA56F8100C4FF0D4
:100BF0007C5111F041FC4FF07C5146F8100C56F836
:100C0000140C11F039FC4FF07C5146F8140C56F8D6
:100C10000C0C11F031FC013746F80C0CE1E70E2DFD
:100C200008D11A78182D42F010021A7008D106F077
:100C300015FB05E01A78192D22F010021A70F5E75D
:100C40000BF086FADAF800305D0302D44C4B012237
:100C50001A704C4B4C4D1A784C4F42F004021A70EB
:100C60002B784FF48052012B8CBF102314238DF866
:100C700056304FF002038DF85730BB69ADF8542061
:100C800043F00403BB618CBF012600264048049951
:100C90000EF09BFD3F4B0EB13F4A00E03F4A002063
:100CA0001A6006F0A9F8049A3D4B3E4E93E8030003
:100CB000BB6982E8030043F0080316A9BB611598DD
:100CC0000EF083FD0FF06CFC9F238DF83430322042
:100CD00000234FF480588DF835308DF836308DF87C
:100CE000373006F056F80422C6F8148004980DA98F
:100CF00008F0F0FFC6F810809DF856209DF855309A
:100D0000120242EA03429DF857301A43264B9A4298
:100D100014D0322006F03DF8C6F81480F52009F012
:100D200031F8FF2009F02EF87028C6F8108005D1A0
:100D30002B78022B02D1144B03221A702B78032B31
:100D40000CBF1F20022005F004FF2B78032B2FD0AF
:100D5000012008F04FF935E040420F0099F00008FB
:100D600068130020300C00208A0C00209C0C00200E
:100D700088A50108FC87010896020020A40C002029
:100D800018120020103100203831002000100240DD
:100D90000008014020310020056B0008196B000895
:100DA00018890108000C01401520200022150020A0
:100DB000022005F0F7FE18B14088003018BF01206E
:100DC000C007C5D5DAF8006095F800A0AB4D4FF02C
:100DD000100B06F40063284600215A46049314F0D1
:100DE00071FA4FF6FF73ADF83430022306F4004970
:100DF0004FF000081E408DF836308DF837800DD04A
:100E00009F480DA9ADF834B0012604F005FE042278
:100E100007232A7085F80180AE70EB70B9F1000FDE
:100E20000ED0022396480DA9ADF8343004F0F4FD3D
:100E30000123F2182B71AB7107236E71EB71D6B2DF
:100E4000BAF1010F0FD920238D480DA9ADF8343028
:100E500004F0E2FD052301222B72AA72731C072203
:100E60006E72EA72DEB2049B7BB1022385480DA943
:100E7000ADF8343004F0D0FD092301222B73AA739E
:100E8000731C07226E73EA73DEB27B687E4843F4FC
:100E900040437B607B69DFF8F08143F001037B61B5
:100EA000BB6943F40073BB6104F0A1FE15A804F014
:100EB00073FE764B00271593754B022E169334BFA5
:100EC0003B4680231A934FF480731B934FF4806347
:100ED0001C93202315A91D9340464FF400531896E8
:100EE0001E93179719971F9704F063FED8F80030E8
:100EF000012E43F00103C8F80030664B98BF002173
:100F00005A6888BF012122F4702222F4807242EADA
:100F100001225A609968604A013E0A4042F4602208
:100F200042F002029A60DA6AF6B222F4700242EAF1
:100F30000656DE623846012329188A78002A5AD0DC
:100F40002A5C5E1C092A91F803E0F6B2514911D9D6
:100F5000A2F10A0707EB47074FF0070C0CFA07FC52
:100F60000EFA07FED1F80C8028EA0C0C4CEA0E07AA
:100F7000CF600EE002EB42074FF0070C0CFA07FCC3
:100F80000EFA07FED1F8108028EA0C0C4CEA0E0786
:100F90000F61062B3F490ED8013B03EB83034FF053
:100FA0001F0E0EFA03FE9A404F6B27EA0E0747EA20
:100FB00002034B6320E00C2B0ED8073B03EB8303AB
:100FC0004FF01F0E0EFA03FE9A400F6B27EA0E0732
:100FD00047EA02030B630FE00D3B03EB83034FF083
:100FE0001F0E0EFA03FE9A40CF6A27EA0E0747EA61
:100FF0000203CB6200E01E460430102801D03346C5
:101000009AE7244B9A6842F480729A609A6842F098
:1010100001029A609A6842F008029A6099681D4A33
:10102000090710D5FAE702F1FF38B8F1090F8CBFB4
:1010300000230123FFF70FBA184B83F891910DF0AD
:1010400001FBFFF761BA936843F004039360114A10
:10105000936813F00403FAD1916841F4A001916000
:101060000E4AB2F85801E0B9B2F95A31C3B9B2F92F
:101070005C31D3F1010338BF002312E0FC1A0020D9
:1010800000080140000C0140080002404C240140CF
:101090000C1B002000240140FDF7F1FF9C02002002
:1010A000034613F0010340F09380B34A00B213717A
:1010B00011F08EF9B14911F0DFF9B14F0646B7F9D9
:1010C0005A0111F085F9AD4911F0D6F90546B7F985
:1010D0005C0111F07DF9A94911F0CEF9A9498146C9
:1010E000304611F0C1F806F00CFB0746304606F01A
:1010F00008FBA4498046284611F0B6F806F001FB2B
:101100000646284606F0FDFA9E490546484611F077
:10111000ABF806F0F6FA8246484606F0F2FA39468F
:101120008146504611F0A8F939468346484611F0E9
:10113000A3F951460490404611F09EF949460590A6
:10114000404611F099F931460790504611F094F954
:101150004946C4F82C0206F1004011F08DF92946E9
:10116000C4F83002C4F83452059811F085F90146EC
:10117000049811F079F82946C4F83802079811F05C
:101180007BF90146584611F06DF83146C4F83C022F
:1011900008F1004011F070F92946C4F840025846A1
:1011A00011F06AF90146079811F05CF82946C4F875
:1011B0004402049811F060F90146059811F054F8C2
:1011C0003946C4F84802304611F056F9C4F84C02CA
:1011D0006D4E33689A031FD5C82005F0DAFDAE20A6
:1011E00008F066F808B108F067F8684D84F8500216
:1011F000C82005F0CEFD664B00210C222846C4F81D
:10120000543214F05FF80223EB700EF0FDFB05F092
:101210009AFD604B0344AB605F4F594D3B6895F8B6
:101220005F0195F8691195F86A21B3F95E300BF00A
:10123000B3F8B84610B9012005F0E6FD574B0A2770
:101240001A7842F002021A70554B10225A61082295
:101250001A61DFF84C911920D9F80C30013F83F066
:101260001003C9F80C30D9F80C3083F00803C9F822
:101270000C3005F08EFD012005F0BEFD192005F0B3
:1012800088FD002005F0B8FD17F0FF07E1D1082325
:101290004FF0100A434FC9F81030C9F810A03B684E
:1012A0001B0709D5404BC9F814A01B6898473F4B52
:1012B0000122C9F810A01A70D4F85832187B11F026
:1012C00087F82E4911F0D8F82E4910F0CDFF06F01E
:1012D00018FA374BC4F85C022849186911F0CCF8A9
:1012E000344BC4F86002188811F072F80146324895
:1012F00011F076F9314911F073F9314C314B186026
:1013000005F0ECFFFF211C22204613F0DBFF00223A
:1013100022703A682C4B012112F0020F19702046FE
:1013200004D06170032119700221A170540704D503
:1013300019784C1C1C700324445412F00A0F0CD072
:101340001A7804218154511CC9B205244454D11C7B
:1013500002321970D2B2062181543268910604D546
:1013600019784C1C1C7007244454697908292DD025
:101370000E2934D12AE000BF1400002035FA8E3C3B
:101380009C020020DB0FC93FD4000020441A00203B
:1013900024040020404B4C00100C00201031002091
:1013A000000C01403C020020880200208C0A002032
:1013B000F80B0020100000200AE81C4100401C46E9
:1013C0004B1C0020D40B00204A1C00201C7804F188
:1013D000010E83F800E04FF00B0E00F804E01C78DB
:1013E0004FF00C0C04F1010E5FFA8EFE12F4803FF8
:1013F00083F800E000F804C009D004F1020CAA4C04
:1014000084F800C0A94C4FF00E0C04F80EC054072D
:1014100008D51C7804F1010E83F800E04FF0100E9F
:1014200000F804E01C784FF0120C04F1010E5FFA92
:101430008EFE12F4806F83F800E000F804C00ED036
:1014400095F820C2BCF1000F09D004F1020C964CB3
:1014500084F800C0954C4FF0130C04F80EC09405AE
:1014600008D51C7804F1010E83F800E04FF0150E4A
:1014700000F804E0182913D11C784FF0160E00F87C
:1014800004E004F1010E5FFA8EFE4FF0170C00F835
:101490000EC004F1030E0234E4B283F800E00155FB
:1014A000110304D519784C1C1C7019244454D4051C
:1014B00004D51A78511C19701A2181541A781421F4
:1014C0008154911C01321970D2B21B238354002124
:1014D0009822774813F0F6FE0FF024FE754A764BFB
:1014E000B5F84E111A60754BB5F89601198074491C
:1014F00000230B808B70D8F8001001F1810E714928
:101500000A60714A137082B2704C7149D4F800803D
:10151000DFF8F4C108F596784CF813805A5202337C
:10152000242BA0468C46EFD13468E10454BFB5F8B3
:101530009C311346ACF8063000231EF80320B2B9E4
:101540000EEB0302917892F8039049450FD209B14E
:10155000013901E009F1010101EB8101527801EB50
:10156000810101F5617189B204322CF81210043343
:10157000502BE2D1230740F1F48095F89021062A00
:1015800000F2E980DFE802F004070E3551727200C4
:1015900045F2F05201E042F6F8224E4B1A800FF06D
:1015A000FFFDD7E04B4B42F6F8221A8000010A23D8
:1015B00090FBF3F0A0F5B0600023474A9850043345
:1015C000482BFAD1454A464B40201A60454B12221F
:1015D0001A7005F021FB002800F0BD8001234FF0B8
:1015E000070A90F9000040218DE808043E4A3F4B6D
:1015F000ABE0384B42F6F8221A803D4A384B402087
:101600001A60384B10221A7005F006FB002800F013
:10161000A28001234FF0000990F9000040218DE8DD
:101620000802344A4FF4E1338FE02A4B42F6F822A5
:101630001A80314A2A4B40201A602A4B08221A701D
:1016400005F0EAFA002800F0868001234FF0000C34
:1016500090F9000040218DE80810284A4FF4E1334A
:101660000EF055FF264BC3F8640270E0194B42F6AA
:10167000F8211C481980062A4FF00C01204B214C00
:10168000017043D00022227083F8682283F8692217
:101690001B2283F86A22052283F86B1283F86C22DE
:1016A0004FF4E13440E000BF4A1C00204B1C0020F6
:1016B000741B002024040020281A00202C1A00206B
:1016C000740D0020DC00002061190020F43000209F
:1016D00052020020CA1A002030010020995400084C
:1016E0001C0000206E1C002001570008A08601008D
:1016F0008954000851560008755400080556000822
:101700006813002014020020AC1900200020207073
:1017100083F8680283F86902BB4C212083F86A02CF
:1017200083F86B1283F86C22B84AB94B40201A60D8
:1017300005F072FA78B101234FF0000EB54A90F926
:10174000000040218DE8084023460EF0E0FE003006
:1017500018BF012028B9082006F044F8AE4AAC4B67
:101760001A603368AD4A13F4804F04D0122111700F
:10177000AB48A749086042F20101194089B1A94963
:1017800044F620609D04088004D508211170A64805
:101790009F490860DC0704D50C211170A3489C49BF
:1017A000086011789805A1F10401517051D5A04C41
:1017B000069AA04B22609A69069842F001029A614B
:1017C00003881025ADF830309B4802230CA98DF812
:1017D00032508DF833300DF0F8FF236896485B885F
:1017E0000CA9ADF8303004238DF832300DF0EDFF48
:1017F00023680120197A0DF0D3FF23688F4A5B68B4
:101800004FF00009536115A88DF859500125159323
:101810008DF858908DF85A5004F090F923680DA86F
:101820005B7A8DF836908DF8343003238DF835309F
:101830008DF8375009F03EFFD8F80020804B3C3A35
:101840001A603B684FF0FF3243F010033B607D4B62
:101850001A607D4D7D4B7E4CC5F870328033C5F8E3
:10186000743233680027D903277040F1B180DFF864
:10187000C48105F51E7B40F22A3A06F037F84FF096
:10188000010952465846394684F8009013F01AFD73
:10189000D8F818306F4843F00403C8F818304023D4
:1018A000ADF8303018238DF833300CA903238DF8B0
:1018B000323004F0B1F8D8F81C30674C43F0020322
:1018C000C8F81C30654BA8F694781A68644BB2FBD4
:1018D000F3F22388013A23F45C731B041B0C23806E
:1018E00092B21D23A3852285A4F81490238C23F0A3
:1018F00001031B041B0C2384238CA188228B23F05F
:10190000020322F0730212041B04120C1B0C89B296
:1019100042F0600243EA0903A1802283A786238460
:10192000238B23F008031B041B0C43F008032383C1
:10193000B4F844306FEA43436FEA53439BB2A4F8D0
:101940004430D8F8A83F43EA0903C8F8A83F404606
:1019500004F04DF915A804F01FF9424BCDF858B02A
:10196000159380231A934FF480734FF0100B1B9341
:1019700040464FF4005315A91E93CDF85CB0CDF846
:1019800060A019971C971D971F9704F012F9A3895F
:101990000DA89BB243F40073A381D8F8003043F044
:1019A0000203C8F800308DF834B08DF835908DF80A
:1019B00036708DF8379009F07DFE2B4B1A682B4B53
:1019C000FA500437802FF8D109F0A0FC09F09EFCF2
:1019D00033685A057DD5D5F8A465254B04201E60D3
:1019E00005F01AF90421C5F8A80505F0EFF8214B18
:1019F00085F8AC0508201E6005F00EF91E4B082185
:101A0000186005F0E3F839E090D003003554000881
:101A10001C000020ED540008E95400086E1C002052
:101A2000C5540008CA1A0020D1540008DD5400082B
:101A3000F40B002000100240000C014000040140A3
:101A4000F00B0020BC0B002068130020CC04002009
:101A5000E712002000080140000400405000002070
:101A600000366E0134040040AA7B0108E812002011
:101A7000581200209C120020B8120020864C2C2204
:101A8000002185F8AD05204613F01CFC7C23237053
:101A90008E236370E023E37010207D2384F82B30C5
:101AA000C5F8B06505F0B8F81021C5F8B40505F023
:101AB0008DF885F8B8052020C5F8BC6505F0ACF8B0
:101AC0002021C5F8C00505F081F885F8C4050FF0A0
:101AD00067FD724B724C1B78022B64D1714B002650
:101AE0001A88322022F040021204120C1A801A883E
:101AF0004FF4805722F038021204120C1A801A8810
:101B000092B242F040021A809F238DF834308DF853
:101B100035608DF836608DF8376005F03AF98DF84C
:101B20005560614E0422776115A80DA908F0D2F81E
:101B300037619DF856309DF855201B0243EA024359
:101B40009DF857201343594A934219D00AD8A2F559
:101B50001A42033A93420CD002F51A4202329342DF
:101B600009D01BE0524A934205D00132934207D07C
:101B700014E0202300E0802323804FF4807302E0F0
:101B80004FF4807323806380A38822881B02A360A4
:101B90005343E360012385F8C53504E00023238027
:101BA0006380A360E360E66816B3F60A37464FF039
:101BB0000008B0450BDA08EB060464100DF1540977
:101BC000E0024946102207F0BFFE0F2805DCFF02A5
:101BD00008F064FFC5F8C8750AE0002359F803202F
:101BE000013254D10433102BF8D126462746E0E7C2
:101BF000304C314A236813F4002318BF01231370BB
:101C000005F0A1F82D4B18602D4B5A791946052A7D
:101C100003D12C4B4FF4C8721A802B4B4FF47A72BD
:101C20001A802A4BC8221A80294B1A7842F00802DF
:101C30001A70284B1A7822F002021A70226840F6B5
:101C4000020313406BB12448244B1860244B03203B
:101C50001870244B01201870234800230380234868
:101C60000380930306D5224B03221A71DA7842F0DF
:101C70000102DA708B68012223601E4B1A701E4B22
:101C80001A7862F07F021A7021B0BDE8F08F04F17B
:101C900001083C46AAE700BF6C1200203831002042
:101CA0002000002000380040000C014018BA20003D
:101CB0001740EF00D400002019120020180C00205B
:101CC0009C020020341B00203231002030310020E3
:101CD0009602002037310020160400205012002008
:101CE000A012002049000020EE1A0020F01A002067
:101CF000441A00201812002010310020A5492DE9B7
:101D0000F04F0A68A44802F59C4320330360A34BBC
:101D100089B01E78C6B118465B689A4240F21081BD
:101D2000013E06700CE12B68072C98BF195D9C4B97
:101D300088BF21461B689B489847032C0CD99749BC
:101D4000013601EB44042081964BF4B21A78964D8B
:101D5000A2421A46E7D81EE02B6804F10E0203EBFC
:101D600082029388D2880028E9D0C01A4FF47A7191
:101D70004843D31A90FBF3F0084440F6C903984255
:101D800005DC40F2EE239842B8BF184601E040F669
:101D9000CA0080B2D3E7854B42F201091B6803EA0F
:101DA0000909D9F10109824B38BF4FF00009D3F876
:101DB00000A0804BB9F1000F06D17F490978197056
:101DC0007E4908787E4908701E781EB17C4B1E78CB
:101DD00086F001067148032190F82D700F23B7FBA0
:101DE000F1F101EB4101791A80F82C3092F8008072
:101DF000C9B200F12E0303EB41010024D5F800B075
:101E00004FEA480C0491254664455ED016B16D4BEF
:101E1000E05A00E03046BBF81430834206D8BBF8E5
:101E20001630834234BF0023012300E00023664ABA
:101E30000BBBA2F1780352F82520924502D2634BE6
:101E4000E05A1CE0EAB2104602920193CDF80CC0B1
:101E50000AF056F8029A019B032ADDF80CC00ED84E
:101E60004FF0010E0EFA05FE93F82C2022EA0E0226
:101E700083F82C2003E00AF5967342F81430B9F188
:101E8000000F1DD10499454B04EB4402885293F88E
:101E9000C01021B9022F13D9012083F8C0004C4B88
:101EA000981832F803E0428894337244B0F804E0A2
:101EB000724492B2E25210B2032390FBF3F080B26C
:101EC000424B0135E05202349EE7344B384A93F8D6
:101ED0002C101D46B1F10F077942794183F8DA10D1
:101EE0003C4B69B13C4909684E0109D41268D96874
:101EF0009A60521AC82A1ED9012283F821201AE0BA
:101F00002E48012101702E48126801709968DA602C
:101F10005B68521A9A4203D92E4B002283F8212083
:101F20000024444507DAE0B209F0EAFF274B23F822
:101F300014000134F5E795F82D30013385F82D3084
:101F40001A4E3368DD0405D5234B1B68DC0701D42A
:101F50000FF0DAFC144B0F4A196814688B7A002BC7
:101F60003ED01A4A013B32F813000B7B1BB1C0F57F
:101F70003B60083080B200B2A0F57A70B0F57A7F8D
:101F8000A8BF4FF47A7020EAE07010F021FA1349EC
:101F90005BE000BF14310020300200203419002023
:101FA0001C0000206E1C0020DC000020D40000205B
:101FB000F4300020C8000020D000002001000020E4
:101FC000000000203C190020AC1900205202002023
:101FD00062190020740D00204002002000007A44A5
:101FE000326810043AD59E4AD2F8DC00201A002844
:101FF00034DB04F59C402030C2F8DC009948C97AF3
:102000004579994830F8150080B290FBF1F092F8CC
:10201000E010013101F00F0182F8E0100A4482F86B
:10202000E1001846914A9A5C01331044102B80B2AB
:10203000F8D100B290FBF3F000B26428A8BF64208E
:1020400020EAE07010F0C4F9894910F0C9FA894912
:1020500010F012FA10F0FCFB874B18803368874DA4
:1020600013F4807F00F0E180854B864F9C4203D9BA
:10207000BB780BB90123BB70BB78002B00F0D58077
:10208000804B95F8008093F821407F4B611E4C42B5
:102090004C411A68002C9A460CBF03230023C8F356
:1020A0008008C2F38069049397F82030052B00F272
:1020B000B780DFE803F0034E5379869FB8F1000F35
:1020C0003AD0DFF89CB1DBF8F400BBF8F81009F067
:1020D00041FF012808D16D4A64201168DBF8FC201B
:1020E000D28800FB02123A61B9F1000F0CD0DBF884
:1020F000FC301B7943B109F0FDFF032387F8203042
:102100004FF47A73FB61CFE7002C40F089805F4B7E
:102110003A691968DFF86CB1914209D909F0EAFF10
:1021200003228BF8202040F6B832CBF81C20BBE706
:1021300001228BF82020B7E74FF48060B9F1000F3F
:1021400002D009F0C7FF01E009F0F2FF00233B6174
:1021500066E0002C46D109F0CDFFA5E724B10523A8
:1021600087F82030012100E02146B8F1000F0ED0A1
:102170003B4A3B48D2F8F430DA89454B1A805A8002
:102180009A80D0F8FC205288DA80022204923F4BD9
:102190001A687B699A4202D8B8F1000F3DD147F224
:1021A0003053FB6103231EE02B7843F002032B70B6
:1021B0000FF0AAFB354B1A68FB691344BB6104237B
:1021C00011E0324B1A688CB1BB699A4228D9314B65
:1021D0001B781BB9DAF80030DA0721D42B7823F00A
:1021E00002032B70052387F820305DE7FB69134459
:1021F000BB6115E0254B1A481A68D0F8FC30642101
:10220000DB884FF4806001FB03233B61002387F8E8
:102210002030FB7009F08CFF46E700297FF444AFC3
:10222000049A12B1104609F0B3FE1B4C04F5C470B9
:10223000B4F84E1109F08EFEA346804670BB05F03F
:10224000F3F894F8E231012B06D9104B044A1B68CD
:10225000D2F800219A422CD205F0D6F829E000BF2E
:1022600034190020FC1A00200C1B0020151A002035
:102270000000C84200C07F44701C0020373100209D
:10228000404B4C00740D002040020020F430002030
:1022900052020020080000209C020020994B94F874
:1022A000E2211B684FF47A7101FB0232964BC3F8AE
:1022B00000212B785B0740D53368DF063DD5934B73
:1022C0001B78DC0639D4924B8F4C1F788FB19BF86A
:1022D000E031B8F1000F16D173B18A4B1A68D4F807
:1022E00004319B1A002B07DA0FF00EFB84F80881EB
:1022F00023E0B8F1000F19D1102009F049FE0123A5
:1023000084F8083119E03BB17E4A4FF47A711268C3
:1023100001FB0323C4F8043194F808316BB103F0D6
:10232000CDFD794B002283F8082106E094F80831AE
:102330001BB103F0C3FD84F8087100229BF8DEA1F5
:102340009BF8DF11BBF89871BBF89AE11346714C0A
:102350009B08105F0232B842C4BF63F07F03DBB258
:102360007045B8BF43F04003082AF0D1664C94F89A
:1023700009219A4205D194F80A21F92A04D8013298
:1023800000E0002284F80A2184F80931604B5E4A9B
:102390001878614F994638BB3B68D80708D5B8F123
:1023A000000F21D12B78DA071ED50EF043FF1BE07A
:1023B0002B785B0715D5594B1B7893B1584BDB78BD
:1023C0007BB992F80B310133DBB2032B82F80B316E
:1023D0000AD911B10FF098FA06E0B8F1000F03D155
:1023E000F8E7002384F80B3194F80A21464B142AAD
:1023F000DFF8408140F0A78099F800201AF1000A28
:1024000018BF4FF0010A6AB393F809215F2A11D16E
:102410002A7802F0040202F0FF0112B10FF074FA00
:1024200008E00B200391019309F0B2FD0399019B91
:1024300083F80A11BAF1000F14D094F809317D2BFA
:1024400010D12B7803F0040303F0FF0213B10FF057
:102450005BFA07E00B20029209F09AFD2A4B029AE0
:1024600083F80A212B7803F0040303F0FF00002B0C
:1024700069D194F80931244A572B0AD1294B4FF4DA
:102480007A721A80284B1B6858075CD50A22274BA2
:1024900035E03168490717D55A2B15D192F80C3120
:1024A0002BB1012382F80C0182F80D314BE092F838
:1024B0000E3183F0010382F80E310BB10C2000E0E5
:1024C0000D2009F065FD3EE05D2B00F074845B2B70
:1024D00000F073845E2B02D1032000F06FBC562BFA
:1024E00001D10CF0AFF899F800302BBB94F809310A
:1024F000054A972B40F07A840D4B4FF4C8721A802E
:1025000021E000BFF43000203419002096020020A2
:10251000080000205202002040020020C8000020D5
:10252000740D0020323100203C02002030310020A8
:10253000341B0020100C002094F809316F2B40F060
:102540004C840EF077FE3368580736D594F80E3178
:10255000B44A93B12B7859070FD5B34BB3F9061092
:10256000BBF89831994208DD3B6813F0010304D1B0
:102570003221A2F81C1182F80E313B6813F4803F1F
:10258000A84B0CD094F81E212AB993F80C2112B94B
:102590003222A3F81C21012384F81E310DE094F8A7
:1025A0000C2152B12A7802F0040202F0FF0122B994
:1025B000012283F80C1183F80D21D8F80090002334
:1025C00009F1810A3B6009F1830498460AF102038C
:1025D00003EB080113F808204B7814F8010C9A4219
:1025E0000AD221460EF08EFA30B114F8023C0122D4
:1025F0009A403B6813433B6008F10408B8F1500F60
:1026000004F10404E2D1894B1F784FB1884CDFF804
:1026100040822368874F13F0020F40F036832EE389
:1026200009F1D10809F1D20408F10103D919DA5DE1
:102630004B7814F8010C9A4229D221460EF062FA26
:1026400028B394F802E020797B4B0EF1FF3E4FF067
:102650000C0C0EEB4E0E0CFB00FC9E44714B94F8E0
:1026600003A003F5907909EB0C02516871450ED077
:10267000002109F80CA0C2F804E09160012202FADE
:1026800000F093F8502122EA000083F85001063749
:10269000482F04F10604C7D1684BDFF8B8A11F68C2
:1026A000674B4FF000091B680493664B1B7805933A
:1026B000DAF80030002B00F0D98293F80080B8F1EE
:1026C000000F00F0D382DAF804200498821A002A5E
:1026D0000DDB012101FA09F100F5FA72CAF80420B4
:1026E000504A92F8500120EA010182F85011059AEF
:1026F000002A00F0BB821AF8041C58780431C9B2D1
:10270000484A002840F07182474830F911104E487D
:10271000B0F8960100F1C804A14201DD9C7815E0F3
:10272000C838814202DA9C7864420FE0012303FA40
:1027300009F33C4890F8502122EA0303049A80F8F8
:10274000503102F5FA73CAF804308FE292F8503132
:1027500043FA09F3DB0700F18982002CCCBF022089
:10276000012009F09BFC08F1FF33132B00F2758266
:10277000DFE813F0140021002E003E007200790003
:10278000DD004101A501DA010A0273023E004D009D
:102790007900DD004101AF00130177013B78384635
:1027A0001C44FA2CA8BFFA2424EAE4743C7004F018
:1027B0007DFA01201AE07B7838461C44642CA8BFBF
:1027C000642424EAE4747C7004F070FA02200DE0C2
:1027D000FB7838461C44642CA8BF64241B4B24EAB5
:1027E000E474FC70196804F01DFA03202146C8E166
:1027F00079790D2021446429A8BF642121EAE1717F
:10280000797108F025F8B8F10D0F00F026823979BA
:102810000E2021446429A8BF642121EAE1713971A5
:10282000AFE100BF341900205202002035310020F2
:1028300040020020440200200C8F01087C0C002084
:10284000F4300020C80000209C020020381C00202A
:102850003C020020581A0020B9790520214481F358
:102860000801B9718DE1A74B1B681A78022A21D1A2
:10287000204601930FF0ACFDA3490FF0B1FE019B80
:10288000596A0FF0F1FC002102900FF093FF029AB9
:10289000019B40B910469C490FF0AAFF029A019B88
:1028A00010B1994A00E000225A620F20114607F049
:1028B000E3FF0AE099780F202144C829A8BFC82166
:1028C00021EAE171997007F0C3FFB8F10F0F00F032
:1028D000C4818C4BD3F8008098F80030022B1AD1B9
:1028E00020460FF075FD88490FF07AFED8F82010C9
:1028F0000FF0BAFC002104460FF05CFF30B920460F
:1029000081490FF075FF10B17F4C00E00024C8F83A
:102910002040122059E198F8011012202144C829C2
:10292000A8BFC82121EAE17188F8011029E1754B9F
:102930001B681A78022A21D1204601930FF048FD26
:1029400071490FF04DFE019B196B0FF08DFC0021BA
:1029500002900FF02FFF029A019B40B910466A497E
:102960000FF046FF029A019B10B1674A00E0002277
:102970001A631020114607F07FFF0AE0197B102030
:102980002144C829A8BFC82121EAE171197307F0C1
:102990005FFFB8F1100F00F060815A4BD3F8008050
:1029A00098F80030022B1AD120460FF011FD56493D
:1029B0000FF016FED8F82C100FF056FC002104463C
:1029C0000FF0F8FE30B920464F490FF011FF10B15B
:1029D0004D4C00E00024C8F82C401320F5E098F896
:1029E0000B1013202144C829A8BFC82121EAE17196
:1029F00088F80B10C5E0434B1B681A78022A21D1D6
:102A0000204601930FF0E4FC40490FF0E9FD019BE3
:102A1000D96B0FF029FC002102900FF0CBFE029A37
:102A2000019B40B9104638490FF0E2FE029A019B23
:102A300010B1354A00E00022DA631120114607F098
:102A40001BFF0AE0997D11202144C829A8BFC82195
:102A500021EAE171997507F0FBFEB8F1110F00F062
:102A6000FC80284BD3F8008098F80030022B1AD154
:102A700020460FF0ADFC25490FF0B2FDD8F8381014
:102A80000FF0F2FB002104460FF094FE30B920460F
:102A90001D490FF0ADFE10B11B4C00E00024C8F83A
:102AA0003840142091E098F8151014202144C829CA
:102AB000A8BFC82121EAE17188F8151061E0114B27
:102AC000D3F8008098F80030022B21D120460FF077
:102AD0007FFC0D490FF084FDD8F828100FF0C4FBDF
:102AE000002104460FF066FE30B9204606490FF07B
:102AF0007FFE10B1044C00E00024C8F828400920F3
:102B000063E000BF3C1C00200000C84200007A4483
:102B100098F8031009202144C829A8BFC82121EA38
:102B2000E17188F803102CE0B54BD3F8008098F8D9
:102B30000030022B1AD120460FF04AFCB1490FF0A9
:102B40004FFDD8F834100FF08FFB002104460FF032
:102B500031FE30B92046AB490FF04AFE10B1A94C06
:102B600000E00024C8F834400A202EE098F80D1048
:102B70000A202144C829A8BFC82121EAE17188F8A8
:102B80000D1007F065FE68E09D4BD3F8008098F8C3
:102B90000030022B1DD120460FF01AFC9A490FF08D
:102BA0001FFDD8F840100FF05FFB002104460FF026
:102BB00001FE30B9204693490FF01AFE10B1914C36
:102BC00000E00024C8F840400B20214607F054FEE6
:102BD00043E098F817100B202144C829A8BFC8214A
:102BE00021EAE17188F81710CBE7012835D19878F0
:102BF000864B33F91110B1F5617F05DB40F63303E5
:102C00009942B8BF0B4601E04FF46173B8F10C0F65
:102C100023D14FF49664A3F5617394FBF0F493FB16
:102C2000F4F492F85131E4B2A34216D0032C94BFCD
:102C30002346022382F851310E2202FB03B3744A69
:102C400003F2AE73136004F04BF84046214607F0E0
:102C5000FFFD601CC0B209F021FA012202FA09F25C
:102C60006C4B93F850110A4383F8502109F1010984
:102C7000B9F1040F0AF10C0A7FF41AADC6E4336807
:102C8000D80510D5644BDB786BB1D8F800309907C4
:102C900009D53B8813F001090AD104F0C5FB0120D6
:102CA00009F018FA04E0012009F042FA012300E0DB
:102CB0000023226852070CD55BB1012009F038FAD5
:102CC0003B88980708D404F0AFFB022009F002FA11
:102CD00002E0022009F02CFA3B88504A13F0030F5F
:102CE0004FF0100114BF51611161D8F8002012F0AB
:102CF0000A0F2BD02268D1060DD55A070ED4042016
:102D000009F0E8F9464BB3F904200A2392FBF3F2E9
:102D1000444B1A8002E0042009F00AFA23689B065B
:102D200006D53B88580606D4402009F0D3F902E0C6
:102D3000402009F0FDF92368590607D5384BB3F94F
:102D400004200A2392FBF3F2374B1A8023684FF4D6
:102D500080701A0502D509F0BDF901E009F0E8F923
:102D6000324A53791746082B01D00E2B02D140204E
:102D700009F0DEF933685B0540F19C8097F820325A
:102D80001BB92B7813F0040F02E0236813F4002F13
:102D90000CD0204B002283F852213C200BF010FA7B
:102DA000002800F0878003F0A5F8F6E70EF0F8FBA6
:102DB0000EF0B8F97EE0012000E002205FFA80F911
:102DC00009F1FF338BF8AC3703F0DEFD0BF072FA3C
:102DD000484609F063F9FFF7B6BBBAF1000F3FF4BC
:102DE00085AB7E2B7FF482ABFFF7ABBBA72B21D14A
:102DF0000F4B1A7842F004021A70FFF7A4BB00BF11
:102E00003C1C00200000C84200007A44520200200E
:102E10007C0C002034190020740D0020000C0140AF
:102E2000B40B0020240C0020C81A00209C020020B3
:102E3000960200200021BB2B079101D1022303E061
:102E4000B72B04D14FF6FE73ADF81E3009E0BE2B50
:102E500001D1022303E0BD2B1AD14FF6FE73ADF86A
:102E60001C30D8F80030BDF81C10B3F860200A44BC
:102E7000A3F86020BDF81E10B3F862200A44A3F83E
:102E800062200BF0DFFB002384F80A31FFF75BBB05
:102E9000792B04D192F8133123F0010306E07A2B49
:102EA0007FF451AB92F8133143F0010382F81331F0
:102EB000FFF749BB09B0BDE8F08F00BF834B2DE998
:102EC000F04FB3F90610824B91B0186843899942CC
:102ED00011DBB1F5FA6F90F807E009DACA1A02FBC4
:102EE0000EFEA3F5FA639EFBF3FE0EF1640E04E002
:102EF000CEF1640E01E04FF0640E8389994219DB34
:102F0000B1F5FA6F047A10DA632CC3EB010205D92C
:102F1000643CA4B25443C3F5FA6302E05443A3F5FE
:102F2000FA6394FBF3F4643405E0632C03D8C4F132
:102F3000640400E06424674BB3F8962193F95E3192
:102F40000492654A9BB2D2F800C0059366460022FF
:102F50005E4B049D33F912304FEA420803935B1B2A
:102F600003F2F31740F2E635AF4203D8002BB8BFA7
:102F70005B4201E04FF4FA73022A4FF06407574DA9
:102F80002ED09CF81991B9F1000F04D04B45CCBF5D
:102F9000C9EB0303002393FBF7F96FF0630B35F8DC
:102FA00019A00BFB093B09F1010935F919900FFA3A
:102FB0008AF5C5EB090505FB0BF595FBF7F5AA446A
:102FC000474D28F805A085182D796B43454D93FB97
:102FD000F5F364339BB20EFB03F393FBF7F72FE09B
:102FE0009CF81A91B9F1000F04D04B45CCBFC9EB46
:102FF0000303002393FBF7F76FF0630A05EB470920
:103000000AFB073B05EB4707B9F90E90B7F91050DB
:10301000059FC9EB050505FB0BFB9BFBFAFBC9EB09
:103020000B0909FB07F92E4FA7F80490857983EA6D
:10303000E377A7EBE3776F432A4D97FBF5F7643708
:103040000CEB020595F801A0244B07FB0AFA642556
:1030500003F11C099AFBF5FA09F802A096F80BA0F7
:1030600003F11F0907FB0AFA9AFBF5FA09F802A017
:1030700096F815A0022A07FB0AF703F1220997FB2D
:10308000F5F71D4616BF253383F8274003F802E005
:1030900009F80270039B049FBB42114F04DA37F812
:1030A00008305B4227F808300132032A06F1010696
:1030B0007FF44EAF074CB4F89831994214DBB1F568
:1030C000FA6FA8BF4FF4FA610FE000BF5202002070
:1030D0007C0C00209C020020100C0020881A00208C
:1030E0001C0C00200CFEFFFF1946C91A4FF47A721F
:1030F0005143C3F5FA63B1FBF3F34FF0640E93FB56
:10310000FEF205EB4201088D6FF0630101FB023313
:1031100005EB4202B2F92A1002B28A1A534393FB1A
:10312000FEFEB54B70441B88B44E5B06F88045D557
:10313000B34BB3F904000A2390FBF3F0B14BB3F89F
:103140004030C01A00B20FF043F9AF490FF094F9C4
:10315000AE4980460FF088F804F0D3FA8146404625
:1031600004F0CFFA8046B6F902000FF031F982463A
:10317000B6F900000FF02CF9494683460FF07CF9B0
:1031800041460346504601930FF076F9019B0146F4
:1031900018460FF067F80FF035FB4946308050466F
:1031A0000FF06AF94146814658460FF065F901462D
:1031B00048460FF059F80FF025FB7080944B914E64
:1031C00018880FF001F9934B06F144010122B5F87C
:1031D000428004F033F90FF03BFB8F4B80B2B8FB19
:1031E000F0F000F1010C1B781FFA8CFCA5F84CC024
:1031F0000BB3B6F94EA00023824AFE5A02F1500EDC
:1032000033F90E8002F158010AFB08F833F80190F7
:103210000FFA8CFBC9EB060998FBFBF8C84423F8AE
:103220000E805E520233082BE6D17B4B00211970D1
:10323000A2F84E0004E0B6F84E30013BA6F84E303E
:10324000B5F94E106F4A00294FF000030FDDB2F9B7
:103250004C60724AA2F10800185E9A5A484390FBEB
:10326000F6F0121AFA520233082BF2D101E0A2F85A
:103270004E306B4B1A689A4612F0020F74D0694BAD
:103280002A6E1B6845F207219A1A8A425D4E6BDD51
:1032900033660CF06FFF644BDFF8A0811A78994613
:1032A000032AB8F8003022D10A2B2CD90023282079
:1032B00089F8003003F06DFD0CF05CFFB6F8640097
:1032C00002F0C2FD594B5A491B68DA7890FBF2F0C4
:1032D000421C082A28BF08220A7059791B7992B229
:1032E00051435A43A6F86610A6F868200BE00A2B53
:1032F00009D803234E4A89F8003000231370A6F83A
:103300006630A6F8683099F80020474B012A0DD0A6
:1033100002D3022A1ED027E0B5F86620B8F80030A4
:103320009A4221DD012389F8003011E0B8F800202D
:10333000B5F86810914202DD02221A7011E031499D
:10334000B1F8661001318A4202DD00221A700BE0EA
:10335000082007E0B5F86830B8F8002001339A4239
:10336000E0DC072008F014FEDAF80020314E12F4F9
:10337000006F00F09E802B4BE86E1968214BC0EB6C
:10338000010A45F20720824540F393802748B7F9A8
:103390000690D0F80080D96698F80A00B4F84E116B
:1033A0000128A9F57A79244F03D06BD3022847D09E
:1033B0006AE093F88120196F03EB4202B2F88400AF
:1033C000082291FBF2FE80B2CEEB0101014491FB99
:1033D000F2F2A3F88C0092B2196740F6E44353432B
:1033E000B8F808004FF47A72C0EB13335343B8F9BE
:1033F000062093FBF2F346E0440200201C0C002060
:10340000B40B0020881A002035FA8E3CDB0FC93F30
:10341000140C00206F12833A39020020E01A0020B9
:10342000D400002014310020A012002050120020EF
:1034300049000020373100205C1200205412002087
:103440003378B8F808B05807C7F800B01CD5AC48B6
:10345000029208F07FFD029A20B912F0100F18BFF7
:103460004FF0000909FB09F2322392FBF3F3994470
:10347000B8F906304FF47A7203FB09F393FBF2F3C9
:103480005B4400E000233B603B68D5E9240103FB7B
:103490000AFA4FF47A739AFBF3FA10EB0A0041EB45
:1034A000EA710023C5E92401964A0FF0F1F9964B21
:1034B0001860964B1A68994612F4805F02D00A2071
:1034C00008F066FDD5F89830914F002B58D0914AFE
:1034D000D7F89C1010689246814251D897F8A00006
:1034E000B7F8A220596810BB012087F8A0008A5CB9
:1034F00052B31A78D4F8DC37013A00FA02F21A42D1
:1035000001D103F079FC012385F8A43002F0B2FC6C
:10351000B5F8A2307E4FBBB9D7F898301B78053B81
:10352000012B11D803F00FFCC7F8A8000CE04FF0F6
:10353000000887F8A0808B5C33B1404603F05CFC48
:1035400087F8A48002F096FCD5F89820B5F8A21070
:1035500052686F4B525CFE2A03D10022A3F8A220CE
:103560000EE0FF2A02D102F0A9FC09E0DAF800001F
:103570000A2707FB02020131C3F89C20A3F8A2101E
:103580003378590703D5644B08225A613AE0D9F8D9
:103590000020D20703D4614A43F001031370604B4B
:1035A0001B781B0703D4337823F0010333705D4B82
:1035B0001B685F0702D55C4A128862B9B5F8AC2077
:1035C0000AB1980705D4594B1B88003318BF012353
:1035D00000E001233BB1022385F8A430337823F0C7
:1035E0000103337005E03278D10758BF022385F814
:1035F000A43003F0A8FBD5F8B030C01A002801DBD6
:1036000002F038FC0DF0CCFF494B1A78002A00F08C
:103610009B80D5F8B430002B00F0F186D5F8B400CB
:103620003B4C03F091FC002800F0E986D4F8B4008C
:1036300003F085FC092801D03F2852D14FF0000843
:10364000D5F8B8603B4F44462EB13B483968324606
:1036500011F080FE10B9B84604B93C46374B10371C
:103660009F42F1D3ECB1D5F8B83022682848D75C36
:10367000D8F80020D15CB94213D15A1C59B92D2B6E
:1036800009D8C0F8B82003442027024483F8BC704E
:1036900082F8BC1005E02B4483F8BC70C5F8B82054
:1036A000E1E7D5F8B8300BB1444510D0244803F019
:1036B00062FC444507D854F8100B03F05CFC092069
:1036C00002F0D0FCF5E71F4803F055FC0026D5F8C2
:1036D000B8309E42A2D2184B985D02F0C3FC01366E
:1036E000F5E7D4F8B830002B40F09486042840F079
:1036F000018704F1BC0008F0D5FD00F080BE00BFDA
:1037000024040020407E05006012002040020020BA
:10371000881A0020F4300020000C014037310020CE
:10372000960200203C02002030310020323100207F
:1037300035310020488F0108441B002018910108F2
:1037400088A601088DA60108D44F97F84A30012BAE
:1037500040F05086DFF86C83DFF86C933B68C8F864
:103760000070C9F80030C346DFF85CA35246106809
:1037700003F0EAFB002800F03086DAF8000003F0DE
:10378000DEFBDBF80030024693F8481019B9242814
:103790003DD1012238E0012904D14D280CBF02227D
:1037A000002231E0022904D13C280CBF0322002270
:1037B0002AE003290CD140284FF0000102D983F8F8
:1037C00048104EE058711971D971987104221BE0AC
:1037D000042907D1997983F8490080EA01029A7196
:1037E000052211E005293CD1587919798842987948
:1037F00006D950409871481C18710B441A7230E079
:1038000090420CBF0622002283F8482029E031783C
:10381000A34B490725D4232ADAF8001016D1A14872
:103820004FF0010E80F800E09F48C5F8B410C5F8CD
:1038300084110292019303F09EFB9C4803F09BFBD2
:10384000019B197841F002011970029AD5F888316C
:103850001B78934205D1964A964B1A60964A974B2D
:10386000DA60DBF80030DFF85CA293F84820062A23
:103870007FF47AAF93F8490000F082FE002840F010
:10388000A585DAF8002092F849B0BBF14A0F00F0A4
:103890009A8562D8BBF1330F00F08A8429D8BBF136
:1038A000290F00F023840CD8BBF1250F00F0FA8318
:1038B000BBF1270F00F0FC83BBF1230F40F0A7857D
:1038C00031E1BBF12D0F00F0228408D8BBF12B0FA2
:1038D00040F09D8502F079FB607100F074BDBBF192
:1038E0002F0F00F0DD84BBF1310F00F0EE8400F00B
:1038F0008EBDBBF13E0F00F0578114D8BBF1370FDE
:1039000000F0958405D8BBF1350F00F0A98200F0D6
:103910007EBDBBF1390F00F0D883BBF13C0F00F046
:103920004D8100F074BDBBF1430F00F05D8408D8F9
:10393000BBF1410F08BF4FF0000900F03E8400F0DA
:1039400066BDBBF1440F00F0F484BBF1480F40F0BA
:103950005E8506F0EBFE00F036BDBBF1D00F00F047
:103960007F8367D8BBF1CA0F00F0418119D8BBF142
:103970004E0F00F0EF83BBF1C80F00F0CA80BBF11F
:103980004C0F40F0448502F020FB84F8D60102F091
:103990001CFB84F8D70102F023FBA4F8D80100F047
:1039A00012BDBBF1CD0F00F0668305D8BBF1CC0F83
:1039B00000F0808200F02BBDBBF1CE0F00F06483DD
:1039C000BBF1CF0F40F0238502F00AFB6FF4AF6E1E
:1039D00000EB0E039BB2C62B98BFA4F8960102F031
:1039E000FFFAA4F8400102F0FBFAA4F8420102F049
:1039F000F7FAA4F8440102F0F3FAA4F8D80102F0AF
:103A0000E4FA02F0E2FA02F0E0FA02F0DEFA84F8F8
:103A1000850102F0DAFA84F8920102F0D6FA284B16
:103A2000D3F8009002F0DCFA00EB80004000A9F827
:103A30005E004AE3BBF1D80F00F0668115D8BBF1F8
:103A4000D30F60D004D8BBF1D20F49D000F0DFBC57
:103A5000BBF1D40F00F08982BBF1D60F08BF4FF045
:103A6000000900F0778200F0D2BCBBF1F20F00F049
:103A7000CC822BD8BBF1EF0F40F0C984DFF8409027
:103A8000D9F800A002F0ACFAAAF86200D9F80090C8
:103A900002F0A6FAA9F8600000F095BC741B0020A3
:103AA0003731002035310020BDA601088DA6010860
:103AB000EFBEADDEF04F00200400FA0500ED00E09F
:103AC000100C0020C8120020CC120020BBF1F30F14
:103AD00000F03384BBF1FA0F00F0E08200F097BCF5
:103AE000337803F0040303F0FF09002B40F06B84EC
:103AF00002F06BFA022884F8AC0740F2B782C94B97
:103B000083F8AC97B2E202F06BFAC74B188000F072
:103B10005ABC92F805904FEA5909B9F1120F1CD816
:103B20004FF0000A1DE002F050FA132815D8DFF814
:103B300014A300F1200BDAF8003003EB8B0B02F03A
:103B400044FABA4B0BF1010903F5AE72197A8142BE
:103B500000F048810C339342F8D10AF02DFB00F0BD
:103B600032BCCA4507D202F03BFA07AB23F81A0071
:103B70000AF1010AF5E700234B45AD4A06DA07A929
:103B800031F8131022F813100133F5E709F1FF396A
:103B900002EB49032232934203D0002123F8021F93
:103BA000F9E70122A34B77E202F00FFA84F8E00173
:103BB00002F00BFA84F8DF0100F005BCDFF8849214
:103BC000D9F800A002F001FA18B10228A8BF02201B
:103BD00000E001208AF80000D9F800301B78022BA1
:103BE00018BF954A954B08BF954A1A60EBE3954A72
:103BF000814611689246097802296AD1DAF80030C4
:103C000009F1080B019302F0E0F90EF0DDFB8E499B
:103C10000EF0E6FC019B43F82B00DAF800B002F04E
:103C2000D4F909F10A030BEB830B0EF0CDFB8749A6
:103C30000EF0D6FCDAF80030CBF80400019302F065
:103C4000C4F90EF0C1FB82490EF0CAFC09F10E0B5B
:103C5000019B09F10109B9F1030F43F82B00CDD104
:103C6000B9F1070FDAF800B01AD102F0AEF90EF090
:103C7000ABFB75490EF0B4FCCBF84400DAF800B0A9
:103C800002F0A3F90EF0A0FB6F490EF0A9FCCBF8EF
:103C90004800DAF800B002F098F98BF84C0012E016
:103CA00002F093F90BEB09035870DAF800B002F058
:103CB0008CF90BEB0903D872DAF800B002F085F941
:103CC0000BEB0903587509F10109B9F10A0FC7D1C6
:103CD00079E3DAF800B002F078F90BEB09035870D9
:103CE000DAF800B002F071F90BEB0903D872DAF8D8
:103CF00000B002F06AF90BEB090309F10109B9F10F
:103D00000A0F5875E5D15EE38146DFF838A109F165
:103D1000080BDAF80030019302F062F90EF054FB60
:103D20004B490EF05DFC019B43F82B00DAF800B024
:103D300002F056F909F10A030BEB830B0EF044FB7A
:103D400043490EF04DFCDAF80030CBF80400019343
:103D500002F046F90EF038FB3D490EF041FC09F146
:103D60000E0B019B09F10109B9F1030F43F82B0078
:103D7000CBD1B9F1070FDAF800B01AD102F030F95F
:103D80000EF022FB32490EF02BFCCBF84400DAF89F
:103D900000B002F025F90EF017FB2D490EF020FCC3
:103DA000CBF84800DAF800B002F01AF98BF84C00B2
:103DB00012E002F015F90BEB09035870DAF800B0C5
:103DC00002F00EF90BEB0903D872DAF800B002F03A
:103DD00007F90BEB0903587509F10109B9F10A0F4D
:103DE000C7D1F0E21B788BF8013002F0EEF889F8C9
:103DF000010002F0EAF889F8020002F0E6F889F81A
:103E00000300144BDAF80000134AC3F8B401002190
:103E10008130C3F8B02102F085FF104B80F0010023
:103E20001870D0E29C020020240C00201891010898
:103E3000141C002015020020B9D000084C000020FE
:103E40002DCD0008100C0020000020410000C842C9
:103E500000007A44881A0020DC03002008000020BB
:103E600002F0B3F80B283FF678AE4FF0060A0AFBD3
:103E700000F0D84BD0301B6803EB000A02F0A5F825
:103E800003283FF66AAE8AF8060002F09EF88AF828
:103E9000010002F09AF88AF8020002F096F88AF817
:103EA000030002F092F88AF8040002F08EF88AF813
:103EB000050088E25379092B7FF64FAEDFF8209397
:103EC000D9F800A002F081F88AF80000D9F800A023
:103ED00002F07BF88AF8010002F077F8D9F8003098
:103EE0006428A8BF6420187102F06FF8D9F8003078
:103EF0006428A8BF6420587102F067F8D9F8003030
:103F0000FF28A8BFFF20987102F05FF8D9F800A041
:103F1000642828BF64208AF8070002F056F88AF85F
:103F20000200D9F800A002F050F88AF80300D9F88E
:103F300000A002F055F8D8F80030AAF80A005B7922
:103F40000A2B40F24082D9F8009002F03EF889F83E
:103F5000090038E202F044F89F4B23F8090009F108
:103F60000209B9F1100FF5D12DE253790F2B7FF42F
:103F7000F4AD02F02AF8072881463FF6EEADDFF8EF
:103F800054A2DAF800B002F02BF80E2303FB09F973
:103F90000BEB0903A3F82101DAF800B002F020F8D6
:103FA0000BEB0903A3F82301DAF800B002F018F8CC
:103FB0000BEB0903A3F82501DAF800B002F005F8CD
:103FC0000BEB090383F82701DAF800B001F0FDFFDD
:103FD0000BEB090383F82801DAF800B001F0F5FFD4
:103FE0000BEB090383F82901DAF800B001F0EDFFCB
:103FF0000BEB090383F82A01DAF800A001F0FAFFBD
:104000000AEB0903C3F82B01DDE101F0DEFF0F2805
:1040100081463FF6A2AD01F0D8FFC9EBC90904EB18
:10402000090383F8D00003F1D00901F0CEFF89F82D
:10403000010001F0CAFF89F8020001F0C6FF89F80B
:10404000030001F0C2FF89F8040001F0BEFF89F807
:10405000050001F0BAFF89F8060003F0FFF8B2E1AD
:104060003378590700F1AF810CF070FD02F08CFC41
:104070000AF020F9A7E133785A0700F1A4814FF440
:10408000C873A5F8AC309EE133785B0700F19B81E3
:10409000524B1A7842F004021A7094E133785807B0
:1040A000E4D5B4E1A06001F0A5FF03F0A3FB8AE131
:1040B00001F096FFA4F8580101F092FFA4F85A010C
:1040C00001F08EFFA4F85C017DE101F07EFF84F831
:1040D0007A0101F07AFF84F87E0101F076FF84F81E
:1040E0007D0101F072FF84F87F016CE101F078FF3F
:1040F000A4F8800101F074FFA4F8820101F065FFCB
:1041000084F8840101F06CFFA4F886015BE101F002
:104110005CFF84F8900101F063FFA4F89A0101F0BC
:104120005FFFA4F8960101F05BFFA4F8980101F08D
:104130004CFFDAF8003084F891015B79082B40F2EB
:10414000428101F04DFFA4F89C0101F049FFA4F861
:104150009E0138E192F805B00323BBFBF3FBBBF1F2
:10416000120F3FF6FAACDFF87C904FF0000ADA4508
:1041700080F0298101F029FF89F8A00101F030FFCA
:1041800040F2ED23984205DD40F6CA039842A8BFED
:10419000184601E040F2EE20A0F2EE20192390FB39
:1041A000F3F089F8A1010AF1010A09F10209DEE739
:1041B00001F00BFF84F8920105E101F006FF04EB2A
:1041C000090309F10109B9F1080F83F88801F4D155
:1041D000F9E000BF100C0020A40D00209602002082
:1041E0007C0C00209C020020019001F0EEFE60712A
:1041F000019BA36001F0FEFE03F0FCFA01F0E5FE76
:1042000084F8900101F0ECFEA4F8580101F0E8FEFA
:10421000A4F85A0101F0E4FEA4F85C0101F0E0FE0C
:10422000A4F8800101F0DCFEA4F88201CBE0537910
:104230004FF0070AB3FBFAF2C2EBC2029A1A12F06D
:10424000FF0F7FF48AACB3FBFAFABAF1000F00F06B
:10425000BA8001F0BAFE5FFA80FB4FFA8BF002F0F1
:10426000A1FC0AF1FF3A5FFA8AFA814600283FF47E
:1042700074AC80F800B001F0B3FEA9F8020001F0C0
:10428000A4FE89F8040001F0A0FE89F8050001F001
:104290009CFE89F8070001F098FE89F80600D4E733
:1042A000DFF8D89209F1400A01F09AFEA9F8B002AD
:1042B00001F08BFE89F8B20201F087FE09F10409D2
:1042C00089F8AF02D145EFD17DE001F07EFE1F28D5
:1042D0003FF643ACD8F800305B79082B7FF43DAC57
:1042E00000F18C0A01F07CFE04EB8A0900F03F002B
:1042F000A9F8020001F074FEB9F80220800100F470
:10430000FE531343A9F8023001F05FFE000104F8E8
:104310002A0001F05AFE14F82A3000F00F0018436A
:1043200004F82A0001F051FE89F8010003F0DEFADA
:1043300049E0012385F8B83145E001F046FEFF2849
:10434000824623D100238DF81B309DF81B30052BAE
:1043500015D89DF81B20774B9DF81B10012003EB0F
:10436000C101496800FA01F153F8320089B24822CC
:1043700002F0E1FB9DF81B300133DBB2E3E76E484E
:104380004FF48051042202F0D6FB1CE005283FF6D2
:10439000E4AB002001F004FE01F0DEFDD8F80030AF
:1043A000186802F0C1FDD9F8000001F0A3FD5046E5
:1043B00007F0F6FC0A2002F0ECFC0CF0B3FED8F893
:1043C000003083F849B0002001F0EAFD01F0C4FD9F
:1043D000D8F80030002283F8482095F8B8314BB166
:1043E000386802F0A1FD07F01FFF02F0DCFC534A21
:1043F000534BDA60534B4C379F427FF4A6A9524B84
:104400009B68002B00F09380504898478FE009F09C
:10441000D3FEDBE70C2803D14D4802F0ACFD59E098
:104420000A2801D00D2857D14A4C4B4804F1BC064C
:1044300002F0A1FD3046232110F077FF10B1801B60
:10444000C4F8B800D5F8B830002B38D0591E705CCD
:10445000404A202801D10B46F6E7C2F8B830134491
:10446000002283F8BC203D4B3D4CD3F800A0D4F88B
:104470000090DFF8E080484610F064FF08F1BC07C8
:10448000064649463846324610F064FF354B38B987
:1044900008EB060292F8BC2052445278520703D02F
:1044A00010349C42E3D306E09C4204D2701CE368C3
:1044B0003844984702E02C4802F05DFD00232B4869
:1044C00000213022C5F8B83010F0FCFE28480378EF
:1044D000002B94D0274809E07F2811D1013BC4F874
:1044E000B83000222344244883F8BC2002F043FD66
:1044F000FFF794B80C288FD07F2804D1FFF78EB82F
:104500002F2B3FF68BA8A0F12002D2B25E2A3FF6F5
:1045100085A813B920283FF481A85A1C2B44C5F85C
:10452000B82083F8BC0001F09DFDFFF777B811B00B
:10453000BDE8F08F58A60108000801400400FA0504
:1045400000ED00E00C1C0020F80B0020421C0020B5
:1045500092A60108881A0020B8B50108580000206A
:10456000488F0108189101089DA60108441B0020EE
:10457000353100208DA60108B9A601089C02002053
:104580002DE9F04F4728ABB0044600F0858600F2D5
:10459000CE802E2800F0348667D8222800F0E984E7
:1045A00023D8032800F0628214D8012800F0538237
:1045B000022840F0C186042001F0F2FC422001F004
:1045C000B9FC542001F0B6FC462001F0B3FC4C20AD
:1045D00000F0E8BD042800F05382052840F0AC86C6
:1045E0001A2001F0DDFC00245CE2282800F0A185FF
:1045F00015D8242800F08885262840F09D86D34CC5
:10460000062001F0CDFCB4F8580101F0CCFCB4F860
:104610005A0101F0C8FCB4F85C0100F0D4BD2A28AE
:1046200000F09A852C2840F08786C84C0C2001F0B9
:10463000B7FC94F8900101F07DFCB4F89A0101F008
:10464000B2FCB4F8960101F0AEFCB4F8980101F0A8
:10465000AAFC94F8910101F06DFCB4F89C0101F002
:10466000A2FCB4F89E0100F0AEBD3A2800F013831E
:104670001DD8342800F0B6840DD8302800F0D68537
:10468000322840F05986012001F08AFCAF4B93F8A4
:10469000920100F087BD362800F09885382840F058
:1046A0004B86042001F07CFCA84C00F033BD402870
:1046B00000F07B8511D83B2800F054843D2840F061
:1046C0003B86A24C022001F06BFC94F8E00101F063
:1046D00031FC94F8DF0100F065BD452800F0FF854E
:1046E00000F2C985422840F02786984C102001F03E
:1046F00057FC607901F01EFCA06801F05DFC94F8A5
:10470000900101F017FCB4F8580101F04CFCB4F82A
:104710005A0101F048FCB4F85C0101F044FCB4F823
:10472000800101F040FCB4F8820100F04CBD6F281C
:1047300000F00E8300F21A81662800F0F18100F289
:10474000DD804D2800F00E8515D8492800F0FA824A
:104750004B2840F0F1857D4C042001F021FC94F8B9
:10476000D60101F0E7FB94F8D70101F0E3FBB4F8C0
:10477000D80100F028BD642800F0AD81652840F024
:10478000DB850B2001F00CFC714B724C188801F09A
:104790000AFC208880B201F006FC6F4B1B68C3F353
:1047A000C000C3F38002800040EA4200C3F340022D
:1047B0001043C3F3401240EAC20003F01003184351
:1047C00001F0F1FB654BA4781A8812F0010F0CBFC1
:1047D0000020022012F0020F0CBF0021042112F071
:1047E000040F0CBF0023102303935D4B02F0080A53
:1047F0001B6812F0400F03F0C00B03F480794BEA02
:104800000A0A0CBF0026202603F4805812F0100F6D
:104810004AEA090A019003F4005C0CBF00204FF43F
:1048200000704AEA080A12F0200F029103F4804E49
:104830000CBF00214FF480614AEA0C0A12F4807F19
:10484000049605900CBF00264FF4006603F4003078
:1048500003F400474AEA0E0A0796089003F48036EC
:104860004AEA070A06914AEA060A03F48021089EEA
:1048700009914AEA060A099E03F400254AEA060A53
:1048800003F480104AEA0505284303F0007303434C
:10489000344812F4007F06780198C6F3800643EA94
:1048A0000603029E43EA0003039843EA0603049EBC
:1048B00043EA0003059843EA0603069E43EA000321
:1048C000079843EA060343EA00030CBF00214FF4B4
:1048D000001112F4806F43EA01010CBF00234FF076
:1048E000806312F01B0F41EA03014FF000000CBF80
:1048F00000234FF0006319430346FCE0692800F0F1
:10490000AC810AD8672800F03381682840F014850C
:10491000102001F045FB002497E16D2800F0B281E2
:1049200000F2E2816C2840F007850F4C062001F070
:1049300037FB208801F037FB608801F034FBB4F9C5
:1049400004000A2390FBF3F0FAE100BF9C02002070
:10495000140C0020481C00203C02002044020020CF
:104960004002002037310020B40B0020772800F0EF
:104970008B834BD8732800F0A2833CD8702800F0BA
:104980001182722840F0D884C54C162001F008FB33
:10499000B4F8960101F007FBB4F8400101F003FB05
:1049A000B4F8420101F0FFFAB4F8440101F0FBFA57
:1049B000B4F8D80101F0F7FA002001F0BBFA0020AA
:1049C00001F0B8FA002001F0B5FA94F8850101F081
:1049D000B1FA94F8920101F0ADFA002001F0AAFAC0
:1049E000B04B1B68B3F95E000A2390FBF3F080B272
:1049F00001F0D9FA8EE3742800F01483752840F092
:104A00009B842F2001F0CCFAA74CA3E2A02800F051
:104A10006D830AD8782800F0B7807B2840F08C841A
:104A20003C2001F0BDFA00243EE2F12800F0E780CE
:104A3000FE2800F04F83F02840F07E84994C04203B
:104A400001F0AEFA2368B3F8620001F0ACFA236813
:104A5000B3F86000B7E3032001F0A2FA002001F0F0
:104A600069FA204601F066FA0D209BE301F098FAFE
:104A7000022001F05FFA012001F05CFA022091E3CC
:104A8000062001F08DFA412001F054FA462001F091
:104A900051FA4E2001F04EFA412001F04BFA834BBF
:104AA000187890E3824B185D013401F043FA0B2C27
:104AB000F8D100247F4B185D013401F03BFA082C3B
:104AC000F8D100247C4B185D013401F033FA072C37
:104AD000F8D100F015BC072001F062FAE72001F0E0
:104AE00029FA6F4B587901F025FA002001F022FADB
:104AF000042000F003BCA3420CD2704A9D5C01224A
:104B000002FA05F50D4218BF9A4003F1010318BFE0
:104B10001043F0E701F050FA614B93F8AC0741E322
:104B2000122001F03DFA664B00241B88B3F5806F1C
:104B300094BF01250825634BE05E023490FBF5F03D
:104B400080B201F030FA062CF5D15F4C208C01F0D8
:104B50002AFA608C01F027FAA08C5C4C01F023FA51
:104B6000208801F020FA608801F01DFAA0882AE36D
:104B7000102001F015FA0024554B185D013401F0A6
:104B8000D9F9102CF8D1BBE3702001F009FA002606
:104B90000E247443434D01362B682344B3F821019E
:104BA00001F001FA2B682344B3F8230101F0FBF96B
:104BB0002B682344B3F8250101F0F5F92B68234451
:104BC00093F8270101F0B6F92B68234493F82801E4
:104BD00001F0B0F92B68234493F8290101F0AAF9F8
:104BE0002B68234493F82A0101F0A4F92B681C4494
:104BF000D4F82B0101F0E0F9082EC9D180E3702030
:104C000001F0CEF9264C04F1700594F8D00001F0C3
:104C100091F994F8D10001F08DF994F8D20001F0E7
:104C200089F994F8D30001F085F994F8D40001F0E3
:104C300081F994F8D50001F07DF9073494F8CF009C
:104C400001F078F9AC42E0D15AE3224B185D01340F
:104C500001F070F9102CF8D152E31B4D002495F8A7
:104C60002600400000F0FE0001F09AF995F8263089
:104C70009C4280F04583184B33F8140001F093F9FF
:104C80000134F3E7062001F08BF9144B186801F0AA
:104C900093F9134B5AE0042001F082F9114B31E2F1
:104CA0009C020020100C002077920108383100206F
:104CB000AB9A0108B79A01088F9A01084B1C002093
:104CC000100000204A120020481C00209002002002
:104CD000BC0D00205C0D0020520200204C02002080
:104CE000E00B0020BC0B0020072001F059F9B14B6C
:104CF0004FF6FF741888FF28A8BFFF20C0B201F04C
:104D000019F9AD4B1868A042A8BF204620EAE07010
:104D100080B201F048F9A94B188D01F044F9A84B75
:104D200093F88521A74B42B11B680A205843A04243
:104D3000A8BF204620EAE07002E0186800F30F00E8
:104D400080B240E2022001F02BF99F4B18883AE232
:104D50009E4C0B2001F024F923680025187801F0FF
:104D6000E9F823682646587801F0E4F83368974C50
:104D70002B441879013501F0DDF8032DF6D12368B5
:104D8000D87901F0D7F82368987801F0D3F8236830
:104D9000D87801F0CFF82368588901F004F9236826
:104DA000587AFFE18A4D1E2001F0FAF82B680024A2
:104DB0001B78022B65D12B6804F1080253F82200FE
:104DC00084490DF059FB10F0DDFD80F30800C0B2FE
:104DD00001F0B0F82B68804903EB8403D86A0DF02A
:104DE0004BFB10F0CFFD80F30800C0B201F0A2F839
:104DF0002B6804F10E0253F8220078490DF03CFBB9
:104E000010F0C0FD80F30800C0B2013401F092F848
:104E1000032CD0D1072C2B6821D1586C6D490DF093
:104E20002BFB10F0AFFD80F30800C0B201F082F858
:104E30002B686849986C0DF01FFB10F0A3FD80F300
:104E40000800C0B201F076F82B6893F84C000DF022
:104E5000BBFA10F097FD80F30800C0B20BE02344CA
:104E6000587801F067F82B682344D87A01F062F88B
:104E70002B682344587D013401F05CF80A2CC9D119
:104E80003EE22B682344587801F054F82B68234401
:104E9000D87A01F04FF82B682344587D013401F093
:104EA00049F80A2CEDD12BE2494D04F108022B6898
:104EB0004A4953F822000DF0DFFA10F063FD80B28A
:104EC00001F071F82B68454903EB8403D86A0DF0B3
:104ED000D3FA10F057FD80B201F065F82B6804F1A9
:104EE0000E0253F822003D490DF0C6FA10F04AFDBB
:104EF000013480B201F057F8032CD5D1072C2B6870
:104F000016D1586C35490DF0B7FA10F03BFD80B260
:104F100001F049F82B683149986C0DF0ADFA10F0AA
:104F200031FD80B201F03FF82B6893F84C000BE0A4
:104F30002344587801F037F82B682344D87A01F0DD
:104F400032F82B682344587D013401F02CF80A2CE8
:104F5000D4D1D5E114F8010F002800F0D18100F080
:104F6000E9FFF7E7012001F01BF8194B1B681878DF
:104F700018E1502001F014F80024154B04F1200230
:104F80001B680C2103EB82035D1C154A5B7801341E
:104F900001FB0323187A00F0CDFF687800F0CAFF08
:104FA000A87800F0C7FFE87800F0C4FF142CE4D123
:104FB000A6E100BF5412002060120020481C00200F
:104FC0009C0200205C1200200C0C00207C0C0020B5
:104FD000100C0020000020410000C84200007A446C
:104FE00018910108482000F0DBFF002506266E43DB
:104FF000C44BD0361B6801351E44B07900F09AFFCF
:10500000707800F097FFB07800F094FFF07800F02F
:1050100091FF307900F08EFF707900F08BFF0C2D3E
:10502000E4D16DE1002701240025B74B9A78954221
:1050300022DA0333E95C0023B44A03EB02089A5CEA
:105040008A4204D00C33B3F5AE7FF5D112E0D8F824
:10505000040010F077F981460CB9264601E00744B8
:1050600008E04E4506DAD8F80430985D00F062FF9B
:105070000136F6E70135D8E7002C00F04181F8B29F
:1050800000F08EFF0024CFE79F4D0024A87800F0A9
:1050900087FFAB789C4280F033819D4BE05C00231E
:1050A0009A4A99189A5C824204D00C33B3F5AE7FC9
:1050B000F6D102E0087A00F03DFF0134E9E708206C
:1050C00000F06EFF0124E0B2013400F033FF092C40
:1050D000F9D115E1082000F063FF00248D4B185B27
:1050E000023400F060FF082CF8D109E10C2000F038
:1050F00057FF894B186800F05FFF884B186800F075
:105100005BFF874B1868F9E0042000F049FF854BEE
:105110009868F3E094F87A0100F00CFF94F87E01AF
:1051200000F008FF94F87D0100F004FF94F87F017F
:1051300038E07C4C072000F033FFB4F8800100F029
:1051400032FFB4F8820100F02EFF94F8840100F0E1
:10515000F1FEB4F8860136E0012000F021FF714B2A
:1051600058791FE0684E704C96F82600002500EB39
:105170004000C0B200F014FF96F8263002349D4281
:1051800080F0BE8014F8020C00F0D4FE14F8010C7C
:10519000013500EB800000EB800000F2EE2000F013
:1051A00002FFE9E700F0C6FEAAE0082000F0F8FEE2
:1051B00000245C4B234493F88801013400F0BAFECC
:1051C000082CF6D19CE000F0EEFE99E04E4B554CD9
:1051D00093F8320004F12805C0EBC000C0B200F023
:1051E000DFFE94F8F6010023504AD25C904200F0B2
:1051F000A5800C333C2BF7D10834AC42F1D17FE0D1
:10520000402000F0CDFE474C04F14005B4F8B00258
:1052100000F0C9FE94F8B20200F08CFE043494F859
:10522000AF0200F087FEAC42F0D169E0E02000F070
:10523000B7FE3C4C04F18005B4F83202043400F0AF
:105240003F0000F0B0FEB4F82E02C0F3861000F06C
:10525000AAFE94F82C02000900F06CFE94F82C02CF
:1052600000F00F0000F066FE94F82D0200F062FEE0
:10527000AC42E1D144E02E4C0D2000F091FE04F050
:105280005DFD00F057FE208800F096FEE06800F01B
:1052900093FE02F083FB31E000F0ACFE0446842074
:1052A00000F07EFE204600F087FE214BDD6804F111
:1052B0008003AB428CBFC4EB0505802505F0EEFBF7
:1052C00020462A460AA904F03FFB00240546AC42CA
:1052D00016DA0AA9085D00F02DFE0134F7E7132065
:1052E00000F05EFE0024134B185D013400F022FE36
:1052F0000B2CF8D1002000F05FFE002000F05CFED7
:10530000012032E0100C0020481C002018910108F8
:105310004B1C0020721C0020E8F7FF1FECF7FF1F5A
:10532000F0F7FF1F9C0200203C0400207C1C0020A2
:1053300020000020AB9A0108002016E000F0FAFDE2
:10534000B4F8F80100F02FFE94F8FA0100F0F2FD35
:1053500094F8FB0100F0EEFD94F8FD0100F0EAFD89
:1053600094F8FC0100F0E6FD46E72BB0BDE8F08FB5
:10537000084BDA68D10709D4DA68520708D4DB6829
:1053800013F0100F0CBF042003207047012070475A
:10539000022070470020024030B500221346214908
:1053A00014180C5D83EA0423082413F4004F4FEA19
:1053B000430318BF83F4815304F1FF3418BF83F013
:1053C000010314F0FF049BB2EFD10132192AE6D198
:1053D00000F119028D5C00F11A028A5C02EB0522D1
:1053E00092B29A421DD1104B1D782346DAB2AA42DE
:1053F00014D2441C04EB4202D2B28C5C01328A5CAF
:1054000002EB0424A4B24FF4AF625443074A2413BE
:1054100004F5487422F813400133E7E7044B0122F6
:105420001A7030BDB81C0020D3150020DA1C0020F3
:105430001402002003788B4283BF034B03EB41012E
:10544000488C0020704700BFB81C002003788B42B6
:105450000AD9064B1A78064B53F8210002B14008CE
:1054600000F5777080B2704700207047982D0020BB
:10547000FC00002007299ABF024B33F821000020CE
:10548000704700BFF4010020024B33F81100C00840
:10549000704700BFBC01002008B5074B53F821003E
:1054A0000CF092FF05490CF0E7FF05490CF0DCFE1B
:1054B0000DF0CEF980B208BD300100200000203F81
:1054C00000005C44014B33F811007047141C0020AD
:1054D000014B33F81100704718020020014B33F8DC
:1054E000110070471802002000207047F8B50746E9
:1054F00001F029FC2B4E2C4CF36B2C4DC31AB3F549
:10550000FA5F3364F06302D9002323702B70237891
:105510001BB9A12F04BF01222A702A781AB1FFB249
:10552000F75401332370224B21781A781F46914299
:1055300036D1204B1B78052B02D0062B03D02CE054
:105540000020FFF729FF73781E2B26D13878002220
:1055500001381346D1B2814219DA775C19463B46CD
:10556000082781EA030C1CF0010F1CBF83F018030D
:10557000C3F3460307F1FF370CBF5B0843F080031A
:1055800017F0FF07C1F34701EBD10132E2E7325CCC
:10559000934202D10320FFF7FFFE00232B702370FC
:1055A000F8BD00BFB81C0020D1150020D015002088
:1055B000D2150020D415002010B5044601F0C3FB1D
:1055C0000D4B41F288315A6C5864821A8A429A64AF
:1055D00084BF002283F84C2093F84C30074AE4B291
:1055E0000F2BD45403D1064B01221A7010BD024A6E
:1055F000013382F84C3010BDB81C0020E9000020B7
:10560000E000002010B5044601F09DFB0D4B41F277
:1056100088311A6D1865821A8A425A6584BF002241
:1056200083F8582093F85830074A142BD45403D1E8
:10563000064B01221A7010BD024A013382F858301D
:1056400010BD00BFB81C0020DD010020DC010020DF
:1056500010B5044601F077FB244AD36DD065C31A18
:10566000B3F57A6F84BF002382F8603092F860301F
:1056700033B9A82C39D11E490B701E490B8006E0A6
:10568000022B02D11C490C7001E0242B01D81B49CC
:10569000CC540133DBB282F86030174A1278023200
:1056A0005200934217DA134AE0B2138883EA0020CB
:1056B000082310F4004F4FEA400018BF80F48150D7
:1056C00003F1FF3318BF80F0010013F0FF0380B235
:1056D000EFD1108010BD0132934206D1034B00225E
:1056E00083F86020024B01221A7010BDB81C002004
:1056F00091010020940100209201002096010020D9
:1057000010B5044601F01FFB0E4B40F6AC515A6E2B
:10571000821A8A42C4BF002283F8682093F8682066
:1057200009498C541AB90F2C0BD10649486601322D
:10573000D2B283F86820192A044B0CBF0122002240
:105740001A7010BDB81C0020780100202C01002028
:105750000A88F0B54B888F880E89CD88002A3AD107
:10576000048C834A24F001042404240C0484018B57
:10577000048C89B221F0F30141EA0616B6B29042D8
:10578000A4B246EA070743F0010315D002F5006210
:10579000904211D0B0F1804F0ED0A2F598329042D5
:1057A0000AD002F58062904206D002F580629042F3
:1057B00018BF24F00A0401D124F002042343078314
:1057C0000384038B23F00C031B041B0C0383038B48
:1057D0009BB21D4344E0042A44D1048C644A24F063
:1057E00010042404240C0484018B048C21F44071E3
:1057F0000905090D41EA063189B241EA07279042BD
:10580000A4B2BFB212D002F5006290420ED0B0F145
:10581000804F0BD0A2F59832904207D002F58062FB
:10582000904203D002F58062904207D124F0200418
:1058300044EA03139BB243F0100304E024F0A004F5
:1058400043F01003234307830384038B23F4406353
:105850001B041B0C0383038B9BB243EA0525ADB2EB
:105860000583F0BD082A018C3ED121F48071090422
:10587000090C0184818B3E4A89B221F0F301048C2A
:1058800041EA0616B6B29042A4B246EA070712D021
:1058900002F5006290420ED0B0F1804F0BD0A2F51D
:1058A0009832904207D002F58062904203D002F510
:1058B0008062904207D124F4007444EA03239BB22F
:1058C00043F4807304E024F4206443F4807323439E
:1058D00087830384838B23F00C031B041B0C8383BB
:1058E000838B9BB21D4341E021F480510904090CD4
:1058F0000184828B048C22F440721205120D42EA5C
:10590000072242EA06361A4AA4B29042B6B212D030
:1059100002F5006290420ED0B0F1804F0BD0A2F59C
:105920009832904207D002F58062904203D002F58F
:105930008062904207D124F4005242EA033292B2CC
:1059400042F4805205E047F6FF52224043F4805370
:105950001A4386830284838B23F440631B041B0C4D
:105960008383838B9BB243EA0525ADB28583F0BD6B
:10597000002C01401F4B10B55A6802F00C02042A9B
:1059800003D0082A04D01C4A14E01C4A126811E013
:105990005A685968C2F38342C90302F1020201D472
:1059A000174906E0596811F4003F1449096818BF07
:1059B00049084A4302605968124AC1F30311545C12
:1059C0000168E14041605C68C4F30224145D21FA7F
:1059D00004F484605C68C4F3C224145DE140C160D7
:1059E0005B68C3F381331A44137CB1FBF3F10161AB
:1059F00010BD00BF0010024000127A001400002009
:105A000000093D00A8920108024B1A6922EA000031
:105A10001861704700100240CB78F0B5DA0648BF35
:105A20008A78098803F00F0548BF154311F0FF0F6E
:105A30001DD0046800220127974007EA0106BE42F4
:105A400011D197004FF00F0C0CFA07FC05FA07F77D
:105A500024EA0C04282B44EA070401D1466102E041
:105A6000482B08BF06610132082AE4D10460FF29EF
:105A70001FD94468002202F108060127B74007EA4F
:105A80000106BE4211D197004FF00F0C0CFA07FC33
:105A900005FA07F724EA0C04282B44EA070401D18D
:105AA000466102E0482B08BF06610132082AE2D1B4
:105AB0004460F0BD10B50446FFF75AFC012806D13A
:105AC0001CB1FFF755FC013CF8E7052010BD002C88
:105AD00008BF052010BD38B50C4B0D4C99680D4B17
