:020000040800F2
:100000000050002021590108CD590108F54201088E
:10001000CD590108CD590108CD5901080000000053
:10002000000000000000000000000000CD590108A1
:10003000CD59010800000000CD590108CD4201084A
:10004000CD590108CD590108CD590108CD590108F4
:10005000CD590108CD5901083D4201083942010836
:10006000CD590108CD590108CD590108CD590108D4
:10007000CD590108CD590108F9410108CD590108B0
:1000800041420108CD590108CD590108CD59010857
:10009000CD590108CD590108CD5901083542010853
:1000A000CD590108B5410108CD590108C5410108E4
:1000B000A541010895410108854101087D420108DB
:1000C000754201087942010871420108CD590108C1
:1000D000CD590108ED410108E1410108D541010870
:1000E000DD420108CD590108CD590108000000008A
:1000F0000000000000000000000000000000000000
:0C01000000000000000000005FF808F1A3
:100110002DE9F04F754B764EA3B03360002373602A
:100120000AF0D6F818B913F079FA0AF0F5F80EF0DB
:100130006DFA704B704F1A78704C42F001021A70D1
:1001400000230A930B930C934FF4E0130D933B6839
:10015000217B43F480333B60BB6943F01003BB61F8
:100160003B6803F400330B930A9B01330A930B9B08
:100170001BB90A9BB3F5A06FF2D13A685E4B12F43B
:10018000003201D0022315E0186840F00100186029
:100190000A923B6803F002030B930A9B01330A9314
:1001A0000B9B1BB90A9BB3F5A06FF2D13B689D076F
:1001B00039D501230C93524B52481A6842F0100271
:1001C0001A601A6822F003021A601A6842F00202EA
:1001D0001A607B687B607B687B607B6843F480632C
:1001E0007B60494B1A68043B22F070425A60474AD0
:1001F0001060786820F47C107860586840F0004007
:100200005860D86820F40040D8609B68180449BF43
:100210003F4B4FF4E01313604FF480130D930C9B8E
:10022000012B01D117E0FEE7022B18D169B10D9B1C
:10023000B3F5801F02D14FF4A01305E00D9BB3F579
:10024000E01F02D14FF400130D9379680D9B0B430F
:1002500043F4803302E07B6843F460137B603B68C7
:1002600043F080733B603968234B8901FBD55968A3
:1002700021F003015960596841F0020159607B681F
:100280001D4903F00C03082BF9D14868214B00F0FD
:100290000C00042803D0082804D01A4900E0116893
:1002A000196011E048684D68C0F38340ED0300F128
:1002B000020001D4184905E0496811F4003F1168B3
:1002C00018BF49084843186079681448C1F30311FE
:1002D000014491F818A0196821FA0AFAC3F800A09D
:1002E0001368084A93421BD101221DE0B590000813
:1002F000E8140020D03400200010024098020020B2
:100300000020024000127A0004100140100000207A
:10031000001BB7005000002000093D00A0B70108F5
:100320005C4A934202D102225B4B1A70DFF89C9127
:100330005A4B22ADC9F80C30BB69DFF888B143F0E5
:100340000103BB617B6A4FF00008B3607B6A5448CD
:1003500043F080737B62BB6943F01C03BB614FF6C3
:10036000FF7325F82C3D29468DF85E8005F0D9FFF6
:100370005846294605F0D5FF29464A4805F0D1FFE1
:10038000494B28465A6842F000725A6010F030F922
:10039000464A179B4146B3FBF2F345480C22F360F3
:1003A00017F0D8FC4FF47A72424BBAFBF2FA0AF11A
:1003B000FF325A60F02289F823200722C3F8088010
:1003C0001A60A368DFF80091DFF804A1C9F80030D3
:1003D000394B0FCB85E80F00BB69179843F0080332
:1003E000BB61BB6918A943F00803BB610823CBF8C4
:1003F00010301023CBF8103005F093FF19981AA98C
:1004000005F08FFFD9F800301B0767D59AF89031B7
:10041000012B63D8294B9AF891219B6813F0805ADD
:1004200000F0A5864346002B58D0254ADFF894B04B
:100430001068DFF86C804FF01009CBF81490294653
:100440001790404605F06DFF0822C8F810203C20A8
:1004500009F019FBCBF810904FF00009C34694F84F
:100460009121914536DA174A4FF00808C2F81080FA
:100470007820CBF81480039209F0FAFA039A7820D6
:10048000C2F81480CBF8108009F0F2FA09F10109E2
:10049000E5E700BF001BB700FC3400200005FA05AB
:1004A00000080140001001400000014040420F00E0
:1004B000C434002010E000E0C8B70108E8140020B0
:1004C000D8B70108000C0140D000002000ED00E08A
:1004D00098020020BAF1000F00F05286642009F063
:1004E000D2FAA0229748002117F034FCFB690022C1
:1004F00043F00703FB61BB6943F4006343F00C0363
:10050000BB61914B002703F11001575401320E2AB1
:10051000F7D1FF229A77DA7783F8202083F8212019
:100520008A4A8B4BD2F800808A4A39461A608A4838
:100530003C2217F00FFC08F04009052339460C2037
:10054000864A48438F5C844A8754B9F1000F06D12C
:100550001E3F012F03D8FF27013B8754DBB2013137
:100560000529ECD17E497F4A7162C0311370B162B6
:1005700062797D4B7D491A7001EBC202724B527851
:1005800018F0200F18BF0122DA620023784A40F2E7
:10059000DC5199520233102BF8D1DFF80892DFF8C2
:1005A0000882D9F800A0BAF90C0014F081F9714959
:1005B00014F086FABAF80A300146A8F80030306321
:1005C000074614F0C9F94FF07E5114F0BDF818F049
:1005D0009FF94FF07E5114F0B7F8394614F070FAD5
:1005E00017F0C8FD644914F0B7F914F07BFB634BB6
:1005F0001880D9F800304FF4C879B3F90E0014F020
:1006000057F95F4914F0A8F914F06CFB5D4B80B208
:1006100018805D4B1880B8F800304FF00008C3F523
:10062000617292B203F5617307929BB2574A0693C7
:10063000C2460FFA89F318460392029314F038F970
:100640004C4914F03DFA524914F086F9514914F01E
:1006500037FA834617F0A4FE01465846059117F075
:100660003DFF84465846CDF810C005F003FC0599BF
:10067000834607F1004014F06FF9DDF810C06146C1
:1006800014F060F8444914F067F9594614F064F91D
:1006900014F028FBDDF81CE0029B039A0FFA8EF1A0
:1006A00080B28B4222F8020F14DBDDF818E00FFA5B
:1006B0008EF18B420EDC00B20FFA8AFA0FFA88F83C
:1006C0005045B8BF82464045A8BF80461FFA8AFA07
:1006D0001FFA88F809F10A091FFA89F9B9F5AF6F0D
:1006E000A7D10FFA8AFA2D4BCAF1000A0FFA88F83F
:1006F000C245B8BFD04610A800211C22A3F8008034
:1007000017F028FB114B264FD3F8008018F4007A1D
:1007100008F400694AD018F4005F0DD1B9F1000F58
:1007200008D094F8842107F10C03012A18BF3B4636
:10073000079304E0079702E007F10C02079217AB5A
:10074000169335E024330020E8140020D000002068
:10075000B81D002090040020781E0020F8D5010864
:10076000A8020020751E00205A0D0020E0D60108C6
:10077000600D0020000020410000A041740D002009
:100780009999993E700D0020720D00202A0F0020CB
:10079000DB0F49400000344300007A442A0F002058
:1007A000A0B70108500D0020760D0020CDF81CA048
:1007B00063790E2B03D003F0EF03082B02D1012342
:1007C0008DF85230012008F00BFF18B1408800303E
:1007D00018BF0120C8F340038DF84630C8F38013DA
:1007E0008DF84930C8F3403300F001008DF84030F7
:1007F000C8F3C0338DF845008DF84330B9F1000FD0
:1008000007D094F88491B9F10100D0F1000959EBB7
:100810000009C8F300438DF84A30F36A1AF1000A60
:1008200018BF4FF0010A003318BF01238DF84C3078
:10083000C8F300538DF84D30B4F84631B4F844E1B4
:10084000ADF85030B4F8523108F00101ADF84E3037
:10085000C8F380438DF8473094F85431C8F3C00290
:10086000181C18BF01208DF84800B4F8500118F486
:10087000805F8DF844908DF841108DF842208DF8FE
:100880004BA0ADF85400ADF856E005D0DFF84CE3CE
:10089000BEF84CE1ADF856E0B0F5FA7F02D90BB9DD
:1008A000ADF8563094F8D431BD4886F83430002382
:1008B00086F8353043709DF85230002B14BF022368
:1008C000002301B902B1013307EB8303DB6B4FF067
:1008D000000B0893CDF818B0DDF820E04FF6FF7359
:1008E0003EF80B209A4200F09E81D3B2DFF8F082EE
:1008F0009DF845101E0108EB060419B1991E012947
:1009000040F28B819DF8491029B158F80610A5488E
:10091000814200F082819DF84AE0BEF1000F05D0CF
:1009200058F806109F48814200F077819DF84610E4
:1009300039B161689C48814203D12189102900F0B6
:100940006C819DF8431039B161689748814203D1A9
:100950002189022900F061819DF8441039B1616854
:100960009248814203D12189022900F05681DDF8A5
:1009700058C0BCF1000F0FD06068DCF8001088424E
:100980000AD12189BCF80400884200F04681BCF8F5
:100990000600884200F041814FEA1229B9F1020FA6
:1009A00002D19DF8402004E0B9F1010F04D19DF877
:1009B0004120002A00F031819DF84C206AB19DF859
:1009C000522052B9A3F10802012A06D858F806109D
:1009D000774A914208BF4FF004099DF84D2062B15B
:1009E0009DF852204AB9BEF1000F02D00C3B012BFA
:1009F00001E0043B032B40F2F880B9F1010F43D131
:100A00006C4BFF2283F87C2083F87D202189627B58
:100A10004FF0000A83F880A0C3F88C406068ADF8FE
:100A20005C108DF85E2017A9022283F838A0C3F865
:100A30003CA0C3F840A0C3F844A0C3F878A083F852
:100A40007EA083F87FA08DF85F20029305F069FCFB
:100A500058F80600A17A52460FF080FD2046514614
:100A60004A4609F0C0F9029B534AC3F898A0C3F85C
:100A70009020524A2046C3F8942003F1900103F1DC
:100A800094020CF04FF8C8E0B9F1020F41D1DDF843
:100A900018E01C225FFA8EF35A4349494FF00003D5
:100AA00001EB020A8AF802308AF80A3001238AF838
:100AB00001E08B542189627B6068CAF80C40ADF874
:100AC0005C1017A902938DF85E208DF85F9005F0F9
:100AD00028FC58F80600A17A00220FF03FFD029B87
:100AE00020461A46002109F07EF9364B0022CAF84A
:100AF0001030354BCAF81820CAF8143020460AF1D5
:100B000010010AF114020CF00DF8069B0133069354
:100B100083E0B9F1030F65D19DF84730254E8BB1C5
:100B20009DF8483096F836803BB1BDF85430274ADE
:100B30002046B2FBF3F2082120E0204608214FF6C0
:100B4000FF721EE0BDF8543096F83680B3F5FA7F98
:100B50000FD91E4A2046B2FBF3F20821BDF85630E9
:100B600092B209F06AF906EB8803C3F86001184BEA
:100B70000EE0184A2046B2FBF3F20121BDF85630D0
:100B800092B209F05AF906EB8803C3F86001124BE0
:100B9000C36096F83630013386F836303DE000BF4A
:100BA0001D1500200004004000080140000C014019
:100BB000002C0140E8140020634B0008654C00083D
:100BC00068150020990501083D4C000800127A00C4
:100BD000854C000840420F00754C00089802002028
:100BE00000D60108B9F1040F17D1BDF84E30AC4A58
:100BF000AC4E92FBF3F22046BDF85030012192B288
:100C000096F8358009F019F906EB8803C3F89001CE
:100C100096F83530013386F835300BF1020BBBF115
:100C20001C0F7FF459AE9F4C9F4B94F835204FF02A
:100C3000000E84F8B0219D4A83F800E016789846AB
:100C4000A6F11702022A1ED8F146636A002153F862
:100C5000090003EB090A14F013F810B1E36A8BBB27
:100C60002BE0934B09EB030E9AE80F008EE80F0080
:100C700098F8003009F110090133B9F1C00F88F874
:100C80000030E2D1EAE78B4B13F8369003EBC60352
:100C9000D3F804A088F80090BAF1000FDED0CE455A
:100CA000DCDA834A4FEA0E1303EB020C53440FCBFA
:100CB0000EF1010E8CE80F00F1E77F4A1368D904AA
:100CC00025D41EE007EBC60797F84C007B4B3F6D21
:100CD0001870002FF1D000238342EEDAC3EBC3017A
:100CE0007A18D2F80090DFF808C2013341F80C906E
:100CF00001EB0C0E9188AEF8041092798EF8062064
:100D0000EAE706F0EF03082B6D4B27D128E098F8AF
:100D10000090B9F1010FF4D96A4F4FF00008C845AF
:100D200007F11007EDDA57F8100C4FF07C5113F073
:100D300013FE4FF07C5147F8100C57F8140C13F0C9
:100D40000BFE4FF07C5147F8140C57F80C0C13F0C5
:100D500003FE08F1010847F80C0CE0E70E2E08D15D
:100D60001A78182E42F010021A7008D104F0F3FA23
:100D700005E01A78192E22F010021A70F5E70EF02D
:100D800049FE4D4A13685A0302D44F4B01221A7090
:100D90004E4B4F4E1A784F4F42F004021A70337880
:100DA0004FF48052012B8CBF102314238DF85E303A
:100DB0004FF002038DF85F30BB69ADF85C2043F063
:100DC0000403BB618CBF4FF001084FF0000842489C
:100DD00017A905F0A6FA414BB8F1000F01D0404A1F
:100DE00000E0404A00201A6008F080FE3E4BDFF829
:100DF000048193E80300BB6985E8030043F008031E
:100E000018A9BB61179805F08CFA0DF0A9FB9F2378
:100E10008DF83C30322000234FF480598DF83D305E
:100E20008DF83E308DF83F3008F02DFE0422C8F8D2
:100E3000149028460FA90EF0C1FCC8F810909DF838
:100E40005E209DF85D30120242EA03429DF85F3059
:100E50001A43264B9A4214D0322008F014FEC8F8E8
:100E60001490F5200EF03AFDFF200EF037FD7028AB
:100E7000C8F8109005D13378022B02D1144B03220D
:100E80001A703378032B0CBF1F20022008F060FB80
:100E90003378032B30D0012009F070FB36E000BF1F
:100EA00040420F00E81400204C0D00205A0D002095
:100EB000780D0020E0D60108D0000020980E002018
:100EC00092020020800D002038140020D034002031
:100ED000FC3400200010024000080140E0340020F3
:100EE0008D900008A1900008BCB8010815202000D2
:100EF000990E0020000C0140022008F071FB18B18F
:100F00004088003018BF0120C307C4D5AD4B4FF057
:100F1000100B1D68AC4B5A461846002196F800A0ED
:100F2000029316F017FF4FF6FF72ADF83C20029BBC
:100F300002228DF83E2000262A4005F4004905F4DF
:100F400000688DF83F601D460DD022A921F84CBDE8
:100F50009E480FF09FFB04232B706E700723012621
:100F6000AE70EB7000E01646B9F1000F0ED0022310
:100F700022A921F84C3D95480FF08CFB0123F21873
:100F80002B71AB7107236E71EB71D6B2BAF1010F01
:100F90000FD9202322A921F84C3D8C480FF07AFB71
:100FA000052301222B72AA72731C07226E72EA7249
:100FB000DEB2B8F1000F0FD0022322A921F84C3D78
:100FC00083480FF067FB092301222B73AA73731C5C
:100FD00007226E73EA73DEB27B687E4843F44043B7
:100FE0007B607B69DFF8EC8143F001037B61BB69C7
:100FF00043F40073BB6108F0E7F8774B00271793C1
:10100000764B022E189334BF3B4680231C934FF43B
:1010100080731D934FF480631E93202317A91F93A1
:1010200040464FF400531A96209319971B97219727
:1010300008F0ACF8D8F80030012E43F00103C8F8EE
:101040000030674B98BF00215A6888BF012122F405
:10105000702222F4807242EA01225A609968614A41
:10106000013E0A4042F4602242F002029A60DA6ACB
:10107000F6B222F4700242EA0656DE6238460123D6
:1010800029188A78002A5AD02A5C5E1C092A91F80D
:1010900003E0F6B2524911D9A2F10A0707EB47075C
:1010A0004FF0070C0CFA07FC0EFA07FED1F80C8083
:1010B00028EA0C0C4CEA0E07CF600EE002EB420768
:1010C0004FF0070C0CFA07FC0EFA07FED1F810805F
:1010D00028EA0C0C4CEA0E070F61062B40490ED88B
:1010E000013B03EB83034FF01F0E0EFA03FE9A4001
:1010F0004F6B27EA0E0747EA02034B6320E00C2BF5
:101100000ED8073B03EB83034FF01F0E0EFA03FECE
:101110009A400F6B27EA0E0747EA02030B630FE0C2
:101120000D3B03EB83034FF01F0E0EFA03FE9A40B4
:10113000CF6A27EA0E0747EA0203CB6200E01E46A9
:101140000430102801D033469AE7254B9A6842F4C0
:1011500080729A609A6842F001029A609A6842F03E
:1011600008029A6099681E4A0F0710D5FAE702F143
:10117000FF38B8F1090F8CBF00230123FFF753B9E3
:10118000194B83F891A10DF0F9FBFFF7A7B993680C
:1011900043F004039360124A936813F00403FAD1F6
:1011A000916841F4A00191600F4AB2F85801F0B97A
:1011B000B2F95A31D3B9B2F95C31D3F1010338BF76
:1011C000002314E0D0000020881C0020000801400B
:1011D000000C0140080002404C240140981C0020F3
:1011E00000240140FDF7F1FF98020020034613F0B0
:1011F000010340F08A80BB4A00B2137113F058FB20
:10120000B94913F0A9FBB94F0646B7F95A0113F0D3
:101210004FFBB54913F0A0FB0546B7F95C0113F08D
:1012200047FBB14913F098FB8146304604F0CCFCF3
:101230000746304604F056FC8046284604F0C4FCBD
:101240000646284604F04EFC0546484604F0BCFC21
:101250008246484604F046FC39468146504613F023
:101260007BFB39468346484613F076FB5146069091
:10127000404613F071FB49460890404613F06CFB62
:1012800031460990504613F067FB4946C4F8B40153
:1012900006F1004013F060FB2946C4F8B801C4F819
:1012A000BC51089813F058FB0146069813F04CFA0D
:1012B0002946C4F8C001099813F04EFB0146584670
:1012C00013F040FA3146C4F8C40108F1004013F0AD
:1012D00043FB2946C4F8C801584613F03DFB0146BC
:1012E000099813F02FFA2946C4F8CC01069813F098
:1012F00033FB0146089813F027FA3946C4F8D001A9
:10130000304613F029FBC4F8D401794D2B689E03B5
:1013100020D5C82008F0B7FBAE2009F073FA08B159
:101320000EF0ADFC84F8D801C82008F0ACFB714B7E
:1013300000210C227048C4F8DC3116F00BFD0223AA
:1013400084F8E33111F028FD08F021FA6B4B0344D7
:10135000C4F8E8316A4F654E3B6896F85F0196F82D
:10136000691196F86A21B3F956300AF0AFFB10B94B
:1013700001200CF0F1F9634B4FF00A081A7842F0A3
:1013800002021A70604B10225A6108221A615E4FE5
:101390001920FB6808F1FF3883F01003FB60FB683D
:1013A00083F00803FB6008F06EFB012008F09EFB51
:1013B000192008F068FB002008F098FB18F0FF08DF
:1013C000E5D108233B614FF01008504BC7F810805F
:1013D0001B68180709D54E4BC7F814801B6898473F
:1013E0004C4B0122C7F810801A70D4F8EC714FF002
:1013F0000008387B13F05CFA3B4913F0ADFA04F0B7
:10140000E3FB454BC4F8F001188813F051FA01468C
:101410004FF07E5013F054FB404BC4F8F4013249B6
:10142000186913F099FAC4F8F801387813F040FA03
:1014300001464FF07E5013F043FB0146C4F8FC0117
:101440004FF07E5013F07EF94FF07E53C4F8000247
:101450004046C4F80C32C4F81832C4F80482C4F808
:101460000882C4F81082C4F8148204F0ADFB074669
:10147000404604F037FB39468046384613F06CFA94
:1014800041468246404613F067FA39468146504647
:1014900013F062FA41468346484613F05DFA01466E
:1014A000584613F051F93946C4F81C02404613F06F
:1014B00053FA3946029013F04FFA029B8346414695
:1014C000184613F049FA034619465846029313F09A
:1014D00039F9029BC4F820021946584613F034F932
:1014E0001EE000BF1000002035FA8E3C980200205C
:1014F000D000002020040020C8160020404B4C00E3
:10150000400C0020D0340020000C014038020020A4
:1015100084020020980A00200C000020280C0020E3
:101520004146C4F82402504613F016FA3946804664
:10153000484613F011FA0146404613F003F900271C
:10154000C4F8280284F82C72B64CFF211B222046D6
:1015500016F000FC2770B44FB44B3A68012112F02A
:10156000020F1970204604D0617003211970022106
:10157000A170510704D519784C1C1C7003244454E5
:1015800012F00A0F0CD01A7804218154511CC9B2F0
:1015900005244454D11C02321970D2B20621815460
:1015A0002A68940604D519784C1C1C7007244454EE
:1015B000110608D51978092444548C1C01311C707B
:1015C000C9B20A2444547179082901D00E2908D1DE
:1015D0001C7804F1010E83F800E04FF00B0E00F8C8
:1015E00004E01C784FF00C0C04F1010E5FFA8EFE43
:1015F00012F4803F83F800E000F804C009D004F141
:10160000020C8A4C84F800C0864C4FF00E0C04F893
:101610000EC0540708D51C7804F1010E83F800E0D1
:101620004FF0100E00F804E01C784FF0120C04F19B
:10163000010E5FFA8EFE12F4806F83F800E000F86E
:1016400004C00ED096F824C2BCF1000F09D004F1FA
:10165000020C764C84F800C0724C4FF0130C04F866
:101660000EC01C784FF0140C04F1010E5FFA8EFED0
:1016700012F4007F83F800E000F804C009D004F100
:10168000020C6A4C84F800C0664C4FF0150C04F84C
:101690000EC0182913D11C784FF0160E00F804E084
:1016A00004F1010E5FFA8EFE4FF0170C00F80EC029
:1016B00004F1030E0234E4B283F800E00155110393
:1016C00004D519784C1C1C7019244454D20504D537
:1016D0001A78511C19701A238354002198225448F7
:1016E00016F038FB534C10F09DFFB6F84E315249BE
:1016F000A4F834320023514A0B808B70B6F896015F
:101700004F49C4F830220A6084F8363282B24D491B
:101710005A520233242BFAD12B6813F4805F08BF8E
:10172000B6F89C211B07CA8040F1EF8096F89031F3
:10173000062B00F2E480DFE803F004070E3955A120
:10174000A10045F2F05201E042F6F8223E4B1A8029
:1017500010F0F2FFD2E03C4B42F6F8221A8013F070
:10176000A7F83A4913F0F8F8394912F0EBFF13F0F3
:10177000DFFA0023374A98500433482BFAD1364A0F
:10178000364B40209A60364B12221A7007F066FFE3
:10179000002800F0B48001234FF0070990F9000001
:1017A00040218DE808022F4A2F4BA2E0264B42F63B
:1017B000F8221A802D4A294B40209A60284B10228B
:1017C0001A7007F04BFF002800F0998001234FF0BA
:1017D000000890F9000040218DE80801244A4FF4E8
:1017E000E13386E0184B42F6F8221A80214A1B4B5F
:1017F00040209A601A4B08221A7007F02FFF002829
:101800007DD001234FF0000C90F9000040218DE8BD
:101810000810194A4FF4E1330CF058FEC4F83802AE
:1018200069E000BF131E002038020020121E0020B5
:101830001C1D0020E8140020500E00202004002071
:10184000D80000204E020020800C0020CDCCCC3FE0
:101850000000B0442C010020399000081000002046
:101860002E1E0020D9990008A086010029900008AA
:101870002999000815900008DD9800084A4A42F6A8
:10188000F821118049490C22062B49480A7010D0D2
:101890000023037084F83C3284F83D321B2384F823
:1018A0003E32052384F83F2284F840324FF4E13879
:1018B0000EE00021017084F83C1284F83D12DFF83C
:1018C0001881212184F83E1284F83F2284F84032A6
:1018D000384A394B40209A6007F0C0FE78B10123A6
:1018E0004FF0000E354A90F9000040218DE8084085
:1018F00043460CF0EBFD003018BF012028B908204A
:1019000004F014FB2E4A2C4B9A602B68274A13F4E0
:10191000804F04D0122111702A482749886042F272
:101920000101194089B1204944F6206008809804DB
:1019300004D50821117024481F498860D90704D5AF
:101940000C21117021481C49886011781B06A1F1F7
:10195000040151707ED5DFF884804FF00009DFF874
:1019600080A0494615221A48DFF878B0C4F844A28E
:1019700088F80190C8F80490C8F8089016F0EAF9C1
:10198000AAF105034846CBF800300BF09FF8114B45
:1019900002201B68C8F80C3007F060FE434618BBF5
:1019A000802004F0C3FA4DE0800C00202E1E0020A1
:1019B00010020020D58F000810000020C5970008F5
:1019C0008990000865900008719000087D900008DB
:1019D00030170020C034002090D00300000C0020FD
:1019E00090040020200C002090F805E05A78C949A6
:1019F0004FF00C0C0CFB021C9CF801C0F44504D009
:101A00000132D2B2042AF2D900225A70DBF8002047
:101A10005B7812784FF00C0E0EFB0311002A0CBFFE
:101A20000122032290F90000009200224B780192DB
:101A300002210CF04BFDB84B18600028B0D00120FB
:101A40000BF044F8B54AB64B106800F5C5721A6041
:101A500004F02AFB2B68980559D5DFF81883079BFB
:101A60004FF01009C8F80030AE4BAF489A690EA984
:101A700042F001029A61079A8DF83A9013884FF06C
:101A8000000AADF8383002238DF83B3004F049FCF1
:101A9000D8F80030A4485B880EA9ADF8383004238C
:101AA0008DF83A3004F03DFCD8F800300120197A66
:101AB00004F022FCD8F800309C4A5B6817A85361F8
:101AC0008DF861904FF0010917938DF860A08DF8A3
:101AD000629007F02DFBD8F800300FA85B7A8DF8E4
:101AE0003EA08DF83C3003238DF83D308DF83F90BB
:101AF0000BF0D6F98E4B1A688E4B3C3A1A603B6855
:101B00004FF0FF3243F010033B608B4B1A608B4B5E
:101B10008B4FC4F860328033C4F864322B684FF0C6
:101B20000008D90387F8008040F1BA8004F064FA15
:101B3000DFF844C2DFF8EC9140F22A3B4FF0010A93
:101B400060465A46414687F800A0CDF810C016F00E
:101B500001F9D9F818307B4843F00403C9F818306C
:101B60004023ADF8383018238DF83B300EA90323FD
:101B70008DF83A300EF08EFDD9F81C30724F43F0DC
:101B80000203C9F81C30714BA9F694791A68704B9E
:101B9000B2FBF3F23B88013A23F45C731B041B0C89
:101BA0003B8092B21D23BB853A85A7F814A03B8CDD
:101BB00023F001031B041B0C3B843B8CB9883A8B3C
:101BC00023F0020322F0730212041B04120C1B0CFC
:101BD00089B242F0600243EA0A03B9803A83A7F867
:101BE00034803B843B8B23F008031B041B0C43F025
:101BF00008033B83B7F844306FEA43436FEA53432B
:101C00009BB2A7F84430D9F8A83F43EA0A03C9F8C1
:101C1000A83F484607F0D8FA4E4B8022DDF810C0A6
:101C20001C924FF4807217931D9210234FF40052B0
:101C3000484617A9199320920293CDF86C80CDF8ED
:101C40007880CDF87C80CDF88480CDF860C0CDF868
:101C500068B007F09BFABA89029B92B242F4007214
:101C6000BA81D9F800200FA842F00202C9F800207A
:101C70008DF83C308DF83DA08DF83E808DF83FA06A
:101C80000BF00EF9344B1A68344B48F8032008F176
:101C90000408B8F1800FF5D10BF020F80BF01EF816
:101CA0002B685A0540F18C80D4F894852C4B042085
:101CB000C3F8008007F0D2FC0421C4F8980507F0AF
:101CC000A3FC284B84F89C050820C3F8008007F08B
:101CD000C5FC254B0821186007F096FC234F84F8BB
:101CE0009D05002138462C2216F034F88E237B7097
:101CF0004FF07C0AE0234FF07D09FB7087F800A0CD
:101D000087F82B901A4F2C220021384616F022F823
:101D100034E000BF50A60108FC0B0020400C00205E
:101D20003C0D002000100240000C01400004014066
:101D3000C0340020F40B0020C40B0020CC04002091
:101D4000551400200008014000040040500000200D
:101D500000366E013404004088AA010856140020A1
:101D6000CC1E0020201F00206C1F0020F01E002031
:101D7000251F0020F80B0020501700208A237B70BD
:101D80001020A023FB7087F800A087F82B90C4F8E0
:101D9000A08507F063FC1021C4F8A40507F034FC0B
:101DA00084F8A8052020C4F8AC8507F057FC202152
:101DB000C4F8B00507F028FC84F8B40510F0C0FEA4
:101DC000744B754F1B78022B68D1744B4FF0000891
:101DD0001A88322022F040021204120C1A801A884B
:101DE0004FF4805922F038021204120C1A801A881B
:101DF00092B242F040021A809F238DF83C308DF859
:101E00003D808DF83E808DF83F8007F03CFE8DF8D8
:101E10005D80DFF8D8810422C8F8149017A80FA9B4
:101E20000DF0CCFCC8F810909DF85E309DF85D2058
:101E30001B0243EA02439DF85F201343584A934232
:101E400019D00AD8A2F51A42033A93420CD002F5EF
:101E50001A420232934209D01BE0524A934205D003
:101E60000132934207D014E0202300E080233B801E
:101E70004FF4807302E04FF480733B807B80BB881B
:101E80003A881B02BB605343FB60012384F8B535DD
:101E900004E000233B807B80BB60FB60FB6823B3D6
:101EA0004FEAD328C1464FF0000AC2450BDA0AEBCD
:101EB00008077F100DF15C0BF8025946102208F05C
:101EC00037FB0F2806DC10F031F94FEAC923C4F8BC
:101ED000B8350AE000235BF80320013255D1043302
:101EE000102BF8D1B846B946DFE72B6813F400226F
:101EF0002D4B18BF01221A7007F049FC2B4B1860BC
:101F00007379052B03D12A4B4FF4C8721A80294BE1
:101F10004FF47A721A80284BC8221A80274B28491E
:101F20001A7842F008021A70264B1A7822F0020240
:101F30001A700A6840F6020313406BB12248234B23
:101F40001860234B03201870224B01201870224880
:101F50000023038021480380930308D5042384F8D9
:101F6000E43194F8E33143F0010384F8E3311C4B8E
:101F700001229B680B601B4B1A701B4B1A7862F096
:101F80007F021A7023B0BDE8F08F07F1010A4F46B7
:101F9000A9E700BFFC3400201C00002000380040EE
:101FA00018BA20001740EF0039140020440C00201C
:101FB000DC1C0020F6340020F034002092020020C7
:101FC000D0000020FB34002012040020C41E00209A
:101FD000241F0020540000207A1C00207C1C0020BC
:101FE0009802002038140020D0340020000C01405A
:101FF00095492DE9F04F0A68944C02F59C439448AA
:102000002778203387B00360B7B163689A4240F203
:10201000F180013F2770EDE03368072D98BF595DCF
:102020008C4B88BF29461B688B489847032D0AD9DB
:1020300004EB450528810137874BFDB21A78874E9E
:10204000AA42E9D81EE0336805F10E0203EB8202D2
:102050009388D2880028EBD0C01A4FF47A71484395
:10206000D31A90FBF3F0084440F6C903984205DC0C
:1020700040F2EE239842B8BF184601E040F6CA008D
:1020800080B2D5E7764A42F20109126802EA0909EC
:10209000744AD9F10109127838BF4FF0000932B9FA
:1020A000B9F1000F06D0704A92F8008003E04FF0BB
:1020B000010800E0C8460F2293F800A084F82C2005
:1020C0006A4A4FEA4A0192F800B003910321BBFB30
:1020D000F1F101EB4101C1EB0B01C9B233684900D9
:1020E0000025634E02912F4603998D424BD0B8F1E3
:1020F000000F02D05F4AA85A00E040469A8A824206
:1021000005D8DA8A824234BF0022012200E0002290
:1021100032B9F8B2019200930DF0B8FB009B019A1E
:102120005FFA87FEBEF1030F0BD852B94FF0010CD6
:102130000CFA07FC454A92F82CE02EEA0C0E82F8C5
:102140002CE0B9F1000F18D1029AB0523F4A92F830
:10215000761029B9BBF1020F0FD9012082F8760061
:10216000728830881044B2881044434A80B2A85222
:1021700000B2032290FBF2F080B2404A0137A8522D
:1021800006360235B0E794F82C203D4BB2F10F0132
:102190004A424A4184F890203A496AB13A4A126860
:1021A000520109D40A68D9689A60521AC82A1DD9FE
:1021B000012283F8212019E02A48002209680270D0
:1021C0009868D9605B68091A994288BF2C4B4FF018
:1021D000000588BF83F82120554507DAE8B20DF0E5
:1021E00055FB264B23F815000135F5E71F4B1A78F0
:1021F00001321A701A4E3368DF0405D5224B1B6872
:10220000DD0701D410F062FA144B0F4A1968176801
:102210008B7A002B3CD0194A013B32F813000B7B20
:102220001BB1C0F53B60083080B200B2A0F57A70F7
:10223000B0F57A7FA8BF4FF47A7020EAE07012F010
:1022400037FB124959E000BFD4340020A41A002003
:102250002C020020180000202E1E0020D800002094
:10226000D0000020C8000020D40000201E1700204D
:10227000D21A0020AC1A00201C1B00204E020020A5
:10228000500E0020C03400203C02002000007A44A0
:10229000326810043AD5D4F894008B4A381A0028D2
:1022A00034DB07F59C402030C2F894008748C97A97
:1022B0004579874830F8150080B290FBF1F092F82C
:1022C0009810013101F00F0182F898100A4482F849
:1022D000990018467F4A9A5C01331044102B80B253
:1022E000F8D100B290FBF3F000B26428A8BF6420DC
:1022F00020EAE07012F0DCFA774912F0E1FB77494E
:1023000012F02AFB12F014FD754B18803368754DDE
:1023100013F4807F00F00381734B9F42734F03D906
:10232000BA780AB90122BA70BA78002A00F0F780A8
:102330006F4A95F800901278C9F3800902926D4AAD
:10234000029B1168002BC1F3806A93460CBF4FF0CB
:1023500003084FF0000897F82020052A00F2D980E2
:10236000DFE802F0034D5378859FB9F1000F39D0B3
:10237000614A1068614A11880DF02EFB012808D1CE
:102380005F4A64201168D4F8AC20D28800FB0212A6
:102390003A61BAF1000F0CD0D4F8AC20127942B1F6
:1023A0000AF0A2FB032287F820204FF47A72FA6128
:1023B000D1E7029A002A40F0AC80514A396910688E
:1023C0004A4A88420AD901920AF08EFB019A0321F7
:1023D00082F8201040F6B831D161BCE7012182F8C3
:1023E0002010B8E74FF48060BAF1000F02D007F078
:1023F000DBFB01E007F0E8FB00223A6189E0029B89
:10240000002B46D10AF070FBA5E7029A22B1052203
:1024100087F82020012000E00298B9F1000F0CD0CD
:10242000354A4FF002081268D189364A118051802E
:102430009180D4F8AC104988D180314A11687A690A
:10244000914202D8B9F1000F60D147F23052FA61DF
:1024500003221FE02A7842F002022A7010F036F9B7
:10246000274A1168FA690A44BA61042212E0244A30
:10247000029B11688BB1BA6991424AD9224A1278FB
:102480001AB9DBF80020D10743D42A7822F00202DF
:102490002A70052287F820205DE7FA690A44BA61AC
:1024A00037E0174A64201168D4F8AC20D28800FBCA
:1024B00002124FF480603A61002287F82020FA70FF
:1024C00007F082FB47E700BFA41A0020881C002009
:1024D000981C00203D1B00200000C84200C07F4423
:1024E000301E0020FB340020404B4C00500E0020DA
:1024F000C80000203C020020181700201C170020F4
:10250000C03400204E0200200500002000287FF487
:1025100022AFB8F1000F02D0404607F00BFB974FF7
:1025200007F5C470B7F84E110DF056FA804670B931
:1025300003F0A4F80023C4F8B080C4F8B480C4F851
:10254000B880C4F8BC30C4F8C030C4F8C4302B78AC
:102550005A0745D53368DB0642D5894B1B78DF0621
:102560003ED4884B1F789FB1B8F1000F1AD186482E
:1025700090F8E0317BB1854B1A68D4F8C8309B1ACB
:10258000002B08DA10F0A2F8814B83F8CC8027E00A
:10259000B8F1000F1CD1102007F0CCFA012384F809
:1025A000CC301DE0784991F8E0313BB1774A4FF4E7
:1025B0007A71126801FB0323C4F8C83094F8CC3058
:1025C00073B107F09BFA724B002283F8CC2007E02E
:1025D00094F8CC3023B107F091FA6D4B83F8CC70AE
:1025E000694A92F8DE9192F8DF11B2F898E1B2F8F8
:1025F0009AC100221346674F9B08D05F0232704594
:10260000C4BF63F07F03DBB26045B8BF43F0400353
:10261000082AF0D194F8CD005D4A984205D192F88D
:10262000CE00F92804D8013000E0002082F8CE0066
:1026300084F8CD30534B584F1A789A46DAB93B6834
:10264000D80708D5B8F1000F15D12B78D90712D5C6
:1026500010F0BCF80FE02B785A070CD54F4B1B78C5
:102660004BB14F4BDB7833B911B110F02FF802E0CA
:10267000B8F1000FF9D094F8CE20DFF814B1142A85
:10268000DFF8308140F0A8809AF8002019F10009A5
:1026900018BF4FF001094AB39BF8CD205F2A0FD134
:1026A0002A7802F0040202F0FF0112B110F00EF8D5
:1026B00006E00B20019107F03DFA01998BF8CE104E
:1026C000B9F1000F12D094F8CD307D2B0ED12B78BC
:1026D00003F0040303F0FF0B13B10FF0F7FF05E065
:1026E0000B2007F027FA2A4B83F8CEB02B7803F0A3
:1026F000040303F0FF00002B6ED194F8CD30244A80
:10270000572B15D1274B4FF47A721A8033681B066A
:1027100001D503F0E5FB244B1B68580702D5234A7B
:102720000A21118013F0080356D1214A138053E087
:102730003168490717D55A2B15D192F8CF302BB1F4
:10274000012382F8CF0082F8D03045E092F8D130F2
:1027500083F0010382F8D1300BB10C2000E00D2092
:1027600007F0E8F938E05D2B00F058855B2B00F0AE
:1027700057855E2B20D1032000F053BD9802002026
:10278000920200200500002098020020C0340020A2
:10279000A41A00204E0200203C020020C8000020A5
:1027A000500E0020F634002038020020F0340020C3
:1027B000260D0020400C0020562B01D10CF0DEF835
:1027C0009AF80030002B00F0428594F8CD306F2B42
:1027D00040F037850FF0FAFF3368580737D594F883
:1027E000D130AD4A9BB12B78590710D5AB4BAC48D3
:1027F000B3F90610B0F89831994208DD3B6813F040
:10280000010304D13221A2F8D21082F8D1303B6802
:1028100013F4803FA04B0CD094F8D4202AB993F83D
:10282000CF2012B93222A3F8D220012384F8D43069
:102830000DE094F8CF2052B12A7802F0040202F0A1
:10284000FF0122B9012283F8CF1083F8D020D8F8F5
:1028500000A000230AF1790B3B600AF17B0998463E
:102860000BF1020303EB080113F808204B7819F869
:10287000010C9A420AD249460BF090F830B119F88F
:10288000023C01229A403B6813433B6008F1040874
:10289000B8F1500F09F10409E2D1824B1B7853B112
:1028A000814BDFF820921A68984612F0020F7F4F92
:1028B00040F044833CE30AF1C9090AF1CA0798468B
:1028C00009F1010303EB080113F808204B7817F80E
:1028D000010C9A4229D239460BF060F828B397F8D8
:1028E00002E03879724B0EF1FF3E4FF00C0C0EEB0C
:1028F0004E0E0CFB00FC9E44674B97F803B003F1AF
:10290000D80A0AEB0C02516871450ED000210AF872
:102910000CB0C2F804E09160012202FA00F093F8D2
:10292000082122EA000083F8080108F10608B8F13E
:10293000480F07F10607C3D15E4BDFF88CA1D3F82F
:1029400000805D4B4FF0000B1B6802935B4B1B78C4
:102950000393DAF80030002B00F0E18293F8009046
:10296000B9F1000F00F0DB82DAF804200298821A35
:10297000002A0CDB00F5FA72CAF80420012202FAE0
:102980000BF294F8081121EA020284F80821039A54
:10299000002A00F0C4821AF8042C59780432D2B20A
:1029A000002940F07A823D4931F912203C49B1F8C2
:1029B000961101F1C800824201DD9F7814E0C83908
:1029C0008A4202DA9F787F420EE0012303FA0BF37A
:1029D00094F8082122EA0303029A84F8083102F5E8
:1029E000FA73CAF804309AE294F8083143FA0BF308
:1029F000DB0700F19482002FCCBF0220012007F0FA
:102A0000BBF809F1FF33132B00F28182DFE813F0EA
:102A10001400230032005E007B008400E8004C01BB
:102A2000B001E40114027F025E006F008400E80040
:102A30004C01BA001E01820198F8003040461F4444
:102A4000FA2FA8BFFA2727EAE77788F8007006F080
:102A500051FE01201EE098F8013040461F44642FCB
:102A6000A8BF642727EAE77788F8017006F042FEDE
:102A700002200FE098F8033040461F44642FA8BF9F
:102A800064270F4B27EAE77788F80370196806F088
:102A9000EDFD03203946CCE1A41A00204E020020AF
:102AA00098020020FA3400203C020020400200205E
:102AB000B4BE0108480D0020C0340020C80000202A
:102AC000E01D002038020020801B002098F805102F
:102AD0000D2039446429A8BF642121EAE17188F8F6
:102AE00005100FF0A5FCB9F10D0F00F0108298F859
:102AF00004100E2039446429A8BF642121EAE17141
:102B000088F8041095E198F806100520394481F3FF
:102B1000080188F806108CE1A64B1B681A78022A77
:102B200021D13846009311F0C3FEA34911F0C8FF2C
:102B3000009B596A11F008FE0021019012F0AAF8DA
:102B4000019A009B40B910469B4912F0C1F8019AC6
:102B5000009B10B1984A00E000225A620F201146F3
:102B60000FF07AFC0AE099780F203944C829A8BFF1
:102B7000C82121EAE17199700FF05AFCB9F10F0FE9
:102B800000F0C5818B4BD3F8009099F80030022BF0
:102B90001AD1384611F08CFE874911F091FFD9F80F
:102BA000201011F0D1FD0021074612F073F830B962
:102BB0003846814912F08CF810B17F4F00E00027B1
:102BC000C9F82070122058E199F8011012203944F8
:102BD000C829A8BFC82121EAE17189F8011028E1BC
:102BE000744B1B681A78022A21D13846009311F0E1
:102BF0005FFE714911F064FF009B196B11F0A4FD99
:102C00000021019012F046F8019A009B40B910464D
:102C1000694912F05DF8019A009B10B1664A00E024
:102C200000221A63102011460FF016FC0AE0197BEF
:102C300010203944C829A8BFC82121EAE1711973BD
:102C40000FF0F6FBB9F1100F00F06181594BD3F88A
:102C5000009099F80030022B1AD1384611F028FE66
:102C6000554911F02DFFD9F82C1011F06DFD002100
:102C7000074612F00FF830B938464F4912F028F8DD
:102C800010B14D4F00E00027C9F82C701320F4E07C
:102C900099F80B1013203944C829A8BFC82121EA8C
:102CA000E17189F80B10C4E0424B1B681A78022AC4
:102CB00021D13846009311F0FBFD404911F000FF8F
:102CC000009BD96B11F040FD0021019011F0E2FF53
:102CD000019A009B40B91046374911F0F9FF019A5B
:102CE000009B10B1344A00E00022DA631120114643
:102CF0000FF0B2FB0AE0997D11203944C829A8BF22
:102D0000C82121EAE17199750FF092FBB9F1110F19
:102D100000F0FD80274BD3F8009099F80030022B8B
:102D20001AD1384611F0C4FD244911F0C9FED9F872
:102D3000381011F009FD0021074611F0ABFF30B942
:102D400038461D4911F0C4FF10B11B4F00E00027A9
:102D5000C9F83870142090E099F8151014203944FF
:102D6000C829A8BFC82121EAE17189F8151060E0DF
:102D7000104BD3F8009099F80030022B20D1384640
:102D800011F096FD0C4911F09BFED9F8281011F0B6
:102D9000DBFC0021074611F07DFF30B938460649BB
:102DA00011F096FF10B1044F00E00027C9F8287019
:102DB000092062E0E41D00200000C84200007A44BF
:102DC00099F8031009203944C829A8BFC82121EA6D
:102DD000E17189F803102CE0B24BD3F8009099F818
:102DE0000030022B1AD1384611F062FDAE4911F0C5
:102DF00067FED9F8341011F0A7FC0021074611F046
:102E000049FF30B93846A84911F062FF10B1A64F0A
:102E100000E00027C9F834700A202EE099F80D1060
:102E20000A203944C829A8BFC82121EAE17189F8DC
:102E30000D100FF0FDFA6AE09A4BD3F8009099F864
:102E40000030022B1DD1384611F032FD974911F0A8
:102E500037FED9F8401011F077FC0021074611F039
:102E600019FF30B93846904911F032FF10B18E4F3A
:102E700000E00027C9F840700B2039460FF0ECFA4B
:102E800045E099F817100B203944C829A8BFC8217C
:102E900021EAE17189F81710CBE7012937D1997838
:102EA000834B33F91220B2F5617F05DB40F6330323
:102EB0009A42B8BF134601E04FF46173B9F10C0FA9
:102EC00025D14FF49667A3F5617397FBF1F793FB58
:102ED000F7F794F80931FFB2BB4218D0032F754AB7
:102EE00094BF3B460223744982F809310E2202FB4B
:102EF0000313724A03F2BE73136006F015FC4846D2
:102F000039460FF095FA781CC0B206F035FE012361
:102F100003FA0BF394F80821134384F808310BF1FA
:102F2000010BBBF1040F0AF10C0A7FF412ADB7E4F8
:102F30003368D80510D5624BDB786BB1D9F8003017
:102F4000990709D53B8813F0010A0AD102F096FBD4
:102F5000012006F029FE04E0012006F035FE0123E1
:102F600000E00023D8F8002052070CD55BB1012007
:102F700006F02AFE3B889B0708D402F07FFB022064
:102F800006F012FE02E0022006F01EFE3B884D4ACB
:102F900013F0030F4FF0100114BF51611161D9F804
:102FA000002012F00A0F26D0D8F80020D00609D54C
:102FB00059070AD4042006F0F7FD434B1A88434B07
:102FC0001A8002E0042006F0FFFDD8F800309A06CF
:102FD00006D53B885B0606D4402006F0E5FD02E0FE
:102FE000402006F0F1FDD8F80030580603D5364BE6
:102FF0001A88374B1A80D9F80030990609D4D8F8C6
:1030000000301A0540F1DC804FF4807006F0CCFDF2
:10301000DAE0304B1B789B0740F198802E4B1B78F1
:10302000042B40F29380D8F8003013F4007A0ED0CD
:103030003B88DF067DD4102006F0B6FD202006F088
:10304000C3FD2648011D09F043F902226CE0B7F8E0
:10305000009009F010091FFA89F343B1102006F01F
:10306000B3FD1F4B4FF0010983F800A000E0994623
:10307000D8F80030580550D51A4B1B685A891A4B9E
:10308000B3F900100029B8BF494291422EDAB3F9D2
:103090000230002BB8BF5B429342ACBF0023012338
:1030A00025E000BFE41D00200000C84200007A4473
:1030B0004E020020A41A002098020020480D002093
:1030C000500E0020000C0140260D0020280D00208D
:1030D000701C002092020020240C0020EC1D002017
:1030E000FC1D00203C0D00201E0D00200023A3B17C
:1030F0003B8899061FD4202006F056FD7E4B7F4862
:103100001A685B68011D4360026009F0E1F87C4BBE
:103110004FF0010983F800900DE03B889A060AD52C
:10312000202006F051FD0022754B4FF001091A7066
:1031300001E04FF0000994F80A31BBB90E2006F007
:10314000F9FC704B012283F80A210FE03B8803F061
:103150003003002B3FF453AF102006F035FD202044
:1031600006F032FD664B00221A7003E0B9F1000F41
:103170003FF445AF00231A4663490020505263498B
:10318000634F5052634907EB030E50520021D9514F
:103190000232CEF80400CEF8081007F1280E50379E
:1031A00043F80E10D9519E441F44042ACEF804005F
:1031B000CEF808107860B96003F11403DCD11EE783
:1031C0004FF4807006F000FD534A53791746082BE0
:1031D00001D00E2B02D1402006F0F6FC33685B05CF
:1031E00040F1878097F824321BB92B7813F0040F35
:1031F00003E0D8F8003013F4002F0AD0002384F83D
:1032000084313C200DF068F8002872D006F0C8F92F
:10321000F7E70FF095FC0FF005FA6AE0012000E0F7
:1032200002205FFA80F93C4A09F1FF3382F8BC378B
:1032300007F072F80BF0EAF9484606F09DFCFFF73C
:10324000CBBAB9F1000F02D07E2B3FF4C3AA94F899
:10325000CD30972B05D1314B4FF4C8721A80FFF750
:10326000BBBAA72B06D12E4B1A7842F004021A7073
:10327000FFF7B2BA0022BB2B059201D1022303E073
:10328000B72B04D14FF6FE73ADF8163009E0BE2B14
:1032900001D1022303E0BD2B1AD14FF6FE73ADF826
:1032A0001430D8F80030BDF81410B3F858200A4490
:1032B000A3F85820BDF81610B3F85A200A44A3F812
:1032C0005A200BF05BFB002384F8CE30FFF784BA62
:1032D000792B04D1134BDA7822F0010206E07A2B25
:1032E0007FF47AAA0F4BDA7842F00102DA70FFF726
:1032F00073BA07B0BDE8F08FE01E0020F41D002077
:10330000FC1D0020A41A0020F2340020400D0020F3
:10331000B01B0020440D002098020020DC1C00207F
:1033200092020020C8160020834B2DE9F04FB3F91C
:103330000610824B8FB018684389994211DBB1F5B2
:10334000FA6F90F807E009DACA1A02FB0EFEA3F53D
:10335000FA639EFBF3FE0EF1640E04E0CEF1640E00
:1033600001E04FF0640E8389994219DBB1F5FA6FE1
:10337000047A10DA632CC3EB010205D9643CA4B2D1
:103380005443C3F5FA6302E05443A3F5FA6394FB94
:10339000F3F4643405E0632C03D8C4F1640400E062
:1033A0006424674BB3F8962193F95E310292654A23
:1033B0009BB2D2F800C00393674600225E4B029D89
:1033C00033F912304FEA420801935B1B03F2F31604
:1033D00040F2E635AE4203D8002BB8BF5B4201E0B5
:1033E0004FF4FA73022A4FF06406574D2ED09CF822
:1033F0001191B9F1000F04D04B45CCBFC9EB0303C9
:10340000002393FBF6F96FF0630B35F819A00BFB63
:10341000093B09F1010935F919900FFA8AF5C5EB55
:10342000090505FB0BF595FBF6F5AA44474D28F871
:1034300005A085182D796B43454D93FBF5F3643357
:103440009BB20EFB03F393FBF6F62FE09CF8129170
:10345000B9F1000F04D04B45CCBFC9EB03030023E7
:1034600093FBF6F66FF0630A05EB46090AFB063B91
:1034700005EB4606B9F90E90B6F91050039EC9EB5C
:10348000050505FB0BFB9BFBFAFBC9EB0B0909FBD5
:1034900006F92E4EA6F80490857983EAE376A6EB2A
:1034A000E3766E432A4D96FBF5F664360CEB020587
:1034B00095F801A0244B06FB0AFA642503F11C09C8
:1034C0009AFBF5FA09F802A097F80BA003F11F097F
:1034D00006FB0AFA9AFBF5FA09F802A097F815A07C
:1034E000022A06FB0AF603F1220996FBF5F61D46B1
:1034F00016BF253383F8274003F802E009F802607D
:10350000019B029EB342114E04DA36F808305B424A
:1035100026F808300132032A07F101077FF44EAF85
:10352000074CB4F89831994214DBB1F5FA6FA8BF93
:103530004FF4FA610FE000BF4E020020480D00205A
:1035400098020020400C0020301C00201E0D00209E
:103550000CFEFFFF1946C91A4FF47A725143C3F5A6
:10356000FA63B1FBF3F34FF0640E93FBFEF205EB4D
:103570004201088D6FF0630101FB023305EB42024B
:10358000B2F92A1002B28A1A534393FBFEFEB34BE0
:1035900070441B88B24F5906F0803ED5B14B188855
:1035A000B14BB3F84030C01A00B211F081F9AF4905
:1035B00011F0D2F9804602F007FB8146404602F046
:1035C00091FA8046B7F9020011F072F98246B7F914
:1035D000000011F06DF94946834611F0BDF94146EE
:1035E00003465046009311F0B7F9009B0146184678
:1035F00011F0A8F811F076FB49463880504611F0DA
:10360000ABF941468146584611F0A6F901464846B5
:1036100011F09AF811F066FB7880954B1A689A467B
:1036200012F0020F74D0934B6A6C1B6845F20721AD
:103630009A1A8A428C4F6BDD7B6409F0C7FA8E4B75
:10364000DFF864821A789946032AB8F8003022D14C
:103650000A2B2CD90023282089F8003006F013FA11
:1036600009F0B4FAB7F8480005F0CCFE834B844962
:103670001B68DA7890FBF2F0421C082A28BF082267
:103680000A7059791B7992B251435A43A7F84A10EC
:10369000A7F84C200BE00A2B09D80323784A89F8B5
:1036A000003000231370A7F84A30A7F84C3099F87F
:1036B0000020714B012A0DD002D3022A1ED027E030
:1036C000B5F84A20B8F800309A4221DD012389F884
:1036D000003011E0B8F80020B5F84C10914202DD3E
:1036E00002221A7011E06049B1F84A1001318A4291
:1036F00002DD00221A700BE0082007E0B5F84C301C
:10370000B8F8002001339A42E0DC072006F012FAF4
:10371000DAF800703A0577D5564B296D1A68524B86
:10372000C1EB020A45F207218A456DDD1A65534A4D
:10373000B6F90690D2F80080B4F84E1198F80A2035
:10374000A9F57A79012A4F4E03D046D3022A23D015
:1037500045E093F86520596D03EB4202B2F868002A
:10376000082291FBF2FE80B2CEEB0101014491FBF5
:10377000F2F2A3F8700092B2596540F6E443534365
:10378000B8F808004FF47A72C0EB13335343B8F91A
:10379000062093FBF2F321E03B4BB8F808B01B780E
:1037A000C6F800B05B071AD538480CF015F920B9F7
:1037B00017F0100F18BF4FF0000909FB09F2322370
:1037C00092FBF3F39944B8F906304FF47A7203FB95
:1037D00009F393FBF2F35B4400E0002333603368AA
:1037E000D5E91E0103FB0AFA4FF47A739AFBF3FA48
:1037F00010EB0A0041EBEA710023C5E91E01244ADF
:1038000011F0B6FA234B1860234B1A68984612F44D
:10381000805F4ED03F0649D5204B1B789E0745D58B
:103820001F4B1978042941D900231E4E05229A55B1
:10383000981C1E440A27122BC2B2777004D0B1EB39
:10384000520F0346F1D800E014222A44322382F8B2
:103850007F30FF2382F880300F2028E040020020D4
:103860001E0D0020260D0020301C002035FA8E3C55
:10387000D0000020D4340020241F0020C41E0020CB
:1038800054000020D01E0020FB3400202004002023
:10389000407E0500D41E00203C0200209202002041
:1038A000240C0020B01C0020C81E00200A2006F0B6
:1038B00041F9D5F89830AA4E002B57D0A94AD6F82E
:1038C0009C1010689146814250D896F8A000B6F836
:1038D000A220596810BB012086F8A0008A5C4AB378
:1038E0001A78D4F8EC37013A00FA02F21A4201D100
:1038F00006F0FCF8012385F8A43006F095F8B5F839
:10390000A230974EB3B9D6F898301B78053B012BFF
:1039100010D805F03CFFC6F8A8000BE0002786F899
:10392000A0708B5C33B1384606F0E0F886F8A470DE
:1039300006F07AF8D5F89820B5F8A2105268884BAE
:10394000525CFE2A03D10022A3F8A2200EE0FF2A37
:1039500002D106F0D3F809E0D9F800000A2606FBE8
:1039600002020131C3F89C20A3F8A2107E4E3278E7
:10397000500703D57D4B08225A613FE0D8F800304C
:10398000D9075CBF42F001023270794A12781207FF
:1039900003D4327822F001023270DB0203D533788F
:1039A00023F001033370734B1B685F0702D5724A23
:1039B000128862B9B5F8AC200AB1980705D46F4BEC
:1039C0001B88003318BF012300E001233BB1022311
:1039D00085F8A430337823F00103337005E03278A2
:1039E000D10758BF022385F8A43005F0D0FED5F8E2
:1039F000B030C01A002801DB06F016F80FF0A0F86E
:103A00005F4B1A78002A78D0D5F8B430002B00F03C
:103A10002587D5F8B400524C06F005F9002800F0CF
:103A20001D87D4F8B40006F0F9F8092801D03F2822
:103A300055D14FF00008D5F8B860524F44462EB12A
:103A400051483968324614F0CDF910B9B84604B976
:103A50003C464E4B10379F42F1D304B3D4F800E0FC
:103A6000D8F800C0D5F8B8303D481EF803701CF8EF
:103A70000310B94213D15A1C59B92D2B09D8C0F8DB
:103A8000B82003442027024483F8BC7082F8BC109D
:103A900005E02B4483F8BC70C5F8B820E2E7D5F800
:103AA000B8300BB1444510D0394805F031FD4445DC
:103AB00007D854F8100B05F02BFD092005F021FD67
:103AC000F5E7344805F024FD0026D5F8B8309E42CD
:103AD0009FD22D4B985D05F014FD0136F5E7D4F823
:103AE000B830002B40F0E686042840F0DD8604F173
:103AF000BC000CF039F800F0B1BE274F97F84A30FF
:103B0000012B40F0A686254BDFF894803A68C8F870
:103B100000701A609946D9F80000DFF880A006F01E
:103B200082F8002800F08386DAF8000006F076F8C4
:103B30001B4A8346136893F848201AB924285DD19C
:103B4000012258E0012A04D14D280CBF0222002294
:103B500051E0022A26D13C280CBF032200224AE071
:103B6000301C0020C0340020FB340020000C014039
:103B70009202002038020020F0340020F6340020A9
:103B8000FA340020F0BE0108EC1C0020D0C001086F
:103B9000E0D70108E5D701081C1D0020801F002088
:103BA0007C1F0020032A09D140284FF0000222D8B0
:103BB0001A71DA715871987104221CE0042A08D134
:103BC0009A7983F8490080EA020B83F806B005224F
:103BD00011E0052A39D159791A799142997906D992
:103BE00041409971511C1971134418722DE08142A2
:103BF0000CBF0622002283F8482026E03278CB4B07
:103C0000520722D4BBF1230FDAF8002012D1C848A2
:103C100001210170C748C5F8B420C5F8842100937C
:103C200005F076FCC44805F073FC009B1A7842F05E
:103C300002021A70D5F888311B785B4505D1BF4A5E
:103C4000BF4B1A60BF4AC04BDA60DFF818A3524678
:103C5000136893F848B0BBF1060F7FF45CAF93F89C
:103C6000490002F097FB002840F0DA85DAF80020DE
:103C700092F849304C2B00F0B18400F28E80352B45
:103C800000F08D8239D82B2B00F07F8420D8252B93
:103C900000F0568404D8232B00F0F88000F001BE19
:103CA000272B00F05484292B40F0FB8505F016FCEF
:103CB000A4F8800105F012FCA4F8820105F003FCD1
:103CC00084F8840105F00AFCA4F8860100F0A5BD83
:103CD0002F2B00F0188504D82D2B00F05A8400F00B
:103CE000E0BD312B00F02485332B40F0DA8505F060
:103CF000EAFB84F8920100F090BD412B00F0A9840A
:103D000018D8392B00F0308404D8372B00F0C28447
:103D100000F0C7BD3C2B00F0FA803E2B40F0C1857F
:103D200005F0D1FB84F8E00105F0CDFB84F8DF015C
:103D300000F073BD442B00F02F8526D8432B40F0B4
:103D4000B08505F0C0FB0023A360607105F0D0FBD7
:103D5000A3681843A06005F0B6FB84F8900105F055
:103D6000BDFBA4F8580105F0B9FBA4F85A0105F011
:103D7000B5FBA4F85C0105F0B1FBA4F8800105F0E7
:103D8000ADFBA4F8820100F048BD482B00F0708321
:103D90004A2B00F0428500F084BDD12B00F09383C4
:103DA00020D8CC2B00F023820FD8C82B64D004D8A5
:103DB0004E2B00F0208400F074BDC92B00F05B8313
:103DC000CA2B00F0D18000F06CBDCE2B00F04283F6
:103DD000C0F03783CF2B00F06982D02B00F0268310
:103DE00000F05FBDD82B00F04D810DD8D32B3DD016
:103DF00029D3D42B00F09F82D62B08BF4FF00009A7
:103E000000F08E8200F04DBDF22B00F0E48212D85B
:103E1000EF2B40F04685DFF84891D9F800A005F077
:103E20005DFBAAF85A00D9F8009005F057FBA9F8F5
:103E3000580000F0F2BCF32B00F0B284FA2B00F033
:103E4000138300F02EBD337803F0040303F0FF0961
:103E5000002B40F0E28405F036FB022884F8BC0712
:103E600040F2EA82394B83F8BC97E5E205F036FB75
:103E7000374B188000F0D1BC92F805904FEA5909F1
:103E8000B9F1120F1CD84FF0000A1DE005F01BFB22
:103E9000132815D8DFF8C8A000F11E0BDAF800309F
:103EA00003EB8B0B05F00FFB2A4B0BF1010903F51C
:103EB000A872197A814200F053810C339342F8D1F1
:103EC0000CF006FA00F0A9BCCA4507D205F006FBC3
:103ED00005AB23F81A000AF1010AF5E700234B4568
:103EE0001D4A06DA05A931F8131022F81310013320
:103EF000F5E709F1FF3902EB49032232934203D07F
:103F0000002123F8021FF9E70122144BAAE2DFF88F
:103F10005090D9F800A005F0D6FA8AF80000D9F838
:103F20000030187801F074FB00F077BCFB340020FF
:103F3000FA34002015D80108E5D70108EFBEADDE40
:103F4000F04F00200400FA0500ED00E09802002088
:103F5000280D0020D0C00108BC1D00201102002047
:103F6000400C00207C1F0020C94B4FF000091A684C
:103F70009A461278022A6AD1DAF8003009F1080B61
:103F8000009305F0A0FA10F08FFCC24910F098FDE4
:103F9000009B43F82B00DAF800B005F094FA09F121
:103FA0000A030BEB830B10F07FFCBB4910F088FD7C
:103FB000DAF80030CBF80400009305F084FA10F032
:103FC00073FCB64910F07CFD09F10E0B009B09F162
:103FD0000109B9F1030F43F82B00CDD1B9F1070F57
:103FE000DAF800B01AD105F06EFA10F05DFCA949BC
:103FF00010F066FDCBF84400DAF800B005F063FA83
:1040000010F052FCA34910F05BFDCBF84800DAF841
:1040100000B005F058FA8BF84C0012E005F053FAA6
:104020000BEB09035870DAF800B005F04CFA0BEB13
:104030000903D872DAF800B005F045FA0BEB090372
:10404000587509F10109B9F10A0FC7D1E5E3DAF8AA
:1040500000B005F038FA0BEB09035870DAF800B03D
:1040600005F031FA0BEB0903D872DAF800B005F06D
:104070002AFA0BEB090309F10109B9F10A0F587586
:10408000E5D1CAE38146DFF808A209F1080BDAF8A6
:104090000030009305F022FA10F006FC7F4910F082
:1040A0000FFD009B43F82B00DAF800B005F016FA7C
:1040B00009F10A030BEB830B10F0F6FB774910F0C4
:1040C000FFFCDAF80030CBF80400009305F006FAA4
:1040D00010F0EAFB714910F0F3FC09F10E0B009BA4
:1040E00009F10109B9F1030F43F82B00CBD1B9F164
:1040F000070FDAF800B01AD105F0F0F910F0D4FB90
:10410000664910F0DDFCCBF84400DAF800B005F0A9
:10411000E5F910F0C9FB614910F0D2FCCBF848007A
:10412000DAF800B005F0DAF98BF84C0012E005F08F
:10413000D5F90BEB09035870DAF800B005F0CEF9A9
:104140000BEB0903D872DAF800B005F0C7F90BEBF6
:104150000903587509F10109B9F10A0FC7D15CE3E8
:104160001B788BF8013005F0AEF989F8010005F0F5
:10417000AAF989F8020005F0A6F989F80300DAF82F
:104180000000474BC5F8B40100217930C5F8B031C3
:1041900005F0ECFA434B80F0010018703DE305F0A8
:1041A00092F90B283FF68CAE0BFB00FB384B0BF162
:1041B000C80B1B689B4405F086F903283FF680AEC8
:1041C0008BF8060005F07FF98BF8010005F07BF90C
:1041D0008BF8020005F077F98BF8030005F073F90E
:1041E0008BF8040005F06FF98BF8050015E353799F
:1041F000092B7FF665AEDFF8B090D9F800B005F076
:1042000062F98BF80000D9F800B005F05CF98BF882
:10421000010005F058F9D9F800306428A8BF6420DF
:10422000187105F050F9D9F800306428A8BF64204F
:10423000587105F048F9D9F80030FF28A8BFFF20D1
:10424000987105F040F9D9F800B0642828BF6420BF
:104250008BF8070005F037F98BF80200D9F800B0A9
:1042600005F031F98BF80300D9F800B005F036F904
:10427000DAF80030ABF80A005B790A2B40F2CD8205
:10428000D9F8009005F01FF989F80900C5E200BFD0
:10429000400C0020000020410000C84200007A4489
:1042A000D803002005000020480D002005F016F975
:1042B0006FF4AF6E00EB0E039BB2C62B98BFA4F851
:1042C000960105F00BF9A4F8400105F007F9A4F8F0
:1042D000420105F003F9A4F8440105F0FFF8A4F841
:1042E000D80105F0F0F884F8F30105F0ECF805F0DA
:1042F000EAF884F8F40105F0E6F884F8850105F0A1
:10430000E2F884F8920105F0DEF8D84BD3F800907B
:1043100005F0E4F800EB80004000A9F8560023E126
:1043200005F0DCF8D24B23F8090009F10209B9F1D4
:10433000100FF5D171E253790F2B7FF4C1AD05F069
:10434000C2F8072881463FF6BBADDFF820A3DAF8B4
:1043500000B005F0C3F80E2303FB09F90BEB0903CA
:10436000A3F81901DAF800B005F0B8F80BEB09036F
:10437000A3F81B01DAF800B005F0B0F80BEB090365
:10438000A3F81D01DAF800B005F09DF80BEB090366
:1043900083F81F01DAF800B005F095F80BEB09037C
:1043A00083F82001DAF800B005F08DF80BEB090373
:1043B00083F82101DAF800B005F085F80BEB09036A
:1043C00083F82201DAF800A005F092F80AEB09035D
:1043D000C3F8230121E205F076F80F2881463FF665
:1043E0006FAD05F070F8C9EBC90904EB090383F858
:1043F000D00003F1D00905F066F889F8010005F056
:1044000062F889F8020005F05EF889F8030005F00B
:104410005AF889F8040005F056F889F8050005F007
:1044200052F889F8060000F096FFF6E13378590754
:1044300000F1F3810FF0F2F805F06EFF0AF0E6F8F4
:10444000EBE133785A0700F1E8814FF4C873A5F81F
:10445000AC30E2E133785B0700F1DF81854B1A78FD
:1044600042F004021A70D8E133785807E4D518E214
:104470000CF0C2FED1E105F026F87E4B1A7810B19F
:1044800042F0020201E022F002021A7005F01BF86D
:10449000794BDFF8F891187005F02AF8C9F8000098
:1044A00005F026F8C9F8040005F018F8734B1880D9
:1044B00005F014F8724B188095F8B83143F00203F8
:1044C00085F8B831A9E104F0FEFF009005F010F87E
:1044D000834605F00DF8824605F00AF8814604F09F
:1044E000FDFF04F0FBFF04F0EEFF009B9BB91020E2
:1044F000C5F8BCB1C5F8C0A105F066FB5D4B1A78E4
:1045000042F001021A70B9F1000F00F086815D4B94
:10451000C3F8009081E1102B40F07F81C5F8C4B151
:10452000C5F8C8A1B9F1000F02D0564BC3F80090EE
:1045300055480223011D85F8CC3107F0C9FE6CE116
:10454000A06004F0D5FFA3681843A06065E104F003
:10455000C5FFA4F8580104F0C1FFA4F85A0104F003
:10456000BDFFA4F85C0158E104F0ADFF84F87A01C6
:1045700004F0A9FF84F87E0104F0A5FF84F87D0112
:1045800004F0A1FF84F87F0147E104F09CFF607113
:1045900043E104F098FF84F8900104F09FFFA4F831
:1045A0009A0104F09BFFA4F8960104F097FFA4F889
:1045B000980104F088FFD8F8003084F891015B7905
:1045C000DFF8CC90082B40F2288104F087FFA9F88F
:1045D0009C0104F083FFA9F89E011EE104F073FF23
:1045E00084F8D60104F06FFF84F8D70104F076FF59
:1045F000A4F8D80111E192F805B00323BBFBF3FB4B
:10460000BBF1120F3FF65CACDFF884904FF0000A6C
:10461000DA4580F0028104F056FF89F8A00104F029
:104620005DFF40F2ED23984205DD40F6CA03984253
:10463000A8BF184601E040F2EE20A0F2EE201923B8
:1046400090FBF3F089F8A1010AF1010A09F10209CE
:10465000DEE7814604F037FF04EB090309F10109A5
:10466000B9F1080F83F88801F4D1D6E0400C00209E
:10467000800E002092020020240C0020DA1E002070
:10468000D81E002044020020F41D0020E01E00205F
:104690009802002053794FF0070AB3FBFAFACAEBED
:1046A000CA029B1A13F0FF0F7FF40AAC5FFA8AFA72
:1046B000BAF1000F00F0B18004F005FF5FFA80FB53
:1046C0004FFA8BF004F08CFF0AF1FF3A5FFA8AFA96
:1046D000814600283FF4F4AB80F800B004F0FEFE01
:1046E000A9F8020004F0EFFE89F8040004F0EBFEE4
:1046F00089F8050004F0E7FE89F8070004F0E3FEFE
:1047000089F80600D4E7DFF8189309F1400A04F0AD
:10471000E5FEA9F8B40204F0D6FE89F8B60204F06A
:10472000D2FE09F1040989F8B302D145EFD174E052
:1047300004F0C9FE1F283FF6C3ABD8F800305B7900
:10474000082B7FF4BDAB00F18C0A04F0C7FE04EB2C
:104750008A0A00F03F00AAF8060004F0BFFEBAF88B
:104760000620800100F4FE531343AAF8063004F03B
:10477000AAFE00018AF8040004F0A5FE9AF80430AD
:1047800000F00F0018438AF8040004F09CFE8AF839
:10479000050001F031FC40E0012385F8CD313CE01B
:1047A00004F091FEFF28824623D100238DF81330B8
:1047B0009DF81330052B15D89DF81320824B9DF8DA
:1047C0001310012003EBC101496800FA01F153F80D
:1047D000320089B2482204F0ADFE9DF81330013357
:1047E000DBB2E3E779484FF48051042204F0A2FEE3
:1047F00013E005283FF664AB002004F04FFE04F000
:1048000029FED9F8000005F0F4F918B9322005F0B6
:104810003AF9F6E7504609F009F8002004F03EFEA8
:1048200004F018FED8F80030002283F8482095F8EC
:10483000CD3173B1386805F0DCF918B9322005F0D4
:1048400022F9F7E70BF052F905F027F9604A614BBE
:10485000DA60614B4C379F427FF450A95F4B1B6875
:10486000990616D55E4BD5F8D0211B689A1A002AF6
:104870000FDB5C4A1278042A0BD95B4A03F512332A
:1048800003F5F873C2F8D031584BDA6882F01002A1
:10489000DA60574B9B68002B00F09380554898478F
:1048A0008FE00BF015FDBBE70C2825D1524804F032
:1048B0002FFE1FE00C28F9D00A2821D14A4C4F487E
:1048C00004F1BC0604F024FE3046232113F075FAEF
:1048D00010B1801BC4F8B800D5F8B830BBBB48484D
:1048E00000213022C5F8B83013F034FA4548037877
:1048F000002BB3D044480FE07F2814D1FFF789B8CC
:104900000D28DBD07F280BD1013BC4F8B830002242
:1049100023443E4883F8BC2004F0FAFDFFF779B841
:104920002F2B3FF676A8A0F12002D2B25E2A3FF6E6
:1049300070A813B920283FF46CA85A1C2B44C5F862
:10494000B82083F8BC0004F0DCFDFFF762B8591E04
:10495000705C254A202801D10B46BFE7C2F8B83069
:104960001344002283F8BC20294B2A4CD3F800A022
:10497000D4F80090DFF87080484613F02BFA08F165
:10498000BC07064649463846324613F02BFA224BFE
:1049900038B908EB060292F8BC205244527852070C
:1049A00003D010349C42E3D306E09C4204D2701C36
:1049B000E3683844984702E0184804F0A9FD002352
:1049C0008DE70FB0BDE8F08FB0D7010800080140B7
:1049D0000400FA0500ED00E0B41D002038020020BC
:1049E000D4340020240C0020301C0020000C014096
:1049F000280C0020041E0020EAD70108DCDE010894
:104A0000EC1C0020FA340020E5D7010811D8010879
:104A10005C000020F0BE0108D0C00108F5D70108F5
:104A20009802002003685A1C026019707047124AED
:104A300030B50028B8BF4042104C90FBF2F304FBA5
:104A400003003C2568430E4D90FBF2F22D682D7B50
:104A500025B903EB830303EB830301E0C3EB0313EB
:104A600002EB830304FB02020B804FF47A7392FB88
:104A7000F3F24A8030BD00BF80969800806967FFDE
:104A8000CC1E0020016B0346C26810B5406941B1DD
:104A9000196C541A005D013918BF0A46C0B21A6475
:104AA00010BD196A405C0131914228BF0021C0B29B
:104AB000196210BD036B13B15A68036C01E0C2693F
:104AC000036A9A4237BFC068C3EB02008018C3EB89
:104AD0000000C0B27047436B13B190F844007047B8
:104AE000826A436AD31A58425841704743799B07F8
:104AF0000AD5436A8269D154426A03690132B2FB22
:104B0000F3F103FB112343627047437913F0010370
:104B100007D0C368C169026A013B881A1840C0B255
:104B2000704718467047437910B513F001030446E7
:104B30000DD0FFF7EAFF58B1226A6369985CE36819
:104B40000132B2FBF3F103FB1123236210BD1846BF
:104B500010BD426A806A131A584258417047417129
:104B60007047334A10B5136C90681944081A40F620
:104B70008C2398429160D060516013463CD91278E2
:104B800093F945108A420BD1111F082908D893F8D0
:104B90004610182901D8013103E083F8442002E0CF
:104BA000002183F8461093F944108A421CD1204911
:104BB00091F84710C1B1002191421E4806DA03EB7B
:104BC0008104246920F811400131F5E7511E00EB02
:104BD00041011630814203D0002421F8024FF9E749
:104BE000154908780130087083F84520002201211A
:104BF0001A7083F8471010BD92F84710B9B1A0F2AF
:104C0000EF2440F2DA518C4208D811780B2905D8EC
:104C10000B1D0131117042F8230010BD002283F8F2
:104C20004720991804320020302A0861F9D110BDBC
:104C300020150020140200201202002010F80A3C67
:104C40000133DBB20A2B00F80A3C07D910F8131C19
:104C5000034A002322F8113000F80A3C704700BFD5
:104C600014020020024B1A6C01321144196470477F
:104C700020150020024B53F820301B681980704724
:104C800048160020074BA1F57A7153F820304FF4F5
:104C90007A701A681B894B4393FBF0F39BB2138025
:104CA000704700BF481600208C46654B65492DE9CA
:104CB000F04F1B684C899846220200234FF00009F0
:104CC000B8EB020869EB03098A88002716040A89F1
:104CD00089B0A2FB084502FB0955E20942EA456298
:104CE000B4184A884FEAE5134FEAC236CA8847EB40
:104CF0000305CDE90645A2FB084502FB0955220A3A
:104D000042EA056216EB020A8A894FEA2523A8FBCC
:104D1000024502FB09554FEAD4524FF0000742EA20
:104D2000452247EB030B12F5FA664FEAE55343F1D0
:104D30000007CDE90467B6F5FA6F77F10007019037
:104D400060DAA2FB026702FB03F107EB41070521D2
:104D5000A6FB014501FB0755DDE9066769104FEA2F
:104D60003400361A67EB0107CDE90667DDE9040177
:104D7000A608354C46EA8576AF104FF0FF35BAEB02
:104D8000060A6BEB070BA042A94128DADDE90667AA
:104D900040F6AC5412194FF0000543EB050302FB3B
:104DA00003F1A2FB02236FF0060403EB410351421F
:104DB00004FB0311A2FB044536190D444FF00B010F
:104DC00047EB0507A2FB014501FB0355CDE906674B
:104DD0006D104FEA3404BAEB040A6BEB050B08FBC9
:104DE00009F3DDE90401A8FB088909EB43094FEA4F
:104DF000D87242EA49024FEAE973801A61EB030173
:104E0000CDE90401114B019E1A68A2FB0A4502FB81
:104E10000B55620D42EAC5226B15DDE90645121BF2
:104E200063EB0503D40B44EA434406B13460BCF1A0
:104E3000000F02D0049FCCF8007009B0BDE8F08FDD
:104E4000282100209821002024FAFFFF2C21002097
:104E50002DE9F04F924B85B0074618680E460FF0CB
:104E600027FD904C804620880FF01EFD4FF05C51CE
:104E7000054640460FF070FD4FF0645181462846CC
:104E80000FF06AFD014648460FF05CFC4FF062519E
:104E9000814640460FF060FD4FF06A51804628463B
:104EA0000FF05AFD014640460FF04CFC0546B4F9A0
:104EB00002000FF0FDFC014628460FF04DFD49466B
:104EC000054648460FF048FD8046B4F904000FF04F
:104ED000EFFC014640460FF03FFD014628460FF02B
:104EE00033FC80460FF0FEFE6F490546A061404648
:104EF0000FF0E6FD6D4B80461B68284602930FF0CD
:104F0000D7FC4FF07C510FF027FD69490FF01AFCD8
:104F1000E3890546B4F90A0003930FF0C9FC29465A
:104F20000FF01AFD29460FF017FD4FF058510FF002
:104F300013FD8146B4F908000FF0BAFC29460FF0C2
:104F40000BFD014648460FF0FFFB4FF058510FF0A4
:104F500003FD4FF060510FF0FFFC4FF07E510FF05A
:104F6000F3FB8146E0880FF09FFC014648460FF0B6
:104F7000F3FC0021B4F810B0B4F80CA081460FF097
:104F80007FFE00287CD1294628460FF0E5FC034629
:104F90000FFA8BF001930FF08BFC019B0146184632
:104FA0000FF0DAFC4FF060510FF0D6FC039B834604
:104FB00018B20FF07DFC014628460FF0CDFC0146EB
:104FC0000FF0C2FB014658460FF0BEFB4FF07A517E
:104FD0000FF0C2FC834602980FF06AFC01464FF0C6
:104FE00093400FF0AFFB05460FFA8AF00FF060FC1C
:104FF0004FF08F410FF0B0FC014658460FF0A4FB74
:105000004FF066510FF0A8FC014628460FF09AFBBE
:1050100028490FF0A1FC49460FF052FD0546B4F9AE
:1050200016000FF045FC29460FF096FC29460FF0BC
:1050300093FC4FF040510FF08FFC8146B4F91400FF
:105040000FF036FC014628460FF086FC4FF0605109
:105050000FF082FC014648460FF076FB8146B4F91A
:1050600012000FF025FC014648460FF06DFB4FF093
:1050700076510FF071FC014628460FF065FB00E009
:10508000002017B10FF02EFE38602EB140460FF011
:1050900029FE64235843306005B0BDE8F08F00BF9F
:1050A00034210020D42100200000A0453021002020
:1050B00000007A470050C34570477047324B2DE9D6
:1050C000F0411C88314B0A265A89B3F91250A41AB0
:1050D0001A89ED025443B3F91420E413224495FBDA
:1050E000F2F22244DA615643A2F57A6202FB02F43C
:1050F000B3F90480B3F902C0B3F90E7002FB0CFCE3
:1051000002FB08F2B3F90C802413674304FB08F494
:10511000241404EB62320232DC88921002F5004261
:10512000B3F920506243B3F900304FEAEC2404EBAA
:10513000E72404EB8304AC40154B02341B68D20B0C
:10514000A3EBA4044CF250332B41634355BF5B00E7
:10515000B3FBF2F3B3FBF2F35B001A12524340F6D7
:10516000DE3462430B4C08365C43241404EB2242C9
:1051700002F6CF62361103EB221300B1036001B1D6
:105180000E60BDE8F08100BF3C210020AC21002072
:105190003821002043E3FFFF024B4FF480521A8076
:1051A000704700BF0C000020054B1A7802F0FF0189
:1051B00022B10122027000221A70704701707047FC
:1051C0000E20002008B503681B68984708BDA0F1B1
:1051D0007D03012B70B504460D460A4E05D8306894
:1051E0007D21FFF7EFFF84F0200430682146FFF7B0
:1051F000E9FF35B12B881C4404EB142404F0FF04B0
:105200002C8070BD8C1F002030B585B004AC00250B
:1052100024F8025D0091ADF8060021461020FFF74A
:10522000D6FF9DF806002146FFF7D1FF9DF8070045
:105230002146FFF7CCFF9DF800002146FFF7C7FF8E
:105240009DF801002146FFF7C2FF9DF802002146AC
:10525000FFF7BDFF9DF803002146FFF7B8FF9DF85B
:105260000E002946C043C0B2FFF7B1FF05B030BD04
:1052700038B5054C05465E212068FFF7A3FF20687E
:105280002946BDE838409DE760310020014B5E2192
:10529000186897E76031002010B50A4C5E28014677
:1052A000206805D15D21FFF78DFF20683E2105E0D4
:1052B0005D2903D1FFF786FF20683D21BDE810403E
:1052C00080E700BF6031002010B50446C0B2FFF790
:1052D000E3FFC4F30720BDE81040FFF7DDBF13B5BF
:1052E000044601A90068FFF7A2FB1320FFF7C0FFE7
:1052F000BDF90400FFF7E8FF1B20FFF7B9FFBDF978
:105300000600FFF7E1FF2320FFF7B2FF2368002B21
:10531000ACBF4E205320FFF7D7FF01A96068FFF70D
:1053200086FB1220FFF7A4FFBDF90400FFF7CCFFB6
:105330001A20FFF79DFFBDF90600FFF7C5FF2220E9
:10534000FFF796FF6368002BACBF45205720FFF79F
:10535000BBFF02B010BD38B500240F4D21460F48E9
:1053600070222C7012F0F6FC21460D4B1B680B448A
:1053700093F9022072B11C6808480C500A189888EA
:10538000073190809B79702993712B7803F1010389
:105390002B70EAD138BD00BF980E0020990E002076
:1053A00010150020364B10B51C68364B1B68236067
:1053B000354B1A6862605A689B68A260E360334BA1
:1053C0001A6822615A689B686261A361304B1A684F
:1053D000E2615A689B68226263622E4B1A882285BA
:1053E0005A8862859A88DB88A285E3852A4B1A88C9
:1053F00022865A8862869B88A386284B1A88E28672
:105400005A889B8822876387254B1A78002393420A
:1054100007DA244804EB430130F81300013388878E
:10542000F5E7214B21491B88A4F86430204B1B88E9
:10543000A4F866301F4B1A88A4F86C205A889B8801
:10544000A4F86E20A4F870301B4B1B68A3661B4B9E
:105450001A683B2392FBF3F3B3F5967FC8BF4FF076
:10546000FF336367164B1B88A4F87830154B186818
:105470000FF072FA0FF036FCA4F85E0010BD00BF0A
:10548000D82F0020D4340020642100207021002077
:105490007C2100201E0D00207A0C0020BE1E002062
:1054A0004C0D0020380E0020781C00200000204108
:1054B000A01C00208C020020BC0B0020000000205B
:1054C000301E002008000020094B0E221B6802FB42
:1054D0000030437AFF2B07D0064A12789A4203D94C
:1054E000054A32F8130000E0808800B2704700BF20
:1054F0005C0D00202E1E00204E02002010B5B0F9D9
:1055000004300D4C994204DA02882088C0F561709D
:1055100003E04288208800F5617080B200B2C91AA9
:10552000A0F56170484312B2D31A90FBF3F000F576
:10553000617080B210BD00BF760D00202DE9F84FDC
:10554000D0F80490D1F808A0D0F808804E680D6813
:1055500007685146484614460FF0FEF93146834627
:1055600040460FF0F9F9014658460FF0EBF829468E
:10557000206040460FF0F0F95146804638460FF063
:10558000EBF9014640460FF0DDF8314660603846E1
:105590000FF0E2F92946064648460FF0DDF90146CC
:1055A00030460FF0CFF8A060BDE8F88F2DE9F0414C
:1055B00005460C464068496816460FF0C5F8A168D4
:1055C0008046A8680FF0C0F82168074628680FF0E9
:1055D000BBF8C6F804803060B760BDE8F0812DE903
:1055E000F04104460D460846616816460FF0B4F9CE
:1055F000A168804628460FF0AFF929460746206883
:105600000FF0AAF9C6F804803060B760BDE8F081F9
:1056100001380A4B042804D8DFE800F00507090B1D
:105620000D00074A08E0074A06E0074A04E0074A77
:1056300002E0074A00E0074A1A6070474C00002069
:10564000898C00085507010861AF0008DD8000085B
:10565000D583000825870008064B1B7803F0040358
:1056600003F0FF001BB1044B1888C0F3C01000F01A
:1056700001007047FB34002040020020044B002250
:105680001A605A60034B00221A605A60704700BFCC
:10569000A41F0020B41F0020F8B507460C46486838
:1056A000002115461E460FF0EBFA58B128460FF0C0
:1056B000FFF810490FF050F901464FF07E500FF0FF
:1056C000FFF96060616830460FF03EF801463046F1
:1056D0000FF0F6F925680646294638460FF032F8ED
:1056E000014630460FF038F9014628460FF02CF8F5
:1056F0002060F8BDDB0FC9402DE9F0410278034678
:10570000202A00F10100F9D0092AF7D02D2A02D170
:105710000346414D04E02B2A08BF03464FF07E5557
:105720001E460024334616F8012BA2F13007F9B2C9
:1057300009290DD8394920460FF00EF9044638469C
:105740000FF0B6F8014620460EF0FEFF0446E9E7EA
:105750002E2A17D1314F334616F8010B3038C2B21A
:10576000092A0FD80FF0A4F839460FF0A9F901461D
:1057700020460EF0E9FF2949044638460FF0ECF8C0
:105780000746E8E71A7802F0DF02452A38D15A784E
:105790002D2A02D10233012604E02B2A14BF013343
:1057A00002330026013B002713F8012F303AD1B213
:1057B000092903D80A2101FB0727F5E7B7F59A7FE6
:1057C00028BF4FF49A77B8464FF07E51B8F1070FD3
:1057D00007D9084612490FF0BFF8A8F1080801469A
:1057E000F4E707F0070737B108460C490FF0B4F8A3
:1057F000013F0146F7E72EB120460FF061F904E0C2
:105800004FF07E5120460FF0A7F8014628460FF0D2
:10581000A3F8BDE8F08100BF000080BF0000204178
:1058200020BCBE4CF0B50124B0FBF4F58D4201D391
:105830004C43F9E70026DCB1B0FBF4F504FB15009E
:10584000B4FBF1F41EB9002D01DC002CF3D1092DBD
:1058500003F101075FFA85FC04DD002A0CBF572520
:10586000372500E0302565441D7001363B46E2E7F0
:105870001C70F0BDF0B50124B0FBF4F58D4201D3EE
:105880004C43F9E70026DCB1B0FBF4F504FB15004E
:10589000B4FBF1F41EB9002D01DC002CF3D1092D6D
:1058A00003F101075FFA85FC04DD002A0CBF5725D0
:1058B000372500E0302565441D7001363B46E2E7A0
:1058C0001C70F0BD70B50646B6FBF2F408461546EE
:1058D00014B12046FFF7F6FF05FB1464024B1B5D75
:1058E00000F8013B70BD00BF64DD01082DE9F843FD
:1058F000089E002B0746884614460CBF4FF020092F
:105900004FF03009334613F8012B0AB9254603E05E
:10591000002CFBDD013CF6E7002D04DD384649464E
:10592000C047013DF8E724EAE4742546331B595D7E
:1059300019B13846C0470135F8E72846BDE8F88375
:1059400080EAE073A3EBE0738B4206DB002801DD05
:10595000401A704702D008447047002070472DE974
:10596000F84321F0004520F00046074688462846C7
:1059700031460FF0ADF908B12C4600E03446204620
:1059800000210FF07DF960B9284631460FF082F909
:1059900008B1284600E0304621460FF091F8044651
:1059A00000E00024204625490EF0D6FF24490EF0E1
:1059B000C9FE21460EF0D0FF22490EF0C3FE21465B
:1059C0000EF0CAFF20490EF0BDFE21460EF0C4FFC6
:1059D0001E490EF0B7FE1E4900F1004920460EF0A8
:1059E000BBFF1C490EF0B0FE21460EF0B5FF4FF094
:1059F0007E510EF0A9FE014648460FF061F8294697
:105A0000044630460FF064F920B1214612480EF0EA
:105A100099FE0446404600210FF03CF920B1214692
:105A20000E480EF08FFE0446384600210FF032F982
:105A300008B104F100442046BDE8F88339094E3D21
:105A4000E3B59E3E88FA163E45FE7F3FA7DFA834A9
:105A500099FB243F69A2163EDB0FC93FDB0F49408B
:105A6000F8B5101A0C461F460EF022FF0546381BEB
:105A70000EF01EFF174B079E19680EF06DFF2946AA
:105A8000044628460EF068FF2146074620460EF0E1
:105A900063FF014638460EF057FE12F039FF0E49FB
:105AA0000EF05AFF0FF044F9069B2146186005F1ED
:105AB0000040FFF754FF09490EF04EFF08490EF071
:105AC00043FE0FF00FF90028BCBF00F50C40A030DA
:105AD0003060F8BD440000202C7D8E3FA00CB34503
