:020000040800F2
:100000000050002001550108AD550108D53E0108FA
:10001000AD550108AD550108AD55010800000000BF
:10002000000000000000000000000000AD550108C5
:10003000AD55010800000000AD550108AD3E0108B6
:10004000AD550108AD550108AD550108AD55010884
:10005000AD550108AD5501081D3E0108193E0108C6
:10006000AD550108AD550108AD550108AD55010864
:10007000AD550108AD550108D93D0108AD55010840
:10008000213E0108AD550108AD550108AD550108E7
:10009000AD550108AD550108AD550108153E0108E3
:1000A000AD550108953D0108AD550108A53D010874
:1000B000853D0108753D0108653D01085D3E01086B
:1000C000553E0108593E0108513E0108AD55010851
:1000D000AD550108CD3D0108C13D0108B53D010800
:1000E000BD3E0108AD550108AD55010800000000F6
:1000F0000000000000000000000000000000000000
:0C01000000000000000000005FF808F1A3
:100110002DE9F04F754B764FA3B03B6000237B6019
:100120000AF030F818B913F095F80AF04DF80CF011
:10013000F7F8704B704C1A78704E42F001021A704A
:1001400000230A930B930C934FF4E0130D93236851
:10015000317B43F480332360A36943F01003A36130
:10016000236803F400330B930A9B01330A930B9B20
:100170001BB90A9BB3F5A06FF2D122685E4B12F453
:10018000003201D0022315E0186840F00100186029
:100190000A92236803F002030B930A9B01330A932C
:1001A0000B9B1BB90A9BB3F5A06FF2D123689D0787
:1001B00039D501230C93524B52481A6842F0100271
:1001C0001A601A6822F003021A601A6842F00202EA
:1001D0001A606368636063686360636843F48063A4
:1001E0006360494B1A68043B22F070425A60474AE8
:1001F0001060606820F47C106060586840F0004037
:100200005860D86820F40040D8609B68180449BF43
:100210003F4B4FF4E01313604FF480130D930C9B8E
:10022000012B01D117E0FEE7022B18D169B10D9B1C
:10023000B3F5801F02D14FF4A01305E00D9BB3F579
:10024000E01F02D14FF400130D9361680D9B0B4327
:1002500043F4803302E0636843F46013636023680F
:1002600043F0807323602168234B8901FBD55968D3
:1002700021F003015960596841F002015960636837
:100280001D4903F00C03082BF9D14868214B00F0FD
:100290000C00042803D0082804D01A4900E0116893
:1002A000196011E048684D68C0F38340ED0300F128
:1002B000020001D4184905E0496811F4003F1168B3
:1002C00018BF49084843186061681448C1F3031116
:1002D000014491F818A0196821FA0AFAC3F800A09D
:1002E0001368084A93421BD101221DE09750000871
:1002F00048150020AC34002000100240A00200206D
:100300000020024000127A0004100140100000207A
:10031000001BB7005400002000093D0018B201087E
:100320005A4A934202D10222594B1A70DFF8909137
:10033000584B22ADC9F80C30A369DFF880B143F007
:100340000103A361636A4FF00008BB60636A52480F
:1003500043F080736362A36943F01C03A3614FF60B
:10036000FF7325F82C3D29468DF85E8005F079FE57
:100370005846294605F075FE2946484805F071FEA5
:10038000474B28465A6842F000725A600FF0ECFC66
:10039000444A179B4146B3FBF2F343480C22FB60EF
:1003A00017F03EFB4FF47A72404BBAFBF2FA0AF1B7
:1003B000FF325A60F02289F823200722C3F8088010
:1003C0001A60B368DFF8FC90DFF8FCA0C9F80030D1
:1003D000374B0FCB85E80F00A369179843F008034C
:1003E000A361A36918A943F00803A3610823CBF80C
:1003F00010301023CBF8103005F033FE19981AA9ED
:1004000005F02FFED9F800301B0763D59AF890311C
:10041000012B5FD8274B9AF891219B6813F0805AE3
:1004200000F034864346002B54D0234ADFF88CB0CA
:100430001068DFF864801023CBF814302946179039
:100440004046039305F00DFE0822C8F810203C201A
:1004500009F0EFF9039BCBF810304FF0000B96F842
:1004600091319B4532DA154B08251D617820C8F87B
:100470001450039309F0D2F9039B78205D61C8F80A
:10048000105009F0CBF90BF1010BE8E7001BB700A6
:10049000D83400200005FA05000801400010014092
:1004A0000000014040420F00A034002010E000E0B6
:1004B00040B201084815002050B20108000C01406C
:1004C00000ED00E0DC000020A0020020BAF1000FE7
:1004D00000F0E585642009F0ACF9A0227C480021F9
:1004E00017F09EFAE369002243F00703E361A36972
:1004F00043F4006343F00C03A361764B002503F142
:100500001001555401320E2AF7D1FF229A77DA777B
:1005100083F8202083F821206F4B704AD9F80040DF
:100520001A6029466E483C2217F07AFA04F0400916
:10053000052329460C206B4A48438D5C684A855444
:10054000B9F1000F06D11E3D012D03D8FF25013B57
:100550008554DBB201310529ECD1634A76791370F9
:10056000624A634B7A62C032BA62624A1E7002EB20
:10057000C602584B5278A50648BF0122DA62002312
:100580005D4A40F2DC5199520233102BF8D15B4B9B
:100590001D68B5F90C0013F07BFF594914F080F881
:1005A0006B89584A386313801BB2C3F5617203F537
:1005B000617306930027544B80460892BB464FF464
:1005C000C8752846039313F063FF4D4914F068F88B
:1005D0004E4913F0B1FF4E4914F062F8824617F00D
:1005E0002FFC014608F1004013F0A6FF079050468B
:1005F00017F0C0FC02465046059205F02BF98446E0
:100600005046CDF810C005F097F9414614F048F86F
:10061000DDF810C00146604613F084FE01464FF03D
:100620007E5014F03DF8059A0146104613F084FF01
:100630000146079813F076FE364913F07DFF14F05B
:1006400041F9089A039B80B2954223F8020F0FDB11
:10065000069A95420CDA00B20FFA8BFB3FB258456E
:10066000B8BF8346B842A8BF07461FFA8BFBBFB28C
:100670000A35B5F5AF6FA4D10FFA8BFB264BCBF142
:10068000000B3FB2BB45B8BF5F4610A800211C223B
:100690001F8017F0C5F914F4007A204F204D04F4A0
:1006A00000683FD0A0040CD4B8F1000F07D097F831
:1006B000842105F10C03012A18BF2B4603E008959D
:1006C00002E005F10C03089317AB16932CE000BF72
:1006D0000033002048150020181E00209804002038
:1006E000B81E00204BD00108B51E0020B00200202B
:1006F000C00E002030D10108DA0E0020AC0D002021
:100700000000204150100020860F0020DB0F4940E0
:100710000000344300007A44860F0020A00200202D
:1007200018B20108CDF820A00E2E03D006F0EF0677
:10073000082E02D101238DF85230012008F000FE6E
:1007400018B14088003018BF0120C4F3400319F1EC
:1007500000098DF84630C4F3403300F0010018BFA3
:100760004FF001098DF84030C4F3C0338DF84500D7
:100770008DF848908DF84330B8F1000F07D097F806
:100780008481B8F10101D1F1000858EB0108BE489D
:10079000C4F300438DF84930C36A1AF1000A18BF48
:1007A0004FF0010A003318BF01238DF84B30C4F31A
:1007B00000538DF84C30B7F84631B7F84461ADF8C6
:1007C0005030B7F8523104F00101ADF84E30C4F3A7
:1007D00080438DF84730B7F85031C4F3C00214F4A9
:1007E000805F8DF844808DF841108DF842208DF89F
:1007F0004AA0ADF85430ADF85660834604D0A34803
:10080000B0F84C01ADF85600B3F5FA7F84BF002371
:10081000ADF8563097F8D4319D488BF8343000232A
:100820008BF8353043709DF85230002B14BF0223F3
:10083000002301B902B1013305EB8303DB6B4FF0F9
:1008400000090793CDF81890079B33F809204FF65D
:10085000FF739A4200F07F81D3B28E4F9DF845100E
:100860001E01BC1919B1991E012940F26E819DF833
:10087000481021B1B9598848814200F066819DF83D
:1008800049E0BEF1000F04D0B9598348814200F01D
:100890005C819DF8461039B161688048814203D17E
:1008A0002189102900F051819DF8431039B1616808
:1008B0007A48814203D12189022900F046819DF8BE
:1008C000441039B161687648814203D121890229F7
:1008D00000F03B81DDF858C0BCF1000F0FD060681C
:1008E000DCF8001088420AD12189BCF80400884253
:1008F00000F02B81BCF80600884200F026814FEA08
:100900001228B8F1020F02D19DF8402004E0B8F19E
:10091000010F04D19DF84120002A00F016819DF8B6
:100920004B2062B19DF852204AB9A3F10802012A76
:1009300005D8B9595B4A914208BF4FF004089DF8A9
:100940004C2062B19DF852204AB9BEF1000F02D08E
:100950000C3B012B01E0043B032B40F2DF80B8F19C
:10096000010F3DD1FF238BF87C308BF87D30637B0A
:100970004FF0000A228960688DF85E3017A90223C3
:100980008BF880A0CBF88C408DF85F30ADF85C2000
:100990008BF838A0CBF83CA0CBF840A0CBF844A013
:1009A000CBF878A08BF87EA08BF87FA005F059FBE0
:1009B000B859A17A52460FF08DF920465146424669
:1009C00009F06AF9384B3949CBF89030384BCBF8FD
:1009D00098A0CBF8943020460A1D0BF05BFAB4E0E7
:1009E000B8F1020F42D1069A3249D3B21C225A43BF
:1009F000069B01EB020C8CF801304FF0000A01233A
:100A00008CF802A08CF80AA08B542189627BCCF868
:100A10000C406068ADF85C1017A9CDF810C00393C6
:100A20008DF85E208DF85F8005F01BFBB859A17A28
:100A300052460FF04FF9039B20461A46514609F0E3
:100A40002BF9DDF810C01C4B0CF11402CCF810305F
:100A50001A4BCCF818A0CCF8143020460CF1100139
:100A60000BF018FA069A013206926EE0B8F1030F05
:100A700051D19DF847301BB39BF8366020460821C2
:100A80004FF6FF72002338E048150020A002002036
:100A90007D15002050D001080004004000080140EE
:100AA000000C0140002C0140E7490008D815002047
:100AB000E94A0008C815002011FD0008C14A0008D5
:100AC000BDF854209BF83660B2F5FA7FBDF8563079
:100AD0000DD9B7492046B1FBF2F292B2082109F0D4
:100AE00005F90BEB8606C6F86001B24B0CE0B24983
:100AF0002046B1FBF2F292B2012109F0F7F80BEBBC
:100B00008606AE4BC6F86001C3609BF836300133F1
:100B10008BF8363019E0B8F1040F16D1BDF84E301D
:100B2000A54A204692FBF3F20121BDF8503092B263
:100B30009BF8356009F0DAF89BF835300BEB860648
:100B40000133C6F890018BF8353009F10209B9F18B
:100B50001C0F7FF479AE9BF83530994F8BF8B0318C
:100B6000984B00261C783E70A4F11703022B1AD86C
:100B7000DBF824300021985903EB060813F070FECF
:100B800018B1DBF82C305BBB25E08F4B06EB030E76
:100B900098E80F008EE80F003B7810360133C02E26
:100BA0003B70E5D1EDE7894B13F834C003EBC40388
:100BB000D3F8048087F800C0B8F1000FE1D0664593
:100BC000DFDA814A330103EB020E43440FCB0136D7
:100BD0008EE80F00F3E77E4E3368DA0423D41CE07E
:100BE00005EBC40595F84C007A4B2D6D1870002D5F
:100BF000F1D000238342EEDAC3EBC3016A18D2F8C6
:100C000000C0DFF808E2013341F80EC001EB0E0628
:100C10009188B1809279B271ECE704F0EF03082B70
:100C20006D4B25D126E097F80080B8F1010FF4D97B
:100C30006A4D0027474505F11005EEDA55F8100C0E
:100C40004FF07C5113F078FC4FF07C5145F8100CBC
:100C500055F8140C13F070FC4FF07C5145F8140C4F
:100C600055F80C0C13F068FC013745F80C0CE1E763
:100C70000E2C08D11A78182C42F010021A7008D1E4
:100C800004F0D3FA05E01A78192C22F010021A7039
:100C9000F5E70DF035F833685B0302D4504B0122C1
:100CA0001A70504B504C1A7817AD42F004021A706B
:100CB0004E4B4F481A789946012A8CBF10231423B3
:100CC0008DF85E304FF002038DF85F30A3694FF46A
:100CD000805243F00403ADF85C208CBF012700274D
:100CE000A361294605F0BDF9424B0FB1424A00E02D
:100CF000424A00201A6008F0D9FD414B414F93E869
:100D00000300A36985E8030043F0080318A9A36161
:100D1000179805F0A6F90EF049FB9F238DF83C309B
:100D2000322000234FF480588DF83D308DF83E304E
:100D30008DF83F3008F07DFD0422C7F81480284666
:100D40000FA90FF00BF9C7F810809DF85E209DF8F1
:100D50005D30120242EA03429DF85F301A432A4B8B
:100D60009A4215D0322008F064FDC7F81480F520AF
:100D70000FF082F9FF200FF07FF97028C7F810807C
:100D800006D199F80030022B02D1184B03221A70B9
:100D900099F80030032B0CBF1F20022008F088FABE
:100DA00099F80030032B33D0012009F0C9FF39E056
:100DB00000127A00094B000840420F00F94A00086F
:100DC000A80D0020C00E0020B80D002030D1010871
:100DD000DC000020F00E00209A020020C00D002050
:100DE00098140020AC34002000100240D8340020B9
:100DF00000080140BC340020B18D0008C58D0008FA
:100E000034B30108000C014015202000F10E002031
:100E1000022008F095FA18B14088003018BF012070
:100E2000C707C1D53668AF4F06F400434FF0100A2C
:100E30000693524606F4006338460021079399F85A
:100E4000009016F0EDFD4FF6FF73ADF83C30022335
:100E50004FF0000816EA03028DF83E308DF83F800F
:100E60003E4610D022A921F84CAD9F480EF0CEFF8F
:100E70004FF0010A042207233A7087F8018087F8AF
:100E800002A0FB7000E09246B9F1010F12D92023B5
:100E900022A921F84C3D94480EF0B8FF0523012209
:100EA0003372B2720AF10103072286F809A0F272C6
:100EB0005FFA83FA069B8BB1022322A921F84C3DED
:100EC00089480EF0A3FF01230AEB03023371B371CB
:100ED000072386F805A0F3715FFA82FA079B93B1A6
:100EE000022322A921F84C3D80480EF08FFF0923F0
:100EF00001223373B2730AF10103072286F80DA0B1
:100F0000F2735FFA83FA6368794843F4404363609D
:100F10006369774F43F001036361A36943F400738E
:100F2000A36107F0E0FF734B00241793724BBAF1F3
:100F3000020F189334BF234680231C934FF4807311
:100F40001D934FF480631E93202329461F93384638
:100F50004FF4005320931994CDF868A01B9421946A
:100F600007F0A3FF3B68BAF1010F43F001033B60B8
:100F7000624B98BF00215A6888BF012122F4702279
:100F800022F4807242EA01225A6099685C4A204643
:100F90000A4042F4602242F002029A60D96A0AF1E1
:100FA000FF3221F47001D2B241EA0252DA62012327
:100FB00031188A78002A51D0325C5C1C092ACF781B
:100FC000E4B24E4910D9A2F10A0505EB45054FF0F0
:100FD000070E0EFA05FEAF40D1F80CC02CEA0E0E3B
:100FE0004EEA0705CD600DE002EB42054FF0070E1B
:100FF0000EFA05FEAF40D1F810C02CEA0E0E4EEAF4
:1010000007050D61062B3D490CD8013B03EB83031B
:101010001F259D409A404F6B27EA050545EA0203CC
:101020004B631CE00C2B0CD8073B03EB83031F2501
:101030009D409A400F6B27EA050545EA02030B63C2
:101040000DE00D3B03EB83031F259D409A40CF6AC3
:1010500027EA050545EA0203CB6200E01C4604309E
:10106000102801D02346A3E7244B9A6842F48072EB
:101070009A609A6842F001029A609A6842F0080207
:101080009A6099681D4A0C0710D5FAE702F1FF38FB
:10109000B8F1090F8CBF00230123FFF7C4B9194B26
:1010A00083F891A10BF0F6FAFFF714BA936843F0B6
:1010B00004039360114A936813F00403FAD1916812
:1010C00041F4A00191600F4AB2F85801E8B9B2F9B1
:1010D0005A31CBB9B2F95C31D3F1010338BF0023E7
:1010E00013E000BFE81C002000080140000C014094
:1010F000080002404C240140F81C0020002401405C
:10110000FDF7F1FFA0020020034613F0010340F0B9
:101110008A80B94A00B2137113F0BAF9B74913F0D3
:101120000BFAB74E0546B6F95A0113F0B1F9B349B7
:1011300013F002FA0446B6F95C0113F0A9F9AF49BD
:1011400013F0FAF98046284604F0F6FB06462846D6
:1011500004F080FB0746204604F0EEFB05462046DF
:1011600004F078FB0446404604F0E6FB8146404626
:1011700004F070FB31468046484613F0DDF93146F5
:101180000690404613F0D8F949460790384613F0C8
:10119000D3F941460990384613F0CEF929468246E4
:1011A000484613F0C9F94146CBF8B40105F10040B7
:1011B00013F0C2F92146CBF8B801CBF8BC4109982D
:1011C00013F0BAF90146079813F0AEF82146CBF8B0
:1011D000C001504613F0B0F90146069813F0A2F88A
:1011E0002946CBF8C40107F1004013F0A5F92146C8
:1011F000CBF8C801069813F09FF90146504613F04A
:1012000091F82146CBF8CC01079813F095F90146E7
:10121000099813F089F83146CBF8D001284613F02D
:101220008BF9CBF8D401774D2B68980322D5C820D1
:1012300008F0FFFAAE2009F0C7FE08B10FF013FA6C
:10124000714C84F8D801C82008F0F3FA6F4B0021E4
:101250000C2204F5F070C4F8DC3116F0E1FB022337
:1012600084F8E33111F0B4FB08F041F9684B034412
:10127000C4F8E831674C624E236896F85F0196F82F
:10128000691196F86A21B3F9563009F061F810B97E
:1012900001200FF049F8604B0A271A7842F0020249
:1012A0001A705E4B10225A6108221A615B4C192099
:1012B000E368013F83F01003E360E36883F0080311
:1012C000E36008F0B6FA012008F0F0FA192008F0FF
:1012D000B0FA002008F0EAFA17F0FF07E6D1082379
:1012E000236110274E4B27611A68994612F0080FA8
:1012F00007D04C4B67611B6898474B4B0122276115
:101300001A70414C4FF00008D4F8EC71387B13F0A0
:10131000BFF83A4913F010F904F00EFB434BC4F840
:10132000F001188813F0B4F801464FF07E5013F026
:10133000B7F93F4B3149C4F8F401186913F0FCF8D0
:10134000C4F8F801387813F0A3F801464FF07E5046
:1013500013F0A6F90146C4F8FC014FF07E5012F0DC
:10136000E1FF4FF07E53C4F800024046C4F80C324F
:10137000C4F81832C4F80482C4F80882C4F8108291
:10138000C4F8148204F0D8FA0746404604F062FA22
:1013900039468046384613F0CFF8414682464046EB
:1013A00013F0CAF839460690504613F0C5F8414686
:1013B0008346069813F0C0F80146584612F0B4FF71
:1013C0003946C4F81C02404613F0B6F8394603907B
:1013D00013F0B2F8039B83464146184613F0ACF86D
:1013E000034619465846039312F09CFF039BC4F82A
:1013F0002002194658461DE01000002035FA8E3CA8
:10140000A0020020DC000020481500202804002055
:10141000404B4C00440C0020AC340020000C014038
:10142000400200208C0200209C0A00200C000020BA
:101430002C0C002012F078FF4146C4F824025046DC
:1014400013F07AF839468046069813F075F801468D
:10145000404612F067FFB74FC4F828024FF000086B
:10146000FF211B22384684F82C8216F0D9FAD9F8CD
:101470000020B14B012112F0020F197087F8008093
:10148000384604D07970032119700221B9705107D0
:1014900004D519784F1C1F700327475412F00A0F08
:1014A0000CD01A7804218154511CC9B20527475425
:1014B000D11C02321970D2B2062181542A689706D3
:1014C00004D519784F1C1F7007274754110608D5FB
:1014D0001978092747548F1C01311F70C9B20A2798
:1014E00047547179082901D00E2908D11F7807F1D6
:1014F000010E83F800E04FF00B0E00F807E01F78B4
:101500004FF00C0C07F1010E5FFA8EFE12F4803FD3
:1015100083F800E000F807C009D007F1020C864FFD
:1015200087F800C0834F4FF00E0C07F80EC0570726
:1015300006D51F7807F1010E83F800E01023C3558C
:101540007D4B4FF0120C1F7812F4806F07F1010EE3
:101550005FFA8EFE83F800E000F807C00BD096F823
:1015600024C2BCF1000F06D002371F70714F4FF03C
:10157000130C07F80EC01F784FF0140C07F1010E82
:101580005FFA8EFE12F4007F83F800E000F807C0D7
:1015900009D007F1020C684F87F800C0654F4FF083
:1015A000150C07F80EC0182913D11F784FF0160E2E
:1015B00000F807E007F1010E5FFA8EFE4FF0170CFE
:1015C00000F80EC007F1030E0237FFB283F800E007
:1015D000C155130305D558490B785F1C0F701921AD
:1015E000C154D70505D5544A1378591C11701A22D5
:1015F000C25400219822514816F012FA10F02EFE23
:10160000B6F84E314E49A4F8343200234D4A0B80CF
:101610008B70B6F896014C49C4F830220A6081B24A
:101620004A4A99520233242BFAD12B68D9045CBF61
:10163000B6F89C1111801B0740F1EA8096F89031B2
:10164000062B00F2DF80DFE803F004070E39559D1A
:101650009D0045F2F05201E042F6F8223C4B1A8020
:1016600010F086FECDE03A4B42F6F8221A8012F0D6
:101670000FFF384912F060FF374912F053FE13F0A4
:1016800047F90023354A98500433482BFAD1344A9D
:10169000344B40209A60344B12221A7007F08EFEB1
:1016A000002800F0AF8001234FF0070A90F90000F6
:1016B00040218DE808042D4A2D4B9DE0244B42F635
:1016C000F8221A802B4A274B40209A60264B102282
:1016D0001A7007F073FE002800F0948001234FF089
:1016E000000890F9000040218DE80801224A4FF4DB
:1016F000E13381E0164B42F6F8221A801F4A194B5B
:1017000040209A60184B08221A7007F057FE0028F4
:1017100078D001234FF0000C90F9000040218DE8B3
:101720000810174A4FF4E1330DF0F6FDC4F8380203
:1017300064E000BF531E0020521E00207C1D0020CC
:10174000900E002028040020E00000205602002017
:10175000DE0C0020CDCCCC3F0000B0443401002092
:101760005D8D0008100000206E1E00208597000887
:10177000A08601004D8D0008D5960008398D00081F
:1017800089960008494A42F6F821118048490C22FE
:10179000062B48480A7010D00023037084F83C32AE
:1017A00084F83D321B2384F83E32052384F83F221F
:1017B00084F840324FF4E1370DE00021017084F8E5
:1017C0003C1284F83D123C4F212184F83E1284F8EB
:1017D0003F2284F84032394A394B40209A6007F062
:1017E000EDFD78B101234FF0000E364A90F900006C
:1017F00040218DE808403B460DF08EFD003018BFBB
:10180000012028B9082004F031FA2F4A2C4B9A60A5
:101810002B68274A13F4804F04D0082111702B48FD
:101820002749886042F20101194089B11F4944F6F5
:1018300020600880980404D50821117024482049AC
:101840008860D90704D50C21117022481C49886092
:1018500011781F06A1F1040151707CD54FF00008EA
:101860001D4FDFF880A041461522DFF87CB01B48F1
:10187000C4F844A287F80180C7F80480C7F808803C
:1018800016F0CEF8AAF105034046CBF800300AF076
:1018900021F8134B02201B68FB6007F08FFD5946AF
:1018A00020BB802004F0E2F94DE000BFDE0C0020F8
:1018B0006E1E00201802002090D00300F98C000852
:1018C0001000002071950008AD8D0008898D00087A
:1018D000958D0008A18D0008040C002090170020B1
:1018E0009C34002098040020240C002090F805E08F
:1018F0007B78C64A4FF00C0C0CFB032C9CF801C003
:10190000F44504D00133DBB2042BF2D900237B7001
:101910000B6890F900001B78002B7B784FF00C07C8
:1019200007FB03220CBF0121032153780022009101
:10193000019202210DF0F0FCB54B18600028B0D0E8
:10194000012009F0C7FFB34B1868B34B00F5C5720F
:101950001A6004F049FA2B68980555D5AF4F089ADC
:10196000AF4B3A609A694FF0100842F001029A6159
:10197000089AAC4813880EA9ADF8383002238DF8C8
:101980003A808DF83B3004F06CFB3B68A5485B88DF
:101990000EA9ADF8383004238DF83A3004F061FB1D
:1019A0003B680120197A04F047FB3B689E4A5B685C
:1019B0004FF0000A536117A88DF861804FF00108BD
:1019C00017938DF860A08DF8628007F027FA3B68C6
:1019D0000FA85B7A8DF83EA08DF83C3003238DF87C
:1019E0003D308DF83F800CF08DFD904B1A68904B88
:1019F0003C3A1A60D9F800304FF0FF3243F0100340
:101A0000C9F800308B4B1A608B4B8C4FC4F8603296
:101A10008033C4F864322B684FF00008D90387F88C
:101A2000008040F1BA8004F087F9DFF844C2DFF8A3
:101A3000F09140F22A3B4FF0010A60465A46414677
:101A400087F800A0CDF810C015F0EAFFD9F81830DB
:101A50007B4843F00403C9F818304023ADF8383010
:101A600018238DF83B300EA903238DF83A300EF081
:101A7000CDF9D9F81C30734F43F00203C9F81C307C
:101A8000714BA9F694791A68704BB2FBF3F23B885C
:101A9000013A23F45C731B041B0C3B8092B21D23A0
:101AA000BB853A85A7F814A03B8C23F001031B04E7
:101AB0001B0C3B843B8CB9883A8B23F0020322F049
:101AC000730212041B04120C1B0C89B242F0600258
:101AD00043EA0A03B9803A83A7F834803B843B8BFE
:101AE00023F008031B041B0C43F008033B83B7F8E7
:101AF00044306FEA43436FEA53439BB2A7F8443044
:101B0000D9F8A83F43EA0A03C9F8A83F484607F0B6
:101B1000EAF94F4B8022DDF810C01C924FF480721E
:101B200017931D9210234FF40052484617A919939A
:101B300020920393CDF86C80CDF87880CDF87C802E
:101B4000CDF88480CDF860C0CDF868B007F0ADF96D
:101B5000BA89039B92B242F40072BA81D9F800208C
:101B60000FA842F00202C9F800208DF83C308DF831
:101B70003DA08DF83E808DF83FA00CF0C3FC354BA6
:101B80001A68354B48F8032008F10408B8F1800FB3
:101B9000F5D10CF06BF90CF069F92B685A0540F19E
:101BA0008B80D4F894852D4B0420C3F8008007F077
:101BB00005FC0421C4F8980507F0D6FB284B84F8EF
:101BC0009C050820C3F8008007F0F8FB254B08218E
:101BD000186007F0C9FB244F84F89D0500213846A2
:101BE0002C2215F01DFF8E237B704FF07C0AE02322
:101BF0004FF07D09FB7087F800A087F82B901B4FF2
:101C00002C220021384615F00BFF33E0F0A001082C
:101C1000000C0020440C0020980D0020FC0B00203C
:101C200000100240000C0140000401409C340020E0
:101C3000F80B0020C80B0020D4040020B5140020AD
:101C400000080140000400405400002000366E01EE
:101C50003404004028A50108B61400200C1F002001
:101C6000601F0020AC1F0020301F0020651F0020D7
:101C7000B01700208A237B701020A023FB7087F808
:101C800000A087F82B90C4F8A08507F097FB1021DF
:101C9000C4F8A40507F068FB84F8A8052020C4F860
:101CA000AC8507F08BFB2021C4F8B00507F05CFB86
:101CB00084F8B40510F060FD744B754F1B78022B4F
:101CC00068D1744B4FF000081A88322022F040028D
:101CD0001204120C1A801A884FF4805922F038022C
:101CE0001204120C1A801A8892B242F040021A8032
:101CF0009F238DF83C308DF83D808DF83E808DF827
:101D00003F8007F096FD8DF85D80DFF8D8810422D2
:101D1000C8F8149017A80FA90EF020F9C8F8109071
:101D20009DF85E309DF85D201B0243EA02439DF85A
:101D30005F201343584A934219D00AD8A2F51A4299
:101D4000033A93420CD002F51A420232934209D070
:101D50001BE0524A934205D00132934207D014E06F
:101D6000202300E080233B804FF4807302E04FF497
:101D700080733B807B80BB883A881B02BB605343E7
:101D8000FB60012384F8B53504E000233B807B80B1
:101D9000BB60FB60FB6823B34FEAD328C1464FF01A
:101DA000000AC2450BDA0AEB08077F100DF15C0B45
:101DB000F802594610220EF039F90F2806DC0FF010
:101DC000D1FF4FEAC923C4F8B8350AE000235BF815
:101DD0000320013255D10433102BF8D1B846B9464F
:101DE000DFE72B6813F400222D4B18BF01221A7075
:101DF00007F07DFB2B4B18607379052B03D12A4B21
:101E00004FF4C8721A80294B4FF47A721A80284B0B
:101E1000C8221A80274B28491A7842F008021A7003
:101E2000264B1A7822F002021A700A6840F6020362
:101E300013406BB12248234B1860234B03201870CA
:101E4000224B012018702248002303802148038080
:101E5000930308D5042384F8E43194F8E33143F084
:101E6000010384F8E3311C4B01229B680B601B4B80
:101E70001A701B4B1A7862F07F021A7023B0BDE80B
:101E8000F08F07F1010A4F46A9E700BFD8340020C0
:101E90001C0000200038004018BA20001740EF0056
:101EA00099140020A80C00203C1D0020CE340020F6
:101EB000CC3400209A020020DC000020D73400201F
:101EC0001A040020041F0020641F00205800002076
:101ED000DA1C0020DC1C0020A00200209814002046
:101EE000AC340020000C01409A4A2DE9F04F1468F0
:101EF000994904F59C4320330B60984B89B01968CD
:101F0000984611F4804F964E05D107F01DF910B98F
:101F10003378013333707778914BBFB15A6894426C
:101F200040F2EF80013F5F70EBE0D9F80030072C02
:101F300098BF195D8B4B88BF21461B688A4898471C
:101F4000032C0BD906EB440420810137864BFCB2ED
:101F50001D78DFF83C92A542E7D81FE0D9F80030A1
:101F600004F10E0203EB82029388D2880028E9D0A4
:101F7000C01A4FF47A714843D31A90FBF3F0084427
:101F800040F6C903984205DC40F2EE239842B8BF00
:101F9000184601E040F6CA0080B2D3E70F2386F866
:101FA0002C30724B36781B784FF0030BB6FBFBFBE3
:101FB00002930BEB4B0B6E4BCBEB060B1B785FFAD4
:101FC0008BFB4FEA4B0B69004FF0000AD9F80090E9
:101FD000684FCDF810B003930591D346059A92450A
:101FE0005BD06548029A3AF8004042B907F0ACF875
:101FF00020B1039B002B08BF002400E0029CB9F82D
:102000001400A04208D8B9F816C0A44534BF4FF058
:10201000000C4FF0010C01E04FF0000C63463BB99F
:102020005FFA8BF0CDF800C009F018FB009B044666
:102030005FFA8BF003280BD853B94FF0010C0CFA60
:102040000BFC474890F82CE02EEA0C0E80F82CE0B0
:1020500007F07AF8C0B94248049990F876307C527B
:1020600023B9022E10D9012480F8764078883C8864
:102070000444B88804444148A4B22AF8004024B279
:10208000032094FBF0F4A4B23D480BF1010B2AF8B5
:10209000004006370AF1020AA0E7314B394993F8AC
:1020A0002C20B2F10F077A427A4183F89020364B08
:1020B0006AB1364A1268560109D40A68D9689A602A
:1020C000521AC82A1DD9012283F8212019E0274875
:1020D0000022096802709868D9605B68091A994201
:1020E00088BF294B4FF0000488BF83F82120AC4201
:1020F00007DAE0B209F0B2FA214B23F814000134F8
:10210000F5E7D8F80030DD0405D5204B1B68DC0767
:1021100001D410F0F7F80F4B1C681D4B19688B7A2F
:10212000002B39D0164A013B32F813000B7B1BB150
:10213000C0F53B60083080B200B2A0F57A70B0F50F
:102140007A7FA8BF4FF47A7020EAE07012F0A0F90D
:10215000104957E0B034002034020020DC00002099
:10216000041B0020180000206E1E0020D00000205C
:10217000D8000020321B00200C1B00207C1B0020FC
:10218000560200209C340020900E002044020020C3
:10219000E000002000007A44D8F8002010043AD56E
:1021A0008A4AD2F89400201A002834DB04F59C40B7
:1021B0002030C2F894008648C97A4579854830F8BD
:1021C000150080B290FBF1F092F89810013101F007
:1021D0000F0182F898100A4482F8990018467E4A46
:1021E0009A5C01331044102B80B2F8D100B290FBFE
:1021F000F3F000B26428A8BF642020EAE07012F077
:1022000047F9764912F04CFA754912F095F912F037
:102210007FFB744B1880D8F80030734E13F4807F26
:1022200000F0FD80714B9C42714C03D9A3780BB92F
:102230000123A370A378002B00F0F1806C4B37785A
:1022400093F821506B4B691E4D424D411A68002D89
:10225000C7F38007C2F380699A460CBF4FF0030BA7
:102260004FF0000B94F82030052B00F2D280DFE80D
:1022700003F0034D5274819A002F3AD05E4B1868D8
:102280005E4B19880BF01EFD012809D15C4B6421BF
:102290001A684E4BD3F8AC30DB8801FB0323236173
:1022A000B9F1000F0DD0494BD3F8AC301B7943B1D5
:1022B00009F036FB032384F820304FF47A73E3618E
:1022C000D0E7002D40F0A5804D4B22691968484B9E
:1022D00091420AD9009309F023FB009B032283F863
:1022E000202040F6B832DA61BCE7012283F82020D2
:1022F000B8E74FF48060B9F1000F02D007F034FB6B
:1023000001E007F041FB0023236182E0002D42D170
:1023100009F006FBA6E725B1052384F8203001214A
:1023200000E029466FB1344B4FF0020B1B68DA898D
:10233000344B1A805A809A80244AD2F8AC205288B2
:10234000DA802F4B1A6863699A4201D8002F5DD159
:1023500047F23053E36103231EE0337843F0020376
:1023600033700FF0CFFF264B1A68E3691344A36163
:10237000042311E0224B1A688DB1A3699A4248D90F
:10238000214B1B781BB9DAF80030DA0741D43378D7
:1023900023F002033370052384F8203062E7E369F9
:1023A0001344A36135E0164B64211A68074B4FF4C0
:1023B0008060D3F8AC30DB8801FB0323236100236A
:1023C00084F82030E37007F0DFFA4BE7041B0020AD
:1023D000E81C0020F81C00209D1B00200000C842C3
:1023E00000C07F44701E0020D7340020404B4C00BA
:1023F000900E002044020020781700207C17002057
:102400009C340020560200200500002000297FF4A3
:1024100029AFBBF1000F02D0584607F06BFA984F76
:1024200007F5C470B7F84E110BF04CFC814678B933
:1024300002F0DCFF934B0022C3F8B090C3F8B490D5
:10244000C3F8B890C3F8BC20C3F8C020C3F8C420B8
:1024500033785B0741D5D8F80030DD063DD58A4B8F
:102460001B78DC0639D4894B864C1D788DB197F8E2
:10247000E031B9F1000F16D173B1854B1A68D4F869
:10248000C8309B1A002B07DA0FF03CFF84F8CC9081
:1024900023E0B9F1000F19D1102007F02BFA012326
:1024A00084F8CC3019E03BB1794A4FF47A71126864
:1024B00001FB0323C4F8C83094F8CC306BB107F0AB
:1024C000FDF9704B002283F8CC2006E094F8CC3064
:1024D0001BB107F0F3F984F8CC50002297F8DEA185
:1024E00097F8DF11B7F89851B7F89AE11346694C9D
:1024F0009B08105F0232A842C4BF63F07F03DBB2C7
:102500007045B8BF43F04003082AF0D15D4C94F801
:10251000CD209A4205D194F8CE20F92A04D8013270
:1025200000E0002284F8CE2084F8CD30574B5A4D7D
:102530001A789B46DAB92B68D80708D5B9F1000F8D
:1025400015D13378D90712D50FF05CFF0FE033783F
:102550005A070CD5514B1B784BB1514BDB7833B933
:1025600011B10FF0CFFE02E0B9F1000FF9D094F8ED
:10257000CE20444B142ADFF83C9140F0AD809BF80C
:1025800000201AF1000A18BF4FF0010A6AB393F84D
:10259000CD205F2A11D1327802F0040202F0FF014F
:1025A00012B10FF0AFFE08E00B200191009307F08D
:1025B000A1F90199009B83F8CE10BAF1000F14D055
:1025C00094F8CD307D2B10D1337803F0040303F061
:1025D000FF0213B10FF096FE07E00B20019207F007
:1025E00089F9284B019A83F8CE20337803F004034D
:1025F00003F0FF00002B6FD194F8CD30214A572B08
:1026000016D1284B4FF47A721A80D8F800301B0686
:1026100001D503F005FB244B1B68580702D5234A5C
:102620000A21118013F0080356D1214A138053E088
:10263000D8F80010490717D55A2B15D192F8CF308A
:102640002BB1012382F8CF0082F8D03044E092F819
:10265000D13083F0010382F8D1300BB10C2000E0BF
:102660000D2007F047F937E05D2B00F03A855B2B32
:1026700000F039855E2B1FD1032000F035BD00BF6F
:10268000A0020020041B00209A0200200500002068
:102690009C3400205602002044020020D00000207C
:1026A000900E0020CE34002040020020CC340020C8
:1026B000820D0020440C0020562B01D109F0EAFFC6
:1026C0009BF80030002B00F0248594F8CD306F2B60
:1026D00040F019850FF096FED8F80030580736D52F
:1026E00094F8D130B34A93B1337859070FD5B24B30
:1026F000B3F90610B7F89831994208DD2B6813F04A
:10270000010304D13221A2F8D21082F8D1302B6813
:1027100013F4803FA74B0CD094F8D4202AB993F837
:10272000CF2012B93222A3F8D220012384F8D4306A
:102730000DE094F8CF2052B1327802F0040202F09A
:10274000FF0122B9012283F8CF1083F8D020D9F8F5
:1027500000A000230AF1790B2B600AF17B04994653
:102760000BF1020303EB090113F809204B7814F86D
:10277000010C9A420AD221460BF054FB30B114F8F6
:10278000023C01229A402B6813432B6009F1040993
:10279000B9F1500F04F10404E2D1884B1D784DB11A
:1027A000874DDFF838922B68864C13F0020F40F00B
:1027B00033832AE30AF1C9090AF1CA0409F10103C2
:1027C00059195A5D4B7814F8010C9A4229D22146C6
:1027D0000BF028FB28B394F802E020797A4B0EF135
:1027E000FF3E4FF00C0C0EEB4E0E0CFB00FC9E441B
:1027F000704B94F803B003F1D80A0AEB0C0251684D
:1028000071450ED000210AF80CB0C2F804E09160C6
:10281000012202FA00F093F8082122EA000083F86E
:1028200008010635482D04F10604C7D1674BDFF8CF
:10283000B0B11D68664B4FF0000A1B680293654BF0
:102840001B780393DBF80030002B00F0D58293F85F
:102850000090B9F1000F00F0CF82DBF8042002985D
:10286000821A002A0DDB012101FA0AF100F5FA7241
:10287000CBF804204F4A92F8080120EA010182F8BF
:102880000811039A002A00F0B7821BF8041C58783C
:102890000431C9B2474A002840F06D82464830F9F9
:1028A0001110B7F8960100F1C804A14201DD9C782F
:1028B00014E0C838814202DA9C7864420EE00123B9
:1028C00003FA0AF392F8081121EA030382F80831A7
:1028D000029A02F5FA73CBF804308DE292F80831CF
:1028E00043FA0AF3DB0700F18782002CCCBF0220F9
:1028F000012007F021F809F1FF33132B00F2738256
:10290000DFE813F0140021002E003E007000770075
:10291000DB003F01A301D801080271023E004D0017
:102920007700DB003F01AD00110175012B782846CF
:102930001C44FA2CA8BFFA2424EAE4742C7006F094
:1029400089FD01201AE06B7828461C44642CA8BF3E
:10295000642424EAE4746C7006F07CFD02200DE02F
:10296000EB7828461C44642CA8BF64241A4B24EA44
:10297000E474EC70196806F029FD03202146C6E1D5
:1029800069790D2021446429A8BF642121EAE171FD
:1029900069710FF069FBB9F10D0F00F024822979FC
:1029A0000E2021446429A8BF642121EAE171297124
:1029B000ADE100BF041B002056020020D6340020E9
:1029C00044020020480200202CB90108A40D002078
:1029D0009C340020D00000201C1E0020400200205B
:1029E000E01B0020A9790520214481F30801A97189
:1029F0008DE1A74B1B681A78022A21D1204600934B
:102A000011F046FDA34911F04BFE009B596A11F0ED
:102A10008BFC0021019011F02DFF019A009B40B921
:102A200010469C4911F044FF019A009B10B1994A4D
:102A300000E000225A620F2011460FF029FB0AE045
:102A400099780F202144C829A8BFC82121EAE17143
:102A500099700FF009FBB9F10F0F00F0C4818C4B96
:102A6000D3F8009099F80030022B1AD1204611F0CB
:102A70000FFD884911F014FED9F8201011F054FC14
:102A80000021044611F0F6FE30B92046814911F0CC
:102A90000FFF10B17F4C00E00024C9F82040122045
:102AA00059E199F8011012202144C829A8BFC82172
:102AB00021EAE17189F8011029E1754B1B681A7848
:102AC000022A21D12046009311F0E2FC714911F055
:102AD000E7FD009B196B11F027FC0021019011F01C
:102AE000C9FE019A009B40B910466A4911F0E0FE08
:102AF000019A009B10B1674A00E000221A6310207F
:102B000011460FF0C5FA0AE0197B10202144C829AC
:102B1000A8BFC82121EAE17119730FF0A5FAB9F134
:102B2000100F00F060815A4BD3F8009099F80030F4
:102B3000022B1AD1204611F0ABFC564911F0B0FD22
:102B4000D9F82C1011F0F0FB0021044611F092FE90
:102B500030B920464F4911F0ABFE10B14D4C00E0AA
:102B60000024C9F82C401320F5E099F80B1013202D
:102B70002144C829A8BFC82121EAE17189F80B10B6
:102B8000C5E0434B1B681A78022A21D120460093E6
:102B900011F07EFC404911F083FD009BD96B11F0D0
:102BA000C3FB0021019011F065FE019A009B40B922
:102BB0001046384911F07CFE019A009B10B1354A4D
:102BC00000E00022DA63112011460FF061FA0AE0FA
:102BD000997D11202144C829A8BFC82121EAE171AB
:102BE00099750FF041FAB9F1110F00F0FC80284BF4
:102BF000D3F8009099F80030022B1AD1204611F03A
:102C000047FC254911F04CFDD9F8381011F08CFB28
:102C10000021044611F02EFE30B920461D4911F066
:102C200047FE10B11B4C00E00024C9F838401420C6
:102C300091E099F8151014202144C829A8BFC82193
:102C400021EAE17189F8151061E0114BD3F8009089
:102C500099F80030022B21D1204611F019FC0D49C2
:102C600011F01EFDD9F8281011F05EFB002104467A
:102C700011F000FE30B92046064911F019FE10B1DE
:102C8000044C00E00024C9F82840092063E000BF9C
:102C9000201E00200000C84200007A4499F803106A
:102CA00009202144C829A8BFC82121EAE17189F877
:102CB00003102CE0AE4BD3F8009099F80030022BB3
:102CC0001AD1204611F0E4FBAA4911F0E9FCD9F829
:102CD000341011F029FB0021044611F0CBFD30B96E
:102CE0002046A44911F0E4FD10B1A24C00E00024FC
:102CF000C9F834400A202EE099F80D100A2021442A
:102D0000C829A8BFC82121EAE17189F80D100FF088
:102D1000ABF968E0964BD3F8009099F80030022B9D
:102D20001DD1204611F0B4FB934911F0B9FCD9F83C
:102D3000401011F0F9FA0021044611F09BFD30B962
:102D400020468C4911F0B4FD10B18A4C00E00024FB
:102D5000C9F840400B2021460FF09AF943E099F85A
:102D600017100B202144C829A8BFC82121EAE1710E
:102D700089F81710CBE7012835D198787F4B33F9C4
:102D80001110B1F5617F05DB40F633039942B8BFFE
:102D90000B4601E04FF46173B9F10C0F23D14FF4EE
:102DA0009664A3F5617394FBF0F493FBF4F492F84A
:102DB0000931E4B2A34216D0032C94BF2346022368
:102DC00082F809310E2202FB03736D4A03F2BE73CF
:102DD000136006F059FB484621460FF045F9601C88
:102DE000C0B206F0A9FD012202FA0AF2654B93F87F
:102DF00008110A4383F808210AF1010ABAF1040F05
:102E00000BF10C0B7FF41EADCAE4D8F80030D805E6
:102E100010D55D4BDB786BB1D9F80030990709D537
:102E2000238813F0010A0AD102F0E0FA012006F02B
:102E30009BFD04E0012006F0A7FD012300E0002334
:102E40002A6852070CD55BB1012006F09DFD23884E
:102E50009B0708D402F0CAFA022006F085FD02E0C2
:102E6000022006F091FD2388484A13F0030F4FF02B
:102E7000100114BF51611161D9F8002012F00A0F3E
:102E800023D02A68D00609D559070AD4042006F0B1
:102E90006BFD3F4B1A883F4B1A8002E0042006F07E
:102EA00073FD2B689A0606D523885B0606D440205E
:102EB00006F05AFD02E0402006F066FD2B68580639
:102EC00003D5334B1A88344B1A80D9F80030990651
:102ED00008D42B681A0540F1D7804FF4807006F0B3
:102EE00043FDD5E02D4B1B789B0740F193802C4B85
:102EF0001B78042B40F28E802B6813F4007A0ED0DE
:102F00002388DC0679D4102006F02EFD202006F060
:102F10003BFD2448011D07F01DFE022268E0B4F8C5
:102F2000009009F010091FFA89F343B1102006F050
:102F30002BFD1D4B4FF0010983F800A000E09946DE
:102F40002B6858054DD5194B1B685A89184BB3F996
:102F500000100029B8BF494291422BDAB3F9023080
:102F6000002BB8BF5B429342ACBF0023012322E099
:102F7000201E00200000C84200007A4456020020B3
:102F8000A40D0020041B0020900E0020000C014026
:102F9000820D0020840D0020D01C00209A02002009
:102FA000280C0020281E0020381E0020980D00202C
:102FB0007A0D00200023A3B1238899061FD4202076
:102FC00006F0D2FC7D4B7E481A685B68011D4360A9
:102FD000026007F0BFFD7B4B4FF0010983F80090C2
:102FE0000DE023889A060AD5202006F0CDFC0022A9
:102FF000744B4FF001091A7001E04FF00009724C58
:1030000094F80A31B3B90E2006F074FC012384F859
:103010000A310FE0238803F03003002B3FF459AF4F
:10302000102006F0B1FC202006F0AEFC654B00221B
:103030001A7003E0B9F1000F3FF44BAF00231A46BA
:103040006249002050526249624C5052624904EB7E
:10305000030E5052002119510232CEF80400CEF86E
:10306000081004F1280E503443F80E1019519E44F4
:103070001C44042ACEF80400CEF808106060A16059
:1030800003F11403DCD124E74FF4807006F07CFCDC
:103090007B79082B01D00E2B02D1402006F074FC66
:1030A000D8F800305B0540F1868097F824321BB9D0
:1030B000337813F0040F02E02B6813F4002F0BD0C9
:1030C000414B002283F884213C200CF0C1FC0028F5
:1030D00071D006F015F9F7E70FF04EFB0FF0BEF8D0
:1030E00069E0012000E002205FFA80FA0AF1FF3374
:1030F00087F8BC3707F068F809F012F9504606F077
:103100001BFCFFF7E9BABAF1000F02D07E2B3FF4A7
:10311000E1AA94F8CD30972B05D1304B4FF4C8720B
:103120001A80FFF7D9BAA72B06D12D4B1A7842F097
:1031300004021A70FFF7D0BA0022BB2B079201D10C
:10314000022303E0B72B04D14FF6FE73ADF81E3017
:1031500009E0BE2B01D1022303E0BD2B1AD14FF6AB
:10316000FE73ADF81C30D9F80030BDF81C10B3F870
:1031700058200A44A3F85820BDF81E10B3F85A206E
:103180000A44A3F85A2009F085FA002384F8CE30C7
:10319000FFF7A2BA792B04D1124BDA7822F00102A0
:1031A00006E07A2B7FF498AA0E4BDA7842F00102FF
:1031B000DA70FFF791BA09B0BDE8F08F201F002048
:1031C000301E0020381E0020041B0020D0340020B8
:1031D0009C0D0020101C0020A00D00203C1D002094
:1031E0009A02002028170020834B2DE9F04FB3F9F5
:1031F0000610824B89B018684389994211DBB1F5FA
:10320000FA6F90F807E009DACA1A02FB0EFEA3F57E
:10321000FA639EFBF3FE0EF1640E04E0CEF1640E41
:1032200001E04FF0640E8389994219DBB1F5FA6F22
:10323000047A10DA632CC3EB010205D9643CA4B212
:103240005443C3F5FA6302E05443A3F5FA6394FBD5
:10325000F3F4643405E0632C03D8C4F1640400E0A3
:103260006424674BB3F8962193F95E310492654A62
:103270009BB2D2F800C00593674600225E4B049DC6
:1032800033F912304FEA420803935B1B03F2F31643
:1032900040F2E635AE4203D8002BB8BF5B4201E0F6
:1032A0004FF4FA73022A4FF06406574D2ED09CF863
:1032B0001191B9F1000F04D04B45CCBFC9EB03030A
:1032C000002393FBF6F96FF0630B35F819A00BFBA5
:1032D000093B09F1010935F919900FFA8AF5C5EB97
:1032E000090505FB0BF595FBF6F5AA44474D28F8B3
:1032F00005A085182D796B43454D93FBF5F3643399
:103300009BB20EFB03F393FBF6F62FE09CF81291B1
:10331000B9F1000F04D04B45CCBFC9EB0303002328
:1033200093FBF6F66FF0630A05EB46090AFB063BD2
:1033300005EB4606B9F90E90B6F91050059EC9EB9B
:10334000050505FB0BFB9BFBFAFBC9EB0B0909FB16
:1033500006F92E4EA6F80490857983EAE376A6EB6B
:10336000E3766E432A4D96FBF5F664360CEB0205C8
:1033700095F801A0244B06FB0AFA642503F11C0909
:103380009AFBF5FA09F802A097F80BA003F11F09C0
:1033900006FB0AFA9AFBF5FA09F802A097F815A0BD
:1033A000022A06FB0AF603F1220996FBF5F61D46F2
:1033B00016BF253383F8274003F802E009F80260BE
:1033C000039B049EB342114E04DA36F808305B4288
:1033D00026F808300132032A07F101077FF44EAFC7
:1033E000074CB4F89831994214DBB1F5FA6FA8BFD5
:1033F0004FF4FA610FE000BF56020020A40D002038
:10340000A0020020440C0020901C00207A0D002017
:103410000CFEFFFF1946C91A4FF47A725143C3F5E7
:10342000FA63B1FBF3F34FF0640E93FBFEF205EB8E
:103430004201088D6FF0630101FB023305EB42028C
:10344000B2F92A1002B28A1A534393FBFEFEB54B1F
:1034500070441B88B44F5906F0803ED5B34B188892
:10346000B34BB3F84030C01A00B211F011F8B149B3
:1034700011F062F8804602F05FFA8146404602F0A1
:10348000E9F98046B7F9020011F002F88246B7F96F
:10349000000010F0FDFF4946834611F04DF841460B
:1034A00003465046019311F047F8019B0146184628
:1034B00010F038FF11F006FA49463880504611F0F6
:1034C0003BF841468146584611F036F801464846D9
:1034D00010F02AFF11F0F6F97880974B1A689A4697
:1034E00012F0020F74D0954B6A6C1B6845F20721ED
:1034F0009A1A8A428E4F6BDD7B6408F01FFD904B59
:10350000DFF86C821A789946032AB8F8003022D185
:103510000A2B2CD90023282089F8003006F089F9DD
:1035200008F00CFDB7F8480005F0F8FD854B86491A
:103530001B68DA7890FBF2F0421C082A28BF0822A8
:103540000A7059791B7992B251435A43A7F84A102D
:10355000A7F84C200BE00A2B09D803237A4A89F8F4
:10356000003000231370A7F84A30A7F84C3099F8C0
:103570000020734B012A0DD002D3022A1ED027E06F
:10358000B5F84A20B8F800309A4221DD012389F8C5
:10359000003011E0B8F80020B5F84C10914202DD7F
:1035A00002221A7011E06249B1F84A1001318A42D0
:1035B00002DD00221A700BE0082007E0B5F84C305D
:1035C000B8F8002001339A42E0DC072006F092F9B7
:1035D000DAF800703A057BD5584B296D1A68544BC0
:1035E000C1EB020B45F207218B4571DD5548B6F959
:1035F0000690D0F800801A6598F80A004FF47A72A5
:1036000001289BFBF2FBB4F84E11A9F57A794F4ED5
:1036100003D046D3022823D045E093F86510586DB7
:1036200003EB4101B1F868E0082190FBF1FC1FFABF
:103630008EFECCEB0000704490FBF1F1586589B22E
:1036400040F6E4404143A3F870E0B8F80830C3EB1B
:1036500011314A43B8F9063092FBF3F2326022E0AE
:103660003B4BB8F808A01B78C6F800A05B071AD53A
:1036700038480AF027FB20B917F0100F18BF4FF099
:10368000000909FB09F2322392FBF3F39944B8F9DC
:1036900006304FF47A7203FB09F393FBF2F35344C1
:1036A00000E0002333603368D5E91E0103FB0BFB08
:1036B0004FF47A739BFBF3FB10EB0B0041EBEB71C8
:1036C0000023C5E91E01244A11F042F9234B18607A
:1036D000234B1A68984612F4805F4ED03F0649D5B6
:1036E000204B1B789E0745D51F4B1978042941D9DB
:1036F00000231E4E05229A55981C1E440A27122BA1
:10370000C2B2777004D0B1EB520F0346F1D800E09B
:1037100014222A44322382F87F30FF2382F880303B
:103720000F2028E0480200207A0D0020820D0020A2
:10373000901C002035FA8E3CDC000020B0340020C4
:10374000641F0020041F002058000020101F0020CC
:10375000D734002028040020407E0500141F0020DC
:10376000440200209A020020280C0020101D002096
:10377000081F00200A2006F0BDF8D5F89820AE4EAC
:10378000002A4ED0AD4BD6F89C101868994681425D
:1037900047D896F8A010B6F8A2305268C9B90127E8
:1037A00086F8A070D35C03B3384606F07FF886F83D
:1037B000A47006F00FF8B6F8A230B3B9D6F8983076
:1037C0001B78053BBB4210D805F091FEC6F8A80057
:1037D0000BE0002786F8A070D35C33B1384606F0C2
:1037E00065F886F8A47005F0F5FFD5F89820B5F8CF
:1037F000A2105268904B525CFE2A03D10022A3F81B
:10380000A2200EE0FF2A02D106F058F809E0D9F80C
:1038100000000A2606FB02020131C3F89C20A3F82F
:10382000A210874E3278500703D5864B08225A6182
:103830003FE0D8F80030D9075CBF42F00102327097
:10384000814A1278120703D4327822F001023270D2
:10385000DB0203D5337823F0010333707B4B1B6805
:103860005F0702D57A4A128862B9B5F8AC200AB16E
:10387000980705D4774B1B88003318BF012300E05D
:1038800001233BB1022385F8A430337823F00103F0
:10389000337005E03278D10758BF022385F8A43091
:1038A00005F025FED5F8B030C01A002801DB05F080
:1038B00091FF0EF061FF684B1A78002A78D0D5F896
:1038C000B430002B00F00E87D5F8B4005A4C01F04C
:1038D000CAFB002800F00687D4F8B40001F0BEFB54
:1038E000092801D03F2855D14FF00008D5F8B8601D
:1038F0005A4F44462EB15A483968324614F0D8F827
:1039000010B9B84604B93C46564B10379F42F1D324
:1039100004B3D4F800E0D8F800C0D5F8B830464871
:103920001EF803701CF80310B94213D15A1C59B980
:103930002D2B09D8C0F8B82003442027024483F86F
:10394000BC7082F8BC1005E02B4483F8BC70C5F84D
:10395000B820E2E7D5F8B8300BB1444510D0424862
:1039600005F06EFC444507D854F8100B05F068FCD0
:10397000092005F05EFCF5E73C4805F061FC0026F7
:10398000D5F8B8309E429FD2354B985D05F051FC7A
:103990000136F5E7D4F8B830002B40F0C98604288A
:1039A00040F0378704F1BC000CF0A2FC00F09ABE96
:1039B0002F4F97F84A30012B40F08F86DFF8B88000
:1039C0002C4B3A68C8F800701A60C2469B46DBF878
:1039D0000000DFF8A09001F046FB002800F06B86A5
:1039E000D9F8000001F03AFBDAF80030024693F80B
:1039F000481019B9242860D101225BE0012904D1C3
:103A00004D280CBF0222002254E0022904D13C2898
:103A10000CBF032200224DE003292FD140284FF094
:103A2000000102D983F8481071E058711971D971F9
:103A3000987104223EE000BF901C00209C340020BE
:103A4000D7340020000C01409A02002040020020E0
:103A5000CC340020CE340020D634002068B90108D0
:103A60004C1D002048BB010800D2010805D2010806
:103A70007C1D0020C01F0020BC1F0020042907D18E
:103A8000997983F8490080EA01029A71052211E0D0
:103A900005293CD1587919798842987906D950403E
:103AA0009871481C18710B441A7230E090420CBF98
:103AB0000622002283F8482029E03178D44B4907B8
:103AC00025D4232AD9F8001016D1D2484FF0010E80
:103AD00080F800E0D048C5F8B410C5F8841102920F
:103AE000019305F0ADFBCD4805F0AAFB019B1978C9
:103AF00041F002011970029AD5F888311B7893427F
:103B000005D1C74AC74B1A60C74AC84BDA60DAF812
:103B10000030DFF8409393F84820062A7FF457AF2F
:103B200093F8490002F0D6FA8246002840F0BC859E
:103B3000D9F8002092F849304C2B00F076845DD8FB
:103B4000332B00F0AD8421D8292B00F03A8409D81A
:103B5000252B00F01184272B00F01584232B40F037
:103B6000E485C4E02D2B00F03D8407D82B2B40F0DA
:103B7000DC8505F040FB607100F093BD2F2B00F059
:103B8000FC84312B00F00E8500F0CFBD3E2B00F001
:103B9000D9801DD8372B00F0B78404D8352B00F01E
:103BA0001D8200F0C2BD392B00F0FA833C2B40F09F
:103BB000BC85DFF89092D9F800A005F01CFB8AF8CC
:103BC0000000D9F80030187801F0DAFB00F069BD88
:103BD000432B00F0768407D8412B08BF4FF0000933
:103BE00000F0638400F0A1BD442B00F01F85482B3A
:103BF00040F09B850DF0F8FA00F053BDD12B00F09A
:103C00007E8320D8CC2B00F013820FD8C82B64D031
:103C100004D84E2B00F0168400F087BDC92B00F0AD
:103C20004683CA2B00F0988000F07FBDCE2B00F0B9
:103C30003083C0F02583CF2B00F04A82D02B00F0D8
:103C4000078300F072BDD82B00F03B810DD8D32B39
:103C50003DD029D3D42B00F08082D62B08BF4FF063
:103C6000000900F06F8200F060BDF22B00F0C58209
:103C700012D8EF2B40F05985DFF8C891D9F800A091
:103C800005F0C4FAAAF85A00D9F8009005F0BEFA77
:103C9000A9F8580000F005BDF32B00F0CB84FA2BF7
:103CA00000F0018300F041BD337803F0040303F01A
:103CB000FF09002B40F0F58405F09DFA022884F8F6
:103CC000BC0740F2CB825A4B83F8BC97C6E205F0A2
:103CD0009DFA584B188000F0E4BC92F805A04FEA1A
:103CE0005A0ABAF1120F1CD84FF000091DE005F076
:103CF00082FA132815D8DFF84CA100F11E0BDAF870
:103D0000003003EB8B0B05F076FA4B4B0BF10109FE
:103D100003F5A872197A814200F041810C33934275
:103D2000F8D10BF091FE00F0BCBCD14507D205F0F4
:103D30006DFA424B23F8190009F10109F5E7012258
:103D40003F4BAEE205F057FA84F8E00105F053FA74
:103D500084F8DF0100F0A5BC3A4B4FF000091A6867
:103D60009A461278022A40F09180DAF8003009F180
:103D7000080B019305F03FFA10F086FB324910F072
:103D80008FFC019B43F82B00DAF800B005F033FA02
:103D900009F10A030BEB830B10F076FB2B4910F0B3
:103DA0007FFCDAF80030CBF80400019305F023FA29
:103DB00010F06AFB264910F073FC09F10E0B019B11
:103DC00009F10109B9F1030F43F82B00CDD1B9F185
:103DD000070FDAF800B03FD105F00DFA10F054FBF0
:103DE000194910F05DFCCBF84400DAF800B005F09A
:103DF00002FA10F049FB144910F052FCCBF84800CD
:103E0000DAF800B005F0F7F98BF84C0037E000BFA6
:103E1000D7340020D634002035D2010805D201085D
:103E2000EFBEADDEF04F00200400FA0500ED00E02B
:103E3000A0020020840D002048BB0108560200208B
:103E400019020020440C0020000020410000C8425C
:103E500000007A44BC1F002005F0CDF90BEB0903EC
:103E60005870DAF800B005F0C6F90BEB0903D87208
:103E7000DAF800B005F0BFF90BEB0903587509F14A
:103E80000109B9F10A0FA2D100F00BBCDAF800B0B9
:103E900005F0B1F90BEB09035870DAF800B005F042
:103EA000AAF90BEB0903D872DAF800B005F0A3F910
:103EB0000BEB090309F10109B9F10A0F5875E5D1B6
:103EC000EFE38146DFF8ACA309F1080BDAF8003024
:103ED000019305F09BF910F0D7FAE34910F0E0FBED
:103EE000019B43F82B00DAF800B005F08FF909F1D7
:103EF0000A030BEB830B10F0C7FADB4910F0D0FB81
:103F0000DAF80030CBF80400019305F07FF910F0E7
:103F1000BBFAD54910F0C4FB09F10E0B019B09F166
:103F20000109B9F1030F43F82B00CBD1B9F1070F09
:103F3000DAF800B01AD105F069F910F0A5FACA490B
:103F400010F0AEFBCBF84400DAF800B005F05EF9F3
:103F500010F09AFAC44910F0A3FBCBF84800DAF845
:103F600000B005F053F98BF84C0012E005F04EF963
:103F70000BEB09035870DAF800B005F047F90BEBCA
:103F80000903D872DAF800B005F040F90BEB090329
:103F9000587509F10109B9F10A0FC7D181E31B78FE
:103FA0008BF8013005F027F989F8010005F023F9B5
:103FB00089F8020005F01FF989F80300DAF800001B
:103FC000AA4BC5F8900100217930C5F88C3105F075
:103FD0007DFAA74B80F00100187062E305F00BF941
:103FE0000B283FF69EAE4FF0060A0AFB00F0A14BED
:103FF000C8301B6803EB000A05F0FDF803283FF604
:1040000090AE8AF8060005F0F6F88AF8010005F08F
:10401000F2F88AF8020005F0EEF88AF8030005F0DD
:10402000EAF88AF8040005F0E6F88AF8050038E3B3
:104030005379092B7FF675AEDFF840A2DAF800B0AD
:1040400005F0D9F88BF80000DAF800B005F0D3F8E5
:104050008BF8010005F0CFF8DAF800306428A8BF2B
:104060006420187105F0C7F8DAF800306428A8BF9A
:104070006420587105F0BFF8DAF80030FF28A8BFB7
:10408000FF20987105F0B7F8DAF800B0642828BF6F
:1040900064208BF8070005F0AEF88BF80200DAF820
:1040A00000B005F0A8F88BF80300DAF800B005F0CE
:1040B000ADF8D9F80030ABF80A005B790A2B40F272
:1040C000F082DAF8009005F096F889F80900E8E245
:1040D00005F09CF86FF4AF6E00EB0E039BB2C62B9D
:1040E00098BFA4F8960105F091F8A4F8400105F0F6
:1040F0008DF8A4F8420105F089F8A4F8440105F010
:1041000085F8A4F8D80105F076F884F8F30105F0F5
:1041100072F805F070F884F8F40105F06CF884F892
:10412000850105F068F884F8920105F064F8514BB8
:10413000D3F8009005F06AF800EB80004000A9F881
:1041400056002DE105F062F84B4B23F8090009F108
:104150000209B9F1100FF5D1A3E253790F2B7FF4C7
:10416000E0AD05F048F8072881463FF6DAADDFF804
:1041700004A1DAF800B005F049F80E2303FB09F9B1
:104180000BEB0903A3F81901DAF800B005F03EF8CB
:104190000BEB0903A3F81B01DAF800B005F036F8C1
:1041A0000BEB0903A3F81D01DAF800B005F023F8C2
:1041B0000BEB090383F81F01DAF800B005F01BF8D8
:1041C0000BEB090383F82001DAF800B005F013F8CF
:1041D0000BEB090383F82101DAF800B005F00BF8C6
:1041E0000BEB090383F82201DAF800A005F018F8B8
:1041F0000AEB0903C3F8230153E204F0FCFF0F2884
:1042000081463FF68EAD04F0F6FFC9EBC90904EB19
:10421000090383F8D00003F1D00904F0ECFF89F81A
:10422000010004F0E8FF89F8020004F0E4FF89F8D7
:10423000030004F0E0FF89F8040004F0DCFF89F8D3
:10424000050004F0D8FF89F8060000F0EEFF28E230
:104250003378580700F125820EF0FCFF05F0B4FF1B
:1042600008F05EF81DE200BF00007A44E003002081
:1042700005000020440C0020C20E0020A40D0020E8
:104280003378590700F10D824FF4C873A5F8AC30AC
:1042900007E233785A0700F10482DC4B1A7842F0C7
:1042A00004021A70FDE133785B07D7D53DE204F0D4
:1042B000A2FFD64B1A7810B142F0020201E022F0C0
:1042C00002021A7004F097FFD14BDFF85893187070
:1042D00004F0A6FFC9F8000004F0A2FFC9F804002A
:1042E00004F094FFCB4B188004F090FFCA4B188069
:1042F00095F8943143F0020385F89431D1E104F04C
:104300007AFF019004F08CFF834604F089FF824617
:1043100004F086FF814604F079FF04F077FF04F093
:104320006AFF019B9BB91020C5F898B1C5F89CA104
:1043300005F02AFBB54B1A7842F001021A70B9F168
:10434000000F00F0AE81B54BC3F80090A9E1102B2F
:1043500040F0A781C5F8A0B1C5F8A4A1B9F1000F3C
:1043600002D0AE4BC3F80090AD480223011D85F882
:10437000A83106F0EFFB94E1A06004F051FFA368C0
:104380001843A0608DE104F041FFA4F8580104F047
:104390003DFFA4F85A0104F039FFA4F85C0180E164
:1043A00004F029FF84F87A0104F025FF84F87E01E7
:1043B00004F021FF84F87D0104F01DFF84F87F01E3
:1043C0006FE104F023FFA4F8800104F01FFFA4F8BC
:1043D000820104F010FF84F8840104F017FFA4F8B0
:1043E00086015EE104F007FF84F8900104F00EFFFF
:1043F000A4F89A0104F00AFFA4F8960104F006FF5D
:10440000A4F8980104F0F7FED9F8003084F891017F
:104410005B79082B40F2458104F0F8FEA4F89C017A
:1044200004F0F4FEA4F89E013BE104F0E4FE84F8FD
:10443000D60104F0E0FE84F8D70104F0E7FEA4F80A
:10444000D8012EE192F805B00323BBFBF3FBBBF1CF
:10445000120F3FF666ACDFF8D0914FF0000ADA4554
:1044600080F01F8104F0C7FE89F8A00104F0CEFEA1
:1044700040F2ED23984205DD40F6CA039842A8BFFA
:10448000184601E040F2EE20A0F2EE20192390FB46
:10449000F3F089F8A1010AF1010A09F10209DEE746
:1044A00004F0A9FE84F89201FBE004F0A4FE04EB02
:1044B000090309F10109B9F1080F83F88801F4D162
:1044C000EFE004F098FEC4F808A0607104F0A8FEC4
:1044D000A3681843A06004F08EFE84F8900104F0F5
:1044E00095FEA4F8580104F091FEA4F85A0104F0D6
:1044F0008DFEA4F85C0104F089FEA4F8800104F0AC
:1045000085FEA4F88201CCE053794FF0070AB3FB93
:10451000FAF2C2EBC2029A1A12F0FF0F7FF401AC5A
:10452000B3FBFAFABAF1000F00F0BB8004F063FEAF
:104530005FFA80FB4FFA8BF004F002FF0AF1FF3ABA
:104540005FFA8AFA814600283FF4EBAB80F800B0AE
:1045500004F05CFEA9F8020004F04DFE89F80400A6
:1045600004F049FE89F8050004F045FE89F80700CB
:1045700004F041FE89F80600D4E7DFF8AC9009F1B9
:10458000400A04F043FEA9F8B40204F034FE89F8AE
:10459000B60204F030FE09F1040989F8B302D145EE
:1045A000EFD17EE004F027FE1F283FF6BAABD8F823
:1045B00000305B79082B7FF4B4AB00F18C0A04F077
:1045C00025FE04EB8A0A00F03F00AAF8060004F07A
:1045D0001DFEBAF80620800100F4FE531343AAF82A
:1045E000063004F008FE00018AF8040004F003FE1F
:1045F0009AF8043000F00F0018438AF8040004F021
:10460000FAFD8AF8050001F097FB4AE09A020020C3
:10461000280C00201A1F0020181F00204C02002028
:10462000301E0020201F0020A0020020012385F85A
:10463000A93136E004F0DFFDFF2881461CD10023BC
:104640008DF81F309DF81F30052B2AD89DF81F20AC
:10465000804B9DF81F10012003EBC101496800FA4F
:1046600001F153F8320089B2482204F013FE9DF89C
:104670001F300133DBB2E3E705283FF652AB0020E1
:1046800004F0A4FD04F07EFDDBF8000000F0DCFC8B
:1046900018B9322005F0CDF8F6E74FFA89F009F0A5
:1046A00059FA002004F092FD04F06CFDD8F80030B7
:1046B000002283F8482095F8A93173B1386800F0DA
:1046C000C3FC18B9322005F0B4F8F7E709F084FB11
:1046D00005F0C4F8604A614BDA60614A4C37974292
:1046E0007FF467A95F4B1B68980616D55E4BD5F81B
:1046F000AC211B689A1A002A0FDB5C4A1278042A44
:104700000BD95B4A03F5123303F5F873C2F8AC31E9
:10471000584BDA6882F01002DA60574B9B68002B26
:1047200000F094805548984790E00BF08DF9BBE776
:104730000C2803D1524804F083FD5AE00A2801D026
:104740000D2858D14A4C4F4804F1BC0604F078FDBE
:104750003046232113F097F910B1801BC4F8B8003C
:10476000D5F8B830002B38D0591E705C404A20284C
:1047700001D10B46F6E7C2F8B8301344002283F8A3
:10478000BC20414B414CD3F800A0D4F80090DFF896
:10479000E080484613F084F908F1BC070646494614
:1047A0003846324613F084F9394B38B908EB060223
:1047B00092F8BC2052445278520703D010349C42E5
:1047C000E3D306E09C4204D2701CE3683844984767
:1047D00002E0304804F034FD00232F48002130224D
:1047E000C5F8B83013F01CF92C480378002B3FF4BF
:1047F00079AF2B4809E07F2811D1013BC4F8B830CC
:1048000000222344274883F8BC2004F019FDFFF759
:104810005BB80C288ED07F2804D1FFF755B82F2B1A
:104820003FF652A8A0F12002D2B25E2A3FF64CA871
:1048300013B920283FF448A85A1C2B44C5F8B820C7
:1048400083F8BC0004F0F5FCFFF73EB809B0BDE802
:10485000F08F00BF84D701080400FA0500ED00E0E6
:10486000141E002040020020B0340020280C00203C
:10487000901C0020000C01402C0C0020401E002049
:104880000AD2010801DA01086000002068B90108B5
:1048900048BB010815D201084C1D0020D634002069
:1048A00005D2010831D2010803685A1C0260197050
:1048B0007047124A30B50028B8BF4042104C90FBF8
:1048C000F2F304FB03003C2568430E4D90FBF2F22B
:1048D0002D682D7B25B903EB830303EB830301E0F4
:1048E000C3EB031302EB830304FB02020B804FF4C0
:1048F0007A7392FBF3F24A8030BD00BF8096980035
:10490000806967FF0C1F0020016B0346C26810B569
:10491000406941B1196C541A005D013918BF0A464B
:10492000C0B21A6410BD196A405C0131914228BFBF
:104930000021C0B2196210BD036B13B15A68036C39
:1049400001E0C269036A9A4237BFC068C3EB020044
:104950008018C3EB0000C0B27047436B13B190F8EE
:1049600044007047826A436AD31A584258417047DC
:1049700043799B070AD5436A8269D154426A036925
:104980000132B2FBF3F103FB112343627047437919
:1049900013F0010307D0C368C169026A013B881A9A
:1049A0001840C0B2704718467047437910B513F0ED
:1049B000010304460DD0FFF7EAFF58B1226A63698C
:1049C000985CE3680132B2FBF3F103FB112323622D
:1049D00010BD184610BD426A806A131A58425841E9
:1049E000704741717047334A10B5136C9068194491
:1049F000081A40F68C2398429160D06051601346AB
:104A00003CD9127893F945108A420BD1111F08291D
:104A100008D893F84610182901D8013103E083F82B
:104A2000442002E0002183F8461093F944108A42A2
:104A30001CD1204991F84710C1B1002191421E4874
:104A400006DA03EB8104246920F811400131F5E70F
:104A5000511E00EB41011630814203D0002421F8A1
:104A6000024FF9E7154908780130087083F84520AE
:104A7000002201211A7083F8471010BD92F84710E8
:104A8000B9B1A0F2EF2440F2DA518C4208D8117883
:104A90000B2905D80B1D0131117042F8230010BD00
:104AA000002283F84720991804320020302A086138
:104AB000F9D110BD801500201C0200201A02002030
:104AC00010F80A3C0133DBB20A2B00F80A3C07D984
:104AD00010F8131C034A002322F8113000F80A3C96
:104AE000704700BF1C020020024B1A6C01321144B7
:104AF0001964704780150020024B53F820301B6862
:104B000019807047A8160020074BA1F57A7153F859
:104B100020304FF47A701A681B894B4393FBF0F3F3
:104B20009BB21380704700BFA81600208C46654BCF
:104B300065492DE9F04F1B684C89984622020023F5
:104B40004FF00009B8EB020869EB03098A880027D7
:104B500016040A8989B0A2FB084502FB0955E2093F
:104B600042EA4562B4184A884FEAE5134FEAC23672
:104B7000CA8847EB0305CDE90645A2FB084502FBC1
:104B80000955220A42EA056216EB020A8A894FEAAF
:104B90002523A8FB024502FB09554FEAD4524FF0EA
:104BA000000742EA452247EB030B12F5FA664FEA8B
:104BB000E55343F10007CDE90467B6F5FA6F77F1E5
:104BC0000007019060DAA2FB026702FB03F107EB2A
:104BD00041070521A6FB014501FB0755DDE90667F5
:104BE00069104FEA3400361A67EB0107CDE9066712
:104BF000DDE90401A608354C46EA8576AF104FF092
:104C0000FF35BAEB060A6BEB070BA042A94128DA85
:104C1000DDE9066740F6AC5412194FF0000543EB8E
:104C2000050302FB03F1A2FB02236FF0060403EB72
:104C30004103514204FB0311A2FB044536190D4404
:104C40004FF00B0147EB0507A2FB014501FB0355A4
:104C5000CDE906676D104FEA3404BAEB040A6BEB3A
:104C6000050B08FB09F3DDE90401A8FB088909EB42
:104C700043094FEAD87242EA49024FEAE973801ABF
:104C800061EB0301CDE90401114B019E1A68A2FBFF
:104C90000A4502FB0B55620D42EAC5226B15DDE9A0
:104CA0000645121B63EB0503D40B44EA434406B1EB
:104CB0003460BCF1000F02D0049FCCF8007009B042
:104CC000BDE8F08F742600205821002024FAFFFF51
:104CD000782600202DE9F04F924B85B007461868E2
:104CE0000E460FF0D5FB904C804620880FF0CCFB91
:104CF0004FF05C51054640460FF01EFC4FF06451EA
:104D0000814628460FF018FC014648460FF00AFB82
:104D10004FF06251814640460FF00EFC4FF06A5151
:104D2000804628460FF008FC014640460FF0FAFA8C
:104D30000546B4F902000FF0ABFB014628460FF020
:104D4000FBFB4946054648460FF0F6FB8046B4F9A2
:104D500004000FF09DFB014640460FF0EDFB0146BD
:104D600028460FF0E1FA80460FF0ACFD6F4905468A
:104D7000A06140460FF094FC6D4B80461B682846AE
:104D800002930FF085FB4FF07C510FF0D5FB694982
:104D90000FF0C8FAE3890546B4F90A0003930FF04F
:104DA00077FB29460FF0C8FB29460FF0C5FB4FF0F3
:104DB00058510FF0C1FB8146B4F908000FF068FBB1
:104DC00029460FF0B9FB014648460FF0ADFA4FF007
:104DD00058510FF0B1FB4FF060510FF0ADFB4FF0A9
:104DE0007E510FF0A1FA8146E0880FF04DFB01469D
:104DF00048460FF0A1FB0021B4F810B0B4F80CA0A5
:104E000081460FF02DFD00287CD1294628460FF061
:104E100093FB03460FFA8BF001930FF039FB019BD4
:104E2000014618460FF088FB4FF060510FF084FBED
:104E3000039B834618B20FF02BFB014628460FF068
:104E40007BFB01460FF070FA014658460FF06CFAF2
:104E50004FF07A510FF070FB834602980FF018FB69
:104E600001464FF093400FF05DFA05460FFA8AF0C5
:104E70000FF00EFB4FF08F410FF05EFB01465846DE
:104E80000FF052FA4FF066510FF056FB01462846DC
:104E90000FF048FA28490FF04FFB49460FF000FC8D
:104EA0000546B4F916000FF0F3FA29460FF044FB5B
:104EB00029460FF041FB4FF040510FF03DFB81467A
:104EC000B4F914000FF0E4FA014628460FF034FB61
:104ED0004FF060510FF030FB014648460FF024FAC6
:104EE0008146B4F912000FF0D3FA014648460FF09C
:104EF0001BFA4FF076510FF01FFB014628460FF0CA
:104F000013FA00E0002017B10FF0DCFC38602EB17E
:104F100040460FF0D7FC64235843306005B0BDE82D
:104F2000F08F00BF80260020942100200000A045C3
:104F30007C26002000007A470050C3457047704728
:104F4000324B2DE9F0411C88314B0A265A89B3F9BE
:104F50001250A41A1A89ED025443B3F91420E41331
:104F6000224495FBF2F22244DA615643A2F57A62BA
:104F700002FB02F4B3F90480B3F902C0B3F90E7076
:104F800002FB0CFC02FB08F2B3F90C80241367430C
:104F900004FB08F4241404EB62320232DC88921021
:104FA00002F50042B3F920506243B3F900304FEAF2
:104FB000EC2404EBE72404EB8304AC40154B0234EF
:104FC0001B68D20BA3EBA4044CF250332B41634378
:104FD00055BF5B00B3FBF2F3B3FBF2F35B001A12B5
:104FE000524340F6DE3462430B4C08365C432414D3
:104FF00004EB224202F6CF62361103EB221300B11A
:10500000036001B10E60BDE8F08100BF882600207A
:105010006C2100208426002043E3FFFF024B4FF465
:1050200080521A80704700BF0C000020054B1A7890
:1050300002F0FF0122B10122027000221A707047B3
:10504000017070471428002008B503681B69984751
:1050500008BD08B50368DB68984708BD08B5036854
:105060009B68984708BD08B503685B68984708BD0A
:1050700010B5054C2068FFF7F6FF18B12068FFF760
:10508000EDFFF6E710BD00BF9C1F002008B50368C8
:105090001B68984708BD014B1868F7E7141E0020ED
:1050A000A0F17D03012B70B504460D460A4E05D8CC
:1050B00030687D21FFF7EAFF84F020043068214644
:1050C000FFF7E4FF35B12B881C4404EB142404F0F3
:1050D000FF042C8070BD00BFCC1F002030B585B010
:1050E00004AC002524F8025D0091ADF806002146CD
:1050F0001020FFF7D5FF9DF806002146FFF7D0FFEF
:105100009DF807002146FFF7CBFF9DF800002146E0
:10511000FFF7C6FF9DF801002146FFF7C1FF9DF88C
:1051200002002146FFF7BCFF9DF803002146FFF770
:10513000B7FF9DF80E002946C043C0B2FFF7B0FF8D
:1051400005B030BD38B5054C05465E212068FFF737
:105150009DFF20682946BDE8384097E73C31002094
:10516000014B5E21186891E73C31002010B50A4CD4
:105170005E280146206805D15D21FFF787FF206882
:105180003E2105E05D2903D1FFF780FF20683D2126
:10519000BDE810407AE700BF3C31002010B504465E
:1051A000C0B2FFF7E3FFC4F30720BDE81040FFF7EC
:1051B000DDBF13B5044601A90068FFF77AFB132091
:1051C000FFF7C0FFBDF90400FFF7E8FF1B20FFF762
:1051D000B9FFBDF90600FFF7E1FF2320FFF7B2FF9B
:1051E0002368002BACBF4E205320FFF7D7FF01A947
:1051F0006068FFF75EFB1220FFF7A4FFBDF9040013
:10520000FFF7CCFF1A20FFF79DFFBDF90600FFF75F
:10521000C5FF2220FFF796FF6368002BACBF452037
:105220005720FFF7BBFF02B010BD38B500240F4D6B
:1052300021460F4870222C7012F0F2FB21460D4BD4
:105240001B680B4493F9022072B11C6808480C508B
:105250000A189888073190809B79702993712B7870
:1052600003F101032B70EAD138BD00BFF00E00201E
:10527000F10E002070150020094B0E221B6802FB66
:105280000030437AFF2B07D0064A12789A4203D99E
:10529000054A32F8130000E0808800B2704700BF72
:1052A000EC0E00206E1E0020560200202DE9F84F63
:1052B000D0F80490D1F808A0D0F808804E680D68A6
:1052C00007685146484614460FF036F93146834682
:1052D00040460FF031F9014658460FF023F82946B1
:1052E000206040460FF028F95146804638460FF0BE
:1052F00023F9014640460FF015F831466060384604
:105300000FF01AF92946064648460FF015F90146EE
:1053100030460FF007F8A060BDE8F88F2DE9F041A6
:1053200005460C464068496816460EF0FDFFA16828
:105330008046A8680EF0F8FF2168074628680EF03E
:10534000F3FFC6F804803060B760BDE8F0812DE956
:10535000F04104460D460846616816460FF0ECF829
:10536000A168804628460FF0E7F8294607462068DE
:105370000FF0E2F8C6F804803060B760BDE8F08155
:1053800001380A4B042804D8DFE800F00507090BB0
:105390000D00074A08E0074A06E0074A04E0074A0A
:1053A00002E0074A00E0074A1A60704750000020F8
:1053B000AD8900084507010879BF0008017E000893
:1053C000F980000849840008064B1B7803F00403A9
:1053D00003F0FF001BB1044B1888C0F3C01000F0AD
:1053E00001007047D734002048020020044B0022FF
:1053F0001A605A60034B00221A605A60704700BF5F
:10540000E41F0020F41F0020F8B507460C4648684A
:10541000002115461E460FF023FA58B128460FF01A
:1054200037F810490FF088F801464FF07E500FF022
:1054300037F96060616830460EF076FF014630460D
:105440000FF02EF925680646294638460EF06AFF09
:10545000014630460FF070F8014628460EF064FF12
:105460002060F8BDDB0FC9402DE9F041027803460A
:10547000202A00F10100F9D0092AF7D02D2A02D103
:105480000346414D04E02B2A08BF03464FF07E55EA
:105490001E460024334616F8012BA2F13007F9B25C
:1054A00009290DD8394920460FF046F804463846F8
:1054B0000EF0EEFF014620460EF036FF0446E9E707
:1054C0002E2A17D1314F334616F8010B3038C2B2AD
:1054D000092A0FD80EF0DCFF39460FF0E1F801463B
:1054E00020460EF021FF2949044638460FF024F8E3
:1054F0000746E8E71A7802F0DF02452A38D15A78E1
:105500002D2A02D10233012604E02B2A14BF0133D5
:1055100002330026013B002713F8012F303AD1B2A5
:10552000092903D80A2101FB0727F5E7B7F59A7F78
:1055300028BF4FF49A77B8464FF07E51B8F1070F65
:1055400007D9084612490EF0F7FFA8F108080146EE
:10555000F4E707F0070737B108460C490EF0ECFFF7
:10556000013F0146F7E72EB120460FF099F804E01D
:105570004FF07E5120460EF0DFFF014628460EF028
:10558000DBFFBDE8F08100BF000080BF00002041CC
:1055900020BCBE4CF0B50124B0FBF4F58D4201D324
:1055A0004C43F9E70026DCB1B0FBF4F504FB150031
:1055B000B4FBF1F41EB9002D01DC002CF3D1092D50
:1055C00003F101075FFA85FC04DD002A0CBF5725B3
:1055D000372500E0302565441D7001363B46E2E783
:1055E0001C70F0BDF0B50124B0FBF4F58D4201D381
:1055F0004C43F9E70026DCB1B0FBF4F504FB1500E1
:10560000B4FBF1F41EB9002D01DC002CF3D1092DFF
:1056100003F101075FFA85FC04DD002A0CBF572562
:10562000372500E0302565441D7001363B46E2E732
:105630001C70F0BD70B50646B6FBF2F40846154680
:1056400014B12046FFF7F6FF05FB1464024B1B5D07
:1056500000F8013B70BD00BFB4D701082DE9F84345
:10566000089E002B0746884614460CBF4FF02009C1
:105670004FF03009334613F8012B0AB9254603E0F1
:10568000002CFBDD013CF6E7002D04DD38464946E1
:10569000C047013DF8E724EAE4742546331B595D11
:1056A00019B13846C0470135F8E72846BDE8F88308
:1056B00080EAE073A3EBE0738B4206DB002801DD98
:1056C000401A704702D008447047002070472DE907
:1056D000F84321F0004520F000460746884628465A
:1056E00031460FF0E5F808B12C4600E0344620467C
:1056F00000210FF0B5F860B9284631460FF0BAF82E
:1057000008B1284600E0304621460EF0C9FF0446A5
:1057100000E00024204625490EF00EFF24490EF03B
:1057200001FE21460EF008FF22490EF0FBFD214646
:105730000EF002FF20490EF0F5FD21460EF0FCFEB2
:105740001E490EF0EFFD1E4900F1004920460EF003
:10575000F3FE1C490EF0E8FD21460EF0EDFE4FF081
:105760007E510EF0E1FD014648460EF099FF2946B4
:10577000044630460FF09CF820B1214612480EF046
:10578000D1FD0446404600210FF074F820B12146B7
:105790000E480EF0C7FD0446384600210FF06AF8A7
:1057A00008B104F100442046BDE8F88339094E3DB4
:1057B000E3B59E3E88FA163E45FE7F3FA7DFA8343C
:1057C00099FB243F69A2163EDB0FC93FDB0F49401E
:1057D000F8B5101A0C461F460EF05AFE0546381B47
:1057E0000EF056FE174B079E19680EF0A5FE2946CF
:1057F000044628460EF0A0FE2146074620460EF03D
:105800009BFE014638460EF08FFD12F0CDFD0E498D
:105810000EF092FE0FF07CF8069B2146186005F111
:105820000040FFF754FF09490EF086FE08490EF0CC
:105830007BFD0FF047F80028BCBF00F50C40A030FE
:105840003060F8BD480000202C7D8E3FA00CB34591
:1058500000A00C4670B504460FF034F82030402804
:1058600057D820462C490FF023F828B120462B4961
:105870000EF058FD0446F4E7204629490EF0FAFFE1
:1058800028B1204625490EF04FFD0446F4E7204696
:1058900024490FF00DF830B1224920460EF042FDA8
:1058A000014620480AE020461F490EF0E3FF40B1C0
:1058B0001C4920460EF038FD01461B480EF032FD13
:1058C0000446214620460EF037FE0546294620466E
:1058D0000EF032FE0021064628460EF02DFE13493A
:1058E0000EF020FD014628460EF026FE10490EF06F
:1058F0001BFD014628460EF01FFE0E490EF012FD5C
:10590000014630460EF018FE014620460EF00CFD12
:1059100070BD002070BD00BFDB0F4940DB0FC940E8
:10592000DB0F49C0DB0FC93FDB0FC9BF92E741392D
:105930009730083C15A82A3E08B503490EF0F4FC40
:10594000BDE8084086E700BFDB0FC93FB0F9023071
:105950002DE9F74F93421CBF002303700478824661
:105960000E461746002C40F0BA8010460EF090FD0F
:1059700099490EF0E1FD99490EF0DEFD4FF07C51A2
:105980000EF0DAFD8046FFF765FF05464046FFF75B
:10599000D3FF014628460EF083FE014605460EF071
:1059A000CBFD8F49834628460EF0C6FD03461946B7
:1059B000584601930EF0B8FC4FF07E510EF0B4FC47
:1059C00001464FF07E500EF06BFE294681460EF0E8
:1059D000B3FD29460EF0B0FD0146CAF8040080462A
:1059E0000EF0A2FCCAF80C804FF07E582946CAF887
:1059F0000800CAF8108028460EF096FC29460EF0E2
:105A00009BFD4FF080410EF08DFC014648460EF0A4
:105A100093FD019BCAF81400194658460EF082FC0B
:105A200041460EF081FC014648460EF085FD40F2ED
:105A3000DC53CAF854301023AAF852301823CAF89D
:105A40001800AAF8503055460AEB04084FF0974169
:105A5000D8F810000EF070FD002181460EF00AFF0C
:105A600028B148464FF07C510EF05CFC04E04846FB
:105A70004FF07C510EF058FC0EF086FFC5E90E0188
:105A80004FF09741D8F804000EF056FD00218046F3
:105A90000EF0F0FE28B140464FF07C510EF042FC73
:105AA00004E040464FF07C510EF03EFC0EF06CFFDF
:105AB00004340C2CC5E9080105F10805C4D1A6F28F
:105AC000DC531B04CAF87030CAF87C30CAF8743052
:105AD000CAF880300123AAF802708AF80030DAF898
